{
  "_format": "hh-sol-artifact-1",
  "contractName": "OsmiDistributionManager",
  "sourceName": "contracts/OsmiDistributionManager.sol",
  "abi": [
    {
      "inputs": [],
      "stateMutability": "nonpayable",
      "type": "constructor"
    },
    {
      "inputs": [
        {
          "internalType": "address",
          "name": "authority",
          "type": "address"
        }
      ],
      "name": "AccessManagedInvalidAuthority",
      "type": "error"
    },
    {
      "inputs": [
        {
          "internalType": "address",
          "name": "caller",
          "type": "address"
        },
        {
          "internalType": "uint32",
          "name": "delay",
          "type": "uint32"
        }
      ],
      "name": "AccessManagedRequiredDelay",
      "type": "error"
    },
    {
      "inputs": [
        {
          "internalType": "address",
          "name": "caller",
          "type": "address"
        }
      ],
      "name": "AccessManagedUnauthorized",
      "type": "error"
    },
    {
      "inputs": [
        {
          "internalType": "address",
          "name": "target",
          "type": "address"
        }
      ],
      "name": "AddressEmptyCode",
      "type": "error"
    },
    {
      "inputs": [],
      "name": "ECDSAInvalidSignature",
      "type": "error"
    },
    {
      "inputs": [
        {
          "internalType": "uint256",
          "name": "length",
          "type": "uint256"
        }
      ],
      "name": "ECDSAInvalidSignatureLength",
      "type": "error"
    },
    {
      "inputs": [
        {
          "internalType": "bytes32",
          "name": "s",
          "type": "bytes32"
        }
      ],
      "name": "ECDSAInvalidSignatureS",
      "type": "error"
    },
    {
      "inputs": [
        {
          "internalType": "address",
          "name": "implementation",
          "type": "address"
        }
      ],
      "name": "ERC1967InvalidImplementation",
      "type": "error"
    },
    {
      "inputs": [],
      "name": "ERC1967NonPayable",
      "type": "error"
    },
    {
      "inputs": [],
      "name": "FailedInnerCall",
      "type": "error"
    },
    {
      "inputs": [
        {
          "internalType": "address",
          "name": "user",
          "type": "address"
        },
        {
          "internalType": "uint256",
          "name": "allowance",
          "type": "uint256"
        },
        {
          "internalType": "uint256",
          "name": "needed",
          "type": "uint256"
        }
      ],
      "name": "InsufficientAllowance",
      "type": "error"
    },
    {
      "inputs": [
        {
          "internalType": "address",
          "name": "account",
          "type": "address"
        },
        {
          "internalType": "uint256",
          "name": "currentNonce",
          "type": "uint256"
        }
      ],
      "name": "InvalidAccountNonce",
      "type": "error"
    },
    {
      "inputs": [],
      "name": "InvalidInitialization",
      "type": "error"
    },
    {
      "inputs": [
        {
          "internalType": "address",
          "name": "signer",
          "type": "address"
        },
        {
          "internalType": "address",
          "name": "owner",
          "type": "address"
        }
      ],
      "name": "InvalidSigner",
      "type": "error"
    },
    {
      "inputs": [
        {
          "internalType": "bytes32",
          "name": "expected",
          "type": "bytes32"
        },
        {
          "internalType": "bytes32",
          "name": "actual",
          "type": "bytes32"
        }
      ],
      "name": "InvalidTicketHash",
      "type": "error"
    },
    {
      "inputs": [
        {
          "internalType": "address",
          "name": "signer",
          "type": "address"
        },
        {
          "internalType": "address",
          "name": "one",
          "type": "address"
        },
        {
          "internalType": "address",
          "name": "two",
          "type": "address"
        }
      ],
      "name": "InvalidTicketSigner",
      "type": "error"
    },
    {
      "inputs": [],
      "name": "MathOverflowedMulDiv",
      "type": "error"
    },
    {
      "inputs": [],
      "name": "NotInitializing",
      "type": "error"
    },
    {
      "inputs": [],
      "name": "UUPSUnauthorizedCallContext",
      "type": "error"
    },
    {
      "inputs": [
        {
          "internalType": "bytes32",
          "name": "slot",
          "type": "bytes32"
        }
      ],
      "name": "UUPSUnsupportedProxiableUUID",
      "type": "error"
    },
    {
      "inputs": [],
      "name": "UnsupportedBridge",
      "type": "error"
    },
    {
      "inputs": [],
      "name": "ZeroAddressNotAllowed",
      "type": "error"
    },
    {
      "inputs": [],
      "name": "ZeroAmountNotAllowed",
      "type": "error"
    },
    {
      "anonymous": false,
      "inputs": [
        {
          "indexed": false,
          "internalType": "address",
          "name": "authority",
          "type": "address"
        }
      ],
      "name": "AuthorityUpdated",
      "type": "event"
    },
    {
      "anonymous": false,
      "inputs": [
        {
          "indexed": false,
          "internalType": "enum OsmiDistributionManager.Bridge",
          "name": "bridge",
          "type": "uint8"
        },
        {
          "indexed": false,
          "internalType": "address",
          "name": "bridgeContract",
          "type": "address"
        }
      ],
      "name": "BridgeContractChanged",
      "type": "event"
    },
    {
      "anonymous": false,
      "inputs": [
        {
          "indexed": false,
          "internalType": "contract IOsmiConfig",
          "name": "configContract",
          "type": "address"
        }
      ],
      "name": "ConfigContractChanged",
      "type": "event"
    },
    {
      "anonymous": false,
      "inputs": [],
      "name": "EIP712DomainChanged",
      "type": "event"
    },
    {
      "anonymous": false,
      "inputs": [
        {
          "indexed": false,
          "internalType": "uint64",
          "name": "version",
          "type": "uint64"
        }
      ],
      "name": "Initialized",
      "type": "event"
    },
    {
      "anonymous": false,
      "inputs": [
        {
          "indexed": false,
          "internalType": "address",
          "name": "user",
          "type": "address"
        },
        {
          "indexed": false,
          "internalType": "uint256",
          "name": "amount",
          "type": "uint256"
        },
        {
          "indexed": false,
          "internalType": "uint256",
          "name": "timestamp",
          "type": "uint256"
        }
      ],
      "name": "TicketRedeemed",
      "type": "event"
    },
    {
      "anonymous": false,
      "inputs": [
        {
          "indexed": false,
          "internalType": "address",
          "name": "ticketSigner",
          "type": "address"
        }
      ],
      "name": "TicketSignerChanged",
      "type": "event"
    },
    {
      "anonymous": false,
      "inputs": [
        {
          "indexed": false,
          "internalType": "contract IOsmiToken",
          "name": "tokenContract",
          "type": "address"
        }
      ],
      "name": "TokenContractChanged",
      "type": "event"
    },
    {
      "anonymous": false,
      "inputs": [
        {
          "indexed": false,
          "internalType": "address",
          "name": "tokenPool",
          "type": "address"
        }
      ],
      "name": "TokenPoolChanged",
      "type": "event"
    },
    {
      "anonymous": false,
      "inputs": [
        {
          "indexed": false,
          "internalType": "address",
          "name": "user",
          "type": "address"
        },
        {
          "indexed": false,
          "internalType": "uint256",
          "name": "amount",
          "type": "uint256"
        },
        {
          "indexed": false,
          "internalType": "enum OsmiDistributionManager.Bridge",
          "name": "bridge",
          "type": "uint8"
        },
        {
          "indexed": false,
          "internalType": "string",
          "name": "target",
          "type": "string"
        }
      ],
      "name": "TokensBridgedTo",
      "type": "event"
    },
    {
      "anonymous": false,
      "inputs": [
        {
          "indexed": false,
          "internalType": "address",
          "name": "user",
          "type": "address"
        },
        {
          "indexed": false,
          "internalType": "uint256",
          "name": "amount",
          "type": "uint256"
        },
        {
          "indexed": false,
          "internalType": "enum OsmiDistributionManager.Bridge",
          "name": "bridge",
          "type": "uint8"
        }
      ],
      "name": "TokensClaimed",
      "type": "event"
    },
    {
      "anonymous": false,
      "inputs": [
        {
          "indexed": false,
          "internalType": "address",
          "name": "user",
          "type": "address"
        },
        {
          "indexed": false,
          "internalType": "uint256",
          "name": "amount",
          "type": "uint256"
        }
      ],
      "name": "TokensStaked",
      "type": "event"
    },
    {
      "anonymous": false,
      "inputs": [
        {
          "indexed": false,
          "internalType": "address",
          "name": "user",
          "type": "address"
        },
        {
          "indexed": false,
          "internalType": "uint256",
          "name": "amount",
          "type": "uint256"
        }
      ],
      "name": "TokensUnstaked",
      "type": "event"
    },
    {
      "anonymous": false,
      "inputs": [
        {
          "indexed": true,
          "internalType": "address",
          "name": "implementation",
          "type": "address"
        }
      ],
      "name": "Upgraded",
      "type": "event"
    },
    {
      "inputs": [],
      "name": "UPGRADE_INTERFACE_VERSION",
      "outputs": [
        {
          "internalType": "string",
          "name": "",
          "type": "string"
        }
      ],
      "stateMutability": "view",
      "type": "function"
    },
    {
      "inputs": [],
      "name": "authority",
      "outputs": [
        {
          "internalType": "address",
          "name": "",
          "type": "address"
        }
      ],
      "stateMutability": "view",
      "type": "function"
    },
    {
      "inputs": [
        {
          "internalType": "uint256",
          "name": "amount",
          "type": "uint256"
        },
        {
          "internalType": "enum OsmiDistributionManager.Bridge",
          "name": "bridge",
          "type": "uint8"
        }
      ],
      "name": "bridgeTokens",
      "outputs": [
        {
          "internalType": "uint256",
          "name": "allowance",
          "type": "uint256"
        }
      ],
      "stateMutability": "nonpayable",
      "type": "function"
    },
    {
      "inputs": [
        {
          "internalType": "uint256",
          "name": "amount",
          "type": "uint256"
        },
        {
          "internalType": "string",
          "name": "targetAlias",
          "type": "string"
        }
      ],
      "name": "bridgeTokensToGalaChainAlias",
      "outputs": [
        {
          "internalType": "uint256",
          "name": "allowance",
          "type": "uint256"
        }
      ],
      "stateMutability": "nonpayable",
      "type": "function"
    },
    {
      "inputs": [
        {
          "internalType": "uint256",
          "name": "amount",
          "type": "uint256"
        }
      ],
      "name": "claimTokens",
      "outputs": [
        {
          "internalType": "uint256",
          "name": "allowance",
          "type": "uint256"
        }
      ],
      "stateMutability": "nonpayable",
      "type": "function"
    },
    {
      "inputs": [],
      "name": "eip712Domain",
      "outputs": [
        {
          "internalType": "bytes1",
          "name": "fields",
          "type": "bytes1"
        },
        {
          "internalType": "string",
          "name": "name",
          "type": "string"
        },
        {
          "internalType": "string",
          "name": "version",
          "type": "string"
        },
        {
          "internalType": "uint256",
          "name": "chainId",
          "type": "uint256"
        },
        {
          "internalType": "address",
          "name": "verifyingContract",
          "type": "address"
        },
        {
          "internalType": "bytes32",
          "name": "salt",
          "type": "bytes32"
        },
        {
          "internalType": "uint256[]",
          "name": "extensions",
          "type": "uint256[]"
        }
      ],
      "stateMutability": "view",
      "type": "function"
    },
    {
      "inputs": [
        {
          "internalType": "enum OsmiDistributionManager.Bridge",
          "name": "bridge",
          "type": "uint8"
        }
      ],
      "name": "getBridgeContract",
      "outputs": [
        {
          "internalType": "address",
          "name": "",
          "type": "address"
        }
      ],
      "stateMutability": "view",
      "type": "function"
    },
    {
      "inputs": [],
      "name": "getConfigContract",
      "outputs": [
        {
          "internalType": "contract IOsmiConfig",
          "name": "",
          "type": "address"
        }
      ],
      "stateMutability": "view",
      "type": "function"
    },
    {
      "inputs": [],
      "name": "getTicketSigners",
      "outputs": [
        {
          "internalType": "address",
          "name": "",
          "type": "address"
        },
        {
          "internalType": "address",
          "name": "",
          "type": "address"
        }
      ],
      "stateMutability": "view",
      "type": "function"
    },
    {
      "inputs": [],
      "name": "getTokenContract",
      "outputs": [
        {
          "internalType": "contract IOsmiToken",
          "name": "tokenContract",
          "type": "address"
        }
      ],
      "stateMutability": "view",
      "type": "function"
    },
    {
      "inputs": [],
      "name": "getTokenPool",
      "outputs": [
        {
          "internalType": "address",
          "name": "tokenPool",
          "type": "address"
        }
      ],
      "stateMutability": "view",
      "type": "function"
    },
    {
      "inputs": [
        {
          "internalType": "address",
          "name": "initialAuthority",
          "type": "address"
        },
        {
          "internalType": "address",
          "name": "tokenContract",
          "type": "address"
        },
        {
          "internalType": "address",
          "name": "tokenPool",
          "type": "address"
        },
        {
          "internalType": "address",
          "name": "ticketSigner",
          "type": "address"
        }
      ],
      "name": "initialize",
      "outputs": [],
      "stateMutability": "nonpayable",
      "type": "function"
    },
    {
      "inputs": [],
      "name": "isConsumingScheduledOp",
      "outputs": [
        {
          "internalType": "bytes4",
          "name": "",
          "type": "bytes4"
        }
      ],
      "stateMutability": "view",
      "type": "function"
    },
    {
      "inputs": [
        {
          "internalType": "address",
          "name": "owner",
          "type": "address"
        }
      ],
      "name": "nonces",
      "outputs": [
        {
          "internalType": "uint256",
          "name": "",
          "type": "uint256"
        }
      ],
      "stateMutability": "view",
      "type": "function"
    },
    {
      "inputs": [],
      "name": "proxiableUUID",
      "outputs": [
        {
          "internalType": "bytes32",
          "name": "",
          "type": "bytes32"
        }
      ],
      "stateMutability": "view",
      "type": "function"
    },
    {
      "inputs": [
        {
          "components": [
            {
              "internalType": "address",
              "name": "signer",
              "type": "address"
            },
            {
              "internalType": "address",
              "name": "user",
              "type": "address"
            },
            {
              "internalType": "uint256",
              "name": "timestamp",
              "type": "uint256"
            },
            {
              "internalType": "bytes32",
              "name": "expectedHash",
              "type": "bytes32"
            },
            {
              "internalType": "uint256",
              "name": "amount",
              "type": "uint256"
            },
            {
              "internalType": "uint8",
              "name": "v",
              "type": "uint8"
            },
            {
              "internalType": "bytes32",
              "name": "r",
              "type": "bytes32"
            },
            {
              "internalType": "bytes32",
              "name": "s",
              "type": "bytes32"
            }
          ],
          "internalType": "struct OsmiDistributionManager.Ticket",
          "name": "ticket",
          "type": "tuple"
        }
      ],
      "name": "redeem",
      "outputs": [
        {
          "internalType": "uint256",
          "name": "allowance",
          "type": "uint256"
        }
      ],
      "stateMutability": "nonpayable",
      "type": "function"
    },
    {
      "inputs": [
        {
          "components": [
            {
              "internalType": "address",
              "name": "signer",
              "type": "address"
            },
            {
              "internalType": "address",
              "name": "user",
              "type": "address"
            },
            {
              "internalType": "uint256",
              "name": "timestamp",
              "type": "uint256"
            },
            {
              "internalType": "bytes32",
              "name": "expectedHash",
              "type": "bytes32"
            },
            {
              "internalType": "uint256",
              "name": "amount",
              "type": "uint256"
            },
            {
              "internalType": "uint8",
              "name": "v",
              "type": "uint8"
            },
            {
              "internalType": "bytes32",
              "name": "r",
              "type": "bytes32"
            },
            {
              "internalType": "bytes32",
              "name": "s",
              "type": "bytes32"
            }
          ],
          "internalType": "struct OsmiDistributionManager.Ticket",
          "name": "ticket",
          "type": "tuple"
        },
        {
          "internalType": "uint256",
          "name": "amount",
          "type": "uint256"
        },
        {
          "internalType": "enum OsmiDistributionManager.Bridge",
          "name": "bridge",
          "type": "uint8"
        }
      ],
      "name": "redeemAndBridge",
      "outputs": [
        {
          "internalType": "uint256",
          "name": "allowance",
          "type": "uint256"
        }
      ],
      "stateMutability": "nonpayable",
      "type": "function"
    },
    {
      "inputs": [
        {
          "components": [
            {
              "internalType": "address",
              "name": "signer",
              "type": "address"
            },
            {
              "internalType": "address",
              "name": "user",
              "type": "address"
            },
            {
              "internalType": "uint256",
              "name": "timestamp",
              "type": "uint256"
            },
            {
              "internalType": "bytes32",
              "name": "expectedHash",
              "type": "bytes32"
            },
            {
              "internalType": "uint256",
              "name": "amount",
              "type": "uint256"
            },
            {
              "internalType": "uint8",
              "name": "v",
              "type": "uint8"
            },
            {
              "internalType": "bytes32",
              "name": "r",
              "type": "bytes32"
            },
            {
              "internalType": "bytes32",
              "name": "s",
              "type": "bytes32"
            }
          ],
          "internalType": "struct OsmiDistributionManager.Ticket",
          "name": "ticket",
          "type": "tuple"
        },
        {
          "internalType": "uint256",
          "name": "amount",
          "type": "uint256"
        },
        {
          "internalType": "string",
          "name": "targetAlias",
          "type": "string"
        }
      ],
      "name": "redeemAndBridgeToGalaChainAlias",
      "outputs": [
        {
          "internalType": "uint256",
          "name": "allowance",
          "type": "uint256"
        }
      ],
      "stateMutability": "nonpayable",
      "type": "function"
    },
    {
      "inputs": [
        {
          "components": [
            {
              "internalType": "address",
              "name": "signer",
              "type": "address"
            },
            {
              "internalType": "address",
              "name": "user",
              "type": "address"
            },
            {
              "internalType": "uint256",
              "name": "timestamp",
              "type": "uint256"
            },
            {
              "internalType": "bytes32",
              "name": "expectedHash",
              "type": "bytes32"
            },
            {
              "internalType": "uint256",
              "name": "amount",
              "type": "uint256"
            },
            {
              "internalType": "uint8",
              "name": "v",
              "type": "uint8"
            },
            {
              "internalType": "bytes32",
              "name": "r",
              "type": "bytes32"
            },
            {
              "internalType": "bytes32",
              "name": "s",
              "type": "bytes32"
            }
          ],
          "internalType": "struct OsmiDistributionManager.Ticket",
          "name": "ticket",
          "type": "tuple"
        },
        {
          "internalType": "uint256",
          "name": "amount",
          "type": "uint256"
        }
      ],
      "name": "redeemAndClaim",
      "outputs": [
        {
          "internalType": "uint256",
          "name": "allowance",
          "type": "uint256"
        }
      ],
      "stateMutability": "nonpayable",
      "type": "function"
    },
    {
      "inputs": [
        {
          "components": [
            {
              "internalType": "address",
              "name": "signer",
              "type": "address"
            },
            {
              "internalType": "address",
              "name": "user",
              "type": "address"
            },
            {
              "internalType": "uint256",
              "name": "timestamp",
              "type": "uint256"
            },
            {
              "internalType": "bytes32",
              "name": "expectedHash",
              "type": "bytes32"
            },
            {
              "internalType": "uint256",
              "name": "amount",
              "type": "uint256"
            },
            {
              "internalType": "uint8",
              "name": "v",
              "type": "uint8"
            },
            {
              "internalType": "bytes32",
              "name": "r",
              "type": "bytes32"
            },
            {
              "internalType": "bytes32",
              "name": "s",
              "type": "bytes32"
            }
          ],
          "internalType": "struct OsmiDistributionManager.Ticket",
          "name": "ticket",
          "type": "tuple"
        },
        {
          "internalType": "uint256",
          "name": "amount",
          "type": "uint256"
        }
      ],
      "name": "redeemAndStake",
      "outputs": [
        {
          "internalType": "uint256",
          "name": "allowance",
          "type": "uint256"
        }
      ],
      "stateMutability": "nonpayable",
      "type": "function"
    },
    {
      "inputs": [
        {
          "internalType": "address",
          "name": "newAuthority",
          "type": "address"
        }
      ],
      "name": "setAuthority",
      "outputs": [],
      "stateMutability": "nonpayable",
      "type": "function"
    },
    {
      "inputs": [
        {
          "internalType": "enum OsmiDistributionManager.Bridge",
          "name": "bridge",
          "type": "uint8"
        },
        {
          "internalType": "address",
          "name": "bridgeContract",
          "type": "address"
        }
      ],
      "name": "setBridgeContract",
      "outputs": [],
      "stateMutability": "nonpayable",
      "type": "function"
    },
    {
      "inputs": [
        {
          "internalType": "address",
          "name": "configContract",
          "type": "address"
        }
      ],
      "name": "setConfigContract",
      "outputs": [],
      "stateMutability": "nonpayable",
      "type": "function"
    },
    {
      "inputs": [
        {
          "internalType": "address",
          "name": "signer",
          "type": "address"
        }
      ],
      "name": "setTicketSigner",
      "outputs": [],
      "stateMutability": "nonpayable",
      "type": "function"
    },
    {
      "inputs": [
        {
          "internalType": "address",
          "name": "tokenContract",
          "type": "address"
        }
      ],
      "name": "setTokenContract",
      "outputs": [],
      "stateMutability": "nonpayable",
      "type": "function"
    },
    {
      "inputs": [
        {
          "internalType": "address",
          "name": "tokenPool",
          "type": "address"
        }
      ],
      "name": "setTokenPool",
      "outputs": [],
      "stateMutability": "nonpayable",
      "type": "function"
    },
    {
      "inputs": [
        {
          "internalType": "uint256",
          "name": "amount",
          "type": "uint256"
        }
      ],
      "name": "stakeTokens",
      "outputs": [
        {
          "internalType": "uint256",
          "name": "allowance",
          "type": "uint256"
        }
      ],
      "stateMutability": "nonpayable",
      "type": "function"
    },
    {
      "inputs": [
        {
          "internalType": "address",
          "name": "newImplementation",
          "type": "address"
        },
        {
          "internalType": "bytes",
          "name": "data",
          "type": "bytes"
        }
      ],
      "name": "upgradeToAndCall",
      "outputs": [],
      "stateMutability": "payable",
      "type": "function"
    }
  ],
  "bytecode": "0x60a06040523060805234801561001457600080fd5b5061001d610022565b6100d4565b7ff0c57e16840df040f15088dc2f81fe391c3923bec73e23a9662efc9c229c6a00805468010000000000000000900460ff16156100725760405163f92ee8a960e01b815260040160405180910390fd5b80546001600160401b03908116146100d15780546001600160401b0319166001600160401b0390811782556040519081527fc7f505b2f371ae2175ee4913f4499e1f2633a7b5936321eed1cdaeb6115181d29060200160405180910390a15b50565b60805161347a6100fd6000396000818161176d0152818161179601526118df015261347a6000f3fe6080604052600436106101b75760003560e01c806384b0196e116100ec578063ad3cb1cc1161008a578063bf7e214f11610064578063bf7e214f14610539578063de7b8ffe1461054e578063ec55dd421461056e578063f8c8765e1461058357600080fd5b8063ad3cb1cc146104bb578063b2f35e49146104f9578063bbcd5bbe1461051957600080fd5b8063989e9b2f116100c6578063989e9b2f1461042657806399c4aaae146104465780639c88217614610466578063a35ff3bf1461049b57600080fd5b806384b0196e146103b057806389255bbb146103d85780638fb36037146103f857600080fd5b80634f1ef286116101595780637547c7a3116101335780637547c7a3146102fb5780637764b4d21461031b5780637a9e5e4b1461033b5780637ecebe001461035b57600080fd5b80634f1ef286146102b157806352d1902d146102c657806365ec1ed6146102db57600080fd5b806316b6f8bb1161019557806316b6f8bb1461023c57806328b7bede1461025c57806346e04a2f146102715780634d5634621461029157600080fd5b80630ce6f6a9146101bc5780630e1c3a4a146101ef57806310d50ea41461021c575b600080fd5b3480156101c857600080fd5b506101dc6101d7366004612b08565b6105a3565b6040519081526020015b60405180910390f35b3480156101fb57600080fd5b506102046105c3565b6040516001600160a01b0390911681526020016101e6565b34801561022857600080fd5b506101dc610237366004612b6e565b6105fb565b34801561024857600080fd5b506101dc610257366004612bcc565b61065f565b34801561026857600080fd5b5061020461067d565b34801561027d57600080fd5b506101dc61028c366004612c18565b610687565b34801561029d57600080fd5b506102046102ac366004612c40565b61069d565b6102c46102bf366004612c86565b6106a8565b005b3480156102d257600080fd5b506101dc6106c7565b3480156102e757600080fd5b506101dc6102f6366004612d52565b6106e4565b34801561030757600080fd5b506101dc610316366004612c18565b610714565b34801561032757600080fd5b506102c4610336366004612d7e565b61072a565b34801561034757600080fd5b506102c4610356366004612d7e565b61073f565b34801561036757600080fd5b506101dc610376366004612d7e565b6001600160a01b031660009081527f5ab42ced628888259c08ac98db1eb0cf702fc1501344311d8b100cd1bfe4bb00602052604090205490565b3480156103bc57600080fd5b506103c56107c7565b6040516101e69796959493929190612deb565b3480156103e457600080fd5b506102c46103f3366004612e83565b610873565b34801561040457600080fd5b5061040d6109ea565b6040516001600160e01b031990911681526020016101e6565b34801561043257600080fd5b506101dc610441366004612eba565b610a23565b34801561045257600080fd5b506101dc610461366004612efa565b610a41565b34801561047257600080fd5b5061047b610a5f565b604080516001600160a01b039384168152929091166020830152016101e6565b3480156104a757600080fd5b506102c46104b6366004612d7e565b610ac2565b3480156104c757600080fd5b506104ec604051806040016040528060058152602001640352e302e360dc1b81525081565b6040516101e69190612f27565b34801561050557600080fd5b506101dc610514366004612efa565b610ad4565b34801561052557600080fd5b506102c4610534366004612d7e565b610af2565b34801561054557600080fd5b50610204610b04565b34801561055a57600080fd5b506102c4610569366004612d7e565b610b27565b34801561057a57600080fd5b50610204610b39565b34801561058f57600080fd5b506102c461059e366004612f3a565b610b6c565b60006105b2335b600036610d0a565b6105bb82610e10565b90505b919050565b60006105f67f55830a805815e4d506db4501e6719bc7b974e594ecdefb09d1856bf6a5d79506546001600160a01b031690565b905090565b6000610606336105aa565b61060f85610e10565b50610654335b85600186868080601f0160208091040260200160405190810160405280939291908181526020018383808284376000920191909152506110f192505050565b90505b949350505050565b600061066a336105aa565b61067333610615565b90505b9392505050565b60006105f661149b565b6000610692336105aa565b6105bb335b836114b2565b60006105bb826116b8565b6106b0611762565b6106b982611809565b6106c38282611812565b5050565b60006106d16118d4565b5060008051602061340583398151915290565b60006106ef336105aa565b61070b335b8484604051806020016040528060008152506110f1565b90505b92915050565b600061071f336105aa565b6105bb335b8361191d565b610733336105aa565b61073c81611be6565b50565b33610748610b04565b6001600160a01b0316816001600160a01b0316146107885760405162d1953b60e31b81526001600160a01b03821660048201526024015b60405180910390fd5b816001600160a01b03163b6000036107be576040516361798f2f60e11b81526001600160a01b038316600482015260240161077f565b6106c382611cad565b600060608082808083816000805160206133e583398151915280549091501580156107f457506001810154155b6108385760405162461bcd60e51b81526020600482015260156024820152741152540dcc4c8e88155b9a5b9a5d1a585b1a5e9959605a1b604482015260640161077f565b610840611d07565b610848611dca565b60408051600080825260208201909252600f60f81b9c939b5091995046985030975095509350915050565b61087c336105aa565b600082600281111561089057610890612f96565b1115806108af575060028260028111156108ac576108ac612f96565b10155b156108cd57604051631da5310560e01b815260040160405180910390fd5b6000805160206134258339815191526001600160a01b0382167f55830a805815e4d506db4501e6719bc7b974e594ecdefb09d1856bf6a5d79505600085600281111561091b5761091b612f96565b600281111561092c5761092c612f96565b81526020810191909152604001600020546001600160a01b03160361095057505050565b8181600501600085600281111561096957610969612f96565b600281111561097a5761097a612f96565b815260200190815260200160002060006101000a8154816001600160a01b0302191690836001600160a01b031602179055507ff8a8a21419a446fca7e68faabc9cc446414eff015f0cb697bc94c9ec453efe4783836040516109dd929190612fce565b60405180910390a1505050565b6000805160206133c5833981519152805460009190600160a01b900460ff16610a14576000610a1d565b638fb3603760e01b5b91505090565b6000610a2e336105aa565b610a3784610e10565b50610673336106f4565b6000610a4c336105aa565b610a5583610e10565b5061070b33610724565b600080610aba7f55830a805815e4d506db4501e6719bc7b974e594ecdefb09d1856bf6a5d79502547f55830a805815e4d506db4501e6719bc7b974e594ecdefb09d1856bf6a5d79503546001600160a01b0391821692911690565b915091509091565b610acb336105aa565b61073c81611e09565b6000610adf336105aa565b610ae883610e10565b5061070b33610697565b610afb336105aa565b61073c81611edb565b6000806000805160206133c58339815191525b546001600160a01b031692915050565b610b30336105aa565b61073c81611f74565b60006105f67f55830a805815e4d506db4501e6719bc7b974e594ecdefb09d1856bf6a5d79501546001600160a01b031690565b7ff0c57e16840df040f15088dc2f81fe391c3923bec73e23a9662efc9c229c6a008054600160401b810460ff16159067ffffffffffffffff16600081158015610bb25750825b905060008267ffffffffffffffff166001148015610bcf5750303b155b905081158015610bdd575080155b15610bfb5760405163f92ee8a960e01b815260040160405180910390fd5b845467ffffffffffffffff191660011785558315610c2557845460ff60401b1916600160401b1785555b610c2e89612033565b610c36612044565b610c3e612044565b610c966040518060400160405280601781526020017f4f736d69446973747269627574696f6e4d616e61676572000000000000000000815250604051806040016040528060018152602001603160f81b81525061204c565b610c9e612044565b610ca788611edb565b610cb087611be6565b610cb986611e09565b8315610cff57845460ff60401b19168555604051600181527fc7f505b2f371ae2175ee4913f4499e1f2633a7b5936321eed1cdaeb6115181d29060200160405180910390a15b505050505050505050565b6000805160206133c5833981519152600080610d45610d27610b04565b8730610d37600460008a8c612ff4565b610d409161301e565b61205e565b9150915081610e085763ffffffff811615610de557825460ff60a01b1916600160a01b178355610d73610b04565b6001600160a01b03166394c7d7ee8787876040518463ffffffff1660e01b8152600401610da293929190613056565b600060405180830381600087803b158015610dbc57600080fd5b505af1158015610dd0573d6000803e3d6000fd5b5050845460ff60a01b1916855550610e089050565b60405162d1953b60e31b81526001600160a01b038716600482015260240161077f565b505050505050565b600080610e1c8361216a565b905060008051602061342583398151915260006000805160206133a583398151915281610e4f6040880160208901612d7e565b6001600160a01b03166001600160a01b03168152602001908152602001600020905060006001600160a01b0316856020016020810190610e8f9190612d7e565b6001600160a01b031603610eb6576040516342bcdf7f60e11b815260040160405180910390fd5b8460800135600003610edb576040516307a1cab560e11b815260040160405180910390fd5b600181015460408601359062014370610ef483426130ac565b1115610f335760405162461bcd60e51b815260206004820152600e60248201526d1d1a58dad95d08195e1c1a5c995960921b604482015260640161077f565b62014370610f4182846130ac565b1015610f885760405162461bcd60e51b81526020600482015260166024820152753a34b1b5b2ba1034b9b9bab2b2103a37b79039b7b7b760511b604482015260640161077f565b8260020154876060013514610fc357600283015460405163131bf61b60e01b815260608901356004820152602481019190915260440161077f565b8660800135836000016000828254610fdb91906130bf565b9091555050604087018035600185015560028401546000917f4e9b0e2afb2e56a47cc5c5693615261ff938bb48f9baf05077e20c8fd8d5f71a91906110239060208c01612d7e565b604080516020810194909452838101929092526001600160a01b0316606083015289013560808281019190915289013560a082015260c0810187905260e0016040516020818303038152906040528051906020012090506110838161231a565b60028501557fc486cbcc73b5497f564228f5833a8766da2c87c2b5669ce5838d50bdf396f0746110b960408a0160208b01612d7e565b604080516001600160a01b03909216825260808b01356020830152810185905260600160405180910390a15050905495945050505050565b60006001600160a01b03851661111a576040516342bcdf7f60e11b815260040160405180910390fd5b8360000361113b576040516307a1cab560e11b815260040160405180910390fd5b6001600160a01b03851660009081526000805160206133a583398151915260205260409020805460008051602061342583398151915291908611156111ba578054879061118881896130ac565b604051630c95cf2760e11b81526001600160a01b0390931660048401526024830191909152604482015260640161077f565b858160000160008282546111ce91906130ac565b90915550506040517f53784b3fa987ce4f3566245eefd7537f99a526db5a6213c14e1bbe9c99d37b2390611207908990899089906130d2565b60405180910390a160006112248763017d7840633b9aca00612347565b905061123081886130ac565b8354600185015460405163079cc67960e41b81526001600160a01b0391821660048201526024810185905292995016906379cc679090604401600060405180830381600087803b15801561128357600080fd5b505af1158015611297573d6000803e3d6000fd5b5050845460018601546040516323b872dd60e01b81526001600160a01b039182166004820152306024820152604481018c9052911692506323b872dd91506064016020604051808303816000875af11580156112f7573d6000803e3d6000fd5b505050506040513d601f19601f8201168201806040525081019061131b9190613106565b506000611327876116b8565b90506001600160a01b03811661135057604051631da5310560e01b815260040160405180910390fd5b835460405163095ea7b360e01b81526001600160a01b038381166004830152602482018b90529091169063095ea7b3906044016020604051808303816000875af11580156113a2573d6000803e3d6000fd5b505050506040513d601f19601f820116820180604052508101906113c69190613106565b5085516000036113e0576113d98961240b565b955061141e565b7f10edc0cc0608da2f99201b0db024d7220b089c82c6e0e41793d96a9096f29f72898989896040516114159493929190613121565b60405180910390a15b806001600160a01b031663d7907a6161143561149b565b8a600060018b6040518663ffffffff1660e01b815260040161145b959493929190613161565b600060405180830381600087803b15801561147557600080fd5b505af1158015611489573d6000803e3d6000fd5b505093549a9950505050505050505050565b600080600080516020613425833981519152610b17565b60006001600160a01b0383166114db576040516342bcdf7f60e11b815260040160405180910390fd5b816000036114fc576040516307a1cab560e11b815260040160405180910390fd5b6001600160a01b03831660009081526000805160206133a58339815191526020526040902080546000805160206134258339815191529190841115611549578054859061118881876130ac565b8381600001600082825461155d91906130ac565b90915550506040517f53784b3fa987ce4f3566245eefd7537f99a526db5a6213c14e1bbe9c99d37b239061159790879087906000906130d2565b60405180910390a160006115b48563017d7840633b9aca00612347565b90506115c081866130ac565b8354600185015460405163079cc67960e41b81526001600160a01b0391821660048201526024810185905292975016906379cc679090604401600060405180830381600087803b15801561161357600080fd5b505af1158015611627573d6000803e3d6000fd5b5050845460018601546040516323b872dd60e01b81526001600160a01b0391821660048201528a82166024820152604481018a9052911692506323b872dd91506064016020604051808303816000875af1158015611689573d6000803e3d6000fd5b505050506040513d601f19601f820116820180604052508101906116ad9190613106565b505054949350505050565b600060018260028111156116ce576116ce612f96565b146116ec57604051631da5310560e01b815260040160405180910390fd5b6000805160206134258339815191527f55830a805815e4d506db4501e6719bc7b974e594ecdefb09d1856bf6a5d79505600084600281111561173057611730612f96565b600281111561174157611741612f96565b81526020810191909152604001600020546001600160a01b03169392505050565b306001600160a01b037f00000000000000000000000000000000000000000000000000000000000000001614806117e957507f00000000000000000000000000000000000000000000000000000000000000006001600160a01b03166117dd600080516020613405833981519152546001600160a01b031690565b6001600160a01b031614155b156118075760405163703e46dd60e11b815260040160405180910390fd5b565b61073c336105aa565b816001600160a01b03166352d1902d6040518163ffffffff1660e01b8152600401602060405180830381865afa92505050801561186c575060408051601f3d908101601f19168201909252611869918101906131a3565b60015b61189457604051634c9c8ce360e01b81526001600160a01b038316600482015260240161077f565b60008051602061340583398151915281146118c557604051632a87526960e21b81526004810182905260240161077f565b6118cf83836124dd565b505050565b306001600160a01b037f000000000000000000000000000000000000000000000000000000000000000016146118075760405163703e46dd60e11b815260040160405180910390fd5b60006001600160a01b038316611946576040516342bcdf7f60e11b815260040160405180910390fd5b81600003611967576040516307a1cab560e11b815260040160405180910390fd5b6001600160a01b03831660009081526000805160206133a583398151915260205260409020805460008051602061342583398151915291908411156119b4578054859061118881876130ac565b838160000160008282546119c891906130ac565b9091555050604080516001600160a01b0387168152602081018690527fb539ca1e5c8d398ddf1c41c30166f33404941683be4683319b57669a93dad4ef910160405180910390a160068201546040805163239a373960e21b815290516000926001600160a01b031691638e68dce49160048083019260209291908290030181865afa158015611a5b573d6000803e3d6000fd5b505050506040513d601f19601f82011682018060405250810190611a7f91906131bc565b835460018501546040516323b872dd60e01b81526001600160a01b0391821660048201523060248201526044810189905292935016906323b872dd906064016020604051808303816000875af1158015611add573d6000803e3d6000fd5b505050506040513d601f19601f82011682018060405250810190611b019190613106565b50825460405163095ea7b360e01b81526001600160a01b038381166004830152602482018890529091169063095ea7b3906044016020604051808303816000875af1158015611b54573d6000803e3d6000fd5b505050506040513d601f19601f82011682018060405250810190611b789190613106565b506040516305dc812160e31b81526001600160a01b03878116600483015260248201879052821690632ee4090890604401600060405180830381600087803b158015611bc357600080fd5b505af1158015611bd7573d6000803e3d6000fd5b50509254979650505050505050565b6001600160a01b038116611c0d576040516342bcdf7f60e11b815260040160405180910390fd5b7f55830a805815e4d506db4501e6719bc7b974e594ecdefb09d1856bf6a5d7950154600080516020613425833981519152906001600160a01b03838116911603611c55575050565b6001810180546001600160a01b0319166001600160a01b0384169081179091556040519081527f9f8af382b6a7b3eda19b3a62f7446787fdb9101602754170dc111039081a27d6906020015b60405180910390a15050565b6000805160206133c583398151915280546001600160a01b0319166001600160a01b03831690811782556040519081527f2f658b440c35314f52658ea8a740e05b284cdc84dc9ae01e891f21b8933e7cad90602001611ca1565b7fa16a46d94261c7517cc8ff89f61c0ce93598e3c849801011dee649a6a557d10280546060916000805160206133e583398151915291611d46906131d9565b80601f0160208091040260200160405190810160405280929190818152602001828054611d72906131d9565b8015611dbf5780601f10611d9457610100808354040283529160200191611dbf565b820191906000526020600020905b815481529060010190602001808311611da257829003601f168201915b505050505091505090565b7fa16a46d94261c7517cc8ff89f61c0ce93598e3c849801011dee649a6a557d10380546060916000805160206133e583398151915291611d46906131d9565b6001600160a01b038116611e30576040516342bcdf7f60e11b815260040160405180910390fd5b7f55830a805815e4d506db4501e6719bc7b974e594ecdefb09d1856bf6a5d7950254600080516020613425833981519152906001600160a01b03838116911603611e78575050565b6002810180546003830180546001600160a01b038084166001600160a01b0319928316179092559091169084169081179091556040519081527ff25410f30b55c5bf754bde6af67a578fc1fb2e1e7fa70f582112f3c430b8e23690602001611ca1565b6001600160a01b038116611f02576040516342bcdf7f60e11b815260040160405180910390fd5b60008051602061342583398151915280546001600160a01b03838116911603611f29575050565b80546001600160a01b0319166001600160a01b03831690811782556040519081527fe89f98a27789c8313baa22de83cdb921b7026d66af0ee02973c97d45f952b6be90602001611ca1565b6001600160a01b038116611f9b576040516342bcdf7f60e11b815260040160405180910390fd5b7f55830a805815e4d506db4501e6719bc7b974e594ecdefb09d1856bf6a5d7950654600080516020613425833981519152906001600160a01b03838116911603611fe3575050565b6006810180546001600160a01b0319166001600160a01b0384169081179091556040519081527fea68eebc69e6cf7ca402dbd8bbf63e2a5d6fcc0ab964fb9cbe0b2660c364875d90602001611ca1565b61203b612533565b61073c8161257c565b611807612533565b612054612533565b6106c3828261258d565b6040516001600160a01b03848116602483015283811660448301526001600160e01b03198316606483015260009182918291829189169060840160408051601f198184030181529181526020820180516001600160e01b031663b700961360e01b179052516120cd919061320d565b600060405180830381855afa9150503d8060008114612108576040519150601f19603f3d011682016040523d82523d6000602084013e61210d565b606091505b5091509150811561215f57604081511061213f57808060200190518101906121359190613229565b909450925061215f565b602081511061215f578080602001905181019061215c9190613106565b93505b505094509492505050565b600061218161217c6020840184612d7e565b6125ee565b6121d66121946040840160208501612d7e565b6001600160a01b031660009081527f5ab42ced628888259c08ac98db1eb0cf702fc1501344311d8b100cd1bfe4bb006020526040902080546001810190915590565b905060007ffd6d0e4ca6764633a51edb6c597a246a9c07dc7643b9aeb52a9864f747827cc66122086020850185612d7e565b6122186040860160208701612d7e565b6040805160208101949094526001600160a01b03928316848201529116606083810191909152908501356080838101919091529085013560a083015284013560c082015260e0810183905261010001604051602081830303815290604052805190602001209050600061228a8261231a565b905060006122b1826122a260c0880160a0890161325e565b8760c001358860e0013561268e565b90506122c06020860186612d7e565b6001600160a01b0316816001600160a01b03161461231257806122e66020870187612d7e565b604051637ba5ffb560e01b81526001600160a01b0392831660048201529116602482015260440161077f565b505050919050565b60006105bb6123276126bc565b8360405161190160f01b8152600281019290925260228201526042902090565b600083830281600019858709828110838203039150508060000361237e5783828161237457612374613281565b0492505050610676565b80841161239e5760405163227bc15360e01b815260040160405180910390fd5b6000848688096000868103871696879004966002600389028118808a02820302808a02820302808a02820302808a02820302808a02820302808a02909103029181900381900460010186841190950394909402919094039290920491909117919091029150509392505050565b60408051602c808252606082810190935263195d1a1f60e21b916f181899199a1a9b1b9c1cb0b131b232b360811b916f181899199a1a9b1b9c1ca0a121a222a360811b9160009160208201818036833750505060208101859052905060248101604c8201875b8282111561248f5760018203915085600f82161a825360041c612471565b6028832060601c8991506028840192505b838311156124cf576001830392506007600f821611156124c35785600f83161a83535b600491821c911c6124a0565b509298975050505050505050565b6124e6826126c6565b6040516001600160a01b038316907fbc7cd75a20ee27fd9adebab32041f755214dbc6bffa90cc0225b39da2e5c2d3b90600090a280511561252b576118cf828261272b565b6106c36127a1565b7ff0c57e16840df040f15088dc2f81fe391c3923bec73e23a9662efc9c229c6a0054600160401b900460ff1661180757604051631afcd79f60e31b815260040160405180910390fd5b612584612533565b61073c81611cad565b612595612533565b6000805160206133e58339815191527fa16a46d94261c7517cc8ff89f61c0ce93598e3c849801011dee649a6a557d1026125cf84826132e5565b50600381016125de83826132e5565b5060008082556001909101555050565b7f55830a805815e4d506db4501e6719bc7b974e594ecdefb09d1856bf6a5d7950254600080516020613425833981519152906001600160a01b0383811691161480159061264b575060038101546001600160a01b03838116911614155b156106c357600281015460038201546040516316c7b6e560e11b81526001600160a01b03808616600483015292831660248201529116604482015260640161077f565b6000806000806126a0888888886127c0565b9250925092506126b0828261288f565b50909695505050505050565b60006105f6612948565b806001600160a01b03163b6000036126fc57604051634c9c8ce360e01b81526001600160a01b038216600482015260240161077f565b60008051602061340583398151915280546001600160a01b0319166001600160a01b0392909216919091179055565b6060600080846001600160a01b031684604051612748919061320d565b600060405180830381855af49150503d8060008114612783576040519150601f19603f3d011682016040523d82523d6000602084013e612788565b606091505b50915091506127988583836129bc565b95945050505050565b34156118075760405163b398979f60e01b815260040160405180910390fd5b600080807f7fffffffffffffffffffffffffffffff5d576e7357a4501ddfe92f46681b20a08411156127fb5750600091506003905082612885565b604080516000808252602082018084528a905260ff891692820192909252606081018790526080810186905260019060a0016020604051602081039080840390855afa15801561284f573d6000803e3d6000fd5b5050604051601f1901519150506001600160a01b03811661287b57506000925060019150829050612885565b9250600091508190505b9450945094915050565b60008260038111156128a3576128a3612f96565b036128ac575050565b60018260038111156128c0576128c0612f96565b036128de5760405163f645eedf60e01b815260040160405180910390fd5b60028260038111156128f2576128f2612f96565b036129135760405163fce698f760e01b81526004810182905260240161077f565b600382600381111561292757612927612f96565b036106c3576040516335e2f38360e21b81526004810182905260240161077f565b60007f8b73c3c69bb8fe3d512ecc4cf759cc79239f7b179b0ffacaa9a75d522b39400f612973612a18565b61297b612a82565b60408051602081019490945283019190915260608201524660808201523060a082015260c00160405160208183030381529060405280519060200120905090565b6060826129d1576129cc82612ac6565b610676565b81511580156129e857506001600160a01b0384163b155b15612a1157604051639996b31560e01b81526001600160a01b038516600482015260240161077f565b5080610676565b60006000805160206133e583398151915281612a32611d07565b805190915015612a4a57805160209091012092915050565b81548015612a59579392505050565b7fc5d2460186f7233c927e7db2dcc703c0e500b653ca82273b7bfad8045d85a470935050505090565b60006000805160206133e583398151915281612a9c611dca565b805190915015612ab457805160209091012092915050565b60018201548015612a59579392505050565b805115612ad65780518082602001fd5b604051630a12f52160e11b815260040160405180910390fd5b60006101008284031215612b0257600080fd5b50919050565b60006101008284031215612b1b57600080fd5b61070b8383612aef565b60008083601f840112612b3757600080fd5b50813567ffffffffffffffff811115612b4f57600080fd5b602083019150836020828501011115612b6757600080fd5b9250929050565b6000806000806101408587031215612b8557600080fd5b612b8f8686612aef565b9350610100850135925061012085013567ffffffffffffffff811115612bb457600080fd5b612bc087828801612b25565b95989497509550505050565b600080600060408486031215612be157600080fd5b83359250602084013567ffffffffffffffff811115612bff57600080fd5b612c0b86828701612b25565b9497909650939450505050565b600060208284031215612c2a57600080fd5b5035919050565b8035600381106105be57600080fd5b600060208284031215612c5257600080fd5b61070b82612c31565b6001600160a01b038116811461073c57600080fd5b634e487b7160e01b600052604160045260246000fd5b60008060408385031215612c9957600080fd5b8235612ca481612c5b565b9150602083013567ffffffffffffffff811115612cc057600080fd5b8301601f81018513612cd157600080fd5b803567ffffffffffffffff811115612ceb57612ceb612c70565b604051601f8201601f19908116603f0116810167ffffffffffffffff81118282101715612d1a57612d1a612c70565b604052818152828201602001871015612d3257600080fd5b816020840160208301376000602083830101528093505050509250929050565b60008060408385031215612d6557600080fd5b82359150612d7560208401612c31565b90509250929050565b600060208284031215612d9057600080fd5b813561067681612c5b565b60005b83811015612db6578181015183820152602001612d9e565b50506000910152565b60008151808452612dd7816020860160208601612d9b565b601f01601f19169290920160200192915050565b60ff60f81b8816815260e060208201526000612e0a60e0830189612dbf565b8281036040840152612e1c8189612dbf565b606084018890526001600160a01b038716608085015260a0840186905283810360c08501528451808252602080870193509091019060005b81811015612e72578351835260209384019390920191600101612e54565b50909b9a5050505050505050505050565b60008060408385031215612e9657600080fd5b612e9f83612c31565b91506020830135612eaf81612c5b565b809150509250929050565b60008060006101408486031215612ed057600080fd5b612eda8585612aef565b92506101008401359150612ef16101208501612c31565b90509250925092565b6000806101208385031215612f0e57600080fd5b612f188484612aef565b94610100939093013593505050565b60208152600061070b6020830184612dbf565b60008060008060808587031215612f5057600080fd5b8435612f5b81612c5b565b93506020850135612f6b81612c5b565b92506040850135612f7b81612c5b565b91506060850135612f8b81612c5b565b939692955090935050565b634e487b7160e01b600052602160045260246000fd5b60038110612fca57634e487b7160e01b600052602160045260246000fd5b9052565b60408101612fdc8285612fac565b6001600160a01b039290921660209190910152919050565b6000808585111561300457600080fd5b8386111561301157600080fd5b5050820193919092039150565b80356001600160e01b0319811690600484101561304f576001600160e01b0319600485900360031b81901b82161691505b5092915050565b6001600160a01b03841681526040602082018190528101829052818360608301376000818301606090810191909152601f909201601f1916010192915050565b634e487b7160e01b600052601160045260246000fd5b8181038181111561070e5761070e613096565b8082018082111561070e5761070e613096565b6001600160a01b038416815260208101839052606081016106576040830184612fac565b805180151581146105be57600080fd5b60006020828403121561311857600080fd5b61070b826130f6565b6001600160a01b0385168152602081018490526131416040820184612fac565b6080606082015260006131576080830184612dbf565b9695505050505050565b60018060a01b038616815284602082015283604082015261ffff8316606082015260a06080820152600061319860a0830184612dbf565b979650505050505050565b6000602082840312156131b557600080fd5b5051919050565b6000602082840312156131ce57600080fd5b815161067681612c5b565b600181811c908216806131ed57607f821691505b602082108103612b0257634e487b7160e01b600052602260045260246000fd5b6000825161321f818460208701612d9b565b9190910192915050565b6000806040838503121561323c57600080fd5b613245836130f6565b9150602083015163ffffffff81168114612eaf57600080fd5b60006020828403121561327057600080fd5b813560ff8116811461067657600080fd5b634e487b7160e01b600052601260045260246000fd5b601f8211156118cf57806000526020600020601f840160051c810160208510156132be5750805b601f840160051c820191505b818110156132de57600081556001016132ca565b5050505050565b815167ffffffffffffffff8111156132ff576132ff612c70565b6133138161330d84546131d9565b84613297565b6020601f821160018114613347576000831561332f5750848201515b600019600385901b1c1916600184901b1784556132de565b600084815260208120601f198516915b828110156133775787850151825560209485019460019092019101613357565b50848210156133955786840151600019600387901b60f8161c191681555b50505050600190811b0190555056fe55830a805815e4d506db4501e6719bc7b974e594ecdefb09d1856bf6a5d79504f3177357ab46d8af007ab3fdb9af81da189e1068fefdc0073dca88a2cab40a00a16a46d94261c7517cc8ff89f61c0ce93598e3c849801011dee649a6a557d100360894a13ba1a3210667c828492db98dca3e2076cc3735a920a3ca505d382bbc55830a805815e4d506db4501e6719bc7b974e594ecdefb09d1856bf6a5d79500a26469706673582212203f0ea0342e2465f33e3b3b25a47a4eec33da95723d21404929a7ad0e79aa572d64736f6c634300081c0033",
  "linkReferences": {},
  "deployedLinkReferences": {}
}