{
  "_format": "hh-sol-artifact-1",
  "contractName": "OsmiToken",
  "sourceName": "contracts/OsmiToken.sol",
  "abi": [
    {
      "inputs": [],
      "stateMutability": "nonpayable",
      "type": "constructor"
    },
    {
      "inputs": [
        {
          "internalType": "address",
          "name": "authority",
          "type": "address"
        }
      ],
      "name": "AccessManagedInvalidAuthority",
      "type": "error"
    },
    {
      "inputs": [
        {
          "internalType": "address",
          "name": "caller",
          "type": "address"
        },
        {
          "internalType": "uint32",
          "name": "delay",
          "type": "uint32"
        }
      ],
      "name": "AccessManagedRequiredDelay",
      "type": "error"
    },
    {
      "inputs": [
        {
          "internalType": "address",
          "name": "caller",
          "type": "address"
        }
      ],
      "name": "AccessManagedUnauthorized",
      "type": "error"
    },
    {
      "inputs": [
        {
          "internalType": "address",
          "name": "target",
          "type": "address"
        }
      ],
      "name": "AddressEmptyCode",
      "type": "error"
    },
    {
      "inputs": [],
      "name": "ECDSAInvalidSignature",
      "type": "error"
    },
    {
      "inputs": [
        {
          "internalType": "uint256",
          "name": "length",
          "type": "uint256"
        }
      ],
      "name": "ECDSAInvalidSignatureLength",
      "type": "error"
    },
    {
      "inputs": [
        {
          "internalType": "bytes32",
          "name": "s",
          "type": "bytes32"
        }
      ],
      "name": "ECDSAInvalidSignatureS",
      "type": "error"
    },
    {
      "inputs": [
        {
          "internalType": "address",
          "name": "implementation",
          "type": "address"
        }
      ],
      "name": "ERC1967InvalidImplementation",
      "type": "error"
    },
    {
      "inputs": [],
      "name": "ERC1967NonPayable",
      "type": "error"
    },
    {
      "inputs": [
        {
          "internalType": "uint256",
          "name": "increasedSupply",
          "type": "uint256"
        },
        {
          "internalType": "uint256",
          "name": "cap",
          "type": "uint256"
        }
      ],
      "name": "ERC20ExceededCap",
      "type": "error"
    },
    {
      "inputs": [
        {
          "internalType": "address",
          "name": "spender",
          "type": "address"
        },
        {
          "internalType": "uint256",
          "name": "allowance",
          "type": "uint256"
        },
        {
          "internalType": "uint256",
          "name": "needed",
          "type": "uint256"
        }
      ],
      "name": "ERC20InsufficientAllowance",
      "type": "error"
    },
    {
      "inputs": [
        {
          "internalType": "address",
          "name": "sender",
          "type": "address"
        },
        {
          "internalType": "uint256",
          "name": "balance",
          "type": "uint256"
        },
        {
          "internalType": "uint256",
          "name": "needed",
          "type": "uint256"
        }
      ],
      "name": "ERC20InsufficientBalance",
      "type": "error"
    },
    {
      "inputs": [
        {
          "internalType": "address",
          "name": "approver",
          "type": "address"
        }
      ],
      "name": "ERC20InvalidApprover",
      "type": "error"
    },
    {
      "inputs": [
        {
          "internalType": "uint256",
          "name": "cap",
          "type": "uint256"
        }
      ],
      "name": "ERC20InvalidCap",
      "type": "error"
    },
    {
      "inputs": [
        {
          "internalType": "address",
          "name": "receiver",
          "type": "address"
        }
      ],
      "name": "ERC20InvalidReceiver",
      "type": "error"
    },
    {
      "inputs": [
        {
          "internalType": "address",
          "name": "sender",
          "type": "address"
        }
      ],
      "name": "ERC20InvalidSender",
      "type": "error"
    },
    {
      "inputs": [
        {
          "internalType": "address",
          "name": "spender",
          "type": "address"
        }
      ],
      "name": "ERC20InvalidSpender",
      "type": "error"
    },
    {
      "inputs": [
        {
          "internalType": "uint256",
          "name": "deadline",
          "type": "uint256"
        }
      ],
      "name": "ERC2612ExpiredSignature",
      "type": "error"
    },
    {
      "inputs": [
        {
          "internalType": "address",
          "name": "signer",
          "type": "address"
        },
        {
          "internalType": "address",
          "name": "owner",
          "type": "address"
        }
      ],
      "name": "ERC2612InvalidSigner",
      "type": "error"
    },
    {
      "inputs": [],
      "name": "EnforcedPause",
      "type": "error"
    },
    {
      "inputs": [],
      "name": "ExpectedPause",
      "type": "error"
    },
    {
      "inputs": [],
      "name": "FailedInnerCall",
      "type": "error"
    },
    {
      "inputs": [
        {
          "internalType": "address",
          "name": "account",
          "type": "address"
        },
        {
          "internalType": "uint256",
          "name": "currentNonce",
          "type": "uint256"
        }
      ],
      "name": "InvalidAccountNonce",
      "type": "error"
    },
    {
      "inputs": [],
      "name": "InvalidInitialization",
      "type": "error"
    },
    {
      "inputs": [],
      "name": "NotInitializing",
      "type": "error"
    },
    {
      "inputs": [],
      "name": "UUPSUnauthorizedCallContext",
      "type": "error"
    },
    {
      "inputs": [
        {
          "internalType": "bytes32",
          "name": "slot",
          "type": "bytes32"
        }
      ],
      "name": "UUPSUnsupportedProxiableUUID",
      "type": "error"
    },
    {
      "anonymous": false,
      "inputs": [
        {
          "indexed": true,
          "internalType": "address",
          "name": "owner",
          "type": "address"
        },
        {
          "indexed": true,
          "internalType": "address",
          "name": "spender",
          "type": "address"
        },
        {
          "indexed": false,
          "internalType": "uint256",
          "name": "value",
          "type": "uint256"
        }
      ],
      "name": "Approval",
      "type": "event"
    },
    {
      "anonymous": false,
      "inputs": [
        {
          "indexed": false,
          "internalType": "address",
          "name": "authority",
          "type": "address"
        }
      ],
      "name": "AuthorityUpdated",
      "type": "event"
    },
    {
      "anonymous": false,
      "inputs": [],
      "name": "EIP712DomainChanged",
      "type": "event"
    },
    {
      "anonymous": false,
      "inputs": [
        {
          "indexed": false,
          "internalType": "uint64",
          "name": "version",
          "type": "uint64"
        }
      ],
      "name": "Initialized",
      "type": "event"
    },
    {
      "anonymous": false,
      "inputs": [
        {
          "indexed": false,
          "internalType": "address",
          "name": "account",
          "type": "address"
        }
      ],
      "name": "Paused",
      "type": "event"
    },
    {
      "anonymous": false,
      "inputs": [
        {
          "indexed": true,
          "internalType": "address",
          "name": "from",
          "type": "address"
        },
        {
          "indexed": true,
          "internalType": "address",
          "name": "to",
          "type": "address"
        },
        {
          "indexed": false,
          "internalType": "uint256",
          "name": "value",
          "type": "uint256"
        }
      ],
      "name": "Transfer",
      "type": "event"
    },
    {
      "anonymous": false,
      "inputs": [
        {
          "indexed": false,
          "internalType": "address",
          "name": "account",
          "type": "address"
        }
      ],
      "name": "Unpaused",
      "type": "event"
    },
    {
      "anonymous": false,
      "inputs": [
        {
          "indexed": true,
          "internalType": "address",
          "name": "implementation",
          "type": "address"
        }
      ],
      "name": "Upgraded",
      "type": "event"
    },
    {
      "inputs": [],
      "name": "DOMAIN_SEPARATOR",
      "outputs": [
        {
          "internalType": "bytes32",
          "name": "",
          "type": "bytes32"
        }
      ],
      "stateMutability": "view",
      "type": "function"
    },
    {
      "inputs": [],
      "name": "UPGRADE_INTERFACE_VERSION",
      "outputs": [
        {
          "internalType": "string",
          "name": "",
          "type": "string"
        }
      ],
      "stateMutability": "view",
      "type": "function"
    },
    {
      "inputs": [
        {
          "internalType": "address",
          "name": "owner",
          "type": "address"
        },
        {
          "internalType": "address",
          "name": "spender",
          "type": "address"
        }
      ],
      "name": "allowance",
      "outputs": [
        {
          "internalType": "uint256",
          "name": "",
          "type": "uint256"
        }
      ],
      "stateMutability": "view",
      "type": "function"
    },
    {
      "inputs": [
        {
          "internalType": "address",
          "name": "spender",
          "type": "address"
        },
        {
          "internalType": "uint256",
          "name": "value",
          "type": "uint256"
        }
      ],
      "name": "approve",
      "outputs": [
        {
          "internalType": "bool",
          "name": "",
          "type": "bool"
        }
      ],
      "stateMutability": "nonpayable",
      "type": "function"
    },
    {
      "inputs": [],
      "name": "authority",
      "outputs": [
        {
          "internalType": "address",
          "name": "",
          "type": "address"
        }
      ],
      "stateMutability": "view",
      "type": "function"
    },
    {
      "inputs": [
        {
          "internalType": "address",
          "name": "account",
          "type": "address"
        }
      ],
      "name": "balanceOf",
      "outputs": [
        {
          "internalType": "uint256",
          "name": "",
          "type": "uint256"
        }
      ],
      "stateMutability": "view",
      "type": "function"
    },
    {
      "inputs": [
        {
          "internalType": "uint256",
          "name": "value",
          "type": "uint256"
        }
      ],
      "name": "burn",
      "outputs": [],
      "stateMutability": "nonpayable",
      "type": "function"
    },
    {
      "inputs": [
        {
          "internalType": "address",
          "name": "account",
          "type": "address"
        },
        {
          "internalType": "uint256",
          "name": "value",
          "type": "uint256"
        }
      ],
      "name": "burnFrom",
      "outputs": [],
      "stateMutability": "nonpayable",
      "type": "function"
    },
    {
      "inputs": [],
      "name": "cap",
      "outputs": [
        {
          "internalType": "uint256",
          "name": "",
          "type": "uint256"
        }
      ],
      "stateMutability": "view",
      "type": "function"
    },
    {
      "inputs": [],
      "name": "decimals",
      "outputs": [
        {
          "internalType": "uint8",
          "name": "",
          "type": "uint8"
        }
      ],
      "stateMutability": "view",
      "type": "function"
    },
    {
      "inputs": [],
      "name": "eip712Domain",
      "outputs": [
        {
          "internalType": "bytes1",
          "name": "fields",
          "type": "bytes1"
        },
        {
          "internalType": "string",
          "name": "name",
          "type": "string"
        },
        {
          "internalType": "string",
          "name": "version",
          "type": "string"
        },
        {
          "internalType": "uint256",
          "name": "chainId",
          "type": "uint256"
        },
        {
          "internalType": "address",
          "name": "verifyingContract",
          "type": "address"
        },
        {
          "internalType": "bytes32",
          "name": "salt",
          "type": "bytes32"
        },
        {
          "internalType": "uint256[]",
          "name": "extensions",
          "type": "uint256[]"
        }
      ],
      "stateMutability": "view",
      "type": "function"
    },
    {
      "inputs": [
        {
          "internalType": "address",
          "name": "initialAuthority",
          "type": "address"
        }
      ],
      "name": "initialize",
      "outputs": [],
      "stateMutability": "nonpayable",
      "type": "function"
    },
    {
      "inputs": [],
      "name": "isConsumingScheduledOp",
      "outputs": [
        {
          "internalType": "bytes4",
          "name": "",
          "type": "bytes4"
        }
      ],
      "stateMutability": "view",
      "type": "function"
    },
    {
      "inputs": [
        {
          "internalType": "address",
          "name": "to",
          "type": "address"
        },
        {
          "internalType": "uint256",
          "name": "amount",
          "type": "uint256"
        }
      ],
      "name": "mint",
      "outputs": [],
      "stateMutability": "nonpayable",
      "type": "function"
    },
    {
      "inputs": [],
      "name": "name",
      "outputs": [
        {
          "internalType": "string",
          "name": "",
          "type": "string"
        }
      ],
      "stateMutability": "view",
      "type": "function"
    },
    {
      "inputs": [
        {
          "internalType": "address",
          "name": "owner",
          "type": "address"
        }
      ],
      "name": "nonces",
      "outputs": [
        {
          "internalType": "uint256",
          "name": "",
          "type": "uint256"
        }
      ],
      "stateMutability": "view",
      "type": "function"
    },
    {
      "inputs": [],
      "name": "pause",
      "outputs": [],
      "stateMutability": "nonpayable",
      "type": "function"
    },
    {
      "inputs": [],
      "name": "paused",
      "outputs": [
        {
          "internalType": "bool",
          "name": "",
          "type": "bool"
        }
      ],
      "stateMutability": "view",
      "type": "function"
    },
    {
      "inputs": [
        {
          "internalType": "address",
          "name": "owner",
          "type": "address"
        },
        {
          "internalType": "address",
          "name": "spender",
          "type": "address"
        },
        {
          "internalType": "uint256",
          "name": "value",
          "type": "uint256"
        },
        {
          "internalType": "uint256",
          "name": "deadline",
          "type": "uint256"
        },
        {
          "internalType": "uint8",
          "name": "v",
          "type": "uint8"
        },
        {
          "internalType": "bytes32",
          "name": "r",
          "type": "bytes32"
        },
        {
          "internalType": "bytes32",
          "name": "s",
          "type": "bytes32"
        }
      ],
      "name": "permit",
      "outputs": [],
      "stateMutability": "nonpayable",
      "type": "function"
    },
    {
      "inputs": [],
      "name": "proxiableUUID",
      "outputs": [
        {
          "internalType": "bytes32",
          "name": "",
          "type": "bytes32"
        }
      ],
      "stateMutability": "view",
      "type": "function"
    },
    {
      "inputs": [
        {
          "internalType": "address",
          "name": "newAuthority",
          "type": "address"
        }
      ],
      "name": "setAuthority",
      "outputs": [],
      "stateMutability": "nonpayable",
      "type": "function"
    },
    {
      "inputs": [],
      "name": "symbol",
      "outputs": [
        {
          "internalType": "string",
          "name": "",
          "type": "string"
        }
      ],
      "stateMutability": "view",
      "type": "function"
    },
    {
      "inputs": [],
      "name": "totalSupply",
      "outputs": [
        {
          "internalType": "uint256",
          "name": "",
          "type": "uint256"
        }
      ],
      "stateMutability": "view",
      "type": "function"
    },
    {
      "inputs": [
        {
          "internalType": "address",
          "name": "to",
          "type": "address"
        },
        {
          "internalType": "uint256",
          "name": "value",
          "type": "uint256"
        }
      ],
      "name": "transfer",
      "outputs": [
        {
          "internalType": "bool",
          "name": "",
          "type": "bool"
        }
      ],
      "stateMutability": "nonpayable",
      "type": "function"
    },
    {
      "inputs": [
        {
          "internalType": "address",
          "name": "from",
          "type": "address"
        },
        {
          "internalType": "address",
          "name": "to",
          "type": "address"
        },
        {
          "internalType": "uint256",
          "name": "value",
          "type": "uint256"
        }
      ],
      "name": "transferFrom",
      "outputs": [
        {
          "internalType": "bool",
          "name": "",
          "type": "bool"
        }
      ],
      "stateMutability": "nonpayable",
      "type": "function"
    },
    {
      "inputs": [],
      "name": "unpause",
      "outputs": [],
      "stateMutability": "nonpayable",
      "type": "function"
    },
    {
      "inputs": [
        {
          "internalType": "address",
          "name": "newImplementation",
          "type": "address"
        },
        {
          "internalType": "bytes",
          "name": "data",
          "type": "bytes"
        }
      ],
      "name": "upgradeToAndCall",
      "outputs": [],
      "stateMutability": "payable",
      "type": "function"
    }
  ],
  "bytecode": "0x60a06040523073ffffffffffffffffffffffffffffffffffffffff1660809073ffffffffffffffffffffffffffffffffffffffff168152503480156200004457600080fd5b50620000556200005b60201b60201c565b620001cf565b60006200006d6200016560201b60201c565b90508060000160089054906101000a900460ff1615620000b9576040517ff92ee8a900000000000000000000000000000000000000000000000000000000815260040160405180910390fd5b67ffffffffffffffff80168160000160009054906101000a900467ffffffffffffffff1667ffffffffffffffff1614620001625767ffffffffffffffff8160000160006101000a81548167ffffffffffffffff021916908367ffffffffffffffff1602179055507fc7f505b2f371ae2175ee4913f4499e1f2633a7b5936321eed1cdaeb6115181d267ffffffffffffffff604051620001599190620001b2565b60405180910390a15b50565b60007ff0c57e16840df040f15088dc2f81fe391c3923bec73e23a9662efc9c229c6a00905090565b600067ffffffffffffffff82169050919050565b620001ac816200018d565b82525050565b6000602082019050620001c96000830184620001a1565b92915050565b608051613fbf620001f960003960008181611484015281816114d901526116a40152613fbf6000f3fe60806040526004361061019c5760003560e01c806370a08231116100ec57806395d89b411161008a578063bf7e214f11610064578063bf7e214f1461059f578063c4d66de8146105ca578063d505accf146105f3578063dd62ed3e1461061c5761019c565b806395d89b411461050c578063a9059cbb14610537578063ad3cb1cc146105745761019c565b80637ecebe00116100c65780637ecebe001461045c5780638456cb591461049957806384b0196e146104b05780638fb36037146104e15761019c565b806370a08231146103cd57806379cc67901461040a5780637a9e5e4b146104335761019c565b80633644e5151161015957806342966c681161013357806342966c68146103325780634f1ef2861461035b57806352d1902d146103775780635c975abb146103a25761019c565b80633644e515146102c75780633f4ba83a146102f257806340c10f19146103095761019c565b806306fdde03146101a1578063095ea7b3146101cc57806318160ddd1461020957806323b872dd14610234578063313ce56714610271578063355274ea1461029c575b600080fd5b3480156101ad57600080fd5b506101b6610659565b6040516101c39190612d96565b60405180910390f35b3480156101d857600080fd5b506101f360048036038101906101ee9190612e60565b6106fa565b6040516102009190612ebb565b60405180910390f35b34801561021557600080fd5b5061021e610726565b60405161022b9190612ee5565b60405180910390f35b34801561024057600080fd5b5061025b60048036038101906102569190612f00565b61073e565b6040516102689190612ebb565b60405180910390f35b34801561027d57600080fd5b5061028661076c565b6040516102939190612f6f565b60405180910390f35b3480156102a857600080fd5b506102b1610775565b6040516102be9190612ee5565b60405180910390f35b3480156102d357600080fd5b506102dc61078d565b6040516102e99190612fa3565b60405180910390f35b3480156102fe57600080fd5b5061030761079c565b005b34801561031557600080fd5b50610330600480360381019061032b9190612e60565b6107be565b005b34801561033e57600080fd5b5061035960048036038101906103549190612fbe565b6107e4565b005b61037560048036038101906103709190613120565b6107f8565b005b34801561038357600080fd5b5061038c610817565b6040516103999190612fa3565b60405180910390f35b3480156103ae57600080fd5b506103b761084a565b6040516103c49190612ebb565b60405180910390f35b3480156103d957600080fd5b506103f460048036038101906103ef919061317c565b61086f565b6040516104019190612ee5565b60405180910390f35b34801561041657600080fd5b50610431600480360381019061042c9190612e60565b6108c6565b005b34801561043f57600080fd5b5061045a6004803603810190610455919061317c565b6108e6565b005b34801561046857600080fd5b50610483600480360381019061047e919061317c565b6109d2565b6040516104909190612ee5565b60405180910390f35b3480156104a557600080fd5b506104ae6109e4565b005b3480156104bc57600080fd5b506104c5610a06565b6040516104d897969594939291906132b1565b60405180910390f35b3480156104ed57600080fd5b506104f6610b18565b6040516105039190613370565b60405180910390f35b34801561051857600080fd5b50610521610b54565b60405161052e9190612d96565b60405180910390f35b34801561054357600080fd5b5061055e60048036038101906105599190612e60565b610bf5565b60405161056b9190612ebb565b60405180910390f35b34801561058057600080fd5b50610589610c21565b6040516105969190612d96565b60405180910390f35b3480156105ab57600080fd5b506105b4610c5a565b6040516105c1919061338b565b60405180910390f35b3480156105d657600080fd5b506105f160048036038101906105ec919061317c565b610c92565b005b3480156105ff57600080fd5b5061061a600480360381019061061591906133fe565b610f16565b005b34801561062857600080fd5b50610643600480360381019061063e91906134a0565b61105e565b6040516106509190612ee5565b60405180910390f35b606060006106656110f3565b90508060030180546106769061350f565b80601f01602080910402602001604051908101604052809291908181526020018280546106a29061350f565b80156106ef5780601f106106c4576101008083540402835291602001916106ef565b820191906000526020600020905b8154815290600101906020018083116106d257829003601f168201915b505050505091505090565b600061071461070761111b565b61070f611123565b611130565b61071e8383611283565b905092915050565b6000806107316110f3565b9050806002015491505090565b600061075861074b61111b565b610753611123565b611130565b6107638484846112a6565b90509392505050565b60006012905090565b6000806107806112d5565b9050806000015491505090565b60006107976112fd565b905090565b6107b46107a761111b565b6107af611123565b611130565b6107bc61130c565b565b6107d66107c961111b565b6107d1611123565b611130565b6107e0828261137e565b5050565b6107f56107ef61111b565b82611400565b50565b610800611482565b61080982611568565b6108138282611583565b5050565b60006108216116a2565b7f360894a13ba1a3210667c828492db98dca3e2076cc3735a920a3ca505d382bbc60001b905090565b600080610855611729565b90508060000160009054906101000a900460ff1691505090565b60008061087a6110f3565b90508060000160008473ffffffffffffffffffffffffffffffffffffffff1673ffffffffffffffffffffffffffffffffffffffff16815260200190815260200160002054915050919050565b6108d8826108d261111b565b83611751565b6108e28282611400565b5050565b60006108f061111b565b90506108fa610c5a565b73ffffffffffffffffffffffffffffffffffffffff168173ffffffffffffffffffffffffffffffffffffffff161461096957806040517f068ca9d8000000000000000000000000000000000000000000000000000000008152600401610960919061338b565b60405180910390fd5b60008273ffffffffffffffffffffffffffffffffffffffff163b036109c557816040517fc2f31e5e0000000000000000000000000000000000000000000000000000000081526004016109bc919061338b565b60405180910390fd5b6109ce826117e5565b5050565b60006109dd8261186f565b9050919050565b6109fc6109ef61111b565b6109f7611123565b611130565b610a046118c6565b565b6000606080600080600060606000610a1c611938565b90506000801b8160000154148015610a3a57506000801b8160010154145b610a79576040517f08c379a0000000000000000000000000000000000000000000000000000000008152600401610a709061358c565b60405180910390fd5b610a81611960565b610a89611a01565b46306000801b600067ffffffffffffffff811115610aaa57610aa9612ff5565b5b604051908082528060200260200182016040528015610ad85781602001602082028036833780820191505090505b507f0f0000000000000000000000000000000000000000000000000000000000000095949392919097509750975097509750975097505090919293949596565b600080610b23611aa2565b90508060000160149054906101000a900460ff16610b4557600060e01b610b4e565b638fb3603760e01b5b91505090565b60606000610b606110f3565b9050806004018054610b719061350f565b80601f0160208091040260200160405190810160405280929190818152602001828054610b9d9061350f565b8015610bea5780601f10610bbf57610100808354040283529160200191610bea565b820191906000526020600020905b815481529060010190602001808311610bcd57829003601f168201915b505050505091505090565b6000610c0f610c0261111b565b610c0a611123565b611130565b610c198383611aca565b905092915050565b6040518060400160405280600581526020017f352e302e3000000000000000000000000000000000000000000000000000000081525081565b600080610c65611aa2565b90508060000160009054906101000a900473ffffffffffffffffffffffffffffffffffffffff1691505090565b6000610c9c611aed565b905060008160000160089054906101000a900460ff1615905060008260000160009054906101000a900467ffffffffffffffff1690506000808267ffffffffffffffff16148015610cea5750825b9050600060018367ffffffffffffffff16148015610d1f575060003073ffffffffffffffffffffffffffffffffffffffff163b145b905081158015610d2d575080155b15610d64576040517ff92ee8a900000000000000000000000000000000000000000000000000000000815260040160405180910390fd5b60018560000160006101000a81548167ffffffffffffffff021916908367ffffffffffffffff1602179055508315610db45760018560000160086101000a81548160ff0219169083151502179055505b610e286040518060400160405280600781526020017f6f736d692e6169000000000000000000000000000000000000000000000000008152506040518060400160405280600481526020017f4f534d4900000000000000000000000000000000000000000000000000000000815250611b15565b610e30611b2b565b610e38611b35565b610e63610e4361076c565b600a610e4f919061370e565b633b9aca00610e5e9190613759565b611b47565b610e6c86611b5b565b610eaa6040518060400160405280600781526020017f6f736d692e616900000000000000000000000000000000000000000000000000815250611b6f565b610eb2611bb9565b8315610f0e5760008560000160086101000a81548160ff0219169083151502179055507fc7f505b2f371ae2175ee4913f4499e1f2633a7b5936321eed1cdaeb6115181d26001604051610f0591906137f4565b60405180910390a15b505050505050565b83421115610f5b57836040517f62791302000000000000000000000000000000000000000000000000000000008152600401610f529190612ee5565b60405180910390fd5b60007f6e71edae12b1b97f4d1f60370fef10105fa2faae0126114a169c64845d6126c9888888610f8a8c611bc3565b89604051602001610fa09695949392919061380f565b6040516020818303038152906040528051906020012090506000610fc382611c28565b90506000610fd382878787611c42565b90508973ffffffffffffffffffffffffffffffffffffffff168173ffffffffffffffffffffffffffffffffffffffff161461104757808a6040517f4b800e4600000000000000000000000000000000000000000000000000000000815260040161103e929190613870565b60405180910390fd5b6110528a8a8a611c72565b50505050505050505050565b6000806110696110f3565b90508060010160008573ffffffffffffffffffffffffffffffffffffffff1673ffffffffffffffffffffffffffffffffffffffff16815260200190815260200160002060008473ffffffffffffffffffffffffffffffffffffffff1673ffffffffffffffffffffffffffffffffffffffff1681526020019081526020016000205491505092915050565b60007f52c63247e1f47db19d5ce0460030c497f067ca4cebf71ba98eeadabe20bace00905090565b600033905090565b3660008036915091509091565b600061113a611aa2565b905060008061117061114a610c5a565b87308888600090600492611160939291906138a3565b9061116b91906138f6565b611c84565b915091508161127b5760008163ffffffff16111561123d5760018360000160146101000a81548160ff0219169083151502179055506111ad610c5a565b73ffffffffffffffffffffffffffffffffffffffff166394c7d7ee8787876040518463ffffffff1660e01b81526004016111e993929190613993565b600060405180830381600087803b15801561120357600080fd5b505af1158015611217573d6000803e3d6000fd5b5050505060008360000160146101000a81548160ff02191690831515021790555061127a565b856040517f068ca9d8000000000000000000000000000000000000000000000000000000008152600401611271919061338b565b60405180910390fd5b5b505050505050565b60008061128e61111b565b905061129b818585611c72565b600191505092915050565b6000806112b161111b565b90506112be858285611751565b6112c9858585611daa565b60019150509392505050565b60007f0f070392f17d5f958cc1ac31867dabecfc5c9758b4a419a200803226d7155d00905090565b6000611307611e9e565b905090565b611314611f02565b600061131e611729565b905060008160000160006101000a81548160ff0219169083151502179055507f5db9ee0a495bf2e6ff9c91a7834c1ba4fdd244a5e8aa4e537bd38aeae4b073aa61136661111b565b604051611373919061338b565b60405180910390a150565b600073ffffffffffffffffffffffffffffffffffffffff168273ffffffffffffffffffffffffffffffffffffffff16036113f05760006040517fec442f050000000000000000000000000000000000000000000000000000000081526004016113e7919061338b565b60405180910390fd5b6113fc60008383611f42565b5050565b600073ffffffffffffffffffffffffffffffffffffffff168273ffffffffffffffffffffffffffffffffffffffff16036114725760006040517f96c6fd1e000000000000000000000000000000000000000000000000000000008152600401611469919061338b565b60405180910390fd5b61147e82600083611f42565b5050565b7f000000000000000000000000000000000000000000000000000000000000000073ffffffffffffffffffffffffffffffffffffffff163073ffffffffffffffffffffffffffffffffffffffff16148061152f57507f000000000000000000000000000000000000000000000000000000000000000073ffffffffffffffffffffffffffffffffffffffff16611516611f52565b73ffffffffffffffffffffffffffffffffffffffff1614155b15611566576040517fe07c8dba00000000000000000000000000000000000000000000000000000000815260040160405180910390fd5b565b61158061157361111b565b61157b611123565b611130565b50565b8173ffffffffffffffffffffffffffffffffffffffff166352d1902d6040518163ffffffff1660e01b8152600401602060405180830381865afa9250505080156115eb57506040513d601f19601f820116820180604052508101906115e891906139da565b60015b61162c57816040517f4c9c8ce3000000000000000000000000000000000000000000000000000000008152600401611623919061338b565b60405180910390fd5b7f360894a13ba1a3210667c828492db98dca3e2076cc3735a920a3ca505d382bbc60001b811461169357806040517faa1d49a400000000000000000000000000000000000000000000000000000000815260040161168a9190612fa3565b60405180910390fd5b61169d8383611fa9565b505050565b7f000000000000000000000000000000000000000000000000000000000000000073ffffffffffffffffffffffffffffffffffffffff163073ffffffffffffffffffffffffffffffffffffffff1614611727576040517fe07c8dba00000000000000000000000000000000000000000000000000000000815260040160405180910390fd5b565b60007fcd5ed15c6e187e77e9aee88184c21f4f2182ab5827cb3b7e07fbedcd63f03300905090565b600061175d848461105e565b90507fffffffffffffffffffffffffffffffffffffffffffffffffffffffffffffffff81146117df57818110156117cf578281836040517ffb8f41b20000000000000000000000000000000000000000000000000000000081526004016117c693929190613a07565b60405180910390fd5b6117de8484848403600061201c565b5b50505050565b60006117ef611aa2565b9050818160000160006101000a81548173ffffffffffffffffffffffffffffffffffffffff021916908373ffffffffffffffffffffffffffffffffffffffff1602179055507f2f658b440c35314f52658ea8a740e05b284cdc84dc9ae01e891f21b8933e7cad82604051611863919061338b565b60405180910390a15050565b60008061187a612202565b90508060000160008473ffffffffffffffffffffffffffffffffffffffff1673ffffffffffffffffffffffffffffffffffffffff16815260200190815260200160002054915050919050565b6118ce61222a565b60006118d8611729565b905060018160000160006101000a81548160ff0219169083151502179055507f62e78cea01bee320cd4e420270b5ea74000d11b0c9f74754ebdbfc544b05a25861192061111b565b60405161192d919061338b565b60405180910390a150565b60007fa16a46d94261c7517cc8ff89f61c0ce93598e3c849801011dee649a6a557d100905090565b6060600061196c611938565b905080600201805461197d9061350f565b80601f01602080910402602001604051908101604052809291908181526020018280546119a99061350f565b80156119f65780601f106119cb576101008083540402835291602001916119f6565b820191906000526020600020905b8154815290600101906020018083116119d957829003601f168201915b505050505091505090565b60606000611a0d611938565b9050806003018054611a1e9061350f565b80601f0160208091040260200160405190810160405280929190818152602001828054611a4a9061350f565b8015611a975780601f10611a6c57610100808354040283529160200191611a97565b820191906000526020600020905b815481529060010190602001808311611a7a57829003601f168201915b505050505091505090565b60007ff3177357ab46d8af007ab3fdb9af81da189e1068fefdc0073dca88a2cab40a00905090565b600080611ad561111b565b9050611ae2818585611daa565b600191505092915050565b60007ff0c57e16840df040f15088dc2f81fe391c3923bec73e23a9662efc9c229c6a00905090565b611b1d61226b565b611b2782826122ab565b5050565b611b3361226b565b565b611b3d61226b565b611b456122e8565b565b611b4f61226b565b611b588161231c565b50565b611b6361226b565b611b6c81612383565b50565b611b7761226b565b611bb6816040518060400160405280600181526020017f3100000000000000000000000000000000000000000000000000000000000000815250612397565b50565b611bc161226b565b565b600080611bce612202565b90508060000160008473ffffffffffffffffffffffffffffffffffffffff1673ffffffffffffffffffffffffffffffffffffffff168152602001908152602001600020600081548092919060010191905055915050919050565b6000611c3b611c356112fd565b836123ec565b9050919050565b600080600080611c548888888861242d565b925092509250611c648282612521565b829350505050949350505050565b611c7f838383600161201c565b505050565b6000806000808773ffffffffffffffffffffffffffffffffffffffff16878787604051602401611cb693929190613a3e565b60405160208183030381529060405263b700961360e01b6020820180517bffffffffffffffffffffffffffffffffffffffffffffffffffffffff8381831617835250505050604051611d089190613abc565b600060405180830381855afa9150503d8060008114611d43576040519150601f19603f3d011682016040523d82523d6000602084013e611d48565b606091505b50915091508115611d9f576040815110611d7d5780806020019051810190611d709190613b3b565b8094508195505050611d9e565b6020815110611d9d5780806020019051810190611d9a9190613b7b565b93505b5b5b505094509492505050565b600073ffffffffffffffffffffffffffffffffffffffff168373ffffffffffffffffffffffffffffffffffffffff1603611e1c5760006040517f96c6fd1e000000000000000000000000000000000000000000000000000000008152600401611e13919061338b565b60405180910390fd5b600073ffffffffffffffffffffffffffffffffffffffff168273ffffffffffffffffffffffffffffffffffffffff1603611e8e5760006040517fec442f05000000000000000000000000000000000000000000000000000000008152600401611e85919061338b565b60405180910390fd5b611e99838383611f42565b505050565b60007f8b73c3c69bb8fe3d512ecc4cf759cc79239f7b179b0ffacaa9a75d522b39400f611ec9612685565b611ed1612701565b4630604051602001611ee7959493929190613ba8565b60405160208183030381529060405280519060200120905090565b611f0a61084a565b611f40576040517f8dfc202b00000000000000000000000000000000000000000000000000000000815260040160405180910390fd5b565b611f4d83838361277d565b505050565b6000611f807f360894a13ba1a3210667c828492db98dca3e2076cc3735a920a3ca505d382bbc60001b612823565b60000160009054906101000a900473ffffffffffffffffffffffffffffffffffffffff16905090565b611fb28261282d565b8173ffffffffffffffffffffffffffffffffffffffff167fbc7cd75a20ee27fd9adebab32041f755214dbc6bffa90cc0225b39da2e5c2d3b60405160405180910390a260008151111561200f5761200982826128fa565b50612018565b61201761297e565b5b5050565b60006120266110f3565b9050600073ffffffffffffffffffffffffffffffffffffffff168573ffffffffffffffffffffffffffffffffffffffff160361209a5760006040517fe602df05000000000000000000000000000000000000000000000000000000008152600401612091919061338b565b60405180910390fd5b600073ffffffffffffffffffffffffffffffffffffffff168473ffffffffffffffffffffffffffffffffffffffff160361210c5760006040517f94280d62000000000000000000000000000000000000000000000000000000008152600401612103919061338b565b60405180910390fd5b828160010160008773ffffffffffffffffffffffffffffffffffffffff1673ffffffffffffffffffffffffffffffffffffffff16815260200190815260200160002060008673ffffffffffffffffffffffffffffffffffffffff1673ffffffffffffffffffffffffffffffffffffffff1681526020019081526020016000208190555081156121fb578373ffffffffffffffffffffffffffffffffffffffff168573ffffffffffffffffffffffffffffffffffffffff167f8c5be1e5ebec7d5bd14f71427d1e84f3dd0314c0f7b2291e5b200ac8c7c3b925856040516121f29190612ee5565b60405180910390a35b5050505050565b60007f5ab42ced628888259c08ac98db1eb0cf702fc1501344311d8b100cd1bfe4bb00905090565b61223261084a565b15612269576040517fd93c066500000000000000000000000000000000000000000000000000000000815260040160405180910390fd5b565b6122736129bb565b6122a9576040517fd7e6bcf800000000000000000000000000000000000000000000000000000000815260040160405180910390fd5b565b6122b361226b565b60006122bd6110f3565b9050828160030190816122d09190613d90565b50818160040190816122e29190613d90565b50505050565b6122f061226b565b60006122fa611729565b905060008160000160006101000a81548160ff02191690831515021790555050565b61232461226b565b600061232e6112d5565b9050600082036123765760006040517f392e1e2700000000000000000000000000000000000000000000000000000000815260040161236d9190613e9d565b60405180910390fd5b8181600001819055505050565b61238b61226b565b612394816117e5565b50565b61239f61226b565b60006123a9611938565b9050828160020190816123bc9190613d90565b50818160030190816123ce9190613d90565b506000801b81600001819055506000801b8160010181905550505050565b60006040517f190100000000000000000000000000000000000000000000000000000000000081528360028201528260228201526042812091505092915050565b60008060007f7fffffffffffffffffffffffffffffff5d576e7357a4501ddfe92f46681b20a08460001c111561246d576000600385925092509250612517565b6000600188888888604051600081526020016040526040516124929493929190613eb8565b6020604051602081039080840390855afa1580156124b4573d6000803e3d6000fd5b505050602060405103519050600073ffffffffffffffffffffffffffffffffffffffff168173ffffffffffffffffffffffffffffffffffffffff160361250857600060016000801b93509350935050612517565b8060008060001b935093509350505b9450945094915050565b6000600381111561253557612534613efd565b5b82600381111561254857612547613efd565b5b0315612681576001600381111561256257612561613efd565b5b82600381111561257557612574613efd565b5b036125ac576040517ff645eedf00000000000000000000000000000000000000000000000000000000815260040160405180910390fd5b600260038111156125c0576125bf613efd565b5b8260038111156125d3576125d2613efd565b5b03612618578060001c6040517ffce698f700000000000000000000000000000000000000000000000000000000815260040161260f9190612ee5565b60405180910390fd5b60038081111561262b5761262a613efd565b5b82600381111561263e5761263d613efd565b5b0361268057806040517fd78bce0c0000000000000000000000000000000000000000000000000000000081526004016126779190612fa3565b60405180910390fd5b5b5050565b600080612690611938565b9050600061269c611960565b90506000815111156126b9578080519060200120925050506126fe565b6000826000015490506000801b81146126d7578093505050506126fe565b7fc5d2460186f7233c927e7db2dcc703c0e500b653ca82273b7bfad8045d85a47093505050505b90565b60008061270c611938565b90506000612718611a01565b90506000815111156127355780805190602001209250505061277a565b6000826001015490506000801b81146127535780935050505061277a565b7fc5d2460186f7233c927e7db2dcc703c0e500b653ca82273b7bfad8045d85a47093505050505b90565b6127888383836129db565b600073ffffffffffffffffffffffffffffffffffffffff168373ffffffffffffffffffffffffffffffffffffffff160361281e5760006127c6610775565b905060006127d2610726565b90508181111561281b5780826040517f9e79f854000000000000000000000000000000000000000000000000000000008152600401612812929190613f2c565b60405180910390fd5b50505b505050565b6000819050919050565b60008173ffffffffffffffffffffffffffffffffffffffff163b0361288957806040517f4c9c8ce3000000000000000000000000000000000000000000000000000000008152600401612880919061338b565b60405180910390fd5b806128b67f360894a13ba1a3210667c828492db98dca3e2076cc3735a920a3ca505d382bbc60001b612823565b60000160006101000a81548173ffffffffffffffffffffffffffffffffffffffff021916908373ffffffffffffffffffffffffffffffffffffffff16021790555050565b60606000808473ffffffffffffffffffffffffffffffffffffffff16846040516129249190613abc565b600060405180830381855af49150503d806000811461295f576040519150601f19603f3d011682016040523d82523d6000602084013e612964565b606091505b50915091506129748583836129f3565b9250505092915050565b60003411156129b9576040517fb398979f00000000000000000000000000000000000000000000000000000000815260040160405180910390fd5b565b60006129c5611aed565b60000160089054906101000a900460ff16905090565b6129e361222a565b6129ee838383612a82565b505050565b606082612a0857612a0382612cc1565b612a7a565b60008251148015612a30575060008473ffffffffffffffffffffffffffffffffffffffff163b145b15612a7257836040517f9996b315000000000000000000000000000000000000000000000000000000008152600401612a69919061338b565b60405180910390fd5b819050612a7b565b5b9392505050565b6000612a8c6110f3565b9050600073ffffffffffffffffffffffffffffffffffffffff168473ffffffffffffffffffffffffffffffffffffffff1603612ae25781816002016000828254612ad69190613f55565b92505081905550612bbb565b60008160000160008673ffffffffffffffffffffffffffffffffffffffff1673ffffffffffffffffffffffffffffffffffffffff16815260200190815260200160002054905082811015612b71578481846040517fe450d38c000000000000000000000000000000000000000000000000000000008152600401612b6893929190613a07565b60405180910390fd5b8281038260000160008773ffffffffffffffffffffffffffffffffffffffff1673ffffffffffffffffffffffffffffffffffffffff16815260200190815260200160002081905550505b600073ffffffffffffffffffffffffffffffffffffffff168373ffffffffffffffffffffffffffffffffffffffff1603612c0657818160020160008282540392505081905550612c56565b818160000160008573ffffffffffffffffffffffffffffffffffffffff1673ffffffffffffffffffffffffffffffffffffffff168152602001908152602001600020600082825401925050819055505b8273ffffffffffffffffffffffffffffffffffffffff168473ffffffffffffffffffffffffffffffffffffffff167fddf252ad1be2c89b69c2b068fc378daa952ba7f163c4a11628f55a4df523b3ef84604051612cb39190612ee5565b60405180910390a350505050565b600081511115612cd45780518082602001fd5b6040517f1425ea4200000000000000000000000000000000000000000000000000000000815260040160405180910390fd5b600081519050919050565b600082825260208201905092915050565b60005b83811015612d40578082015181840152602081019050612d25565b60008484015250505050565b6000601f19601f8301169050919050565b6000612d6882612d06565b612d728185612d11565b9350612d82818560208601612d22565b612d8b81612d4c565b840191505092915050565b60006020820190508181036000830152612db08184612d5d565b905092915050565b6000604051905090565b600080fd5b600080fd5b600073ffffffffffffffffffffffffffffffffffffffff82169050919050565b6000612df782612dcc565b9050919050565b612e0781612dec565b8114612e1257600080fd5b50565b600081359050612e2481612dfe565b92915050565b6000819050919050565b612e3d81612e2a565b8114612e4857600080fd5b50565b600081359050612e5a81612e34565b92915050565b60008060408385031215612e7757612e76612dc2565b5b6000612e8585828601612e15565b9250506020612e9685828601612e4b565b9150509250929050565b60008115159050919050565b612eb581612ea0565b82525050565b6000602082019050612ed06000830184612eac565b92915050565b612edf81612e2a565b82525050565b6000602082019050612efa6000830184612ed6565b92915050565b600080600060608486031215612f1957612f18612dc2565b5b6000612f2786828701612e15565b9350506020612f3886828701612e15565b9250506040612f4986828701612e4b565b9150509250925092565b600060ff82169050919050565b612f6981612f53565b82525050565b6000602082019050612f846000830184612f60565b92915050565b6000819050919050565b612f9d81612f8a565b82525050565b6000602082019050612fb86000830184612f94565b92915050565b600060208284031215612fd457612fd3612dc2565b5b6000612fe284828501612e4b565b91505092915050565b600080fd5b600080fd5b7f4e487b7100000000000000000000000000000000000000000000000000000000600052604160045260246000fd5b61302d82612d4c565b810181811067ffffffffffffffff8211171561304c5761304b612ff5565b5b80604052505050565b600061305f612db8565b905061306b8282613024565b919050565b600067ffffffffffffffff82111561308b5761308a612ff5565b5b61309482612d4c565b9050602081019050919050565b82818337600083830152505050565b60006130c36130be84613070565b613055565b9050828152602081018484840111156130df576130de612ff0565b5b6130ea8482856130a1565b509392505050565b600082601f83011261310757613106612feb565b5b81356131178482602086016130b0565b91505092915050565b6000806040838503121561313757613136612dc2565b5b600061314585828601612e15565b925050602083013567ffffffffffffffff81111561316657613165612dc7565b5b613172858286016130f2565b9150509250929050565b60006020828403121561319257613191612dc2565b5b60006131a084828501612e15565b91505092915050565b60007fff0000000000000000000000000000000000000000000000000000000000000082169050919050565b6131de816131a9565b82525050565b6131ed81612dec565b82525050565b600081519050919050565b600082825260208201905092915050565b6000819050602082019050919050565b61322881612e2a565b82525050565b600061323a838361321f565b60208301905092915050565b6000602082019050919050565b600061325e826131f3565b61326881856131fe565b93506132738361320f565b8060005b838110156132a457815161328b888261322e565b975061329683613246565b925050600181019050613277565b5085935050505092915050565b600060e0820190506132c6600083018a6131d5565b81810360208301526132d88189612d5d565b905081810360408301526132ec8188612d5d565b90506132fb6060830187612ed6565b61330860808301866131e4565b61331560a0830185612f94565b81810360c08301526133278184613253565b905098975050505050505050565b60007fffffffff0000000000000000000000000000000000000000000000000000000082169050919050565b61336a81613335565b82525050565b60006020820190506133856000830184613361565b92915050565b60006020820190506133a060008301846131e4565b92915050565b6133af81612f53565b81146133ba57600080fd5b50565b6000813590506133cc816133a6565b92915050565b6133db81612f8a565b81146133e657600080fd5b50565b6000813590506133f8816133d2565b92915050565b600080600080600080600060e0888a03121561341d5761341c612dc2565b5b600061342b8a828b01612e15565b975050602061343c8a828b01612e15565b965050604061344d8a828b01612e4b565b955050606061345e8a828b01612e4b565b945050608061346f8a828b016133bd565b93505060a06134808a828b016133e9565b92505060c06134918a828b016133e9565b91505092959891949750929550565b600080604083850312156134b7576134b6612dc2565b5b60006134c585828601612e15565b92505060206134d685828601612e15565b9150509250929050565b7f4e487b7100000000000000000000000000000000000000000000000000000000600052602260045260246000fd5b6000600282049050600182168061352757607f821691505b60208210810361353a576135396134e0565b5b50919050565b7f4549503731323a20556e696e697469616c697a65640000000000000000000000600082015250565b6000613576601583612d11565b915061358182613540565b602082019050919050565b600060208201905081810360008301526135a581613569565b9050919050565b7f4e487b7100000000000000000000000000000000000000000000000000000000600052601160045260246000fd5b60008160011c9050919050565b6000808291508390505b60018511156136325780860481111561360e5761360d6135ac565b5b600185161561361d5780820291505b808102905061362b856135db565b94506135f2565b94509492505050565b60008261364b5760019050613707565b816136595760009050613707565b816001811461366f5760028114613679576136a8565b6001915050613707565b60ff84111561368b5761368a6135ac565b5b8360020a9150848211156136a2576136a16135ac565b5b50613707565b5060208310610133831016604e8410600b84101617156136dd5782820a9050838111156136d8576136d76135ac565b5b613707565b6136ea84848460016135e8565b92509050818404811115613701576137006135ac565b5b81810290505b9392505050565b600061371982612e2a565b915061372483612f53565b92506137517fffffffffffffffffffffffffffffffffffffffffffffffffffffffffffffffff848461363b565b905092915050565b600061376482612e2a565b915061376f83612e2a565b925082820261377d81612e2a565b91508282048414831517613794576137936135ac565b5b5092915050565b6000819050919050565b600067ffffffffffffffff82169050919050565b6000819050919050565b60006137de6137d96137d48461379b565b6137b9565b6137a5565b9050919050565b6137ee816137c3565b82525050565b600060208201905061380960008301846137e5565b92915050565b600060c0820190506138246000830189612f94565b61383160208301886131e4565b61383e60408301876131e4565b61384b6060830186612ed6565b6138586080830185612ed6565b61386560a0830184612ed6565b979650505050505050565b600060408201905061388560008301856131e4565b61389260208301846131e4565b9392505050565b600080fd5b600080fd5b600080858511156138b7576138b6613899565b5b838611156138c8576138c761389e565b5b6001850283019150848603905094509492505050565b600082905092915050565b600082821b905092915050565b600061390283836138de565b8261390d8135613335565b9250600482101561394d576139487fffffffff00000000000000000000000000000000000000000000000000000000836004036008026138e9565b831692505b505092915050565b600082825260208201905092915050565b60006139728385613955565b935061397f8385846130a1565b61398883612d4c565b840190509392505050565b60006040820190506139a860008301866131e4565b81810360208301526139bb818486613966565b9050949350505050565b6000815190506139d4816133d2565b92915050565b6000602082840312156139f0576139ef612dc2565b5b60006139fe848285016139c5565b91505092915050565b6000606082019050613a1c60008301866131e4565b613a296020830185612ed6565b613a366040830184612ed6565b949350505050565b6000606082019050613a5360008301866131e4565b613a6060208301856131e4565b613a6d6040830184613361565b949350505050565b600081519050919050565b600081905092915050565b6000613a9682613a75565b613aa08185613a80565b9350613ab0818560208601612d22565b80840191505092915050565b6000613ac88284613a8b565b915081905092915050565b613adc81612ea0565b8114613ae757600080fd5b50565b600081519050613af981613ad3565b92915050565b600063ffffffff82169050919050565b613b1881613aff565b8114613b2357600080fd5b50565b600081519050613b3581613b0f565b92915050565b60008060408385031215613b5257613b51612dc2565b5b6000613b6085828601613aea565b9250506020613b7185828601613b26565b9150509250929050565b600060208284031215613b9157613b90612dc2565b5b6000613b9f84828501613aea565b91505092915050565b600060a082019050613bbd6000830188612f94565b613bca6020830187612f94565b613bd76040830186612f94565b613be46060830185612ed6565b613bf160808301846131e4565b9695505050505050565b60008190508160005260206000209050919050565b60006020601f8301049050919050565b600060088302613c507fffffffffffffffffffffffffffffffffffffffffffffffffffffffffffffffff826138e9565b613c5a86836138e9565b95508019841693508086168417925050509392505050565b6000613c8d613c88613c8384612e2a565b6137b9565b612e2a565b9050919050565b6000819050919050565b613ca783613c72565b613cbb613cb382613c94565b848454613c20565b825550505050565b600090565b613cd0613cc3565b613cdb818484613c9e565b505050565b5b81811015613cff57613cf4600082613cc8565b600181019050613ce1565b5050565b601f821115613d4457613d1581613bfb565b613d1e84613c10565b81016020851015613d2d578190505b613d41613d3985613c10565b830182613ce0565b50505b505050565b600082821c905092915050565b6000613d6760001984600802613d49565b1980831691505092915050565b6000613d808383613d56565b9150826002028217905092915050565b613d9982612d06565b67ffffffffffffffff811115613db257613db1612ff5565b5b613dbc825461350f565b613dc7828285613d03565b600060209050601f831160018114613dfa5760008415613de8578287015190505b613df28582613d74565b865550613e5a565b601f198416613e0886613bfb565b60005b82811015613e3057848901518255600182019150602085019450602081019050613e0b565b86831015613e4d5784890151613e49601f891682613d56565b8355505b6001600288020188555050505b505050505050565b6000819050919050565b6000613e87613e82613e7d84613e62565b6137b9565b612e2a565b9050919050565b613e9781613e6c565b82525050565b6000602082019050613eb26000830184613e8e565b92915050565b6000608082019050613ecd6000830187612f94565b613eda6020830186612f60565b613ee76040830185612f94565b613ef46060830184612f94565b95945050505050565b7f4e487b7100000000000000000000000000000000000000000000000000000000600052602160045260246000fd5b6000604082019050613f416000830185612ed6565b613f4e6020830184612ed6565b9392505050565b6000613f6082612e2a565b9150613f6b83612e2a565b9250828201905080821115613f8357613f826135ac565b5b9291505056fea26469706673582212204c699401c65b9bd6b4e800f9e0e0582f5eb53f0162ecf0eeb91b4c0ea190976564736f6c63430008180033",
  "linkReferences": {},
  "deployedLinkReferences": {}
}