{
  "_format": "hh-sol-artifact-1",
  "contractName": "OsmiNodeFactory",
  "sourceName": "contracts/OsmiNodeFactory.sol",
  "abi": [
    {
      "inputs": [],
      "stateMutability": "nonpayable",
      "type": "constructor"
    },
    {
      "inputs": [
        {
          "internalType": "address",
          "name": "authority",
          "type": "address"
        }
      ],
      "name": "AccessManagedInvalidAuthority",
      "type": "error"
    },
    {
      "inputs": [
        {
          "internalType": "address",
          "name": "caller",
          "type": "address"
        },
        {
          "internalType": "uint32",
          "name": "delay",
          "type": "uint32"
        }
      ],
      "name": "AccessManagedRequiredDelay",
      "type": "error"
    },
    {
      "inputs": [
        {
          "internalType": "address",
          "name": "caller",
          "type": "address"
        }
      ],
      "name": "AccessManagedUnauthorized",
      "type": "error"
    },
    {
      "inputs": [
        {
          "internalType": "address",
          "name": "target",
          "type": "address"
        }
      ],
      "name": "AddressEmptyCode",
      "type": "error"
    },
    {
      "inputs": [],
      "name": "ECDSAInvalidSignature",
      "type": "error"
    },
    {
      "inputs": [
        {
          "internalType": "uint256",
          "name": "length",
          "type": "uint256"
        }
      ],
      "name": "ECDSAInvalidSignatureLength",
      "type": "error"
    },
    {
      "inputs": [
        {
          "internalType": "bytes32",
          "name": "s",
          "type": "bytes32"
        }
      ],
      "name": "ECDSAInvalidSignatureS",
      "type": "error"
    },
    {
      "inputs": [
        {
          "internalType": "address",
          "name": "implementation",
          "type": "address"
        }
      ],
      "name": "ERC1967InvalidImplementation",
      "type": "error"
    },
    {
      "inputs": [],
      "name": "ERC1967NonPayable",
      "type": "error"
    },
    {
      "inputs": [],
      "name": "FailedInnerCall",
      "type": "error"
    },
    {
      "inputs": [
        {
          "internalType": "address",
          "name": "account",
          "type": "address"
        },
        {
          "internalType": "uint256",
          "name": "currentNonce",
          "type": "uint256"
        }
      ],
      "name": "InvalidAccountNonce",
      "type": "error"
    },
    {
      "inputs": [],
      "name": "InvalidInitialization",
      "type": "error"
    },
    {
      "inputs": [],
      "name": "NotInitializing",
      "type": "error"
    },
    {
      "inputs": [
        {
          "internalType": "uint256",
          "name": "deadline",
          "type": "uint256"
        }
      ],
      "name": "OsmiExpiredSignature",
      "type": "error"
    },
    {
      "inputs": [
        {
          "internalType": "address",
          "name": "signer",
          "type": "address"
        },
        {
          "internalType": "address",
          "name": "owner",
          "type": "address"
        }
      ],
      "name": "OsmiInvalidSigner",
      "type": "error"
    },
    {
      "inputs": [],
      "name": "UUPSUnauthorizedCallContext",
      "type": "error"
    },
    {
      "inputs": [
        {
          "internalType": "bytes32",
          "name": "slot",
          "type": "bytes32"
        }
      ],
      "name": "UUPSUnsupportedProxiableUUID",
      "type": "error"
    },
    {
      "anonymous": false,
      "inputs": [
        {
          "indexed": false,
          "internalType": "address",
          "name": "authority",
          "type": "address"
        }
      ],
      "name": "AuthorityUpdated",
      "type": "event"
    },
    {
      "anonymous": false,
      "inputs": [],
      "name": "EIP712DomainChanged",
      "type": "event"
    },
    {
      "anonymous": false,
      "inputs": [
        {
          "indexed": false,
          "internalType": "uint64",
          "name": "version",
          "type": "uint64"
        }
      ],
      "name": "Initialized",
      "type": "event"
    },
    {
      "anonymous": false,
      "inputs": [
        {
          "indexed": false,
          "internalType": "contract IOsmiToken",
          "name": "tokenContract",
          "type": "address"
        }
      ],
      "name": "TokenContractChanged",
      "type": "event"
    },
    {
      "anonymous": false,
      "inputs": [
        {
          "indexed": true,
          "internalType": "address",
          "name": "implementation",
          "type": "address"
        }
      ],
      "name": "Upgraded",
      "type": "event"
    },
    {
      "inputs": [],
      "name": "UPGRADE_INTERFACE_VERSION",
      "outputs": [
        {
          "internalType": "string",
          "name": "",
          "type": "string"
        }
      ],
      "stateMutability": "view",
      "type": "function"
    },
    {
      "inputs": [],
      "name": "authority",
      "outputs": [
        {
          "internalType": "address",
          "name": "",
          "type": "address"
        }
      ],
      "stateMutability": "view",
      "type": "function"
    },
    {
      "inputs": [
        {
          "components": [
            {
              "internalType": "address",
              "name": "owner",
              "type": "address"
            },
            {
              "internalType": "address",
              "name": "customer",
              "type": "address"
            },
            {
              "internalType": "uint256",
              "name": "price",
              "type": "uint256"
            },
            {
              "internalType": "uint256",
              "name": "deadline",
              "type": "uint256"
            },
            {
              "internalType": "uint8",
              "name": "v",
              "type": "uint8"
            },
            {
              "internalType": "bytes32",
              "name": "r",
              "type": "bytes32"
            },
            {
              "internalType": "bytes32",
              "name": "s",
              "type": "bytes32"
            }
          ],
          "internalType": "struct OsmiNodeFactory.OsmiNodePurchaseTicket",
          "name": "ticket",
          "type": "tuple"
        },
        {
          "components": [
            {
              "internalType": "address",
              "name": "owner",
              "type": "address"
            },
            {
              "internalType": "address",
              "name": "spender",
              "type": "address"
            },
            {
              "internalType": "uint256",
              "name": "value",
              "type": "uint256"
            },
            {
              "internalType": "uint256",
              "name": "deadline",
              "type": "uint256"
            },
            {
              "internalType": "uint8",
              "name": "v",
              "type": "uint8"
            },
            {
              "internalType": "bytes32",
              "name": "r",
              "type": "bytes32"
            },
            {
              "internalType": "bytes32",
              "name": "s",
              "type": "bytes32"
            }
          ],
          "internalType": "struct OsmiNodeFactory.ERC20PermitAllowance",
          "name": "allowance",
          "type": "tuple"
        }
      ],
      "name": "buyOsmiNode",
      "outputs": [
        {
          "internalType": "uint256",
          "name": "",
          "type": "uint256"
        }
      ],
      "stateMutability": "nonpayable",
      "type": "function"
    },
    {
      "inputs": [],
      "name": "eip712Domain",
      "outputs": [
        {
          "internalType": "bytes1",
          "name": "fields",
          "type": "bytes1"
        },
        {
          "internalType": "string",
          "name": "name",
          "type": "string"
        },
        {
          "internalType": "string",
          "name": "version",
          "type": "string"
        },
        {
          "internalType": "uint256",
          "name": "chainId",
          "type": "uint256"
        },
        {
          "internalType": "address",
          "name": "verifyingContract",
          "type": "address"
        },
        {
          "internalType": "bytes32",
          "name": "salt",
          "type": "bytes32"
        },
        {
          "internalType": "uint256[]",
          "name": "extensions",
          "type": "uint256[]"
        }
      ],
      "stateMutability": "view",
      "type": "function"
    },
    {
      "inputs": [
        {
          "internalType": "address",
          "name": "initialAuthority",
          "type": "address"
        },
        {
          "internalType": "address",
          "name": "tokenContract",
          "type": "address"
        }
      ],
      "name": "initialize",
      "outputs": [],
      "stateMutability": "nonpayable",
      "type": "function"
    },
    {
      "inputs": [],
      "name": "isConsumingScheduledOp",
      "outputs": [
        {
          "internalType": "bytes4",
          "name": "",
          "type": "bytes4"
        }
      ],
      "stateMutability": "view",
      "type": "function"
    },
    {
      "inputs": [
        {
          "internalType": "address",
          "name": "owner",
          "type": "address"
        }
      ],
      "name": "nonces",
      "outputs": [
        {
          "internalType": "uint256",
          "name": "",
          "type": "uint256"
        }
      ],
      "stateMutability": "view",
      "type": "function"
    },
    {
      "inputs": [],
      "name": "proxiableUUID",
      "outputs": [
        {
          "internalType": "bytes32",
          "name": "",
          "type": "bytes32"
        }
      ],
      "stateMutability": "view",
      "type": "function"
    },
    {
      "inputs": [
        {
          "internalType": "address",
          "name": "newAuthority",
          "type": "address"
        }
      ],
      "name": "setAuthority",
      "outputs": [],
      "stateMutability": "nonpayable",
      "type": "function"
    },
    {
      "inputs": [
        {
          "internalType": "address",
          "name": "tokenContract",
          "type": "address"
        }
      ],
      "name": "setTokenContract",
      "outputs": [],
      "stateMutability": "nonpayable",
      "type": "function"
    },
    {
      "inputs": [
        {
          "internalType": "address",
          "name": "newImplementation",
          "type": "address"
        },
        {
          "internalType": "bytes",
          "name": "data",
          "type": "bytes"
        }
      ],
      "name": "upgradeToAndCall",
      "outputs": [],
      "stateMutability": "payable",
      "type": "function"
    }
  ],
  "bytecode": "0x60a06040523060805234801561001457600080fd5b5061001d610022565b6100d4565b7ff0c57e16840df040f15088dc2f81fe391c3923bec73e23a9662efc9c229c6a00805468010000000000000000900460ff16156100725760405163f92ee8a960e01b815260040160405180910390fd5b80546001600160401b03908116146100d15780546001600160401b0319166001600160401b0390811782556040519081527fc7f505b2f371ae2175ee4913f4499e1f2633a7b5936321eed1cdaeb6115181d29060200160405180910390a15b50565b608051611c456100fd600039600081816106fe01528181610727015261086e0152611c456000f3fe60806040526004361061009c5760003560e01c80637ecebe00116100645780637ecebe001461013e57806384b0196e146101935780638fb36037146101bb578063ad3cb1cc146101e9578063bbcd5bbe14610227578063bf7e214f1461024757600080fd5b8063485cc955146100a15780634f1ef286146100c357806352d1902d146100d65780637a9e5e4b146100fe5780637c3ec4601461011e575b600080fd5b3480156100ad57600080fd5b506100c16100bc366004611664565b610274565b005b6100c16100d13660046116ad565b6103e8565b3480156100e257600080fd5b506100eb610407565b6040519081526020015b60405180910390f35b34801561010a57600080fd5b506100c1610119366004611777565b610424565b34801561012a57600080fd5b506100eb6101393660046117aa565b6104ac565b34801561014a57600080fd5b506100eb610159366004611777565b6001600160a01b031660009081527f5ab42ced628888259c08ac98db1eb0cf702fc1501344311d8b100cd1bfe4bb00602052604090205490565b34801561019f57600080fd5b506101a86104ce565b6040516100f59796959493929190611827565b3480156101c757600080fd5b506101d061057a565b6040516001600160e01b031990911681526020016100f5565b3480156101f557600080fd5b5061021a604051806040016040528060058152602001640352e302e360dc1b81525081565b6040516100f591906118bf565b34801561023357600080fd5b506100c1610242366004611777565b6105b3565b34801561025357600080fd5b5061025c6105c8565b6040516001600160a01b0390911681526020016100f5565b7ff0c57e16840df040f15088dc2f81fe391c3923bec73e23a9662efc9c229c6a008054600160401b810460ff16159067ffffffffffffffff166000811580156102ba5750825b905060008267ffffffffffffffff1660011480156102d75750303b155b9050811580156102e5575080155b156103035760405163f92ee8a960e01b815260040160405180910390fd5b845467ffffffffffffffff19166001178555831561032d57845460ff60401b1916600160401b1785555b610336876105e4565b61033e6105f5565b6103466105f5565b6103906040518060400160405280600f81526020016e4f736d694e6f6465466163746f727960881b815250604051806040016040528060018152602001603160f81b8152506105ff565b61039986610611565b83156103df57845460ff60401b19168555604051600181527fc7f505b2f371ae2175ee4913f4499e1f2633a7b5936321eed1cdaeb6115181d29060200160405180910390a15b50505050505050565b6103f06106f3565b6103f982610798565b61040382826107a1565b5050565b6000610411610863565b50600080516020611bf083398151915290565b3361042d6105c8565b6001600160a01b0316816001600160a01b03161461046d5760405162d1953b60e31b81526001600160a01b03821660048201526024015b60405180910390fd5b816001600160a01b03163b6000036104a3576040516361798f2f60e11b81526001600160a01b0383166004820152602401610464565b610403826108ac565b60006104bb335b600036610906565b6104c58383610a0c565b90505b92915050565b60006060808280808381600080516020611bd083398151915280549091501580156104fb57506001810154155b61053f5760405162461bcd60e51b81526020600482015260156024820152741152540dcc4c8e88155b9a5b9a5d1a585b1a5e9959605a1b6044820152606401610464565b610547610d45565b61054f610e08565b60408051600080825260208201909252600f60f81b9c939b5091995046985030975095509350915050565b600080516020611bb0833981519152805460009190600160a01b900460ff166105a45760006105ad565b638fb3603760e01b5b91505090565b6105bc336104b3565b6105c581610611565b50565b600080516020611bb0833981519152546001600160a01b031690565b6105ec610e47565b6105c581610e90565b6105fd610e47565b565b610607610e47565b6104038282610ea1565b6001600160a01b0381166106675760405162461bcd60e51b815260206004820152601c60248201527f746f6b656e20636f6e74726163742063616e2774206265207a65726f000000006044820152606401610464565b7f0fcd9c378940f300c1be3c1a4577c232db834454ea38358b32a770dd9ba7690080546001600160a01b038381169116036106a0575050565b80546001600160a01b0319166001600160a01b03831690811782556040519081527fe89f98a27789c8313baa22de83cdb921b7026d66af0ee02973c97d45f952b6be906020015b60405180910390a15050565b306001600160a01b037f000000000000000000000000000000000000000000000000000000000000000016148061077a57507f00000000000000000000000000000000000000000000000000000000000000006001600160a01b031661076e600080516020611bf0833981519152546001600160a01b031690565b6001600160a01b031614155b156105fd5760405163703e46dd60e11b815260040160405180910390fd5b6105c5336104b3565b816001600160a01b03166352d1902d6040518163ffffffff1660e01b8152600401602060405180830381865afa9250505080156107fb575060408051601f3d908101601f191682019092526107f8918101906118d2565b60015b61082357604051634c9c8ce360e01b81526001600160a01b0383166004820152602401610464565b600080516020611bf0833981519152811461085457604051632a87526960e21b815260048101829052602401610464565b61085e8383610f02565b505050565b306001600160a01b037f000000000000000000000000000000000000000000000000000000000000000016146105fd5760405163703e46dd60e11b815260040160405180910390fd5b600080516020611bb083398151915280546001600160a01b0319166001600160a01b03831690811782556040519081527f2f658b440c35314f52658ea8a740e05b284cdc84dc9ae01e891f21b8933e7cad906020016106e7565b600080516020611bb08339815191526000806109416109236105c8565b8730610933600460008a8c6118eb565b61093c91611915565b610f58565b9150915081610a045763ffffffff8116156109e157825460ff60a01b1916600160a01b17835561096f6105c8565b6001600160a01b03166394c7d7ee8787876040518463ffffffff1660e01b815260040161099e9392919061194d565b600060405180830381600087803b1580156109b857600080fd5b505af11580156109cc573d6000803e3d6000fd5b5050845460ff60a01b1916855550610a049050565b60405162d1953b60e31b81526001600160a01b0387166004820152602401610464565b505050505050565b600030610a1f6040840160208501611777565b6001600160a01b031614610a7f5760405162461bcd60e51b815260206004820152602160248201527f74686973206973206e6f742074686520616c6c6f77616e6365207370656e64656044820152603960f91b6064820152608401610464565b7f0fcd9c378940f300c1be3c1a4577c232db834454ea38358b32a770dd9ba76900610ae9610ab06020860186611777565b610ac06040870160208801611777565b60408701356060880135610ada60a08a0160808b0161198d565b8960a001358a60c00135611064565b80546001600160a01b031663d505accf610b066020860186611777565b610b166040870160208801611777565b60408701356060880135610b3060a08a0160808b0161198d565b6040516001600160e01b031960e088901b1681526001600160a01b0395861660048201529490931660248501526044840191909152606483015260ff16608482015260a086013560a482015260c086013560c482015260e401600060405180830381600087803b158015610ba357600080fd5b505af1158015610bb7573d6000803e3d6000fd5b505082546001600160a01b031691506379cc67909050610bda6020860186611777565b604080516001600160e01b031960e085901b1681526001600160a01b0390921660048301528601356024820152604401600060405180830381600087803b158015610c2457600080fd5b505af1158015610c38573d6000803e3d6000fd5b5050505060018101546001600160a01b03166340d097c3610c5f6040870160208801611777565b6040516001600160e01b031960e084901b1681526001600160a01b039091166004820152602401600060405180830381600087803b158015610ca057600080fd5b505af1158015610cb4573d6000803e3d6000fd5b5050505060018160010160009054906101000a90046001600160a01b03166001600160a01b031663c4e41b226040518163ffffffff1660e01b8152600401602060405180830381865afa158015610d0f573d6000803e3d6000fd5b505050506040513d601f19601f82011682018060405250810190610d3391906118d2565b610d3d91906119b0565b949350505050565b7fa16a46d94261c7517cc8ff89f61c0ce93598e3c849801011dee649a6a557d1028054606091600080516020611bd083398151915291610d84906119d1565b80601f0160208091040260200160405190810160405280929190818152602001828054610db0906119d1565b8015610dfd5780601f10610dd257610100808354040283529160200191610dfd565b820191906000526020600020905b815481529060010190602001808311610de057829003601f168201915b505050505091505090565b7fa16a46d94261c7517cc8ff89f61c0ce93598e3c849801011dee649a6a557d1038054606091600080516020611bd083398151915291610d84906119d1565b7ff0c57e16840df040f15088dc2f81fe391c3923bec73e23a9662efc9c229c6a0054600160401b900460ff166105fd57604051631afcd79f60e31b815260040160405180910390fd5b610e98610e47565b6105c5816108ac565b610ea9610e47565b600080516020611bd08339815191527fa16a46d94261c7517cc8ff89f61c0ce93598e3c849801011dee649a6a557d102610ee38482611a53565b5060038101610ef28382611a53565b5060008082556001909101555050565b610f0b826111b2565b6040516001600160a01b038316907fbc7cd75a20ee27fd9adebab32041f755214dbc6bffa90cc0225b39da2e5c2d3b90600090a2805115610f505761085e8282611217565b61040361128d565b6040516001600160a01b03848116602483015283811660448301526001600160e01b03198316606483015260009182918291829189169060840160408051601f198184030181529181526020820180516001600160e01b031663b700961360e01b17905251610fc79190611b12565b600060405180830381855afa9150503d8060008114611002576040519150601f19603f3d011682016040523d82523d6000602084013e611007565b606091505b50915091508115611059576040815110611039578080602001905181019061102f9190611b3e565b9094509250611059565b602081511061105957808060200190518101906110569190611b7e565b93505b505094509492505050565b83421115611088576040516385adb5bf60e01b815260048101859052602401610464565b60007f4654f8c427f4c1e8e15ab3f305f2f0d726a9a7127cf00e0a9746804c5942797a8888886110f48b6001600160a01b031660009081527f5ab42ced628888259c08ac98db1eb0cf702fc1501344311d8b100cd1bfe4bb006020526040902080546001810190915590565b6040805160208101969096526001600160a01b0394851690860152929091166060840152608083015260a082015260c0810186905260e001604051602081830303815290604052805190602001209050600061114f826112ac565b9050600061115f828787876112d9565b9050896001600160a01b0316816001600160a01b0316146111a65760405163702bc30560e11b81526001600160a01b0380831660048301528b166024820152604401610464565b50505050505050505050565b806001600160a01b03163b6000036111e857604051634c9c8ce360e01b81526001600160a01b0382166004820152602401610464565b600080516020611bf083398151915280546001600160a01b0319166001600160a01b0392909216919091179055565b6060600080846001600160a01b0316846040516112349190611b12565b600060405180830381855af49150503d806000811461126f576040519150601f19603f3d011682016040523d82523d6000602084013e611274565b606091505b5091509150611284858383611307565b95945050505050565b34156105fd5760405163b398979f60e01b815260040160405180910390fd5b60006104c86112b9611366565b8360405161190160f01b8152600281019290925260228201526042902090565b6000806000806112eb88888888611375565b9250925092506112fb8282611444565b50909695505050505050565b60608261131c57611317826114fd565b61135f565b815115801561133357506001600160a01b0384163b155b1561135c57604051639996b31560e01b81526001600160a01b0385166004820152602401610464565b50805b9392505050565b6000611370611526565b905090565b600080807f7fffffffffffffffffffffffffffffff5d576e7357a4501ddfe92f46681b20a08411156113b0575060009150600390508261143a565b604080516000808252602082018084528a905260ff891692820192909252606081018790526080810186905260019060a0016020604051602081039080840390855afa158015611404573d6000803e3d6000fd5b5050604051601f1901519150506001600160a01b0381166114305750600092506001915082905061143a565b9250600091508190505b9450945094915050565b600082600381111561145857611458611b99565b03611461575050565b600182600381111561147557611475611b99565b036114935760405163f645eedf60e01b815260040160405180910390fd5b60028260038111156114a7576114a7611b99565b036114c85760405163fce698f760e01b815260048101829052602401610464565b60038260038111156114dc576114dc611b99565b03610403576040516335e2f38360e21b815260048101829052602401610464565b80511561150d5780518082602001fd5b604051630a12f52160e11b815260040160405180910390fd5b60007f8b73c3c69bb8fe3d512ecc4cf759cc79239f7b179b0ffacaa9a75d522b39400f61155161159a565b611559611604565b60408051602081019490945283019190915260608201524660808201523060a082015260c00160405160208183030381529060405280519060200120905090565b6000600080516020611bd0833981519152816115b4610d45565b8051909150156115cc57805160209091012092915050565b815480156115db579392505050565b7fc5d2460186f7233c927e7db2dcc703c0e500b653ca82273b7bfad8045d85a470935050505090565b6000600080516020611bd08339815191528161161e610e08565b80519091501561163657805160209091012092915050565b600182015480156115db579392505050565b80356001600160a01b038116811461165f57600080fd5b919050565b6000806040838503121561167757600080fd5b61168083611648565b915061168e60208401611648565b90509250929050565b634e487b7160e01b600052604160045260246000fd5b600080604083850312156116c057600080fd5b6116c983611648565b9150602083013567ffffffffffffffff8111156116e557600080fd5b8301601f810185136116f657600080fd5b803567ffffffffffffffff81111561171057611710611697565b604051601f8201601f19908116603f0116810167ffffffffffffffff8111828210171561173f5761173f611697565b60405281815282820160200187101561175757600080fd5b816020840160208301376000602083830101528093505050509250929050565b60006020828403121561178957600080fd5b6104c582611648565b600060e082840312156117a457600080fd5b50919050565b6000806101c083850312156117be57600080fd5b6117c88484611792565b915061168e8460e08501611792565b60005b838110156117f25781810151838201526020016117da565b50506000910152565b600081518084526118138160208601602086016117d7565b601f01601f19169290920160200192915050565b60ff60f81b8816815260e06020820152600061184660e08301896117fb565b828103604084015261185881896117fb565b606084018890526001600160a01b038716608085015260a0840186905283810360c08501528451808252602080870193509091019060005b818110156118ae578351835260209384019390920191600101611890565b50909b9a5050505050505050505050565b6020815260006104c560208301846117fb565b6000602082840312156118e457600080fd5b5051919050565b600080858511156118fb57600080fd5b8386111561190857600080fd5b5050820193919092039150565b80356001600160e01b03198116906004841015611946576001600160e01b0319600485900360031b81901b82161691505b5092915050565b6001600160a01b03841681526040602082018190528101829052818360608301376000818301606090810191909152601f909201601f1916010192915050565b60006020828403121561199f57600080fd5b813560ff8116811461135f57600080fd5b818103818111156104c857634e487b7160e01b600052601160045260246000fd5b600181811c908216806119e557607f821691505b6020821081036117a457634e487b7160e01b600052602260045260246000fd5b601f82111561085e57806000526020600020601f840160051c81016020851015611a2c5750805b601f840160051c820191505b81811015611a4c5760008155600101611a38565b5050505050565b815167ffffffffffffffff811115611a6d57611a6d611697565b611a8181611a7b84546119d1565b84611a05565b6020601f821160018114611ab55760008315611a9d5750848201515b600019600385901b1c1916600184901b178455611a4c565b600084815260208120601f198516915b82811015611ae55787850151825560209485019460019092019101611ac5565b5084821015611b035786840151600019600387901b60f8161c191681555b50505050600190811b01905550565b60008251611b248184602087016117d7565b9190910192915050565b8051801515811461165f57600080fd5b60008060408385031215611b5157600080fd5b611b5a83611b2e565b9150602083015163ffffffff81168114611b7357600080fd5b809150509250929050565b600060208284031215611b9057600080fd5b6104c582611b2e565b634e487b7160e01b600052602160045260246000fdfef3177357ab46d8af007ab3fdb9af81da189e1068fefdc0073dca88a2cab40a00a16a46d94261c7517cc8ff89f61c0ce93598e3c849801011dee649a6a557d100360894a13ba1a3210667c828492db98dca3e2076cc3735a920a3ca505d382bbca2646970667358221220b7c82d62c669594a0c7812bf538dc5f869666cbe9b9db076cbbc6801f8b7e78664736f6c634300081c0033",
  "linkReferences": {},
  "deployedLinkReferences": {}
}