{
  "_format": "hh-sol-artifact-1",
  "contractName": "OsmiDistributionManager",
  "sourceName": "contracts/OsmiDistributionManager.sol",
  "abi": [
    {
      "inputs": [],
      "stateMutability": "nonpayable",
      "type": "constructor"
    },
    {
      "inputs": [
        {
          "internalType": "address",
          "name": "authority",
          "type": "address"
        }
      ],
      "name": "AccessManagedInvalidAuthority",
      "type": "error"
    },
    {
      "inputs": [
        {
          "internalType": "address",
          "name": "caller",
          "type": "address"
        },
        {
          "internalType": "uint32",
          "name": "delay",
          "type": "uint32"
        }
      ],
      "name": "AccessManagedRequiredDelay",
      "type": "error"
    },
    {
      "inputs": [
        {
          "internalType": "address",
          "name": "caller",
          "type": "address"
        }
      ],
      "name": "AccessManagedUnauthorized",
      "type": "error"
    },
    {
      "inputs": [
        {
          "internalType": "address",
          "name": "target",
          "type": "address"
        }
      ],
      "name": "AddressEmptyCode",
      "type": "error"
    },
    {
      "inputs": [],
      "name": "ECDSAInvalidSignature",
      "type": "error"
    },
    {
      "inputs": [
        {
          "internalType": "uint256",
          "name": "length",
          "type": "uint256"
        }
      ],
      "name": "ECDSAInvalidSignatureLength",
      "type": "error"
    },
    {
      "inputs": [
        {
          "internalType": "bytes32",
          "name": "s",
          "type": "bytes32"
        }
      ],
      "name": "ECDSAInvalidSignatureS",
      "type": "error"
    },
    {
      "inputs": [
        {
          "internalType": "address",
          "name": "implementation",
          "type": "address"
        }
      ],
      "name": "ERC1967InvalidImplementation",
      "type": "error"
    },
    {
      "inputs": [],
      "name": "ERC1967NonPayable",
      "type": "error"
    },
    {
      "inputs": [],
      "name": "FailedInnerCall",
      "type": "error"
    },
    {
      "inputs": [
        {
          "internalType": "address",
          "name": "user",
          "type": "address"
        },
        {
          "internalType": "uint256",
          "name": "allowance",
          "type": "uint256"
        },
        {
          "internalType": "uint256",
          "name": "needed",
          "type": "uint256"
        }
      ],
      "name": "InsufficientAllowance",
      "type": "error"
    },
    {
      "inputs": [
        {
          "internalType": "address",
          "name": "account",
          "type": "address"
        },
        {
          "internalType": "uint256",
          "name": "currentNonce",
          "type": "uint256"
        }
      ],
      "name": "InvalidAccountNonce",
      "type": "error"
    },
    {
      "inputs": [],
      "name": "InvalidInitialization",
      "type": "error"
    },
    {
      "inputs": [
        {
          "internalType": "address",
          "name": "signer",
          "type": "address"
        },
        {
          "internalType": "address",
          "name": "owner",
          "type": "address"
        }
      ],
      "name": "InvalidSigner",
      "type": "error"
    },
    {
      "inputs": [
        {
          "internalType": "bytes32",
          "name": "expected",
          "type": "bytes32"
        },
        {
          "internalType": "bytes32",
          "name": "actual",
          "type": "bytes32"
        }
      ],
      "name": "InvalidTicketHash",
      "type": "error"
    },
    {
      "inputs": [
        {
          "internalType": "address",
          "name": "signer",
          "type": "address"
        },
        {
          "internalType": "address",
          "name": "one",
          "type": "address"
        },
        {
          "internalType": "address",
          "name": "two",
          "type": "address"
        }
      ],
      "name": "InvalidTicketSigner",
      "type": "error"
    },
    {
      "inputs": [],
      "name": "MathOverflowedMulDiv",
      "type": "error"
    },
    {
      "inputs": [],
      "name": "NotInitializing",
      "type": "error"
    },
    {
      "inputs": [],
      "name": "UUPSUnauthorizedCallContext",
      "type": "error"
    },
    {
      "inputs": [
        {
          "internalType": "bytes32",
          "name": "slot",
          "type": "bytes32"
        }
      ],
      "name": "UUPSUnsupportedProxiableUUID",
      "type": "error"
    },
    {
      "anonymous": false,
      "inputs": [
        {
          "indexed": false,
          "internalType": "address",
          "name": "authority",
          "type": "address"
        }
      ],
      "name": "AuthorityUpdated",
      "type": "event"
    },
    {
      "anonymous": false,
      "inputs": [
        {
          "indexed": false,
          "internalType": "enum OsmiDistributionManager.Bridge",
          "name": "bridge",
          "type": "uint8"
        },
        {
          "indexed": false,
          "internalType": "address",
          "name": "bridgeContract",
          "type": "address"
        }
      ],
      "name": "BridgeContractChanged",
      "type": "event"
    },
    {
      "anonymous": false,
      "inputs": [],
      "name": "EIP712DomainChanged",
      "type": "event"
    },
    {
      "anonymous": false,
      "inputs": [
        {
          "indexed": false,
          "internalType": "uint64",
          "name": "version",
          "type": "uint64"
        }
      ],
      "name": "Initialized",
      "type": "event"
    },
    {
      "anonymous": false,
      "inputs": [
        {
          "indexed": false,
          "internalType": "address",
          "name": "user",
          "type": "address"
        },
        {
          "indexed": false,
          "internalType": "uint256",
          "name": "amount",
          "type": "uint256"
        },
        {
          "indexed": false,
          "internalType": "uint256",
          "name": "timestamp",
          "type": "uint256"
        }
      ],
      "name": "TicketRedeemed",
      "type": "event"
    },
    {
      "anonymous": false,
      "inputs": [
        {
          "indexed": false,
          "internalType": "address",
          "name": "ticketSigner",
          "type": "address"
        }
      ],
      "name": "TicketSignerChanged",
      "type": "event"
    },
    {
      "anonymous": false,
      "inputs": [
        {
          "indexed": false,
          "internalType": "contract IOsmiToken",
          "name": "tokenContract",
          "type": "address"
        }
      ],
      "name": "TokenContractChanged",
      "type": "event"
    },
    {
      "anonymous": false,
      "inputs": [
        {
          "indexed": false,
          "internalType": "address",
          "name": "tokenPool",
          "type": "address"
        }
      ],
      "name": "TokenPoolChanged",
      "type": "event"
    },
    {
      "anonymous": false,
      "inputs": [
        {
          "indexed": false,
          "internalType": "address",
          "name": "user",
          "type": "address"
        },
        {
          "indexed": false,
          "internalType": "uint256",
          "name": "amount",
          "type": "uint256"
        },
        {
          "indexed": false,
          "internalType": "enum OsmiDistributionManager.Bridge",
          "name": "bridge",
          "type": "uint8"
        },
        {
          "indexed": false,
          "internalType": "string",
          "name": "target",
          "type": "string"
        }
      ],
      "name": "TokensBridgedTo",
      "type": "event"
    },
    {
      "anonymous": false,
      "inputs": [
        {
          "indexed": false,
          "internalType": "address",
          "name": "user",
          "type": "address"
        },
        {
          "indexed": false,
          "internalType": "uint256",
          "name": "amount",
          "type": "uint256"
        },
        {
          "indexed": false,
          "internalType": "enum OsmiDistributionManager.Bridge",
          "name": "bridge",
          "type": "uint8"
        }
      ],
      "name": "TokensClaimed",
      "type": "event"
    },
    {
      "anonymous": false,
      "inputs": [
        {
          "indexed": true,
          "internalType": "address",
          "name": "implementation",
          "type": "address"
        }
      ],
      "name": "Upgraded",
      "type": "event"
    },
    {
      "inputs": [],
      "name": "UPGRADE_INTERFACE_VERSION",
      "outputs": [
        {
          "internalType": "string",
          "name": "",
          "type": "string"
        }
      ],
      "stateMutability": "view",
      "type": "function"
    },
    {
      "inputs": [],
      "name": "authority",
      "outputs": [
        {
          "internalType": "address",
          "name": "",
          "type": "address"
        }
      ],
      "stateMutability": "view",
      "type": "function"
    },
    {
      "inputs": [
        {
          "internalType": "uint256",
          "name": "amount",
          "type": "uint256"
        },
        {
          "internalType": "enum OsmiDistributionManager.Bridge",
          "name": "bridge",
          "type": "uint8"
        }
      ],
      "name": "bridgeTokens",
      "outputs": [
        {
          "internalType": "uint256",
          "name": "allowance",
          "type": "uint256"
        }
      ],
      "stateMutability": "nonpayable",
      "type": "function"
    },
    {
      "inputs": [
        {
          "internalType": "uint256",
          "name": "amount",
          "type": "uint256"
        },
        {
          "internalType": "string",
          "name": "targetAlias",
          "type": "string"
        }
      ],
      "name": "bridgeTokensToGalaChainAlias",
      "outputs": [
        {
          "internalType": "uint256",
          "name": "allowance",
          "type": "uint256"
        }
      ],
      "stateMutability": "nonpayable",
      "type": "function"
    },
    {
      "inputs": [
        {
          "internalType": "uint256",
          "name": "amount",
          "type": "uint256"
        }
      ],
      "name": "claimTokens",
      "outputs": [
        {
          "internalType": "uint256",
          "name": "allowance",
          "type": "uint256"
        }
      ],
      "stateMutability": "nonpayable",
      "type": "function"
    },
    {
      "inputs": [],
      "name": "eip712Domain",
      "outputs": [
        {
          "internalType": "bytes1",
          "name": "fields",
          "type": "bytes1"
        },
        {
          "internalType": "string",
          "name": "name",
          "type": "string"
        },
        {
          "internalType": "string",
          "name": "version",
          "type": "string"
        },
        {
          "internalType": "uint256",
          "name": "chainId",
          "type": "uint256"
        },
        {
          "internalType": "address",
          "name": "verifyingContract",
          "type": "address"
        },
        {
          "internalType": "bytes32",
          "name": "salt",
          "type": "bytes32"
        },
        {
          "internalType": "uint256[]",
          "name": "extensions",
          "type": "uint256[]"
        }
      ],
      "stateMutability": "view",
      "type": "function"
    },
    {
      "inputs": [
        {
          "internalType": "enum OsmiDistributionManager.Bridge",
          "name": "bridge",
          "type": "uint8"
        }
      ],
      "name": "getBridgeContract",
      "outputs": [
        {
          "internalType": "address",
          "name": "",
          "type": "address"
        }
      ],
      "stateMutability": "view",
      "type": "function"
    },
    {
      "inputs": [],
      "name": "getTicketSigners",
      "outputs": [
        {
          "internalType": "address",
          "name": "",
          "type": "address"
        },
        {
          "internalType": "address",
          "name": "",
          "type": "address"
        }
      ],
      "stateMutability": "view",
      "type": "function"
    },
    {
      "inputs": [],
      "name": "getTokenContract",
      "outputs": [
        {
          "internalType": "contract IOsmiToken",
          "name": "tokenContract",
          "type": "address"
        }
      ],
      "stateMutability": "view",
      "type": "function"
    },
    {
      "inputs": [],
      "name": "getTokenPool",
      "outputs": [
        {
          "internalType": "address",
          "name": "tokenPool",
          "type": "address"
        }
      ],
      "stateMutability": "view",
      "type": "function"
    },
    {
      "inputs": [
        {
          "internalType": "address",
          "name": "initialAuthority",
          "type": "address"
        },
        {
          "internalType": "address",
          "name": "tokenContract",
          "type": "address"
        },
        {
          "internalType": "address",
          "name": "tokenPool",
          "type": "address"
        },
        {
          "internalType": "address",
          "name": "ticketSigner",
          "type": "address"
        }
      ],
      "name": "initialize",
      "outputs": [],
      "stateMutability": "nonpayable",
      "type": "function"
    },
    {
      "inputs": [],
      "name": "isConsumingScheduledOp",
      "outputs": [
        {
          "internalType": "bytes4",
          "name": "",
          "type": "bytes4"
        }
      ],
      "stateMutability": "view",
      "type": "function"
    },
    {
      "inputs": [
        {
          "internalType": "address",
          "name": "owner",
          "type": "address"
        }
      ],
      "name": "nonces",
      "outputs": [
        {
          "internalType": "uint256",
          "name": "",
          "type": "uint256"
        }
      ],
      "stateMutability": "view",
      "type": "function"
    },
    {
      "inputs": [],
      "name": "proxiableUUID",
      "outputs": [
        {
          "internalType": "bytes32",
          "name": "",
          "type": "bytes32"
        }
      ],
      "stateMutability": "view",
      "type": "function"
    },
    {
      "inputs": [
        {
          "components": [
            {
              "internalType": "address",
              "name": "signer",
              "type": "address"
            },
            {
              "internalType": "address",
              "name": "user",
              "type": "address"
            },
            {
              "internalType": "uint256",
              "name": "timestamp",
              "type": "uint256"
            },
            {
              "internalType": "bytes32",
              "name": "expectedHash",
              "type": "bytes32"
            },
            {
              "internalType": "uint256",
              "name": "amount",
              "type": "uint256"
            },
            {
              "internalType": "uint8",
              "name": "v",
              "type": "uint8"
            },
            {
              "internalType": "bytes32",
              "name": "r",
              "type": "bytes32"
            },
            {
              "internalType": "bytes32",
              "name": "s",
              "type": "bytes32"
            }
          ],
          "internalType": "struct OsmiDistributionManager.Ticket",
          "name": "ticket",
          "type": "tuple"
        }
      ],
      "name": "redeem",
      "outputs": [
        {
          "internalType": "uint256",
          "name": "allowance",
          "type": "uint256"
        }
      ],
      "stateMutability": "nonpayable",
      "type": "function"
    },
    {
      "inputs": [
        {
          "components": [
            {
              "internalType": "address",
              "name": "signer",
              "type": "address"
            },
            {
              "internalType": "address",
              "name": "user",
              "type": "address"
            },
            {
              "internalType": "uint256",
              "name": "timestamp",
              "type": "uint256"
            },
            {
              "internalType": "bytes32",
              "name": "expectedHash",
              "type": "bytes32"
            },
            {
              "internalType": "uint256",
              "name": "amount",
              "type": "uint256"
            },
            {
              "internalType": "uint8",
              "name": "v",
              "type": "uint8"
            },
            {
              "internalType": "bytes32",
              "name": "r",
              "type": "bytes32"
            },
            {
              "internalType": "bytes32",
              "name": "s",
              "type": "bytes32"
            }
          ],
          "internalType": "struct OsmiDistributionManager.Ticket",
          "name": "ticket",
          "type": "tuple"
        },
        {
          "internalType": "uint256",
          "name": "amount",
          "type": "uint256"
        },
        {
          "internalType": "enum OsmiDistributionManager.Bridge",
          "name": "bridge",
          "type": "uint8"
        }
      ],
      "name": "redeemAndBridge",
      "outputs": [
        {
          "internalType": "uint256",
          "name": "allowance",
          "type": "uint256"
        }
      ],
      "stateMutability": "nonpayable",
      "type": "function"
    },
    {
      "inputs": [
        {
          "components": [
            {
              "internalType": "address",
              "name": "signer",
              "type": "address"
            },
            {
              "internalType": "address",
              "name": "user",
              "type": "address"
            },
            {
              "internalType": "uint256",
              "name": "timestamp",
              "type": "uint256"
            },
            {
              "internalType": "bytes32",
              "name": "expectedHash",
              "type": "bytes32"
            },
            {
              "internalType": "uint256",
              "name": "amount",
              "type": "uint256"
            },
            {
              "internalType": "uint8",
              "name": "v",
              "type": "uint8"
            },
            {
              "internalType": "bytes32",
              "name": "r",
              "type": "bytes32"
            },
            {
              "internalType": "bytes32",
              "name": "s",
              "type": "bytes32"
            }
          ],
          "internalType": "struct OsmiDistributionManager.Ticket",
          "name": "ticket",
          "type": "tuple"
        },
        {
          "internalType": "uint256",
          "name": "amount",
          "type": "uint256"
        },
        {
          "internalType": "string",
          "name": "targetAlias",
          "type": "string"
        }
      ],
      "name": "redeemAndBridgeToGalaChainAlias",
      "outputs": [
        {
          "internalType": "uint256",
          "name": "allowance",
          "type": "uint256"
        }
      ],
      "stateMutability": "nonpayable",
      "type": "function"
    },
    {
      "inputs": [
        {
          "components": [
            {
              "internalType": "address",
              "name": "signer",
              "type": "address"
            },
            {
              "internalType": "address",
              "name": "user",
              "type": "address"
            },
            {
              "internalType": "uint256",
              "name": "timestamp",
              "type": "uint256"
            },
            {
              "internalType": "bytes32",
              "name": "expectedHash",
              "type": "bytes32"
            },
            {
              "internalType": "uint256",
              "name": "amount",
              "type": "uint256"
            },
            {
              "internalType": "uint8",
              "name": "v",
              "type": "uint8"
            },
            {
              "internalType": "bytes32",
              "name": "r",
              "type": "bytes32"
            },
            {
              "internalType": "bytes32",
              "name": "s",
              "type": "bytes32"
            }
          ],
          "internalType": "struct OsmiDistributionManager.Ticket",
          "name": "ticket",
          "type": "tuple"
        },
        {
          "internalType": "uint256",
          "name": "amount",
          "type": "uint256"
        }
      ],
      "name": "redeemAndClaim",
      "outputs": [
        {
          "internalType": "uint256",
          "name": "allowance",
          "type": "uint256"
        }
      ],
      "stateMutability": "nonpayable",
      "type": "function"
    },
    {
      "inputs": [
        {
          "internalType": "address",
          "name": "newAuthority",
          "type": "address"
        }
      ],
      "name": "setAuthority",
      "outputs": [],
      "stateMutability": "nonpayable",
      "type": "function"
    },
    {
      "inputs": [
        {
          "internalType": "enum OsmiDistributionManager.Bridge",
          "name": "bridge",
          "type": "uint8"
        },
        {
          "internalType": "address",
          "name": "bridgeContract",
          "type": "address"
        }
      ],
      "name": "setBridgeContract",
      "outputs": [],
      "stateMutability": "nonpayable",
      "type": "function"
    },
    {
      "inputs": [
        {
          "internalType": "address",
          "name": "signer",
          "type": "address"
        }
      ],
      "name": "setTicketSigner",
      "outputs": [],
      "stateMutability": "nonpayable",
      "type": "function"
    },
    {
      "inputs": [
        {
          "internalType": "address",
          "name": "tokenContract",
          "type": "address"
        }
      ],
      "name": "setTokenContract",
      "outputs": [],
      "stateMutability": "nonpayable",
      "type": "function"
    },
    {
      "inputs": [
        {
          "internalType": "address",
          "name": "tokenPool",
          "type": "address"
        }
      ],
      "name": "setTokenPool",
      "outputs": [],
      "stateMutability": "nonpayable",
      "type": "function"
    },
    {
      "inputs": [
        {
          "internalType": "address",
          "name": "newImplementation",
          "type": "address"
        },
        {
          "internalType": "bytes",
          "name": "data",
          "type": "bytes"
        }
      ],
      "name": "upgradeToAndCall",
      "outputs": [],
      "stateMutability": "payable",
      "type": "function"
    }
  ],
  "bytecode": "0x60a06040523060805234801561001457600080fd5b5061001d610022565b6100d4565b7ff0c57e16840df040f15088dc2f81fe391c3923bec73e23a9662efc9c229c6a00805468010000000000000000900460ff16156100725760405163f92ee8a960e01b815260040160405180910390fd5b80546001600160401b03908116146100d15780546001600160401b0319166001600160401b0390811782556040519081527fc7f505b2f371ae2175ee4913f4499e1f2633a7b5936321eed1cdaeb6115181d29060200160405180910390a15b50565b6080516131db6100fd600039600081816118120152818161183b015261198401526131db6000f3fe60806040526004361061014b5760003560e01c806384b0196e116100b6578063ad3cb1cc1161006f578063ad3cb1cc146103fa578063b2f35e4914610438578063bbcd5bbe14610458578063bf7e214f14610478578063ec55dd421461048d578063f8c8765e146104a257600080fd5b806384b0196e1461030f57806389255bbb146103375780638fb3603714610357578063989e9b2f146103855780639c882176146103a5578063a35ff3bf146103da57600080fd5b80634f1ef286116101085780634f1ef2861461023057806352d1902d1461024557806365ec1ed61461025a5780637764b4d21461027a5780637a9e5e4b1461029a5780637ecebe00146102ba57600080fd5b80630ce6f6a91461015057806310d50ea41461018357806316b6f8bb146101a357806328b7bede146101c357806346e04a2f146101f05780634d56346214610210575b600080fd5b34801561015c57600080fd5b5061017061016b3660046128b2565b6104c2565b6040519081526020015b60405180910390f35b34801561018f57600080fd5b5061017061019e366004612918565b6104e2565b3480156101af57600080fd5b506101706101be366004612976565b610546565b3480156101cf57600080fd5b506101d8610564565b6040516001600160a01b03909116815260200161017a565b3480156101fc57600080fd5b5061017061020b3660046129c2565b610573565b34801561021c57600080fd5b506101d861022b3660046129ea565b610589565b61024361023e366004612a32565b610594565b005b34801561025157600080fd5b506101706105b3565b34801561026657600080fd5b50610170610275366004612afc565b6105d0565b34801561028657600080fd5b50610243610295366004612b28565b610600565b3480156102a657600080fd5b506102436102b5366004612b28565b610615565b3480156102c657600080fd5b506101706102d5366004612b28565b6001600160a01b031660009081527f5ab42ced628888259c08ac98db1eb0cf702fc1501344311d8b100cd1bfe4bb00602052604090205490565b34801561031b57600080fd5b5061032461069d565b60405161017a9796959493929190612b93565b34801561034357600080fd5b50610243610352366004612c2b565b610749565b34801561036357600080fd5b5061036c6108e2565b6040516001600160e01b0319909116815260200161017a565b34801561039157600080fd5b506101706103a0366004612c55565b61091b565b3480156103b157600080fd5b506103ba610939565b604080516001600160a01b0393841681529290911660208301520161017a565b3480156103e657600080fd5b506102436103f5366004612b28565b61099c565b34801561040657600080fd5b5061042b604051806040016040528060058152602001640352e302e360dc1b81525081565b60405161017a9190612c95565b34801561044457600080fd5b50610170610453366004612ca8565b6109ae565b34801561046457600080fd5b50610243610473366004612b28565b6109cc565b34801561048457600080fd5b506101d86109de565b34801561049957600080fd5b506101d8610a01565b3480156104ae57600080fd5b506102436104bd366004612cd5565b610a34565b60006104d1335b600036610bd2565b6104da82610cd8565b90505b919050565b60006104ed336104c9565b6104f685610cd8565b5061053b335b85600186868080601f01602080910402602001604051908101604052809392919081815260200183838082843760009201919091525061101592505050565b90505b949350505050565b6000610551336104c9565b61055a336104fc565b90505b9392505050565b600061056e6114b5565b905090565b600061057e336104c9565b6104da335b836114cc565b60006104da82611739565b61059c611807565b6105a5826118ae565b6105af82826118b7565b5050565b60006105bd611979565b5060008051602061316683398151915290565b60006105db336104c9565b6105f7335b848460405180602001604052806000815250611015565b90505b92915050565b610609336104c9565b610612816119c2565b50565b3361061e6109de565b6001600160a01b0316816001600160a01b03161461065e5760405162d1953b60e31b81526001600160a01b03821660048201526024015b60405180910390fd5b816001600160a01b03163b600003610694576040516361798f2f60e11b81526001600160a01b0383166004820152602401610655565b6105af82611ab8565b6000606080828080838160008051602061314683398151915280549091501580156106ca57506001810154155b61070e5760405162461bcd60e51b81526020600482015260156024820152741152540dcc4c8e88155b9a5b9a5d1a585b1a5e9959605a1b6044820152606401610655565b610716611b12565b61071e611bd5565b60408051600080825260208201909252600f60f81b9c939b5091995046985030975095509350915050565b610752336104c9565b600082600281111561076657610766612d29565b1180156107845750600282600281111561078257610782612d29565b105b6107c55760405162461bcd60e51b8152602060048201526012602482015271756e737570706f727465642062726964676560701b6044820152606401610655565b6000805160206131868339815191526001600160a01b0382167f55830a805815e4d506db4501e6719bc7b974e594ecdefb09d1856bf6a5d79505600085600281111561081357610813612d29565b600281111561082457610824612d29565b81526020810191909152604001600020546001600160a01b03160361084857505050565b8181600501600085600281111561086157610861612d29565b600281111561087257610872612d29565b815260200190815260200160002060006101000a8154816001600160a01b0302191690836001600160a01b031602179055507ff8a8a21419a446fca7e68faabc9cc446414eff015f0cb697bc94c9ec453efe4783836040516108d5929190612d61565b60405180910390a1505050565b600080516020613126833981519152805460009190600160a01b900460ff1661090c576000610915565b638fb3603760e01b5b91505090565b6000610926336104c9565b61092f84610cd8565b5061055a336105e0565b6000806109947f55830a805815e4d506db4501e6719bc7b974e594ecdefb09d1856bf6a5d79502547f55830a805815e4d506db4501e6719bc7b974e594ecdefb09d1856bf6a5d79503546001600160a01b0391821692911690565b915091509091565b6109a5336104c9565b61061281611c14565b60006109b9336104c9565b6109c283610cd8565b506105f733610583565b6109d5336104c9565b61061281611d15565b6000806000805160206131268339815191525b546001600160a01b031692915050565b600061056e7f55830a805815e4d506db4501e6719bc7b974e594ecdefb09d1856bf6a5d79501546001600160a01b031690565b7ff0c57e16840df040f15088dc2f81fe391c3923bec73e23a9662efc9c229c6a008054600160401b810460ff16159067ffffffffffffffff16600081158015610a7a5750825b905060008267ffffffffffffffff166001148015610a975750303b155b905081158015610aa5575080155b15610ac35760405163f92ee8a960e01b815260040160405180910390fd5b845467ffffffffffffffff191660011785558315610aed57845460ff60401b1916600160401b1785555b610af689611ddd565b610afe611dee565b610b06611dee565b610b5e6040518060400160405280601781526020017f4f736d69446973747269627574696f6e4d616e61676572000000000000000000815250604051806040016040528060018152602001603160f81b815250611df6565b610b66611dee565b610b6f88611d15565b610b78876119c2565b610b8186611c14565b8315610bc757845460ff60401b19168555604051600181527fc7f505b2f371ae2175ee4913f4499e1f2633a7b5936321eed1cdaeb6115181d29060200160405180910390a15b505050505050505050565b600080516020613126833981519152600080610c0d610bef6109de565b8730610bff600460008a8c612d87565b610c0891612db1565b611e08565b9150915081610cd05763ffffffff811615610cad57825460ff60a01b1916600160a01b178355610c3b6109de565b6001600160a01b03166394c7d7ee8787876040518463ffffffff1660e01b8152600401610c6a93929190612de9565b600060405180830381600087803b158015610c8457600080fd5b505af1158015610c98573d6000803e3d6000fd5b5050845460ff60a01b1916855550610cd09050565b60405162d1953b60e31b81526001600160a01b0387166004820152602401610655565b505050505050565b600080610ce483611f14565b905060008051602061318683398151915260007f55830a805815e4d506db4501e6719bc7b974e594ecdefb09d1856bf6a5d7950481610d296040880160208901612b28565b6001600160a01b03166001600160a01b0316815260200190815260200160002090506000856080013511610d975760405162461bcd60e51b8152602060048201526015602482015274616d6f756e742063616e6e6f74206265207a65726f60581b6044820152606401610655565b6000610da96040870160208801612b28565b6001600160a01b031603610dff5760405162461bcd60e51b815260206004820152601b60248201527f7573657220616464726573732063616e6e6f74206265207a65726f00000000006044820152606401610655565b600181015460408601359062014370610e188342612e3f565b1115610e575760405162461bcd60e51b815260206004820152600e60248201526d1d1a58dad95d08195e1c1a5c995960921b6044820152606401610655565b62014370610e658284612e3f565b1015610eac5760405162461bcd60e51b81526020600482015260166024820152753a34b1b5b2ba1034b9b9bab2b2103a37b79039b7b7b760511b6044820152606401610655565b8260020154876060013514610ee757600283015460405163131bf61b60e01b8152606089013560048201526024810191909152604401610655565b8660800135836000016000828254610eff9190612e52565b9091555050604087018035600185015560028401546000917f4e9b0e2afb2e56a47cc5c5693615261ff938bb48f9baf05077e20c8fd8d5f71a9190610f479060208c01612b28565b604080516020810194909452838101929092526001600160a01b0316606083015289013560808281019190915289013560a082015260c0810187905260e001604051602081830303815290604052805190602001209050610fa7816120c4565b60028501557fc486cbcc73b5497f564228f5833a8766da2c87c2b5669ce5838d50bdf396f074610fdd60408a0160208b01612b28565b604080516001600160a01b03909216825260808b01356020830152810185905260600160405180910390a15050905495945050505050565b60006001600160a01b03851661106d5760405162461bcd60e51b815260206004820152601a60248201527f7573657220616464726573732063616e2774206265207a65726f0000000000006044820152606401610655565b836000036110b45760405162461bcd60e51b8152602060048201526014602482015273616d6f756e742063616e2774206265207a65726f60601b6044820152606401610655565b6001600160a01b03851660009081527f55830a805815e4d506db4501e6719bc7b974e594ecdefb09d1856bf6a5d79504602052604090208054600080516020613186833981519152919086111561114557805487906111138189612e3f565b604051630c95cf2760e11b81526001600160a01b03909316600484015260248301919091526044820152606401610655565b858160000160008282546111599190612e3f565b90915550506040517f53784b3fa987ce4f3566245eefd7537f99a526db5a6213c14e1bbe9c99d37b239061119290899089908990612e65565b60405180910390a160006111af8763017d7840633b9aca006120f1565b90506111bb8188612e3f565b8354600185015460405163079cc67960e41b81526001600160a01b0391821660048201526024810185905292995016906379cc679090604401600060405180830381600087803b15801561120e57600080fd5b505af1158015611222573d6000803e3d6000fd5b5050845460018601546040516323b872dd60e01b81526001600160a01b039182166004820152306024820152604481018c9052911692506323b872dd91506064016020604051808303816000875af1158015611282573d6000803e3d6000fd5b505050506040513d601f19601f820116820180604052508101906112a69190612e99565b5060006112b287611739565b90506001600160a01b0381166112ff5760405162461bcd60e51b815260206004820152601260248201527162726964676520756e617661696c61626c6560701b6044820152606401610655565b835460405163095ea7b360e01b81526001600160a01b038381166004830152602482018b90529091169063095ea7b3906044016020604051808303816000875af1158015611351573d6000803e3d6000fd5b505050506040513d601f19601f820116820180604052508101906113759190612e99565b5085516000036113fb57806001600160a01b031663d7907a616113966114b5565b8a600060016113a48f6121b5565b6040518663ffffffff1660e01b81526004016113c4959493929190612eb4565b600060405180830381600087803b1580156113de57600080fd5b505af11580156113f2573d6000803e3d6000fd5b505050506114a8565b806001600160a01b031663d7907a616114126114b5565b8a600060018b6040518663ffffffff1660e01b8152600401611438959493929190612eb4565b600060405180830381600087803b15801561145257600080fd5b505af1158015611466573d6000803e3d6000fd5b505050507f10edc0cc0608da2f99201b0db024d7220b089c82c6e0e41793d96a9096f29f728989898960405161149f9493929190612ef6565b60405180910390a15b5050549695505050505050565b6000806000805160206131868339815191526109f1565b60006001600160a01b0383166115245760405162461bcd60e51b815260206004820152601a60248201527f7573657220616464726573732063616e2774206265207a65726f0000000000006044820152606401610655565b8160000361156b5760405162461bcd60e51b8152602060048201526014602482015273616d6f756e742063616e2774206265207a65726f60601b6044820152606401610655565b6001600160a01b03831660009081527f55830a805815e4d506db4501e6719bc7b974e594ecdefb09d1856bf6a5d7950460205260409020805460008051602061318683398151915291908411156115ca57805485906111138187612e3f565b838160000160008282546115de9190612e3f565b90915550506040517f53784b3fa987ce4f3566245eefd7537f99a526db5a6213c14e1bbe9c99d37b23906116189087908790600090612e65565b60405180910390a160006116358563017d7840633b9aca006120f1565b90506116418186612e3f565b8354600185015460405163079cc67960e41b81526001600160a01b0391821660048201526024810185905292975016906379cc679090604401600060405180830381600087803b15801561169457600080fd5b505af11580156116a8573d6000803e3d6000fd5b5050845460018601546040516323b872dd60e01b81526001600160a01b0391821660048201528a82166024820152604481018a9052911692506323b872dd91506064016020604051808303816000875af115801561170a573d6000803e3d6000fd5b505050506040513d601f19601f8201168201806040525081019061172e9190612e99565b505054949350505050565b6000600182600281111561174f5761174f612d29565b146117915760405162461bcd60e51b8152602060048201526012602482015271756e737570706f727465642062726964676560701b6044820152606401610655565b6000805160206131868339815191527f55830a805815e4d506db4501e6719bc7b974e594ecdefb09d1856bf6a5d7950560008460028111156117d5576117d5612d29565b60028111156117e6576117e6612d29565b81526020810191909152604001600020546001600160a01b03169392505050565b306001600160a01b037f000000000000000000000000000000000000000000000000000000000000000016148061188e57507f00000000000000000000000000000000000000000000000000000000000000006001600160a01b0316611882600080516020613166833981519152546001600160a01b031690565b6001600160a01b031614155b156118ac5760405163703e46dd60e11b815260040160405180910390fd5b565b610612336104c9565b816001600160a01b03166352d1902d6040518163ffffffff1660e01b8152600401602060405180830381865afa925050508015611911575060408051601f3d908101601f1916820190925261190e91810190612f36565b60015b61193957604051634c9c8ce360e01b81526001600160a01b0383166004820152602401610655565b600080516020613166833981519152811461196a57604051632a87526960e21b815260048101829052602401610655565b6119748383612287565b505050565b306001600160a01b037f000000000000000000000000000000000000000000000000000000000000000016146118ac5760405163703e46dd60e11b815260040160405180910390fd5b6001600160a01b038116611a185760405162461bcd60e51b815260206004820152601860248201527f746f6b656e20706f6f6c2063616e2774206265207a65726f00000000000000006044820152606401610655565b7f55830a805815e4d506db4501e6719bc7b974e594ecdefb09d1856bf6a5d7950154600080516020613186833981519152906001600160a01b03838116911603611a60575050565b6001810180546001600160a01b0319166001600160a01b0384169081179091556040519081527f9f8af382b6a7b3eda19b3a62f7446787fdb9101602754170dc111039081a27d6906020015b60405180910390a15050565b60008051602061312683398151915280546001600160a01b0319166001600160a01b03831690811782556040519081527f2f658b440c35314f52658ea8a740e05b284cdc84dc9ae01e891f21b8933e7cad90602001611aac565b7fa16a46d94261c7517cc8ff89f61c0ce93598e3c849801011dee649a6a557d102805460609160008051602061314683398151915291611b5190612f4f565b80601f0160208091040260200160405190810160405280929190818152602001828054611b7d90612f4f565b8015611bca5780601f10611b9f57610100808354040283529160200191611bca565b820191906000526020600020905b815481529060010190602001808311611bad57829003601f168201915b505050505091505090565b7fa16a46d94261c7517cc8ff89f61c0ce93598e3c849801011dee649a6a557d103805460609160008051602061314683398151915291611b5190612f4f565b6001600160a01b038116611c6a5760405162461bcd60e51b815260206004820152601c60248201527f7369676e657220616464726573732063616e2774206265207a65726f000000006044820152606401610655565b7f55830a805815e4d506db4501e6719bc7b974e594ecdefb09d1856bf6a5d7950254600080516020613186833981519152906001600160a01b03838116911603611cb2575050565b6002810180546003830180546001600160a01b038084166001600160a01b0319928316179092559091169084169081179091556040519081527ff25410f30b55c5bf754bde6af67a578fc1fb2e1e7fa70f582112f3c430b8e23690602001611aac565b6001600160a01b038116611d6b5760405162461bcd60e51b815260206004820152601c60248201527f746f6b656e20636f6e74726163742063616e2774206265207a65726f000000006044820152606401610655565b60008051602061318683398151915280546001600160a01b03838116911603611d92575050565b80546001600160a01b0319166001600160a01b03831690811782556040519081527fe89f98a27789c8313baa22de83cdb921b7026d66af0ee02973c97d45f952b6be90602001611aac565b611de56122dd565b61061281612326565b6118ac6122dd565b611dfe6122dd565b6105af8282612337565b6040516001600160a01b03848116602483015283811660448301526001600160e01b03198316606483015260009182918291829189169060840160408051601f198184030181529181526020820180516001600160e01b031663b700961360e01b17905251611e779190612f83565b600060405180830381855afa9150503d8060008114611eb2576040519150601f19603f3d011682016040523d82523d6000602084013e611eb7565b606091505b50915091508115611f09576040815110611ee95780806020019051810190611edf9190612f9f565b9094509250611f09565b6020815110611f095780806020019051810190611f069190612e99565b93505b505094509492505050565b6000611f2b611f266020840184612b28565b612398565b611f80611f3e6040840160208501612b28565b6001600160a01b031660009081527f5ab42ced628888259c08ac98db1eb0cf702fc1501344311d8b100cd1bfe4bb006020526040902080546001810190915590565b905060007ffd6d0e4ca6764633a51edb6c597a246a9c07dc7643b9aeb52a9864f747827cc6611fb26020850185612b28565b611fc26040860160208701612b28565b6040805160208101949094526001600160a01b03928316848201529116606083810191909152908501356080838101919091529085013560a083015284013560c082015260e08101839052610100016040516020818303038152906040528051906020012090506000612034826120c4565b9050600061205b8261204c60c0880160a08901612fdf565b8760c001358860e00135612438565b905061206a6020860186612b28565b6001600160a01b0316816001600160a01b0316146120bc57806120906020870187612b28565b604051637ba5ffb560e01b81526001600160a01b03928316600482015291166024820152604401610655565b505050919050565b60006104da6120d1612466565b8360405161190160f01b8152600281019290925260228201526042902090565b60008383028160001985870982811083820303915050806000036121285783828161211e5761211e613002565b049250505061055d565b8084116121485760405163227bc15360e01b815260040160405180910390fd5b6000848688096000868103871696879004966002600389028118808a02820302808a02820302808a02820302808a02820302808a02820302808a02909103029181900381900460010186841190950394909402919094039290920491909117919091029150509392505050565b60408051602c808252606082810190935263195d1a1f60e21b916f181899199a1a9b1b9c1cb0b131b232b360811b916f181899199a1a9b1b9c1ca0a121a222a360811b9160009160208201818036833750505060208101859052905060248101604c8201875b828211156122395760018203915085600f82161a825360041c61221b565b6028832060601c8991506028840192505b83831115612279576001830392506007600f8216111561226d5785600f83161a83535b600491821c911c61224a565b509298975050505050505050565b61229082612470565b6040516001600160a01b038316907fbc7cd75a20ee27fd9adebab32041f755214dbc6bffa90cc0225b39da2e5c2d3b90600090a28051156122d55761197482826124d5565b6105af61254b565b7ff0c57e16840df040f15088dc2f81fe391c3923bec73e23a9662efc9c229c6a0054600160401b900460ff166118ac57604051631afcd79f60e31b815260040160405180910390fd5b61232e6122dd565b61061281611ab8565b61233f6122dd565b6000805160206131468339815191527fa16a46d94261c7517cc8ff89f61c0ce93598e3c849801011dee649a6a557d1026123798482613066565b50600381016123888382613066565b5060008082556001909101555050565b7f55830a805815e4d506db4501e6719bc7b974e594ecdefb09d1856bf6a5d7950254600080516020613186833981519152906001600160a01b038381169116148015906123f5575060038101546001600160a01b03838116911614155b156105af57600281015460038201546040516316c7b6e560e11b81526001600160a01b038086166004830152928316602482015291166044820152606401610655565b60008060008061244a8888888861256a565b92509250925061245a8282612639565b50909695505050505050565b600061056e6126f2565b806001600160a01b03163b6000036124a657604051634c9c8ce360e01b81526001600160a01b0382166004820152602401610655565b60008051602061316683398151915280546001600160a01b0319166001600160a01b0392909216919091179055565b6060600080846001600160a01b0316846040516124f29190612f83565b600060405180830381855af49150503d806000811461252d576040519150601f19603f3d011682016040523d82523d6000602084013e612532565b606091505b5091509150612542858383612766565b95945050505050565b34156118ac5760405163b398979f60e01b815260040160405180910390fd5b600080807f7fffffffffffffffffffffffffffffff5d576e7357a4501ddfe92f46681b20a08411156125a5575060009150600390508261262f565b604080516000808252602082018084528a905260ff891692820192909252606081018790526080810186905260019060a0016020604051602081039080840390855afa1580156125f9573d6000803e3d6000fd5b5050604051601f1901519150506001600160a01b0381166126255750600092506001915082905061262f565b9250600091508190505b9450945094915050565b600082600381111561264d5761264d612d29565b03612656575050565b600182600381111561266a5761266a612d29565b036126885760405163f645eedf60e01b815260040160405180910390fd5b600282600381111561269c5761269c612d29565b036126bd5760405163fce698f760e01b815260048101829052602401610655565b60038260038111156126d1576126d1612d29565b036105af576040516335e2f38360e21b815260048101829052602401610655565b60007f8b73c3c69bb8fe3d512ecc4cf759cc79239f7b179b0ffacaa9a75d522b39400f61271d6127c2565b61272561282c565b60408051602081019490945283019190915260608201524660808201523060a082015260c00160405160208183030381529060405280519060200120905090565b60608261277b5761277682612870565b61055d565b815115801561279257506001600160a01b0384163b155b156127bb57604051639996b31560e01b81526001600160a01b0385166004820152602401610655565b508061055d565b6000600080516020613146833981519152816127dc611b12565b8051909150156127f457805160209091012092915050565b81548015612803579392505050565b7fc5d2460186f7233c927e7db2dcc703c0e500b653ca82273b7bfad8045d85a470935050505090565b600060008051602061314683398151915281612846611bd5565b80519091501561285e57805160209091012092915050565b60018201548015612803579392505050565b8051156128805780518082602001fd5b604051630a12f52160e11b815260040160405180910390fd5b600061010082840312156128ac57600080fd5b50919050565b600061010082840312156128c557600080fd5b6105f78383612899565b60008083601f8401126128e157600080fd5b50813567ffffffffffffffff8111156128f957600080fd5b60208301915083602082850101111561291157600080fd5b9250929050565b600080600080610140858703121561292f57600080fd5b6129398686612899565b9350610100850135925061012085013567ffffffffffffffff81111561295e57600080fd5b61296a878288016128cf565b95989497509550505050565b60008060006040848603121561298b57600080fd5b83359250602084013567ffffffffffffffff8111156129a957600080fd5b6129b5868287016128cf565b9497909650939450505050565b6000602082840312156129d457600080fd5b5035919050565b8035600381106104dd57600080fd5b6000602082840312156129fc57600080fd5b6105f7826129db565b80356001600160a01b03811681146104dd57600080fd5b634e487b7160e01b600052604160045260246000fd5b60008060408385031215612a4557600080fd5b612a4e83612a05565b9150602083013567ffffffffffffffff811115612a6a57600080fd5b8301601f81018513612a7b57600080fd5b803567ffffffffffffffff811115612a9557612a95612a1c565b604051601f8201601f19908116603f0116810167ffffffffffffffff81118282101715612ac457612ac4612a1c565b604052818152828201602001871015612adc57600080fd5b816020840160208301376000602083830101528093505050509250929050565b60008060408385031215612b0f57600080fd5b82359150612b1f602084016129db565b90509250929050565b600060208284031215612b3a57600080fd5b6105f782612a05565b60005b83811015612b5e578181015183820152602001612b46565b50506000910152565b60008151808452612b7f816020860160208601612b43565b601f01601f19169290920160200192915050565b60ff60f81b8816815260e060208201526000612bb260e0830189612b67565b8281036040840152612bc48189612b67565b606084018890526001600160a01b038716608085015260a0840186905283810360c08501528451808252602080870193509091019060005b81811015612c1a578351835260209384019390920191600101612bfc565b50909b9a5050505050505050505050565b60008060408385031215612c3e57600080fd5b612c47836129db565b9150612b1f60208401612a05565b60008060006101408486031215612c6b57600080fd5b612c758585612899565b92506101008401359150612c8c61012085016129db565b90509250925092565b6020815260006105f76020830184612b67565b6000806101208385031215612cbc57600080fd5b612cc68484612899565b94610100939093013593505050565b60008060008060808587031215612ceb57600080fd5b612cf485612a05565b9350612d0260208601612a05565b9250612d1060408601612a05565b9150612d1e60608601612a05565b905092959194509250565b634e487b7160e01b600052602160045260246000fd5b60038110612d5d57634e487b7160e01b600052602160045260246000fd5b9052565b60408101612d6f8285612d3f565b6001600160a01b039290921660209190910152919050565b60008085851115612d9757600080fd5b83861115612da457600080fd5b5050820193919092039150565b80356001600160e01b03198116906004841015612de2576001600160e01b0319600485900360031b81901b82161691505b5092915050565b6001600160a01b03841681526040602082018190528101829052818360608301376000818301606090810191909152601f909201601f1916010192915050565b634e487b7160e01b600052601160045260246000fd5b818103818111156105fa576105fa612e29565b808201808211156105fa576105fa612e29565b6001600160a01b0384168152602081018390526060810161053e6040830184612d3f565b805180151581146104dd57600080fd5b600060208284031215612eab57600080fd5b6105f782612e89565b60018060a01b038616815284602082015283604082015261ffff8316606082015260a060808201526000612eeb60a0830184612b67565b979650505050505050565b6001600160a01b038516815260208101849052612f166040820184612d3f565b608060608201526000612f2c6080830184612b67565b9695505050505050565b600060208284031215612f4857600080fd5b5051919050565b600181811c90821680612f6357607f821691505b6020821081036128ac57634e487b7160e01b600052602260045260246000fd5b60008251612f95818460208701612b43565b9190910192915050565b60008060408385031215612fb257600080fd5b612fbb83612e89565b9150602083015163ffffffff81168114612fd457600080fd5b809150509250929050565b600060208284031215612ff157600080fd5b813560ff8116811461055d57600080fd5b634e487b7160e01b600052601260045260246000fd5b601f82111561197457806000526020600020601f840160051c8101602085101561303f5750805b601f840160051c820191505b8181101561305f576000815560010161304b565b5050505050565b815167ffffffffffffffff81111561308057613080612a1c565b6130948161308e8454612f4f565b84613018565b6020601f8211600181146130c857600083156130b05750848201515b600019600385901b1c1916600184901b17845561305f565b600084815260208120601f198516915b828110156130f857878501518255602094850194600190920191016130d8565b50848210156131165786840151600019600387901b60f8161c191681555b50505050600190811b0190555056fef3177357ab46d8af007ab3fdb9af81da189e1068fefdc0073dca88a2cab40a00a16a46d94261c7517cc8ff89f61c0ce93598e3c849801011dee649a6a557d100360894a13ba1a3210667c828492db98dca3e2076cc3735a920a3ca505d382bbc55830a805815e4d506db4501e6719bc7b974e594ecdefb09d1856bf6a5d79500a2646970667358221220a7238e8c470d17616201884805fb71fad460bd7ab78d7e427c78a5eac224058464736f6c634300081c0033",
  "linkReferences": {},
  "deployedLinkReferences": {}
}