{
  "_format": "hh-sol-artifact-1",
  "contractName": "OsmiNodeFactory",
  "sourceName": "contracts/OsmiNodeFactory.sol",
  "abi": [
    {
      "inputs": [],
      "stateMutability": "nonpayable",
      "type": "constructor"
    },
    {
      "inputs": [
        {
          "internalType": "address",
          "name": "authority",
          "type": "address"
        }
      ],
      "name": "AccessManagedInvalidAuthority",
      "type": "error"
    },
    {
      "inputs": [
        {
          "internalType": "address",
          "name": "caller",
          "type": "address"
        },
        {
          "internalType": "uint32",
          "name": "delay",
          "type": "uint32"
        }
      ],
      "name": "AccessManagedRequiredDelay",
      "type": "error"
    },
    {
      "inputs": [
        {
          "internalType": "address",
          "name": "caller",
          "type": "address"
        }
      ],
      "name": "AccessManagedUnauthorized",
      "type": "error"
    },
    {
      "inputs": [
        {
          "internalType": "address",
          "name": "target",
          "type": "address"
        }
      ],
      "name": "AddressEmptyCode",
      "type": "error"
    },
    {
      "inputs": [],
      "name": "ECDSAInvalidSignature",
      "type": "error"
    },
    {
      "inputs": [
        {
          "internalType": "uint256",
          "name": "length",
          "type": "uint256"
        }
      ],
      "name": "ECDSAInvalidSignatureLength",
      "type": "error"
    },
    {
      "inputs": [
        {
          "internalType": "bytes32",
          "name": "s",
          "type": "bytes32"
        }
      ],
      "name": "ECDSAInvalidSignatureS",
      "type": "error"
    },
    {
      "inputs": [
        {
          "internalType": "address",
          "name": "implementation",
          "type": "address"
        }
      ],
      "name": "ERC1967InvalidImplementation",
      "type": "error"
    },
    {
      "inputs": [],
      "name": "ERC1967NonPayable",
      "type": "error"
    },
    {
      "inputs": [],
      "name": "FailedInnerCall",
      "type": "error"
    },
    {
      "inputs": [
        {
          "internalType": "address",
          "name": "account",
          "type": "address"
        },
        {
          "internalType": "uint256",
          "name": "currentNonce",
          "type": "uint256"
        }
      ],
      "name": "InvalidAccountNonce",
      "type": "error"
    },
    {
      "inputs": [],
      "name": "InvalidInitialization",
      "type": "error"
    },
    {
      "inputs": [],
      "name": "NotInitializing",
      "type": "error"
    },
    {
      "inputs": [
        {
          "internalType": "uint256",
          "name": "deadline",
          "type": "uint256"
        }
      ],
      "name": "OsmiExpiredSignature",
      "type": "error"
    },
    {
      "inputs": [
        {
          "internalType": "address",
          "name": "signer",
          "type": "address"
        },
        {
          "internalType": "address",
          "name": "one",
          "type": "address"
        },
        {
          "internalType": "address",
          "name": "two",
          "type": "address"
        }
      ],
      "name": "OsmiInvalidPurchaseTicketSigner",
      "type": "error"
    },
    {
      "inputs": [
        {
          "internalType": "address",
          "name": "signer",
          "type": "address"
        },
        {
          "internalType": "address",
          "name": "owner",
          "type": "address"
        }
      ],
      "name": "OsmiInvalidSigner",
      "type": "error"
    },
    {
      "inputs": [],
      "name": "UUPSUnauthorizedCallContext",
      "type": "error"
    },
    {
      "inputs": [
        {
          "internalType": "bytes32",
          "name": "slot",
          "type": "bytes32"
        }
      ],
      "name": "UUPSUnsupportedProxiableUUID",
      "type": "error"
    },
    {
      "anonymous": false,
      "inputs": [
        {
          "indexed": false,
          "internalType": "address",
          "name": "authority",
          "type": "address"
        }
      ],
      "name": "AuthorityUpdated",
      "type": "event"
    },
    {
      "anonymous": false,
      "inputs": [],
      "name": "EIP712DomainChanged",
      "type": "event"
    },
    {
      "anonymous": false,
      "inputs": [
        {
          "indexed": false,
          "internalType": "uint64",
          "name": "version",
          "type": "uint64"
        }
      ],
      "name": "Initialized",
      "type": "event"
    },
    {
      "anonymous": false,
      "inputs": [
        {
          "indexed": false,
          "internalType": "contract IOsmiNode",
          "name": "nodeContract",
          "type": "address"
        }
      ],
      "name": "NodeContractChanged",
      "type": "event"
    },
    {
      "anonymous": false,
      "inputs": [
        {
          "indexed": false,
          "internalType": "address",
          "name": "purchaseTicketSigner",
          "type": "address"
        }
      ],
      "name": "PurchaseTicketSignerChanged",
      "type": "event"
    },
    {
      "anonymous": false,
      "inputs": [
        {
          "indexed": false,
          "internalType": "contract IOsmiToken",
          "name": "tokenContract",
          "type": "address"
        }
      ],
      "name": "TokenContractChanged",
      "type": "event"
    },
    {
      "anonymous": false,
      "inputs": [
        {
          "indexed": true,
          "internalType": "address",
          "name": "implementation",
          "type": "address"
        }
      ],
      "name": "Upgraded",
      "type": "event"
    },
    {
      "inputs": [],
      "name": "UPGRADE_INTERFACE_VERSION",
      "outputs": [
        {
          "internalType": "string",
          "name": "",
          "type": "string"
        }
      ],
      "stateMutability": "view",
      "type": "function"
    },
    {
      "inputs": [],
      "name": "authority",
      "outputs": [
        {
          "internalType": "address",
          "name": "",
          "type": "address"
        }
      ],
      "stateMutability": "view",
      "type": "function"
    },
    {
      "inputs": [
        {
          "components": [
            {
              "internalType": "address",
              "name": "signer",
              "type": "address"
            },
            {
              "internalType": "address",
              "name": "customer",
              "type": "address"
            },
            {
              "internalType": "uint256",
              "name": "price",
              "type": "uint256"
            },
            {
              "internalType": "uint256",
              "name": "deadline",
              "type": "uint256"
            },
            {
              "internalType": "uint8",
              "name": "v",
              "type": "uint8"
            },
            {
              "internalType": "bytes32",
              "name": "r",
              "type": "bytes32"
            },
            {
              "internalType": "bytes32",
              "name": "s",
              "type": "bytes32"
            }
          ],
          "internalType": "struct OsmiNodeFactory.OsmiNodePurchaseTicket",
          "name": "ticket",
          "type": "tuple"
        },
        {
          "components": [
            {
              "internalType": "address",
              "name": "owner",
              "type": "address"
            },
            {
              "internalType": "address",
              "name": "spender",
              "type": "address"
            },
            {
              "internalType": "uint256",
              "name": "value",
              "type": "uint256"
            },
            {
              "internalType": "uint256",
              "name": "deadline",
              "type": "uint256"
            },
            {
              "internalType": "uint8",
              "name": "v",
              "type": "uint8"
            },
            {
              "internalType": "bytes32",
              "name": "r",
              "type": "bytes32"
            },
            {
              "internalType": "bytes32",
              "name": "s",
              "type": "bytes32"
            }
          ],
          "internalType": "struct OsmiNodeFactory.ERC20PermitAllowance",
          "name": "allowance",
          "type": "tuple"
        }
      ],
      "name": "buyOsmiNode",
      "outputs": [
        {
          "internalType": "uint256",
          "name": "",
          "type": "uint256"
        }
      ],
      "stateMutability": "nonpayable",
      "type": "function"
    },
    {
      "inputs": [],
      "name": "eip712Domain",
      "outputs": [
        {
          "internalType": "bytes1",
          "name": "fields",
          "type": "bytes1"
        },
        {
          "internalType": "string",
          "name": "name",
          "type": "string"
        },
        {
          "internalType": "string",
          "name": "version",
          "type": "string"
        },
        {
          "internalType": "uint256",
          "name": "chainId",
          "type": "uint256"
        },
        {
          "internalType": "address",
          "name": "verifyingContract",
          "type": "address"
        },
        {
          "internalType": "bytes32",
          "name": "salt",
          "type": "bytes32"
        },
        {
          "internalType": "uint256[]",
          "name": "extensions",
          "type": "uint256[]"
        }
      ],
      "stateMutability": "view",
      "type": "function"
    },
    {
      "inputs": [],
      "name": "getPurchaseTicketSigners",
      "outputs": [
        {
          "internalType": "address",
          "name": "",
          "type": "address"
        },
        {
          "internalType": "address",
          "name": "",
          "type": "address"
        }
      ],
      "stateMutability": "view",
      "type": "function"
    },
    {
      "inputs": [
        {
          "internalType": "address",
          "name": "initialAuthority",
          "type": "address"
        },
        {
          "internalType": "address",
          "name": "tokenContract",
          "type": "address"
        },
        {
          "internalType": "address",
          "name": "nodeContract",
          "type": "address"
        },
        {
          "internalType": "address",
          "name": "purchaseTicketSigner",
          "type": "address"
        }
      ],
      "name": "initialize",
      "outputs": [],
      "stateMutability": "nonpayable",
      "type": "function"
    },
    {
      "inputs": [],
      "name": "isConsumingScheduledOp",
      "outputs": [
        {
          "internalType": "bytes4",
          "name": "",
          "type": "bytes4"
        }
      ],
      "stateMutability": "view",
      "type": "function"
    },
    {
      "inputs": [
        {
          "internalType": "address",
          "name": "owner",
          "type": "address"
        }
      ],
      "name": "nonces",
      "outputs": [
        {
          "internalType": "uint256",
          "name": "",
          "type": "uint256"
        }
      ],
      "stateMutability": "view",
      "type": "function"
    },
    {
      "inputs": [],
      "name": "proxiableUUID",
      "outputs": [
        {
          "internalType": "bytes32",
          "name": "",
          "type": "bytes32"
        }
      ],
      "stateMutability": "view",
      "type": "function"
    },
    {
      "inputs": [
        {
          "internalType": "address",
          "name": "newAuthority",
          "type": "address"
        }
      ],
      "name": "setAuthority",
      "outputs": [],
      "stateMutability": "nonpayable",
      "type": "function"
    },
    {
      "inputs": [
        {
          "internalType": "address",
          "name": "nodeContract",
          "type": "address"
        }
      ],
      "name": "setNodeContract",
      "outputs": [],
      "stateMutability": "nonpayable",
      "type": "function"
    },
    {
      "inputs": [
        {
          "internalType": "address",
          "name": "purchaseTicketSigner",
          "type": "address"
        }
      ],
      "name": "setPurchaseTicketSigner",
      "outputs": [],
      "stateMutability": "nonpayable",
      "type": "function"
    },
    {
      "inputs": [
        {
          "internalType": "address",
          "name": "tokenContract",
          "type": "address"
        }
      ],
      "name": "setTokenContract",
      "outputs": [],
      "stateMutability": "nonpayable",
      "type": "function"
    },
    {
      "inputs": [
        {
          "internalType": "address",
          "name": "newImplementation",
          "type": "address"
        },
        {
          "internalType": "bytes",
          "name": "data",
          "type": "bytes"
        }
      ],
      "name": "upgradeToAndCall",
      "outputs": [],
      "stateMutability": "payable",
      "type": "function"
    }
  ],
  "bytecode": "0x60a06040523060805234801561001457600080fd5b5061001d610022565b6100d4565b7ff0c57e16840df040f15088dc2f81fe391c3923bec73e23a9662efc9c229c6a00805468010000000000000000900460ff16156100725760405163f92ee8a960e01b815260040160405180910390fd5b80546001600160401b03908116146100d15780546001600160401b0319166001600160401b0390811782556040519081527fc7f505b2f371ae2175ee4913f4499e1f2633a7b5936321eed1cdaeb6115181d29060200160405180910390a15b50565b60805161202d6100fd6000396000818161071901528181610742015261088b015261202d6000f3fe6080604052600436106100dd5760003560e01c80638fb360371161007f578063bbcd5bbe11610059578063bbcd5bbe146102d9578063bf7e214f146102f9578063f50fd92614610326578063f8c8765e1461034657600080fd5b80638fb360371461024d5780639756093b1461027b578063ad3cb1cc1461029b57600080fd5b80637a9e5e4b116100bb5780637a9e5e4b146101905780637c3ec460146101b05780637ecebe00146101d057806384b0196e1461022557600080fd5b80634f1ef286146100e257806352d1902d146100f757806355e758621461011f575b600080fd5b6100f56100f0366004611a18565b610366565b005b34801561010357600080fd5b5061010c610385565b6040519081526020015b60405180910390f35b34801561012b57600080fd5b507f0fcd9c378940f300c1be3c1a4577c232db834454ea38358b32a770dd9ba76902547f0fcd9c378940f300c1be3c1a4577c232db834454ea38358b32a770dd9ba7690354604080516001600160a01b03938416815292909116602083015201610116565b34801561019c57600080fd5b506100f56101ab366004611ae2565b6103a2565b3480156101bc57600080fd5b5061010c6101cb366004611b15565b61042a565b3480156101dc57600080fd5b5061010c6101eb366004611ae2565b6001600160a01b031660009081527f5ab42ced628888259c08ac98db1eb0cf702fc1501344311d8b100cd1bfe4bb00602052604090205490565b34801561023157600080fd5b5061023a61044c565b6040516101169796959493929190611b9b565b34801561025957600080fd5b506102626104f8565b6040516001600160e01b03199091168152602001610116565b34801561028757600080fd5b506100f5610296366004611ae2565b610531565b3480156102a757600080fd5b506102cc604051806040016040528060058152602001640352e302e360dc1b81525081565b6040516101169190611c33565b3480156102e557600080fd5b506100f56102f4366004611ae2565b610546565b34801561030557600080fd5b5061030e610558565b6040516001600160a01b039091168152602001610116565b34801561033257600080fd5b506100f5610341366004611ae2565b610574565b34801561035257600080fd5b506100f5610361366004611c46565b610586565b61036e61070e565b610377826107b5565b61038182826107be565b5050565b600061038f610880565b50600080516020611fb883398151915290565b336103ab610558565b6001600160a01b0316816001600160a01b0316146103eb5760405162d1953b60e31b81526001600160a01b03821660048201526024015b60405180910390fd5b816001600160a01b03163b600003610421576040516361798f2f60e11b81526001600160a01b03831660048201526024016103e2565b610381826108c9565b6000610439335b60003661092b565b6104438383610a31565b90505b92915050565b60006060808280808381600080516020611f98833981519152805490915015801561047957506001810154155b6104bd5760405162461bcd60e51b81526020600482015260156024820152741152540dcc4c8e88155b9a5b9a5d1a585b1a5e9959605a1b60448201526064016103e2565b6104c5610d58565b6104cd610e1b565b60408051600080825260208201909252600f60f81b9c939b5091995046985030975095509350915050565b600080516020611f78833981519152805460009190600160a01b900460ff1661052257600061052b565b638fb3603760e01b5b91505090565b61053a33610431565b61054381610e5a565b50565b61054f33610431565b61054381610f5b565b600080516020611f78833981519152546001600160a01b031690565b61057d33610431565b61054381611023565b7ff0c57e16840df040f15088dc2f81fe391c3923bec73e23a9662efc9c229c6a008054600160401b810460ff16159067ffffffffffffffff166000811580156105cc5750825b905060008267ffffffffffffffff1660011480156105e95750303b155b9050811580156105f7575080155b156106155760405163f92ee8a960e01b815260040160405180910390fd5b845467ffffffffffffffff19166001178555831561063f57845460ff60401b1916600160401b1785555b61064889611111565b610650611122565b610658611122565b6106a26040518060400160405280600f81526020016e4f736d694e6f6465466163746f727960881b815250604051806040016040528060018152602001603160f81b81525061112a565b6106ab88610f5b565b6106b487611023565b6106bd86610e5a565b831561070357845460ff60401b19168555604051600181527fc7f505b2f371ae2175ee4913f4499e1f2633a7b5936321eed1cdaeb6115181d29060200160405180910390a15b505050505050505050565b306001600160a01b037f000000000000000000000000000000000000000000000000000000000000000016148061079557507f00000000000000000000000000000000000000000000000000000000000000006001600160a01b0316610789600080516020611fb8833981519152546001600160a01b031690565b6001600160a01b031614155b156107b35760405163703e46dd60e11b815260040160405180910390fd5b565b61054333610431565b816001600160a01b03166352d1902d6040518163ffffffff1660e01b8152600401602060405180830381865afa925050508015610818575060408051601f3d908101601f1916820190925261081591810190611c9a565b60015b61084057604051634c9c8ce360e01b81526001600160a01b03831660048201526024016103e2565b600080516020611fb8833981519152811461087157604051632a87526960e21b8152600481018290526024016103e2565b61087b838361113c565b505050565b306001600160a01b037f000000000000000000000000000000000000000000000000000000000000000016146107b35760405163703e46dd60e11b815260040160405180910390fd5b600080516020611f7883398151915280546001600160a01b0319166001600160a01b03831690811782556040519081527f2f658b440c35314f52658ea8a740e05b284cdc84dc9ae01e891f21b8933e7cad906020015b60405180910390a15050565b600080516020611f78833981519152600080610966610948610558565b8730610958600460008a8c611cb3565b61096191611cdd565b611192565b9150915081610a295763ffffffff811615610a0657825460ff60a01b1916600160a01b178355610994610558565b6001600160a01b03166394c7d7ee8787876040518463ffffffff1660e01b81526004016109c393929190611d15565b600060405180830381600087803b1580156109dd57600080fd5b505af11580156109f1573d6000803e3d6000fd5b5050845460ff60a01b1916855550610a299050565b60405162d1953b60e31b81526001600160a01b03871660048201526024016103e2565b505050505050565b600030610a446040840160208501611ae2565b6001600160a01b031614610aa45760405162461bcd60e51b815260206004820152602160248201527f74686973206973206e6f742074686520616c6c6f77616e6365207370656e64656044820152603960f91b60648201526084016103e2565b600080516020611fd8833981519152610afc610ac36020860186611ae2565b610ad36040870160208801611ae2565b60408701356060880135610aed60a08a0160808b01611d55565b8960a001358a60c0013561129e565b80546001600160a01b031663d505accf610b196020860186611ae2565b610b296040870160208801611ae2565b60408701356060880135610b4360a08a0160808b01611d55565b6040516001600160e01b031960e088901b1681526001600160a01b0395861660048201529490931660248501526044840191909152606483015260ff16608482015260a086013560a482015260c086013560c482015260e401600060405180830381600087803b158015610bb657600080fd5b505af1158015610bca573d6000803e3d6000fd5b505082546001600160a01b031691506379cc67909050610bed6020860186611ae2565b604080516001600160e01b031960e085901b1681526001600160a01b0390921660048301528601356024820152604401600060405180830381600087803b158015610c3757600080fd5b505af1158015610c4b573d6000803e3d6000fd5b5050505060018101546001600160a01b03166340d097c3610c726040870160208801611ae2565b6040516001600160e01b031960e084901b1681526001600160a01b039091166004820152602401600060405180830381600087803b158015610cb357600080fd5b505af1158015610cc7573d6000803e3d6000fd5b5050505060018160010160009054906101000a90046001600160a01b03166001600160a01b031663c4e41b226040518163ffffffff1660e01b8152600401602060405180830381865afa158015610d22573d6000803e3d6000fd5b505050506040513d601f19601f82011682018060405250810190610d469190611c9a565b610d509190611d78565b949350505050565b7fa16a46d94261c7517cc8ff89f61c0ce93598e3c849801011dee649a6a557d1028054606091600080516020611f9883398151915291610d9790611d99565b80601f0160208091040260200160405190810160405280929190818152602001828054610dc390611d99565b8015610e105780601f10610de557610100808354040283529160200191610e10565b820191906000526020600020905b815481529060010190602001808311610df357829003601f168201915b505050505091505090565b7fa16a46d94261c7517cc8ff89f61c0ce93598e3c849801011dee649a6a557d1038054606091600080516020611f9883398151915291610d9790611d99565b6001600160a01b038116610eb05760405162461bcd60e51b815260206004820152601c60248201527f7369676e657220616464726573732063616e2774206265207a65726f0000000060448201526064016103e2565b7f0fcd9c378940f300c1be3c1a4577c232db834454ea38358b32a770dd9ba7690254600080516020611fd8833981519152906001600160a01b03838116911603610ef8575050565b6002810180546003830180546001600160a01b038084166001600160a01b0319928316179092559091169084169081179091556040519081527f414f73849b7d25ff8a60e2974ac66a3b58dceb2d1182008999f211b587e984439060200161091f565b6001600160a01b038116610fb15760405162461bcd60e51b815260206004820152601c60248201527f746f6b656e20636f6e74726163742063616e2774206265207a65726f0000000060448201526064016103e2565b600080516020611fd883398151915280546001600160a01b03838116911603610fd8575050565b80546001600160a01b0319166001600160a01b03831690811782556040519081527fe89f98a27789c8313baa22de83cdb921b7026d66af0ee02973c97d45f952b6be9060200161091f565b6001600160a01b0381166110795760405162461bcd60e51b815260206004820152601b60248201527f6e6f646520636f6e74726163742063616e2774206265207a65726f000000000060448201526064016103e2565b7f0fcd9c378940f300c1be3c1a4577c232db834454ea38358b32a770dd9ba7690154600080516020611fd8833981519152906001600160a01b038381169116036110c1575050565b6001810180546001600160a01b0319166001600160a01b0384169081179091556040519081527f6b19ab5e9a182b8029617eb6794c068195e987268885bd5e022dd45cf424d2b49060200161091f565b6111196113f5565b6105438161143e565b6107b36113f5565b6111326113f5565b610381828261144f565b611145826114b0565b6040516001600160a01b038316907fbc7cd75a20ee27fd9adebab32041f755214dbc6bffa90cc0225b39da2e5c2d3b90600090a280511561118a5761087b8282611515565b61038161158b565b6040516001600160a01b03848116602483015283811660448301526001600160e01b03198316606483015260009182918291829189169060840160408051601f198184030181529181526020820180516001600160e01b031663b700961360e01b179052516112019190611dcd565b600060405180830381855afa9150503d806000811461123c576040519150601f19603f3d011682016040523d82523d6000602084013e611241565b606091505b5091509150811561129357604081511061127357808060200190518101906112699190611df9565b9094509250611293565b602081511061129357808060200190518101906112909190611e39565b93505b505094509492505050565b834211156112c2576040516385adb5bf60e01b8152600481018590526024016103e2565b6112cb876115aa565b60007f22b243b9e892e4ec10765520a4aebdca1d6d1a2400618d8821204f32e2883e658888886113378b6001600160a01b031660009081527f5ab42ced628888259c08ac98db1eb0cf702fc1501344311d8b100cd1bfe4bb006020526040902080546001810190915590565b6040805160208101969096526001600160a01b0394851690860152929091166060840152608083015260a082015260c0810186905260e00160405160208183030381529060405280519060200120905060006113928261164a565b905060006113a282878787611677565b9050896001600160a01b0316816001600160a01b0316146113e95760405163702bc30560e11b81526001600160a01b0380831660048301528b1660248201526044016103e2565b50505050505050505050565b7ff0c57e16840df040f15088dc2f81fe391c3923bec73e23a9662efc9c229c6a0054600160401b900460ff166107b357604051631afcd79f60e31b815260040160405180910390fd5b6114466113f5565b610543816108c9565b6114576113f5565b600080516020611f988339815191527fa16a46d94261c7517cc8ff89f61c0ce93598e3c849801011dee649a6a557d1026114918482611ea2565b50600381016114a08382611ea2565b5060008082556001909101555050565b806001600160a01b03163b6000036114e657604051634c9c8ce360e01b81526001600160a01b03821660048201526024016103e2565b600080516020611fb883398151915280546001600160a01b0319166001600160a01b0392909216919091179055565b6060600080846001600160a01b0316846040516115329190611dcd565b600060405180830381855af49150503d806000811461156d576040519150601f19603f3d011682016040523d82523d6000602084013e611572565b606091505b50915091506115828583836116a5565b95945050505050565b34156107b35760405163b398979f60e01b815260040160405180910390fd5b7f0fcd9c378940f300c1be3c1a4577c232db834454ea38358b32a770dd9ba7690254600080516020611fd8833981519152906001600160a01b03838116911614801590611607575060038101546001600160a01b03838116911614155b156103815760028101546003820154604051634780ba1160e11b81526001600160a01b0380861660048301529283166024820152911660448201526064016103e2565b6000610446611657611704565b8360405161190160f01b8152600281019290925260228201526042902090565b60008060008061168988888888611713565b92509250925061169982826117e2565b50909695505050505050565b6060826116ba576116b58261189b565b6116fd565b81511580156116d157506001600160a01b0384163b155b156116fa57604051639996b31560e01b81526001600160a01b03851660048201526024016103e2565b50805b9392505050565b600061170e6118c4565b905090565b600080807f7fffffffffffffffffffffffffffffff5d576e7357a4501ddfe92f46681b20a084111561174e57506000915060039050826117d8565b604080516000808252602082018084528a905260ff891692820192909252606081018790526080810186905260019060a0016020604051602081039080840390855afa1580156117a2573d6000803e3d6000fd5b5050604051601f1901519150506001600160a01b0381166117ce575060009250600191508290506117d8565b9250600091508190505b9450945094915050565b60008260038111156117f6576117f6611f61565b036117ff575050565b600182600381111561181357611813611f61565b036118315760405163f645eedf60e01b815260040160405180910390fd5b600282600381111561184557611845611f61565b036118665760405163fce698f760e01b8152600481018290526024016103e2565b600382600381111561187a5761187a611f61565b03610381576040516335e2f38360e21b8152600481018290526024016103e2565b8051156118ab5780518082602001fd5b604051630a12f52160e11b815260040160405180910390fd5b60007f8b73c3c69bb8fe3d512ecc4cf759cc79239f7b179b0ffacaa9a75d522b39400f6118ef611938565b6118f76119a2565b60408051602081019490945283019190915260608201524660808201523060a082015260c00160405160208183030381529060405280519060200120905090565b6000600080516020611f9883398151915281611952610d58565b80519091501561196a57805160209091012092915050565b81548015611979579392505050565b7fc5d2460186f7233c927e7db2dcc703c0e500b653ca82273b7bfad8045d85a470935050505090565b6000600080516020611f98833981519152816119bc610e1b565b8051909150156119d457805160209091012092915050565b60018201548015611979579392505050565b80356001600160a01b03811681146119fd57600080fd5b919050565b634e487b7160e01b600052604160045260246000fd5b60008060408385031215611a2b57600080fd5b611a34836119e6565b9150602083013567ffffffffffffffff811115611a5057600080fd5b8301601f81018513611a6157600080fd5b803567ffffffffffffffff811115611a7b57611a7b611a02565b604051601f8201601f19908116603f0116810167ffffffffffffffff81118282101715611aaa57611aaa611a02565b604052818152828201602001871015611ac257600080fd5b816020840160208301376000602083830101528093505050509250929050565b600060208284031215611af457600080fd5b610443826119e6565b600060e08284031215611b0f57600080fd5b50919050565b6000806101c08385031215611b2957600080fd5b611b338484611afd565b9150611b428460e08501611afd565b90509250929050565b60005b83811015611b66578181015183820152602001611b4e565b50506000910152565b60008151808452611b87816020860160208601611b4b565b601f01601f19169290920160200192915050565b60ff60f81b8816815260e060208201526000611bba60e0830189611b6f565b8281036040840152611bcc8189611b6f565b606084018890526001600160a01b038716608085015260a0840186905283810360c08501528451808252602080870193509091019060005b81811015611c22578351835260209384019390920191600101611c04565b50909b9a5050505050505050505050565b6020815260006104436020830184611b6f565b60008060008060808587031215611c5c57600080fd5b611c65856119e6565b9350611c73602086016119e6565b9250611c81604086016119e6565b9150611c8f606086016119e6565b905092959194509250565b600060208284031215611cac57600080fd5b5051919050565b60008085851115611cc357600080fd5b83861115611cd057600080fd5b5050820193919092039150565b80356001600160e01b03198116906004841015611d0e576001600160e01b0319600485900360031b81901b82161691505b5092915050565b6001600160a01b03841681526040602082018190528101829052818360608301376000818301606090810191909152601f909201601f1916010192915050565b600060208284031215611d6757600080fd5b813560ff811681146116fd57600080fd5b8181038181111561044657634e487b7160e01b600052601160045260246000fd5b600181811c90821680611dad57607f821691505b602082108103611b0f57634e487b7160e01b600052602260045260246000fd5b60008251611ddf818460208701611b4b565b9190910192915050565b805180151581146119fd57600080fd5b60008060408385031215611e0c57600080fd5b611e1583611de9565b9150602083015163ffffffff81168114611e2e57600080fd5b809150509250929050565b600060208284031215611e4b57600080fd5b61044382611de9565b601f82111561087b57806000526020600020601f840160051c81016020851015611e7b5750805b601f840160051c820191505b81811015611e9b5760008155600101611e87565b5050505050565b815167ffffffffffffffff811115611ebc57611ebc611a02565b611ed081611eca8454611d99565b84611e54565b6020601f821160018114611f045760008315611eec5750848201515b600019600385901b1c1916600184901b178455611e9b565b600084815260208120601f198516915b82811015611f345787850151825560209485019460019092019101611f14565b5084821015611f525786840151600019600387901b60f8161c191681555b50505050600190811b01905550565b634e487b7160e01b600052602160045260246000fdfef3177357ab46d8af007ab3fdb9af81da189e1068fefdc0073dca88a2cab40a00a16a46d94261c7517cc8ff89f61c0ce93598e3c849801011dee649a6a557d100360894a13ba1a3210667c828492db98dca3e2076cc3735a920a3ca505d382bbc0fcd9c378940f300c1be3c1a4577c232db834454ea38358b32a770dd9ba76900a2646970667358221220257ba126c5fca09e7d9b949364fbaa81f272db169cf56dcdaa15c5170cde144a64736f6c634300081c0033",
  "linkReferences": {},
  "deployedLinkReferences": {}
}