{
  "_format": "hh-sol-artifact-1",
  "contractName": "OsmiDistributionManager",
  "sourceName": "contracts/OsmiDistributionManager.sol",
  "abi": [
    {
      "inputs": [],
      "stateMutability": "nonpayable",
      "type": "constructor"
    },
    {
      "inputs": [
        {
          "internalType": "address",
          "name": "authority",
          "type": "address"
        }
      ],
      "name": "AccessManagedInvalidAuthority",
      "type": "error"
    },
    {
      "inputs": [
        {
          "internalType": "address",
          "name": "caller",
          "type": "address"
        },
        {
          "internalType": "uint32",
          "name": "delay",
          "type": "uint32"
        }
      ],
      "name": "AccessManagedRequiredDelay",
      "type": "error"
    },
    {
      "inputs": [
        {
          "internalType": "address",
          "name": "caller",
          "type": "address"
        }
      ],
      "name": "AccessManagedUnauthorized",
      "type": "error"
    },
    {
      "inputs": [
        {
          "internalType": "address",
          "name": "target",
          "type": "address"
        }
      ],
      "name": "AddressEmptyCode",
      "type": "error"
    },
    {
      "inputs": [],
      "name": "ECDSAInvalidSignature",
      "type": "error"
    },
    {
      "inputs": [
        {
          "internalType": "uint256",
          "name": "length",
          "type": "uint256"
        }
      ],
      "name": "ECDSAInvalidSignatureLength",
      "type": "error"
    },
    {
      "inputs": [
        {
          "internalType": "bytes32",
          "name": "s",
          "type": "bytes32"
        }
      ],
      "name": "ECDSAInvalidSignatureS",
      "type": "error"
    },
    {
      "inputs": [
        {
          "internalType": "address",
          "name": "implementation",
          "type": "address"
        }
      ],
      "name": "ERC1967InvalidImplementation",
      "type": "error"
    },
    {
      "inputs": [],
      "name": "ERC1967NonPayable",
      "type": "error"
    },
    {
      "inputs": [],
      "name": "FailedInnerCall",
      "type": "error"
    },
    {
      "inputs": [
        {
          "internalType": "address",
          "name": "user",
          "type": "address"
        },
        {
          "internalType": "uint256",
          "name": "allowance",
          "type": "uint256"
        },
        {
          "internalType": "uint256",
          "name": "needed",
          "type": "uint256"
        }
      ],
      "name": "InsufficientAllowance",
      "type": "error"
    },
    {
      "inputs": [
        {
          "internalType": "address",
          "name": "account",
          "type": "address"
        },
        {
          "internalType": "uint256",
          "name": "currentNonce",
          "type": "uint256"
        }
      ],
      "name": "InvalidAccountNonce",
      "type": "error"
    },
    {
      "inputs": [],
      "name": "InvalidInitialization",
      "type": "error"
    },
    {
      "inputs": [
        {
          "internalType": "address",
          "name": "signer",
          "type": "address"
        },
        {
          "internalType": "address",
          "name": "owner",
          "type": "address"
        }
      ],
      "name": "InvalidSigner",
      "type": "error"
    },
    {
      "inputs": [
        {
          "internalType": "bytes32",
          "name": "expected",
          "type": "bytes32"
        },
        {
          "internalType": "bytes32",
          "name": "actual",
          "type": "bytes32"
        }
      ],
      "name": "InvalidTicketHash",
      "type": "error"
    },
    {
      "inputs": [
        {
          "internalType": "address",
          "name": "signer",
          "type": "address"
        },
        {
          "internalType": "address",
          "name": "one",
          "type": "address"
        },
        {
          "internalType": "address",
          "name": "two",
          "type": "address"
        }
      ],
      "name": "InvalidTicketSigner",
      "type": "error"
    },
    {
      "inputs": [],
      "name": "NotInitializing",
      "type": "error"
    },
    {
      "inputs": [],
      "name": "UUPSUnauthorizedCallContext",
      "type": "error"
    },
    {
      "inputs": [
        {
          "internalType": "bytes32",
          "name": "slot",
          "type": "bytes32"
        }
      ],
      "name": "UUPSUnsupportedProxiableUUID",
      "type": "error"
    },
    {
      "anonymous": false,
      "inputs": [
        {
          "indexed": false,
          "internalType": "address",
          "name": "authority",
          "type": "address"
        }
      ],
      "name": "AuthorityUpdated",
      "type": "event"
    },
    {
      "anonymous": false,
      "inputs": [
        {
          "indexed": false,
          "internalType": "enum OsmiDistributionManager.Bridge",
          "name": "bridge",
          "type": "uint8"
        },
        {
          "indexed": false,
          "internalType": "address",
          "name": "bridgeContract",
          "type": "address"
        }
      ],
      "name": "BridgeContractChanged",
      "type": "event"
    },
    {
      "anonymous": false,
      "inputs": [],
      "name": "EIP712DomainChanged",
      "type": "event"
    },
    {
      "anonymous": false,
      "inputs": [
        {
          "indexed": false,
          "internalType": "uint64",
          "name": "version",
          "type": "uint64"
        }
      ],
      "name": "Initialized",
      "type": "event"
    },
    {
      "anonymous": false,
      "inputs": [
        {
          "indexed": false,
          "internalType": "address",
          "name": "user",
          "type": "address"
        },
        {
          "indexed": false,
          "internalType": "uint256",
          "name": "amount",
          "type": "uint256"
        },
        {
          "indexed": false,
          "internalType": "uint256",
          "name": "timestamp",
          "type": "uint256"
        }
      ],
      "name": "TicketRedeemed",
      "type": "event"
    },
    {
      "anonymous": false,
      "inputs": [
        {
          "indexed": false,
          "internalType": "address",
          "name": "ticketSigner",
          "type": "address"
        }
      ],
      "name": "TicketSignerChanged",
      "type": "event"
    },
    {
      "anonymous": false,
      "inputs": [
        {
          "indexed": false,
          "internalType": "contract IOsmiToken",
          "name": "tokenContract",
          "type": "address"
        }
      ],
      "name": "TokenContractChanged",
      "type": "event"
    },
    {
      "anonymous": false,
      "inputs": [
        {
          "indexed": false,
          "internalType": "address",
          "name": "tokenPool",
          "type": "address"
        }
      ],
      "name": "TokenPoolChanged",
      "type": "event"
    },
    {
      "anonymous": false,
      "inputs": [
        {
          "indexed": false,
          "internalType": "address",
          "name": "user",
          "type": "address"
        },
        {
          "indexed": false,
          "internalType": "uint256",
          "name": "amount",
          "type": "uint256"
        },
        {
          "indexed": false,
          "internalType": "enum OsmiDistributionManager.Bridge",
          "name": "bridge",
          "type": "uint8"
        }
      ],
      "name": "TokensClaimed",
      "type": "event"
    },
    {
      "anonymous": false,
      "inputs": [
        {
          "indexed": true,
          "internalType": "address",
          "name": "implementation",
          "type": "address"
        }
      ],
      "name": "Upgraded",
      "type": "event"
    },
    {
      "inputs": [],
      "name": "UPGRADE_INTERFACE_VERSION",
      "outputs": [
        {
          "internalType": "string",
          "name": "",
          "type": "string"
        }
      ],
      "stateMutability": "view",
      "type": "function"
    },
    {
      "inputs": [],
      "name": "authority",
      "outputs": [
        {
          "internalType": "address",
          "name": "",
          "type": "address"
        }
      ],
      "stateMutability": "view",
      "type": "function"
    },
    {
      "inputs": [
        {
          "internalType": "uint256",
          "name": "amount",
          "type": "uint256"
        },
        {
          "internalType": "enum OsmiDistributionManager.Bridge",
          "name": "bridge",
          "type": "uint8"
        }
      ],
      "name": "bridgeTokens",
      "outputs": [
        {
          "internalType": "uint256",
          "name": "allowance",
          "type": "uint256"
        }
      ],
      "stateMutability": "nonpayable",
      "type": "function"
    },
    {
      "inputs": [
        {
          "internalType": "uint256",
          "name": "amount",
          "type": "uint256"
        }
      ],
      "name": "claimTokens",
      "outputs": [
        {
          "internalType": "uint256",
          "name": "allowance",
          "type": "uint256"
        }
      ],
      "stateMutability": "nonpayable",
      "type": "function"
    },
    {
      "inputs": [],
      "name": "eip712Domain",
      "outputs": [
        {
          "internalType": "bytes1",
          "name": "fields",
          "type": "bytes1"
        },
        {
          "internalType": "string",
          "name": "name",
          "type": "string"
        },
        {
          "internalType": "string",
          "name": "version",
          "type": "string"
        },
        {
          "internalType": "uint256",
          "name": "chainId",
          "type": "uint256"
        },
        {
          "internalType": "address",
          "name": "verifyingContract",
          "type": "address"
        },
        {
          "internalType": "bytes32",
          "name": "salt",
          "type": "bytes32"
        },
        {
          "internalType": "uint256[]",
          "name": "extensions",
          "type": "uint256[]"
        }
      ],
      "stateMutability": "view",
      "type": "function"
    },
    {
      "inputs": [
        {
          "internalType": "enum OsmiDistributionManager.Bridge",
          "name": "bridge",
          "type": "uint8"
        }
      ],
      "name": "getBridgeContract",
      "outputs": [
        {
          "internalType": "address",
          "name": "",
          "type": "address"
        }
      ],
      "stateMutability": "view",
      "type": "function"
    },
    {
      "inputs": [],
      "name": "getTicketSigners",
      "outputs": [
        {
          "internalType": "address",
          "name": "",
          "type": "address"
        },
        {
          "internalType": "address",
          "name": "",
          "type": "address"
        }
      ],
      "stateMutability": "view",
      "type": "function"
    },
    {
      "inputs": [],
      "name": "getTokenContract",
      "outputs": [
        {
          "internalType": "contract IOsmiToken",
          "name": "tokenContract",
          "type": "address"
        }
      ],
      "stateMutability": "view",
      "type": "function"
    },
    {
      "inputs": [],
      "name": "getTokenPool",
      "outputs": [
        {
          "internalType": "address",
          "name": "tokenPool",
          "type": "address"
        }
      ],
      "stateMutability": "view",
      "type": "function"
    },
    {
      "inputs": [
        {
          "internalType": "address",
          "name": "initialAuthority",
          "type": "address"
        },
        {
          "internalType": "address",
          "name": "tokenContract",
          "type": "address"
        },
        {
          "internalType": "address",
          "name": "tokenPool",
          "type": "address"
        },
        {
          "internalType": "address",
          "name": "ticketSigner",
          "type": "address"
        }
      ],
      "name": "initialize",
      "outputs": [],
      "stateMutability": "nonpayable",
      "type": "function"
    },
    {
      "inputs": [],
      "name": "isConsumingScheduledOp",
      "outputs": [
        {
          "internalType": "bytes4",
          "name": "",
          "type": "bytes4"
        }
      ],
      "stateMutability": "view",
      "type": "function"
    },
    {
      "inputs": [
        {
          "internalType": "address",
          "name": "owner",
          "type": "address"
        }
      ],
      "name": "nonces",
      "outputs": [
        {
          "internalType": "uint256",
          "name": "",
          "type": "uint256"
        }
      ],
      "stateMutability": "view",
      "type": "function"
    },
    {
      "inputs": [],
      "name": "proxiableUUID",
      "outputs": [
        {
          "internalType": "bytes32",
          "name": "",
          "type": "bytes32"
        }
      ],
      "stateMutability": "view",
      "type": "function"
    },
    {
      "inputs": [
        {
          "components": [
            {
              "internalType": "address",
              "name": "signer",
              "type": "address"
            },
            {
              "internalType": "address",
              "name": "user",
              "type": "address"
            },
            {
              "internalType": "uint256",
              "name": "timestamp",
              "type": "uint256"
            },
            {
              "internalType": "bytes32",
              "name": "expectedHash",
              "type": "bytes32"
            },
            {
              "internalType": "uint256",
              "name": "amount",
              "type": "uint256"
            },
            {
              "internalType": "uint8",
              "name": "v",
              "type": "uint8"
            },
            {
              "internalType": "bytes32",
              "name": "r",
              "type": "bytes32"
            },
            {
              "internalType": "bytes32",
              "name": "s",
              "type": "bytes32"
            }
          ],
          "internalType": "struct OsmiDistributionManager.Ticket",
          "name": "ticket",
          "type": "tuple"
        }
      ],
      "name": "redeem",
      "outputs": [
        {
          "internalType": "uint256",
          "name": "allowance",
          "type": "uint256"
        }
      ],
      "stateMutability": "nonpayable",
      "type": "function"
    },
    {
      "inputs": [
        {
          "components": [
            {
              "internalType": "address",
              "name": "signer",
              "type": "address"
            },
            {
              "internalType": "address",
              "name": "user",
              "type": "address"
            },
            {
              "internalType": "uint256",
              "name": "timestamp",
              "type": "uint256"
            },
            {
              "internalType": "bytes32",
              "name": "expectedHash",
              "type": "bytes32"
            },
            {
              "internalType": "uint256",
              "name": "amount",
              "type": "uint256"
            },
            {
              "internalType": "uint8",
              "name": "v",
              "type": "uint8"
            },
            {
              "internalType": "bytes32",
              "name": "r",
              "type": "bytes32"
            },
            {
              "internalType": "bytes32",
              "name": "s",
              "type": "bytes32"
            }
          ],
          "internalType": "struct OsmiDistributionManager.Ticket",
          "name": "ticket",
          "type": "tuple"
        },
        {
          "internalType": "uint256",
          "name": "amount",
          "type": "uint256"
        },
        {
          "internalType": "enum OsmiDistributionManager.Bridge",
          "name": "bridge",
          "type": "uint8"
        }
      ],
      "name": "redeemAndBridge",
      "outputs": [
        {
          "internalType": "uint256",
          "name": "allowance",
          "type": "uint256"
        }
      ],
      "stateMutability": "nonpayable",
      "type": "function"
    },
    {
      "inputs": [
        {
          "components": [
            {
              "internalType": "address",
              "name": "signer",
              "type": "address"
            },
            {
              "internalType": "address",
              "name": "user",
              "type": "address"
            },
            {
              "internalType": "uint256",
              "name": "timestamp",
              "type": "uint256"
            },
            {
              "internalType": "bytes32",
              "name": "expectedHash",
              "type": "bytes32"
            },
            {
              "internalType": "uint256",
              "name": "amount",
              "type": "uint256"
            },
            {
              "internalType": "uint8",
              "name": "v",
              "type": "uint8"
            },
            {
              "internalType": "bytes32",
              "name": "r",
              "type": "bytes32"
            },
            {
              "internalType": "bytes32",
              "name": "s",
              "type": "bytes32"
            }
          ],
          "internalType": "struct OsmiDistributionManager.Ticket",
          "name": "ticket",
          "type": "tuple"
        },
        {
          "internalType": "uint256",
          "name": "amount",
          "type": "uint256"
        }
      ],
      "name": "redeemAndClaim",
      "outputs": [
        {
          "internalType": "uint256",
          "name": "allowance",
          "type": "uint256"
        }
      ],
      "stateMutability": "nonpayable",
      "type": "function"
    },
    {
      "inputs": [
        {
          "internalType": "address",
          "name": "newAuthority",
          "type": "address"
        }
      ],
      "name": "setAuthority",
      "outputs": [],
      "stateMutability": "nonpayable",
      "type": "function"
    },
    {
      "inputs": [
        {
          "internalType": "enum OsmiDistributionManager.Bridge",
          "name": "bridge",
          "type": "uint8"
        },
        {
          "internalType": "address",
          "name": "bridgeContract",
          "type": "address"
        }
      ],
      "name": "setBridgeContract",
      "outputs": [],
      "stateMutability": "nonpayable",
      "type": "function"
    },
    {
      "inputs": [
        {
          "internalType": "address",
          "name": "signer",
          "type": "address"
        }
      ],
      "name": "setTicketSigner",
      "outputs": [],
      "stateMutability": "nonpayable",
      "type": "function"
    },
    {
      "inputs": [
        {
          "internalType": "address",
          "name": "tokenContract",
          "type": "address"
        }
      ],
      "name": "setTokenContract",
      "outputs": [],
      "stateMutability": "nonpayable",
      "type": "function"
    },
    {
      "inputs": [
        {
          "internalType": "address",
          "name": "tokenPool",
          "type": "address"
        }
      ],
      "name": "setTokenPool",
      "outputs": [],
      "stateMutability": "nonpayable",
      "type": "function"
    },
    {
      "inputs": [
        {
          "internalType": "address",
          "name": "newImplementation",
          "type": "address"
        },
        {
          "internalType": "bytes",
          "name": "data",
          "type": "bytes"
        }
      ],
      "name": "upgradeToAndCall",
      "outputs": [],
      "stateMutability": "payable",
      "type": "function"
    }
  ],
  "bytecode": "0x60a06040523060805234801561001457600080fd5b5061001d610022565b6100d4565b7ff0c57e16840df040f15088dc2f81fe391c3923bec73e23a9662efc9c229c6a00805468010000000000000000900460ff16156100725760405163f92ee8a960e01b815260040160405180910390fd5b80546001600160401b03908116146100d15780546001600160401b0319166001600160401b0390811782556040519081527fc7f505b2f371ae2175ee4913f4499e1f2633a7b5936321eed1cdaeb6115181d29060200160405180910390a15b50565b608051612c4a6100fd6000396000818161122901528181611252015261139b0152612c4a6000f3fe6080604052600436106101355760003560e01c806389255bbb116100ab578063ad3cb1cc1161006f578063ad3cb1cc146103a4578063b2f35e49146103e2578063bbcd5bbe14610402578063bf7e214f14610422578063ec55dd4214610437578063f8c8765e1461044c57600080fd5b806389255bbb146102e15780638fb3603714610301578063989e9b2f1461032f5780639c8821761461034f578063a35ff3bf1461038457600080fd5b806352d1902d116100fd57806352d1902d146101ef57806365ec1ed6146102045780637764b4d2146102245780637a9e5e4b146102445780637ecebe001461026457806384b0196e146102b957600080fd5b80630ce6f6a91461013a57806328b7bede1461016d57806346e04a2f1461019a5780634d563462146101ba5780634f1ef286146101da575b600080fd5b34801561014657600080fd5b5061015a61015536600461246a565b61046c565b6040519081526020015b60405180910390f35b34801561017957600080fd5b5061018261048c565b6040516001600160a01b039091168152602001610164565b3480156101a657600080fd5b5061015a6101b5366004612487565b61049b565b3480156101c657600080fd5b506101826101d53660046124af565b6104b1565b6101ed6101e83660046124f7565b6104bc565b005b3480156101fb57600080fd5b5061015a6104db565b34801561021057600080fd5b5061015a61021f3660046125c1565b6104f8565b34801561023057600080fd5b506101ed61023f3660046125ed565b610518565b34801561025057600080fd5b506101ed61025f3660046125ed565b61052d565b34801561027057600080fd5b5061015a61027f3660046125ed565b6001600160a01b031660009081527f5ab42ced628888259c08ac98db1eb0cf702fc1501344311d8b100cd1bfe4bb00602052604090205490565b3480156102c557600080fd5b506102ce6105b5565b6040516101649796959493929190612658565b3480156102ed57600080fd5b506101ed6102fc3660046126f0565b610661565b34801561030d57600080fd5b506103166107fa565b6040516001600160e01b03199091168152602001610164565b34801561033b57600080fd5b5061015a61034a36600461271a565b610833565b34801561035b57600080fd5b5061036461085b565b604080516001600160a01b03938416815292909116602083015201610164565b34801561039057600080fd5b506101ed61039f3660046125ed565b6108be565b3480156103b057600080fd5b506103d5604051806040016040528060058152602001640352e302e360dc1b81525081565b604051610164919061275a565b3480156103ee57600080fd5b5061015a6103fd36600461276d565b6108d0565b34801561040e57600080fd5b506101ed61041d3660046125ed565b6108ee565b34801561042e57600080fd5b50610182610900565b34801561044357600080fd5b50610182610923565b34801561045857600080fd5b506101ed61046736600461279a565b610956565b600061047b335b600036610af4565b61048482610bfa565b90505b919050565b6000610496610f27565b905090565b60006104a633610473565b610484335b83610f3e565b600061048482611150565b6104c461121e565b6104cd826112c5565b6104d782826112ce565b5050565b60006104e5611390565b50600080516020612bd583398151915290565b600061050333610473565b61050f335b84846113d9565b90505b92915050565b61052133610473565b61052a81611687565b50565b33610536610900565b6001600160a01b0316816001600160a01b0316146105765760405162d1953b60e31b81526001600160a01b03821660048201526024015b60405180910390fd5b816001600160a01b03163b6000036105ac576040516361798f2f60e11b81526001600160a01b038316600482015260240161056d565b6104d78261177d565b60006060808280808381600080516020612bb583398151915280549091501580156105e257506001810154155b6106265760405162461bcd60e51b81526020600482015260156024820152741152540dcc4c8e88155b9a5b9a5d1a585b1a5e9959605a1b604482015260640161056d565b61062e6117d7565b61063661189a565b60408051600080825260208201909252600f60f81b9c939b5091995046985030975095509350915050565b61066a33610473565b600082600281111561067e5761067e6127ee565b11801561069c5750600282600281111561069a5761069a6127ee565b105b6106dd5760405162461bcd60e51b8152602060048201526012602482015271756e737570706f727465642062726964676560701b604482015260640161056d565b600080516020612bf58339815191526001600160a01b0382167f55830a805815e4d506db4501e6719bc7b974e594ecdefb09d1856bf6a5d79505600085600281111561072b5761072b6127ee565b600281111561073c5761073c6127ee565b81526020810191909152604001600020546001600160a01b03160361076057505050565b81816005016000856002811115610779576107796127ee565b600281111561078a5761078a6127ee565b815260200190815260200160002060006101000a8154816001600160a01b0302191690836001600160a01b031602179055507ff8a8a21419a446fca7e68faabc9cc446414eff015f0cb697bc94c9ec453efe4783836040516107ed929190612826565b60405180910390a1505050565b600080516020612b95833981519152805460009190600160a01b900460ff1661082457600061082d565b638fb3603760e01b5b91505090565b600061083e33610473565b61084784610bfa565b5061085133610508565b90505b9392505050565b6000806108b67f55830a805815e4d506db4501e6719bc7b974e594ecdefb09d1856bf6a5d79502547f55830a805815e4d506db4501e6719bc7b974e594ecdefb09d1856bf6a5d79503546001600160a01b0391821692911690565b915091509091565b6108c733610473565b61052a816118d9565b60006108db33610473565b6108e483610bfa565b5061050f336104ab565b6108f733610473565b61052a816119da565b600080600080516020612b958339815191525b546001600160a01b031692915050565b60006104967f55830a805815e4d506db4501e6719bc7b974e594ecdefb09d1856bf6a5d79501546001600160a01b031690565b7ff0c57e16840df040f15088dc2f81fe391c3923bec73e23a9662efc9c229c6a008054600160401b810460ff16159067ffffffffffffffff1660008115801561099c5750825b905060008267ffffffffffffffff1660011480156109b95750303b155b9050811580156109c7575080155b156109e55760405163f92ee8a960e01b815260040160405180910390fd5b845467ffffffffffffffff191660011785558315610a0f57845460ff60401b1916600160401b1785555b610a1889611aa2565b610a20611ab3565b610a28611ab3565b610a806040518060400160405280601781526020017f4f736d69446973747269627574696f6e4d616e61676572000000000000000000815250604051806040016040528060018152602001603160f81b815250611abb565b610a88611ab3565b610a91886119da565b610a9a87611687565b610aa3866118d9565b8315610ae957845460ff60401b19168555604051600181527fc7f505b2f371ae2175ee4913f4499e1f2633a7b5936321eed1cdaeb6115181d29060200160405180910390a15b505050505050505050565b600080516020612b95833981519152600080610b2f610b11610900565b8730610b21600460008a8c61284c565b610b2a91612876565b611acd565b9150915081610bf25763ffffffff811615610bcf57825460ff60a01b1916600160a01b178355610b5d610900565b6001600160a01b03166394c7d7ee8787876040518463ffffffff1660e01b8152600401610b8c939291906128ae565b600060405180830381600087803b158015610ba657600080fd5b505af1158015610bba573d6000803e3d6000fd5b5050845460ff60a01b1916855550610bf29050565b60405162d1953b60e31b81526001600160a01b038716600482015260240161056d565b505050505050565b600080610c0683611bd9565b9050600080516020612bf583398151915260007f55830a805815e4d506db4501e6719bc7b974e594ecdefb09d1856bf6a5d7950481610c4b60408801602089016125ed565b6001600160a01b03166001600160a01b0316815260200190815260200160002090506000856080013511610cb95760405162461bcd60e51b8152602060048201526015602482015274616d6f756e742063616e6e6f74206265207a65726f60581b604482015260640161056d565b6000610ccb60408701602088016125ed565b6001600160a01b031603610d215760405162461bcd60e51b815260206004820152601b60248201527f7573657220616464726573732063616e6e6f74206265207a65726f0000000000604482015260640161056d565b600181015460408601359062014370610d3a8342612904565b1115610d795760405162461bcd60e51b815260206004820152600e60248201526d1d1a58dad95d08195e1c1a5c995960921b604482015260640161056d565b62014370610d878284612904565b1015610dce5760405162461bcd60e51b81526020600482015260166024820152753a34b1b5b2ba1034b9b9bab2b2103a37b79039b7b7b760511b604482015260640161056d565b8260020154876060013514610e0957600283015460405163131bf61b60e01b815260608901356004820152602481019190915260440161056d565b8660800135836000016000828254610e219190612917565b9091555050604087018035600185015560028401547f4e9b0e2afb2e56a47cc5c5693615261ff938bb48f9baf05077e20c8fd8d5f71a91610e659060208b016125ed565b604080516020810194909452838101929092526001600160a01b0316606083015288013560808281019190915288013560a082015260c0810186905260e00160408051601f19818403018152918152815160209283012060028601557fc486cbcc73b5497f564228f5833a8766da2c87c2b5669ce5838d50bdf396f07491610ef1918a01908a016125ed565b604080516001600160a01b03909216825260808a01356020830152810184905260600160405180910390a1505054949350505050565b600080600080516020612bf5833981519152610913565b60006001600160a01b038316610f965760405162461bcd60e51b815260206004820152601a60248201527f7573657220616464726573732063616e2774206265207a65726f000000000000604482015260640161056d565b81600003610fdd5760405162461bcd60e51b8152602060048201526014602482015273616d6f756e742063616e2774206265207a65726f60601b604482015260640161056d565b6001600160a01b03831660009081527f55830a805815e4d506db4501e6719bc7b974e594ecdefb09d1856bf6a5d79504602052604090208054600080516020612bf5833981519152919084111561106e578054859061103c8187612904565b604051630c95cf2760e11b81526001600160a01b0390931660048401526024830191909152604482015260640161056d565b815460018301546040516323b872dd60e01b81526001600160a01b0391821660048201528782166024820152604481018790529116906323b872dd906064016020604051808303816000875af11580156110cc573d6000803e3d6000fd5b505050506040513d601f19601f820116820180604052508101906110f0919061293a565b50838160000160008282546111059190612904565b90915550506040517f53784b3fa987ce4f3566245eefd7537f99a526db5a6213c14e1bbe9c99d37b239061113f9087908790600090612955565b60405180910390a154949350505050565b60006001826002811115611166576111666127ee565b146111a85760405162461bcd60e51b8152602060048201526012602482015271756e737570706f727465642062726964676560701b604482015260640161056d565b600080516020612bf58339815191527f55830a805815e4d506db4501e6719bc7b974e594ecdefb09d1856bf6a5d7950560008460028111156111ec576111ec6127ee565b60028111156111fd576111fd6127ee565b81526020810191909152604001600020546001600160a01b03169392505050565b306001600160a01b037f00000000000000000000000000000000000000000000000000000000000000001614806112a557507f00000000000000000000000000000000000000000000000000000000000000006001600160a01b0316611299600080516020612bd5833981519152546001600160a01b031690565b6001600160a01b031614155b156112c35760405163703e46dd60e11b815260040160405180910390fd5b565b61052a33610473565b816001600160a01b03166352d1902d6040518163ffffffff1660e01b8152600401602060405180830381865afa925050508015611328575060408051601f3d908101601f1916820190925261132591810190612979565b60015b61135057604051634c9c8ce360e01b81526001600160a01b038316600482015260240161056d565b600080516020612bd5833981519152811461138157604051632a87526960e21b81526004810182905260240161056d565b61138b8383611d89565b505050565b306001600160a01b037f000000000000000000000000000000000000000000000000000000000000000016146112c35760405163703e46dd60e11b815260040160405180910390fd5b60006001600160a01b0384166114315760405162461bcd60e51b815260206004820152601a60248201527f7573657220616464726573732063616e2774206265207a65726f000000000000604482015260640161056d565b826000036114785760405162461bcd60e51b8152602060048201526014602482015273616d6f756e742063616e2774206265207a65726f60601b604482015260640161056d565b6001600160a01b03841660009081527f55830a805815e4d506db4501e6719bc7b974e594ecdefb09d1856bf6a5d79504602052604090208054600080516020612bf583398151915291908511156114d7578054869061103c8188612904565b815460018301546040516323b872dd60e01b81526001600160a01b039182166004820152306024820152604481018890529116906323b872dd906064016020604051808303816000875af1158015611533573d6000803e3d6000fd5b505050506040513d601f19601f82011682018060405250810190611557919061293a565b50600061156385611150565b90506001600160a01b0381166115b05760405162461bcd60e51b815260206004820152601260248201527162726964676520756e617661696c61626c6560701b604482015260640161056d565b806001600160a01b031663d7907a616115c7610f27565b88600060016115d58d611ddf565b6040518663ffffffff1660e01b81526004016115f5959493929190612992565b600060405180830381600087803b15801561160f57600080fd5b505af1158015611623573d6000803e3d6000fd5b505050508582600001600082825461163b9190612904565b90915550506040517f53784b3fa987ce4f3566245eefd7537f99a526db5a6213c14e1bbe9c99d37b239061167490899089908990612955565b60405180910390a1505495945050505050565b6001600160a01b0381166116dd5760405162461bcd60e51b815260206004820152601860248201527f746f6b656e20706f6f6c2063616e2774206265207a65726f0000000000000000604482015260640161056d565b7f55830a805815e4d506db4501e6719bc7b974e594ecdefb09d1856bf6a5d7950154600080516020612bf5833981519152906001600160a01b03838116911603611725575050565b6001810180546001600160a01b0319166001600160a01b0384169081179091556040519081527f9f8af382b6a7b3eda19b3a62f7446787fdb9101602754170dc111039081a27d6906020015b60405180910390a15050565b600080516020612b9583398151915280546001600160a01b0319166001600160a01b03831690811782556040519081527f2f658b440c35314f52658ea8a740e05b284cdc84dc9ae01e891f21b8933e7cad90602001611771565b7fa16a46d94261c7517cc8ff89f61c0ce93598e3c849801011dee649a6a557d1028054606091600080516020612bb583398151915291611816906129d4565b80601f0160208091040260200160405190810160405280929190818152602001828054611842906129d4565b801561188f5780601f106118645761010080835404028352916020019161188f565b820191906000526020600020905b81548152906001019060200180831161187257829003601f168201915b505050505091505090565b7fa16a46d94261c7517cc8ff89f61c0ce93598e3c849801011dee649a6a557d1038054606091600080516020612bb583398151915291611816906129d4565b6001600160a01b03811661192f5760405162461bcd60e51b815260206004820152601c60248201527f7369676e657220616464726573732063616e2774206265207a65726f00000000604482015260640161056d565b7f55830a805815e4d506db4501e6719bc7b974e594ecdefb09d1856bf6a5d7950254600080516020612bf5833981519152906001600160a01b03838116911603611977575050565b6002810180546003830180546001600160a01b038084166001600160a01b0319928316179092559091169084169081179091556040519081527ff25410f30b55c5bf754bde6af67a578fc1fb2e1e7fa70f582112f3c430b8e23690602001611771565b6001600160a01b038116611a305760405162461bcd60e51b815260206004820152601c60248201527f746f6b656e20636f6e74726163742063616e2774206265207a65726f00000000604482015260640161056d565b600080516020612bf583398151915280546001600160a01b03838116911603611a57575050565b80546001600160a01b0319166001600160a01b03831690811782556040519081527fe89f98a27789c8313baa22de83cdb921b7026d66af0ee02973c97d45f952b6be90602001611771565b611aaa611e66565b61052a81611eaf565b6112c3611e66565b611ac3611e66565b6104d78282611ec0565b6040516001600160a01b03848116602483015283811660448301526001600160e01b03198316606483015260009182918291829189169060840160408051601f198184030181529181526020820180516001600160e01b031663b700961360e01b17905251611b3c9190612a08565b600060405180830381855afa9150503d8060008114611b77576040519150601f19603f3d011682016040523d82523d6000602084013e611b7c565b606091505b50915091508115611bce576040815110611bae5780806020019051810190611ba49190612a24565b9094509250611bce565b6020815110611bce5780806020019051810190611bcb919061293a565b93505b505094509492505050565b6000611bf0611beb60208401846125ed565b611f21565b611c45611c0360408401602085016125ed565b6001600160a01b031660009081527f5ab42ced628888259c08ac98db1eb0cf702fc1501344311d8b100cd1bfe4bb006020526040902080546001810190915590565b905060007ffd6d0e4ca6764633a51edb6c597a246a9c07dc7643b9aeb52a9864f747827cc6611c7760208501856125ed565b611c8760408601602087016125ed565b6040805160208101949094526001600160a01b03928316848201529116606083810191909152908501356080838101919091529085013560a083015284013560c082015260e08101839052610100016040516020818303038152906040528051906020012090506000611cf982611fc1565b90506000611d2082611d1160c0880160a08901612a64565b8760c001358860e00135611fee565b9050611d2f60208601866125ed565b6001600160a01b0316816001600160a01b031614611d815780611d5560208701876125ed565b604051637ba5ffb560e01b81526001600160a01b0392831660048201529116602482015260440161056d565b505050919050565b611d928261201e565b6040516001600160a01b038316907fbc7cd75a20ee27fd9adebab32041f755214dbc6bffa90cc0225b39da2e5c2d3b90600090a2805115611dd75761138b8282612083565b6104d76120f9565b60408051602c808252606082810190935263195d1a1f60e21b916f181899199a1a9b1b9c1cb0b131b232b360811b916000919060208201818036833750505060208101849052905060248101604c82016001600160a01b0387165b82821115611e5a5760001990910190600f811685901a825360041c611e3a565b50919695505050505050565b7ff0c57e16840df040f15088dc2f81fe391c3923bec73e23a9662efc9c229c6a0054600160401b900460ff166112c357604051631afcd79f60e31b815260040160405180910390fd5b611eb7611e66565b61052a8161177d565b611ec8611e66565b600080516020612bb58339815191527fa16a46d94261c7517cc8ff89f61c0ce93598e3c849801011dee649a6a557d102611f028482612ad5565b5060038101611f118382612ad5565b5060008082556001909101555050565b7f55830a805815e4d506db4501e6719bc7b974e594ecdefb09d1856bf6a5d7950254600080516020612bf5833981519152906001600160a01b03838116911614801590611f7e575060038101546001600160a01b03838116911614155b156104d757600281015460038201546040516316c7b6e560e11b81526001600160a01b03808616600483015292831660248201529116604482015260640161056d565b6000610484611fce612118565b8360405161190160f01b8152600281019290925260228201526042902090565b60008060008061200088888888612122565b92509250925061201082826121f1565b50909150505b949350505050565b806001600160a01b03163b60000361205457604051634c9c8ce360e01b81526001600160a01b038216600482015260240161056d565b600080516020612bd583398151915280546001600160a01b0319166001600160a01b0392909216919091179055565b6060600080846001600160a01b0316846040516120a09190612a08565b600060405180830381855af49150503d80600081146120db576040519150601f19603f3d011682016040523d82523d6000602084013e6120e0565b606091505b50915091506120f08583836122aa565b95945050505050565b34156112c35760405163b398979f60e01b815260040160405180910390fd5b6000610496612306565b600080807f7fffffffffffffffffffffffffffffff5d576e7357a4501ddfe92f46681b20a084111561215d57506000915060039050826121e7565b604080516000808252602082018084528a905260ff891692820192909252606081018790526080810186905260019060a0016020604051602081039080840390855afa1580156121b1573d6000803e3d6000fd5b5050604051601f1901519150506001600160a01b0381166121dd575060009250600191508290506121e7565b9250600091508190505b9450945094915050565b6000826003811115612205576122056127ee565b0361220e575050565b6001826003811115612222576122226127ee565b036122405760405163f645eedf60e01b815260040160405180910390fd5b6002826003811115612254576122546127ee565b036122755760405163fce698f760e01b81526004810182905260240161056d565b6003826003811115612289576122896127ee565b036104d7576040516335e2f38360e21b81526004810182905260240161056d565b6060826122bf576122ba8261237a565b610854565b81511580156122d657506001600160a01b0384163b155b156122ff57604051639996b31560e01b81526001600160a01b038516600482015260240161056d565b5080610854565b60007f8b73c3c69bb8fe3d512ecc4cf759cc79239f7b179b0ffacaa9a75d522b39400f6123316123a3565b61233961240d565b60408051602081019490945283019190915260608201524660808201523060a082015260c00160405160208183030381529060405280519060200120905090565b80511561238a5780518082602001fd5b604051630a12f52160e11b815260040160405180910390fd5b6000600080516020612bb5833981519152816123bd6117d7565b8051909150156123d557805160209091012092915050565b815480156123e4579392505050565b7fc5d2460186f7233c927e7db2dcc703c0e500b653ca82273b7bfad8045d85a470935050505090565b6000600080516020612bb58339815191528161242761189a565b80519091501561243f57805160209091012092915050565b600182015480156123e4579392505050565b6000610100828403121561246457600080fd5b50919050565b6000610100828403121561247d57600080fd5b61050f8383612451565b60006020828403121561249957600080fd5b5035919050565b80356003811061048757600080fd5b6000602082840312156124c157600080fd5b61050f826124a0565b80356001600160a01b038116811461048757600080fd5b634e487b7160e01b600052604160045260246000fd5b6000806040838503121561250a57600080fd5b612513836124ca565b9150602083013567ffffffffffffffff81111561252f57600080fd5b8301601f8101851361254057600080fd5b803567ffffffffffffffff81111561255a5761255a6124e1565b604051601f8201601f19908116603f0116810167ffffffffffffffff81118282101715612589576125896124e1565b6040528181528282016020018710156125a157600080fd5b816020840160208301376000602083830101528093505050509250929050565b600080604083850312156125d457600080fd5b823591506125e4602084016124a0565b90509250929050565b6000602082840312156125ff57600080fd5b61050f826124ca565b60005b8381101561262357818101518382015260200161260b565b50506000910152565b60008151808452612644816020860160208601612608565b601f01601f19169290920160200192915050565b60ff60f81b8816815260e06020820152600061267760e083018961262c565b8281036040840152612689818961262c565b606084018890526001600160a01b038716608085015260a0840186905283810360c08501528451808252602080870193509091019060005b818110156126df5783518352602093840193909201916001016126c1565b50909b9a5050505050505050505050565b6000806040838503121561270357600080fd5b61270c836124a0565b91506125e4602084016124ca565b6000806000610140848603121561273057600080fd5b61273a8585612451565b9250610100840135915061275161012085016124a0565b90509250925092565b60208152600061050f602083018461262c565b600080610120838503121561278157600080fd5b61278b8484612451565b94610100939093013593505050565b600080600080608085870312156127b057600080fd5b6127b9856124ca565b93506127c7602086016124ca565b92506127d5604086016124ca565b91506127e3606086016124ca565b905092959194509250565b634e487b7160e01b600052602160045260246000fd5b6003811061282257634e487b7160e01b600052602160045260246000fd5b9052565b604081016128348285612804565b6001600160a01b039290921660209190910152919050565b6000808585111561285c57600080fd5b8386111561286957600080fd5b5050820193919092039150565b80356001600160e01b031981169060048410156128a7576001600160e01b0319600485900360031b81901b82161691505b5092915050565b6001600160a01b03841681526040602082018190528101829052818360608301376000818301606090810191909152601f909201601f1916010192915050565b634e487b7160e01b600052601160045260246000fd5b81810381811115610512576105126128ee565b80820180821115610512576105126128ee565b8051801515811461048757600080fd5b60006020828403121561294c57600080fd5b61050f8261292a565b6001600160a01b038416815260208101839052606081016120166040830184612804565b60006020828403121561298b57600080fd5b5051919050565b60018060a01b038616815284602082015283604082015261ffff8316606082015260a0608082015260006129c960a083018461262c565b979650505050505050565b600181811c908216806129e857607f821691505b60208210810361246457634e487b7160e01b600052602260045260246000fd5b60008251612a1a818460208701612608565b9190910192915050565b60008060408385031215612a3757600080fd5b612a408361292a565b9150602083015163ffffffff81168114612a5957600080fd5b809150509250929050565b600060208284031215612a7657600080fd5b813560ff8116811461085457600080fd5b601f82111561138b57806000526020600020601f840160051c81016020851015612aae5750805b601f840160051c820191505b81811015612ace5760008155600101612aba565b5050505050565b815167ffffffffffffffff811115612aef57612aef6124e1565b612b0381612afd84546129d4565b84612a87565b6020601f821160018114612b375760008315612b1f5750848201515b600019600385901b1c1916600184901b178455612ace565b600084815260208120601f198516915b82811015612b675787850151825560209485019460019092019101612b47565b5084821015612b855786840151600019600387901b60f8161c191681555b50505050600190811b0190555056fef3177357ab46d8af007ab3fdb9af81da189e1068fefdc0073dca88a2cab40a00a16a46d94261c7517cc8ff89f61c0ce93598e3c849801011dee649a6a557d100360894a13ba1a3210667c828492db98dca3e2076cc3735a920a3ca505d382bbc55830a805815e4d506db4501e6719bc7b974e594ecdefb09d1856bf6a5d79500a26469706673582212206f0ac75c9dc31b2b79fae26be39bb3fb521db260e10955207cb0aa3e1868f65464736f6c634300081c0033",
  "linkReferences": {},
  "deployedLinkReferences": {}
}