{
  "_format": "hh-sol-artifact-1",
  "contractName": "OsmiStaking",
  "sourceName": "contracts/OsmiStaking.sol",
  "abi": [
    {
      "inputs": [],
      "stateMutability": "nonpayable",
      "type": "constructor"
    },
    {
      "inputs": [],
      "name": "APYOutOfRange",
      "type": "error"
    },
    {
      "inputs": [
        {
          "internalType": "address",
          "name": "authority",
          "type": "address"
        }
      ],
      "name": "AccessManagedInvalidAuthority",
      "type": "error"
    },
    {
      "inputs": [
        {
          "internalType": "address",
          "name": "caller",
          "type": "address"
        },
        {
          "internalType": "uint32",
          "name": "delay",
          "type": "uint32"
        }
      ],
      "name": "AccessManagedRequiredDelay",
      "type": "error"
    },
    {
      "inputs": [
        {
          "internalType": "address",
          "name": "caller",
          "type": "address"
        }
      ],
      "name": "AccessManagedUnauthorized",
      "type": "error"
    },
    {
      "inputs": [
        {
          "internalType": "address",
          "name": "target",
          "type": "address"
        }
      ],
      "name": "AddressEmptyCode",
      "type": "error"
    },
    {
      "inputs": [],
      "name": "ECDSAInvalidSignature",
      "type": "error"
    },
    {
      "inputs": [
        {
          "internalType": "uint256",
          "name": "length",
          "type": "uint256"
        }
      ],
      "name": "ECDSAInvalidSignatureLength",
      "type": "error"
    },
    {
      "inputs": [
        {
          "internalType": "bytes32",
          "name": "s",
          "type": "bytes32"
        }
      ],
      "name": "ECDSAInvalidSignatureS",
      "type": "error"
    },
    {
      "inputs": [
        {
          "internalType": "address",
          "name": "implementation",
          "type": "address"
        }
      ],
      "name": "ERC1967InvalidImplementation",
      "type": "error"
    },
    {
      "inputs": [],
      "name": "ERC1967NonPayable",
      "type": "error"
    },
    {
      "inputs": [],
      "name": "FailedInnerCall",
      "type": "error"
    },
    {
      "inputs": [],
      "name": "InsufficientBalance",
      "type": "error"
    },
    {
      "inputs": [
        {
          "internalType": "address",
          "name": "account",
          "type": "address"
        },
        {
          "internalType": "uint256",
          "name": "currentNonce",
          "type": "uint256"
        }
      ],
      "name": "InvalidAccountNonce",
      "type": "error"
    },
    {
      "inputs": [],
      "name": "InvalidInitialization",
      "type": "error"
    },
    {
      "inputs": [],
      "name": "InvalidTicketSigner",
      "type": "error"
    },
    {
      "inputs": [],
      "name": "MathOverflowedMulDiv",
      "type": "error"
    },
    {
      "inputs": [],
      "name": "NotInitializing",
      "type": "error"
    },
    {
      "inputs": [],
      "name": "UUPSUnauthorizedCallContext",
      "type": "error"
    },
    {
      "inputs": [
        {
          "internalType": "bytes32",
          "name": "slot",
          "type": "bytes32"
        }
      ],
      "name": "UUPSUnsupportedProxiableUUID",
      "type": "error"
    },
    {
      "inputs": [],
      "name": "Uncancelable",
      "type": "error"
    },
    {
      "inputs": [],
      "name": "WithdrawalAlreadyInProgress",
      "type": "error"
    },
    {
      "inputs": [],
      "name": "WrongTicketOwner",
      "type": "error"
    },
    {
      "inputs": [],
      "name": "ZeroAddressNotAllowed",
      "type": "error"
    },
    {
      "inputs": [],
      "name": "ZeroAmountNotAllowed",
      "type": "error"
    },
    {
      "anonymous": false,
      "inputs": [
        {
          "indexed": false,
          "internalType": "uint256",
          "name": "apy",
          "type": "uint256"
        }
      ],
      "name": "APYChanged",
      "type": "event"
    },
    {
      "anonymous": false,
      "inputs": [
        {
          "indexed": false,
          "internalType": "address",
          "name": "authority",
          "type": "address"
        }
      ],
      "name": "AuthorityUpdated",
      "type": "event"
    },
    {
      "anonymous": false,
      "inputs": [
        {
          "indexed": false,
          "internalType": "address",
          "name": "user",
          "type": "address"
        },
        {
          "indexed": false,
          "internalType": "bool",
          "name": "value",
          "type": "bool"
        }
      ],
      "name": "AutoStakeChanged",
      "type": "event"
    },
    {
      "anonymous": false,
      "inputs": [
        {
          "indexed": false,
          "internalType": "contract IOsmiConfig",
          "name": "configContract",
          "type": "address"
        }
      ],
      "name": "ConfigContractChanged",
      "type": "event"
    },
    {
      "anonymous": false,
      "inputs": [],
      "name": "EIP712DomainChanged",
      "type": "event"
    },
    {
      "anonymous": false,
      "inputs": [
        {
          "indexed": false,
          "internalType": "uint64",
          "name": "version",
          "type": "uint64"
        }
      ],
      "name": "Initialized",
      "type": "event"
    },
    {
      "anonymous": false,
      "inputs": [
        {
          "indexed": false,
          "internalType": "address",
          "name": "user",
          "type": "address"
        },
        {
          "indexed": false,
          "internalType": "uint256",
          "name": "value",
          "type": "uint256"
        }
      ],
      "name": "StreakStartTimeChanged",
      "type": "event"
    },
    {
      "anonymous": false,
      "inputs": [
        {
          "indexed": false,
          "internalType": "address",
          "name": "ticketSigner",
          "type": "address"
        }
      ],
      "name": "TicketSignerChanged",
      "type": "event"
    },
    {
      "anonymous": false,
      "inputs": [
        {
          "indexed": false,
          "internalType": "address",
          "name": "from",
          "type": "address"
        },
        {
          "indexed": false,
          "internalType": "address",
          "name": "to",
          "type": "address"
        },
        {
          "indexed": false,
          "internalType": "uint256",
          "name": "amount",
          "type": "uint256"
        }
      ],
      "name": "TokensDeposited",
      "type": "event"
    },
    {
      "anonymous": false,
      "inputs": [
        {
          "indexed": true,
          "internalType": "address",
          "name": "implementation",
          "type": "address"
        }
      ],
      "name": "Upgraded",
      "type": "event"
    },
    {
      "anonymous": false,
      "inputs": [
        {
          "indexed": false,
          "internalType": "address",
          "name": "user",
          "type": "address"
        },
        {
          "indexed": false,
          "internalType": "uint256",
          "name": "availableAt",
          "type": "uint256"
        },
        {
          "indexed": false,
          "internalType": "uint256",
          "name": "amount",
          "type": "uint256"
        }
      ],
      "name": "WithdrawalCanceled",
      "type": "event"
    },
    {
      "anonymous": false,
      "inputs": [
        {
          "indexed": false,
          "internalType": "address",
          "name": "user",
          "type": "address"
        },
        {
          "indexed": false,
          "internalType": "uint256",
          "name": "timestamp",
          "type": "uint256"
        },
        {
          "indexed": false,
          "internalType": "uint256",
          "name": "availableAt",
          "type": "uint256"
        },
        {
          "indexed": false,
          "internalType": "uint256",
          "name": "amount",
          "type": "uint256"
        }
      ],
      "name": "WithdrawalStarted",
      "type": "event"
    },
    {
      "inputs": [],
      "name": "UPGRADE_INTERFACE_VERSION",
      "outputs": [
        {
          "internalType": "string",
          "name": "",
          "type": "string"
        }
      ],
      "stateMutability": "view",
      "type": "function"
    },
    {
      "inputs": [],
      "name": "authority",
      "outputs": [
        {
          "internalType": "address",
          "name": "",
          "type": "address"
        }
      ],
      "stateMutability": "view",
      "type": "function"
    },
    {
      "inputs": [],
      "name": "cancelWithdrawal",
      "outputs": [],
      "stateMutability": "nonpayable",
      "type": "function"
    },
    {
      "inputs": [],
      "name": "eip712Domain",
      "outputs": [
        {
          "internalType": "bytes1",
          "name": "fields",
          "type": "bytes1"
        },
        {
          "internalType": "string",
          "name": "name",
          "type": "string"
        },
        {
          "internalType": "string",
          "name": "version",
          "type": "string"
        },
        {
          "internalType": "uint256",
          "name": "chainId",
          "type": "uint256"
        },
        {
          "internalType": "address",
          "name": "verifyingContract",
          "type": "address"
        },
        {
          "internalType": "bytes32",
          "name": "salt",
          "type": "bytes32"
        },
        {
          "internalType": "uint256[]",
          "name": "extensions",
          "type": "uint256[]"
        }
      ],
      "stateMutability": "view",
      "type": "function"
    },
    {
      "inputs": [],
      "name": "getAPY",
      "outputs": [
        {
          "internalType": "uint256",
          "name": "",
          "type": "uint256"
        }
      ],
      "stateMutability": "view",
      "type": "function"
    },
    {
      "inputs": [],
      "name": "getAutoStake",
      "outputs": [
        {
          "internalType": "bool",
          "name": "",
          "type": "bool"
        }
      ],
      "stateMutability": "view",
      "type": "function"
    },
    {
      "inputs": [
        {
          "internalType": "address",
          "name": "user",
          "type": "address"
        }
      ],
      "name": "getAutoStakeFor",
      "outputs": [
        {
          "internalType": "bool",
          "name": "",
          "type": "bool"
        }
      ],
      "stateMutability": "view",
      "type": "function"
    },
    {
      "inputs": [],
      "name": "getConfigContract",
      "outputs": [
        {
          "internalType": "contract IOsmiConfig",
          "name": "",
          "type": "address"
        }
      ],
      "stateMutability": "view",
      "type": "function"
    },
    {
      "inputs": [],
      "name": "getTicketSigners",
      "outputs": [
        {
          "internalType": "address",
          "name": "",
          "type": "address"
        },
        {
          "internalType": "address",
          "name": "",
          "type": "address"
        }
      ],
      "stateMutability": "view",
      "type": "function"
    },
    {
      "inputs": [
        {
          "internalType": "address",
          "name": "initialAuthority",
          "type": "address"
        },
        {
          "internalType": "contract IOsmiConfig",
          "name": "configContract",
          "type": "address"
        },
        {
          "internalType": "address",
          "name": "ticketSigner",
          "type": "address"
        }
      ],
      "name": "initialize",
      "outputs": [],
      "stateMutability": "nonpayable",
      "type": "function"
    },
    {
      "inputs": [],
      "name": "isConsumingScheduledOp",
      "outputs": [
        {
          "internalType": "bytes4",
          "name": "",
          "type": "bytes4"
        }
      ],
      "stateMutability": "view",
      "type": "function"
    },
    {
      "inputs": [
        {
          "internalType": "address",
          "name": "owner",
          "type": "address"
        }
      ],
      "name": "nonces",
      "outputs": [
        {
          "internalType": "uint256",
          "name": "",
          "type": "uint256"
        }
      ],
      "stateMutability": "view",
      "type": "function"
    },
    {
      "inputs": [],
      "name": "proxiableUUID",
      "outputs": [
        {
          "internalType": "bytes32",
          "name": "",
          "type": "bytes32"
        }
      ],
      "stateMutability": "view",
      "type": "function"
    },
    {
      "inputs": [
        {
          "internalType": "uint256",
          "name": "v",
          "type": "uint256"
        }
      ],
      "name": "setAPY",
      "outputs": [],
      "stateMutability": "nonpayable",
      "type": "function"
    },
    {
      "inputs": [
        {
          "internalType": "address",
          "name": "newAuthority",
          "type": "address"
        }
      ],
      "name": "setAuthority",
      "outputs": [],
      "stateMutability": "nonpayable",
      "type": "function"
    },
    {
      "inputs": [
        {
          "internalType": "bool",
          "name": "v",
          "type": "bool"
        }
      ],
      "name": "setAutoStake",
      "outputs": [],
      "stateMutability": "nonpayable",
      "type": "function"
    },
    {
      "inputs": [
        {
          "internalType": "address",
          "name": "user",
          "type": "address"
        },
        {
          "internalType": "bool",
          "name": "v",
          "type": "bool"
        }
      ],
      "name": "setAutoStakeFor",
      "outputs": [],
      "stateMutability": "nonpayable",
      "type": "function"
    },
    {
      "inputs": [
        {
          "internalType": "contract IOsmiConfig",
          "name": "v",
          "type": "address"
        }
      ],
      "name": "setConfigContract",
      "outputs": [],
      "stateMutability": "nonpayable",
      "type": "function"
    },
    {
      "inputs": [
        {
          "internalType": "address",
          "name": "signer",
          "type": "address"
        }
      ],
      "name": "setTicketSigner",
      "outputs": [],
      "stateMutability": "nonpayable",
      "type": "function"
    },
    {
      "inputs": [
        {
          "internalType": "address",
          "name": "user",
          "type": "address"
        },
        {
          "internalType": "uint256",
          "name": "amount",
          "type": "uint256"
        }
      ],
      "name": "stakeFor",
      "outputs": [],
      "stateMutability": "nonpayable",
      "type": "function"
    },
    {
      "inputs": [
        {
          "internalType": "address",
          "name": "newImplementation",
          "type": "address"
        },
        {
          "internalType": "bytes",
          "name": "data",
          "type": "bytes"
        }
      ],
      "name": "upgradeToAndCall",
      "outputs": [],
      "stateMutability": "payable",
      "type": "function"
    },
    {
      "inputs": [
        {
          "components": [
            {
              "internalType": "address",
              "name": "user",
              "type": "address"
            },
            {
              "internalType": "uint256",
              "name": "timestamp",
              "type": "uint256"
            },
            {
              "internalType": "uint256",
              "name": "balance",
              "type": "uint256"
            },
            {
              "internalType": "uint8",
              "name": "v",
              "type": "uint8"
            },
            {
              "internalType": "bytes32",
              "name": "r",
              "type": "bytes32"
            },
            {
              "internalType": "bytes32",
              "name": "s",
              "type": "bytes32"
            }
          ],
          "internalType": "struct OsmiStaking.Ticket",
          "name": "ticket",
          "type": "tuple"
        },
        {
          "internalType": "uint256",
          "name": "amount",
          "type": "uint256"
        },
        {
          "internalType": "bool",
          "name": "fast",
          "type": "bool"
        }
      ],
      "name": "withdraw",
      "outputs": [],
      "stateMutability": "nonpayable",
      "type": "function"
    }
  ],
  "bytecode": "0x60a06040523060805234801561001457600080fd5b5061001d610022565b6100d4565b7ff0c57e16840df040f15088dc2f81fe391c3923bec73e23a9662efc9c229c6a00805468010000000000000000900460ff16156100725760405163f92ee8a960e01b815260040160405180910390fd5b80546001600160401b03908116146100d15780546001600160401b0319166001600160401b0390811782556040519081527fc7f505b2f371ae2175ee4913f4499e1f2633a7b5936321eed1cdaeb6115181d29060200160405180910390a15b50565b608051612a456100fd60003960008181610f1701528181610f4001526110820152612a456000f3fe6080604052600436106101355760003560e01c80637ecebe00116100ab578063ad3cb1cc1161006f578063ad3cb1cc1461039e578063bf7e214f146103dc578063c06ede4f146103f1578063c0c53b8b14610411578063d2cbf7ad14610431578063de7b8ffe1461044657600080fd5b80637ecebe001461029e57806384b0196e146102f35780638fb360371461031b5780639c88217614610349578063a35ff3bf1461037e57600080fd5b806324f45e67116100fd57806324f45e67146101e85780632ee40908146102085780634f1ef2861461022857806352d1902d1461023b57806361edd6cf1461025e5780637a9e5e4b1461027e57600080fd5b80630bc6b21d1461013a5780630e1c3a4a1461015c57806311a5ac481461018e5780631d212c96146101b357806322611280146101d3575b600080fd5b34801561014657600080fd5b5061015a610155366004612319565b610466565b005b34801561016857600080fd5b50610171610481565b6040516001600160a01b0390911681526020015b60405180910390f35b34801561019a57600080fd5b506101a3610490565b6040519015158152602001610185565b3480156101bf57600080fd5b5061015a6101ce366004612352565b61049b565b3480156101df57600080fd5b5061015a6104b1565b3480156101f457600080fd5b5061015a61020336600461236f565b6104c5565b34801561021457600080fd5b5061015a610223366004612388565b6104d7565b61015a6102363660046123ca565b6104eb565b34801561024757600080fd5b50610250610506565b604051908152602001610185565b34801561026a57600080fd5b506101a3610279366004612496565b610523565b34801561028a57600080fd5b5061015a610299366004612496565b610534565b3480156102aa57600080fd5b506102506102b9366004612496565b6001600160a01b031660009081527f5ab42ced628888259c08ac98db1eb0cf702fc1501344311d8b100cd1bfe4bb00602052604090205490565b3480156102ff57600080fd5b506103086105bc565b6040516101859796959493929190612503565b34801561032757600080fd5b50610330610668565b6040516001600160e01b03199091168152602001610185565b34801561035557600080fd5b5061035e6106a1565b604080516001600160a01b03938416815292909116602083015201610185565b34801561038a57600080fd5b5061015a610399366004612496565b610704565b3480156103aa57600080fd5b506103cf604051806040016040528060058152602001640352e302e360dc1b81525081565b604051610185919061259b565b3480156103e857600080fd5b50610171610716565b3480156103fd57600080fd5b5061015a61040c3660046125ae565b610739565b34801561041d57600080fd5b5061015a61042c3660046125f7565b610753565b34801561043d57600080fd5b506102506108db565b34801561045257600080fd5b5061015a610461366004612496565b610905565b610473335b600036610917565b61047d8282610a1d565b5050565b600061048b610ac9565b905090565b600061048b33610ae0565b6104a43361046b565b6104ae3382610a1d565b50565b6104ba3361046b565b6104c333610b0e565b565b6104ce3361046b565b6104ae81610ca3565b6104e03361046b565b61047d338383610d4d565b6104f3610f0c565b6104fc82610fb1565b61047d8282610fba565b6000610510611077565b506000805160206129f083398151915290565b600061052e82610ae0565b92915050565b3361053d610716565b6001600160a01b0316816001600160a01b03161461057d5760405162d1953b60e31b81526001600160a01b03821660048201526024015b60405180910390fd5b816001600160a01b03163b6000036105b3576040516361798f2f60e11b81526001600160a01b0383166004820152602401610574565b61047d826110c0565b600060608082808083816000805160206129b083398151915280549091501580156105e957506001810154155b61062d5760405162461bcd60e51b81526020600482015260156024820152741152540dcc4c8e88155b9a5b9a5d1a585b1a5e9959605a1b6044820152606401610574565b61063561111a565b61063d6111dd565b60408051600080825260208201909252600f60f81b9c939b5091995046985030975095509350915050565b600080516020612970833981519152805460009190600160a01b900460ff1661069257600061069b565b638fb3603760e01b5b91505090565b6000806106fc7fa3c4f2f291c8b2e507af98f0821c9deaec9b9fc659bd5466e3124818ea083601547fa3c4f2f291c8b2e507af98f0821c9deaec9b9fc659bd5466e3124818ea083602546001600160a01b0391821692911690565b915091509091565b61070d3361046b565b6104ae8161121c565b6000806000805160206129708339815191525b546001600160a01b031692915050565b6107423361046b565b61074e8333848461131d565b505050565b7ff0c57e16840df040f15088dc2f81fe391c3923bec73e23a9662efc9c229c6a008054600160401b810460ff16159067ffffffffffffffff166000811580156107995750825b905060008267ffffffffffffffff1660011480156107b65750303b155b9050811580156107c4575080155b156107e25760405163f92ee8a960e01b815260040160405180910390fd5b845467ffffffffffffffff19166001178555831561080c57845460ff60401b1916600160401b1785555b61081588611772565b61081d611783565b6108636040518060400160405280600b81526020016a4f736d695374616b696e6760a81b815250604051806040016040528060018152602001603160f81b81525061178b565b61086b611783565b6108748761179d565b61087d8661121c565b61088a6309896800610ca3565b83156108d157845460ff60401b19168555604051600181527fc7f505b2f371ae2175ee4913f4499e1f2633a7b5936321eed1cdaeb6115181d2906020015b60405180910390a15b5050505050505050565b600061048b7fa3c4f2f291c8b2e507af98f0821c9deaec9b9fc659bd5466e3124818ea0836035490565b61090e3361046b565b6104ae8161179d565b600080516020612970833981519152600080610952610934610716565b8730610944600460008a8c612637565b61094d91612661565b61180f565b9150915081610a155763ffffffff8116156109f257825460ff60a01b1916600160a01b178355610980610716565b6001600160a01b03166394c7d7ee8787876040518463ffffffff1660e01b81526004016109af93929190612699565b600060405180830381600087803b1580156109c957600080fd5b505af11580156109dd573d6000803e3d6000fd5b5050845460ff60a01b1916855550610a159050565b60405162d1953b60e31b81526001600160a01b0387166004820152602401610574565b505050505050565b6001600160a01b03821660009081526000805160206129d083398151915260205260409020805460008051602061299083398151915291906001908116148315158114610ac257604080516001600160a01b038716815285151560208201527fc2c5b51760cdcc9fa9f62294acb39de5174a60208e7f212db33057244dbd4286910160405180910390a18315610ab95781546001178255610ac2565b81546001191682555b5050505050565b600080600080516020612990833981519152610729565b6001600160a01b031660009081526000805160206129d0833981519152602052604090205460019081161490565b6001600160a01b03811660009081526000805160206129d08339815191526020526040812060028101546000805160206129908339815191529203610b5257505050565b8060030154600003610b77576040516307a1cab560e11b815260040160405180910390fd5b80600201544210610b9b5760405163446f38c360e11b815260040160405180910390fd5b6000610ba561191b565b90506000610bb1611998565b90506000610bbd6119f1565b60028501546003860154604080516001600160a01b038b16815260208101939093528201529091507faa2fb342f317d8a167b825426470e8d601acab426e76f95ab6b89570157124df9060600160405180910390a160038401546040516323b872dd60e01b81526001600160a01b038516916323b872dd91610c469185918791906004016126d9565b6020604051808303816000875af1158015610c65573d6000803e3d6000fd5b505050506040513d601f19601f82011682018060405250810190610c8991906126fd565b505060006002840181905560039093019290925550505050565b801580610cb35750633b9aca0081115b15610cd1576040516302fa196b60e61b815260040160405180910390fd5b7fa3c4f2f291c8b2e507af98f0821c9deaec9b9fc659bd5466e3124818ea0836035460008051602061299083398151915290829003610d0e575050565b600381018290556040518281527ffe0dc6926c703f5cea6a6a7bee3d6bede2f43f0df28a572f2e5cdd1d7ba9e560906020015b60405180910390a15050565b6000805160206129908339815191526000610d6661191b565b90506000610d72611998565b6040516323b872dd60e01b81529091506001600160a01b038316906323b872dd90610da5908990859089906004016126d9565b6020604051808303816000875af1158015610dc4573d6000803e3d6000fd5b505050506040513d601f19601f82011682018060405250810190610de891906126fd565b506001600160a01b03851660009081526004840160205260409081902090517fcbc4a4091b012bb1329c38bbbb15455f5cac5aa3673da0a7f38cd61a4f49551790610e38908990899089906126d9565b60405180910390a18060010154600003610f03576000610e56611a4a565b9050806001600160a01b0316634dc3a3906040518163ffffffff1660e01b81526004016020604051808303816000875af1158015610e98573d6000803e3d6000fd5b505050506040513d601f19601f82011682018060405250810190610ebc919061271a565b60018301819055604080516001600160a01b038a16815260208101929092527f93c13f86dacebb85b9b0460be5d4b2fea6153d4c79dec9d419fce2ca6cc3499891016108c8565b50505050505050565b306001600160a01b037f0000000000000000000000000000000000000000000000000000000000000000161480610f9357507f00000000000000000000000000000000000000000000000000000000000000006001600160a01b0316610f876000805160206129f0833981519152546001600160a01b031690565b6001600160a01b031614155b156104c35760405163703e46dd60e11b815260040160405180910390fd5b6104ae3361046b565b816001600160a01b03166352d1902d6040518163ffffffff1660e01b8152600401602060405180830381865afa925050508015611014575060408051601f3d908101601f191682019092526110119181019061271a565b60015b61103c57604051634c9c8ce360e01b81526001600160a01b0383166004820152602401610574565b6000805160206129f0833981519152811461106d57604051632a87526960e21b815260048101829052602401610574565b61074e8383611aa3565b306001600160a01b037f000000000000000000000000000000000000000000000000000000000000000016146104c35760405163703e46dd60e11b815260040160405180910390fd5b60008051602061297083398151915280546001600160a01b0319166001600160a01b03831690811782556040519081527f2f658b440c35314f52658ea8a740e05b284cdc84dc9ae01e891f21b8933e7cad90602001610d41565b7fa16a46d94261c7517cc8ff89f61c0ce93598e3c849801011dee649a6a557d10280546060916000805160206129b08339815191529161115990612733565b80601f016020809104026020016040519081016040528092919081815260200182805461118590612733565b80156111d25780601f106111a7576101008083540402835291602001916111d2565b820191906000526020600020905b8154815290600101906020018083116111b557829003601f168201915b505050505091505090565b7fa16a46d94261c7517cc8ff89f61c0ce93598e3c849801011dee649a6a557d10380546060916000805160206129b08339815191529161115990612733565b6001600160a01b0381166112725760405162461bcd60e51b815260206004820152601c60248201527f7369676e657220616464726573732063616e2774206265207a65726f000000006044820152606401610574565b7fa3c4f2f291c8b2e507af98f0821c9deaec9b9fc659bd5466e3124818ea08360154600080516020612990833981519152906001600160a01b038381169116036112ba575050565b6001810180546002830180546001600160a01b038084166001600160a01b0319928316179092559091169084169081179091556040519081527ff25410f30b55c5bf754bde6af67a578fc1fb2e1e7fa70f582112f3c430b8e23690602001610d41565b6001600160a01b038316611344576040516342bcdf7f60e11b815260040160405180910390fd5b81600003611365576040516307a1cab560e11b815260040160405180910390fd5b6001600160a01b03831661137c6020860186612496565b6001600160a01b0316146113a357604051632442148960e21b815260040160405180910390fd5b83604001358211156113c857604051631e9acf1760e31b815260040160405180910390fd5b6113d184611af9565b506001600160a01b03831660009081526000805160206129d0833981519152602052604090206002810154600080516020612990833981519152919042101561142d57604051632a290aa960e01b815260040160405180910390fd5b600061143761191b565b90506000611443611a4a565b9050600061144f611998565b9050600061145b6119f1565b90506000836001600160a01b0316634dc3a3906040518163ffffffff1660e01b81526004016020604051808303816000875af115801561149f573d6000803e3d6000fd5b505050506040513d601f19601f820116820180604052508101906114c3919061271a565b90508a6040013589036114dc57600060018701556114e4565b600186018190555b6001860154604080516001600160a01b038d16815260208101929092527f93c13f86dacebb85b9b0460be5d4b2fea6153d4c79dec9d419fce2ca6cc34998910160405180910390a187156116135760006115478a6305f5e100633b9aca00611c14565b9050611553818b612783565b995080156115be5760405163079cc67960e41b81526001600160a01b038581166004830152602482018390528716906379cc679090604401600060405180830381600087803b1580156115a557600080fd5b505af11580156115b9573d6000803e3d6000fd5b505050505b604080516001600160a01b038d168152426020820181905281830152606081018c905290517f4c1b0b7346be2a5d3e5eb7730bb557b16d09379168384d3243b6b2ecc207f9f09181900360800190a15061167e565b600386018990556116276212750082612796565b60028701819055604080516001600160a01b038d16815242602082015280820192909252606082018b9052517f4c1b0b7346be2a5d3e5eb7730bb557b16d09379168384d3243b6b2ecc207f9f09181900360800190a15b6040516323b872dd60e01b81526001600160a01b038616906323b872dd906116ae90869086908e906004016126d9565b6020604051808303816000875af11580156116cd573d6000803e3d6000fd5b505050506040513d601f19601f820116820180604052508101906116f191906126fd565b50871561176557611700611cd9565b60405163b74d705d60e01b81526001600160a01b038c81166004830152602482018c9052919091169063b74d705d90604401600060405180830381600087803b15801561174c57600080fd5b505af1158015611760573d6000803e3d6000fd5b505050505b5050505050505050505050565b61177a611d32565b6104ae81611d7b565b6104c3611d32565b611793611d32565b61047d8282611d8c565b60008051602061299083398151915280546001600160a01b038381169116036117c4575050565b80546001600160a01b0319166001600160a01b03831690811782556040519081527fea68eebc69e6cf7ca402dbd8bbf63e2a5d6fcc0ab964fb9cbe0b2660c364875d90602001610d41565b6040516001600160a01b03848116602483015283811660448301526001600160e01b03198316606483015260009182918291829189169060840160408051601f198184030181529181526020820180516001600160e01b031663b700961360e01b1790525161187e91906127a9565b600060405180830381855afa9150503d80600081146118b9576040519150601f19603f3d011682016040523d82523d6000602084013e6118be565b606091505b509150915081156119105760408151106118f057808060200190518101906118e691906127c5565b9094509250611910565b6020815110611910578080602001905181019061190d91906126fd565b93505b505094509492505050565b60008051602061299083398151915280546040805163145bdf6f60e11b81529051600093926001600160a01b0316916328b7bede9160048083019260209291908290030181865afa158015611974573d6000803e3d6000fd5b505050506040513d601f19601f8201168201806040525081019061069b91906127fd565b60008051602061299083398151915280546040805163116518cd60e21b81529051600093926001600160a01b03169163459463349160048083019260209291908290030181865afa158015611974573d6000803e3d6000fd5b600080516020612990833981519152805460408051635af1954560e11b81529051600093926001600160a01b03169163b5e32a8a9160048083019260209291908290030181865afa158015611974573d6000803e3d6000fd5b6000805160206129908339815191528054604080516358d6b7d760e01b81529051600093926001600160a01b0316916358d6b7d79160048083019260209291908290030181865afa158015611974573d6000803e3d6000fd5b611aac82611ded565b6040516001600160a01b038316907fbc7cd75a20ee27fd9adebab32041f755214dbc6bffa90cc0225b39da2e5c2d3b90600090a2805115611af15761074e8282611e52565b61047d611ec8565b6000611b4d611b0b6020840184612496565b6001600160a01b031660009081527f5ab42ced628888259c08ac98db1eb0cf702fc1501344311d8b100cd1bfe4bb006020526040902080546001810190915590565b905060007f99c25295d1bb3e46817480e46cfc7a25c83390d727f9229b492f9e53189ff9ef611b7f6020850185612496565b604080516020818101949094526001600160a01b039092168282015291850135606082015290840135608082015260a0810183905260c0016040516020818303038152906040528051906020012090506000611bda82611ee7565b90506000611c0182611bf2608088016060890161281a565b87608001358860a00135611f14565b9050611c0c81611f42565b505050919050565b6000838302816000198587098281108382030391505080600003611c4b57838281611c4157611c4161283d565b0492505050611cd2565b808411611c6b5760405163227bc15360e01b815260040160405180910390fd5b6000848688096000868103871696879004966002600389028118808a02820302808a02820302808a02820302808a02820302808a02820302808a02909103029181900381900460010186841190950394909402919094039290920491909117919091029150505b9392505050565b600080516020612990833981519152805460408051633bceda1160e01b81529051600093926001600160a01b031691633bceda119160048083019260209291908290030181865afa158015611974573d6000803e3d6000fd5b7ff0c57e16840df040f15088dc2f81fe391c3923bec73e23a9662efc9c229c6a0054600160401b900460ff166104c357604051631afcd79f60e31b815260040160405180910390fd5b611d83611d32565b6104ae816110c0565b611d94611d32565b6000805160206129b08339815191527fa16a46d94261c7517cc8ff89f61c0ce93598e3c849801011dee649a6a557d102611dce848261289a565b5060038101611ddd838261289a565b5060008082556001909101555050565b806001600160a01b03163b600003611e2357604051634c9c8ce360e01b81526001600160a01b0382166004820152602401610574565b6000805160206129f083398151915280546001600160a01b0319166001600160a01b0392909216919091179055565b6060600080846001600160a01b031684604051611e6f91906127a9565b600060405180830381855af49150503d8060008114611eaa576040519150601f19603f3d011682016040523d82523d6000602084013e611eaf565b606091505b5091509150611ebf858383611fbd565b95945050505050565b34156104c35760405163b398979f60e01b815260040160405180910390fd5b600061052e611ef4612019565b8360405161190160f01b8152600281019290925260228201526042902090565b600080600080611f2688888888612023565b925092509250611f3682826120f2565b50909695505050505050565b7fa3c4f2f291c8b2e507af98f0821c9deaec9b9fc659bd5466e3124818ea08360154600080516020612990833981519152906001600160a01b03838116911614801590611f9f575060028101546001600160a01b03838116911614155b1561047d57604051631773e24d60e01b815260040160405180910390fd5b606082611fd257611fcd826121ab565b611cd2565b8151158015611fe957506001600160a01b0384163b155b1561201257604051639996b31560e01b81526001600160a01b0385166004820152602401610574565b5080611cd2565b600061048b6121d4565b600080807f7fffffffffffffffffffffffffffffff5d576e7357a4501ddfe92f46681b20a084111561205e57506000915060039050826120e8565b604080516000808252602082018084528a905260ff891692820192909252606081018790526080810186905260019060a0016020604051602081039080840390855afa1580156120b2573d6000803e3d6000fd5b5050604051601f1901519150506001600160a01b0381166120de575060009250600191508290506120e8565b9250600091508190505b9450945094915050565b600082600381111561210657612106612959565b0361210f575050565b600182600381111561212357612123612959565b036121415760405163f645eedf60e01b815260040160405180910390fd5b600282600381111561215557612155612959565b036121765760405163fce698f760e01b815260048101829052602401610574565b600382600381111561218a5761218a612959565b0361047d576040516335e2f38360e21b815260048101829052602401610574565b8051156121bb5780518082602001fd5b604051630a12f52160e11b815260040160405180910390fd5b60007f8b73c3c69bb8fe3d512ecc4cf759cc79239f7b179b0ffacaa9a75d522b39400f6121ff612248565b6122076122b2565b60408051602081019490945283019190915260608201524660808201523060a082015260c00160405160208183030381529060405280519060200120905090565b60006000805160206129b08339815191528161226261111a565b80519091501561227a57805160209091012092915050565b81548015612289579392505050565b7fc5d2460186f7233c927e7db2dcc703c0e500b653ca82273b7bfad8045d85a470935050505090565b60006000805160206129b0833981519152816122cc6111dd565b8051909150156122e457805160209091012092915050565b60018201548015612289579392505050565b6001600160a01b03811681146104ae57600080fd5b80151581146104ae57600080fd5b6000806040838503121561232c57600080fd5b8235612337816122f6565b915060208301356123478161230b565b809150509250929050565b60006020828403121561236457600080fd5b8135611cd28161230b565b60006020828403121561238157600080fd5b5035919050565b6000806040838503121561239b57600080fd5b82356123a6816122f6565b946020939093013593505050565b634e487b7160e01b600052604160045260246000fd5b600080604083850312156123dd57600080fd5b82356123e8816122f6565b9150602083013567ffffffffffffffff81111561240457600080fd5b8301601f8101851361241557600080fd5b803567ffffffffffffffff81111561242f5761242f6123b4565b604051601f8201601f19908116603f0116810167ffffffffffffffff8111828210171561245e5761245e6123b4565b60405281815282820160200187101561247657600080fd5b816020840160208301376000602083830101528093505050509250929050565b6000602082840312156124a857600080fd5b8135611cd2816122f6565b60005b838110156124ce5781810151838201526020016124b6565b50506000910152565b600081518084526124ef8160208601602086016124b3565b601f01601f19169290920160200192915050565b60ff60f81b8816815260e06020820152600061252260e08301896124d7565b828103604084015261253481896124d7565b606084018890526001600160a01b038716608085015260a0840186905283810360c08501528451808252602080870193509091019060005b8181101561258a57835183526020938401939092019160010161256c565b50909b9a5050505050505050505050565b602081526000611cd260208301846124d7565b60008060008385036101008112156125c557600080fd5b60c08112156125d357600080fd5b5083925060c0830135915060e08301356125ec8161230b565b809150509250925092565b60008060006060848603121561260c57600080fd5b8335612617816122f6565b92506020840135612627816122f6565b915060408401356125ec816122f6565b6000808585111561264757600080fd5b8386111561265457600080fd5b5050820193919092039150565b80356001600160e01b03198116906004841015612692576001600160e01b0319600485900360031b81901b82161691505b5092915050565b6001600160a01b03841681526040602082018190528101829052818360608301376000818301606090810191909152601f909201601f1916010192915050565b6001600160a01b039384168152919092166020820152604081019190915260600190565b60006020828403121561270f57600080fd5b8151611cd28161230b565b60006020828403121561272c57600080fd5b5051919050565b600181811c9082168061274757607f821691505b60208210810361276757634e487b7160e01b600052602260045260246000fd5b50919050565b634e487b7160e01b600052601160045260246000fd5b8181038181111561052e5761052e61276d565b8082018082111561052e5761052e61276d565b600082516127bb8184602087016124b3565b9190910192915050565b600080604083850312156127d857600080fd5b82516127e38161230b565b602084015190925063ffffffff8116811461234757600080fd5b60006020828403121561280f57600080fd5b8151611cd2816122f6565b60006020828403121561282c57600080fd5b813560ff81168114611cd257600080fd5b634e487b7160e01b600052601260045260246000fd5b601f82111561074e57806000526020600020601f840160051c8101602085101561287a5750805b601f840160051c820191505b81811015610ac25760008155600101612886565b815167ffffffffffffffff8111156128b4576128b46123b4565b6128c8816128c28454612733565b84612853565b6020601f8211600181146128fc57600083156128e45750848201515b600019600385901b1c1916600184901b178455610ac2565b600084815260208120601f198516915b8281101561292c578785015182556020948501946001909201910161290c565b508482101561294a5786840151600019600387901b60f8161c191681555b50505050600190811b01905550565b634e487b7160e01b600052602160045260246000fdfef3177357ab46d8af007ab3fdb9af81da189e1068fefdc0073dca88a2cab40a00a3c4f2f291c8b2e507af98f0821c9deaec9b9fc659bd5466e3124818ea083600a16a46d94261c7517cc8ff89f61c0ce93598e3c849801011dee649a6a557d100a3c4f2f291c8b2e507af98f0821c9deaec9b9fc659bd5466e3124818ea083604360894a13ba1a3210667c828492db98dca3e2076cc3735a920a3ca505d382bbca26469706673582212207236b14e24b0f3c62ff22b4eee781f3b25c6c3b72557d0dcfd0eadbe23b3bc2a64736f6c634300081c0033",
  "linkReferences": {},
  "deployedLinkReferences": {}
}