{
  "_format": "hh-sol-artifact-1",
  "contractName": "OsmiDailyDistribution",
  "sourceName": "contracts/OsmiDailyDistribution.sol",
  "abi": [
    {
      "inputs": [],
      "stateMutability": "nonpayable",
      "type": "constructor"
    },
    {
      "inputs": [
        {
          "internalType": "address",
          "name": "authority",
          "type": "address"
        }
      ],
      "name": "AccessManagedInvalidAuthority",
      "type": "error"
    },
    {
      "inputs": [
        {
          "internalType": "address",
          "name": "caller",
          "type": "address"
        },
        {
          "internalType": "uint32",
          "name": "delay",
          "type": "uint32"
        }
      ],
      "name": "AccessManagedRequiredDelay",
      "type": "error"
    },
    {
      "inputs": [
        {
          "internalType": "address",
          "name": "caller",
          "type": "address"
        }
      ],
      "name": "AccessManagedUnauthorized",
      "type": "error"
    },
    {
      "inputs": [
        {
          "internalType": "address",
          "name": "target",
          "type": "address"
        }
      ],
      "name": "AddressEmptyCode",
      "type": "error"
    },
    {
      "inputs": [
        {
          "internalType": "uint256",
          "name": "until",
          "type": "uint256"
        }
      ],
      "name": "DistributionOnCooldown",
      "type": "error"
    },
    {
      "inputs": [
        {
          "internalType": "address",
          "name": "implementation",
          "type": "address"
        }
      ],
      "name": "ERC1967InvalidImplementation",
      "type": "error"
    },
    {
      "inputs": [],
      "name": "ERC1967NonPayable",
      "type": "error"
    },
    {
      "inputs": [],
      "name": "FailedInnerCall",
      "type": "error"
    },
    {
      "inputs": [],
      "name": "InvalidEmissionNumerator",
      "type": "error"
    },
    {
      "inputs": [],
      "name": "InvalidInitialization",
      "type": "error"
    },
    {
      "inputs": [],
      "name": "MathOverflowedMulDiv",
      "type": "error"
    },
    {
      "inputs": [
        {
          "internalType": "uint256",
          "name": "expected",
          "type": "uint256"
        },
        {
          "internalType": "uint256",
          "name": "actual",
          "type": "uint256"
        }
      ],
      "name": "MintDiscrepancy",
      "type": "error"
    },
    {
      "inputs": [],
      "name": "NotInitializing",
      "type": "error"
    },
    {
      "inputs": [],
      "name": "UUPSUnauthorizedCallContext",
      "type": "error"
    },
    {
      "inputs": [
        {
          "internalType": "bytes32",
          "name": "slot",
          "type": "bytes32"
        }
      ],
      "name": "UUPSUnsupportedProxiableUUID",
      "type": "error"
    },
    {
      "anonymous": false,
      "inputs": [
        {
          "indexed": false,
          "internalType": "address",
          "name": "authority",
          "type": "address"
        }
      ],
      "name": "AuthorityUpdated",
      "type": "event"
    },
    {
      "anonymous": false,
      "inputs": [
        {
          "indexed": false,
          "internalType": "uint256",
          "name": "timestamp",
          "type": "uint256"
        },
        {
          "indexed": false,
          "internalType": "uint256",
          "name": "minted",
          "type": "uint256"
        },
        {
          "indexed": false,
          "internalType": "uint256",
          "name": "totalSupply",
          "type": "uint256"
        },
        {
          "indexed": false,
          "internalType": "uint256",
          "name": "cap",
          "type": "uint256"
        }
      ],
      "name": "DailyDistribution",
      "type": "event"
    },
    {
      "anonymous": false,
      "inputs": [
        {
          "indexed": false,
          "internalType": "uint256",
          "name": "value",
          "type": "uint256"
        }
      ],
      "name": "DailyEmissionNumeratorChanged",
      "type": "event"
    },
    {
      "anonymous": false,
      "inputs": [
        {
          "indexed": false,
          "internalType": "uint64",
          "name": "version",
          "type": "uint64"
        }
      ],
      "name": "Initialized",
      "type": "event"
    },
    {
      "anonymous": false,
      "inputs": [
        {
          "indexed": false,
          "internalType": "address",
          "name": "to",
          "type": "address"
        },
        {
          "indexed": false,
          "internalType": "uint256",
          "name": "numerator",
          "type": "uint256"
        }
      ],
      "name": "NodeRewardsChanged",
      "type": "event"
    },
    {
      "anonymous": false,
      "inputs": [
        {
          "indexed": false,
          "internalType": "address",
          "name": "to",
          "type": "address"
        },
        {
          "indexed": false,
          "internalType": "uint256",
          "name": "numerator",
          "type": "uint256"
        }
      ],
      "name": "ProjectDevelopmentFundChanged",
      "type": "event"
    },
    {
      "anonymous": false,
      "inputs": [
        {
          "indexed": false,
          "internalType": "address",
          "name": "to",
          "type": "address"
        },
        {
          "indexed": false,
          "internalType": "uint256",
          "name": "numerator",
          "type": "uint256"
        }
      ],
      "name": "ReferralProgramChanged",
      "type": "event"
    },
    {
      "anonymous": false,
      "inputs": [
        {
          "indexed": false,
          "internalType": "address",
          "name": "to",
          "type": "address"
        },
        {
          "indexed": false,
          "internalType": "uint256",
          "name": "numerator",
          "type": "uint256"
        }
      ],
      "name": "StakingAndCommunityInitiativesChanged",
      "type": "event"
    },
    {
      "anonymous": false,
      "inputs": [
        {
          "indexed": false,
          "internalType": "contract IOsmiToken",
          "name": "tokenContract",
          "type": "address"
        }
      ],
      "name": "TokenContractChanged",
      "type": "event"
    },
    {
      "anonymous": false,
      "inputs": [
        {
          "indexed": true,
          "internalType": "address",
          "name": "implementation",
          "type": "address"
        }
      ],
      "name": "Upgraded",
      "type": "event"
    },
    {
      "inputs": [],
      "name": "UPGRADE_INTERFACE_VERSION",
      "outputs": [
        {
          "internalType": "string",
          "name": "",
          "type": "string"
        }
      ],
      "stateMutability": "view",
      "type": "function"
    },
    {
      "inputs": [],
      "name": "authority",
      "outputs": [
        {
          "internalType": "address",
          "name": "",
          "type": "address"
        }
      ],
      "stateMutability": "view",
      "type": "function"
    },
    {
      "inputs": [
        {
          "internalType": "uint256",
          "name": "dailyEmissionNumerator",
          "type": "uint256"
        },
        {
          "components": [
            {
              "components": [
                {
                  "internalType": "address",
                  "name": "to",
                  "type": "address"
                },
                {
                  "internalType": "uint256",
                  "name": "numerator",
                  "type": "uint256"
                }
              ],
              "internalType": "struct OsmiDailyDistribution.Pool",
              "name": "nodeRewards",
              "type": "tuple"
            },
            {
              "components": [
                {
                  "internalType": "address",
                  "name": "to",
                  "type": "address"
                },
                {
                  "internalType": "uint256",
                  "name": "numerator",
                  "type": "uint256"
                }
              ],
              "internalType": "struct OsmiDailyDistribution.Pool",
              "name": "projectDevelopmentFund",
              "type": "tuple"
            },
            {
              "components": [
                {
                  "internalType": "address",
                  "name": "to",
                  "type": "address"
                },
                {
                  "internalType": "uint256",
                  "name": "numerator",
                  "type": "uint256"
                }
              ],
              "internalType": "struct OsmiDailyDistribution.Pool",
              "name": "stakingAndCommunityInitiatives",
              "type": "tuple"
            },
            {
              "components": [
                {
                  "internalType": "address",
                  "name": "to",
                  "type": "address"
                },
                {
                  "internalType": "uint256",
                  "name": "numerator",
                  "type": "uint256"
                }
              ],
              "internalType": "struct OsmiDailyDistribution.Pool",
              "name": "referralProgram",
              "type": "tuple"
            }
          ],
          "internalType": "struct OsmiDailyDistribution.Pools",
          "name": "pools",
          "type": "tuple"
        }
      ],
      "name": "configureDistribution",
      "outputs": [],
      "stateMutability": "nonpayable",
      "type": "function"
    },
    {
      "inputs": [],
      "name": "doDailyDistribution",
      "outputs": [],
      "stateMutability": "nonpayable",
      "type": "function"
    },
    {
      "inputs": [],
      "name": "getPools",
      "outputs": [
        {
          "components": [
            {
              "components": [
                {
                  "internalType": "address",
                  "name": "to",
                  "type": "address"
                },
                {
                  "internalType": "uint256",
                  "name": "numerator",
                  "type": "uint256"
                }
              ],
              "internalType": "struct OsmiDailyDistribution.Pool",
              "name": "nodeRewards",
              "type": "tuple"
            },
            {
              "components": [
                {
                  "internalType": "address",
                  "name": "to",
                  "type": "address"
                },
                {
                  "internalType": "uint256",
                  "name": "numerator",
                  "type": "uint256"
                }
              ],
              "internalType": "struct OsmiDailyDistribution.Pool",
              "name": "projectDevelopmentFund",
              "type": "tuple"
            },
            {
              "components": [
                {
                  "internalType": "address",
                  "name": "to",
                  "type": "address"
                },
                {
                  "internalType": "uint256",
                  "name": "numerator",
                  "type": "uint256"
                }
              ],
              "internalType": "struct OsmiDailyDistribution.Pool",
              "name": "stakingAndCommunityInitiatives",
              "type": "tuple"
            },
            {
              "components": [
                {
                  "internalType": "address",
                  "name": "to",
                  "type": "address"
                },
                {
                  "internalType": "uint256",
                  "name": "numerator",
                  "type": "uint256"
                }
              ],
              "internalType": "struct OsmiDailyDistribution.Pool",
              "name": "referralProgram",
              "type": "tuple"
            }
          ],
          "internalType": "struct OsmiDailyDistribution.Pools",
          "name": "",
          "type": "tuple"
        }
      ],
      "stateMutability": "view",
      "type": "function"
    },
    {
      "inputs": [
        {
          "internalType": "address",
          "name": "initialAuthority",
          "type": "address"
        },
        {
          "internalType": "address",
          "name": "tokenContract",
          "type": "address"
        },
        {
          "internalType": "uint256",
          "name": "dailyEmissionNumerator",
          "type": "uint256"
        },
        {
          "components": [
            {
              "components": [
                {
                  "internalType": "address",
                  "name": "to",
                  "type": "address"
                },
                {
                  "internalType": "uint256",
                  "name": "numerator",
                  "type": "uint256"
                }
              ],
              "internalType": "struct OsmiDailyDistribution.Pool",
              "name": "nodeRewards",
              "type": "tuple"
            },
            {
              "components": [
                {
                  "internalType": "address",
                  "name": "to",
                  "type": "address"
                },
                {
                  "internalType": "uint256",
                  "name": "numerator",
                  "type": "uint256"
                }
              ],
              "internalType": "struct OsmiDailyDistribution.Pool",
              "name": "projectDevelopmentFund",
              "type": "tuple"
            },
            {
              "components": [
                {
                  "internalType": "address",
                  "name": "to",
                  "type": "address"
                },
                {
                  "internalType": "uint256",
                  "name": "numerator",
                  "type": "uint256"
                }
              ],
              "internalType": "struct OsmiDailyDistribution.Pool",
              "name": "stakingAndCommunityInitiatives",
              "type": "tuple"
            },
            {
              "components": [
                {
                  "internalType": "address",
                  "name": "to",
                  "type": "address"
                },
                {
                  "internalType": "uint256",
                  "name": "numerator",
                  "type": "uint256"
                }
              ],
              "internalType": "struct OsmiDailyDistribution.Pool",
              "name": "referralProgram",
              "type": "tuple"
            }
          ],
          "internalType": "struct OsmiDailyDistribution.Pools",
          "name": "pools",
          "type": "tuple"
        }
      ],
      "name": "initialize",
      "outputs": [],
      "stateMutability": "nonpayable",
      "type": "function"
    },
    {
      "inputs": [],
      "name": "isConsumingScheduledOp",
      "outputs": [
        {
          "internalType": "bytes4",
          "name": "",
          "type": "bytes4"
        }
      ],
      "stateMutability": "view",
      "type": "function"
    },
    {
      "inputs": [],
      "name": "proxiableUUID",
      "outputs": [
        {
          "internalType": "bytes32",
          "name": "",
          "type": "bytes32"
        }
      ],
      "stateMutability": "view",
      "type": "function"
    },
    {
      "inputs": [
        {
          "internalType": "address",
          "name": "newAuthority",
          "type": "address"
        }
      ],
      "name": "setAuthority",
      "outputs": [],
      "stateMutability": "nonpayable",
      "type": "function"
    },
    {
      "inputs": [
        {
          "internalType": "address",
          "name": "tokenContract",
          "type": "address"
        }
      ],
      "name": "setTokenContract",
      "outputs": [],
      "stateMutability": "nonpayable",
      "type": "function"
    },
    {
      "inputs": [
        {
          "internalType": "address",
          "name": "newImplementation",
          "type": "address"
        },
        {
          "internalType": "bytes",
          "name": "data",
          "type": "bytes"
        }
      ],
      "name": "upgradeToAndCall",
      "outputs": [],
      "stateMutability": "payable",
      "type": "function"
    }
  ],
  "bytecode": "0x60a06040523060805234801561001457600080fd5b5061001d610022565b6100d4565b7ff0c57e16840df040f15088dc2f81fe391c3923bec73e23a9662efc9c229c6a00805468010000000000000000900460ff16156100725760405163f92ee8a960e01b815260040160405180910390fd5b80546001600160401b03908116146100d15780546001600160401b0319166001600160401b0390811782556040519081527fc7f505b2f371ae2175ee4913f4499e1f2633a7b5936321eed1cdaeb6115181d29060200160405180910390a15b50565b608051611bc16100fd60003960008181610e9901528181610ec201526110090152611bc16000f3fe60806040526004361061009c5760003560e01c80637a9e5e4b116100645780637a9e5e4b146101355780638bd7f1f1146101555780638fb3603714610175578063ad3cb1cc146101a3578063bbcd5bbe146101e1578063bf7e214f1461020157600080fd5b806339e9f6ce146100a15780634f1ef286146100c357806352d1902d146100d6578063673a2a1f146100fe5780637766fb1c14610120575b600080fd5b3480156100ad57600080fd5b506100c16100bc366004611743565b61022e565b005b6100c16100d13660046117a8565b61035c565b3480156100e257600080fd5b506100eb61037b565b6040519081526020015b60405180910390f35b34801561010a57600080fd5b50610113610398565b6040516100f59190611872565b34801561012c57600080fd5b506100c161051e565b34801561014157600080fd5b506100c16101503660046118f7565b61097d565b34801561016157600080fd5b506100c1610170366004611912565b610a00565b34801561018157600080fd5b5061018a610a13565b6040516001600160e01b031990911681526020016100f5565b3480156101af57600080fd5b506101d4604051806040016040528060058152602001640352e302e360dc1b81525081565b6040516100f59190611964565b3480156101ed57600080fd5b506100c16101fc3660046118f7565b610a4c565b34801561020d57600080fd5b50610216610a61565b6040516001600160a01b0390911681526020016100f5565b7ff0c57e16840df040f15088dc2f81fe391c3923bec73e23a9662efc9c229c6a008054600160401b810460ff16159067ffffffffffffffff166000811580156102745750825b905060008267ffffffffffffffff1660011480156102915750303b155b90508115801561029f575080155b156102bd5760405163f92ee8a960e01b815260040160405180910390fd5b845467ffffffffffffffff1916600117855583156102e757845460ff60401b1916600160401b1785555b6102f089610a7d565b6102f8610a8e565b61030188610a98565b61030b8787610b7a565b831561035157845460ff60401b19168555604051600181527fc7f505b2f371ae2175ee4913f4499e1f2633a7b5936321eed1cdaeb6115181d29060200160405180910390a15b505050505050505050565b610364610e8e565b61036d82610f33565b6103778282610f3c565b5050565b6000610385610ffe565b50600080516020611b6c83398151915290565b6103a061168e565b506040805160c0810182527f11e36f22dc3e60b61fc7ee072e0af835828cfda265c4a879bb366f002f523f03546001600160a01b03908116608083019081527f11e36f22dc3e60b61fc7ee072e0af835828cfda265c4a879bb366f002f523f045460a08401528252825180840184527f11e36f22dc3e60b61fc7ee072e0af835828cfda265c4a879bb366f002f523f0554821681527f11e36f22dc3e60b61fc7ee072e0af835828cfda265c4a879bb366f002f523f065460208083019190915280840191909152835180850185527f11e36f22dc3e60b61fc7ee072e0af835828cfda265c4a879bb366f002f523f0754831681527f11e36f22dc3e60b61fc7ee072e0af835828cfda265c4a879bb366f002f523f0854818301528385015283518085019094527f11e36f22dc3e60b61fc7ee072e0af835828cfda265c4a879bb366f002f523f095490911683527f11e36f22dc3e60b61fc7ee072e0af835828cfda265c4a879bb366f002f523f0a5490830152606081019190915290565b61052b335b600036611047565b7f11e36f22dc3e60b61fc7ee072e0af835828cfda265c4a879bb366f002f523f01547f11e36f22dc3e60b61fc7ee072e0af835828cfda265c4a879bb366f002f523f009060009061057f90620151806119ad565b9050428111156105aa576040516384729a7360e01b8152600481018290526024015b60405180910390fd5b426001830155815460408051631aa93a7560e11b815290516000926001600160a01b03169163355274ea9160048083019260209291908290030181865afa1580156105f9573d6000803e3d6000fd5b505050506040513d601f19601f8201168201806040525081019061061d91906119c0565b905060008360000160009054906101000a90046001600160a01b03166001600160a01b03166318160ddd6040518163ffffffff1660e01b8152600401602060405180830381865afa158015610676573d6000803e3d6000fd5b505050506040513d601f19601f8201168201806040525081019061069a91906119c0565b600285015490915060006106bc6106b184866119d9565b83633b9aca0061114d565b90506000806106da838960030160000160010154633b9aca0061114d565b885460038a01546040516340c10f1960e01b81526001600160a01b0391821660048201526024810184905292935016906340c10f1990604401600060405180830381600087803b15801561072d57600080fd5b505af1158015610741573d6000803e3d6000fd5b50505050808261075191906119ad565b6006890154909250610769908490633b9aca0061114d565b885460058a01546040516340c10f1960e01b81526001600160a01b0391821660048201526024810184905292935016906340c10f1990604401600060405180830381600087803b1580156107bc57600080fd5b505af11580156107d0573d6000803e3d6000fd5b5050505080826107e091906119ad565b60088901549092506107f8908490633b9aca0061114d565b885460078a01546040516340c10f1960e01b81526001600160a01b0391821660048201526024810184905292935016906340c10f1990604401600060405180830381600087803b15801561084b57600080fd5b505af115801561085f573d6000803e3d6000fd5b50505050808261086f91906119ad565b600a890154909250610887908490633b9aca0061114d565b885460098a01546040516340c10f1960e01b81526001600160a01b0391821660048201526024810184905292935016906340c10f1990604401600060405180830381600087803b1580156108da57600080fd5b505af11580156108ee573d6000803e3d6000fd5b5050505080826108fe91906119ad565b91508282111561092b57604051630c724ac560e01b815260048101849052602481018390526044016105a1565b6040805142815260208101849052908101869052606081018790527ffe1d440ca97cd36eb0b3a437ab57ca803562c6a56e85d4b7cf06b36a7dff8f809060800160405180910390a15050505050505050565b33610986610a61565b6001600160a01b0316816001600160a01b0316146109c15760405162d1953b60e31b81526001600160a01b03821660048201526024016105a1565b816001600160a01b03163b6000036109f7576040516361798f2f60e11b81526001600160a01b03831660048201526024016105a1565b61037782611212565b610a0933610523565b6103778282610b7a565b600080516020611b4c833981519152805460009190600160a01b900460ff16610a3d576000610a46565b638fb3603760e01b5b91505090565b610a5533610523565b610a5e81610a98565b50565b600080516020611b4c833981519152546001600160a01b031690565b610a8561126c565b610a5e816112b5565b610a9661126c565b565b6001600160a01b038116610aee5760405162461bcd60e51b815260206004820152601c60248201527f746f6b656e20636f6e74726163742063616e2774206265207a65726f0000000060448201526064016105a1565b7f11e36f22dc3e60b61fc7ee072e0af835828cfda265c4a879bb366f002f523f0080546001600160a01b03838116911603610b27575050565b80546001600160a01b0319166001600160a01b03831690811782556040519081527fe89f98a27789c8313baa22de83cdb921b7026d66af0ee02973c97d45f952b6be906020015b60405180910390a15050565b7f11e36f22dc3e60b61fc7ee072e0af835828cfda265c4a879bb366f002f523f02547f11e36f22dc3e60b61fc7ee072e0af835828cfda265c4a879bb366f002f523f00908314610c3757821580610bde5750610bdb600a633b9aca00611a02565b83115b15610bfc5760405163c5f55b9360e01b815260040160405180910390fd5b600281018390556040518381527f2c3e2e28fbf9e7fc7c7948796c05496767f92c4d8f7a28115b9b69f21c12e8069060200160405180910390a15b610c4460038201836112c6565b15610c9c577f8db84d792225d3c3f70c0349451eb84d6231c0d751fd15cd0bc0cf78770e6aec610c7760208401846118f7565b604080516001600160a01b039092168252602085810135908301520160405180910390a15b610cac60058201604084016112c6565b15610d07577fe16a9be4c42e95b33eac5c37e6ed8fc13974508ae82a6bd622d39a63d9f86920610ce260608401604085016118f7565b604080516001600160a01b039092168252606085013560208301520160405180910390a15b610d1760078201608084016112c6565b15610d72577ffe9b90f9df8b1a8bb9bc56589fa0f112658bb8eff69b15538668d9baa4992f10610d4d60a08401608085016118f7565b604080516001600160a01b03909216825260a085013560208301520160405180910390a15b610d826009820160c084016112c6565b15610ddd577f7d169ad428713fdab972242fe8f27d8772d1a374412a9d3068a4419d2ec8eacf610db860e0840160c085016118f7565b604080516001600160a01b03909216825260e085013560208301520160405180910390a15b6000610ded6020840135826119ad565b9050610dfd6060840135826119ad565b9050610e0d60a0840135826119ad565b9050610e1d60e0840135826119ad565b9050633b9aca008114610e885760405162461bcd60e51b815260206004820152602d60248201527f73756d206f6620706f6f6c206e756d657261746f7273206d757374206571756160448201526c36103232b737b6b4b730ba37b960991b60648201526084016105a1565b50505050565b306001600160a01b037f0000000000000000000000000000000000000000000000000000000000000000161480610f1557507f00000000000000000000000000000000000000000000000000000000000000006001600160a01b0316610f09600080516020611b6c833981519152546001600160a01b031690565b6001600160a01b031614155b15610a965760405163703e46dd60e11b815260040160405180910390fd5b610a5e33610523565b816001600160a01b03166352d1902d6040518163ffffffff1660e01b8152600401602060405180830381865afa925050508015610f96575060408051601f3d908101601f19168201909252610f93918101906119c0565b60015b610fbe57604051634c9c8ce360e01b81526001600160a01b03831660048201526024016105a1565b600080516020611b6c8339815191528114610fef57604051632a87526960e21b8152600481018290526024016105a1565b610ff983836113ad565b505050565b306001600160a01b037f00000000000000000000000000000000000000000000000000000000000000001614610a965760405163703e46dd60e11b815260040160405180910390fd5b600080516020611b4c833981519152600080611082611064610a61565b8730611074600460008a8c611a24565b61107d91611a4e565b611403565b91509150816111455763ffffffff81161561112257825460ff60a01b1916600160a01b1783556110b0610a61565b6001600160a01b03166394c7d7ee8787876040518463ffffffff1660e01b81526004016110df93929190611a84565b600060405180830381600087803b1580156110f957600080fd5b505af115801561110d573d6000803e3d6000fd5b5050845460ff60a01b19168555506111459050565b60405162d1953b60e31b81526001600160a01b03871660048201526024016105a1565b505050505050565b60008383028160001985870982811083820303915050806000036111845783828161117a5761117a6119ec565b049250505061120b565b8084116111a45760405163227bc15360e01b815260040160405180910390fd5b6000848688096000868103871696879004966002600389028118808a02820302808a02820302808a02820302808a02820302808a02820302808a02909103029181900381900460010186841190950394909402919094039290920491909117919091029150505b9392505050565b600080516020611b4c83398151915280546001600160a01b0319166001600160a01b03831690811782556040519081527f2f658b440c35314f52658ea8a740e05b284cdc84dc9ae01e891f21b8933e7cad90602001610b6e565b7ff0c57e16840df040f15088dc2f81fe391c3923bec73e23a9662efc9c229c6a0054600160401b900460ff16610a9657604051631afcd79f60e31b815260040160405180910390fd5b6112bd61126c565b610a5e81611212565b6000806112d660208401846118f7565b84546001600160a01b039081169116146113855760006112f960208501856118f7565b6001600160a01b0316036113595760405162461bcd60e51b815260206004820152602160248201527f74617267657420706f6f6c2063616e2774206265207a65726f206164647265736044820152607360f81b60648201526084016105a1565b61136660208401846118f7565b84546001600160a01b0319166001600160a01b03919091161784555060015b82602001358460010154146113a4575060208201356001808501919091555b90505b92915050565b6113b68261150f565b6040516001600160a01b038316907fbc7cd75a20ee27fd9adebab32041f755214dbc6bffa90cc0225b39da2e5c2d3b90600090a28051156113fb57610ff98282611574565b6103776115ea565b6040516001600160a01b03848116602483015283811660448301526001600160e01b03198316606483015260009182918291829189169060840160408051601f198184030181529181526020820180516001600160e01b031663b700961360e01b179052516114729190611ac4565b600060405180830381855afa9150503d80600081146114ad576040519150601f19603f3d011682016040523d82523d6000602084013e6114b2565b606091505b509150915081156115045760408151106114e457808060200190518101906114da9190611af0565b9094509250611504565b602081511061150457808060200190518101906115019190611b30565b93505b505094509492505050565b806001600160a01b03163b60000361154557604051634c9c8ce360e01b81526001600160a01b03821660048201526024016105a1565b600080516020611b6c83398151915280546001600160a01b0319166001600160a01b0392909216919091179055565b6060600080846001600160a01b0316846040516115919190611ac4565b600060405180830381855af49150503d80600081146115cc576040519150601f19603f3d011682016040523d82523d6000602084013e6115d1565b606091505b50915091506115e1858383611609565b95945050505050565b3415610a965760405163b398979f60e01b815260040160405180910390fd5b60608261161e5761161982611665565b61120b565b815115801561163557506001600160a01b0384163b155b1561165e57604051639996b31560e01b81526001600160a01b03851660048201526024016105a1565b508061120b565b8051156116755780518082602001fd5b604051630a12f52160e11b815260040160405180910390fd5b6040805160c0810190915260006080820181815260a0830191909152819081526020016116cb604080518082019091526000808252602082015290565b81526020016116ea604080518082019091526000808252602082015290565b8152602001611709604080518082019091526000808252602082015290565b905290565b80356001600160a01b038116811461172557600080fd5b919050565b6000610100828403121561173d57600080fd5b50919050565b600080600080610160858703121561175a57600080fd5b6117638561170e565b93506117716020860161170e565b925060408501359150611787866060870161172a565b905092959194509250565b634e487b7160e01b600052604160045260246000fd5b600080604083850312156117bb57600080fd5b6117c48361170e565b9150602083013567ffffffffffffffff8111156117e057600080fd5b8301601f810185136117f157600080fd5b803567ffffffffffffffff81111561180b5761180b611792565b604051601f8201601f19908116603f0116810167ffffffffffffffff8111828210171561183a5761183a611792565b60405281815282820160200187101561185257600080fd5b816020840160208301376000602083830101528093505050509250929050565b815180516001600160a01b0316825260209081015190820152610100810160208381015180516001600160a01b0316604085015290810151606084015250604083015180516001600160a01b03166080840152602081015160a084015250606083015180516001600160a01b031660c0840152602081015160e08401525b5092915050565b60006020828403121561190957600080fd5b61120b8261170e565b600080610120838503121561192657600080fd5b82359150611937846020850161172a565b90509250929050565b60005b8381101561195b578181015183820152602001611943565b50506000910152565b6020815260008251806020840152611983816040850160208701611940565b601f01601f19169190910160400192915050565b634e487b7160e01b600052601160045260246000fd5b808201808211156113a7576113a7611997565b6000602082840312156119d257600080fd5b5051919050565b818103818111156113a7576113a7611997565b634e487b7160e01b600052601260045260246000fd5b600082611a1f57634e487b7160e01b600052601260045260246000fd5b500490565b60008085851115611a3457600080fd5b83861115611a4157600080fd5b5050820193919092039150565b80356001600160e01b031981169060048410156118f0576001600160e01b031960049490940360031b84901b1690921692915050565b6001600160a01b03841681526040602082018190528101829052818360608301376000818301606090810191909152601f909201601f1916010192915050565b60008251611ad6818460208701611940565b9190910192915050565b8051801515811461172557600080fd5b60008060408385031215611b0357600080fd5b611b0c83611ae0565b9150602083015163ffffffff81168114611b2557600080fd5b809150509250929050565b600060208284031215611b4257600080fd5b61120b82611ae056fef3177357ab46d8af007ab3fdb9af81da189e1068fefdc0073dca88a2cab40a00360894a13ba1a3210667c828492db98dca3e2076cc3735a920a3ca505d382bbca264697066735822122030b21553629e12f2a84ec63772e3d3b51914e44564f0af84d4d029d079a7f5bc64736f6c634300081c0033",
  "linkReferences": {},
  "deployedLinkReferences": {}
}