{
  "_format": "hh-sol-artifact-1",
  "contractName": "OsmiStaking",
  "sourceName": "contracts/OsmiStaking.sol",
  "abi": [
    {
      "inputs": [],
      "stateMutability": "nonpayable",
      "type": "constructor"
    },
    {
      "inputs": [],
      "name": "APYOutOfRange",
      "type": "error"
    },
    {
      "inputs": [
        {
          "internalType": "address",
          "name": "authority",
          "type": "address"
        }
      ],
      "name": "AccessManagedInvalidAuthority",
      "type": "error"
    },
    {
      "inputs": [
        {
          "internalType": "address",
          "name": "caller",
          "type": "address"
        },
        {
          "internalType": "uint32",
          "name": "delay",
          "type": "uint32"
        }
      ],
      "name": "AccessManagedRequiredDelay",
      "type": "error"
    },
    {
      "inputs": [
        {
          "internalType": "address",
          "name": "caller",
          "type": "address"
        }
      ],
      "name": "AccessManagedUnauthorized",
      "type": "error"
    },
    {
      "inputs": [
        {
          "internalType": "address",
          "name": "target",
          "type": "address"
        }
      ],
      "name": "AddressEmptyCode",
      "type": "error"
    },
    {
      "inputs": [],
      "name": "ECDSAInvalidSignature",
      "type": "error"
    },
    {
      "inputs": [
        {
          "internalType": "uint256",
          "name": "length",
          "type": "uint256"
        }
      ],
      "name": "ECDSAInvalidSignatureLength",
      "type": "error"
    },
    {
      "inputs": [
        {
          "internalType": "bytes32",
          "name": "s",
          "type": "bytes32"
        }
      ],
      "name": "ECDSAInvalidSignatureS",
      "type": "error"
    },
    {
      "inputs": [
        {
          "internalType": "address",
          "name": "implementation",
          "type": "address"
        }
      ],
      "name": "ERC1967InvalidImplementation",
      "type": "error"
    },
    {
      "inputs": [],
      "name": "ERC1967NonPayable",
      "type": "error"
    },
    {
      "inputs": [],
      "name": "FailedInnerCall",
      "type": "error"
    },
    {
      "inputs": [],
      "name": "InsufficientBalance",
      "type": "error"
    },
    {
      "inputs": [
        {
          "internalType": "address",
          "name": "account",
          "type": "address"
        },
        {
          "internalType": "uint256",
          "name": "currentNonce",
          "type": "uint256"
        }
      ],
      "name": "InvalidAccountNonce",
      "type": "error"
    },
    {
      "inputs": [],
      "name": "InvalidInitialization",
      "type": "error"
    },
    {
      "inputs": [],
      "name": "InvalidTicketHash",
      "type": "error"
    },
    {
      "inputs": [],
      "name": "InvalidTicketSigner",
      "type": "error"
    },
    {
      "inputs": [],
      "name": "MathOverflowedMulDiv",
      "type": "error"
    },
    {
      "inputs": [],
      "name": "NotInitializing",
      "type": "error"
    },
    {
      "inputs": [],
      "name": "TicketExpired",
      "type": "error"
    },
    {
      "inputs": [],
      "name": "TicketIssuedTooSoon",
      "type": "error"
    },
    {
      "inputs": [],
      "name": "UUPSUnauthorizedCallContext",
      "type": "error"
    },
    {
      "inputs": [
        {
          "internalType": "bytes32",
          "name": "slot",
          "type": "bytes32"
        }
      ],
      "name": "UUPSUnsupportedProxiableUUID",
      "type": "error"
    },
    {
      "inputs": [],
      "name": "Uncancelable",
      "type": "error"
    },
    {
      "inputs": [],
      "name": "WithdrawalAlreadyInProgress",
      "type": "error"
    },
    {
      "inputs": [],
      "name": "WrongTicketOwner",
      "type": "error"
    },
    {
      "inputs": [],
      "name": "ZeroAddressNotAllowed",
      "type": "error"
    },
    {
      "inputs": [],
      "name": "ZeroAmountNotAllowed",
      "type": "error"
    },
    {
      "anonymous": false,
      "inputs": [
        {
          "indexed": false,
          "internalType": "uint256",
          "name": "apy",
          "type": "uint256"
        }
      ],
      "name": "APYChanged",
      "type": "event"
    },
    {
      "anonymous": false,
      "inputs": [
        {
          "indexed": false,
          "internalType": "address",
          "name": "authority",
          "type": "address"
        }
      ],
      "name": "AuthorityUpdated",
      "type": "event"
    },
    {
      "anonymous": false,
      "inputs": [
        {
          "indexed": false,
          "internalType": "address",
          "name": "user",
          "type": "address"
        },
        {
          "indexed": false,
          "internalType": "bool",
          "name": "value",
          "type": "bool"
        }
      ],
      "name": "AutoStakeChanged",
      "type": "event"
    },
    {
      "anonymous": false,
      "inputs": [
        {
          "indexed": false,
          "internalType": "contract IOsmiConfig",
          "name": "configContract",
          "type": "address"
        }
      ],
      "name": "ConfigContractChanged",
      "type": "event"
    },
    {
      "anonymous": false,
      "inputs": [],
      "name": "EIP712DomainChanged",
      "type": "event"
    },
    {
      "anonymous": false,
      "inputs": [
        {
          "indexed": false,
          "internalType": "uint64",
          "name": "version",
          "type": "uint64"
        }
      ],
      "name": "Initialized",
      "type": "event"
    },
    {
      "anonymous": false,
      "inputs": [
        {
          "indexed": false,
          "internalType": "address",
          "name": "user",
          "type": "address"
        },
        {
          "indexed": false,
          "internalType": "uint256",
          "name": "amount",
          "type": "uint256"
        },
        {
          "indexed": false,
          "internalType": "uint256",
          "name": "timestamp",
          "type": "uint256"
        }
      ],
      "name": "TicketRedeemed",
      "type": "event"
    },
    {
      "anonymous": false,
      "inputs": [
        {
          "indexed": false,
          "internalType": "address",
          "name": "ticketSigner",
          "type": "address"
        }
      ],
      "name": "TicketSignerChanged",
      "type": "event"
    },
    {
      "anonymous": false,
      "inputs": [
        {
          "indexed": false,
          "internalType": "address",
          "name": "from",
          "type": "address"
        },
        {
          "indexed": false,
          "internalType": "address",
          "name": "to",
          "type": "address"
        },
        {
          "indexed": false,
          "internalType": "uint256",
          "name": "amount",
          "type": "uint256"
        }
      ],
      "name": "TokensDeposited",
      "type": "event"
    },
    {
      "anonymous": false,
      "inputs": [
        {
          "indexed": true,
          "internalType": "address",
          "name": "implementation",
          "type": "address"
        }
      ],
      "name": "Upgraded",
      "type": "event"
    },
    {
      "anonymous": false,
      "inputs": [
        {
          "indexed": false,
          "internalType": "address",
          "name": "user",
          "type": "address"
        },
        {
          "indexed": false,
          "internalType": "uint256",
          "name": "availableAt",
          "type": "uint256"
        },
        {
          "indexed": false,
          "internalType": "uint256",
          "name": "amount",
          "type": "uint256"
        }
      ],
      "name": "WithdrawalCanceled",
      "type": "event"
    },
    {
      "anonymous": false,
      "inputs": [
        {
          "indexed": false,
          "internalType": "address",
          "name": "user",
          "type": "address"
        },
        {
          "indexed": false,
          "internalType": "uint256",
          "name": "availableAt",
          "type": "uint256"
        },
        {
          "indexed": false,
          "internalType": "uint256",
          "name": "amount",
          "type": "uint256"
        },
        {
          "indexed": false,
          "internalType": "bool",
          "name": "fast",
          "type": "bool"
        }
      ],
      "name": "WithdrawalStarted",
      "type": "event"
    },
    {
      "anonymous": false,
      "inputs": [
        {
          "indexed": false,
          "internalType": "address",
          "name": "user",
          "type": "address"
        },
        {
          "indexed": false,
          "internalType": "uint256",
          "name": "amount",
          "type": "uint256"
        }
      ],
      "name": "WithdrawalTax",
      "type": "event"
    },
    {
      "inputs": [],
      "name": "UPGRADE_INTERFACE_VERSION",
      "outputs": [
        {
          "internalType": "string",
          "name": "",
          "type": "string"
        }
      ],
      "stateMutability": "view",
      "type": "function"
    },
    {
      "inputs": [],
      "name": "authority",
      "outputs": [
        {
          "internalType": "address",
          "name": "",
          "type": "address"
        }
      ],
      "stateMutability": "view",
      "type": "function"
    },
    {
      "inputs": [],
      "name": "cancelWithdrawal",
      "outputs": [],
      "stateMutability": "nonpayable",
      "type": "function"
    },
    {
      "inputs": [],
      "name": "eip712Domain",
      "outputs": [
        {
          "internalType": "bytes1",
          "name": "fields",
          "type": "bytes1"
        },
        {
          "internalType": "string",
          "name": "name",
          "type": "string"
        },
        {
          "internalType": "string",
          "name": "version",
          "type": "string"
        },
        {
          "internalType": "uint256",
          "name": "chainId",
          "type": "uint256"
        },
        {
          "internalType": "address",
          "name": "verifyingContract",
          "type": "address"
        },
        {
          "internalType": "bytes32",
          "name": "salt",
          "type": "bytes32"
        },
        {
          "internalType": "uint256[]",
          "name": "extensions",
          "type": "uint256[]"
        }
      ],
      "stateMutability": "view",
      "type": "function"
    },
    {
      "inputs": [
        {
          "internalType": "address",
          "name": "user",
          "type": "address"
        },
        {
          "internalType": "uint256",
          "name": "amount",
          "type": "uint256"
        }
      ],
      "name": "emitWithdrawalTax",
      "outputs": [],
      "stateMutability": "nonpayable",
      "type": "function"
    },
    {
      "inputs": [],
      "name": "getAPY",
      "outputs": [
        {
          "internalType": "uint256",
          "name": "",
          "type": "uint256"
        }
      ],
      "stateMutability": "view",
      "type": "function"
    },
    {
      "inputs": [],
      "name": "getAutoStake",
      "outputs": [
        {
          "internalType": "bool",
          "name": "",
          "type": "bool"
        }
      ],
      "stateMutability": "view",
      "type": "function"
    },
    {
      "inputs": [
        {
          "internalType": "address",
          "name": "user",
          "type": "address"
        }
      ],
      "name": "getAutoStakeFor",
      "outputs": [
        {
          "internalType": "bool",
          "name": "",
          "type": "bool"
        }
      ],
      "stateMutability": "view",
      "type": "function"
    },
    {
      "inputs": [
        {
          "internalType": "address",
          "name": "user",
          "type": "address"
        }
      ],
      "name": "getBalance",
      "outputs": [
        {
          "internalType": "uint256",
          "name": "balance",
          "type": "uint256"
        },
        {
          "internalType": "uint256",
          "name": "lastTicketTimestamp",
          "type": "uint256"
        }
      ],
      "stateMutability": "view",
      "type": "function"
    },
    {
      "inputs": [],
      "name": "getConfigContract",
      "outputs": [
        {
          "internalType": "contract IOsmiConfig",
          "name": "",
          "type": "address"
        }
      ],
      "stateMutability": "view",
      "type": "function"
    },
    {
      "inputs": [],
      "name": "getTicketSigners",
      "outputs": [
        {
          "internalType": "address",
          "name": "",
          "type": "address"
        },
        {
          "internalType": "address",
          "name": "",
          "type": "address"
        }
      ],
      "stateMutability": "view",
      "type": "function"
    },
    {
      "inputs": [
        {
          "internalType": "address",
          "name": "initialAuthority",
          "type": "address"
        },
        {
          "internalType": "contract IOsmiConfig",
          "name": "configContract",
          "type": "address"
        },
        {
          "internalType": "address",
          "name": "ticketSigner",
          "type": "address"
        }
      ],
      "name": "initialize",
      "outputs": [],
      "stateMutability": "nonpayable",
      "type": "function"
    },
    {
      "inputs": [],
      "name": "isConsumingScheduledOp",
      "outputs": [
        {
          "internalType": "bytes4",
          "name": "",
          "type": "bytes4"
        }
      ],
      "stateMutability": "view",
      "type": "function"
    },
    {
      "inputs": [
        {
          "internalType": "address",
          "name": "owner",
          "type": "address"
        }
      ],
      "name": "nonces",
      "outputs": [
        {
          "internalType": "uint256",
          "name": "",
          "type": "uint256"
        }
      ],
      "stateMutability": "view",
      "type": "function"
    },
    {
      "inputs": [],
      "name": "proxiableUUID",
      "outputs": [
        {
          "internalType": "bytes32",
          "name": "",
          "type": "bytes32"
        }
      ],
      "stateMutability": "view",
      "type": "function"
    },
    {
      "inputs": [
        {
          "components": [
            {
              "internalType": "address",
              "name": "user",
              "type": "address"
            },
            {
              "internalType": "uint256",
              "name": "timestamp",
              "type": "uint256"
            },
            {
              "internalType": "bytes32",
              "name": "expectedHash",
              "type": "bytes32"
            },
            {
              "internalType": "uint256",
              "name": "amount",
              "type": "uint256"
            },
            {
              "internalType": "uint8",
              "name": "v",
              "type": "uint8"
            },
            {
              "internalType": "bytes32",
              "name": "r",
              "type": "bytes32"
            },
            {
              "internalType": "bytes32",
              "name": "s",
              "type": "bytes32"
            }
          ],
          "internalType": "struct OsmiStaking.Ticket",
          "name": "ticket",
          "type": "tuple"
        },
        {
          "internalType": "uint256",
          "name": "amount",
          "type": "uint256"
        },
        {
          "internalType": "bool",
          "name": "fast",
          "type": "bool"
        }
      ],
      "name": "redeemAndWithdraw",
      "outputs": [],
      "stateMutability": "nonpayable",
      "type": "function"
    },
    {
      "inputs": [
        {
          "components": [
            {
              "internalType": "address",
              "name": "user",
              "type": "address"
            },
            {
              "internalType": "uint256",
              "name": "timestamp",
              "type": "uint256"
            },
            {
              "internalType": "bytes32",
              "name": "expectedHash",
              "type": "bytes32"
            },
            {
              "internalType": "uint256",
              "name": "amount",
              "type": "uint256"
            },
            {
              "internalType": "uint8",
              "name": "v",
              "type": "uint8"
            },
            {
              "internalType": "bytes32",
              "name": "r",
              "type": "bytes32"
            },
            {
              "internalType": "bytes32",
              "name": "s",
              "type": "bytes32"
            }
          ],
          "internalType": "struct OsmiStaking.Ticket",
          "name": "ticket",
          "type": "tuple"
        }
      ],
      "name": "redeemTicket",
      "outputs": [
        {
          "internalType": "uint256",
          "name": "balance",
          "type": "uint256"
        }
      ],
      "stateMutability": "nonpayable",
      "type": "function"
    },
    {
      "inputs": [
        {
          "internalType": "uint256",
          "name": "v",
          "type": "uint256"
        }
      ],
      "name": "setAPY",
      "outputs": [],
      "stateMutability": "nonpayable",
      "type": "function"
    },
    {
      "inputs": [
        {
          "internalType": "address",
          "name": "newAuthority",
          "type": "address"
        }
      ],
      "name": "setAuthority",
      "outputs": [],
      "stateMutability": "nonpayable",
      "type": "function"
    },
    {
      "inputs": [
        {
          "internalType": "bool",
          "name": "v",
          "type": "bool"
        }
      ],
      "name": "setAutoStake",
      "outputs": [],
      "stateMutability": "nonpayable",
      "type": "function"
    },
    {
      "inputs": [
        {
          "internalType": "address",
          "name": "user",
          "type": "address"
        },
        {
          "internalType": "bool",
          "name": "v",
          "type": "bool"
        }
      ],
      "name": "setAutoStakeFor",
      "outputs": [],
      "stateMutability": "nonpayable",
      "type": "function"
    },
    {
      "inputs": [
        {
          "internalType": "contract IOsmiConfig",
          "name": "v",
          "type": "address"
        }
      ],
      "name": "setConfigContract",
      "outputs": [],
      "stateMutability": "nonpayable",
      "type": "function"
    },
    {
      "inputs": [
        {
          "internalType": "address",
          "name": "signer",
          "type": "address"
        }
      ],
      "name": "setTicketSigner",
      "outputs": [],
      "stateMutability": "nonpayable",
      "type": "function"
    },
    {
      "inputs": [
        {
          "internalType": "address",
          "name": "user",
          "type": "address"
        },
        {
          "internalType": "uint256",
          "name": "amount",
          "type": "uint256"
        }
      ],
      "name": "stakeFor",
      "outputs": [],
      "stateMutability": "nonpayable",
      "type": "function"
    },
    {
      "inputs": [
        {
          "internalType": "address",
          "name": "newImplementation",
          "type": "address"
        },
        {
          "internalType": "bytes",
          "name": "data",
          "type": "bytes"
        }
      ],
      "name": "upgradeToAndCall",
      "outputs": [],
      "stateMutability": "payable",
      "type": "function"
    },
    {
      "inputs": [
        {
          "internalType": "uint256",
          "name": "amount",
          "type": "uint256"
        },
        {
          "internalType": "bool",
          "name": "fast",
          "type": "bool"
        }
      ],
      "name": "withdraw",
      "outputs": [],
      "stateMutability": "nonpayable",
      "type": "function"
    }
  ],
  "bytecode": "0x60a06040523060805234801561001457600080fd5b5061001d610022565b6100d4565b7ff0c57e16840df040f15088dc2f81fe391c3923bec73e23a9662efc9c229c6a00805468010000000000000000900460ff16156100725760405163f92ee8a960e01b815260040160405180910390fd5b80546001600160401b03908116146100d15780546001600160401b0319166001600160401b0390811782556040519081527fc7f505b2f371ae2175ee4913f4499e1f2633a7b5936321eed1cdaeb6115181d29060200160405180910390a15b50565b608051612c6e6100fd6000396000818161134f0152818161137801526114ba0152612c6e6000f3fe6080604052600436106101815760003560e01c80637a9e5e4b116100d1578063ad3cb1cc1161008a578063d2cbf7ad11610064578063d2cbf7ad146104bd578063de7b8ffe146104d2578063e909ed1c146104f2578063f8b2cb4f1461051257600080fd5b8063ad3cb1cc1461044a578063bf7e214f14610488578063c0c53b8b1461049d57600080fd5b80637a9e5e4b1461032a5780637ecebe001461034a57806384b0196e1461039f5780638fb36037146103c75780639c882176146103f5578063a35ff3bf1461042a57600080fd5b80632ee409081161013e57806352d1902d1161011857806352d1902d146102a757806358500e45146102ca57806361edd6cf146102ea57806366138e481461030a57600080fd5b80632ee409081461025457806338d07436146102745780634f1ef2861461029457600080fd5b80630bc6b21d146101865780630e1c3a4a146101a857806311a5ac48146101da5780631d212c96146101ff578063226112801461021f57806324f45e6714610234575b600080fd5b34801561019257600080fd5b506101a66101a1366004612535565b610547565b005b3480156101b457600080fd5b506101bd610562565b6040516001600160a01b0390911681526020015b60405180910390f35b3480156101e657600080fd5b506101ef610571565b60405190151581526020016101d1565b34801561020b57600080fd5b506101a661021a36600461256e565b61057c565b34801561022b57600080fd5b506101a6610592565b34801561024057600080fd5b506101a661024f36600461258b565b6105a6565b34801561026057600080fd5b506101a661026f3660046125a4565b6105b8565b34801561028057600080fd5b506101a661028f3660046125d0565b6105cc565b6101a66102a236600461260b565b6105e1565b3480156102b357600080fd5b506102bc6105fc565b6040519081526020016101d1565b3480156102d657600080fd5b506102bc6102e53660046126ef565b610619565b3480156102f657600080fd5b506101ef61030536600461270b565b610633565b34801561031657600080fd5b506101a6610325366004612728565b61063e565b34801561033657600080fd5b506101a661034536600461270b565b61065f565b34801561035657600080fd5b506102bc61036536600461270b565b6001600160a01b031660009081527f5ab42ced628888259c08ac98db1eb0cf702fc1501344311d8b100cd1bfe4bb00602052604090205490565b3480156103ab57600080fd5b506103b46106e7565b6040516101d197969594939291906127bb565b3480156103d357600080fd5b506103dc610793565b6040516001600160e01b031990911681526020016101d1565b34801561040157600080fd5b5061040a6107cc565b604080516001600160a01b039384168152929091166020830152016101d1565b34801561043657600080fd5b506101a661044536600461270b565b6107df565b34801561045657600080fd5b5061047b604051806040016040528060058152602001640352e302e360dc1b81525081565b6040516101d19190612853565b34801561049457600080fd5b506101bd6107f1565b3480156104a957600080fd5b506101a66104b8366004612866565b610814565b3480156104c957600080fd5b506102bc61099b565b3480156104de57600080fd5b506101a66104ed36600461270b565b6109a5565b3480156104fe57600080fd5b506101a661050d3660046125a4565b6109b7565b34801561051e57600080fd5b5061053261052d36600461270b565b610a07565b604080519283526020830191909152016101d1565b610554335b600036610a42565b61055e8282610b48565b5050565b600061056c610be6565b905090565b600061056c33610bf1565b6105853361054c565b61058f3382610b48565b50565b61059b3361054c565b6105a433610c24565b565b6105af3361054c565b61058f81610df7565b6105c13361054c565b61055e338383610e77565b6105d53361054c565b61055e335b8383610fe5565b6105e9611344565b6105f2826113e9565b61055e82826113f2565b60006106066114af565b50600080516020612c1983398151915290565b60006106243361054c565b61062d826114f8565b92915050565b600061062d82610bf1565b6106473361054c565b610650836114f8565b5061065a336105da565b505050565b336106686107f1565b6001600160a01b0316816001600160a01b0316146106a85760405162d1953b60e31b81526001600160a01b03821660048201526024015b60405180910390fd5b816001600160a01b03163b6000036106de576040516361798f2f60e11b81526001600160a01b038316600482015260240161069f565b61055e82611757565b60006060808280808381600080516020612bf9833981519152805490915015801561071457506001810154155b6107585760405162461bcd60e51b81526020600482015260156024820152741152540dcc4c8e88155b9a5b9a5d1a585b1a5e9959605a1b604482015260640161069f565b6107606117b1565b610768611874565b60408051600080825260208201909252600f60f81b9c939b5091995046985030975095509350915050565b600080516020612bd9833981519152805460009190600160a01b900460ff166107bd5760006107c6565b638fb3603760e01b5b91505090565b6000806107d76118b3565b915091509091565b6107e83361054c565b61058f816118e0565b600080600080516020612bd98339815191525b546001600160a01b031692915050565b7ff0c57e16840df040f15088dc2f81fe391c3923bec73e23a9662efc9c229c6a008054600160401b810460ff16159067ffffffffffffffff1660008115801561085a5750825b905060008267ffffffffffffffff1660011480156108775750303b155b905081158015610885575080155b156108a35760405163f92ee8a960e01b815260040160405180910390fd5b845467ffffffffffffffff1916600117855583156108cd57845460ff60401b1916600160401b1785555b6108d6886119c9565b6108de6119da565b6109246040518060400160405280600b81526020016a4f736d695374616b696e6760a81b815250604051806040016040528060018152602001603160f81b8152506119e2565b61092c6119da565b610935876119f4565b61093e866118e0565b61094b6309896800610df7565b831561099157845460ff60401b19168555604051600181527fc7f505b2f371ae2175ee4913f4499e1f2633a7b5936321eed1cdaeb6115181d29060200160405180910390a15b5050505050505050565b600061056c611a64565b6109ae3361054c565b61058f816119f4565b6109c03361054c565b604080516001600160a01b0384168152602081018390527f55edf5ffc7f89f78c7ff235313835b5d79d74e6b24ceedaa826aeccfbd2e941f91015b60405180910390a15050565b6000806000610a14611a79565b6001600160a01b03909416600090815260049485016020526040902093840154600690940154939492505050565b600080516020612bd9833981519152600080610a7d610a5f6107f1565b8730610a6f600460008a8c6128a6565b610a78916128d0565b611a9d565b9150915081610b405763ffffffff811615610b1d57825460ff60a01b1916600160a01b178355610aab6107f1565b6001600160a01b03166394c7d7ee8787876040518463ffffffff1660e01b8152600401610ada93929190612908565b600060405180830381600087803b158015610af457600080fd5b505af1158015610b08573d6000803e3d6000fd5b5050845460ff60a01b1916855550610b409050565b60405162d1953b60e31b81526001600160a01b038716600482015260240161069f565b505050505050565b6000610b52611a79565b6001600160a01b038416600090815260048201602052604090208054919250906001908116148315158114610bdf57604080516001600160a01b038716815285151560208201527fc2c5b51760cdcc9fa9f62294acb39de5174a60208e7f212db33057244dbd4286910160405180910390a18315610bd65781546001178255610bdf565b81546001191682555b5050505050565b600080610804611a79565b600080610bfc611a79565b6001600160a01b03909316600090815260049093016020525050604090205460019081161490565b6000610c2e611a79565b6001600160a01b038316600090815260048201602052604081206002810154929350919003610c5c57505050565b8060030154600003610c81576040516307a1cab560e11b815260040160405180910390fd5b80600201544210610ca55760405163446f38c360e11b815260040160405180910390fd5b60028082600001541603610ccc5760405163446f38c360e11b815260040160405180910390fd5b8060030154816004016000828254610ce4919061295e565b9091555060009050610cf4611ba9565b90506000610d00611c24565b90506000610d0c611c7b565b60028501546003860154604080516001600160a01b038b16815260208101939093528201529091507faa2fb342f317d8a167b825426470e8d601acab426e76f95ab6b89570157124df9060600160405180910390a160038401546040516323b872dd60e01b81526001600160a01b038516916323b872dd91610d95918591879190600401612971565b6020604051808303816000875af1158015610db4573d6000803e3d6000fd5b505050506040513d601f19601f82011682018060405250810190610dd89190612995565b5050825460021916835550506000600282018190556003909101555050565b801580610e075750633b9aca0081115b15610e25576040516302fa196b60e61b815260040160405180910390fd5b6000610e2f611a79565b905081816003015403610e40575050565b600381018290556040518281527ffe0dc6926c703f5cea6a6a7bee3d6bede2f43f0df28a572f2e5cdd1d7ba9e560906020016109fb565b6001600160a01b0383161580610e9457506001600160a01b038216155b15610eb2576040516342bcdf7f60e11b815260040160405180910390fd5b80600003610ed3576040516307a1cab560e11b815260040160405180910390fd5b6000610edd611a79565b90506000610ee9611ba9565b90506000610ef5611c24565b6040516323b872dd60e01b81529091506001600160a01b038316906323b872dd90610f2890899085908990600401612971565b6020604051808303816000875af1158015610f47573d6000803e3d6000fd5b505050506040513d601f19601f82011682018060405250810190610f6b9190612995565b506001600160a01b0385166000908152600480850160205260408220908101805491928792610f9b90849061295e565b90915550506040517fcbc4a4091b012bb1329c38bbbb15455f5cac5aa3673da0a7f38cd61a4f49551790610fd490899089908990612971565b60405180910390a150505050505050565b6001600160a01b03831661100c576040516342bcdf7f60e11b815260040160405180910390fd5b8160000361102d576040516307a1cab560e11b815260040160405180910390fd5b6000611037611a79565b6001600160a01b0385166000908152600482016020526040902060028101549192509042101561107a57604051632a290aa960e01b815260040160405180910390fd5b806004015484111561109f57604051631e9acf1760e31b815260040160405180910390fd5b838160040160008282546110b391906129b2565b90915550600090506110c3611ba9565b905060006110cf611cd2565b905060006110db611c24565b905060006110e7611c7b565b90506000836001600160a01b0316634dc3a3906040518163ffffffff1660e01b8152600401602060405180830381865afa158015611129573d6000803e3d6000fd5b505050506040513d601f19601f8201168201806040525081019061114d91906129c5565b905080881561124b57600061116b8b6305f5e100633b9aca00611d29565b9050611177818c6129b2565b9a50801561122f5760405163079cc67960e41b81526001600160a01b038681166004830152602482018390528816906379cc679090604401600060405180830381600087803b1580156111c957600080fd5b505af11580156111dd573d6000803e3d6000fd5b505050507f55edf5ffc7f89f78c7ff235313835b5d79d74e6b24ceedaa826aeccfbd2e941f8c826040516112269291906001600160a01b03929092168252602082015260400190565b60405180910390a15b87546002178855611243620151808361295e565b915050611263565b8654600219168755611260621275008261295e565b90505b600387018a905560028701819055604080516001600160a01b038d168152602081018390529081018b905289151560608201527fd71f8e686f6b1e03699cb0f47ce9ccd97097e71396d165c718c68d3f9e9f528f9060800160405180910390a16040516323b872dd60e01b81526001600160a01b038716906323b872dd906112f390879087908f90600401612971565b6020604051808303816000875af1158015611312573d6000803e3d6000fd5b505050506040513d601f19601f820116820180604052508101906113369190612995565b505050505050505050505050565b306001600160a01b037f00000000000000000000000000000000000000000000000000000000000000001614806113cb57507f00000000000000000000000000000000000000000000000000000000000000006001600160a01b03166113bf600080516020612c19833981519152546001600160a01b031690565b6001600160a01b031614155b156105a45760405163703e46dd60e11b815260040160405180910390fd5b61058f3361054c565b816001600160a01b03166352d1902d6040518163ffffffff1660e01b8152600401602060405180830381865afa92505050801561144c575060408051601f3d908101601f19168201909252611449918101906129c5565b60015b61147457604051634c9c8ce360e01b81526001600160a01b038316600482015260240161069f565b600080516020612c1983398151915281146114a557604051632a87526960e21b81526004810182905260240161069f565b61065a8383611dee565b306001600160a01b037f000000000000000000000000000000000000000000000000000000000000000016146105a45760405163703e46dd60e11b815260040160405180910390fd5b60008061150483611e44565b90506000611510611a79565b905060006004820181611526602088018861270b565b6001600160a01b0316815260208082019290925260400160009081209250906115519087018761270b565b6001600160a01b031603611578576040516342bcdf7f60e11b815260040160405180910390fd5b846060013560000361159d576040516307a1cab560e11b815260040160405180910390fd5b6006810154602086013590620143706115b683426129b2565b11156115d5576040516340d3544760e01b815260040160405180910390fd5b620143706115e382846129b2565b1015611602576040516317e8a5cb60e01b815260040160405180910390fd5b826005015487604001351461162a57604051631b5b230b60e21b815260040160405180910390fd5b8660600135836004016000828254611642919061295e565b9091555050602087018035600685015560058401546000917f4e9b0e2afb2e56a47cc5c5693615261ff938bb48f9baf05077e20c8fd8d5f71a9190611687908b61270b565b60408051602081810195909552908101929092526001600160a01b0316606082810191909152918a013560808201529089013560a082015260c0810187905260e0016040516020818303038152906040528051906020012090506116ea81611f6c565b60058501557fc486cbcc73b5497f564228f5833a8766da2c87c2b5669ce5838d50bdf396f07461171d60208a018a61270b565b604080516001600160a01b0390921682526060808c013560208401529082018690520160405180910390a150505060040154949350505050565b600080516020612bd983398151915280546001600160a01b0319166001600160a01b03831690811782556040519081527f2f658b440c35314f52658ea8a740e05b284cdc84dc9ae01e891f21b8933e7cad906020016109fb565b7fa16a46d94261c7517cc8ff89f61c0ce93598e3c849801011dee649a6a557d1028054606091600080516020612bf9833981519152916117f0906129de565b80601f016020809104026020016040519081016040528092919081815260200182805461181c906129de565b80156118695780601f1061183e57610100808354040283529160200191611869565b820191906000526020600020905b81548152906001019060200180831161184c57829003601f168201915b505050505091505090565b7fa16a46d94261c7517cc8ff89f61c0ce93598e3c849801011dee649a6a557d1038054606091600080516020612bf9833981519152916117f0906129de565b60008060006118c0611a79565b60018101546002909101546001600160a01b039182169591169350915050565b6001600160a01b0381166119365760405162461bcd60e51b815260206004820152601c60248201527f7369676e657220616464726573732063616e2774206265207a65726f00000000604482015260640161069f565b6000611940611a79565b90506001600160a01b03821660018201600001546001600160a01b031603611966575050565b6001810180546002830180546001600160a01b038084166001600160a01b0319928316179092559091169084169081179091556040519081527ff25410f30b55c5bf754bde6af67a578fc1fb2e1e7fa70f582112f3c430b8e236906020016109fb565b6119d1611f99565b61058f81611fe2565b6105a4611f99565b6119ea611f99565b61055e8282611ff3565b60006119fe611a79565b80549091506001600160a01b03808416911603611a19575050565b80546001600160a01b0319166001600160a01b03831690811782556040519081527fea68eebc69e6cf7ca402dbd8bbf63e2a5d6fcc0ab964fb9cbe0b2660c364875d906020016109fb565b600080611a6f611a79565b6003015492915050565b7fa3c4f2f291c8b2e507af98f0821c9deaec9b9fc659bd5466e3124818ea08360090565b6040516001600160a01b03848116602483015283811660448301526001600160e01b03198316606483015260009182918291829189169060840160408051601f198184030181529181526020820180516001600160e01b031663b700961360e01b17905251611b0c9190612a12565b600060405180830381855afa9150503d8060008114611b47576040519150601f19603f3d011682016040523d82523d6000602084013e611b4c565b606091505b50915091508115611b9e576040815110611b7e5780806020019051810190611b749190612a2e565b9094509250611b9e565b6020815110611b9e5780806020019051810190611b9b9190612995565b93505b505094509492505050565b600080611bb4611a79565b80546040805163145bdf6f60e11b815290519293506001600160a01b03909116916328b7bede916004808201926020929091908290030181865afa158015611c00573d6000803e3d6000fd5b505050506040513d601f19601f820116820180604052508101906107c69190612a66565b600080611c2f611a79565b80546040805163116518cd60e21b815290519293506001600160a01b03909116916345946334916004808201926020929091908290030181865afa158015611c00573d6000803e3d6000fd5b600080611c86611a79565b805460408051635af1954560e11b815290519293506001600160a01b039091169163b5e32a8a916004808201926020929091908290030181865afa158015611c00573d6000803e3d6000fd5b600080611cdd611a79565b8054604080516358d6b7d760e01b815290519293506001600160a01b03909116916358d6b7d7916004808201926020929091908290030181865afa158015611c00573d6000803e3d6000fd5b6000838302816000198587098281108382030391505080600003611d6057838281611d5657611d56612a83565b0492505050611de7565b808411611d805760405163227bc15360e01b815260040160405180910390fd5b6000848688096000868103871696879004966002600389028118808a02820302808a02820302808a02820302808a02820302808a02820302808a02909103029181900381900460010186841190950394909402919094039290920491909117919091029150505b9392505050565b611df782612054565b6040516001600160a01b038316907fbc7cd75a20ee27fd9adebab32041f755214dbc6bffa90cc0225b39da2e5c2d3b90600090a2805115611e3c5761065a82826120b9565b61055e61212f565b6000611e98611e56602084018461270b565b6001600160a01b031660009081527f5ab42ced628888259c08ac98db1eb0cf702fc1501344311d8b100cd1bfe4bb006020526040902080546001810190915590565b905060007f4e588c81a3f4076283a4034bdbedf505b373c9174562025a741f0c28625014f1611eca602085018561270b565b604080516020818101949094526001600160a01b0390921682820152918501356060828101919091529185013560808201529084013560a082015260c0810183905260e0016040516020818303038152906040528051906020012090506000611f3282611f6c565b90506000611f5982611f4a60a0880160808901612a99565b8760a001358860c0013561214e565b9050611f648161217c565b505050919050565b600061062d611f796121d9565b8360405161190160f01b8152600281019290925260228201526042902090565b7ff0c57e16840df040f15088dc2f81fe391c3923bec73e23a9662efc9c229c6a0054600160401b900460ff166105a457604051631afcd79f60e31b815260040160405180910390fd5b611fea611f99565b61058f81611757565b611ffb611f99565b600080516020612bf98339815191527fa16a46d94261c7517cc8ff89f61c0ce93598e3c849801011dee649a6a557d1026120358482612b03565b50600381016120448382612b03565b5060008082556001909101555050565b806001600160a01b03163b60000361208a57604051634c9c8ce360e01b81526001600160a01b038216600482015260240161069f565b600080516020612c1983398151915280546001600160a01b0319166001600160a01b0392909216919091179055565b6060600080846001600160a01b0316846040516120d69190612a12565b600060405180830381855af49150503d8060008114612111576040519150601f19603f3d011682016040523d82523d6000602084013e612116565b606091505b50915091506121268583836121e3565b95945050505050565b34156105a45760405163b398979f60e01b815260040160405180910390fd5b6000806000806121608888888861223f565b925092509250612170828261230e565b50909695505050505050565b6000612186611a79565b905060018101600001546001600160a01b038381169116148015906121bb575060028101546001600160a01b03838116911614155b1561055e57604051631773e24d60e01b815260040160405180910390fd5b600061056c6123c7565b6060826121f8576121f38261243b565b611de7565b815115801561220f57506001600160a01b0384163b155b1561223857604051639996b31560e01b81526001600160a01b038516600482015260240161069f565b5080611de7565b600080807f7fffffffffffffffffffffffffffffff5d576e7357a4501ddfe92f46681b20a084111561227a5750600091506003905082612304565b604080516000808252602082018084528a905260ff891692820192909252606081018790526080810186905260019060a0016020604051602081039080840390855afa1580156122ce573d6000803e3d6000fd5b5050604051601f1901519150506001600160a01b0381166122fa57506000925060019150829050612304565b9250600091508190505b9450945094915050565b600082600381111561232257612322612bc2565b0361232b575050565b600182600381111561233f5761233f612bc2565b0361235d5760405163f645eedf60e01b815260040160405180910390fd5b600282600381111561237157612371612bc2565b036123925760405163fce698f760e01b81526004810182905260240161069f565b60038260038111156123a6576123a6612bc2565b0361055e576040516335e2f38360e21b81526004810182905260240161069f565b60007f8b73c3c69bb8fe3d512ecc4cf759cc79239f7b179b0ffacaa9a75d522b39400f6123f2612464565b6123fa6124ce565b60408051602081019490945283019190915260608201524660808201523060a082015260c00160405160208183030381529060405280519060200120905090565b80511561244b5780518082602001fd5b604051630a12f52160e11b815260040160405180910390fd5b6000600080516020612bf98339815191528161247e6117b1565b80519091501561249657805160209091012092915050565b815480156124a5579392505050565b7fc5d2460186f7233c927e7db2dcc703c0e500b653ca82273b7bfad8045d85a470935050505090565b6000600080516020612bf9833981519152816124e8611874565b80519091501561250057805160209091012092915050565b600182015480156124a5579392505050565b6001600160a01b038116811461058f57600080fd5b801515811461058f57600080fd5b6000806040838503121561254857600080fd5b823561255381612512565b9150602083013561256381612527565b809150509250929050565b60006020828403121561258057600080fd5b8135611de781612527565b60006020828403121561259d57600080fd5b5035919050565b600080604083850312156125b757600080fd5b82356125c281612512565b946020939093013593505050565b600080604083850312156125e357600080fd5b82359150602083013561256381612527565b634e487b7160e01b600052604160045260246000fd5b6000806040838503121561261e57600080fd5b823561262981612512565b9150602083013567ffffffffffffffff81111561264557600080fd5b8301601f8101851361265657600080fd5b803567ffffffffffffffff811115612670576126706125f5565b604051601f8201601f19908116603f0116810167ffffffffffffffff8111828210171561269f5761269f6125f5565b6040528181528282016020018710156126b757600080fd5b816020840160208301376000602083830101528093505050509250929050565b600060e082840312156126e957600080fd5b50919050565b600060e0828403121561270157600080fd5b611de783836126d7565b60006020828403121561271d57600080fd5b8135611de781612512565b6000806000610120848603121561273e57600080fd5b61274885856126d7565b925060e0840135915061010084013561276081612527565b809150509250925092565b60005b8381101561278657818101518382015260200161276e565b50506000910152565b600081518084526127a781602086016020860161276b565b601f01601f19169290920160200192915050565b60ff60f81b8816815260e0602082015260006127da60e083018961278f565b82810360408401526127ec818961278f565b606084018890526001600160a01b038716608085015260a0840186905283810360c08501528451808252602080870193509091019060005b81811015612842578351835260209384019390920191600101612824565b50909b9a5050505050505050505050565b602081526000611de7602083018461278f565b60008060006060848603121561287b57600080fd5b833561288681612512565b9250602084013561289681612512565b9150604084013561276081612512565b600080858511156128b657600080fd5b838611156128c357600080fd5b5050820193919092039150565b80356001600160e01b03198116906004841015612901576001600160e01b0319600485900360031b81901b82161691505b5092915050565b6001600160a01b03841681526040602082018190528101829052818360608301376000818301606090810191909152601f909201601f1916010192915050565b634e487b7160e01b600052601160045260246000fd5b8082018082111561062d5761062d612948565b6001600160a01b039384168152919092166020820152604081019190915260600190565b6000602082840312156129a757600080fd5b8151611de781612527565b8181038181111561062d5761062d612948565b6000602082840312156129d757600080fd5b5051919050565b600181811c908216806129f257607f821691505b6020821081036126e957634e487b7160e01b600052602260045260246000fd5b60008251612a2481846020870161276b565b9190910192915050565b60008060408385031215612a4157600080fd5b8251612a4c81612527565b602084015190925063ffffffff8116811461256357600080fd5b600060208284031215612a7857600080fd5b8151611de781612512565b634e487b7160e01b600052601260045260246000fd5b600060208284031215612aab57600080fd5b813560ff81168114611de757600080fd5b601f82111561065a57806000526020600020601f840160051c81016020851015612ae35750805b601f840160051c820191505b81811015610bdf5760008155600101612aef565b815167ffffffffffffffff811115612b1d57612b1d6125f5565b612b3181612b2b84546129de565b84612abc565b6020601f821160018114612b655760008315612b4d5750848201515b600019600385901b1c1916600184901b178455610bdf565b600084815260208120601f198516915b82811015612b955787850151825560209485019460019092019101612b75565b5084821015612bb35786840151600019600387901b60f8161c191681555b50505050600190811b01905550565b634e487b7160e01b600052602160045260246000fdfef3177357ab46d8af007ab3fdb9af81da189e1068fefdc0073dca88a2cab40a00a16a46d94261c7517cc8ff89f61c0ce93598e3c849801011dee649a6a557d100360894a13ba1a3210667c828492db98dca3e2076cc3735a920a3ca505d382bbca264697066735822122035e061eb1520bbf82f78d1ef6ce9adf5f2dc7670fe23ad85a163aa5151aa4ffd64736f6c634300081c0033",
  "linkReferences": {},
  "deployedLinkReferences": {}
}