{
  "_format": "hh-sol-artifact-1",
  "contractName": "OsmiToken",
  "sourceName": "contracts/OsmiToken.sol",
  "abi": [
    {
      "inputs": [],
      "stateMutability": "nonpayable",
      "type": "constructor"
    },
    {
      "inputs": [
        {
          "internalType": "address",
          "name": "authority",
          "type": "address"
        }
      ],
      "name": "AccessManagedInvalidAuthority",
      "type": "error"
    },
    {
      "inputs": [
        {
          "internalType": "address",
          "name": "caller",
          "type": "address"
        },
        {
          "internalType": "uint32",
          "name": "delay",
          "type": "uint32"
        }
      ],
      "name": "AccessManagedRequiredDelay",
      "type": "error"
    },
    {
      "inputs": [
        {
          "internalType": "address",
          "name": "caller",
          "type": "address"
        }
      ],
      "name": "AccessManagedUnauthorized",
      "type": "error"
    },
    {
      "inputs": [
        {
          "internalType": "address",
          "name": "target",
          "type": "address"
        }
      ],
      "name": "AddressEmptyCode",
      "type": "error"
    },
    {
      "inputs": [],
      "name": "ECDSAInvalidSignature",
      "type": "error"
    },
    {
      "inputs": [
        {
          "internalType": "uint256",
          "name": "length",
          "type": "uint256"
        }
      ],
      "name": "ECDSAInvalidSignatureLength",
      "type": "error"
    },
    {
      "inputs": [
        {
          "internalType": "bytes32",
          "name": "s",
          "type": "bytes32"
        }
      ],
      "name": "ECDSAInvalidSignatureS",
      "type": "error"
    },
    {
      "inputs": [
        {
          "internalType": "address",
          "name": "implementation",
          "type": "address"
        }
      ],
      "name": "ERC1967InvalidImplementation",
      "type": "error"
    },
    {
      "inputs": [],
      "name": "ERC1967NonPayable",
      "type": "error"
    },
    {
      "inputs": [
        {
          "internalType": "uint256",
          "name": "increasedSupply",
          "type": "uint256"
        },
        {
          "internalType": "uint256",
          "name": "cap",
          "type": "uint256"
        }
      ],
      "name": "ERC20ExceededCap",
      "type": "error"
    },
    {
      "inputs": [
        {
          "internalType": "address",
          "name": "spender",
          "type": "address"
        },
        {
          "internalType": "uint256",
          "name": "allowance",
          "type": "uint256"
        },
        {
          "internalType": "uint256",
          "name": "needed",
          "type": "uint256"
        }
      ],
      "name": "ERC20InsufficientAllowance",
      "type": "error"
    },
    {
      "inputs": [
        {
          "internalType": "address",
          "name": "sender",
          "type": "address"
        },
        {
          "internalType": "uint256",
          "name": "balance",
          "type": "uint256"
        },
        {
          "internalType": "uint256",
          "name": "needed",
          "type": "uint256"
        }
      ],
      "name": "ERC20InsufficientBalance",
      "type": "error"
    },
    {
      "inputs": [
        {
          "internalType": "address",
          "name": "approver",
          "type": "address"
        }
      ],
      "name": "ERC20InvalidApprover",
      "type": "error"
    },
    {
      "inputs": [
        {
          "internalType": "uint256",
          "name": "cap",
          "type": "uint256"
        }
      ],
      "name": "ERC20InvalidCap",
      "type": "error"
    },
    {
      "inputs": [
        {
          "internalType": "address",
          "name": "receiver",
          "type": "address"
        }
      ],
      "name": "ERC20InvalidReceiver",
      "type": "error"
    },
    {
      "inputs": [
        {
          "internalType": "address",
          "name": "sender",
          "type": "address"
        }
      ],
      "name": "ERC20InvalidSender",
      "type": "error"
    },
    {
      "inputs": [
        {
          "internalType": "address",
          "name": "spender",
          "type": "address"
        }
      ],
      "name": "ERC20InvalidSpender",
      "type": "error"
    },
    {
      "inputs": [
        {
          "internalType": "uint256",
          "name": "deadline",
          "type": "uint256"
        }
      ],
      "name": "ERC2612ExpiredSignature",
      "type": "error"
    },
    {
      "inputs": [
        {
          "internalType": "address",
          "name": "signer",
          "type": "address"
        },
        {
          "internalType": "address",
          "name": "owner",
          "type": "address"
        }
      ],
      "name": "ERC2612InvalidSigner",
      "type": "error"
    },
    {
      "inputs": [],
      "name": "EnforcedPause",
      "type": "error"
    },
    {
      "inputs": [],
      "name": "ExpectedPause",
      "type": "error"
    },
    {
      "inputs": [],
      "name": "FailedInnerCall",
      "type": "error"
    },
    {
      "inputs": [
        {
          "internalType": "address",
          "name": "account",
          "type": "address"
        },
        {
          "internalType": "uint256",
          "name": "currentNonce",
          "type": "uint256"
        }
      ],
      "name": "InvalidAccountNonce",
      "type": "error"
    },
    {
      "inputs": [],
      "name": "InvalidInitialization",
      "type": "error"
    },
    {
      "inputs": [],
      "name": "NotInitializing",
      "type": "error"
    },
    {
      "inputs": [],
      "name": "UUPSUnauthorizedCallContext",
      "type": "error"
    },
    {
      "inputs": [
        {
          "internalType": "bytes32",
          "name": "slot",
          "type": "bytes32"
        }
      ],
      "name": "UUPSUnsupportedProxiableUUID",
      "type": "error"
    },
    {
      "anonymous": false,
      "inputs": [
        {
          "indexed": true,
          "internalType": "address",
          "name": "owner",
          "type": "address"
        },
        {
          "indexed": true,
          "internalType": "address",
          "name": "spender",
          "type": "address"
        },
        {
          "indexed": false,
          "internalType": "uint256",
          "name": "value",
          "type": "uint256"
        }
      ],
      "name": "Approval",
      "type": "event"
    },
    {
      "anonymous": false,
      "inputs": [
        {
          "indexed": false,
          "internalType": "address",
          "name": "authority",
          "type": "address"
        }
      ],
      "name": "AuthorityUpdated",
      "type": "event"
    },
    {
      "anonymous": false,
      "inputs": [],
      "name": "EIP712DomainChanged",
      "type": "event"
    },
    {
      "anonymous": false,
      "inputs": [
        {
          "indexed": false,
          "internalType": "uint64",
          "name": "version",
          "type": "uint64"
        }
      ],
      "name": "Initialized",
      "type": "event"
    },
    {
      "anonymous": false,
      "inputs": [
        {
          "indexed": false,
          "internalType": "address",
          "name": "account",
          "type": "address"
        }
      ],
      "name": "Paused",
      "type": "event"
    },
    {
      "anonymous": false,
      "inputs": [
        {
          "indexed": true,
          "internalType": "address",
          "name": "from",
          "type": "address"
        },
        {
          "indexed": true,
          "internalType": "address",
          "name": "to",
          "type": "address"
        },
        {
          "indexed": false,
          "internalType": "uint256",
          "name": "value",
          "type": "uint256"
        }
      ],
      "name": "Transfer",
      "type": "event"
    },
    {
      "anonymous": false,
      "inputs": [
        {
          "indexed": false,
          "internalType": "address",
          "name": "account",
          "type": "address"
        }
      ],
      "name": "Unpaused",
      "type": "event"
    },
    {
      "anonymous": false,
      "inputs": [
        {
          "indexed": true,
          "internalType": "address",
          "name": "implementation",
          "type": "address"
        }
      ],
      "name": "Upgraded",
      "type": "event"
    },
    {
      "inputs": [],
      "name": "DOMAIN_SEPARATOR",
      "outputs": [
        {
          "internalType": "bytes32",
          "name": "",
          "type": "bytes32"
        }
      ],
      "stateMutability": "view",
      "type": "function"
    },
    {
      "inputs": [],
      "name": "UPGRADE_INTERFACE_VERSION",
      "outputs": [
        {
          "internalType": "string",
          "name": "",
          "type": "string"
        }
      ],
      "stateMutability": "view",
      "type": "function"
    },
    {
      "inputs": [
        {
          "internalType": "address",
          "name": "owner",
          "type": "address"
        },
        {
          "internalType": "address",
          "name": "spender",
          "type": "address"
        }
      ],
      "name": "allowance",
      "outputs": [
        {
          "internalType": "uint256",
          "name": "",
          "type": "uint256"
        }
      ],
      "stateMutability": "view",
      "type": "function"
    },
    {
      "inputs": [
        {
          "internalType": "address",
          "name": "spender",
          "type": "address"
        },
        {
          "internalType": "uint256",
          "name": "value",
          "type": "uint256"
        }
      ],
      "name": "approve",
      "outputs": [
        {
          "internalType": "bool",
          "name": "",
          "type": "bool"
        }
      ],
      "stateMutability": "nonpayable",
      "type": "function"
    },
    {
      "inputs": [],
      "name": "authority",
      "outputs": [
        {
          "internalType": "address",
          "name": "",
          "type": "address"
        }
      ],
      "stateMutability": "view",
      "type": "function"
    },
    {
      "inputs": [
        {
          "internalType": "address",
          "name": "account",
          "type": "address"
        }
      ],
      "name": "balanceOf",
      "outputs": [
        {
          "internalType": "uint256",
          "name": "",
          "type": "uint256"
        }
      ],
      "stateMutability": "view",
      "type": "function"
    },
    {
      "inputs": [
        {
          "internalType": "uint256",
          "name": "value",
          "type": "uint256"
        }
      ],
      "name": "burn",
      "outputs": [],
      "stateMutability": "nonpayable",
      "type": "function"
    },
    {
      "inputs": [
        {
          "internalType": "address",
          "name": "account",
          "type": "address"
        },
        {
          "internalType": "uint256",
          "name": "value",
          "type": "uint256"
        }
      ],
      "name": "burnFrom",
      "outputs": [],
      "stateMutability": "nonpayable",
      "type": "function"
    },
    {
      "inputs": [],
      "name": "cap",
      "outputs": [
        {
          "internalType": "uint256",
          "name": "",
          "type": "uint256"
        }
      ],
      "stateMutability": "view",
      "type": "function"
    },
    {
      "inputs": [],
      "name": "decimals",
      "outputs": [
        {
          "internalType": "uint8",
          "name": "",
          "type": "uint8"
        }
      ],
      "stateMutability": "view",
      "type": "function"
    },
    {
      "inputs": [],
      "name": "eip712Domain",
      "outputs": [
        {
          "internalType": "bytes1",
          "name": "fields",
          "type": "bytes1"
        },
        {
          "internalType": "string",
          "name": "name",
          "type": "string"
        },
        {
          "internalType": "string",
          "name": "version",
          "type": "string"
        },
        {
          "internalType": "uint256",
          "name": "chainId",
          "type": "uint256"
        },
        {
          "internalType": "address",
          "name": "verifyingContract",
          "type": "address"
        },
        {
          "internalType": "bytes32",
          "name": "salt",
          "type": "bytes32"
        },
        {
          "internalType": "uint256[]",
          "name": "extensions",
          "type": "uint256[]"
        }
      ],
      "stateMutability": "view",
      "type": "function"
    },
    {
      "inputs": [
        {
          "internalType": "address",
          "name": "initialAuthority",
          "type": "address"
        }
      ],
      "name": "initialize",
      "outputs": [],
      "stateMutability": "nonpayable",
      "type": "function"
    },
    {
      "inputs": [],
      "name": "isConsumingScheduledOp",
      "outputs": [
        {
          "internalType": "bytes4",
          "name": "",
          "type": "bytes4"
        }
      ],
      "stateMutability": "view",
      "type": "function"
    },
    {
      "inputs": [
        {
          "internalType": "address",
          "name": "to",
          "type": "address"
        },
        {
          "internalType": "uint256",
          "name": "amount",
          "type": "uint256"
        }
      ],
      "name": "mint",
      "outputs": [],
      "stateMutability": "nonpayable",
      "type": "function"
    },
    {
      "inputs": [],
      "name": "name",
      "outputs": [
        {
          "internalType": "string",
          "name": "",
          "type": "string"
        }
      ],
      "stateMutability": "view",
      "type": "function"
    },
    {
      "inputs": [
        {
          "internalType": "address",
          "name": "owner",
          "type": "address"
        }
      ],
      "name": "nonces",
      "outputs": [
        {
          "internalType": "uint256",
          "name": "",
          "type": "uint256"
        }
      ],
      "stateMutability": "view",
      "type": "function"
    },
    {
      "inputs": [],
      "name": "pause",
      "outputs": [],
      "stateMutability": "nonpayable",
      "type": "function"
    },
    {
      "inputs": [],
      "name": "paused",
      "outputs": [
        {
          "internalType": "bool",
          "name": "",
          "type": "bool"
        }
      ],
      "stateMutability": "view",
      "type": "function"
    },
    {
      "inputs": [
        {
          "internalType": "address",
          "name": "owner",
          "type": "address"
        },
        {
          "internalType": "address",
          "name": "spender",
          "type": "address"
        },
        {
          "internalType": "uint256",
          "name": "value",
          "type": "uint256"
        },
        {
          "internalType": "uint256",
          "name": "deadline",
          "type": "uint256"
        },
        {
          "internalType": "uint8",
          "name": "v",
          "type": "uint8"
        },
        {
          "internalType": "bytes32",
          "name": "r",
          "type": "bytes32"
        },
        {
          "internalType": "bytes32",
          "name": "s",
          "type": "bytes32"
        }
      ],
      "name": "permit",
      "outputs": [],
      "stateMutability": "nonpayable",
      "type": "function"
    },
    {
      "inputs": [],
      "name": "proxiableUUID",
      "outputs": [
        {
          "internalType": "bytes32",
          "name": "",
          "type": "bytes32"
        }
      ],
      "stateMutability": "view",
      "type": "function"
    },
    {
      "inputs": [
        {
          "internalType": "address",
          "name": "newAuthority",
          "type": "address"
        }
      ],
      "name": "setAuthority",
      "outputs": [],
      "stateMutability": "nonpayable",
      "type": "function"
    },
    {
      "inputs": [],
      "name": "symbol",
      "outputs": [
        {
          "internalType": "string",
          "name": "",
          "type": "string"
        }
      ],
      "stateMutability": "view",
      "type": "function"
    },
    {
      "inputs": [],
      "name": "totalSupply",
      "outputs": [
        {
          "internalType": "uint256",
          "name": "",
          "type": "uint256"
        }
      ],
      "stateMutability": "view",
      "type": "function"
    },
    {
      "inputs": [
        {
          "internalType": "address",
          "name": "to",
          "type": "address"
        },
        {
          "internalType": "uint256",
          "name": "value",
          "type": "uint256"
        }
      ],
      "name": "transfer",
      "outputs": [
        {
          "internalType": "bool",
          "name": "",
          "type": "bool"
        }
      ],
      "stateMutability": "nonpayable",
      "type": "function"
    },
    {
      "inputs": [
        {
          "internalType": "address",
          "name": "from",
          "type": "address"
        },
        {
          "internalType": "address",
          "name": "to",
          "type": "address"
        },
        {
          "internalType": "uint256",
          "name": "value",
          "type": "uint256"
        }
      ],
      "name": "transferFrom",
      "outputs": [
        {
          "internalType": "bool",
          "name": "",
          "type": "bool"
        }
      ],
      "stateMutability": "nonpayable",
      "type": "function"
    },
    {
      "inputs": [],
      "name": "unpause",
      "outputs": [],
      "stateMutability": "nonpayable",
      "type": "function"
    },
    {
      "inputs": [
        {
          "internalType": "address",
          "name": "newImplementation",
          "type": "address"
        },
        {
          "internalType": "bytes",
          "name": "data",
          "type": "bytes"
        }
      ],
      "name": "upgradeToAndCall",
      "outputs": [],
      "stateMutability": "payable",
      "type": "function"
    }
  ],
  "bytecode": "0x60a06040523060805234801561001457600080fd5b5061001d610022565b6100d4565b7ff0c57e16840df040f15088dc2f81fe391c3923bec73e23a9662efc9c229c6a00805468010000000000000000900460ff16156100725760405163f92ee8a960e01b815260040160405180910390fd5b80546001600160401b03908116146100d15780546001600160401b0319166001600160401b0390811782556040519081527fc7f505b2f371ae2175ee4913f4499e1f2633a7b5936321eed1cdaeb6115181d29060200160405180910390a15b50565b6080516125106100fd60003960008181610e6001528181610e890152610fd001526125106000f3fe60806040526004361061019c5760003560e01c806370a08231116100ec57806395d89b411161008a578063bf7e214f11610064578063bf7e214f146104b4578063c4d66de8146104e1578063d505accf14610501578063dd62ed3e1461052157600080fd5b806395d89b411461044e578063a9059cbb14610463578063ad3cb1cc1461048357600080fd5b80637ecebe00116100c65780637ecebe00146103c35780638456cb59146103e357806384b0196e146103f85780638fb360371461042057600080fd5b806370a082311461036357806379cc6790146103835780637a9e5e4b146103a357600080fd5b80633644e5151161015957806342966c681161013357806342966c68146102f65780634f1ef2861461031657806352d1902d146103295780635c975abb1461033e57600080fd5b80633644e515146102aa5780633f4ba83a146102bf57806340c10f19146102d657600080fd5b806306fdde03146101a1578063095ea7b3146101cc57806318160ddd146101fc57806323b872dd1461023a578063313ce5671461025a578063355274ea14610276575b600080fd5b3480156101ad57600080fd5b506101b6610541565b6040516101c39190611d84565b60405180910390f35b3480156101d857600080fd5b506101ec6101e7366004611db3565b6105ea565b60405190151581526020016101c3565b34801561020857600080fd5b507f52c63247e1f47db19d5ce0460030c497f067ca4cebf71ba98eeadabe20bace02545b6040519081526020016101c3565b34801561024657600080fd5b506101ec610255366004611ddd565b61060c565b34801561026657600080fd5b50604051601281526020016101c3565b34801561028257600080fd5b507f0f070392f17d5f958cc1ac31867dabecfc5c9758b4a419a200803226d7155d005461022c565b3480156102b657600080fd5b5061022c61062c565b3480156102cb57600080fd5b506102d461063b565b005b3480156102e257600080fd5b506102d46102f1366004611db3565b61064e565b34801561030257600080fd5b506102d4610311366004611e1a565b610665565b6102d4610324366004611e49565b610672565b34801561033557600080fd5b5061022c61068d565b34801561034a57600080fd5b506000805160206124bb8339815191525460ff166101ec565b34801561036f57600080fd5b5061022c61037e366004611f13565b6106aa565b34801561038f57600080fd5b506102d461039e366004611db3565b6106dd565b3480156103af57600080fd5b506102d46103be366004611f13565b6106f2565b3480156103cf57600080fd5b5061022c6103de366004611f13565b61077a565b3480156103ef57600080fd5b506102d4610785565b34801561040457600080fd5b5061040d610796565b6040516101c39796959493929190611f2e565b34801561042c57600080fd5b50610435610842565b6040516001600160e01b031990911681526020016101c3565b34801561045a57600080fd5b506101b661087b565b34801561046f57600080fd5b506101ec61047e366004611db3565b6108ba565b34801561048f57600080fd5b506101b6604051806040016040528060058152602001640352e302e360dc1b81525081565b3480156104c057600080fd5b506104c96108cf565b6040516001600160a01b0390911681526020016101c3565b3480156104ed57600080fd5b506102d46104fc366004611f13565b6108eb565b34801561050d57600080fd5b506102d461051c366004611fc6565b610aa2565b34801561052d57600080fd5b5061022c61053c366004612039565b610bfb565b6060600060008051602061245b8339815191525b90508060030180546105669061206c565b80601f01602080910402602001604051908101604052809291908181526020018280546105929061206c565b80156105df5780601f106105b4576101008083540402835291602001916105df565b820191906000526020600020905b8154815290600101906020018083116105c257829003601f168201915b505050505091505090565b60006105f9335b600036610c45565b6106038383610d43565b90505b92915050565b6000610617336105f1565b610622848484610d5b565b90505b9392505050565b6000610636610d7f565b905090565b610644336105f1565b61064c610d89565b565b610657336105f1565b6106618282610de9565b5050565b61066f3382610e1f565b50565b61067a610e55565b61068382610efa565b6106618282610f03565b6000610697610fc5565b5060008051602061249b83398151915290565b60008060008051602061245b8339815191525b6001600160a01b0390931660009081526020939093525050604090205490565b6106e882338361100e565b6106618282610e1f565b336106fb6108cf565b6001600160a01b0316816001600160a01b03161461073b5760405162d1953b60e31b81526001600160a01b03821660048201526024015b60405180910390fd5b816001600160a01b03163b600003610771576040516361798f2f60e11b81526001600160a01b0383166004820152602401610732565b61066182611074565b6000610606826110d5565b61078e336105f1565b61064c6110fe565b6000606080828080838160008051602061247b83398151915280549091501580156107c357506001810154155b6108075760405162461bcd60e51b81526020600482015260156024820152741152540dcc4c8e88155b9a5b9a5d1a585b1a5e9959605a1b6044820152606401610732565b61080f611147565b610817611186565b60408051600080825260208201909252600f60f81b9c939b5091995046985030975095509350915050565b60008051602061243b833981519152805460009190600160a01b900460ff1661086c576000610875565b638fb3603760e01b5b91505090565b7f52c63247e1f47db19d5ce0460030c497f067ca4cebf71ba98eeadabe20bace04805460609160008051602061245b833981519152916105669061206c565b60006108c5336105f1565b610603838361119e565b60008051602061243b833981519152546001600160a01b031690565b7ff0c57e16840df040f15088dc2f81fe391c3923bec73e23a9662efc9c229c6a008054600160401b810460ff16159067ffffffffffffffff166000811580156109315750825b905060008267ffffffffffffffff16600114801561094e5750303b155b90508115801561095c575080155b1561097a5760405163f92ee8a960e01b815260040160405180910390fd5b845467ffffffffffffffff1916600117855583156109a457845460ff60401b1916600160401b1785555b6109e9604051806040016040528060078152602001666f736d692e616960c81b815250604051806040016040528060048152602001634f534d4960e01b8152506111ac565b6109f16111be565b6109f96111c6565b610a1b610a086012600a6121a3565b610a1690633b9aca006121b2565b6111d6565b610a24866111e7565b610a4c604051806040016040528060078152602001666f736d692e616960c81b8152506111f8565b610a546111be565b8315610a9a57845460ff60401b19168555604051600181527fc7f505b2f371ae2175ee4913f4499e1f2633a7b5936321eed1cdaeb6115181d29060200160405180910390a15b505050505050565b83421115610ac65760405163313c898160e11b815260048101859052602401610732565b60007f6e71edae12b1b97f4d1f60370fef10105fa2faae0126114a169c64845d6126c9888888610b328c6001600160a01b031660009081527f5ab42ced628888259c08ac98db1eb0cf702fc1501344311d8b100cd1bfe4bb006020526040902080546001810190915590565b6040805160208101969096526001600160a01b0394851690860152929091166060840152608083015260a082015260c0810186905260e0016040516020818303038152906040528051906020012090506000610b8d82611223565b90506000610b9d82878787611250565b9050896001600160a01b0316816001600160a01b031614610be4576040516325c0072360e11b81526001600160a01b0380831660048301528b166024820152604401610732565b610bef8a8a8a61127e565b50505050505050505050565b6001600160a01b0391821660009081527f52c63247e1f47db19d5ce0460030c497f067ca4cebf71ba98eeadabe20bace016020908152604080832093909416825291909152205490565b60008051602061243b833981519152600080610c80610c626108cf565b8730610c72600460008a8c6121c9565b610c7b916121f3565b61128b565b9150915081610a9a5763ffffffff811615610d2057825460ff60a01b1916600160a01b178355610cae6108cf565b6001600160a01b03166394c7d7ee8787876040518463ffffffff1660e01b8152600401610cdd9392919061222b565b600060405180830381600087803b158015610cf757600080fd5b505af1158015610d0b573d6000803e3d6000fd5b5050845460ff60a01b1916855550610a9a9050565b60405162d1953b60e31b81526001600160a01b0387166004820152602401610732565b600033610d5181858561127e565b5060019392505050565b600033610d6985828561100e565b610d74858585611397565b506001949350505050565b60006106366113f6565b610d9161146a565b6000805160206124bb833981519152805460ff191681557f5db9ee0a495bf2e6ff9c91a7834c1ba4fdd244a5e8aa4e537bd38aeae4b073aa335b6040516001600160a01b03909116815260200160405180910390a150565b6001600160a01b038216610e135760405163ec442f0560e01b815260006004820152602401610732565b6106616000838361149a565b6001600160a01b038216610e4957604051634b637e8f60e11b815260006004820152602401610732565b6106618260008361149a565b306001600160a01b037f0000000000000000000000000000000000000000000000000000000000000000161480610edc57507f00000000000000000000000000000000000000000000000000000000000000006001600160a01b0316610ed060008051602061249b833981519152546001600160a01b031690565b6001600160a01b031614155b1561064c5760405163703e46dd60e11b815260040160405180910390fd5b61066f336105f1565b816001600160a01b03166352d1902d6040518163ffffffff1660e01b8152600401602060405180830381865afa925050508015610f5d575060408051601f3d908101601f19168201909252610f5a9181019061226b565b60015b610f8557604051634c9c8ce360e01b81526001600160a01b0383166004820152602401610732565b60008051602061249b8339815191528114610fb657604051632a87526960e21b815260048101829052602401610732565b610fc083836114a5565b505050565b306001600160a01b037f0000000000000000000000000000000000000000000000000000000000000000161461064c5760405163703e46dd60e11b815260040160405180910390fd5b600061101a8484610bfb565b9050600019811461106e578181101561105f57604051637dc7a0d960e11b81526001600160a01b03841660048201526024810182905260448101839052606401610732565b61106e848484840360006114fb565b50505050565b60008051602061243b83398151915280546001600160a01b0383166001600160a01b03199091168117825560408051918252517f2f658b440c35314f52658ea8a740e05b284cdc84dc9ae01e891f21b8933e7cad9181900360200190a15050565b6000807f5ab42ced628888259c08ac98db1eb0cf702fc1501344311d8b100cd1bfe4bb006106bd565b6111066115e3565b6000805160206124bb833981519152805460ff191660011781557f62e78cea01bee320cd4e420270b5ea74000d11b0c9f74754ebdbfc544b05a25833610dcb565b7fa16a46d94261c7517cc8ff89f61c0ce93598e3c849801011dee649a6a557d102805460609160008051602061247b833981519152916105669061206c565b6060600060008051602061247b833981519152610555565b600033610d51818585611397565b6111b4611614565b610661828261165d565b61064c611614565b6111ce611614565b61064c6116ae565b6111de611614565b61066f816116cf565b6111ef611614565b61066f81611720565b611200611614565b61066f81604051806040016040528060018152602001603160f81b815250611731565b6000610606611230610d7f565b8360405161190160f01b8152600281019290925260228201526042902090565b60008060008061126288888888611792565b9250925092506112728282611861565b50909695505050505050565b610fc083838360016114fb565b6040516001600160a01b03848116602483015283811660448301526001600160e01b03198316606483015260009182918291829189169060840160408051601f198184030181529181526020820180516001600160e01b031663b700961360e01b179052516112fa9190612284565b600060405180830381855afa9150503d8060008114611335576040519150601f19603f3d011682016040523d82523d6000602084013e61133a565b606091505b5091509150811561138c57604081511061136c578080602001905181019061136291906122b0565b909450925061138c565b602081511061138c578080602001905181019061138991906122f0565b93505b505094509492505050565b6001600160a01b0383166113c157604051634b637e8f60e11b815260006004820152602401610732565b6001600160a01b0382166113eb5760405163ec442f0560e01b815260006004820152602401610732565b610fc083838361149a565b60007f8b73c3c69bb8fe3d512ecc4cf759cc79239f7b179b0ffacaa9a75d522b39400f61142161191a565b611429611984565b60408051602081019490945283019190915260608201524660808201523060a082015260c00160405160208183030381529060405280519060200120905090565b6000805160206124bb8339815191525460ff1661064c57604051638dfc202b60e01b815260040160405180910390fd5b610fc08383836119c8565b6114ae82611a64565b6040516001600160a01b038316907fbc7cd75a20ee27fd9adebab32041f755214dbc6bffa90cc0225b39da2e5c2d3b90600090a28051156114f357610fc08282611ac9565b610661611b3f565b60008051602061245b8339815191526001600160a01b0385166115345760405163e602df0560e01b815260006004820152602401610732565b6001600160a01b03841661155e57604051634a1406b160e11b815260006004820152602401610732565b6001600160a01b038086166000908152600183016020908152604080832093881683529290522083905581156115dc57836001600160a01b0316856001600160a01b03167f8c5be1e5ebec7d5bd14f71427d1e84f3dd0314c0f7b2291e5b200ac8c7c3b925856040516115d391815260200190565b60405180910390a35b5050505050565b6000805160206124bb8339815191525460ff161561064c5760405163d93c066560e01b815260040160405180910390fd5b7ff0c57e16840df040f15088dc2f81fe391c3923bec73e23a9662efc9c229c6a0054600160401b900460ff1661064c57604051631afcd79f60e31b815260040160405180910390fd5b611665611614565b60008051602061245b8339815191527f52c63247e1f47db19d5ce0460030c497f067ca4cebf71ba98eeadabe20bace0361169f8482612352565b506004810161106e8382612352565b6116b6611614565b6000805160206124bb833981519152805460ff19169055565b6116d7611614565b7f0f070392f17d5f958cc1ac31867dabecfc5c9758b4a419a200803226d7155d00600082900361171d5760405163392e1e2760e01b815260006004820152602401610732565b55565b611728611614565b61066f81611074565b611739611614565b60008051602061247b8339815191527fa16a46d94261c7517cc8ff89f61c0ce93598e3c849801011dee649a6a557d1026117738482612352565b50600381016117828382612352565b5060008082556001909101555050565b600080807f7fffffffffffffffffffffffffffffff5d576e7357a4501ddfe92f46681b20a08411156117cd5750600091506003905082611857565b604080516000808252602082018084528a905260ff891692820192909252606081018790526080810186905260019060a0016020604051602081039080840390855afa158015611821573d6000803e3d6000fd5b5050604051601f1901519150506001600160a01b03811661184d57506000925060019150829050611857565b9250600091508190505b9450945094915050565b600082600381111561187557611875612411565b0361187e575050565b600182600381111561189257611892612411565b036118b05760405163f645eedf60e01b815260040160405180910390fd5b60028260038111156118c4576118c4612411565b036118e55760405163fce698f760e01b815260048101829052602401610732565b60038260038111156118f9576118f9612411565b03610661576040516335e2f38360e21b815260048101829052602401610732565b600060008051602061247b83398151915281611934611147565b80519091501561194c57805160209091012092915050565b8154801561195b579392505050565b7fc5d2460186f7233c927e7db2dcc703c0e500b653ca82273b7bfad8045d85a470935050505090565b600060008051602061247b8339815191528161199e611186565b8051909150156119b657805160209091012092915050565b6001820154801561195b579392505050565b6119d3838383611b5e565b6001600160a01b038316610fc0576000611a0b7f0f070392f17d5f958cc1ac31867dabecfc5c9758b4a419a200803226d7155d005490565b90506000611a377f52c63247e1f47db19d5ce0460030c497f067ca4cebf71ba98eeadabe20bace025490565b9050818111156115dc5760405163279e7e1560e21b81526004810182905260248101839052604401610732565b806001600160a01b03163b600003611a9a57604051634c9c8ce360e01b81526001600160a01b0382166004820152602401610732565b60008051602061249b83398151915280546001600160a01b0319166001600160a01b0392909216919091179055565b6060600080846001600160a01b031684604051611ae69190612284565b600060405180830381855af49150503d8060008114611b21576040519150601f19603f3d011682016040523d82523d6000602084013e611b26565b606091505b5091509150611b36858383611b71565b95945050505050565b341561064c5760405163b398979f60e01b815260040160405180910390fd5b611b666115e3565b610fc0838383611bcd565b606082611b8657611b8182611d0b565b610625565b8151158015611b9d57506001600160a01b0384163b155b15611bc657604051639996b31560e01b81526001600160a01b0385166004820152602401610732565b5080610625565b60008051602061245b8339815191526001600160a01b038416611c095781816002016000828254611bfe9190612427565b90915550611c7b9050565b6001600160a01b03841660009081526020829052604090205482811015611c5c5760405163391434e360e21b81526001600160a01b03861660048201526024810182905260448101849052606401610732565b6001600160a01b03851660009081526020839052604090209083900390555b6001600160a01b038316611c99576002810180548390039055611cb8565b6001600160a01b03831660009081526020829052604090208054830190555b826001600160a01b0316846001600160a01b03167fddf252ad1be2c89b69c2b068fc378daa952ba7f163c4a11628f55a4df523b3ef84604051611cfd91815260200190565b60405180910390a350505050565b805115611d1b5780518082602001fd5b604051630a12f52160e11b815260040160405180910390fd5b60005b83811015611d4f578181015183820152602001611d37565b50506000910152565b60008151808452611d70816020860160208601611d34565b601f01601f19169290920160200192915050565b6020815260006106036020830184611d58565b80356001600160a01b0381168114611dae57600080fd5b919050565b60008060408385031215611dc657600080fd5b611dcf83611d97565b946020939093013593505050565b600080600060608486031215611df257600080fd5b611dfb84611d97565b9250611e0960208501611d97565b929592945050506040919091013590565b600060208284031215611e2c57600080fd5b5035919050565b634e487b7160e01b600052604160045260246000fd5b60008060408385031215611e5c57600080fd5b611e6583611d97565b9150602083013567ffffffffffffffff811115611e8157600080fd5b8301601f81018513611e9257600080fd5b803567ffffffffffffffff811115611eac57611eac611e33565b604051601f8201601f19908116603f0116810167ffffffffffffffff81118282101715611edb57611edb611e33565b604052818152828201602001871015611ef357600080fd5b816020840160208301376000602083830101528093505050509250929050565b600060208284031215611f2557600080fd5b61060382611d97565b60ff60f81b8816815260e060208201526000611f4d60e0830189611d58565b8281036040840152611f5f8189611d58565b606084018890526001600160a01b038716608085015260a0840186905283810360c08501528451808252602080870193509091019060005b81811015611fb5578351835260209384019390920191600101611f97565b50909b9a5050505050505050505050565b600080600080600080600060e0888a031215611fe157600080fd5b611fea88611d97565b9650611ff860208901611d97565b95506040880135945060608801359350608088013560ff8116811461201c57600080fd5b9699959850939692959460a0840135945060c09093013592915050565b6000806040838503121561204c57600080fd5b61205583611d97565b915061206360208401611d97565b90509250929050565b600181811c9082168061208057607f821691505b6020821081036120a057634e487b7160e01b600052602260045260246000fd5b50919050565b634e487b7160e01b600052601160045260246000fd5b6001815b60018411156120f7578085048111156120db576120db6120a6565b60018416156120e957908102905b60019390931c9280026120c0565b935093915050565b60008261210e57506001610606565b8161211b57506000610606565b8160018114612131576002811461213b57612157565b6001915050610606565b60ff84111561214c5761214c6120a6565b50506001821b610606565b5060208310610133831016604e8410600b841016171561217a575081810a610606565b61218760001984846120bc565b806000190482111561219b5761219b6120a6565b029392505050565b600061060360ff8416836120ff565b8082028115828204841417610606576106066120a6565b600080858511156121d957600080fd5b838611156121e657600080fd5b5050820193919092039150565b80356001600160e01b03198116906004841015612224576001600160e01b0319600485900360031b81901b82161691505b5092915050565b6001600160a01b03841681526040602082018190528101829052818360608301376000818301606090810191909152601f909201601f1916010192915050565b60006020828403121561227d57600080fd5b5051919050565b60008251612296818460208701611d34565b9190910192915050565b80518015158114611dae57600080fd5b600080604083850312156122c357600080fd5b6122cc836122a0565b9150602083015163ffffffff811681146122e557600080fd5b809150509250929050565b60006020828403121561230257600080fd5b610603826122a0565b601f821115610fc057806000526020600020601f840160051c810160208510156123325750805b601f840160051c820191505b818110156115dc576000815560010161233e565b815167ffffffffffffffff81111561236c5761236c611e33565b6123808161237a845461206c565b8461230b565b6020601f8211600181146123b4576000831561239c5750848201515b600019600385901b1c1916600184901b1784556115dc565b600084815260208120601f198516915b828110156123e457878501518255602094850194600190920191016123c4565b50848210156124025786840151600019600387901b60f8161c191681555b50505050600190811b01905550565b634e487b7160e01b600052602160045260246000fd5b80820180821115610606576106066120a656fef3177357ab46d8af007ab3fdb9af81da189e1068fefdc0073dca88a2cab40a0052c63247e1f47db19d5ce0460030c497f067ca4cebf71ba98eeadabe20bace00a16a46d94261c7517cc8ff89f61c0ce93598e3c849801011dee649a6a557d100360894a13ba1a3210667c828492db98dca3e2076cc3735a920a3ca505d382bbccd5ed15c6e187e77e9aee88184c21f4f2182ab5827cb3b7e07fbedcd63f03300a2646970667358221220e1fc254c87edd34f0a4febe49b6b1718280c494b3a98a71ef3eb79bfa155c91164736f6c634300081c0033",
  "linkReferences": {},
  "deployedLinkReferences": {}
}