{
  "_format": "hh-sol-artifact-1",
  "contractName": "OsmiNode",
  "sourceName": "contracts/OsmiNode.sol",
  "abi": [
    {
      "inputs": [],
      "stateMutability": "nonpayable",
      "type": "constructor"
    },
    {
      "inputs": [
        {
          "internalType": "address",
          "name": "authority",
          "type": "address"
        }
      ],
      "name": "AccessManagedInvalidAuthority",
      "type": "error"
    },
    {
      "inputs": [
        {
          "internalType": "address",
          "name": "caller",
          "type": "address"
        },
        {
          "internalType": "uint32",
          "name": "delay",
          "type": "uint32"
        }
      ],
      "name": "AccessManagedRequiredDelay",
      "type": "error"
    },
    {
      "inputs": [
        {
          "internalType": "address",
          "name": "caller",
          "type": "address"
        }
      ],
      "name": "AccessManagedUnauthorized",
      "type": "error"
    },
    {
      "inputs": [
        {
          "internalType": "address",
          "name": "target",
          "type": "address"
        }
      ],
      "name": "AddressEmptyCode",
      "type": "error"
    },
    {
      "inputs": [
        {
          "internalType": "address",
          "name": "implementation",
          "type": "address"
        }
      ],
      "name": "ERC1967InvalidImplementation",
      "type": "error"
    },
    {
      "inputs": [],
      "name": "ERC1967NonPayable",
      "type": "error"
    },
    {
      "inputs": [
        {
          "internalType": "address",
          "name": "sender",
          "type": "address"
        },
        {
          "internalType": "uint256",
          "name": "tokenId",
          "type": "uint256"
        },
        {
          "internalType": "address",
          "name": "owner",
          "type": "address"
        }
      ],
      "name": "ERC721IncorrectOwner",
      "type": "error"
    },
    {
      "inputs": [
        {
          "internalType": "address",
          "name": "operator",
          "type": "address"
        },
        {
          "internalType": "uint256",
          "name": "tokenId",
          "type": "uint256"
        }
      ],
      "name": "ERC721InsufficientApproval",
      "type": "error"
    },
    {
      "inputs": [
        {
          "internalType": "address",
          "name": "approver",
          "type": "address"
        }
      ],
      "name": "ERC721InvalidApprover",
      "type": "error"
    },
    {
      "inputs": [
        {
          "internalType": "address",
          "name": "operator",
          "type": "address"
        }
      ],
      "name": "ERC721InvalidOperator",
      "type": "error"
    },
    {
      "inputs": [
        {
          "internalType": "address",
          "name": "owner",
          "type": "address"
        }
      ],
      "name": "ERC721InvalidOwner",
      "type": "error"
    },
    {
      "inputs": [
        {
          "internalType": "address",
          "name": "receiver",
          "type": "address"
        }
      ],
      "name": "ERC721InvalidReceiver",
      "type": "error"
    },
    {
      "inputs": [
        {
          "internalType": "address",
          "name": "sender",
          "type": "address"
        }
      ],
      "name": "ERC721InvalidSender",
      "type": "error"
    },
    {
      "inputs": [
        {
          "internalType": "uint256",
          "name": "tokenId",
          "type": "uint256"
        }
      ],
      "name": "ERC721NonexistentToken",
      "type": "error"
    },
    {
      "inputs": [],
      "name": "FailedInnerCall",
      "type": "error"
    },
    {
      "inputs": [],
      "name": "InvalidInitialization",
      "type": "error"
    },
    {
      "inputs": [],
      "name": "NotInitializing",
      "type": "error"
    },
    {
      "inputs": [
        {
          "internalType": "uint256",
          "name": "tokenId",
          "type": "uint256"
        },
        {
          "internalType": "uint256",
          "name": "lockedUntil",
          "type": "uint256"
        }
      ],
      "name": "OsmiNodeTransferLocked",
      "type": "error"
    },
    {
      "inputs": [],
      "name": "UUPSUnauthorizedCallContext",
      "type": "error"
    },
    {
      "inputs": [
        {
          "internalType": "bytes32",
          "name": "slot",
          "type": "bytes32"
        }
      ],
      "name": "UUPSUnsupportedProxiableUUID",
      "type": "error"
    },
    {
      "anonymous": false,
      "inputs": [
        {
          "indexed": true,
          "internalType": "address",
          "name": "owner",
          "type": "address"
        },
        {
          "indexed": true,
          "internalType": "address",
          "name": "approved",
          "type": "address"
        },
        {
          "indexed": true,
          "internalType": "uint256",
          "name": "tokenId",
          "type": "uint256"
        }
      ],
      "name": "Approval",
      "type": "event"
    },
    {
      "anonymous": false,
      "inputs": [
        {
          "indexed": true,
          "internalType": "address",
          "name": "owner",
          "type": "address"
        },
        {
          "indexed": true,
          "internalType": "address",
          "name": "operator",
          "type": "address"
        },
        {
          "indexed": false,
          "internalType": "bool",
          "name": "approved",
          "type": "bool"
        }
      ],
      "name": "ApprovalForAll",
      "type": "event"
    },
    {
      "anonymous": false,
      "inputs": [
        {
          "indexed": false,
          "internalType": "address",
          "name": "authority",
          "type": "address"
        }
      ],
      "name": "AuthorityUpdated",
      "type": "event"
    },
    {
      "anonymous": false,
      "inputs": [
        {
          "indexed": false,
          "internalType": "uint64",
          "name": "version",
          "type": "uint64"
        }
      ],
      "name": "Initialized",
      "type": "event"
    },
    {
      "anonymous": false,
      "inputs": [
        {
          "indexed": false,
          "internalType": "uint256",
          "name": "tokenId",
          "type": "uint256"
        },
        {
          "indexed": false,
          "internalType": "uint256",
          "name": "lockedUntil",
          "type": "uint256"
        }
      ],
      "name": "OsmiNodeTransferLockUpdated",
      "type": "event"
    },
    {
      "anonymous": false,
      "inputs": [
        {
          "indexed": true,
          "internalType": "address",
          "name": "from",
          "type": "address"
        },
        {
          "indexed": true,
          "internalType": "address",
          "name": "to",
          "type": "address"
        },
        {
          "indexed": true,
          "internalType": "uint256",
          "name": "tokenId",
          "type": "uint256"
        }
      ],
      "name": "Transfer",
      "type": "event"
    },
    {
      "anonymous": false,
      "inputs": [
        {
          "indexed": true,
          "internalType": "address",
          "name": "implementation",
          "type": "address"
        }
      ],
      "name": "Upgraded",
      "type": "event"
    },
    {
      "inputs": [],
      "name": "InitialTransferLockDurationOnMint",
      "outputs": [
        {
          "internalType": "uint256",
          "name": "",
          "type": "uint256"
        }
      ],
      "stateMutability": "view",
      "type": "function"
    },
    {
      "inputs": [],
      "name": "UPGRADE_INTERFACE_VERSION",
      "outputs": [
        {
          "internalType": "string",
          "name": "",
          "type": "string"
        }
      ],
      "stateMutability": "view",
      "type": "function"
    },
    {
      "inputs": [
        {
          "internalType": "address",
          "name": "to",
          "type": "address"
        },
        {
          "internalType": "uint256",
          "name": "tokenId",
          "type": "uint256"
        }
      ],
      "name": "approve",
      "outputs": [],
      "stateMutability": "nonpayable",
      "type": "function"
    },
    {
      "inputs": [],
      "name": "authority",
      "outputs": [
        {
          "internalType": "address",
          "name": "",
          "type": "address"
        }
      ],
      "stateMutability": "view",
      "type": "function"
    },
    {
      "inputs": [
        {
          "internalType": "address",
          "name": "owner",
          "type": "address"
        }
      ],
      "name": "balanceOf",
      "outputs": [
        {
          "internalType": "uint256",
          "name": "",
          "type": "uint256"
        }
      ],
      "stateMutability": "view",
      "type": "function"
    },
    {
      "inputs": [
        {
          "internalType": "uint256",
          "name": "tokenId",
          "type": "uint256"
        }
      ],
      "name": "getApproved",
      "outputs": [
        {
          "internalType": "address",
          "name": "",
          "type": "address"
        }
      ],
      "stateMutability": "view",
      "type": "function"
    },
    {
      "inputs": [],
      "name": "getTotalSupply",
      "outputs": [
        {
          "internalType": "uint256",
          "name": "",
          "type": "uint256"
        }
      ],
      "stateMutability": "view",
      "type": "function"
    },
    {
      "inputs": [
        {
          "internalType": "uint256",
          "name": "tokenId",
          "type": "uint256"
        }
      ],
      "name": "getTransferLockedUntil",
      "outputs": [
        {
          "internalType": "uint256",
          "name": "",
          "type": "uint256"
        }
      ],
      "stateMutability": "view",
      "type": "function"
    },
    {
      "inputs": [
        {
          "internalType": "address",
          "name": "initialAuthority",
          "type": "address"
        }
      ],
      "name": "initialize",
      "outputs": [],
      "stateMutability": "nonpayable",
      "type": "function"
    },
    {
      "inputs": [
        {
          "internalType": "address",
          "name": "owner",
          "type": "address"
        },
        {
          "internalType": "address",
          "name": "operator",
          "type": "address"
        }
      ],
      "name": "isApprovedForAll",
      "outputs": [
        {
          "internalType": "bool",
          "name": "",
          "type": "bool"
        }
      ],
      "stateMutability": "view",
      "type": "function"
    },
    {
      "inputs": [],
      "name": "isConsumingScheduledOp",
      "outputs": [
        {
          "internalType": "bytes4",
          "name": "",
          "type": "bytes4"
        }
      ],
      "stateMutability": "view",
      "type": "function"
    },
    {
      "inputs": [
        {
          "internalType": "uint256",
          "name": "tokenId",
          "type": "uint256"
        }
      ],
      "name": "isTransferLocked",
      "outputs": [
        {
          "internalType": "bool",
          "name": "",
          "type": "bool"
        },
        {
          "internalType": "uint256",
          "name": "",
          "type": "uint256"
        }
      ],
      "stateMutability": "view",
      "type": "function"
    },
    {
      "inputs": [],
      "name": "name",
      "outputs": [
        {
          "internalType": "string",
          "name": "",
          "type": "string"
        }
      ],
      "stateMutability": "view",
      "type": "function"
    },
    {
      "inputs": [
        {
          "internalType": "uint256",
          "name": "tokenId",
          "type": "uint256"
        }
      ],
      "name": "ownerOf",
      "outputs": [
        {
          "internalType": "address",
          "name": "",
          "type": "address"
        }
      ],
      "stateMutability": "view",
      "type": "function"
    },
    {
      "inputs": [],
      "name": "proxiableUUID",
      "outputs": [
        {
          "internalType": "bytes32",
          "name": "",
          "type": "bytes32"
        }
      ],
      "stateMutability": "view",
      "type": "function"
    },
    {
      "inputs": [
        {
          "internalType": "address",
          "name": "to",
          "type": "address"
        }
      ],
      "name": "safeMint",
      "outputs": [],
      "stateMutability": "nonpayable",
      "type": "function"
    },
    {
      "inputs": [
        {
          "internalType": "address",
          "name": "from",
          "type": "address"
        },
        {
          "internalType": "address",
          "name": "to",
          "type": "address"
        },
        {
          "internalType": "uint256",
          "name": "tokenId",
          "type": "uint256"
        }
      ],
      "name": "safeTransferFrom",
      "outputs": [],
      "stateMutability": "nonpayable",
      "type": "function"
    },
    {
      "inputs": [
        {
          "internalType": "address",
          "name": "from",
          "type": "address"
        },
        {
          "internalType": "address",
          "name": "to",
          "type": "address"
        },
        {
          "internalType": "uint256",
          "name": "tokenId",
          "type": "uint256"
        },
        {
          "internalType": "bytes",
          "name": "data",
          "type": "bytes"
        }
      ],
      "name": "safeTransferFrom",
      "outputs": [],
      "stateMutability": "nonpayable",
      "type": "function"
    },
    {
      "inputs": [
        {
          "internalType": "address",
          "name": "operator",
          "type": "address"
        },
        {
          "internalType": "bool",
          "name": "approved",
          "type": "bool"
        }
      ],
      "name": "setApprovalForAll",
      "outputs": [],
      "stateMutability": "nonpayable",
      "type": "function"
    },
    {
      "inputs": [
        {
          "internalType": "address",
          "name": "newAuthority",
          "type": "address"
        }
      ],
      "name": "setAuthority",
      "outputs": [],
      "stateMutability": "nonpayable",
      "type": "function"
    },
    {
      "inputs": [
        {
          "internalType": "uint256",
          "name": "duration",
          "type": "uint256"
        }
      ],
      "name": "setTransferLockDurationOnMint",
      "outputs": [],
      "stateMutability": "nonpayable",
      "type": "function"
    },
    {
      "inputs": [
        {
          "internalType": "uint256",
          "name": "tokenId",
          "type": "uint256"
        },
        {
          "internalType": "uint256",
          "name": "lockedUntil",
          "type": "uint256"
        }
      ],
      "name": "setTransferLockedUntil",
      "outputs": [],
      "stateMutability": "nonpayable",
      "type": "function"
    },
    {
      "inputs": [
        {
          "internalType": "bytes4",
          "name": "interfaceId",
          "type": "bytes4"
        }
      ],
      "name": "supportsInterface",
      "outputs": [
        {
          "internalType": "bool",
          "name": "",
          "type": "bool"
        }
      ],
      "stateMutability": "view",
      "type": "function"
    },
    {
      "inputs": [],
      "name": "symbol",
      "outputs": [
        {
          "internalType": "string",
          "name": "",
          "type": "string"
        }
      ],
      "stateMutability": "view",
      "type": "function"
    },
    {
      "inputs": [
        {
          "internalType": "uint256",
          "name": "tokenId",
          "type": "uint256"
        }
      ],
      "name": "tokenURI",
      "outputs": [
        {
          "internalType": "string",
          "name": "",
          "type": "string"
        }
      ],
      "stateMutability": "view",
      "type": "function"
    },
    {
      "inputs": [
        {
          "internalType": "address",
          "name": "from",
          "type": "address"
        },
        {
          "internalType": "address",
          "name": "to",
          "type": "address"
        },
        {
          "internalType": "uint256",
          "name": "tokenId",
          "type": "uint256"
        }
      ],
      "name": "transferFrom",
      "outputs": [],
      "stateMutability": "nonpayable",
      "type": "function"
    },
    {
      "inputs": [
        {
          "internalType": "address",
          "name": "newImplementation",
          "type": "address"
        },
        {
          "internalType": "bytes",
          "name": "data",
          "type": "bytes"
        }
      ],
      "name": "upgradeToAndCall",
      "outputs": [],
      "stateMutability": "payable",
      "type": "function"
    }
  ],
  "bytecode": "0x60a06040523060805234801561001457600080fd5b5061001d610022565b6100d4565b7ff0c57e16840df040f15088dc2f81fe391c3923bec73e23a9662efc9c229c6a00805468010000000000000000900460ff16156100725760405163f92ee8a960e01b815260040160405180910390fd5b80546001600160401b03908116146100d15780546001600160401b0319166001600160401b0390811782556040519081527fc7f505b2f371ae2175ee4913f4499e1f2633a7b5936321eed1cdaeb6115181d29060200160405180910390a15b50565b6080516122b86100fd60003960008181610e9601528181610ebf015261100301526122b86000f3fe60806040526004361061019c5760003560e01c80638fb36037116100ec578063c4d66de81161008a578063c87b56dd11610064578063c87b56dd146104f9578063d8f0c00214610519578063e272a56114610531578063e985e9c51461055157600080fd5b8063c4d66de814610485578063c4e41b22146104a5578063c4fd6877146104d957600080fd5b8063a22cb465116100c6578063a22cb465146103ff578063ad3cb1cc1461041f578063b88d4fde14610450578063bf7e214f1461047057600080fd5b80638fb360371461036857806395d89b41146103965780639913627f146103ab57600080fd5b806342842e0e1161015957806352d1902d1161013357806352d1902d146102f35780636352211e1461030857806370a08231146103285780637a9e5e4b1461034857600080fd5b806342842e0e146102925780634c119a46146102b25780634f1ef286146102e057600080fd5b806301ffc9a7146101a157806306fdde03146101d6578063081812fc146101f8578063095ea7b31461023057806323b872dd1461025257806340d097c314610272575b600080fd5b3480156101ad57600080fd5b506101c16101bc366004611b7c565b610571565b60405190151581526020015b60405180910390f35b3480156101e257600080fd5b506101eb6105c3565b6040516101cd9190611be9565b34801561020457600080fd5b50610218610213366004611bfc565b610667565b6040516001600160a01b0390911681526020016101cd565b34801561023c57600080fd5b5061025061024b366004611c31565b61067c565b005b34801561025e57600080fd5b5061025061026d366004611c5b565b61068b565b34801561027e57600080fd5b5061025061028d366004611c98565b61071b565b34801561029e57600080fd5b506102506102ad366004611c5b565b610787565b3480156102be57600080fd5b506102d26102cd366004611bfc565b6107a2565b6040519081526020016101cd565b6102506102ee366004611d58565b6107cf565b3480156102ff57600080fd5b506102d26107ea565b34801561031457600080fd5b50610218610323366004611bfc565b610807565b34801561033457600080fd5b506102d2610343366004611c98565b610812565b34801561035457600080fd5b50610250610363366004611c98565b61086e565b34801561037457600080fd5b5061037d6108f1565b6040516001600160e01b031990911681526020016101cd565b3480156103a257600080fd5b506101eb61092a565b3480156103b757600080fd5b506103e86103c6366004611bfc565b6000908152600080516020612220833981519152602052604090205442811191565b6040805192151583526020830191909152016101cd565b34801561040b57600080fd5b5061025061041a366004611db4565b610969565b34801561042b57600080fd5b506101eb604051806040016040528060058152602001640352e302e360dc1b81525081565b34801561045c57600080fd5b5061025061046b366004611deb565b610974565b34801561047c57600080fd5b5061021861098b565b34801561049157600080fd5b506102506104a0366004611c98565b6109a7565b3480156104b157600080fd5b507f9f791d4738865ba7c779eecd51509000f816d1d2e37f69177c0f7c39eff80000546102d2565b3480156104e557600080fd5b506102506104f4366004611e53565b610b15565b34801561050557600080fd5b506101eb610514366004611bfc565b610b32565b34801561052557600080fd5b506102d26301e1338081565b34801561053d57600080fd5b5061025061054c366004611bfc565b610b9a565b34801561055d57600080fd5b506101c161056c366004611e75565b610bce565b60006001600160e01b031982166380ac58cd60e01b14806105a257506001600160e01b03198216635b5e139f60e01b145b806105bd57506301ffc9a760e01b6001600160e01b03198316145b92915050565b60008051602061220083398151915280546060919081906105e390611ea8565b80601f016020809104026020016040519081016040528092919081815260200182805461060f90611ea8565b801561065c5780601f106106315761010080835404028352916020019161065c565b820191906000526020600020905b81548152906001019060200180831161063f57829003601f168201915b505050505091505090565b600061067282610c1b565b506105bd82610c53565b610687828233610c8d565b5050565b6001600160a01b0382166106ba57604051633250574960e11b8152600060048201526024015b60405180910390fd5b60006106c7838333610c9a565b9050836001600160a01b0316816001600160a01b031614610715576040516364283d7b60e01b81526001600160a01b03808616600483015260248201849052821660448201526064016106b1565b50505050565b610728335b600036610cf5565b7f9f791d4738865ba7c779eecd51509000f816d1d2e37f69177c0f7c39eff800008054600090828261075983611ef8565b919050559050610778818360010154426107739190611f11565b610df3565b6107828382610e71565b505050565b61078283838360405180602001604052806000815250610974565b60006107ad82610c1b565b50600082815260008051602061222083398151915260205260409020546105bd565b6107d7610e8b565b6107e082610f32565b6106878282610f3b565b60006107f4610ff8565b5060008051602061226383398151915290565b60006105bd82610c1b565b60006000805160206122008339815191526001600160a01b03831661084d576040516322718ad960e21b8152600060048201526024016106b1565b6001600160a01b039092166000908152600390920160205250604090205490565b3361087761098b565b6001600160a01b0316816001600160a01b0316146108b25760405162d1953b60e31b81526001600160a01b03821660048201526024016106b1565b816001600160a01b03163b6000036108e8576040516361798f2f60e11b81526001600160a01b03831660048201526024016106b1565b61068782611041565b6000805160206121e0833981519152805460009190600160a01b900460ff1661091b576000610924565b638fb3603760e01b5b91505090565b7f80bb2b638cc20bc4d0a60d66940f3ab4a00c1d7b313497ca82fb0b4ab00793018054606091600080516020612200833981519152916105e390611ea8565b6106873383836110a2565b61097f84848461068b565b61071584848484611153565b6000805160206121e0833981519152546001600160a01b031690565b7ff0c57e16840df040f15088dc2f81fe391c3923bec73e23a9662efc9c229c6a008054600160401b810460ff16159067ffffffffffffffff166000811580156109ed5750825b905060008267ffffffffffffffff166001148015610a0a5750303b155b905081158015610a18575080155b15610a365760405163f92ee8a960e01b815260040160405180910390fd5b845467ffffffffffffffff191660011785558315610a6057845460ff60401b1916600160401b1785555b610aae6040518060400160405280600c81526020016b4f736d69204149204e6f646560a01b815250604051806040016040528060088152602001674f736d694e6f646560c01b81525061127c565b610ab78661128e565b610abf61129f565b610ac76112a7565b8315610b0d57845460ff60401b19168555604051600181527fc7f505b2f371ae2175ee4913f4499e1f2633a7b5936321eed1cdaeb6115181d29060200160405180910390a15b505050505050565b610b1e33610720565b610b2782610c1b565b506106878282610df3565b6060610b3d82610c1b565b506000610b486112d8565b90506000815111610b685760405180602001604052806000815250610b93565b80610b72846112f8565b604051602001610b83929190611f24565b6040516020818303038152906040525b9392505050565b610ba333610720565b610bcb817f9f791d4738865ba7c779eecd51509000f816d1d2e37f69177c0f7c39eff8000155565b50565b6001600160a01b0391821660009081527f80bb2b638cc20bc4d0a60d66940f3ab4a00c1d7b313497ca82fb0b4ab00793056020908152604080832093909416825291909152205460ff1690565b600080610c278361138b565b90506001600160a01b0381166105bd57604051637e27328960e01b8152600481018490526024016106b1565b60009081527f80bb2b638cc20bc4d0a60d66940f3ab4a00c1d7b313497ca82fb0b4ab007930460205260409020546001600160a01b031690565b61078283838360016113c5565b6000828152600080516020612220833981519152602052604081205442811115610ce15760405163045e912960e31b815260048101859052602481018290526044016106b1565b610cec8585856114db565b95945050505050565b6000805160206121e0833981519152600080610d30610d1261098b565b8730610d22600460008a8c611f53565b610d2b91611f7d565b6115e5565b9150915081610b0d5763ffffffff811615610dd057825460ff60a01b1916600160a01b178355610d5e61098b565b6001600160a01b03166394c7d7ee8787876040518463ffffffff1660e01b8152600401610d8d93929190611fb5565b600060405180830381600087803b158015610da757600080fd5b505af1158015610dbb573d6000803e3d6000fd5b5050845460ff60a01b1916855550610b0d9050565b60405162d1953b60e31b81526001600160a01b03871660048201526024016106b1565b60008281526000805160206122208339815191526020908152604091829020839055815184815290810183905281517f9f791d4738865ba7c779eecd51509000f816d1d2e37f69177c0f7c39eff80000927fbb83344d2ed829c24bb3ebbb518d53a2ab011c0c6b97b964ea5da15b6a83d792928290030190a1505050565b6106878282604051806020016040528060008152506116f1565b306001600160a01b037f0000000000000000000000000000000000000000000000000000000000000000161480610f1257507f00000000000000000000000000000000000000000000000000000000000000006001600160a01b0316610f06600080516020612263833981519152546001600160a01b031690565b6001600160a01b031614155b15610f305760405163703e46dd60e11b815260040160405180910390fd5b565b610bcb33610720565b816001600160a01b03166352d1902d6040518163ffffffff1660e01b8152600401602060405180830381865afa925050508015610f95575060408051601f3d908101601f19168201909252610f9291810190611ff5565b60015b610fbd57604051634c9c8ce360e01b81526001600160a01b03831660048201526024016106b1565b6000805160206122638339815191528114610fee57604051632a87526960e21b8152600481018290526024016106b1565b6107828383611708565b306001600160a01b037f00000000000000000000000000000000000000000000000000000000000000001614610f305760405163703e46dd60e11b815260040160405180910390fd5b6000805160206121e083398151915280546001600160a01b0383166001600160a01b03199091168117825560408051918252517f2f658b440c35314f52658ea8a740e05b284cdc84dc9ae01e891f21b8933e7cad9181900360200190a15050565b6000805160206122008339815191526001600160a01b0383166110e357604051630b61174360e31b81526001600160a01b03841660048201526024016106b1565b6001600160a01b038481166000818152600584016020908152604080832094881680845294825291829020805460ff191687151590811790915591519182527f17307eab39ab6107e8899845ad3d59bd9653f200f220920489ca2b5937696c31910160405180910390a350505050565b6001600160a01b0383163b1561071557604051630a85bd0160e11b81526001600160a01b0384169063150b7a029061119590339088908790879060040161200e565b6020604051808303816000875af19250505080156111d0575060408051601f3d908101601f191682019092526111cd9181019061204b565b60015b611239573d8080156111fe576040519150601f19603f3d011682016040523d82523d6000602084013e611203565b606091505b50805160000361123157604051633250574960e11b81526001600160a01b03851660048201526024016106b1565b805181602001fd5b6001600160e01b03198116630a85bd0160e11b1461127557604051633250574960e11b81526001600160a01b03851660048201526024016106b1565b5050505050565b61128461175e565b61068782826117a7565b61129661175e565b610bcb816117d8565b610f3061175e565b6112af61175e565b6301e133807f9f791d4738865ba7c779eecd51509000f816d1d2e37f69177c0f7c39eff8000155565b606060405180606001604052806023815260200161224060239139905090565b60606000611305836117e9565b600101905060008167ffffffffffffffff81111561132557611325611cb3565b6040519080825280601f01601f19166020018201604052801561134f576020820181803683370190505b5090508181016020015b600019016f181899199a1a9b1b9c1cb0b131b232b360811b600a86061a8153600a850494508461135957509392505050565b60009081527f80bb2b638cc20bc4d0a60d66940f3ab4a00c1d7b313497ca82fb0b4ab007930260205260409020546001600160a01b031690565b60008051602061220083398151915281806113e857506001600160a01b03831615155b156114aa5760006113f885610c1b565b90506001600160a01b038416158015906114245750836001600160a01b0316816001600160a01b031614155b801561143757506114358185610bce565b155b156114605760405163a9fbf51f60e01b81526001600160a01b03851660048201526024016106b1565b82156114a85784866001600160a01b0316826001600160a01b03167f8c5be1e5ebec7d5bd14f71427d1e84f3dd0314c0f7b2291e5b200ac8c7c3b92560405160405180910390a45b505b600093845260040160205250506040902080546001600160a01b0319166001600160a01b0392909216919091179055565b6000600080516020612200833981519152816114f68561138b565b90506001600160a01b03841615611512576115128185876118c1565b6001600160a01b038116156115525761152f6000866000806113c5565b6001600160a01b0381166000908152600383016020526040902080546000190190555b6001600160a01b03861615611583576001600160a01b03861660009081526003830160205260409020805460010190555b600085815260028301602052604080822080546001600160a01b0319166001600160a01b038a811691821790925591518893918516917fddf252ad1be2c89b69c2b068fc378daa952ba7f163c4a11628f55a4df523b3ef91a495945050505050565b6040516001600160a01b03848116602483015283811660448301526001600160e01b03198316606483015260009182918291829189169060840160408051601f198184030181529181526020820180516001600160e01b031663b700961360e01b179052516116549190612068565b600060405180830381855afa9150503d806000811461168f576040519150601f19603f3d011682016040523d82523d6000602084013e611694565b606091505b509150915081156116e65760408151106116c657808060200190518101906116bc9190612084565b90945092506116e6565b60208151106116e657808060200190518101906116e391906120bc565b93505b505094509492505050565b6116fb8383611925565b6107826000848484611153565b6117118261198a565b6040516001600160a01b038316907fbc7cd75a20ee27fd9adebab32041f755214dbc6bffa90cc0225b39da2e5c2d3b90600090a28051156117565761078282826119ef565b610687611a5c565b7ff0c57e16840df040f15088dc2f81fe391c3923bec73e23a9662efc9c229c6a0054600160401b900460ff16610f3057604051631afcd79f60e31b815260040160405180910390fd5b6117af61175e565b600080516020612200833981519152806117c98482612120565b50600181016107158382612120565b6117e061175e565b610bcb81611041565b60008072184f03e93ff9f4daa797ed6e38ed64bf6a1f0160401b83106118285772184f03e93ff9f4daa797ed6e38ed64bf6a1f0160401b830492506040015b6d04ee2d6d415b85acef81000000008310611854576d04ee2d6d415b85acef8100000000830492506020015b662386f26fc10000831061187257662386f26fc10000830492506010015b6305f5e100831061188a576305f5e100830492506008015b612710831061189e57612710830492506004015b606483106118b0576064830492506002015b600a83106105bd5760010192915050565b6118cc838383611a7b565b610782576001600160a01b0383166118fa57604051637e27328960e01b8152600481018290526024016106b1565b60405163177e802f60e01b81526001600160a01b0383166004820152602481018290526044016106b1565b6001600160a01b03821661194f57604051633250574960e11b8152600060048201526024016106b1565b600061195d83836000610c9a565b90506001600160a01b03811615610782576040516339e3563760e11b8152600060048201526024016106b1565b806001600160a01b03163b6000036119c057604051634c9c8ce360e01b81526001600160a01b03821660048201526024016106b1565b60008051602061226383398151915280546001600160a01b0319166001600160a01b0392909216919091179055565b6060600080846001600160a01b031684604051611a0c9190612068565b600060405180830381855af49150503d8060008114611a47576040519150601f19603f3d011682016040523d82523d6000602084013e611a4c565b606091505b5091509150610cec858383611ae1565b3415610f305760405163b398979f60e01b815260040160405180910390fd5b60006001600160a01b03831615801590611ad95750826001600160a01b0316846001600160a01b03161480611ab55750611ab58484610bce565b80611ad95750826001600160a01b0316611ace83610c53565b6001600160a01b0316145b949350505050565b606082611af657611af182611b3d565b610b93565b8151158015611b0d57506001600160a01b0384163b155b15611b3657604051639996b31560e01b81526001600160a01b03851660048201526024016106b1565b5080610b93565b805115611b4d5780518082602001fd5b604051630a12f52160e11b815260040160405180910390fd5b6001600160e01b031981168114610bcb57600080fd5b600060208284031215611b8e57600080fd5b8135610b9381611b66565b60005b83811015611bb4578181015183820152602001611b9c565b50506000910152565b60008151808452611bd5816020860160208601611b99565b601f01601f19169290920160200192915050565b602081526000610b936020830184611bbd565b600060208284031215611c0e57600080fd5b5035919050565b80356001600160a01b0381168114611c2c57600080fd5b919050565b60008060408385031215611c4457600080fd5b611c4d83611c15565b946020939093013593505050565b600080600060608486031215611c7057600080fd5b611c7984611c15565b9250611c8760208501611c15565b929592945050506040919091013590565b600060208284031215611caa57600080fd5b610b9382611c15565b634e487b7160e01b600052604160045260246000fd5b600082601f830112611cda57600080fd5b813567ffffffffffffffff811115611cf457611cf4611cb3565b604051601f8201601f19908116603f0116810167ffffffffffffffff81118282101715611d2357611d23611cb3565b604052818152838201602001851015611d3b57600080fd5b816020850160208301376000918101602001919091529392505050565b60008060408385031215611d6b57600080fd5b611d7483611c15565b9150602083013567ffffffffffffffff811115611d9057600080fd5b611d9c85828601611cc9565b9150509250929050565b8015158114610bcb57600080fd5b60008060408385031215611dc757600080fd5b611dd083611c15565b91506020830135611de081611da6565b809150509250929050565b60008060008060808587031215611e0157600080fd5b611e0a85611c15565b9350611e1860208601611c15565b925060408501359150606085013567ffffffffffffffff811115611e3b57600080fd5b611e4787828801611cc9565b91505092959194509250565b60008060408385031215611e6657600080fd5b50508035926020909101359150565b60008060408385031215611e8857600080fd5b611e9183611c15565b9150611e9f60208401611c15565b90509250929050565b600181811c90821680611ebc57607f821691505b602082108103611edc57634e487b7160e01b600052602260045260246000fd5b50919050565b634e487b7160e01b600052601160045260246000fd5b600060018201611f0a57611f0a611ee2565b5060010190565b808201808211156105bd576105bd611ee2565b60008351611f36818460208801611b99565b835190830190611f4a818360208801611b99565b01949350505050565b60008085851115611f6357600080fd5b83861115611f7057600080fd5b5050820193919092039150565b80356001600160e01b03198116906004841015611fae576001600160e01b0319600485900360031b81901b82161691505b5092915050565b6001600160a01b03841681526040602082018190528101829052818360608301376000818301606090810191909152601f909201601f1916010192915050565b60006020828403121561200757600080fd5b5051919050565b6001600160a01b038581168252841660208201526040810183905260806060820181905260009061204190830184611bbd565b9695505050505050565b60006020828403121561205d57600080fd5b8151610b9381611b66565b6000825161207a818460208701611b99565b9190910192915050565b6000806040838503121561209757600080fd5b82516120a281611da6565b602084015190925063ffffffff81168114611de057600080fd5b6000602082840312156120ce57600080fd5b8151610b9381611da6565b601f82111561078257806000526020600020601f840160051c810160208510156121005750805b601f840160051c820191505b81811015611275576000815560010161210c565b815167ffffffffffffffff81111561213a5761213a611cb3565b61214e816121488454611ea8565b846120d9565b6020601f821160018114612182576000831561216a5750848201515b600019600385901b1c1916600184901b178455611275565b600084815260208120601f198516915b828110156121b25787850151825560209485019460019092019101612192565b50848210156121d05786840151600019600387901b60f8161c191681555b50505050600190811b0190555056fef3177357ab46d8af007ab3fdb9af81da189e1068fefdc0073dca88a2cab40a0080bb2b638cc20bc4d0a60d66940f3ab4a00c1d7b313497ca82fb0b4ab00793009f791d4738865ba7c779eecd51509000f816d1d2e37f69177c0f7c39eff8000268747470733a2f2f6e6f6465732e6f736d692e61692f6170692f6d657461646174612f360894a13ba1a3210667c828492db98dca3e2076cc3735a920a3ca505d382bbca2646970667358221220033df39f8d2fbec4f3091ee9c49cf9e190e11b2e26847d86cc83fa7bd007653664736f6c634300081c0033",
  "linkReferences": {},
  "deployedLinkReferences": {}
}