{
  "_format": "hh-sol-artifact-1",
  "contractName": "OsmiDistributionManager",
  "sourceName": "contracts/OsmiDistributionManager.sol",
  "abi": [
    {
      "inputs": [],
      "stateMutability": "nonpayable",
      "type": "constructor"
    },
    {
      "inputs": [
        {
          "internalType": "address",
          "name": "authority",
          "type": "address"
        }
      ],
      "name": "AccessManagedInvalidAuthority",
      "type": "error"
    },
    {
      "inputs": [
        {
          "internalType": "address",
          "name": "caller",
          "type": "address"
        },
        {
          "internalType": "uint32",
          "name": "delay",
          "type": "uint32"
        }
      ],
      "name": "AccessManagedRequiredDelay",
      "type": "error"
    },
    {
      "inputs": [
        {
          "internalType": "address",
          "name": "caller",
          "type": "address"
        }
      ],
      "name": "AccessManagedUnauthorized",
      "type": "error"
    },
    {
      "inputs": [
        {
          "internalType": "address",
          "name": "target",
          "type": "address"
        }
      ],
      "name": "AddressEmptyCode",
      "type": "error"
    },
    {
      "inputs": [],
      "name": "ECDSAInvalidSignature",
      "type": "error"
    },
    {
      "inputs": [
        {
          "internalType": "uint256",
          "name": "length",
          "type": "uint256"
        }
      ],
      "name": "ECDSAInvalidSignatureLength",
      "type": "error"
    },
    {
      "inputs": [
        {
          "internalType": "bytes32",
          "name": "s",
          "type": "bytes32"
        }
      ],
      "name": "ECDSAInvalidSignatureS",
      "type": "error"
    },
    {
      "inputs": [
        {
          "internalType": "address",
          "name": "implementation",
          "type": "address"
        }
      ],
      "name": "ERC1967InvalidImplementation",
      "type": "error"
    },
    {
      "inputs": [],
      "name": "ERC1967NonPayable",
      "type": "error"
    },
    {
      "inputs": [],
      "name": "FailedInnerCall",
      "type": "error"
    },
    {
      "inputs": [
        {
          "internalType": "address",
          "name": "user",
          "type": "address"
        },
        {
          "internalType": "uint256",
          "name": "allowance",
          "type": "uint256"
        },
        {
          "internalType": "uint256",
          "name": "needed",
          "type": "uint256"
        }
      ],
      "name": "InsufficientAllowance",
      "type": "error"
    },
    {
      "inputs": [
        {
          "internalType": "address",
          "name": "account",
          "type": "address"
        },
        {
          "internalType": "uint256",
          "name": "currentNonce",
          "type": "uint256"
        }
      ],
      "name": "InvalidAccountNonce",
      "type": "error"
    },
    {
      "inputs": [],
      "name": "InvalidInitialization",
      "type": "error"
    },
    {
      "inputs": [
        {
          "internalType": "address",
          "name": "signer",
          "type": "address"
        },
        {
          "internalType": "address",
          "name": "owner",
          "type": "address"
        }
      ],
      "name": "InvalidSigner",
      "type": "error"
    },
    {
      "inputs": [
        {
          "internalType": "bytes32",
          "name": "expected",
          "type": "bytes32"
        },
        {
          "internalType": "bytes32",
          "name": "actual",
          "type": "bytes32"
        }
      ],
      "name": "InvalidTicketHash",
      "type": "error"
    },
    {
      "inputs": [
        {
          "internalType": "address",
          "name": "signer",
          "type": "address"
        },
        {
          "internalType": "address",
          "name": "one",
          "type": "address"
        },
        {
          "internalType": "address",
          "name": "two",
          "type": "address"
        }
      ],
      "name": "InvalidTicketSigner",
      "type": "error"
    },
    {
      "inputs": [],
      "name": "MathOverflowedMulDiv",
      "type": "error"
    },
    {
      "inputs": [],
      "name": "NotInitializing",
      "type": "error"
    },
    {
      "inputs": [],
      "name": "TicketExpired",
      "type": "error"
    },
    {
      "inputs": [],
      "name": "TicketIssuedTooSoon",
      "type": "error"
    },
    {
      "inputs": [],
      "name": "UUPSUnauthorizedCallContext",
      "type": "error"
    },
    {
      "inputs": [
        {
          "internalType": "bytes32",
          "name": "slot",
          "type": "bytes32"
        }
      ],
      "name": "UUPSUnsupportedProxiableUUID",
      "type": "error"
    },
    {
      "inputs": [],
      "name": "UnsupportedBridge",
      "type": "error"
    },
    {
      "inputs": [],
      "name": "ZeroAddressNotAllowed",
      "type": "error"
    },
    {
      "inputs": [],
      "name": "ZeroAmountNotAllowed",
      "type": "error"
    },
    {
      "anonymous": false,
      "inputs": [
        {
          "indexed": false,
          "internalType": "address",
          "name": "authority",
          "type": "address"
        }
      ],
      "name": "AuthorityUpdated",
      "type": "event"
    },
    {
      "anonymous": false,
      "inputs": [
        {
          "indexed": false,
          "internalType": "enum OsmiDistributionManager.Bridge",
          "name": "bridge",
          "type": "uint8"
        },
        {
          "indexed": false,
          "internalType": "address",
          "name": "bridgeContract",
          "type": "address"
        }
      ],
      "name": "BridgeContractChanged",
      "type": "event"
    },
    {
      "anonymous": false,
      "inputs": [
        {
          "indexed": false,
          "internalType": "contract IOsmiConfig",
          "name": "configContract",
          "type": "address"
        }
      ],
      "name": "ConfigContractChanged",
      "type": "event"
    },
    {
      "anonymous": false,
      "inputs": [],
      "name": "EIP712DomainChanged",
      "type": "event"
    },
    {
      "anonymous": false,
      "inputs": [
        {
          "indexed": false,
          "internalType": "uint64",
          "name": "version",
          "type": "uint64"
        }
      ],
      "name": "Initialized",
      "type": "event"
    },
    {
      "anonymous": false,
      "inputs": [
        {
          "indexed": false,
          "internalType": "address",
          "name": "user",
          "type": "address"
        },
        {
          "indexed": false,
          "internalType": "uint256",
          "name": "amount",
          "type": "uint256"
        },
        {
          "indexed": false,
          "internalType": "uint256",
          "name": "timestamp",
          "type": "uint256"
        }
      ],
      "name": "TicketRedeemed",
      "type": "event"
    },
    {
      "anonymous": false,
      "inputs": [
        {
          "indexed": false,
          "internalType": "address",
          "name": "ticketSigner",
          "type": "address"
        }
      ],
      "name": "TicketSignerChanged",
      "type": "event"
    },
    {
      "anonymous": false,
      "inputs": [
        {
          "indexed": false,
          "internalType": "contract IOsmiToken",
          "name": "tokenContract",
          "type": "address"
        }
      ],
      "name": "TokenContractChanged",
      "type": "event"
    },
    {
      "anonymous": false,
      "inputs": [
        {
          "indexed": false,
          "internalType": "address",
          "name": "tokenPool",
          "type": "address"
        }
      ],
      "name": "TokenPoolChanged",
      "type": "event"
    },
    {
      "anonymous": false,
      "inputs": [
        {
          "indexed": false,
          "internalType": "address",
          "name": "user",
          "type": "address"
        },
        {
          "indexed": false,
          "internalType": "uint256",
          "name": "amount",
          "type": "uint256"
        },
        {
          "indexed": false,
          "internalType": "enum OsmiDistributionManager.Bridge",
          "name": "bridge",
          "type": "uint8"
        },
        {
          "indexed": false,
          "internalType": "string",
          "name": "target",
          "type": "string"
        }
      ],
      "name": "TokensBridgedTo",
      "type": "event"
    },
    {
      "anonymous": false,
      "inputs": [
        {
          "indexed": false,
          "internalType": "address",
          "name": "user",
          "type": "address"
        },
        {
          "indexed": false,
          "internalType": "uint256",
          "name": "amount",
          "type": "uint256"
        },
        {
          "indexed": false,
          "internalType": "enum OsmiDistributionManager.Bridge",
          "name": "bridge",
          "type": "uint8"
        }
      ],
      "name": "TokensClaimed",
      "type": "event"
    },
    {
      "anonymous": false,
      "inputs": [
        {
          "indexed": false,
          "internalType": "address",
          "name": "user",
          "type": "address"
        },
        {
          "indexed": false,
          "internalType": "uint256",
          "name": "amount",
          "type": "uint256"
        }
      ],
      "name": "TokensStaked",
      "type": "event"
    },
    {
      "anonymous": false,
      "inputs": [
        {
          "indexed": false,
          "internalType": "address",
          "name": "user",
          "type": "address"
        },
        {
          "indexed": false,
          "internalType": "uint256",
          "name": "amount",
          "type": "uint256"
        }
      ],
      "name": "TokensUnstaked",
      "type": "event"
    },
    {
      "anonymous": false,
      "inputs": [
        {
          "indexed": false,
          "internalType": "uint256",
          "name": "version",
          "type": "uint256"
        }
      ],
      "name": "UpgradeMigration",
      "type": "event"
    },
    {
      "anonymous": false,
      "inputs": [
        {
          "indexed": true,
          "internalType": "address",
          "name": "implementation",
          "type": "address"
        }
      ],
      "name": "Upgraded",
      "type": "event"
    },
    {
      "inputs": [],
      "name": "UPGRADE_INTERFACE_VERSION",
      "outputs": [
        {
          "internalType": "string",
          "name": "",
          "type": "string"
        }
      ],
      "stateMutability": "view",
      "type": "function"
    },
    {
      "inputs": [
        {
          "internalType": "address",
          "name": "configContract",
          "type": "address"
        }
      ],
      "name": "afterConfigContractUpgrade",
      "outputs": [],
      "stateMutability": "nonpayable",
      "type": "function"
    },
    {
      "inputs": [],
      "name": "authority",
      "outputs": [
        {
          "internalType": "address",
          "name": "",
          "type": "address"
        }
      ],
      "stateMutability": "view",
      "type": "function"
    },
    {
      "inputs": [
        {
          "internalType": "uint256",
          "name": "amount",
          "type": "uint256"
        },
        {
          "internalType": "enum OsmiDistributionManager.Bridge",
          "name": "bridge",
          "type": "uint8"
        }
      ],
      "name": "bridgeTokens",
      "outputs": [
        {
          "internalType": "uint256",
          "name": "allowance",
          "type": "uint256"
        }
      ],
      "stateMutability": "nonpayable",
      "type": "function"
    },
    {
      "inputs": [
        {
          "internalType": "uint256",
          "name": "amount",
          "type": "uint256"
        },
        {
          "internalType": "string",
          "name": "targetAlias",
          "type": "string"
        }
      ],
      "name": "bridgeTokensToGalaChainAlias",
      "outputs": [
        {
          "internalType": "uint256",
          "name": "allowance",
          "type": "uint256"
        }
      ],
      "stateMutability": "nonpayable",
      "type": "function"
    },
    {
      "inputs": [
        {
          "internalType": "uint256",
          "name": "amount",
          "type": "uint256"
        }
      ],
      "name": "claimTokens",
      "outputs": [
        {
          "internalType": "uint256",
          "name": "allowance",
          "type": "uint256"
        }
      ],
      "stateMutability": "nonpayable",
      "type": "function"
    },
    {
      "inputs": [],
      "name": "eip712Domain",
      "outputs": [
        {
          "internalType": "bytes1",
          "name": "fields",
          "type": "bytes1"
        },
        {
          "internalType": "string",
          "name": "name",
          "type": "string"
        },
        {
          "internalType": "string",
          "name": "version",
          "type": "string"
        },
        {
          "internalType": "uint256",
          "name": "chainId",
          "type": "uint256"
        },
        {
          "internalType": "address",
          "name": "verifyingContract",
          "type": "address"
        },
        {
          "internalType": "bytes32",
          "name": "salt",
          "type": "bytes32"
        },
        {
          "internalType": "uint256[]",
          "name": "extensions",
          "type": "uint256[]"
        }
      ],
      "stateMutability": "view",
      "type": "function"
    },
    {
      "inputs": [
        {
          "internalType": "enum OsmiDistributionManager.Bridge",
          "name": "bridge",
          "type": "uint8"
        }
      ],
      "name": "getBridgeContract",
      "outputs": [
        {
          "internalType": "address",
          "name": "",
          "type": "address"
        }
      ],
      "stateMutability": "view",
      "type": "function"
    },
    {
      "inputs": [],
      "name": "getConfigContract",
      "outputs": [
        {
          "internalType": "contract IOsmiConfig",
          "name": "",
          "type": "address"
        }
      ],
      "stateMutability": "view",
      "type": "function"
    },
    {
      "inputs": [],
      "name": "getTicketSigners",
      "outputs": [
        {
          "internalType": "address",
          "name": "",
          "type": "address"
        },
        {
          "internalType": "address",
          "name": "",
          "type": "address"
        }
      ],
      "stateMutability": "view",
      "type": "function"
    },
    {
      "inputs": [
        {
          "internalType": "address",
          "name": "initialAuthority",
          "type": "address"
        },
        {
          "internalType": "address",
          "name": "configContract",
          "type": "address"
        },
        {
          "internalType": "address",
          "name": "ticketSigner",
          "type": "address"
        }
      ],
      "name": "initialize",
      "outputs": [],
      "stateMutability": "nonpayable",
      "type": "function"
    },
    {
      "inputs": [],
      "name": "isConsumingScheduledOp",
      "outputs": [
        {
          "internalType": "bytes4",
          "name": "",
          "type": "bytes4"
        }
      ],
      "stateMutability": "view",
      "type": "function"
    },
    {
      "inputs": [
        {
          "internalType": "address",
          "name": "owner",
          "type": "address"
        }
      ],
      "name": "nonces",
      "outputs": [
        {
          "internalType": "uint256",
          "name": "",
          "type": "uint256"
        }
      ],
      "stateMutability": "view",
      "type": "function"
    },
    {
      "inputs": [],
      "name": "proxiableUUID",
      "outputs": [
        {
          "internalType": "bytes32",
          "name": "",
          "type": "bytes32"
        }
      ],
      "stateMutability": "view",
      "type": "function"
    },
    {
      "inputs": [
        {
          "components": [
            {
              "internalType": "address",
              "name": "signer",
              "type": "address"
            },
            {
              "internalType": "address",
              "name": "user",
              "type": "address"
            },
            {
              "internalType": "uint256",
              "name": "timestamp",
              "type": "uint256"
            },
            {
              "internalType": "bytes32",
              "name": "expectedHash",
              "type": "bytes32"
            },
            {
              "internalType": "uint256",
              "name": "amount",
              "type": "uint256"
            },
            {
              "internalType": "uint8",
              "name": "v",
              "type": "uint8"
            },
            {
              "internalType": "bytes32",
              "name": "r",
              "type": "bytes32"
            },
            {
              "internalType": "bytes32",
              "name": "s",
              "type": "bytes32"
            }
          ],
          "internalType": "struct OsmiDistributionManager.Ticket",
          "name": "ticket",
          "type": "tuple"
        }
      ],
      "name": "redeem",
      "outputs": [
        {
          "internalType": "uint256",
          "name": "allowance",
          "type": "uint256"
        }
      ],
      "stateMutability": "nonpayable",
      "type": "function"
    },
    {
      "inputs": [
        {
          "components": [
            {
              "internalType": "address",
              "name": "signer",
              "type": "address"
            },
            {
              "internalType": "address",
              "name": "user",
              "type": "address"
            },
            {
              "internalType": "uint256",
              "name": "timestamp",
              "type": "uint256"
            },
            {
              "internalType": "bytes32",
              "name": "expectedHash",
              "type": "bytes32"
            },
            {
              "internalType": "uint256",
              "name": "amount",
              "type": "uint256"
            },
            {
              "internalType": "uint8",
              "name": "v",
              "type": "uint8"
            },
            {
              "internalType": "bytes32",
              "name": "r",
              "type": "bytes32"
            },
            {
              "internalType": "bytes32",
              "name": "s",
              "type": "bytes32"
            }
          ],
          "internalType": "struct OsmiDistributionManager.Ticket",
          "name": "ticket",
          "type": "tuple"
        },
        {
          "internalType": "uint256",
          "name": "amount",
          "type": "uint256"
        },
        {
          "internalType": "enum OsmiDistributionManager.Bridge",
          "name": "bridge",
          "type": "uint8"
        }
      ],
      "name": "redeemAndBridge",
      "outputs": [
        {
          "internalType": "uint256",
          "name": "allowance",
          "type": "uint256"
        }
      ],
      "stateMutability": "nonpayable",
      "type": "function"
    },
    {
      "inputs": [
        {
          "components": [
            {
              "internalType": "address",
              "name": "signer",
              "type": "address"
            },
            {
              "internalType": "address",
              "name": "user",
              "type": "address"
            },
            {
              "internalType": "uint256",
              "name": "timestamp",
              "type": "uint256"
            },
            {
              "internalType": "bytes32",
              "name": "expectedHash",
              "type": "bytes32"
            },
            {
              "internalType": "uint256",
              "name": "amount",
              "type": "uint256"
            },
            {
              "internalType": "uint8",
              "name": "v",
              "type": "uint8"
            },
            {
              "internalType": "bytes32",
              "name": "r",
              "type": "bytes32"
            },
            {
              "internalType": "bytes32",
              "name": "s",
              "type": "bytes32"
            }
          ],
          "internalType": "struct OsmiDistributionManager.Ticket",
          "name": "ticket",
          "type": "tuple"
        },
        {
          "internalType": "uint256",
          "name": "amount",
          "type": "uint256"
        },
        {
          "internalType": "string",
          "name": "targetAlias",
          "type": "string"
        }
      ],
      "name": "redeemAndBridgeToGalaChainAlias",
      "outputs": [
        {
          "internalType": "uint256",
          "name": "allowance",
          "type": "uint256"
        }
      ],
      "stateMutability": "nonpayable",
      "type": "function"
    },
    {
      "inputs": [
        {
          "components": [
            {
              "internalType": "address",
              "name": "signer",
              "type": "address"
            },
            {
              "internalType": "address",
              "name": "user",
              "type": "address"
            },
            {
              "internalType": "uint256",
              "name": "timestamp",
              "type": "uint256"
            },
            {
              "internalType": "bytes32",
              "name": "expectedHash",
              "type": "bytes32"
            },
            {
              "internalType": "uint256",
              "name": "amount",
              "type": "uint256"
            },
            {
              "internalType": "uint8",
              "name": "v",
              "type": "uint8"
            },
            {
              "internalType": "bytes32",
              "name": "r",
              "type": "bytes32"
            },
            {
              "internalType": "bytes32",
              "name": "s",
              "type": "bytes32"
            }
          ],
          "internalType": "struct OsmiDistributionManager.Ticket",
          "name": "ticket",
          "type": "tuple"
        },
        {
          "internalType": "uint256",
          "name": "amount",
          "type": "uint256"
        }
      ],
      "name": "redeemAndClaim",
      "outputs": [
        {
          "internalType": "uint256",
          "name": "allowance",
          "type": "uint256"
        }
      ],
      "stateMutability": "nonpayable",
      "type": "function"
    },
    {
      "inputs": [
        {
          "components": [
            {
              "internalType": "address",
              "name": "signer",
              "type": "address"
            },
            {
              "internalType": "address",
              "name": "user",
              "type": "address"
            },
            {
              "internalType": "uint256",
              "name": "timestamp",
              "type": "uint256"
            },
            {
              "internalType": "bytes32",
              "name": "expectedHash",
              "type": "bytes32"
            },
            {
              "internalType": "uint256",
              "name": "amount",
              "type": "uint256"
            },
            {
              "internalType": "uint8",
              "name": "v",
              "type": "uint8"
            },
            {
              "internalType": "bytes32",
              "name": "r",
              "type": "bytes32"
            },
            {
              "internalType": "bytes32",
              "name": "s",
              "type": "bytes32"
            }
          ],
          "internalType": "struct OsmiDistributionManager.Ticket",
          "name": "ticket",
          "type": "tuple"
        },
        {
          "internalType": "uint256",
          "name": "amount",
          "type": "uint256"
        }
      ],
      "name": "redeemAndStake",
      "outputs": [
        {
          "internalType": "uint256",
          "name": "allowance",
          "type": "uint256"
        }
      ],
      "stateMutability": "nonpayable",
      "type": "function"
    },
    {
      "inputs": [
        {
          "internalType": "address",
          "name": "newAuthority",
          "type": "address"
        }
      ],
      "name": "setAuthority",
      "outputs": [],
      "stateMutability": "nonpayable",
      "type": "function"
    },
    {
      "inputs": [
        {
          "internalType": "enum OsmiDistributionManager.Bridge",
          "name": "bridge",
          "type": "uint8"
        },
        {
          "internalType": "address",
          "name": "bridgeContract",
          "type": "address"
        }
      ],
      "name": "setBridgeContract",
      "outputs": [],
      "stateMutability": "nonpayable",
      "type": "function"
    },
    {
      "inputs": [
        {
          "internalType": "address",
          "name": "configContract",
          "type": "address"
        }
      ],
      "name": "setConfigContract",
      "outputs": [],
      "stateMutability": "nonpayable",
      "type": "function"
    },
    {
      "inputs": [
        {
          "internalType": "address",
          "name": "signer",
          "type": "address"
        }
      ],
      "name": "setTicketSigner",
      "outputs": [],
      "stateMutability": "nonpayable",
      "type": "function"
    },
    {
      "inputs": [
        {
          "internalType": "uint256",
          "name": "amount",
          "type": "uint256"
        }
      ],
      "name": "stakeTokens",
      "outputs": [
        {
          "internalType": "uint256",
          "name": "allowance",
          "type": "uint256"
        }
      ],
      "stateMutability": "nonpayable",
      "type": "function"
    },
    {
      "inputs": [
        {
          "internalType": "address",
          "name": "newImplementation",
          "type": "address"
        },
        {
          "internalType": "bytes",
          "name": "data",
          "type": "bytes"
        }
      ],
      "name": "upgradeToAndCall",
      "outputs": [],
      "stateMutability": "payable",
      "type": "function"
    }
  ],
  "bytecode": "0x60a06040523060805234801561001457600080fd5b5061001d610022565b6100d4565b7ff0c57e16840df040f15088dc2f81fe391c3923bec73e23a9662efc9c229c6a00805468010000000000000000900460ff16156100725760405163f92ee8a960e01b815260040160405180910390fd5b80546001600160401b03908116146100d15780546001600160401b0319166001600160401b0390811782556040519081527fc7f505b2f371ae2175ee4913f4499e1f2633a7b5936321eed1cdaeb6115181d29060200160405180910390a15b50565b6080516134796100fd600039600081816118320152818161185b01526119a401526134796000f3fe6080604052600436106101665760003560e01c80637ecebe00116100d15780639c8821761161008a578063b2f35e4911610064578063b2f35e4914610493578063bf7e214f146104b3578063c0c53b8b146104c8578063de7b8ffe146104e857600080fd5b80639c88217614610400578063a35ff3bf14610435578063ad3cb1cc1461045557600080fd5b80637ecebe00146102f557806384b0196e1461034a57806389255bbb146103725780638fb3603714610392578063989e9b2f146103c057806399c4aaae146103e057600080fd5b80634f1ef286116101235780634f1ef2861461024b57806352d1902d14610260578063571446f31461027557806365ec1ed6146102955780637547c7a3146102b55780637a9e5e4b146102d557600080fd5b80630ce6f6a91461016b5780630e1c3a4a1461019e57806310d50ea4146101cb57806316b6f8bb146101eb57806346e04a2f1461020b5780634d5634621461022b575b600080fd5b34801561017757600080fd5b5061018b610186366004612b18565b610508565b6040519081526020015b60405180910390f35b3480156101aa57600080fd5b506101b3610528565b6040516001600160a01b039091168152602001610195565b3480156101d757600080fd5b5061018b6101e6366004612b7e565b610537565b3480156101f757600080fd5b5061018b610206366004612bdc565b61059b565b34801561021757600080fd5b5061018b610226366004612c28565b6105b9565b34801561023757600080fd5b506101b3610246366004612c50565b6105cf565b61025e610259366004612c96565b6105da565b005b34801561026c57600080fd5b5061018b6105f9565b34801561028157600080fd5b5061025e610290366004612d62565b610616565b3480156102a157600080fd5b5061018b6102b0366004612d7f565b6106b7565b3480156102c157600080fd5b5061018b6102d0366004612c28565b6106e7565b3480156102e157600080fd5b5061025e6102f0366004612d62565b6106fd565b34801561030157600080fd5b5061018b610310366004612d62565b6001600160a01b031660009081527f5ab42ced628888259c08ac98db1eb0cf702fc1501344311d8b100cd1bfe4bb00602052604090205490565b34801561035657600080fd5b5061035f610785565b6040516101959796959493929190612dfb565b34801561037e57600080fd5b5061025e61038d366004612e93565b610831565b34801561039e57600080fd5b506103a76109a8565b6040516001600160e01b03199091168152602001610195565b3480156103cc57600080fd5b5061018b6103db366004612eca565b6109e1565b3480156103ec57600080fd5b5061018b6103fb366004612f0a565b6109ff565b34801561040c57600080fd5b50610415610a1d565b604080516001600160a01b03938416815292909116602083015201610195565b34801561044157600080fd5b5061025e610450366004612d62565b610a80565b34801561046157600080fd5b50610486604051806040016040528060058152602001640352e302e360dc1b81525081565b6040516101959190612f37565b34801561049f57600080fd5b5061018b6104ae366004612f0a565b610a95565b3480156104bf57600080fd5b506101b3610ab3565b3480156104d457600080fd5b5061025e6104e3366004612f4a565b610ad6565b3480156104f457600080fd5b5061025e610503366004612d62565b610c6a565b6000610517335b600036610c7c565b61052082610d82565b90505b919050565b600061053261101b565b905090565b60006105423361050f565b61054b85610d82565b50610590335b85600186868080601f01602080910402602001604051908101604052809392919081815260200183838082843760009201919091525061103292505050565b90505b949350505050565b60006105a63361050f565b6105af33610551565b90505b9392505050565b60006105c43361050f565b610520335b836114a4565b60006105208261177d565b6105e2611827565b6105eb826118ce565b6105f582826118d7565b5050565b6000610603611999565b5060008051602061340483398151915290565b61061f3361050f565b6001600160a01b038116610646576040516342bcdf7f60e11b815260040160405180910390fd5b60008051602061342483398151915280546001600160a01b0383166001600160a01b03199091168117825560408051918252517fea68eebc69e6cf7ca402dbd8bbf63e2a5d6fcc0ab964fb9cbe0b2660c364875d9181900360200190a160010180546001600160a01b031916905550565b60006106c23361050f565b6106de335b848460405180602001604052806000815250611032565b90505b92915050565b60006106f23361050f565b610520335b836119e2565b33610706610ab3565b6001600160a01b0316816001600160a01b0316146107465760405162d1953b60e31b81526001600160a01b03821660048201526024015b60405180910390fd5b816001600160a01b03163b60000361077c576040516361798f2f60e11b81526001600160a01b038316600482015260240161073d565b6105f582611d74565b600060608082808083816000805160206133e483398151915280549091501580156107b257506001810154155b6107f65760405162461bcd60e51b81526020600482015260156024820152741152540dcc4c8e88155b9a5b9a5d1a585b1a5e9959605a1b604482015260640161073d565b6107fe611dd6565b610806611e99565b60408051600080825260208201909252600f60f81b9c939b5091995046985030975095509350915050565b61083a3361050f565b600082600281111561084e5761084e612f95565b11158061086d5750600282600281111561086a5761086a612f95565b10155b1561088b57604051631da5310560e01b815260040160405180910390fd5b6000805160206134248339815191526001600160a01b0382167f55830a805815e4d506db4501e6719bc7b974e594ecdefb09d1856bf6a5d7950560008560028111156108d9576108d9612f95565b60028111156108ea576108ea612f95565b81526020810191909152604001600020546001600160a01b03160361090e57505050565b8181600501600085600281111561092757610927612f95565b600281111561093857610938612f95565b815260200190815260200160002060006101000a8154816001600160a01b0302191690836001600160a01b031602179055507ff8a8a21419a446fca7e68faabc9cc446414eff015f0cb697bc94c9ec453efe47838360405161099b929190612fcd565b60405180910390a1505050565b6000805160206133c4833981519152805460009190600160a01b900460ff166109d25760006109db565b638fb3603760e01b5b91505090565b60006109ec3361050f565b6109f584610d82565b506105af336106c7565b6000610a0a3361050f565b610a1383610d82565b506106de336106f7565b600080610a787f55830a805815e4d506db4501e6719bc7b974e594ecdefb09d1856bf6a5d79502547f55830a805815e4d506db4501e6719bc7b974e594ecdefb09d1856bf6a5d79503546001600160a01b0391821692911690565b915091509091565b610a893361050f565b610a9281611ed8565b50565b6000610aa03361050f565b610aa983610d82565b506106de336105c9565b6000806000805160206133c48339815191525b546001600160a01b031692915050565b7ff0c57e16840df040f15088dc2f81fe391c3923bec73e23a9662efc9c229c6a008054600160401b810460ff16159067ffffffffffffffff16600081158015610b1c5750825b905060008267ffffffffffffffff166001148015610b395750303b155b905081158015610b47575080155b15610b655760405163f92ee8a960e01b815260040160405180910390fd5b845467ffffffffffffffff191660011785558315610b8f57845460ff60401b1916600160401b1785555b610b9888611faa565b610ba0611fbb565b610ba8611fbb565b610c006040518060400160405280601781526020017f4f736d69446973747269627574696f6e4d616e61676572000000000000000000815250604051806040016040528060018152602001603160f81b815250611fc3565b610c08611fbb565b610c1187611fd5565b610c1a86611ed8565b8315610c6057845460ff60401b19168555604051600181527fc7f505b2f371ae2175ee4913f4499e1f2633a7b5936321eed1cdaeb6115181d29060200160405180910390a15b5050505050505050565b610c733361050f565b610a9281611fd5565b6000805160206133c4833981519152600080610cb7610c99610ab3565b8730610ca9600460008a8c612ff3565b610cb29161301d565b61206e565b9150915081610d7a5763ffffffff811615610d5757825460ff60a01b1916600160a01b178355610ce5610ab3565b6001600160a01b03166394c7d7ee8787876040518463ffffffff1660e01b8152600401610d1493929190613055565b600060405180830381600087803b158015610d2e57600080fd5b505af1158015610d42573d6000803e3d6000fd5b5050845460ff60a01b1916855550610d7a9050565b60405162d1953b60e31b81526001600160a01b038716600482015260240161073d565b505050505050565b600080610d8e8361217a565b905060008051602061342483398151915260006000805160206133a483398151915281610dc16040880160208901612d62565b6001600160a01b03166001600160a01b03168152602001908152602001600020905060006001600160a01b0316856020016020810190610e019190612d62565b6001600160a01b031603610e28576040516342bcdf7f60e11b815260040160405180910390fd5b8460800135600003610e4d576040516307a1cab560e11b815260040160405180910390fd5b600181015460408601359062014370610e6683426130ab565b1115610e85576040516340d3544760e01b815260040160405180910390fd5b62014370610e9382846130ab565b1015610eb2576040516317e8a5cb60e01b815260040160405180910390fd5b8260020154876060013514610eed57600283015460405163131bf61b60e01b815260608901356004820152602481019190915260440161073d565b8660800135836000016000828254610f0591906130be565b9091555050604087018035600185015560028401546000917f4e9b0e2afb2e56a47cc5c5693615261ff938bb48f9baf05077e20c8fd8d5f71a9190610f4d9060208c01612d62565b604080516020810194909452838101929092526001600160a01b0316606083015289013560808281019190915289013560a082015260c0810187905260e001604051602081830303815290604052805190602001209050610fad8161232a565b60028501557fc486cbcc73b5497f564228f5833a8766da2c87c2b5669ce5838d50bdf396f074610fe360408a0160208b01612d62565b604080516001600160a01b03909216825260808b01356020830152810185905260600160405180910390a15050905495945050505050565b600080600080516020613424833981519152610ac6565b60006001600160a01b03851661105b576040516342bcdf7f60e11b815260040160405180910390fd5b8360000361107c576040516307a1cab560e11b815260040160405180910390fd5b6001600160a01b03851660009081526000805160206133a483398151915260205260409020805460008051602061342483398151915291908611156110fb57805487906110c981896130ab565b604051630c95cf2760e11b81526001600160a01b0390931660048401526024830191909152604482015260640161073d565b8581600001600082825461110f91906130ab565b90915550506040517f53784b3fa987ce4f3566245eefd7537f99a526db5a6213c14e1bbe9c99d37b2390611148908990899089906130d1565b60405180910390a160006111658763017d7840633b9aca00612357565b905061117181886130ab565b83546040805163145bdf6f60e11b815290519299506001600160a01b039091169160009183916328b7bede916004808201926020929091908290030181865afa1580156111c2573d6000803e3d6000fd5b505050506040513d601f19601f820116820180604052508101906111e691906130f5565b90506000826001600160a01b031663b5e32a8a6040518163ffffffff1660e01b8152600401602060405180830381865afa158015611228573d6000803e3d6000fd5b505050506040513d601f19601f8201168201806040525081019061124c91906130f5565b60405163079cc67960e41b81526001600160a01b03808316600483015260248201879052919250908316906379cc679090604401600060405180830381600087803b15801561129a57600080fd5b505af11580156112ae573d6000803e3d6000fd5b50506040516323b872dd60e01b81526001600160a01b038481166004830152306024830152604482018e9052851692506323b872dd91506064016020604051808303816000875af1158015611307573d6000803e3d6000fd5b505050506040513d601f19601f8201168201806040525081019061132b9190613122565b5060006113378a61177d565b90506001600160a01b03811661136057604051631da5310560e01b815260040160405180910390fd5b60405163095ea7b360e01b81526001600160a01b038281166004830152602482018d905284169063095ea7b3906044016020604051808303816000875af11580156113af573d6000803e3d6000fd5b505050506040513d601f19601f820116820180604052508101906113d39190613122565b5088516000036113ed576113e68c61241b565b985061142b565b7f10edc0cc0608da2f99201b0db024d7220b089c82c6e0e41793d96a9096f29f728c8c8c8c604051611422949392919061313d565b60405180910390a15b806001600160a01b031663d7907a61848d600060018e6040518663ffffffff1660e01b815260040161146195949392919061317d565b600060405180830381600087803b15801561147b57600080fd5b505af115801561148f573d6000803e3d6000fd5b505096549d9c50505050505050505050505050565b60006001600160a01b0383166114cd576040516342bcdf7f60e11b815260040160405180910390fd5b816000036114ee576040516307a1cab560e11b815260040160405180910390fd5b6001600160a01b03831660009081526000805160206133a4833981519152602052604090208054600080516020613424833981519152919084111561153b57805485906110c981876130ab565b8381600001600082825461154f91906130ab565b90915550506040517f53784b3fa987ce4f3566245eefd7537f99a526db5a6213c14e1bbe9c99d37b239061158990879087906000906130d1565b60405180910390a160006115a68563017d7840633b9aca00612357565b90506115b281866130ab565b83546040805163145bdf6f60e11b815290519297506001600160a01b039091169160009183916328b7bede916004808201926020929091908290030181865afa158015611603573d6000803e3d6000fd5b505050506040513d601f19601f8201168201806040525081019061162791906130f5565b90506000826001600160a01b031663b5e32a8a6040518163ffffffff1660e01b8152600401602060405180830381865afa158015611669573d6000803e3d6000fd5b505050506040513d601f19601f8201168201806040525081019061168d91906130f5565b60405163079cc67960e41b81526001600160a01b03808316600483015260248201879052919250908316906379cc679090604401600060405180830381600087803b1580156116db57600080fd5b505af11580156116ef573d6000803e3d6000fd5b50506040516323b872dd60e01b81526001600160a01b0384811660048301528c81166024830152604482018c9052851692506323b872dd91506064016020604051808303816000875af115801561174a573d6000803e3d6000fd5b505050506040513d601f19601f8201168201806040525081019061176e9190613122565b50509254979650505050505050565b6000600182600281111561179357611793612f95565b146117b157604051631da5310560e01b815260040160405180910390fd5b6000805160206134248339815191527f55830a805815e4d506db4501e6719bc7b974e594ecdefb09d1856bf6a5d7950560008460028111156117f5576117f5612f95565b600281111561180657611806612f95565b81526020810191909152604001600020546001600160a01b03169392505050565b306001600160a01b037f00000000000000000000000000000000000000000000000000000000000000001614806118ae57507f00000000000000000000000000000000000000000000000000000000000000006001600160a01b03166118a2600080516020613404833981519152546001600160a01b031690565b6001600160a01b031614155b156118cc5760405163703e46dd60e11b815260040160405180910390fd5b565b610a923361050f565b816001600160a01b03166352d1902d6040518163ffffffff1660e01b8152600401602060405180830381865afa925050508015611931575060408051601f3d908101601f1916820190925261192e918101906131bf565b60015b61195957604051634c9c8ce360e01b81526001600160a01b038316600482015260240161073d565b600080516020613404833981519152811461198a57604051632a87526960e21b81526004810182905260240161073d565b61199483836124ed565b505050565b306001600160a01b037f000000000000000000000000000000000000000000000000000000000000000016146118cc5760405163703e46dd60e11b815260040160405180910390fd5b60006001600160a01b038316611a0b576040516342bcdf7f60e11b815260040160405180910390fd5b81600003611a2c576040516307a1cab560e11b815260040160405180910390fd5b6001600160a01b03831660009081526000805160206133a48339815191526020526040902080546000805160206134248339815191529190841115611a7957805485906110c981876130ab565b83816000016000828254611a8d91906130ab565b9091555050604080516001600160a01b0387168152602081018690527fb539ca1e5c8d398ddf1c41c30166f33404941683be4683319b57669a93dad4ef910160405180910390a181546040805163145bdf6f60e11b815290516001600160a01b039092169160009183916328b7bede916004808201926020929091908290030181865afa158015611b22573d6000803e3d6000fd5b505050506040513d601f19601f82011682018060405250810190611b4691906130f5565b90506000826001600160a01b0316638e68dce46040518163ffffffff1660e01b8152600401602060405180830381865afa158015611b88573d6000803e3d6000fd5b505050506040513d601f19601f82011682018060405250810190611bac91906130f5565b90506000836001600160a01b031663b5e32a8a6040518163ffffffff1660e01b8152600401602060405180830381865afa158015611bee573d6000803e3d6000fd5b505050506040513d601f19601f82011682018060405250810190611c1291906130f5565b6040516323b872dd60e01b81526001600160a01b038083166004830152306024830152604482018b9052919250908416906323b872dd906064016020604051808303816000875af1158015611c6b573d6000803e3d6000fd5b505050506040513d601f19601f82011682018060405250810190611c8f9190613122565b5060405163095ea7b360e01b81526001600160a01b038381166004830152602482018a905284169063095ea7b3906044016020604051808303816000875af1158015611cdf573d6000803e3d6000fd5b505050506040513d601f19601f82011682018060405250810190611d039190613122565b506040516305dc812160e31b81526001600160a01b038a81166004830152602482018a9052831690632ee4090890604401600060405180830381600087803b158015611d4e57600080fd5b505af1158015611d62573d6000803e3d6000fd5b505095549a9950505050505050505050565b6000805160206133c483398151915280546001600160a01b0319166001600160a01b03831690811782556040519081527f2f658b440c35314f52658ea8a740e05b284cdc84dc9ae01e891f21b8933e7cad906020015b60405180910390a15050565b7fa16a46d94261c7517cc8ff89f61c0ce93598e3c849801011dee649a6a557d10280546060916000805160206133e483398151915291611e15906131d8565b80601f0160208091040260200160405190810160405280929190818152602001828054611e41906131d8565b8015611e8e5780601f10611e6357610100808354040283529160200191611e8e565b820191906000526020600020905b815481529060010190602001808311611e7157829003601f168201915b505050505091505090565b7fa16a46d94261c7517cc8ff89f61c0ce93598e3c849801011dee649a6a557d10380546060916000805160206133e483398151915291611e15906131d8565b6001600160a01b038116611eff576040516342bcdf7f60e11b815260040160405180910390fd5b7f55830a805815e4d506db4501e6719bc7b974e594ecdefb09d1856bf6a5d7950254600080516020613424833981519152906001600160a01b03838116911603611f47575050565b6002810180546003830180546001600160a01b038084166001600160a01b0319928316179092559091169084169081179091556040519081527ff25410f30b55c5bf754bde6af67a578fc1fb2e1e7fa70f582112f3c430b8e23690602001611dca565b611fb2612543565b610a928161258c565b6118cc612543565b611fcb612543565b6105f5828261259d565b6001600160a01b038116611ffc576040516342bcdf7f60e11b815260040160405180910390fd5b60008051602061342483398151915280546001600160a01b03838116911603612023575050565b80546001600160a01b0319166001600160a01b03831690811782556040519081527fea68eebc69e6cf7ca402dbd8bbf63e2a5d6fcc0ab964fb9cbe0b2660c364875d90602001611dca565b6040516001600160a01b03848116602483015283811660448301526001600160e01b03198316606483015260009182918291829189169060840160408051601f198184030181529181526020820180516001600160e01b031663b700961360e01b179052516120dd919061320c565b600060405180830381855afa9150503d8060008114612118576040519150601f19603f3d011682016040523d82523d6000602084013e61211d565b606091505b5091509150811561216f57604081511061214f57808060200190518101906121459190613228565b909450925061216f565b602081511061216f578080602001905181019061216c9190613122565b93505b505094509492505050565b600061219161218c6020840184612d62565b6125fe565b6121e66121a46040840160208501612d62565b6001600160a01b031660009081527f5ab42ced628888259c08ac98db1eb0cf702fc1501344311d8b100cd1bfe4bb006020526040902080546001810190915590565b905060007ffd6d0e4ca6764633a51edb6c597a246a9c07dc7643b9aeb52a9864f747827cc66122186020850185612d62565b6122286040860160208701612d62565b6040805160208101949094526001600160a01b03928316848201529116606083810191909152908501356080838101919091529085013560a083015284013560c082015260e0810183905261010001604051602081830303815290604052805190602001209050600061229a8261232a565b905060006122c1826122b260c0880160a0890161325d565b8760c001358860e0013561269e565b90506122d06020860186612d62565b6001600160a01b0316816001600160a01b03161461232257806122f66020870187612d62565b604051637ba5ffb560e01b81526001600160a01b0392831660048201529116602482015260440161073d565b505050919050565b60006105206123376126cc565b8360405161190160f01b8152600281019290925260228201526042902090565b600083830281600019858709828110838203039150508060000361238e5783828161238457612384613280565b04925050506105b2565b8084116123ae5760405163227bc15360e01b815260040160405180910390fd5b6000848688096000868103871696879004966002600389028118808a02820302808a02820302808a02820302808a02820302808a02820302808a02909103029181900381900460010186841190950394909402919094039290920491909117919091029150509392505050565b60408051602c808252606082810190935263195d1a1f60e21b916f181899199a1a9b1b9c1cb0b131b232b360811b916f181899199a1a9b1b9c1ca0a121a222a360811b9160009160208201818036833750505060208101859052905060248101604c8201875b8282111561249f5760018203915085600f82161a825360041c612481565b6028832060601c8991506028840192505b838311156124df576001830392506007600f821611156124d35785600f83161a83535b600491821c911c6124b0565b509298975050505050505050565b6124f6826126d6565b6040516001600160a01b038316907fbc7cd75a20ee27fd9adebab32041f755214dbc6bffa90cc0225b39da2e5c2d3b90600090a280511561253b57611994828261273b565b6105f56127b1565b7ff0c57e16840df040f15088dc2f81fe391c3923bec73e23a9662efc9c229c6a0054600160401b900460ff166118cc57604051631afcd79f60e31b815260040160405180910390fd5b612594612543565b610a9281611d74565b6125a5612543565b6000805160206133e48339815191527fa16a46d94261c7517cc8ff89f61c0ce93598e3c849801011dee649a6a557d1026125df84826132e4565b50600381016125ee83826132e4565b5060008082556001909101555050565b7f55830a805815e4d506db4501e6719bc7b974e594ecdefb09d1856bf6a5d7950254600080516020613424833981519152906001600160a01b0383811691161480159061265b575060038101546001600160a01b03838116911614155b156105f557600281015460038201546040516316c7b6e560e11b81526001600160a01b03808616600483015292831660248201529116604482015260640161073d565b6000806000806126b0888888886127d0565b9250925092506126c0828261289f565b50909695505050505050565b6000610532612958565b806001600160a01b03163b60000361270c57604051634c9c8ce360e01b81526001600160a01b038216600482015260240161073d565b60008051602061340483398151915280546001600160a01b0319166001600160a01b0392909216919091179055565b6060600080846001600160a01b031684604051612758919061320c565b600060405180830381855af49150503d8060008114612793576040519150601f19603f3d011682016040523d82523d6000602084013e612798565b606091505b50915091506127a88583836129cc565b95945050505050565b34156118cc5760405163b398979f60e01b815260040160405180910390fd5b600080807f7fffffffffffffffffffffffffffffff5d576e7357a4501ddfe92f46681b20a084111561280b5750600091506003905082612895565b604080516000808252602082018084528a905260ff891692820192909252606081018790526080810186905260019060a0016020604051602081039080840390855afa15801561285f573d6000803e3d6000fd5b5050604051601f1901519150506001600160a01b03811661288b57506000925060019150829050612895565b9250600091508190505b9450945094915050565b60008260038111156128b3576128b3612f95565b036128bc575050565b60018260038111156128d0576128d0612f95565b036128ee5760405163f645eedf60e01b815260040160405180910390fd5b600282600381111561290257612902612f95565b036129235760405163fce698f760e01b81526004810182905260240161073d565b600382600381111561293757612937612f95565b036105f5576040516335e2f38360e21b81526004810182905260240161073d565b60007f8b73c3c69bb8fe3d512ecc4cf759cc79239f7b179b0ffacaa9a75d522b39400f612983612a28565b61298b612a92565b60408051602081019490945283019190915260608201524660808201523060a082015260c00160405160208183030381529060405280519060200120905090565b6060826129e1576129dc82612ad6565b6105b2565b81511580156129f857506001600160a01b0384163b155b15612a2157604051639996b31560e01b81526001600160a01b038516600482015260240161073d565b50806105b2565b60006000805160206133e483398151915281612a42611dd6565b805190915015612a5a57805160209091012092915050565b81548015612a69579392505050565b7fc5d2460186f7233c927e7db2dcc703c0e500b653ca82273b7bfad8045d85a470935050505090565b60006000805160206133e483398151915281612aac611e99565b805190915015612ac457805160209091012092915050565b60018201548015612a69579392505050565b805115612ae65780518082602001fd5b604051630a12f52160e11b815260040160405180910390fd5b60006101008284031215612b1257600080fd5b50919050565b60006101008284031215612b2b57600080fd5b6106de8383612aff565b60008083601f840112612b4757600080fd5b50813567ffffffffffffffff811115612b5f57600080fd5b602083019150836020828501011115612b7757600080fd5b9250929050565b6000806000806101408587031215612b9557600080fd5b612b9f8686612aff565b9350610100850135925061012085013567ffffffffffffffff811115612bc457600080fd5b612bd087828801612b35565b95989497509550505050565b600080600060408486031215612bf157600080fd5b83359250602084013567ffffffffffffffff811115612c0f57600080fd5b612c1b86828701612b35565b9497909650939450505050565b600060208284031215612c3a57600080fd5b5035919050565b80356003811061052357600080fd5b600060208284031215612c6257600080fd5b6106de82612c41565b6001600160a01b0381168114610a9257600080fd5b634e487b7160e01b600052604160045260246000fd5b60008060408385031215612ca957600080fd5b8235612cb481612c6b565b9150602083013567ffffffffffffffff811115612cd057600080fd5b8301601f81018513612ce157600080fd5b803567ffffffffffffffff811115612cfb57612cfb612c80565b604051601f8201601f19908116603f0116810167ffffffffffffffff81118282101715612d2a57612d2a612c80565b604052818152828201602001871015612d4257600080fd5b816020840160208301376000602083830101528093505050509250929050565b600060208284031215612d7457600080fd5b81356105b281612c6b565b60008060408385031215612d9257600080fd5b82359150612da260208401612c41565b90509250929050565b60005b83811015612dc6578181015183820152602001612dae565b50506000910152565b60008151808452612de7816020860160208601612dab565b601f01601f19169290920160200192915050565b60ff60f81b8816815260e060208201526000612e1a60e0830189612dcf565b8281036040840152612e2c8189612dcf565b606084018890526001600160a01b038716608085015260a0840186905283810360c08501528451808252602080870193509091019060005b81811015612e82578351835260209384019390920191600101612e64565b50909b9a5050505050505050505050565b60008060408385031215612ea657600080fd5b612eaf83612c41565b91506020830135612ebf81612c6b565b809150509250929050565b60008060006101408486031215612ee057600080fd5b612eea8585612aff565b92506101008401359150612f016101208501612c41565b90509250925092565b6000806101208385031215612f1e57600080fd5b612f288484612aff565b94610100939093013593505050565b6020815260006106de6020830184612dcf565b600080600060608486031215612f5f57600080fd5b8335612f6a81612c6b565b92506020840135612f7a81612c6b565b91506040840135612f8a81612c6b565b809150509250925092565b634e487b7160e01b600052602160045260246000fd5b60038110612fc957634e487b7160e01b600052602160045260246000fd5b9052565b60408101612fdb8285612fab565b6001600160a01b039290921660209190910152919050565b6000808585111561300357600080fd5b8386111561301057600080fd5b5050820193919092039150565b80356001600160e01b0319811690600484101561304e576001600160e01b0319600485900360031b81901b82161691505b5092915050565b6001600160a01b03841681526040602082018190528101829052818360608301376000818301606090810191909152601f909201601f1916010192915050565b634e487b7160e01b600052601160045260246000fd5b818103818111156106e1576106e1613095565b808201808211156106e1576106e1613095565b6001600160a01b038416815260208101839052606081016105936040830184612fab565b60006020828403121561310757600080fd5b81516105b281612c6b565b8051801515811461052357600080fd5b60006020828403121561313457600080fd5b6106de82613112565b6001600160a01b03851681526020810184905261315d6040820184612fab565b6080606082015260006131736080830184612dcf565b9695505050505050565b60018060a01b038616815284602082015283604082015261ffff8316606082015260a0608082015260006131b460a0830184612dcf565b979650505050505050565b6000602082840312156131d157600080fd5b5051919050565b600181811c908216806131ec57607f821691505b602082108103612b1257634e487b7160e01b600052602260045260246000fd5b6000825161321e818460208701612dab565b9190910192915050565b6000806040838503121561323b57600080fd5b61324483613112565b9150602083015163ffffffff81168114612ebf57600080fd5b60006020828403121561326f57600080fd5b813560ff811681146105b257600080fd5b634e487b7160e01b600052601260045260246000fd5b601f82111561199457806000526020600020601f840160051c810160208510156132bd5750805b601f840160051c820191505b818110156132dd57600081556001016132c9565b5050505050565b815167ffffffffffffffff8111156132fe576132fe612c80565b6133128161330c84546131d8565b84613296565b6020601f821160018114613346576000831561332e5750848201515b600019600385901b1c1916600184901b1784556132dd565b600084815260208120601f198516915b828110156133765787850151825560209485019460019092019101613356565b50848210156133945786840151600019600387901b60f8161c191681555b50505050600190811b0190555056fe55830a805815e4d506db4501e6719bc7b974e594ecdefb09d1856bf6a5d79504f3177357ab46d8af007ab3fdb9af81da189e1068fefdc0073dca88a2cab40a00a16a46d94261c7517cc8ff89f61c0ce93598e3c849801011dee649a6a557d100360894a13ba1a3210667c828492db98dca3e2076cc3735a920a3ca505d382bbc55830a805815e4d506db4501e6719bc7b974e594ecdefb09d1856bf6a5d79500a264697066735822122067cb3d8c4366dddf5aabc50d17f0fa374852fb1eff1b06989423906f9ae9eb1264736f6c634300081c0033",
  "linkReferences": {},
  "deployedLinkReferences": {}
}