{
  "_format": "hh-sol-artifact-1",
  "contractName": "OsmiAccessManager",
  "sourceName": "contracts/OsmiAccessManager.sol",
  "abi": [
    {
      "inputs": [],
      "stateMutability": "nonpayable",
      "type": "constructor"
    },
    {
      "inputs": [
        {
          "internalType": "bytes32",
          "name": "operationId",
          "type": "bytes32"
        }
      ],
      "name": "AccessManagerAlreadyScheduled",
      "type": "error"
    },
    {
      "inputs": [],
      "name": "AccessManagerBadConfirmation",
      "type": "error"
    },
    {
      "inputs": [
        {
          "internalType": "bytes32",
          "name": "operationId",
          "type": "bytes32"
        }
      ],
      "name": "AccessManagerExpired",
      "type": "error"
    },
    {
      "inputs": [
        {
          "internalType": "address",
          "name": "initialAdmin",
          "type": "address"
        }
      ],
      "name": "AccessManagerInvalidInitialAdmin",
      "type": "error"
    },
    {
      "inputs": [
        {
          "internalType": "address",
          "name": "account",
          "type": "address"
        }
      ],
      "name": "AccessManagerLockedAccount",
      "type": "error"
    },
    {
      "inputs": [
        {
          "internalType": "uint64",
          "name": "roleId",
          "type": "uint64"
        }
      ],
      "name": "AccessManagerLockedRole",
      "type": "error"
    },
    {
      "inputs": [
        {
          "internalType": "bytes32",
          "name": "operationId",
          "type": "bytes32"
        }
      ],
      "name": "AccessManagerNotReady",
      "type": "error"
    },
    {
      "inputs": [
        {
          "internalType": "bytes32",
          "name": "operationId",
          "type": "bytes32"
        }
      ],
      "name": "AccessManagerNotScheduled",
      "type": "error"
    },
    {
      "inputs": [
        {
          "internalType": "address",
          "name": "msgsender",
          "type": "address"
        },
        {
          "internalType": "uint64",
          "name": "roleId",
          "type": "uint64"
        }
      ],
      "name": "AccessManagerUnauthorizedAccount",
      "type": "error"
    },
    {
      "inputs": [
        {
          "internalType": "address",
          "name": "caller",
          "type": "address"
        },
        {
          "internalType": "address",
          "name": "target",
          "type": "address"
        },
        {
          "internalType": "bytes4",
          "name": "selector",
          "type": "bytes4"
        }
      ],
      "name": "AccessManagerUnauthorizedCall",
      "type": "error"
    },
    {
      "inputs": [
        {
          "internalType": "address",
          "name": "msgsender",
          "type": "address"
        },
        {
          "internalType": "address",
          "name": "caller",
          "type": "address"
        },
        {
          "internalType": "address",
          "name": "target",
          "type": "address"
        },
        {
          "internalType": "bytes4",
          "name": "selector",
          "type": "bytes4"
        }
      ],
      "name": "AccessManagerUnauthorizedCancel",
      "type": "error"
    },
    {
      "inputs": [
        {
          "internalType": "address",
          "name": "target",
          "type": "address"
        }
      ],
      "name": "AccessManagerUnauthorizedConsume",
      "type": "error"
    },
    {
      "inputs": [
        {
          "internalType": "address",
          "name": "target",
          "type": "address"
        }
      ],
      "name": "AddressEmptyCode",
      "type": "error"
    },
    {
      "inputs": [
        {
          "internalType": "address",
          "name": "account",
          "type": "address"
        }
      ],
      "name": "AddressInsufficientBalance",
      "type": "error"
    },
    {
      "inputs": [
        {
          "internalType": "address",
          "name": "implementation",
          "type": "address"
        }
      ],
      "name": "ERC1967InvalidImplementation",
      "type": "error"
    },
    {
      "inputs": [],
      "name": "ERC1967NonPayable",
      "type": "error"
    },
    {
      "inputs": [],
      "name": "FailedInnerCall",
      "type": "error"
    },
    {
      "inputs": [],
      "name": "InvalidInitialization",
      "type": "error"
    },
    {
      "inputs": [],
      "name": "NotInitializing",
      "type": "error"
    },
    {
      "inputs": [
        {
          "internalType": "address",
          "name": "owner",
          "type": "address"
        }
      ],
      "name": "OwnableInvalidOwner",
      "type": "error"
    },
    {
      "inputs": [
        {
          "internalType": "address",
          "name": "account",
          "type": "address"
        }
      ],
      "name": "OwnableUnauthorizedAccount",
      "type": "error"
    },
    {
      "inputs": [
        {
          "internalType": "uint8",
          "name": "bits",
          "type": "uint8"
        },
        {
          "internalType": "uint256",
          "name": "value",
          "type": "uint256"
        }
      ],
      "name": "SafeCastOverflowedUintDowncast",
      "type": "error"
    },
    {
      "inputs": [],
      "name": "UUPSUnauthorizedCallContext",
      "type": "error"
    },
    {
      "inputs": [
        {
          "internalType": "bytes32",
          "name": "slot",
          "type": "bytes32"
        }
      ],
      "name": "UUPSUnsupportedProxiableUUID",
      "type": "error"
    },
    {
      "anonymous": false,
      "inputs": [
        {
          "indexed": false,
          "internalType": "uint64",
          "name": "version",
          "type": "uint64"
        }
      ],
      "name": "Initialized",
      "type": "event"
    },
    {
      "anonymous": false,
      "inputs": [
        {
          "indexed": true,
          "internalType": "bytes32",
          "name": "operationId",
          "type": "bytes32"
        },
        {
          "indexed": true,
          "internalType": "uint32",
          "name": "nonce",
          "type": "uint32"
        }
      ],
      "name": "OperationCanceled",
      "type": "event"
    },
    {
      "anonymous": false,
      "inputs": [
        {
          "indexed": true,
          "internalType": "bytes32",
          "name": "operationId",
          "type": "bytes32"
        },
        {
          "indexed": true,
          "internalType": "uint32",
          "name": "nonce",
          "type": "uint32"
        }
      ],
      "name": "OperationExecuted",
      "type": "event"
    },
    {
      "anonymous": false,
      "inputs": [
        {
          "indexed": true,
          "internalType": "bytes32",
          "name": "operationId",
          "type": "bytes32"
        },
        {
          "indexed": true,
          "internalType": "uint32",
          "name": "nonce",
          "type": "uint32"
        },
        {
          "indexed": false,
          "internalType": "uint48",
          "name": "schedule",
          "type": "uint48"
        },
        {
          "indexed": false,
          "internalType": "address",
          "name": "caller",
          "type": "address"
        },
        {
          "indexed": false,
          "internalType": "address",
          "name": "target",
          "type": "address"
        },
        {
          "indexed": false,
          "internalType": "bytes",
          "name": "data",
          "type": "bytes"
        }
      ],
      "name": "OperationScheduled",
      "type": "event"
    },
    {
      "anonymous": false,
      "inputs": [
        {
          "indexed": true,
          "internalType": "address",
          "name": "previousOwner",
          "type": "address"
        },
        {
          "indexed": true,
          "internalType": "address",
          "name": "newOwner",
          "type": "address"
        }
      ],
      "name": "OwnershipTransferStarted",
      "type": "event"
    },
    {
      "anonymous": false,
      "inputs": [
        {
          "indexed": true,
          "internalType": "address",
          "name": "previousOwner",
          "type": "address"
        },
        {
          "indexed": true,
          "internalType": "address",
          "name": "newOwner",
          "type": "address"
        }
      ],
      "name": "OwnershipTransferred",
      "type": "event"
    },
    {
      "anonymous": false,
      "inputs": [
        {
          "indexed": true,
          "internalType": "uint64",
          "name": "roleId",
          "type": "uint64"
        },
        {
          "indexed": true,
          "internalType": "uint64",
          "name": "admin",
          "type": "uint64"
        }
      ],
      "name": "RoleAdminChanged",
      "type": "event"
    },
    {
      "anonymous": false,
      "inputs": [
        {
          "indexed": true,
          "internalType": "uint64",
          "name": "roleId",
          "type": "uint64"
        },
        {
          "indexed": false,
          "internalType": "uint32",
          "name": "delay",
          "type": "uint32"
        },
        {
          "indexed": false,
          "internalType": "uint48",
          "name": "since",
          "type": "uint48"
        }
      ],
      "name": "RoleGrantDelayChanged",
      "type": "event"
    },
    {
      "anonymous": false,
      "inputs": [
        {
          "indexed": true,
          "internalType": "uint64",
          "name": "roleId",
          "type": "uint64"
        },
        {
          "indexed": true,
          "internalType": "address",
          "name": "account",
          "type": "address"
        },
        {
          "indexed": false,
          "internalType": "uint32",
          "name": "delay",
          "type": "uint32"
        },
        {
          "indexed": false,
          "internalType": "uint48",
          "name": "since",
          "type": "uint48"
        },
        {
          "indexed": false,
          "internalType": "bool",
          "name": "newMember",
          "type": "bool"
        }
      ],
      "name": "RoleGranted",
      "type": "event"
    },
    {
      "anonymous": false,
      "inputs": [
        {
          "indexed": true,
          "internalType": "uint64",
          "name": "roleId",
          "type": "uint64"
        },
        {
          "indexed": true,
          "internalType": "uint64",
          "name": "guardian",
          "type": "uint64"
        }
      ],
      "name": "RoleGuardianChanged",
      "type": "event"
    },
    {
      "anonymous": false,
      "inputs": [
        {
          "indexed": true,
          "internalType": "uint64",
          "name": "roleId",
          "type": "uint64"
        },
        {
          "indexed": false,
          "internalType": "string",
          "name": "label",
          "type": "string"
        }
      ],
      "name": "RoleLabel",
      "type": "event"
    },
    {
      "anonymous": false,
      "inputs": [
        {
          "indexed": true,
          "internalType": "uint64",
          "name": "roleId",
          "type": "uint64"
        },
        {
          "indexed": true,
          "internalType": "address",
          "name": "account",
          "type": "address"
        }
      ],
      "name": "RoleRevoked",
      "type": "event"
    },
    {
      "anonymous": false,
      "inputs": [
        {
          "indexed": true,
          "internalType": "address",
          "name": "target",
          "type": "address"
        },
        {
          "indexed": false,
          "internalType": "uint32",
          "name": "delay",
          "type": "uint32"
        },
        {
          "indexed": false,
          "internalType": "uint48",
          "name": "since",
          "type": "uint48"
        }
      ],
      "name": "TargetAdminDelayUpdated",
      "type": "event"
    },
    {
      "anonymous": false,
      "inputs": [
        {
          "indexed": true,
          "internalType": "address",
          "name": "target",
          "type": "address"
        },
        {
          "indexed": false,
          "internalType": "bool",
          "name": "closed",
          "type": "bool"
        }
      ],
      "name": "TargetClosed",
      "type": "event"
    },
    {
      "anonymous": false,
      "inputs": [
        {
          "indexed": true,
          "internalType": "address",
          "name": "target",
          "type": "address"
        },
        {
          "indexed": false,
          "internalType": "bytes4",
          "name": "selector",
          "type": "bytes4"
        },
        {
          "indexed": true,
          "internalType": "uint64",
          "name": "roleId",
          "type": "uint64"
        }
      ],
      "name": "TargetFunctionRoleUpdated",
      "type": "event"
    },
    {
      "anonymous": false,
      "inputs": [
        {
          "indexed": true,
          "internalType": "address",
          "name": "implementation",
          "type": "address"
        }
      ],
      "name": "Upgraded",
      "type": "event"
    },
    {
      "inputs": [],
      "name": "ADMIN_ROLE",
      "outputs": [
        {
          "internalType": "uint64",
          "name": "",
          "type": "uint64"
        }
      ],
      "stateMutability": "view",
      "type": "function"
    },
    {
      "inputs": [],
      "name": "BLACKLIST_ROLE",
      "outputs": [
        {
          "internalType": "uint64",
          "name": "",
          "type": "uint64"
        }
      ],
      "stateMutability": "view",
      "type": "function"
    },
    {
      "inputs": [],
      "name": "PUBLIC_ROLE",
      "outputs": [
        {
          "internalType": "uint64",
          "name": "",
          "type": "uint64"
        }
      ],
      "stateMutability": "view",
      "type": "function"
    },
    {
      "inputs": [],
      "name": "UPGRADE_INTERFACE_VERSION",
      "outputs": [
        {
          "internalType": "string",
          "name": "",
          "type": "string"
        }
      ],
      "stateMutability": "view",
      "type": "function"
    },
    {
      "inputs": [],
      "name": "acceptOwnership",
      "outputs": [],
      "stateMutability": "nonpayable",
      "type": "function"
    },
    {
      "inputs": [
        {
          "internalType": "address",
          "name": "caller",
          "type": "address"
        },
        {
          "internalType": "address",
          "name": "target",
          "type": "address"
        },
        {
          "internalType": "bytes4",
          "name": "selector",
          "type": "bytes4"
        }
      ],
      "name": "canCall",
      "outputs": [
        {
          "internalType": "bool",
          "name": "immediate",
          "type": "bool"
        },
        {
          "internalType": "uint32",
          "name": "delay",
          "type": "uint32"
        }
      ],
      "stateMutability": "view",
      "type": "function"
    },
    {
      "inputs": [
        {
          "internalType": "address",
          "name": "caller",
          "type": "address"
        },
        {
          "internalType": "address",
          "name": "target",
          "type": "address"
        },
        {
          "internalType": "bytes",
          "name": "data",
          "type": "bytes"
        }
      ],
      "name": "cancel",
      "outputs": [
        {
          "internalType": "uint32",
          "name": "",
          "type": "uint32"
        }
      ],
      "stateMutability": "nonpayable",
      "type": "function"
    },
    {
      "inputs": [
        {
          "internalType": "address",
          "name": "caller",
          "type": "address"
        },
        {
          "internalType": "bytes",
          "name": "data",
          "type": "bytes"
        }
      ],
      "name": "consumeScheduledOp",
      "outputs": [],
      "stateMutability": "nonpayable",
      "type": "function"
    },
    {
      "inputs": [
        {
          "internalType": "address",
          "name": "target",
          "type": "address"
        },
        {
          "internalType": "bytes",
          "name": "data",
          "type": "bytes"
        }
      ],
      "name": "execute",
      "outputs": [
        {
          "internalType": "uint32",
          "name": "",
          "type": "uint32"
        }
      ],
      "stateMutability": "payable",
      "type": "function"
    },
    {
      "inputs": [],
      "name": "expiration",
      "outputs": [
        {
          "internalType": "uint32",
          "name": "",
          "type": "uint32"
        }
      ],
      "stateMutability": "view",
      "type": "function"
    },
    {
      "inputs": [
        {
          "internalType": "uint64",
          "name": "roleId",
          "type": "uint64"
        },
        {
          "internalType": "address",
          "name": "account",
          "type": "address"
        }
      ],
      "name": "getAccess",
      "outputs": [
        {
          "internalType": "uint48",
          "name": "since",
          "type": "uint48"
        },
        {
          "internalType": "uint32",
          "name": "currentDelay",
          "type": "uint32"
        },
        {
          "internalType": "uint32",
          "name": "pendingDelay",
          "type": "uint32"
        },
        {
          "internalType": "uint48",
          "name": "effect",
          "type": "uint48"
        }
      ],
      "stateMutability": "view",
      "type": "function"
    },
    {
      "inputs": [
        {
          "internalType": "bytes32",
          "name": "id",
          "type": "bytes32"
        }
      ],
      "name": "getNonce",
      "outputs": [
        {
          "internalType": "uint32",
          "name": "",
          "type": "uint32"
        }
      ],
      "stateMutability": "view",
      "type": "function"
    },
    {
      "inputs": [
        {
          "internalType": "uint64",
          "name": "roleId",
          "type": "uint64"
        }
      ],
      "name": "getRoleAdmin",
      "outputs": [
        {
          "internalType": "uint64",
          "name": "",
          "type": "uint64"
        }
      ],
      "stateMutability": "view",
      "type": "function"
    },
    {
      "inputs": [
        {
          "internalType": "uint64",
          "name": "roleId",
          "type": "uint64"
        }
      ],
      "name": "getRoleGrantDelay",
      "outputs": [
        {
          "internalType": "uint32",
          "name": "",
          "type": "uint32"
        }
      ],
      "stateMutability": "view",
      "type": "function"
    },
    {
      "inputs": [
        {
          "internalType": "uint64",
          "name": "roleId",
          "type": "uint64"
        }
      ],
      "name": "getRoleGuardian",
      "outputs": [
        {
          "internalType": "uint64",
          "name": "",
          "type": "uint64"
        }
      ],
      "stateMutability": "view",
      "type": "function"
    },
    {
      "inputs": [
        {
          "internalType": "bytes32",
          "name": "id",
          "type": "bytes32"
        }
      ],
      "name": "getSchedule",
      "outputs": [
        {
          "internalType": "uint48",
          "name": "",
          "type": "uint48"
        }
      ],
      "stateMutability": "view",
      "type": "function"
    },
    {
      "inputs": [
        {
          "internalType": "address",
          "name": "target",
          "type": "address"
        }
      ],
      "name": "getTargetAdminDelay",
      "outputs": [
        {
          "internalType": "uint32",
          "name": "",
          "type": "uint32"
        }
      ],
      "stateMutability": "view",
      "type": "function"
    },
    {
      "inputs": [
        {
          "internalType": "address",
          "name": "target",
          "type": "address"
        },
        {
          "internalType": "bytes4",
          "name": "selector",
          "type": "bytes4"
        }
      ],
      "name": "getTargetFunctionRole",
      "outputs": [
        {
          "internalType": "uint64",
          "name": "",
          "type": "uint64"
        }
      ],
      "stateMutability": "view",
      "type": "function"
    },
    {
      "inputs": [
        {
          "internalType": "uint64",
          "name": "roleId",
          "type": "uint64"
        },
        {
          "internalType": "address",
          "name": "account",
          "type": "address"
        },
        {
          "internalType": "uint32",
          "name": "executionDelay",
          "type": "uint32"
        }
      ],
      "name": "grantRole",
      "outputs": [],
      "stateMutability": "nonpayable",
      "type": "function"
    },
    {
      "inputs": [
        {
          "internalType": "uint64",
          "name": "roleId",
          "type": "uint64"
        },
        {
          "internalType": "address",
          "name": "account",
          "type": "address"
        }
      ],
      "name": "hasRole",
      "outputs": [
        {
          "internalType": "bool",
          "name": "",
          "type": "bool"
        },
        {
          "internalType": "uint32",
          "name": "",
          "type": "uint32"
        }
      ],
      "stateMutability": "view",
      "type": "function"
    },
    {
      "inputs": [
        {
          "internalType": "address",
          "name": "caller",
          "type": "address"
        },
        {
          "internalType": "address",
          "name": "target",
          "type": "address"
        },
        {
          "internalType": "bytes",
          "name": "data",
          "type": "bytes"
        }
      ],
      "name": "hashOperation",
      "outputs": [
        {
          "internalType": "bytes32",
          "name": "",
          "type": "bytes32"
        }
      ],
      "stateMutability": "view",
      "type": "function"
    },
    {
      "inputs": [
        {
          "internalType": "address",
          "name": "initialAdmin",
          "type": "address"
        }
      ],
      "name": "initialize",
      "outputs": [],
      "stateMutability": "nonpayable",
      "type": "function"
    },
    {
      "inputs": [
        {
          "internalType": "address",
          "name": "target",
          "type": "address"
        }
      ],
      "name": "isTargetClosed",
      "outputs": [
        {
          "internalType": "bool",
          "name": "",
          "type": "bool"
        }
      ],
      "stateMutability": "view",
      "type": "function"
    },
    {
      "inputs": [
        {
          "internalType": "uint64",
          "name": "roleId",
          "type": "uint64"
        },
        {
          "internalType": "string",
          "name": "label",
          "type": "string"
        }
      ],
      "name": "labelRole",
      "outputs": [],
      "stateMutability": "nonpayable",
      "type": "function"
    },
    {
      "inputs": [],
      "name": "minSetback",
      "outputs": [
        {
          "internalType": "uint32",
          "name": "",
          "type": "uint32"
        }
      ],
      "stateMutability": "view",
      "type": "function"
    },
    {
      "inputs": [
        {
          "internalType": "bytes[]",
          "name": "data",
          "type": "bytes[]"
        }
      ],
      "name": "multicall",
      "outputs": [
        {
          "internalType": "bytes[]",
          "name": "results",
          "type": "bytes[]"
        }
      ],
      "stateMutability": "nonpayable",
      "type": "function"
    },
    {
      "inputs": [],
      "name": "owner",
      "outputs": [
        {
          "internalType": "address",
          "name": "",
          "type": "address"
        }
      ],
      "stateMutability": "view",
      "type": "function"
    },
    {
      "inputs": [],
      "name": "pendingOwner",
      "outputs": [
        {
          "internalType": "address",
          "name": "",
          "type": "address"
        }
      ],
      "stateMutability": "view",
      "type": "function"
    },
    {
      "inputs": [],
      "name": "proxiableUUID",
      "outputs": [
        {
          "internalType": "bytes32",
          "name": "",
          "type": "bytes32"
        }
      ],
      "stateMutability": "view",
      "type": "function"
    },
    {
      "inputs": [],
      "name": "renounceOwnership",
      "outputs": [],
      "stateMutability": "nonpayable",
      "type": "function"
    },
    {
      "inputs": [
        {
          "internalType": "uint64",
          "name": "roleId",
          "type": "uint64"
        },
        {
          "internalType": "address",
          "name": "callerConfirmation",
          "type": "address"
        }
      ],
      "name": "renounceRole",
      "outputs": [],
      "stateMutability": "nonpayable",
      "type": "function"
    },
    {
      "inputs": [
        {
          "internalType": "uint64",
          "name": "roleId",
          "type": "uint64"
        },
        {
          "internalType": "address",
          "name": "account",
          "type": "address"
        }
      ],
      "name": "revokeRole",
      "outputs": [],
      "stateMutability": "nonpayable",
      "type": "function"
    },
    {
      "inputs": [
        {
          "internalType": "address",
          "name": "target",
          "type": "address"
        },
        {
          "internalType": "bytes",
          "name": "data",
          "type": "bytes"
        },
        {
          "internalType": "uint48",
          "name": "when",
          "type": "uint48"
        }
      ],
      "name": "schedule",
      "outputs": [
        {
          "internalType": "bytes32",
          "name": "operationId",
          "type": "bytes32"
        },
        {
          "internalType": "uint32",
          "name": "nonce",
          "type": "uint32"
        }
      ],
      "stateMutability": "nonpayable",
      "type": "function"
    },
    {
      "inputs": [
        {
          "internalType": "uint64",
          "name": "roleId",
          "type": "uint64"
        },
        {
          "internalType": "uint32",
          "name": "newDelay",
          "type": "uint32"
        }
      ],
      "name": "setGrantDelay",
      "outputs": [],
      "stateMutability": "nonpayable",
      "type": "function"
    },
    {
      "inputs": [
        {
          "internalType": "uint64",
          "name": "roleId",
          "type": "uint64"
        },
        {
          "internalType": "uint64",
          "name": "admin",
          "type": "uint64"
        }
      ],
      "name": "setRoleAdmin",
      "outputs": [],
      "stateMutability": "nonpayable",
      "type": "function"
    },
    {
      "inputs": [
        {
          "internalType": "uint64",
          "name": "roleId",
          "type": "uint64"
        },
        {
          "internalType": "uint64",
          "name": "guardian",
          "type": "uint64"
        }
      ],
      "name": "setRoleGuardian",
      "outputs": [],
      "stateMutability": "nonpayable",
      "type": "function"
    },
    {
      "inputs": [
        {
          "internalType": "address",
          "name": "target",
          "type": "address"
        },
        {
          "internalType": "uint32",
          "name": "newDelay",
          "type": "uint32"
        }
      ],
      "name": "setTargetAdminDelay",
      "outputs": [],
      "stateMutability": "nonpayable",
      "type": "function"
    },
    {
      "inputs": [
        {
          "internalType": "address",
          "name": "target",
          "type": "address"
        },
        {
          "internalType": "bool",
          "name": "closed",
          "type": "bool"
        }
      ],
      "name": "setTargetClosed",
      "outputs": [],
      "stateMutability": "nonpayable",
      "type": "function"
    },
    {
      "inputs": [
        {
          "internalType": "address",
          "name": "target",
          "type": "address"
        },
        {
          "internalType": "bytes4[]",
          "name": "selectors",
          "type": "bytes4[]"
        },
        {
          "internalType": "uint64",
          "name": "roleId",
          "type": "uint64"
        }
      ],
      "name": "setTargetFunctionRole",
      "outputs": [],
      "stateMutability": "nonpayable",
      "type": "function"
    },
    {
      "inputs": [
        {
          "internalType": "address",
          "name": "newOwner",
          "type": "address"
        }
      ],
      "name": "transferOwnership",
      "outputs": [],
      "stateMutability": "nonpayable",
      "type": "function"
    },
    {
      "inputs": [
        {
          "internalType": "address",
          "name": "target",
          "type": "address"
        },
        {
          "internalType": "address",
          "name": "newAuthority",
          "type": "address"
        }
      ],
      "name": "updateAuthority",
      "outputs": [],
      "stateMutability": "nonpayable",
      "type": "function"
    },
    {
      "inputs": [
        {
          "internalType": "address",
          "name": "newImplementation",
          "type": "address"
        },
        {
          "internalType": "bytes",
          "name": "data",
          "type": "bytes"
        }
      ],
      "name": "upgradeToAndCall",
      "outputs": [],
      "stateMutability": "payable",
      "type": "function"
    }
  ],
  "bytecode": "0x60a06040523073ffffffffffffffffffffffffffffffffffffffff1660809073ffffffffffffffffffffffffffffffffffffffff168152503480156200004457600080fd5b50620000556200005b60201b60201c565b620001cf565b60006200006d6200016560201b60201c565b90508060000160089054906101000a900460ff1615620000b9576040517ff92ee8a900000000000000000000000000000000000000000000000000000000815260040160405180910390fd5b67ffffffffffffffff80168160000160009054906101000a900467ffffffffffffffff1667ffffffffffffffff1614620001625767ffffffffffffffff8160000160006101000a81548167ffffffffffffffff021916908367ffffffffffffffff1602179055507fc7f505b2f371ae2175ee4913f4499e1f2633a7b5936321eed1cdaeb6115181d267ffffffffffffffff604051620001599190620001b2565b60405180910390a15b50565b60007ff0c57e16840df040f15088dc2f81fe391c3923bec73e23a9662efc9c229c6a00905090565b600067ffffffffffffffff82169050919050565b620001ac816200018d565b82525050565b6000602082019050620001c96000830184620001a1565b92915050565b608051615950620001f960003960008181612baa01528181612bff0152612ed801526159506000f3fe6080604052600436106102515760003560e01c806375b238fc11610139578063b7009613116100b6578063d22b59891161007a578063d22b598914610909578063d6bb62c614610932578063e30c39781461096f578063f2fde38b1461099a578063f801a698146109c3578063fe0776f514610a0157610251565b8063b700961314610810578063b7d2b1621461084e578063c4d66de814610877578063cc1b6c81146108a0578063d1f856ee146108cb57610251565b8063a166aa89116100fd578063a166aa8914610705578063a64d95ce14610742578063abd9bd2a1461076b578063ac9650d8146107a8578063ad3cb1cc146107e557610251565b806375b238fc1461064657806379ba509714610671578063853551b8146106885780638da5cb5b146106b157806394c7d7ee146106dc57610251565b80633adc277a116101d25780634f1ef286116101965780634f1ef28614610545578063529629521461056157806352d1902d1461058a578063530dd456146105b55780636d5115bd146105f2578063715018a61461062f57610251565b80633adc277a146104385780633ca7c02a146104755780634136a33c146104a05780634665096d146104dd5780634c1da1e21461050857610251565b806319afe4631161021957806319afe4631461034b5780631cff79cd1461037657806325c471a0146103a65780633078f114146103cf57806330cae1871461040f57610251565b806308d6122d146102565780630b0a93ba1461027f57806312be8727146102bc578063167bd395146102f957806318ff183c14610322575b600080fd5b34801561026257600080fd5b5061027d6004803603810190610278919061449b565b610a2a565b005b34801561028b57600080fd5b506102a660048036038101906102a1919061450f565b610a84565b6040516102b3919061454b565b60405180910390f35b3480156102c857600080fd5b506102e360048036038101906102de919061450f565b610ada565b6040516102f09190614585565b60405180910390f35b34801561030557600080fd5b50610320600480360381019061031b91906145d8565b610b4e565b005b34801561032e57600080fd5b5061034960048036038101906103449190614618565b610b64565b005b34801561035757600080fd5b50610360610bdb565b60405161036d919061454b565b60405180910390f35b610390600480360381019061038b91906146ae565b610be3565b60405161039d9190614585565b60405180910390f35b3480156103b257600080fd5b506103cd60048036038101906103c8919061473a565b610d49565b005b3480156103db57600080fd5b506103f660048036038101906103f1919061478d565b610d6b565b60405161040694939291906147ee565b60405180910390f35b34801561041b57600080fd5b5061043660048036038101906104319190614833565b610e51565b005b34801561044457600080fd5b5061045f600480360381019061045a91906148a9565b610e67565b60405161046c91906148d6565b60405180910390f35b34801561048157600080fd5b5061048a610ec2565b604051610497919061454b565b60405180910390f35b3480156104ac57600080fd5b506104c760048036038101906104c291906148a9565b610ece565b6040516104d49190614585565b60405180910390f35b3480156104e957600080fd5b506104f2610f0c565b6040516104ff9190614585565b60405180910390f35b34801561051457600080fd5b5061052f600480360381019061052a91906148f1565b610f17565b60405161053c9190614585565b60405180910390f35b61055f600480360381019061055a9190614a5f565b610fa3565b005b34801561056d57600080fd5b5061058860048036038101906105839190614833565b610fc2565b005b34801561059657600080fd5b5061059f610fd8565b6040516105ac9190614aca565b60405180910390f35b3480156105c157600080fd5b506105dc60048036038101906105d7919061450f565b61100b565b6040516105e9919061454b565b60405180910390f35b3480156105fe57600080fd5b5061061960048036038101906106149190614b3d565b611061565b604051610626919061454b565b60405180910390f35b34801561063b57600080fd5b5061064461111f565b005b34801561065257600080fd5b5061065b611133565b604051610668919061454b565b60405180910390f35b34801561067d57600080fd5b50610686611138565b005b34801561069457600080fd5b506106af60048036038101906106aa9190614bd3565b6111c7565b005b3480156106bd57600080fd5b506106c6611290565b6040516106d39190614c42565b60405180910390f35b3480156106e857600080fd5b5061070360048036038101906106fe91906146ae565b6112c8565b005b34801561071157600080fd5b5061072c600480360381019061072791906148f1565b6113e6565b6040516107399190614c6c565b60405180910390f35b34801561074e57600080fd5b5061076960048036038101906107649190614c87565b61144d565b005b34801561077757600080fd5b50610792600480360381019061078d9190614cc7565b611463565b60405161079f9190614aca565b60405180910390f35b3480156107b457600080fd5b506107cf60048036038101906107ca9190614d91565b61149c565b6040516107dc9190614f1f565b60405180910390f35b3480156107f157600080fd5b506107fa611680565b6040516108079190614f96565b60405180910390f35b34801561081c57600080fd5b5061083760048036038101906108329190614fb8565b6116b9565b60405161084592919061500b565b60405180910390f35b34801561085a57600080fd5b506108756004803603810190610870919061478d565b611766565b005b34801561088357600080fd5b5061089e600480360381019061089991906148f1565b61177d565b005b3480156108ac57600080fd5b506108b5611994565b6040516108c29190614585565b60405180910390f35b3480156108d757600080fd5b506108f260048036038101906108ed919061478d565b61199f565b60405161090092919061500b565b60405180910390f35b34801561091557600080fd5b50610930600480360381019061092b9190615034565b6119fc565b005b34801561093e57600080fd5b5061095960048036038101906109549190614cc7565b611a12565b6040516109669190614585565b60405180910390f35b34801561097b57600080fd5b50610984611c18565b6040516109919190614c42565b60405180910390f35b3480156109a657600080fd5b506109c160048036038101906109bc91906148f1565b611c50565b005b3480156109cf57600080fd5b506109ea60048036038101906109e591906150a0565b611d0c565b6040516109f8929190615114565b60405180910390f35b348015610a0d57600080fd5b50610a286004803603810190610a23919061478d565b611f03565b005b610a32611f7e565b60005b83839050811015610a7d57610a7285858584818110610a5757610a5661513d565b5b9050602002016020810190610a6c919061516c565b8461202b565b806001019050610a35565b5050505050565b600080610a8f612150565b90508060010160008467ffffffffffffffff1667ffffffffffffffff16815260200190815260200160002060010160089054906101000a900467ffffffffffffffff16915050919050565b600080610ae5612150565b9050610b468160010160008567ffffffffffffffff1667ffffffffffffffff16815260200190815260200160002060010160109054906101000a90046dffffffffffffffffffffffffffff166dffffffffffffffffffffffffffff16612178565b915050919050565b610b56611f7e565b610b6082826121a1565b5050565b610b6c611f7e565b8173ffffffffffffffffffffffffffffffffffffffff16637a9e5e4b826040518263ffffffff1660e01b8152600401610ba59190614c42565b600060405180830381600087803b158015610bbf57600080fd5b505af1158015610bd3573d6000803e3d6000fd5b505050505050565b63deadbeef81565b600080610bee612150565b90506000610bfa6122cc565b9050600080610c0b838989896122d4565b9150915081158015610c23575060008163ffffffff16145b15610c72578288610c348989612354565b6040517f81c6f24b000000000000000000000000000000000000000000000000000000008152600401610c69939291906151a8565b60405180910390fd5b6000610c80848a8a8a611463565b90506000808363ffffffff16141580610caa57506000610c9f83610e67565b65ffffffffffff1614155b15610cbb57610cb88261237d565b90505b600086600301549050610cd78b610cd28c8c612354565b612546565b8760030181905550610d2e8b8b8b8080601f016020809104026020016040519081016040528093929190818152602001838380828437600081840152601f19601f8201169050808301925050505050505034612579565b50808760030181905550819750505050505050509392505050565b610d51611f7e565b610d658383610d5f86610ada565b84612646565b50505050565b6000806000806000610d7b612150565b905060008160010160008967ffffffffffffffff1667ffffffffffffffff16815260200190815260200160002060000160008873ffffffffffffffffffffffffffffffffffffffff1673ffffffffffffffffffffffffffffffffffffffff16815260200190815260200160002090508060000160009054906101000a900465ffffffffffff169550610e3a8160000160069054906101000a90046dffffffffffffffffffffffffffff166dffffffffffffffffffffffffffff16612a2b565b809550819650829750505050505092959194509250565b610e59611f7e565b610e638282612a4e565b5050565b600080610e72612150565b9050600081600201600085815260200190815260200160002060000160009054906101000a900465ffffffffffff169050610eac81612b6c565b610eb65780610eb9565b60005b92505050919050565b67ffffffffffffffff81565b600080610ed9612150565b905080600201600084815260200190815260200160002060000160069054906101000a900463ffffffff16915050919050565b600062093a80905090565b600080610f22612150565b9050610f9b8160000160008573ffffffffffffffffffffffffffffffffffffffff1673ffffffffffffffffffffffffffffffffffffffff16815260200190815260200160002060010160009054906101000a90046dffffffffffffffffffffffffffff166dffffffffffffffffffffffffffff16612178565b915050919050565b610fab612ba8565b610fb482612c8e565b610fbe8282612c99565b5050565b610fca611f7e565b610fd48282612db8565b5050565b6000610fe2612ed6565b7f360894a13ba1a3210667c828492db98dca3e2076cc3735a920a3ca505d382bbc60001b905090565b600080611016612150565b90508060010160008467ffffffffffffffff1667ffffffffffffffff16815260200190815260200160002060010160009054906101000a900467ffffffffffffffff16915050919050565b60008061106c612150565b90508060000160008573ffffffffffffffffffffffffffffffffffffffff1673ffffffffffffffffffffffffffffffffffffffff1681526020019081526020016000206000016000847bffffffffffffffffffffffffffffffffffffffffffffffffffffffff19167bffffffffffffffffffffffffffffffffffffffffffffffffffffffff1916815260200190815260200160002060009054906101000a900467ffffffffffffffff1691505092915050565b611127612f5d565b6111316000612fe4565b565b600081565b60006111426122cc565b90508073ffffffffffffffffffffffffffffffffffffffff16611163611c18565b73ffffffffffffffffffffffffffffffffffffffff16146111bb57806040517f118cdaa70000000000000000000000000000000000000000000000000000000081526004016111b29190614c42565b60405180910390fd5b6111c481612fe4565b50565b6111cf611f7e565b600067ffffffffffffffff168367ffffffffffffffff161480611205575067ffffffffffffffff80168367ffffffffffffffff16145b1561124757826040517f1871a90c00000000000000000000000000000000000000000000000000000000815260040161123e919061454b565b60405180910390fd5b8267ffffffffffffffff167f1256f5b5ecb89caec12db449738f2fbcd1ba5806cf38f35413f4e5c15bf6a450838360405161128392919061520c565b60405180910390a2505050565b60008061129b613024565b90508060000160009054906101000a900473ffffffffffffffffffffffffffffffffffffffff1691505090565b60006112d26122cc565b9050638fb3603760e01b7bffffffffffffffffffffffffffffffffffffffffffffffffffffffff19168173ffffffffffffffffffffffffffffffffffffffff16638fb360376040518163ffffffff1660e01b8152600401602060405180830381865afa158015611346573d6000803e3d6000fd5b505050506040513d601f19601f8201168201806040525081019061136a9190615245565b7bffffffffffffffffffffffffffffffffffffffffffffffffffffffff1916146113cb57806040517f320ff7480000000000000000000000000000000000000000000000000000000081526004016113c29190614c42565b60405180910390fd5b6113df6113da85838686611463565b61237d565b5050505050565b6000806113f1612150565b90508060000160008473ffffffffffffffffffffffffffffffffffffffff1673ffffffffffffffffffffffffffffffffffffffff168152602001908152602001600020600101600e9054906101000a900460ff16915050919050565b611455611f7e565b61145f828261304c565b5050565b60008484848460405160200161147c94939291906152b0565b604051602081830303815290604052805190602001209050949350505050565b606060006114a86122cc565b73ffffffffffffffffffffffffffffffffffffffff163373ffffffffffffffffffffffffffffffffffffffff161461154b576000366114e56131d4565b60003690506114f49190615329565b90809261150393929190615367565b8080601f016020809104026020016040519081016040528093929190818152602001838380828437600081840152601f19601f8201169050808301925050505050505061159a565b600067ffffffffffffffff81111561156657611565614934565b5b6040519080825280601f01601f1916602001820160405280156115985781602001600182028036833780820191505090505b505b90508383905067ffffffffffffffff8111156115b9576115b8614934565b5b6040519080825280602002602001820160405280156115ec57816020015b60608152602001906001900390816115d75790505b50915060005b848490508110156116785761164d308686848181106116145761161361513d565b5b905060200281019061162691906153b1565b8560405160200161163993929190615475565b6040516020818303038152906040526131d9565b8382815181106116605761165f61513d565b5b602002602001018190525080806001019150506115f2565b505092915050565b6040518060400160405280600581526020017f352e302e3000000000000000000000000000000000000000000000000000000081525081565b6000806116c5846113e6565b156116d6576000809150915061175e565b3073ffffffffffffffffffffffffffffffffffffffff168573ffffffffffffffffffffffffffffffffffffffff160361171e57611713848461325d565b60009150915061175e565b600061172a8585611061565b9050600080611739838961199f565b915091508161174a57600080611756565b60008163ffffffff1614815b945094505050505b935093915050565b61176e611f7e565b6117788282613283565b505050565b6000611787613480565b905060008160000160089054906101000a900460ff1615905060008260000160009054906101000a900467ffffffffffffffff1690506000808267ffffffffffffffff161480156117d55750825b9050600060018367ffffffffffffffff1614801561180a575060003073ffffffffffffffffffffffffffffffffffffffff163b145b905081158015611818575080155b1561184f576040517ff92ee8a900000000000000000000000000000000000000000000000000000000815260040160405180910390fd5b60018560000160006101000a81548167ffffffffffffffff021916908367ffffffffffffffff160217905550831561189f5760018560000160086101000a81548160ff0219169083151502179055505b600073ffffffffffffffffffffffffffffffffffffffff168673ffffffffffffffffffffffffffffffffffffffff160361190e576040517f08c379a00000000000000000000000000000000000000000000000000000000081526004016119059061550d565b60405180910390fd5b611917866134a8565b61191f6134bc565b611928866134c6565b6119306134da565b831561198c5760008560000160086101000a81548160ff0219169083151502179055507fc7f505b2f371ae2175ee4913f4499e1f2633a7b5936321eed1cdaeb6115181d260016040516119839190615572565b60405180910390a15b505050505050565b600062069780905090565b6000806000806119b363deadbeef866134e4565b9150915081156119e45763deadbeef67ffffffffffffffff168667ffffffffffffffff1614819350935050506119f5565b6119ee86866134e4565b9350935050505b9250929050565b611a04611f7e565b611a0e8282613561565b5050565b600080611a1d612150565b90506000611a296122cc565b90506000611a378686612354565b90506000611a4789898989611463565b9050600084600201600083815260200190815260200160002060000160009054906101000a900465ffffffffffff1665ffffffffffff1603611ac057806040517f60a299b0000000000000000000000000000000000000000000000000000000008152600401611ab79190614aca565b60405180910390fd5b8273ffffffffffffffffffffffffffffffffffffffff168973ffffffffffffffffffffffffffffffffffffffff1614611b7a576000611b0060008561199f565b5090506000611b20611b1a611b158c87611061565b610a84565b8661199f565b50905081158015611b2f575080155b15611b7757848b8b866040517f3fe2751c000000000000000000000000000000000000000000000000000000008152600401611b6e949392919061558d565b60405180910390fd5b50505b83600201600082815260200190815260200160002060000160006101000a81549065ffffffffffff0219169055600084600201600083815260200190815260200160002060000160069054906101000a900463ffffffff1690508063ffffffff16827fbd9ac67a6e2f6463b80927326310338bcbb4bdb7936ce1365ea3e01067e7b9f760405160405180910390a38095505050505050949350505050565b600080611c236136cd565b90508060000160009054906101000a900473ffffffffffffffffffffffffffffffffffffffff1691505090565b611c58612f5d565b6000611c626136cd565b9050818160000160006101000a81548173ffffffffffffffffffffffffffffffffffffffff021916908373ffffffffffffffffffffffffffffffffffffffff1602179055508173ffffffffffffffffffffffffffffffffffffffff16611cc6611290565b73ffffffffffffffffffffffffffffffffffffffff167f38d16b8cac22d99fc7c124b9cd0de2d3fa1faef420bfe791d8c362d765e2270060405160405180910390a35050565b6000806000611d19612150565b90506000611d256122cc565b90506000611d35828a8a8a6122d4565b91505060008163ffffffff16611d496136f5565b611d5391906155d2565b905060008263ffffffff161480611d8d575060008765ffffffffffff16118015611d8c57508065ffffffffffff168765ffffffffffff16105b5b15611ddc57828a611d9e8b8b612354565b6040517f81c6f24b000000000000000000000000000000000000000000000000000000008152600401611dd3939291906151a8565b60405180910390fd5b611df68765ffffffffffff168265ffffffffffff16613705565b9650611e04838b8b8b611463565b9550611e0f8661371e565b600184600201600088815260200190815260200160002060000160069054906101000a900463ffffffff160194508684600201600088815260200190815260200160002060000160006101000a81548165ffffffffffff021916908365ffffffffffff1602179055508484600201600088815260200190815260200160002060000160066101000a81548163ffffffff021916908363ffffffff1602179055508463ffffffff16867f82a2da5dee54ea8021c6545b4444620291e07ee83be6dd57edb175062715f3b489868e8e8e604051611eee95949392919061560c565b60405180910390a35050505094509492505050565b611f0b6122cc565b73ffffffffffffffffffffffffffffffffffffffff168173ffffffffffffffffffffffffffffffffffffffff1614611f6f576040517f5f159e6300000000000000000000000000000000000000000000000000000000815260040160405180910390fd5b611f798282613283565b505050565b6000611f886122cc565b9050600080611f9e83611f996137bf565b6137cc565b91509150816120265760008163ffffffff160361200a576000611fc7611fc26137bf565b6138ba565b5091505083816040517ff07e038f00000000000000000000000000000000000000000000000000000000815260040161200192919061565a565b60405180910390fd5b61202461201f843061201a6137bf565b611463565b61237d565b505b505050565b6000612035612150565b9050818160000160008673ffffffffffffffffffffffffffffffffffffffff1673ffffffffffffffffffffffffffffffffffffffff1681526020019081526020016000206000016000857bffffffffffffffffffffffffffffffffffffffffffffffffffffffff19167bffffffffffffffffffffffffffffffffffffffffffffffffffffffff1916815260200190815260200160002060006101000a81548167ffffffffffffffff021916908367ffffffffffffffff1602179055508167ffffffffffffffff168473ffffffffffffffffffffffffffffffffffffffff167f9ea6790c7dadfd01c9f8b9762b3682607af2c7e79e05a9f9fdf5580dde949151856040516121429190615683565b60405180910390a350505050565b60007f40c6c8c28789853c7efd823ab20824bbd71718a8a5915e855f6f288c9a26ad00905090565b600080612194836dffffffffffffffffffffffffffff16612a2b565b5050905080915050919050565b60006121ab612150565b90503073ffffffffffffffffffffffffffffffffffffffff168373ffffffffffffffffffffffffffffffffffffffff160361221d57826040517f5a068bc80000000000000000000000000000000000000000000000000000000081526004016122149190614c42565b60405180910390fd5b818160000160008573ffffffffffffffffffffffffffffffffffffffff1673ffffffffffffffffffffffffffffffffffffffff168152602001908152602001600020600101600e6101000a81548160ff0219169083151502179055508273ffffffffffffffffffffffffffffffffffffffff167f90d4e7bb7e5d933792b3562e1741306f8be94837e1348dacef9b6f1df56eb138836040516122bf9190614c6c565b60405180910390a2505050565b600033905090565b6000803073ffffffffffffffffffffffffffffffffffffffff168573ffffffffffffffffffffffffffffffffffffffff160361231e576123158685856137cc565b9150915061234b565b600484849050106123425761233d86866123388787612354565b6116b9565b612346565b6000805b915091505b94509492505050565b6000828260009060049261236a93929190615367565b9061237591906156b6565b905092915050565b600080612388612150565b9050600081600201600085815260200190815260200160002060000160009054906101000a900465ffffffffffff169050600082600201600086815260200190815260200160002060000160069054906101000a900463ffffffff16905060008265ffffffffffff160361243357846040517f60a299b000000000000000000000000000000000000000000000000000000000815260040161242a9190614aca565b60405180910390fd5b61243b6136f5565b65ffffffffffff168265ffffffffffff16111561248f57846040517f18cb6b7a0000000000000000000000000000000000000000000000000000000081526004016124869190614aca565b60405180910390fd5b61249882612b6c565b156124da57846040517f78a5d6e40000000000000000000000000000000000000000000000000000000081526004016124d19190614aca565b60405180910390fd5b82600201600086815260200190815260200160002060000160006101000a81549065ffffffffffff02191690558063ffffffff16857f76a2a46953689d4861a5d3f6ed883ad7e6af674a21f8e162707159fc9dde614d60405160405180910390a3809350505050919050565b6000828260405160200161255b929190615715565b60405160208183030381529060405280519060200120905092915050565b6060814710156125c057306040517fcd7860590000000000000000000000000000000000000000000000000000000081526004016125b79190614c42565b60405180910390fd5b6000808573ffffffffffffffffffffffffffffffffffffffff1684866040516125e9919061573e565b60006040518083038185875af1925050503d8060008114612626576040519150601f19603f3d011682016040523d82523d6000602084013e61262b565b606091505b509150915061263b868383613ca2565b925050509392505050565b600080612651612150565b905067ffffffffffffffff80168667ffffffffffffffff16036126ab57856040517f1871a90c0000000000000000000000000000000000000000000000000000000081526004016126a2919061454b565b60405180910390fd5b6000808260010160008967ffffffffffffffff1667ffffffffffffffff16815260200190815260200160002060000160008873ffffffffffffffffffffffffffffffffffffffff1673ffffffffffffffffffffffffffffffffffffffff16815260200190815260200160002060000160009054906101000a900465ffffffffffff1665ffffffffffff161490506000811561286d578563ffffffff1661274f6136f5565b61275991906155d2565b905060405180604001604052808265ffffffffffff1681526020016127838763ffffffff16613d31565b6dffffffffffffffffffffffffffff168152508360010160008a67ffffffffffffffff1667ffffffffffffffff16815260200190815260200160002060000160008973ffffffffffffffffffffffffffffffffffffffff1673ffffffffffffffffffffffffffffffffffffffff16815260200190815260200160002060008201518160000160006101000a81548165ffffffffffff021916908365ffffffffffff16021790555060208201518160000160066101000a8154816dffffffffffffffffffffffffffff02191690836dffffffffffffffffffffffffffff1602179055509050506129c0565b6129198560008560010160008c67ffffffffffffffff1667ffffffffffffffff16815260200190815260200160002060000160008b73ffffffffffffffffffffffffffffffffffffffff1673ffffffffffffffffffffffffffffffffffffffff16815260200190815260200160002060000160069054906101000a90046dffffffffffffffffffffffffffff166dffffffffffffffffffffffffffff16613d419092919063ffffffff16565b8460010160008b67ffffffffffffffff1667ffffffffffffffff16815260200190815260200160002060000160008a73ffffffffffffffffffffffffffffffffffffffff1673ffffffffffffffffffffffffffffffffffffffff16815260200190815260200160002060000160068294508391906101000a8154816dffffffffffffffffffffffffffff02191690836dffffffffffffffffffffffffffff16021790555050505b8673ffffffffffffffffffffffffffffffffffffffff168867ffffffffffffffff167ff98448b987f1428e0e230e1f3c6e2ce15b5693eaf31827fbd0b1ec4b424ae7cf878486604051612a1593929190615755565b60405180910390a3819350505050949350505050565b6000806000612a4184612a3c6136f5565b613dd3565b9250925092509193909250565b6000612a58612150565b9050600067ffffffffffffffff168367ffffffffffffffff161480612a90575067ffffffffffffffff80168367ffffffffffffffff16145b15612ad257826040517f1871a90c000000000000000000000000000000000000000000000000000000008152600401612ac9919061454b565b60405180910390fd5b818160010160008567ffffffffffffffff1667ffffffffffffffff16815260200190815260200160002060010160006101000a81548167ffffffffffffffff021916908367ffffffffffffffff1602179055508167ffffffffffffffff168367ffffffffffffffff167f1fd6dd7631312dfac2205b52913f99de03b4d7e381d5d27d3dbfe0713e6e634060405160405180910390a3505050565b6000612b766136f5565b65ffffffffffff16612b86610f0c565b63ffffffff1683612b9791906155d2565b65ffffffffffff1611159050919050565b7f000000000000000000000000000000000000000000000000000000000000000073ffffffffffffffffffffffffffffffffffffffff163073ffffffffffffffffffffffffffffffffffffffff161480612c5557507f000000000000000000000000000000000000000000000000000000000000000073ffffffffffffffffffffffffffffffffffffffff16612c3c613e30565b73ffffffffffffffffffffffffffffffffffffffff1614155b15612c8c576040517fe07c8dba00000000000000000000000000000000000000000000000000000000815260040160405180910390fd5b565b612c96612f5d565b50565b8173ffffffffffffffffffffffffffffffffffffffff166352d1902d6040518163ffffffff1660e01b8152600401602060405180830381865afa925050508015612d0157506040513d601f19601f82011682018060405250810190612cfe91906157a1565b60015b612d4257816040517f4c9c8ce3000000000000000000000000000000000000000000000000000000008152600401612d399190614c42565b60405180910390fd5b7f360894a13ba1a3210667c828492db98dca3e2076cc3735a920a3ca505d382bbc60001b8114612da957806040517faa1d49a4000000000000000000000000000000000000000000000000000000008152600401612da09190614aca565b60405180910390fd5b612db38383613e87565b505050565b6000612dc2612150565b9050600067ffffffffffffffff168367ffffffffffffffff161480612dfa575067ffffffffffffffff80168367ffffffffffffffff16145b15612e3c57826040517f1871a90c000000000000000000000000000000000000000000000000000000008152600401612e33919061454b565b60405180910390fd5b818160010160008567ffffffffffffffff1667ffffffffffffffff16815260200190815260200160002060010160086101000a81548167ffffffffffffffff021916908367ffffffffffffffff1602179055508167ffffffffffffffff168367ffffffffffffffff167f7a8059630b897b5de4c08ade69f8b90c3ead1f8596d62d10b6c4d14a0afb4ae260405160405180910390a3505050565b7f000000000000000000000000000000000000000000000000000000000000000073ffffffffffffffffffffffffffffffffffffffff163073ffffffffffffffffffffffffffffffffffffffff1614612f5b576040517fe07c8dba00000000000000000000000000000000000000000000000000000000815260040160405180910390fd5b565b612f656122cc565b73ffffffffffffffffffffffffffffffffffffffff16612f83611290565b73ffffffffffffffffffffffffffffffffffffffff1614612fe257612fa66122cc565b6040517f118cdaa7000000000000000000000000000000000000000000000000000000008152600401612fd99190614c42565b60405180910390fd5b565b6000612fee6136cd565b90508060000160006101000a81549073ffffffffffffffffffffffffffffffffffffffff021916905561302082613efa565b5050565b60007f9016d09d72d40fdae2fd8ceac6b6234c7706214fd39c1cd1e609a0528c199300905090565b6000613056612150565b905067ffffffffffffffff80168367ffffffffffffffff16036130b057826040517f1871a90c0000000000000000000000000000000000000000000000000000000081526004016130a7919061454b565b60405180910390fd5b6000613124836130be611994565b8460010160008867ffffffffffffffff1667ffffffffffffffff16815260200190815260200160002060010160109054906101000a90046dffffffffffffffffffffffffffff166dffffffffffffffffffffffffffff16613d419092919063ffffffff16565b8360010160008767ffffffffffffffff1667ffffffffffffffff16815260200190815260200160002060010160108294508391906101000a8154816dffffffffffffffffffffffffffff02191690836dffffffffffffffffffffffffffff16021790555050508367ffffffffffffffff167ffeb69018ee8b8fd50ea86348f1267d07673379f72cffdeccec63853ee8ce8b4884836040516131c69291906157ce565b60405180910390a250505050565b600090565b60606000808473ffffffffffffffffffffffffffffffffffffffff1684604051613203919061573e565b600060405180830381855af49150503d806000811461323e576040519150601f19603f3d011682016040523d82523d6000602084013e613243565b606091505b5091509150613253858383613ca2565b9250505092915050565b600080613268612150565b90506132748484612546565b81600301541491505092915050565b60008061328e612150565b905067ffffffffffffffff80168467ffffffffffffffff16036132e857836040517f1871a90c0000000000000000000000000000000000000000000000000000000081526004016132df919061454b565b60405180910390fd5b60008160010160008667ffffffffffffffff1667ffffffffffffffff16815260200190815260200160002060000160008573ffffffffffffffffffffffffffffffffffffffff1673ffffffffffffffffffffffffffffffffffffffff16815260200190815260200160002060000160009054906101000a900465ffffffffffff1665ffffffffffff160361338057600091505061347a565b8060010160008567ffffffffffffffff1667ffffffffffffffff16815260200190815260200160002060000160008473ffffffffffffffffffffffffffffffffffffffff1673ffffffffffffffffffffffffffffffffffffffff168152602001908152602001600020600080820160006101000a81549065ffffffffffff02191690556000820160066101000a8154906dffffffffffffffffffffffffffff021916905550508273ffffffffffffffffffffffffffffffffffffffff168467ffffffffffffffff167ff229baa593af28c41b1d16b748cd7688f0c83aaf92d4be41c44005defe84c16660405160405180910390a360019150505b92915050565b60007ff0c57e16840df040f15088dc2f81fe391c3923bec73e23a9662efc9c229c6a00905090565b6134b0613fd1565b6134b981614011565b50565b6134c4613fd1565b565b6134ce613fd1565b6134d78161409d565b50565b6134e2613fd1565b565b60008067ffffffffffffffff80168467ffffffffffffffff160361350f57600160009150915061355a565b60008061351c8686610d6b565b50509150915060008265ffffffffffff1614158015613552575061353e6136f5565b65ffffffffffff168265ffffffffffff1611155b819350935050505b9250929050565b600061356b612150565b905060006135f98361357b611994565b8460000160008873ffffffffffffffffffffffffffffffffffffffff1673ffffffffffffffffffffffffffffffffffffffff16815260200190815260200160002060010160009054906101000a90046dffffffffffffffffffffffffffff166dffffffffffffffffffffffffffff16613d419092919063ffffffff16565b8360000160008773ffffffffffffffffffffffffffffffffffffffff1673ffffffffffffffffffffffffffffffffffffffff16815260200190815260200160002060010160008294508391906101000a8154816dffffffffffffffffffffffffffff02191690836dffffffffffffffffffffffffffff16021790555050508373ffffffffffffffffffffffffffffffffffffffff167fa56b76017453f399ec2327ba00375dbfb1fd070ff854341ad6191e6a2e2de19c84836040516136bf9291906157ce565b60405180910390a250505050565b60007f237e158222e3e6968b72b9db0d8043aacf074ad9f650f0d1606b4d82ee432c00905090565b600061370042614123565b905090565b60008183116137145781613716565b825b905092915050565b6000613728612150565b9050600081600201600084815260200190815260200160002060000160009054906101000a900465ffffffffffff16905060008165ffffffffffff1614158015613778575061377681612b6c565b155b156137ba57826040517f813e94590000000000000000000000000000000000000000000000000000000081526004016137b19190614aca565b60405180910390fd5b505050565b3660008036915091509091565b60008060048484905010156137e757600080915091506138b2565b3073ffffffffffffffffffffffffffffffffffffffff168573ffffffffffffffffffffffffffffffffffffffff16036138385761382d306138288686612354565b61325d565b6000915091506138b2565b600080600061384787876138ba565b9250925092508261386157600080945094505050506138b2565b60008061386e848b61199f565b9150915081613888576000809650965050505050506138b2565b61389e8363ffffffff168263ffffffff16613705565b955060008663ffffffff1614965050505050505b935093915050565b600080600060048585905010156138db576000806000925092509250613c9b565b60006138e78686612354565b905063853551b860e01b7bffffffffffffffffffffffffffffffffffffffffffffffffffffffff1916817bffffffffffffffffffffffffffffffffffffffffffffffffffffffff1916148061398057506330cae18760e01b7bffffffffffffffffffffffffffffffffffffffffffffffffffffffff1916817bffffffffffffffffffffffffffffffffffffffffffffffffffffffff1916145b806139cf5750635296295260e01b7bffffffffffffffffffffffffffffffffffffffffffffffffffffffff1916817bffffffffffffffffffffffffffffffffffffffffffffffffffffffff1916145b80613a1e575063a64d95ce60e01b7bffffffffffffffffffffffffffffffffffffffffffffffffffffffff1916817bffffffffffffffffffffffffffffffffffffffffffffffffffffffff1916145b80613a6d575063d22b598960e01b7bffffffffffffffffffffffffffffffffffffffffffffffffffffffff1916817bffffffffffffffffffffffffffffffffffffffffffffffffffffffff1916145b15613a8357600160008093509350935050613c9b565b6318ff183c60e01b7bffffffffffffffffffffffffffffffffffffffffffffffffffffffff1916817bffffffffffffffffffffffffffffffffffffffffffffffffffffffff19161480613b1a575063167bd39560e01b7bffffffffffffffffffffffffffffffffffffffffffffffffffffffff1916817bffffffffffffffffffffffffffffffffffffffffffffffffffffffff1916145b80613b6957506308d6122d60e01b7bffffffffffffffffffffffffffffffffffffffffffffffffffffffff1916817bffffffffffffffffffffffffffffffffffffffffffffffffffffffff1916145b15613bb35760008686600490602492613b8493929190615367565b810190613b919190615835565b90506000613b9e82610f17565b90506001600082955095509550505050613c9b565b6325c471a060e01b7bffffffffffffffffffffffffffffffffffffffffffffffffffffffff1916817bffffffffffffffffffffffffffffffffffffffffffffffffffffffff19161480613c4a575063b7d2b16260e01b7bffffffffffffffffffffffffffffffffffffffffffffffffffffffff1916817bffffffffffffffffffffffffffffffffffffffffffffffffffffffff1916145b15613c8e5760008686600490602492613c6593929190615367565b810190613c72919061450f565b90506001613c7f8261100b565b60009450945094505050613c9b565b6000806000935093509350505b9250925092565b606082613cb757613cb28261417d565b613d29565b60008251148015613cdf575060008473ffffffffffffffffffffffffffffffffffffffff163b145b15613d2157836040517f9996b315000000000000000000000000000000000000000000000000000000008152600401613d189190614c42565b60405180910390fd5b819050613d2a565b5b9392505050565b60008163ffffffff169050919050565b6000806000613d5f866dffffffffffffffffffffffffffff16612178565b90506000613d9f8563ffffffff168763ffffffff168463ffffffff1611613d87576000613d94565b8784613d939190615862565b5b63ffffffff16613705565b90508063ffffffff16613db06136f5565b613dba91906155d2565b9250613dc78287856141c2565b93505050935093915050565b600080600080600080613df5886dffffffffffffffffffffffffffff1661420e565b9250925092508665ffffffffffff168165ffffffffffff161115613e1b57828282613e20565b816000805b9550955095505050509250925092565b6000613e5e7f360894a13ba1a3210667c828492db98dca3e2076cc3735a920a3ca505d382bbc60001b614250565b60000160009054906101000a900473ffffffffffffffffffffffffffffffffffffffff16905090565b613e908261425a565b8173ffffffffffffffffffffffffffffffffffffffff167fbc7cd75a20ee27fd9adebab32041f755214dbc6bffa90cc0225b39da2e5c2d3b60405160405180910390a2600081511115613eed57613ee782826131d9565b50613ef6565b613ef5614327565b5b5050565b6000613f04613024565b905060008160000160009054906101000a900473ffffffffffffffffffffffffffffffffffffffff169050828260000160006101000a81548173ffffffffffffffffffffffffffffffffffffffff021916908373ffffffffffffffffffffffffffffffffffffffff1602179055508273ffffffffffffffffffffffffffffffffffffffff168173ffffffffffffffffffffffffffffffffffffffff167f8be0079c531659141344cd1fd0a4f28419497f9722a3daafe3b4186f6b6457e060405160405180910390a3505050565b613fd9614364565b61400f576040517fd7e6bcf800000000000000000000000000000000000000000000000000000000815260040160405180910390fd5b565b614019613fd1565b600073ffffffffffffffffffffffffffffffffffffffff168173ffffffffffffffffffffffffffffffffffffffff160361408b5760006040517f0813ada20000000000000000000000000000000000000000000000000000000081526004016140829190614c42565b60405180910390fd5b614099600082600080612646565b5050565b6140a5613fd1565b600073ffffffffffffffffffffffffffffffffffffffff168173ffffffffffffffffffffffffffffffffffffffff16036141175760006040517f1e4fbdf700000000000000000000000000000000000000000000000000000000815260040161410e9190614c42565b60405180910390fd5b61412081612fe4565b50565b600065ffffffffffff8016821115614175576030826040517f6dfcc65000000000000000000000000000000000000000000000000000000000815260040161416c9291906158f1565b60405180910390fd5b819050919050565b6000815111156141905780518082602001fd5b6040517f1425ea4200000000000000000000000000000000000000000000000000000000815260040160405180910390fd5b60008263ffffffff1660208563ffffffff166dffffffffffffffffffffffffffff16901b60408465ffffffffffff166dffffffffffffffffffffffffffff16901b171790509392505050565b6000806000808490508092506020816dffffffffffffffffffffffffffff16901c93506040816dffffffffffffffffffffffffffff16901c9150509193909250565b6000819050919050565b60008173ffffffffffffffffffffffffffffffffffffffff163b036142b657806040517f4c9c8ce30000000000000000000000000000000000000000000000000000000081526004016142ad9190614c42565b60405180910390fd5b806142e37f360894a13ba1a3210667c828492db98dca3e2076cc3735a920a3ca505d382bbc60001b614250565b60000160006101000a81548173ffffffffffffffffffffffffffffffffffffffff021916908373ffffffffffffffffffffffffffffffffffffffff16021790555050565b6000341115614362576040517fb398979f00000000000000000000000000000000000000000000000000000000815260040160405180910390fd5b565b600061436e613480565b60000160089054906101000a900460ff16905090565b6000604051905090565b600080fd5b600080fd5b600073ffffffffffffffffffffffffffffffffffffffff82169050919050565b60006143c382614398565b9050919050565b6143d3816143b8565b81146143de57600080fd5b50565b6000813590506143f0816143ca565b92915050565b600080fd5b600080fd5b600080fd5b60008083601f84011261441b5761441a6143f6565b5b8235905067ffffffffffffffff811115614438576144376143fb565b5b60208301915083602082028301111561445457614453614400565b5b9250929050565b600067ffffffffffffffff82169050919050565b6144788161445b565b811461448357600080fd5b50565b6000813590506144958161446f565b92915050565b600080600080606085870312156144b5576144b461438e565b5b60006144c3878288016143e1565b945050602085013567ffffffffffffffff8111156144e4576144e3614393565b5b6144f087828801614405565b9350935050604061450387828801614486565b91505092959194509250565b6000602082840312156145255761452461438e565b5b600061453384828501614486565b91505092915050565b6145458161445b565b82525050565b6000602082019050614560600083018461453c565b92915050565b600063ffffffff82169050919050565b61457f81614566565b82525050565b600060208201905061459a6000830184614576565b92915050565b60008115159050919050565b6145b5816145a0565b81146145c057600080fd5b50565b6000813590506145d2816145ac565b92915050565b600080604083850312156145ef576145ee61438e565b5b60006145fd858286016143e1565b925050602061460e858286016145c3565b9150509250929050565b6000806040838503121561462f5761462e61438e565b5b600061463d858286016143e1565b925050602061464e858286016143e1565b9150509250929050565b60008083601f84011261466e5761466d6143f6565b5b8235905067ffffffffffffffff81111561468b5761468a6143fb565b5b6020830191508360018202830111156146a7576146a6614400565b5b9250929050565b6000806000604084860312156146c7576146c661438e565b5b60006146d5868287016143e1565b935050602084013567ffffffffffffffff8111156146f6576146f5614393565b5b61470286828701614658565b92509250509250925092565b61471781614566565b811461472257600080fd5b50565b6000813590506147348161470e565b92915050565b6000806000606084860312156147535761475261438e565b5b600061476186828701614486565b9350506020614772868287016143e1565b925050604061478386828701614725565b9150509250925092565b600080604083850312156147a4576147a361438e565b5b60006147b285828601614486565b92505060206147c3858286016143e1565b9150509250929050565b600065ffffffffffff82169050919050565b6147e8816147cd565b82525050565b600060808201905061480360008301876147df565b6148106020830186614576565b61481d6040830185614576565b61482a60608301846147df565b95945050505050565b6000806040838503121561484a5761484961438e565b5b600061485885828601614486565b925050602061486985828601614486565b9150509250929050565b6000819050919050565b61488681614873565b811461489157600080fd5b50565b6000813590506148a38161487d565b92915050565b6000602082840312156148bf576148be61438e565b5b60006148cd84828501614894565b91505092915050565b60006020820190506148eb60008301846147df565b92915050565b6000602082840312156149075761490661438e565b5b6000614915848285016143e1565b91505092915050565b600080fd5b6000601f19601f8301169050919050565b7f4e487b7100000000000000000000000000000000000000000000000000000000600052604160045260246000fd5b61496c82614923565b810181811067ffffffffffffffff8211171561498b5761498a614934565b5b80604052505050565b600061499e614384565b90506149aa8282614963565b919050565b600067ffffffffffffffff8211156149ca576149c9614934565b5b6149d382614923565b9050602081019050919050565b82818337600083830152505050565b6000614a026149fd846149af565b614994565b905082815260208101848484011115614a1e57614a1d61491e565b5b614a298482856149e0565b509392505050565b600082601f830112614a4657614a456143f6565b5b8135614a568482602086016149ef565b91505092915050565b60008060408385031215614a7657614a7561438e565b5b6000614a84858286016143e1565b925050602083013567ffffffffffffffff811115614aa557614aa4614393565b5b614ab185828601614a31565b9150509250929050565b614ac481614873565b82525050565b6000602082019050614adf6000830184614abb565b92915050565b60007fffffffff0000000000000000000000000000000000000000000000000000000082169050919050565b614b1a81614ae5565b8114614b2557600080fd5b50565b600081359050614b3781614b11565b92915050565b60008060408385031215614b5457614b5361438e565b5b6000614b62858286016143e1565b9250506020614b7385828601614b28565b9150509250929050565b60008083601f840112614b9357614b926143f6565b5b8235905067ffffffffffffffff811115614bb057614baf6143fb565b5b602083019150836001820283011115614bcc57614bcb614400565b5b9250929050565b600080600060408486031215614bec57614beb61438e565b5b6000614bfa86828701614486565b935050602084013567ffffffffffffffff811115614c1b57614c1a614393565b5b614c2786828701614b7d565b92509250509250925092565b614c3c816143b8565b82525050565b6000602082019050614c576000830184614c33565b92915050565b614c66816145a0565b82525050565b6000602082019050614c816000830184614c5d565b92915050565b60008060408385031215614c9e57614c9d61438e565b5b6000614cac85828601614486565b9250506020614cbd85828601614725565b9150509250929050565b60008060008060608587031215614ce157614ce061438e565b5b6000614cef878288016143e1565b9450506020614d00878288016143e1565b935050604085013567ffffffffffffffff811115614d2157614d20614393565b5b614d2d87828801614658565b925092505092959194509250565b60008083601f840112614d5157614d506143f6565b5b8235905067ffffffffffffffff811115614d6e57614d6d6143fb565b5b602083019150836020820283011115614d8a57614d89614400565b5b9250929050565b60008060208385031215614da857614da761438e565b5b600083013567ffffffffffffffff811115614dc657614dc5614393565b5b614dd285828601614d3b565b92509250509250929050565b600081519050919050565b600082825260208201905092915050565b6000819050602082019050919050565b600081519050919050565b600082825260208201905092915050565b60005b83811015614e44578082015181840152602081019050614e29565b60008484015250505050565b6000614e5b82614e0a565b614e658185614e15565b9350614e75818560208601614e26565b614e7e81614923565b840191505092915050565b6000614e958383614e50565b905092915050565b6000602082019050919050565b6000614eb582614dde565b614ebf8185614de9565b935083602082028501614ed185614dfa565b8060005b85811015614f0d5784840389528151614eee8582614e89565b9450614ef983614e9d565b925060208a01995050600181019050614ed5565b50829750879550505050505092915050565b60006020820190508181036000830152614f398184614eaa565b905092915050565b600081519050919050565b600082825260208201905092915050565b6000614f6882614f41565b614f728185614f4c565b9350614f82818560208601614e26565b614f8b81614923565b840191505092915050565b60006020820190508181036000830152614fb08184614f5d565b905092915050565b600080600060608486031215614fd157614fd061438e565b5b6000614fdf868287016143e1565b9350506020614ff0868287016143e1565b925050604061500186828701614b28565b9150509250925092565b60006040820190506150206000830185614c5d565b61502d6020830184614576565b9392505050565b6000806040838503121561504b5761504a61438e565b5b6000615059858286016143e1565b925050602061506a85828601614725565b9150509250929050565b61507d816147cd565b811461508857600080fd5b50565b60008135905061509a81615074565b92915050565b600080600080606085870312156150ba576150b961438e565b5b60006150c8878288016143e1565b945050602085013567ffffffffffffffff8111156150e9576150e8614393565b5b6150f587828801614658565b935093505060406151088782880161508b565b91505092959194509250565b60006040820190506151296000830185614abb565b6151366020830184614576565b9392505050565b7f4e487b7100000000000000000000000000000000000000000000000000000000600052603260045260246000fd5b6000602082840312156151825761518161438e565b5b600061519084828501614b28565b91505092915050565b6151a281614ae5565b82525050565b60006060820190506151bd6000830186614c33565b6151ca6020830185614c33565b6151d76040830184615199565b949350505050565b60006151eb8385614f4c565b93506151f88385846149e0565b61520183614923565b840190509392505050565b600060208201905081810360008301526152278184866151df565b90509392505050565b60008151905061523f81614b11565b92915050565b60006020828403121561525b5761525a61438e565b5b600061526984828501615230565b91505092915050565b600082825260208201905092915050565b600061528f8385615272565b935061529c8385846149e0565b6152a583614923565b840190509392505050565b60006060820190506152c56000830187614c33565b6152d26020830186614c33565b81810360408301526152e5818486615283565b905095945050505050565b6000819050919050565b7f4e487b7100000000000000000000000000000000000000000000000000000000600052601160045260246000fd5b6000615334826152f0565b915061533f836152f0565b9250828203905081811115615357576153566152fa565b5b92915050565b600080fd5b600080fd5b6000808585111561537b5761537a61535d565b5b8386111561538c5761538b615362565b5b6001850283019150848603905094509492505050565b600080fd5b600080fd5b600080fd5b600080833560016020038436030381126153ce576153cd6153a2565b5b80840192508235915067ffffffffffffffff8211156153f0576153ef6153a7565b5b60208301925060018202360383131561540c5761540b6153ac565b5b509250929050565b600081905092915050565b600061542b8385615414565b93506154388385846149e0565b82840190509392505050565b600061544f82614e0a565b6154598185615414565b9350615469818560208601614e26565b80840191505092915050565b600061548282858761541f565b915061548e8284615444565b9150819050949350505050565b7f496e697469616c2061646d696e20616464726573732063616e6e6f742062652060008201527f746865207a65726f206164647265737300000000000000000000000000000000602082015250565b60006154f7603083614f4c565b91506155028261549b565b604082019050919050565b60006020820190508181036000830152615526816154ea565b9050919050565b6000819050919050565b6000819050919050565b600061555c6155576155528461552d565b615537565b61445b565b9050919050565b61556c81615541565b82525050565b60006020820190506155876000830184615563565b92915050565b60006080820190506155a26000830187614c33565b6155af6020830186614c33565b6155bc6040830185614c33565b6155c96060830184615199565b95945050505050565b60006155dd826147cd565b91506155e8836147cd565b9250828201905065ffffffffffff811115615606576156056152fa565b5b92915050565b600060808201905061562160008301886147df565b61562e6020830187614c33565b61563b6040830186614c33565b818103606083015261564e818486615283565b90509695505050505050565b600060408201905061566f6000830185614c33565b61567c602083018461453c565b9392505050565b60006020820190506156986000830184615199565b92915050565b600082905092915050565b600082821b905092915050565b60006156c2838361569e565b826156cd8135614ae5565b9250600482101561570d576157087fffffffff00000000000000000000000000000000000000000000000000000000836004036008026156a9565b831692505b505092915050565b600060408201905061572a6000830185614c33565b6157376020830184615199565b9392505050565b600061574a8284615444565b915081905092915050565b600060608201905061576a6000830186614576565b61577760208301856147df565b6157846040830184614c5d565b949350505050565b60008151905061579b8161487d565b92915050565b6000602082840312156157b7576157b661438e565b5b60006157c58482850161578c565b91505092915050565b60006040820190506157e36000830185614576565b6157f060208301846147df565b9392505050565b600061580282614398565b9050919050565b615812816157f7565b811461581d57600080fd5b50565b60008135905061582f81615809565b92915050565b60006020828403121561584b5761584a61438e565b5b600061585984828501615820565b91505092915050565b600061586d82614566565b915061587883614566565b9250828203905063ffffffff811115615894576158936152fa565b5b92915050565b6000819050919050565b600060ff82169050919050565b60006158cc6158c76158c28461589a565b615537565b6158a4565b9050919050565b6158dc816158b1565b82525050565b6158eb816152f0565b82525050565b600060408201905061590660008301856158d3565b61591360208301846158e2565b939250505056fea2646970667358221220dafd8653550c3e9e7f9714253454fae89695e79db08480323e7591544f9114d364736f6c63430008180033",
  "linkReferences": {},
  "deployedLinkReferences": {}
}