{
  "_format": "hh-sol-artifact-1",
  "contractName": "OsmiDistributionManager",
  "sourceName": "contracts/OsmiDistributionManager.sol",
  "abi": [
    {
      "inputs": [],
      "stateMutability": "nonpayable",
      "type": "constructor"
    },
    {
      "inputs": [
        {
          "internalType": "address",
          "name": "authority",
          "type": "address"
        }
      ],
      "name": "AccessManagedInvalidAuthority",
      "type": "error"
    },
    {
      "inputs": [
        {
          "internalType": "address",
          "name": "caller",
          "type": "address"
        },
        {
          "internalType": "uint32",
          "name": "delay",
          "type": "uint32"
        }
      ],
      "name": "AccessManagedRequiredDelay",
      "type": "error"
    },
    {
      "inputs": [
        {
          "internalType": "address",
          "name": "caller",
          "type": "address"
        }
      ],
      "name": "AccessManagedUnauthorized",
      "type": "error"
    },
    {
      "inputs": [
        {
          "internalType": "address",
          "name": "target",
          "type": "address"
        }
      ],
      "name": "AddressEmptyCode",
      "type": "error"
    },
    {
      "inputs": [],
      "name": "ECDSAInvalidSignature",
      "type": "error"
    },
    {
      "inputs": [
        {
          "internalType": "uint256",
          "name": "length",
          "type": "uint256"
        }
      ],
      "name": "ECDSAInvalidSignatureLength",
      "type": "error"
    },
    {
      "inputs": [
        {
          "internalType": "bytes32",
          "name": "s",
          "type": "bytes32"
        }
      ],
      "name": "ECDSAInvalidSignatureS",
      "type": "error"
    },
    {
      "inputs": [
        {
          "internalType": "address",
          "name": "implementation",
          "type": "address"
        }
      ],
      "name": "ERC1967InvalidImplementation",
      "type": "error"
    },
    {
      "inputs": [],
      "name": "ERC1967NonPayable",
      "type": "error"
    },
    {
      "inputs": [
        {
          "internalType": "uint256",
          "name": "deadline",
          "type": "uint256"
        }
      ],
      "name": "ExpiredSignature",
      "type": "error"
    },
    {
      "inputs": [],
      "name": "FailedInnerCall",
      "type": "error"
    },
    {
      "inputs": [
        {
          "internalType": "address",
          "name": "user",
          "type": "address"
        },
        {
          "internalType": "uint256",
          "name": "allowance",
          "type": "uint256"
        },
        {
          "internalType": "uint256",
          "name": "needed",
          "type": "uint256"
        }
      ],
      "name": "InsufficientAllowance",
      "type": "error"
    },
    {
      "inputs": [
        {
          "internalType": "address",
          "name": "account",
          "type": "address"
        },
        {
          "internalType": "uint256",
          "name": "currentNonce",
          "type": "uint256"
        }
      ],
      "name": "InvalidAccountNonce",
      "type": "error"
    },
    {
      "inputs": [],
      "name": "InvalidInitialization",
      "type": "error"
    },
    {
      "inputs": [
        {
          "internalType": "address",
          "name": "signer",
          "type": "address"
        },
        {
          "internalType": "address",
          "name": "owner",
          "type": "address"
        }
      ],
      "name": "InvalidSigner",
      "type": "error"
    },
    {
      "inputs": [
        {
          "internalType": "address",
          "name": "signer",
          "type": "address"
        },
        {
          "internalType": "address",
          "name": "one",
          "type": "address"
        },
        {
          "internalType": "address",
          "name": "two",
          "type": "address"
        }
      ],
      "name": "InvalidTicketSigner",
      "type": "error"
    },
    {
      "inputs": [
        {
          "internalType": "address",
          "name": "pool",
          "type": "address"
        },
        {
          "internalType": "address",
          "name": "expected",
          "type": "address"
        }
      ],
      "name": "InvalidTokenPool",
      "type": "error"
    },
    {
      "inputs": [],
      "name": "NotInitializing",
      "type": "error"
    },
    {
      "inputs": [],
      "name": "UUPSUnauthorizedCallContext",
      "type": "error"
    },
    {
      "inputs": [
        {
          "internalType": "bytes32",
          "name": "slot",
          "type": "bytes32"
        }
      ],
      "name": "UUPSUnsupportedProxiableUUID",
      "type": "error"
    },
    {
      "anonymous": false,
      "inputs": [
        {
          "indexed": false,
          "internalType": "address",
          "name": "authority",
          "type": "address"
        }
      ],
      "name": "AuthorityUpdated",
      "type": "event"
    },
    {
      "anonymous": false,
      "inputs": [
        {
          "indexed": false,
          "internalType": "enum OsmiDistributionManager.Bridge",
          "name": "bridge",
          "type": "uint8"
        },
        {
          "indexed": false,
          "internalType": "address",
          "name": "bridgeContract",
          "type": "address"
        }
      ],
      "name": "BridgeContractChanged",
      "type": "event"
    },
    {
      "anonymous": false,
      "inputs": [],
      "name": "EIP712DomainChanged",
      "type": "event"
    },
    {
      "anonymous": false,
      "inputs": [
        {
          "indexed": false,
          "internalType": "uint64",
          "name": "version",
          "type": "uint64"
        }
      ],
      "name": "Initialized",
      "type": "event"
    },
    {
      "anonymous": false,
      "inputs": [
        {
          "indexed": false,
          "internalType": "address",
          "name": "user",
          "type": "address"
        },
        {
          "indexed": false,
          "internalType": "uint256",
          "name": "amount",
          "type": "uint256"
        },
        {
          "indexed": false,
          "internalType": "uint64",
          "name": "issued",
          "type": "uint64"
        },
        {
          "indexed": false,
          "internalType": "uint64",
          "name": "start",
          "type": "uint64"
        },
        {
          "indexed": false,
          "internalType": "uint64",
          "name": "end",
          "type": "uint64"
        },
        {
          "indexed": false,
          "internalType": "uint64",
          "name": "count",
          "type": "uint64"
        }
      ],
      "name": "TicketRedeemed",
      "type": "event"
    },
    {
      "anonymous": false,
      "inputs": [
        {
          "indexed": false,
          "internalType": "address",
          "name": "ticketSigner",
          "type": "address"
        }
      ],
      "name": "TicketSignerChanged",
      "type": "event"
    },
    {
      "anonymous": false,
      "inputs": [
        {
          "indexed": false,
          "internalType": "contract IOsmiToken",
          "name": "tokenContract",
          "type": "address"
        }
      ],
      "name": "TokenContractChanged",
      "type": "event"
    },
    {
      "anonymous": false,
      "inputs": [
        {
          "indexed": false,
          "internalType": "address",
          "name": "tokenPool",
          "type": "address"
        }
      ],
      "name": "TokenPoolChanged",
      "type": "event"
    },
    {
      "anonymous": false,
      "inputs": [
        {
          "indexed": false,
          "internalType": "address",
          "name": "user",
          "type": "address"
        },
        {
          "indexed": false,
          "internalType": "uint256",
          "name": "amount",
          "type": "uint256"
        },
        {
          "indexed": false,
          "internalType": "enum OsmiDistributionManager.Bridge",
          "name": "bridge",
          "type": "uint8"
        }
      ],
      "name": "TokensBridged",
      "type": "event"
    },
    {
      "anonymous": false,
      "inputs": [
        {
          "indexed": false,
          "internalType": "address",
          "name": "user",
          "type": "address"
        },
        {
          "indexed": false,
          "internalType": "uint256",
          "name": "amount",
          "type": "uint256"
        }
      ],
      "name": "TokensClaimed",
      "type": "event"
    },
    {
      "anonymous": false,
      "inputs": [
        {
          "indexed": true,
          "internalType": "address",
          "name": "implementation",
          "type": "address"
        }
      ],
      "name": "Upgraded",
      "type": "event"
    },
    {
      "inputs": [],
      "name": "UPGRADE_INTERFACE_VERSION",
      "outputs": [
        {
          "internalType": "string",
          "name": "",
          "type": "string"
        }
      ],
      "stateMutability": "view",
      "type": "function"
    },
    {
      "inputs": [],
      "name": "authority",
      "outputs": [
        {
          "internalType": "address",
          "name": "",
          "type": "address"
        }
      ],
      "stateMutability": "view",
      "type": "function"
    },
    {
      "inputs": [
        {
          "internalType": "uint256",
          "name": "amount",
          "type": "uint256"
        },
        {
          "internalType": "enum OsmiDistributionManager.Bridge",
          "name": "bridge",
          "type": "uint8"
        }
      ],
      "name": "bridgeTokens",
      "outputs": [
        {
          "internalType": "uint256",
          "name": "allowance",
          "type": "uint256"
        }
      ],
      "stateMutability": "nonpayable",
      "type": "function"
    },
    {
      "inputs": [
        {
          "internalType": "uint256",
          "name": "amount",
          "type": "uint256"
        }
      ],
      "name": "claimTokens",
      "outputs": [
        {
          "internalType": "uint256",
          "name": "allowance",
          "type": "uint256"
        }
      ],
      "stateMutability": "nonpayable",
      "type": "function"
    },
    {
      "inputs": [],
      "name": "eip712Domain",
      "outputs": [
        {
          "internalType": "bytes1",
          "name": "fields",
          "type": "bytes1"
        },
        {
          "internalType": "string",
          "name": "name",
          "type": "string"
        },
        {
          "internalType": "string",
          "name": "version",
          "type": "string"
        },
        {
          "internalType": "uint256",
          "name": "chainId",
          "type": "uint256"
        },
        {
          "internalType": "address",
          "name": "verifyingContract",
          "type": "address"
        },
        {
          "internalType": "bytes32",
          "name": "salt",
          "type": "bytes32"
        },
        {
          "internalType": "uint256[]",
          "name": "extensions",
          "type": "uint256[]"
        }
      ],
      "stateMutability": "view",
      "type": "function"
    },
    {
      "inputs": [
        {
          "internalType": "enum OsmiDistributionManager.Bridge",
          "name": "bridge",
          "type": "uint8"
        }
      ],
      "name": "getBridgeContract",
      "outputs": [
        {
          "internalType": "address",
          "name": "",
          "type": "address"
        }
      ],
      "stateMutability": "view",
      "type": "function"
    },
    {
      "inputs": [],
      "name": "getTicketSigners",
      "outputs": [
        {
          "internalType": "address",
          "name": "",
          "type": "address"
        },
        {
          "internalType": "address",
          "name": "",
          "type": "address"
        }
      ],
      "stateMutability": "view",
      "type": "function"
    },
    {
      "inputs": [],
      "name": "getTokenContract",
      "outputs": [
        {
          "internalType": "contract IOsmiToken",
          "name": "tokenContract",
          "type": "address"
        }
      ],
      "stateMutability": "view",
      "type": "function"
    },
    {
      "inputs": [],
      "name": "getTokenPool",
      "outputs": [
        {
          "internalType": "address",
          "name": "tokenPool",
          "type": "address"
        }
      ],
      "stateMutability": "view",
      "type": "function"
    },
    {
      "inputs": [
        {
          "internalType": "address",
          "name": "initialAuthority",
          "type": "address"
        },
        {
          "internalType": "address",
          "name": "tokenContract",
          "type": "address"
        },
        {
          "internalType": "address",
          "name": "tokenPool",
          "type": "address"
        },
        {
          "internalType": "address",
          "name": "ticketSigner",
          "type": "address"
        }
      ],
      "name": "initialize",
      "outputs": [],
      "stateMutability": "nonpayable",
      "type": "function"
    },
    {
      "inputs": [],
      "name": "isConsumingScheduledOp",
      "outputs": [
        {
          "internalType": "bytes4",
          "name": "",
          "type": "bytes4"
        }
      ],
      "stateMutability": "view",
      "type": "function"
    },
    {
      "inputs": [
        {
          "internalType": "address",
          "name": "owner",
          "type": "address"
        }
      ],
      "name": "nonces",
      "outputs": [
        {
          "internalType": "uint256",
          "name": "",
          "type": "uint256"
        }
      ],
      "stateMutability": "view",
      "type": "function"
    },
    {
      "inputs": [],
      "name": "proxiableUUID",
      "outputs": [
        {
          "internalType": "bytes32",
          "name": "",
          "type": "bytes32"
        }
      ],
      "stateMutability": "view",
      "type": "function"
    },
    {
      "inputs": [
        {
          "components": [
            {
              "internalType": "address",
              "name": "signer",
              "type": "address"
            },
            {
              "internalType": "address",
              "name": "user",
              "type": "address"
            },
            {
              "internalType": "address",
              "name": "pool",
              "type": "address"
            },
            {
              "internalType": "uint64",
              "name": "issued",
              "type": "uint64"
            },
            {
              "internalType": "uint64",
              "name": "start",
              "type": "uint64"
            },
            {
              "internalType": "uint64",
              "name": "end",
              "type": "uint64"
            },
            {
              "internalType": "uint64",
              "name": "count",
              "type": "uint64"
            },
            {
              "internalType": "uint256",
              "name": "amount",
              "type": "uint256"
            },
            {
              "internalType": "uint256",
              "name": "deadline",
              "type": "uint256"
            },
            {
              "internalType": "uint8",
              "name": "v",
              "type": "uint8"
            },
            {
              "internalType": "bytes32",
              "name": "r",
              "type": "bytes32"
            },
            {
              "internalType": "bytes32",
              "name": "s",
              "type": "bytes32"
            }
          ],
          "internalType": "struct OsmiDistributionManager.Ticket",
          "name": "ticket",
          "type": "tuple"
        }
      ],
      "name": "redeem",
      "outputs": [
        {
          "internalType": "uint256",
          "name": "allowance",
          "type": "uint256"
        }
      ],
      "stateMutability": "nonpayable",
      "type": "function"
    },
    {
      "inputs": [
        {
          "components": [
            {
              "internalType": "address",
              "name": "signer",
              "type": "address"
            },
            {
              "internalType": "address",
              "name": "user",
              "type": "address"
            },
            {
              "internalType": "address",
              "name": "pool",
              "type": "address"
            },
            {
              "internalType": "uint64",
              "name": "issued",
              "type": "uint64"
            },
            {
              "internalType": "uint64",
              "name": "start",
              "type": "uint64"
            },
            {
              "internalType": "uint64",
              "name": "end",
              "type": "uint64"
            },
            {
              "internalType": "uint64",
              "name": "count",
              "type": "uint64"
            },
            {
              "internalType": "uint256",
              "name": "amount",
              "type": "uint256"
            },
            {
              "internalType": "uint256",
              "name": "deadline",
              "type": "uint256"
            },
            {
              "internalType": "uint8",
              "name": "v",
              "type": "uint8"
            },
            {
              "internalType": "bytes32",
              "name": "r",
              "type": "bytes32"
            },
            {
              "internalType": "bytes32",
              "name": "s",
              "type": "bytes32"
            }
          ],
          "internalType": "struct OsmiDistributionManager.Ticket",
          "name": "ticket",
          "type": "tuple"
        },
        {
          "internalType": "uint256",
          "name": "amount",
          "type": "uint256"
        },
        {
          "internalType": "enum OsmiDistributionManager.Bridge",
          "name": "bridge",
          "type": "uint8"
        }
      ],
      "name": "redeemAndBridge",
      "outputs": [
        {
          "internalType": "uint256",
          "name": "allowance",
          "type": "uint256"
        }
      ],
      "stateMutability": "nonpayable",
      "type": "function"
    },
    {
      "inputs": [
        {
          "components": [
            {
              "internalType": "address",
              "name": "signer",
              "type": "address"
            },
            {
              "internalType": "address",
              "name": "user",
              "type": "address"
            },
            {
              "internalType": "address",
              "name": "pool",
              "type": "address"
            },
            {
              "internalType": "uint64",
              "name": "issued",
              "type": "uint64"
            },
            {
              "internalType": "uint64",
              "name": "start",
              "type": "uint64"
            },
            {
              "internalType": "uint64",
              "name": "end",
              "type": "uint64"
            },
            {
              "internalType": "uint64",
              "name": "count",
              "type": "uint64"
            },
            {
              "internalType": "uint256",
              "name": "amount",
              "type": "uint256"
            },
            {
              "internalType": "uint256",
              "name": "deadline",
              "type": "uint256"
            },
            {
              "internalType": "uint8",
              "name": "v",
              "type": "uint8"
            },
            {
              "internalType": "bytes32",
              "name": "r",
              "type": "bytes32"
            },
            {
              "internalType": "bytes32",
              "name": "s",
              "type": "bytes32"
            }
          ],
          "internalType": "struct OsmiDistributionManager.Ticket",
          "name": "ticket",
          "type": "tuple"
        },
        {
          "internalType": "uint256",
          "name": "amount",
          "type": "uint256"
        }
      ],
      "name": "redeemAndClaim",
      "outputs": [
        {
          "internalType": "uint256",
          "name": "allowance",
          "type": "uint256"
        }
      ],
      "stateMutability": "nonpayable",
      "type": "function"
    },
    {
      "inputs": [
        {
          "internalType": "address",
          "name": "newAuthority",
          "type": "address"
        }
      ],
      "name": "setAuthority",
      "outputs": [],
      "stateMutability": "nonpayable",
      "type": "function"
    },
    {
      "inputs": [
        {
          "internalType": "enum OsmiDistributionManager.Bridge",
          "name": "bridge",
          "type": "uint8"
        },
        {
          "internalType": "address",
          "name": "bridgeContract",
          "type": "address"
        }
      ],
      "name": "setBridgeContract",
      "outputs": [],
      "stateMutability": "nonpayable",
      "type": "function"
    },
    {
      "inputs": [
        {
          "internalType": "address",
          "name": "signer",
          "type": "address"
        }
      ],
      "name": "setTicketSigner",
      "outputs": [],
      "stateMutability": "nonpayable",
      "type": "function"
    },
    {
      "inputs": [
        {
          "internalType": "address",
          "name": "tokenContract",
          "type": "address"
        }
      ],
      "name": "setTokenContract",
      "outputs": [],
      "stateMutability": "nonpayable",
      "type": "function"
    },
    {
      "inputs": [
        {
          "internalType": "address",
          "name": "tokenPool",
          "type": "address"
        }
      ],
      "name": "setTokenPool",
      "outputs": [],
      "stateMutability": "nonpayable",
      "type": "function"
    },
    {
      "inputs": [
        {
          "internalType": "address",
          "name": "newImplementation",
          "type": "address"
        },
        {
          "internalType": "bytes",
          "name": "data",
          "type": "bytes"
        }
      ],
      "name": "upgradeToAndCall",
      "outputs": [],
      "stateMutability": "payable",
      "type": "function"
    }
  ],
  "bytecode": "0x60a06040523060805234801561001457600080fd5b5061001d610022565b6100d4565b7ff0c57e16840df040f15088dc2f81fe391c3923bec73e23a9662efc9c229c6a00805468010000000000000000900460ff16156100725760405163f92ee8a960e01b815260040160405180910390fd5b80546001600160401b03908116146100d15780546001600160401b0319166001600160401b0390811782556040519081527fc7f505b2f371ae2175ee4913f4499e1f2633a7b5936321eed1cdaeb6115181d29060200160405180910390a15b50565b608051612e6c6100fd60003960008181610eff01528181610f2801526110710152612e6c6000f3fe6080604052600436106101355760003560e01c806389255bbb116100ab578063b3b64c931161006f578063b3b64c93146103c2578063b8c36f05146103e2578063bbcd5bbe14610402578063bf7e214f14610422578063ec55dd4214610437578063f8c8765e1461044c57600080fd5b806389255bbb146102e15780638fb36037146103015780639c8821761461032f578063a35ff3bf14610364578063ad3cb1cc1461038457600080fd5b806365ec1ed6116100fd57806365ec1ed6146101e45780637764b4d2146102045780637a9e5e4b146102245780637d7a3757146102445780637ecebe001461026457806384b0196e146102b957600080fd5b806328b7bede1461013a57806346e04a2f1461016c5780634d5634621461019a5780634f1ef286146101ba57806352d1902d146101cf575b600080fd5b34801561014657600080fd5b5061014f61046c565b6040516001600160a01b0390911681526020015b60405180910390f35b34801561017857600080fd5b5061018c6101873660046125f3565b61047b565b604051908152602001610163565b3480156101a657600080fd5b5061014f6101b536600461261b565b61049d565b6101cd6101c8366004612663565b6104a8565b005b3480156101db57600080fd5b5061018c6104c7565b3480156101f057600080fd5b5061018c6101ff36600461272a565b6104e4565b34801561021057600080fd5b506101cd61021f366004612756565b610504565b34801561023057600080fd5b506101cd61023f366004612756565b610519565b34801561025057600080fd5b5061018c61025f36600461278a565b6105a1565b34801561027057600080fd5b5061018c61027f366004612756565b6001600160a01b031660009081527f5ab42ced628888259c08ac98db1eb0cf702fc1501344311d8b100cd1bfe4bb00602052604090205490565b3480156102c557600080fd5b506102ce6105c9565b604051610163979695949392919061281a565b3480156102ed57600080fd5b506101cd6102fc3660046128b2565b610675565b34801561030d57600080fd5b5061031661080e565b6040516001600160e01b03199091168152602001610163565b34801561033b57600080fd5b50610344610847565b604080516001600160a01b03938416815292909116602083015201610163565b34801561037057600080fd5b506101cd61037f366004612756565b6108aa565b34801561039057600080fd5b506103b5604051806040016040528060058152602001640352e302e360dc1b81525081565b60405161016391906128dc565b3480156103ce57600080fd5b5061018c6103dd3660046128ef565b6108bc565b3480156103ee57600080fd5b5061018c6103fd36600461291c565b6108da565b34801561040e57600080fd5b506101cd61041d366004612756565b6108ee565b34801561042e57600080fd5b5061014f610900565b34801561044357600080fd5b5061014f610923565b34801561045857600080fd5b506101cd610467366004612939565b610956565b6000610476610af2565b905090565b600061048a335b600036610b09565b610495335b83610c0f565b90505b919050565b600061049582610e26565b6104b0610ef4565b6104b982610f9b565b6104c38282610fa4565b5050565b60006104d1611066565b50600080516020612df783398151915290565b60006104ef33610482565b6104fb335b84846110af565b90505b92915050565b61050d33610482565b6105168161135d565b50565b33610522610900565b6001600160a01b0316816001600160a01b0316146105625760405162d1953b60e31b81526001600160a01b03821660048201526024015b60405180910390fd5b816001600160a01b03163b600003610598576040516361798f2f60e11b81526001600160a01b0383166004820152602401610559565b6104c382611453565b60006105ac33610482565b6105b5846114ad565b506105bf336104f4565b90505b9392505050565b60006060808280808381600080516020612dd783398151915280549091501580156105f657506001810154155b61063a5760405162461bcd60e51b81526020600482015260156024820152741152540dcc4c8e88155b9a5b9a5d1a585b1a5e9959605a1b6044820152606401610559565b610642611848565b61064a61190b565b60408051600080825260208201909252600f60f81b9c939b5091995046985030975095509350915050565b61067e33610482565b60008260028111156106925761069261298d565b1180156106b0575060028260028111156106ae576106ae61298d565b105b6106f15760405162461bcd60e51b8152602060048201526012602482015271756e737570706f727465642062726964676560701b6044820152606401610559565b600080516020612e178339815191526001600160a01b0382167f55830a805815e4d506db4501e6719bc7b974e594ecdefb09d1856bf6a5d79505600085600281111561073f5761073f61298d565b60028111156107505761075061298d565b81526020810191909152604001600020546001600160a01b03160361077457505050565b8181600501600085600281111561078d5761078d61298d565b600281111561079e5761079e61298d565b815260200190815260200160002060006101000a8154816001600160a01b0302191690836001600160a01b031602179055507ff8a8a21419a446fca7e68faabc9cc446414eff015f0cb697bc94c9ec453efe4783836040516108019291906129c5565b60405180910390a1505050565b600080516020612db7833981519152805460009190600160a01b900460ff16610838576000610841565b638fb3603760e01b5b91505090565b6000806108a27f55830a805815e4d506db4501e6719bc7b974e594ecdefb09d1856bf6a5d79502547f55830a805815e4d506db4501e6719bc7b974e594ecdefb09d1856bf6a5d79503546001600160a01b0391821692911690565b915091509091565b6108b333610482565b6105168161194a565b60006108c733610482565b6108d0836114ad565b506104fb3361048f565b60006108e533610482565b610495826114ad565b6108f733610482565b61051681611a4b565b600080600080516020612db78339815191525b546001600160a01b031692915050565b60006104767f55830a805815e4d506db4501e6719bc7b974e594ecdefb09d1856bf6a5d79501546001600160a01b031690565b7ff0c57e16840df040f15088dc2f81fe391c3923bec73e23a9662efc9c229c6a008054600160401b810460ff1615906001600160401b031660008115801561099b5750825b90506000826001600160401b031660011480156109b75750303b155b9050811580156109c5575080155b156109e35760405163f92ee8a960e01b815260040160405180910390fd5b845467ffffffffffffffff191660011785558315610a0d57845460ff60401b1916600160401b1785555b610a1689611b13565b610a1e611b24565b610a26611b24565b610a7e6040518060400160405280601781526020017f4f736d69446973747269627574696f6e4d616e61676572000000000000000000815250604051806040016040528060018152602001603160f81b815250611b2c565b610a86611b24565b610a8f88611a4b565b610a988761135d565b610aa18661194a565b8315610ae757845460ff60401b19168555604051600181527fc7f505b2f371ae2175ee4913f4499e1f2633a7b5936321eed1cdaeb6115181d29060200160405180910390a15b505050505050505050565b600080600080516020612e17833981519152610913565b600080516020612db7833981519152600080610b44610b26610900565b8730610b36600460008a8c6129eb565b610b3f91612a15565b611b3e565b9150915081610c075763ffffffff811615610be457825460ff60a01b1916600160a01b178355610b72610900565b6001600160a01b03166394c7d7ee8787876040518463ffffffff1660e01b8152600401610ba193929190612a4d565b600060405180830381600087803b158015610bbb57600080fd5b505af1158015610bcf573d6000803e3d6000fd5b5050845460ff60a01b1916855550610c079050565b60405162d1953b60e31b81526001600160a01b0387166004820152602401610559565b505050505050565b60006001600160a01b038316610c675760405162461bcd60e51b815260206004820152601a60248201527f7573657220616464726573732063616e2774206265207a65726f0000000000006044820152606401610559565b81600003610cae5760405162461bcd60e51b8152602060048201526014602482015273616d6f756e742063616e2774206265207a65726f60601b6044820152606401610559565b6001600160a01b03831660009081527f55830a805815e4d506db4501e6719bc7b974e594ecdefb09d1856bf6a5d79504602052604090208054600080516020612e178339815191529190841115610d3f5780548590610d0d8187612aa3565b604051630c95cf2760e11b81526001600160a01b03909316600484015260248301919091526044820152606401610559565b815460018301546040516323b872dd60e01b81526001600160a01b0391821660048201528782166024820152604481018790529116906323b872dd906064016020604051808303816000875af1158015610d9d573d6000803e3d6000fd5b505050506040513d601f19601f82011682018060405250810190610dc19190612ac6565b5083816000016000828254610dd69190612aa3565b9091555050604080516001600160a01b0387168152602081018690527f896e034966eaaf1adc54acc0f257056febbd300c9e47182cf761982cf1f5e430910160405180910390a154949350505050565b60006001826002811115610e3c57610e3c61298d565b14610e7e5760405162461bcd60e51b8152602060048201526012602482015271756e737570706f727465642062726964676560701b6044820152606401610559565b600080516020612e178339815191527f55830a805815e4d506db4501e6719bc7b974e594ecdefb09d1856bf6a5d795056000846002811115610ec257610ec261298d565b6002811115610ed357610ed361298d565b81526020810191909152604001600020546001600160a01b03169392505050565b306001600160a01b037f0000000000000000000000000000000000000000000000000000000000000000161480610f7b57507f00000000000000000000000000000000000000000000000000000000000000006001600160a01b0316610f6f600080516020612df7833981519152546001600160a01b031690565b6001600160a01b031614155b15610f995760405163703e46dd60e11b815260040160405180910390fd5b565b61051633610482565b816001600160a01b03166352d1902d6040518163ffffffff1660e01b8152600401602060405180830381865afa925050508015610ffe575060408051601f3d908101601f19168201909252610ffb91810190612ae1565b60015b61102657604051634c9c8ce360e01b81526001600160a01b0383166004820152602401610559565b600080516020612df7833981519152811461105757604051632a87526960e21b815260048101829052602401610559565b6110618383611c4a565b505050565b306001600160a01b037f00000000000000000000000000000000000000000000000000000000000000001614610f995760405163703e46dd60e11b815260040160405180910390fd5b60006001600160a01b0384166111075760405162461bcd60e51b815260206004820152601a60248201527f7573657220616464726573732063616e2774206265207a65726f0000000000006044820152606401610559565b8260000361114e5760405162461bcd60e51b8152602060048201526014602482015273616d6f756e742063616e2774206265207a65726f60601b6044820152606401610559565b6001600160a01b03841660009081527f55830a805815e4d506db4501e6719bc7b974e594ecdefb09d1856bf6a5d79504602052604090208054600080516020612e1783398151915291908511156111ad5780548690610d0d8188612aa3565b815460018301546040516323b872dd60e01b81526001600160a01b039182166004820152306024820152604481018890529116906323b872dd906064016020604051808303816000875af1158015611209573d6000803e3d6000fd5b505050506040513d601f19601f8201168201806040525081019061122d9190612ac6565b50600061123985610e26565b90506001600160a01b0381166112865760405162461bcd60e51b815260206004820152601260248201527162726964676520756e617661696c61626c6560701b6044820152606401610559565b806001600160a01b031663d7907a6161129d610af2565b88600060016112ab8d611ca0565b6040518663ffffffff1660e01b81526004016112cb959493929190612afa565b600060405180830381600087803b1580156112e557600080fd5b505af11580156112f9573d6000803e3d6000fd5b50505050858260000160008282546113119190612aa3565b90915550506040517f72eb25a4b327806482e57c36a62537ec5e1530e16c6ea9997cfd326a89a606749061134a90899089908990612b3c565b60405180910390a1505495945050505050565b6001600160a01b0381166113b35760405162461bcd60e51b815260206004820152601860248201527f746f6b656e20706f6f6c2063616e2774206265207a65726f00000000000000006044820152606401610559565b7f55830a805815e4d506db4501e6719bc7b974e594ecdefb09d1856bf6a5d7950154600080516020612e17833981519152906001600160a01b038381169116036113fb575050565b6001810180546001600160a01b0319166001600160a01b0384169081179091556040519081527f9f8af382b6a7b3eda19b3a62f7446787fdb9101602754170dc111039081a27d6906020015b60405180910390a15050565b600080516020612db783398151915280546001600160a01b0319166001600160a01b03831690811782556040519081527f2f658b440c35314f52658ea8a740e05b284cdc84dc9ae01e891f21b8933e7cad90602001611447565b60006114b882611d27565b600080516020612e1783398151915260007f55830a805815e4d506db4501e6719bc7b974e594ecdefb09d1856bf6a5d79504816114fb6040870160208801612756565b6001600160a01b031681526020810191909152604001600020905061152660a0850160808601612b60565b6001600160401b031661153f60c0860160a08701612b60565b6001600160401b03161161158c5760405162461bcd60e51b81526020600482015260146024820152733a34b1b5b2ba1032b73239903a37b79039b7b7b760611b6044820152606401610559565b61159c60c0850160a08601612b60565b6001600160401b03166115b56080860160608701612b60565b6001600160401b0316101580156115e357506115d76080850160608601612b60565b6001600160401b031642115b61162f5760405162461bcd60e51b815260206004820152601b60248201527f7469636b65742069737375656420696e207468652066757475726500000000006044820152606401610559565b61163f60e0850160c08601612b60565b6001600160401b03166201518061165c60a0870160808801612b60565b61166c60c0880160a08901612b60565b6116769190612b89565b6116809190612ba8565b6001600160401b031610156116cf5760405162461bcd60e51b81526020600482015260156024820152740e8d2c6d6cae840c6deeadce840e8dede40d0d2ced605b1b6044820152606401610559565b60018101546116e46080860160608701612b60565b6001600160401b0316116117465760405162461bcd60e51b8152602060048201526024808201527f7469636b657420697373756564206265666f7265206c61737420726564656d706044820152633a34b7b760e11b6064820152608401610559565b8360e0013581600001600082825461175e9190612be4565b9091555061177490506080850160608601612b60565b6001600160401b031660018201557fc2ce364b6403dacf152bb01b4b1194222be20bc7310d837bc67eb3c0881060c36117b36040860160208701612756565b60e08601356117c86080880160608901612b60565b6117d860a0890160808a01612b60565b6117e860c08a0160a08b01612b60565b6117f860e08b0160c08c01612b60565b604080516001600160a01b0397909716875260208701959095526001600160401b03938416868601529183166060860152821660808501521660a0830152519081900360c00190a1549392505050565b7fa16a46d94261c7517cc8ff89f61c0ce93598e3c849801011dee649a6a557d1028054606091600080516020612dd78339815191529161188790612bf7565b80601f01602080910402602001604051908101604052809291908181526020018280546118b390612bf7565b80156119005780601f106118d557610100808354040283529160200191611900565b820191906000526020600020905b8154815290600101906020018083116118e357829003601f168201915b505050505091505090565b7fa16a46d94261c7517cc8ff89f61c0ce93598e3c849801011dee649a6a557d1038054606091600080516020612dd78339815191529161188790612bf7565b6001600160a01b0381166119a05760405162461bcd60e51b815260206004820152601c60248201527f7369676e657220616464726573732063616e2774206265207a65726f000000006044820152606401610559565b7f55830a805815e4d506db4501e6719bc7b974e594ecdefb09d1856bf6a5d7950254600080516020612e17833981519152906001600160a01b038381169116036119e8575050565b6002810180546003830180546001600160a01b038084166001600160a01b0319928316179092559091169084169081179091556040519081527ff25410f30b55c5bf754bde6af67a578fc1fb2e1e7fa70f582112f3c430b8e23690602001611447565b6001600160a01b038116611aa15760405162461bcd60e51b815260206004820152601c60248201527f746f6b656e20636f6e74726163742063616e2774206265207a65726f000000006044820152606401610559565b600080516020612e1783398151915280546001600160a01b03838116911603611ac8575050565b80546001600160a01b0319166001600160a01b03831690811782556040519081527fe89f98a27789c8313baa22de83cdb921b7026d66af0ee02973c97d45f952b6be90602001611447565b611b1b611f92565b61051681611fdb565b610f99611f92565b611b34611f92565b6104c38282611fec565b6040516001600160a01b03848116602483015283811660448301526001600160e01b03198316606483015260009182918291829189169060840160408051601f198184030181529181526020820180516001600160e01b031663b700961360e01b17905251611bad9190612c2b565b600060405180830381855afa9150503d8060008114611be8576040519150601f19603f3d011682016040523d82523d6000602084013e611bed565b606091505b50915091508115611c3f576040815110611c1f5780806020019051810190611c159190612c47565b9094509250611c3f565b6020815110611c3f5780806020019051810190611c3c9190612ac6565b93505b505094509492505050565b611c538261204d565b6040516001600160a01b038316907fbc7cd75a20ee27fd9adebab32041f755214dbc6bffa90cc0225b39da2e5c2d3b90600090a2805115611c985761106182826120b2565b6104c3612128565b60408051602c808252606082810190935263195d1a1f60e21b916f181899199a1a9b1b9c1cb0b131b232b360811b916000919060208201818036833750505060208101849052905060248101604c82016001600160a01b0387165b82821115611d1b5760001990910190600f811685901a825360041c611cfb565b50919695505050505050565b806101000135421115611d5457604051632f4aa44f60e21b81526101008201356004820152602401610559565b611d6c611d676060830160408401612756565b612147565b611d81611d7c6020830183612756565b6121bd565b60007f53dc57587707d3e582b0cb33b332e41214577dabb0b4d6a95266b1ad7e909a7a611db16020840184612756565b611dc16040850160208601612756565b611dd16060860160408701612756565b611de16080870160608801612b60565b611df160a0880160808901612b60565b611e0160c0890160a08a01612b60565b611e1160e08a0160c08b01612b60565b60e08a0135611e6b611e2960408d0160208e01612756565b6001600160a01b031660009081527f5ab42ced628888259c08ac98db1eb0cf702fc1501344311d8b100cd1bfe4bb006020526040902080546001810190915590565b60408051602081019b909b526001600160a01b03998a16908b015296881660608a01529690941660808801526001600160401b0392831660a088015290821660c0870152811660e08601521661010084810191909152610120840192909252610140830152830135610160820152610180016040516020818303038152906040528051906020012090506000611f008261225d565b90506000611f2b82611f1a61014087016101208801612c87565b86610140013587610160013561228a565b9050611f3a6020850185612756565b6001600160a01b0316816001600160a01b031614611f8c5780611f606020860186612756565b604051637ba5ffb560e01b81526001600160a01b03928316600482015291166024820152604401610559565b50505050565b7ff0c57e16840df040f15088dc2f81fe391c3923bec73e23a9662efc9c229c6a0054600160401b900460ff16610f9957604051631afcd79f60e31b815260040160405180910390fd5b611fe3611f92565b61051681611453565b611ff4611f92565b600080516020612dd78339815191527fa16a46d94261c7517cc8ff89f61c0ce93598e3c849801011dee649a6a557d10261202e8482612cf8565b506003810161203d8382612cf8565b5060008082556001909101555050565b806001600160a01b03163b60000361208357604051634c9c8ce360e01b81526001600160a01b0382166004820152602401610559565b600080516020612df783398151915280546001600160a01b0319166001600160a01b0392909216919091179055565b6060600080846001600160a01b0316846040516120cf9190612c2b565b600060405180830381855af49150503d806000811461210a576040519150601f19603f3d011682016040523d82523d6000602084013e61210f565b606091505b509150915061211f8583836122ba565b95945050505050565b3415610f995760405163b398979f60e01b815260040160405180910390fd5b7f55830a805815e4d506db4501e6719bc7b974e594ecdefb09d1856bf6a5d7950154600080516020612e17833981519152906001600160a01b038381169116146104c357600181015460405163047b2ba360e01b81526001600160a01b0380851660048301529091166024820152604401610559565b7f55830a805815e4d506db4501e6719bc7b974e594ecdefb09d1856bf6a5d7950254600080516020612e17833981519152906001600160a01b0383811691161480159061221a575060038101546001600160a01b03838116911614155b156104c357600281015460038201546040516316c7b6e560e11b81526001600160a01b038086166004830152928316602482015291166044820152606401610559565b600061049561226a612316565b8360405161190160f01b8152600281019290925260228201526042902090565b60008060008061229c88888888612320565b9250925092506122ac82826123ef565b50909150505b949350505050565b6060826122cf576122ca826124a8565b6105c2565b81511580156122e657506001600160a01b0384163b155b1561230f57604051639996b31560e01b81526001600160a01b0385166004820152602401610559565b50806105c2565b60006104766124d1565b600080807f7fffffffffffffffffffffffffffffff5d576e7357a4501ddfe92f46681b20a084111561235b57506000915060039050826123e5565b604080516000808252602082018084528a905260ff891692820192909252606081018790526080810186905260019060a0016020604051602081039080840390855afa1580156123af573d6000803e3d6000fd5b5050604051601f1901519150506001600160a01b0381166123db575060009250600191508290506123e5565b9250600091508190505b9450945094915050565b60008260038111156124035761240361298d565b0361240c575050565b60018260038111156124205761242061298d565b0361243e5760405163f645eedf60e01b815260040160405180910390fd5b60028260038111156124525761245261298d565b036124735760405163fce698f760e01b815260048101829052602401610559565b60038260038111156124875761248761298d565b036104c3576040516335e2f38360e21b815260048101829052602401610559565b8051156124b85780518082602001fd5b604051630a12f52160e11b815260040160405180910390fd5b60007f8b73c3c69bb8fe3d512ecc4cf759cc79239f7b179b0ffacaa9a75d522b39400f6124fc612545565b6125046125af565b60408051602081019490945283019190915260608201524660808201523060a082015260c00160405160208183030381529060405280519060200120905090565b6000600080516020612dd78339815191528161255f611848565b80519091501561257757805160209091012092915050565b81548015612586579392505050565b7fc5d2460186f7233c927e7db2dcc703c0e500b653ca82273b7bfad8045d85a470935050505090565b6000600080516020612dd7833981519152816125c961190b565b8051909150156125e157805160209091012092915050565b60018201548015612586579392505050565b60006020828403121561260557600080fd5b5035919050565b80356003811061049857600080fd5b60006020828403121561262d57600080fd5b6104fb8261260c565b80356001600160a01b038116811461049857600080fd5b634e487b7160e01b600052604160045260246000fd5b6000806040838503121561267657600080fd5b61267f83612636565b915060208301356001600160401b0381111561269a57600080fd5b8301601f810185136126ab57600080fd5b80356001600160401b038111156126c4576126c461264d565b604051601f8201601f19908116603f011681016001600160401b03811182821017156126f2576126f261264d565b60405281815282820160200187101561270a57600080fd5b816020840160208301376000602083830101528093505050509250929050565b6000806040838503121561273d57600080fd5b8235915061274d6020840161260c565b90509250929050565b60006020828403121561276857600080fd5b6104fb82612636565b6000610180828403121561278457600080fd5b50919050565b60008060006101c084860312156127a057600080fd5b6127aa8585612771565b925061018084013591506127c16101a0850161260c565b90509250925092565b60005b838110156127e55781810151838201526020016127cd565b50506000910152565b600081518084526128068160208601602086016127ca565b601f01601f19169290920160200192915050565b60ff60f81b8816815260e06020820152600061283960e08301896127ee565b828103604084015261284b81896127ee565b606084018890526001600160a01b038716608085015260a0840186905283810360c08501528451808252602080870193509091019060005b818110156128a1578351835260209384019390920191600101612883565b50909b9a5050505050505050505050565b600080604083850312156128c557600080fd5b6128ce8361260c565b915061274d60208401612636565b6020815260006104fb60208301846127ee565b6000806101a0838503121561290357600080fd5b61290d8484612771565b94610180939093013593505050565b6000610180828403121561292f57600080fd5b6104fb8383612771565b6000806000806080858703121561294f57600080fd5b61295885612636565b935061296660208601612636565b925061297460408601612636565b915061298260608601612636565b905092959194509250565b634e487b7160e01b600052602160045260246000fd5b600381106129c157634e487b7160e01b600052602160045260246000fd5b9052565b604081016129d382856129a3565b6001600160a01b039290921660209190910152919050565b600080858511156129fb57600080fd5b83861115612a0857600080fd5b5050820193919092039150565b80356001600160e01b03198116906004841015612a46576001600160e01b0319600485900360031b81901b82161691505b5092915050565b6001600160a01b03841681526040602082018190528101829052818360608301376000818301606090810191909152601f909201601f1916010192915050565b634e487b7160e01b600052601160045260246000fd5b818103818111156104fe576104fe612a8d565b8051801515811461049857600080fd5b600060208284031215612ad857600080fd5b6104fb82612ab6565b600060208284031215612af357600080fd5b5051919050565b60018060a01b038616815284602082015283604082015261ffff8316606082015260a060808201526000612b3160a08301846127ee565b979650505050505050565b6001600160a01b038416815260208101839052606081016122b260408301846129a3565b600060208284031215612b7257600080fd5b81356001600160401b03811681146105c257600080fd5b6001600160401b0382811682821603908111156104fe576104fe612a8d565b60006001600160401b03831680612bcf57634e487b7160e01b600052601260045260246000fd5b806001600160401b0384160491505092915050565b808201808211156104fe576104fe612a8d565b600181811c90821680612c0b57607f821691505b60208210810361278457634e487b7160e01b600052602260045260246000fd5b60008251612c3d8184602087016127ca565b9190910192915050565b60008060408385031215612c5a57600080fd5b612c6383612ab6565b9150602083015163ffffffff81168114612c7c57600080fd5b809150509250929050565b600060208284031215612c9957600080fd5b813560ff811681146105c257600080fd5b601f82111561106157806000526020600020601f840160051c81016020851015612cd15750805b601f840160051c820191505b81811015612cf15760008155600101612cdd565b5050505050565b81516001600160401b03811115612d1157612d1161264d565b612d2581612d1f8454612bf7565b84612caa565b6020601f821160018114612d595760008315612d415750848201515b600019600385901b1c1916600184901b178455612cf1565b600084815260208120601f198516915b82811015612d895787850151825560209485019460019092019101612d69565b5084821015612da75786840151600019600387901b60f8161c191681555b50505050600190811b0190555056fef3177357ab46d8af007ab3fdb9af81da189e1068fefdc0073dca88a2cab40a00a16a46d94261c7517cc8ff89f61c0ce93598e3c849801011dee649a6a557d100360894a13ba1a3210667c828492db98dca3e2076cc3735a920a3ca505d382bbc55830a805815e4d506db4501e6719bc7b974e594ecdefb09d1856bf6a5d79500a26469706673582212205c11309971450d5971a7173639f0737d68fc9f9c5c298fc51c2401a1b064bed564736f6c634300081c0033",
  "linkReferences": {},
  "deployedLinkReferences": {}
}