{
  "_format": "hh-sol-artifact-1",
  "contractName": "OsmiStaking",
  "sourceName": "contracts/OsmiStaking.sol",
  "abi": [
    {
      "inputs": [],
      "stateMutability": "nonpayable",
      "type": "constructor"
    },
    {
      "inputs": [],
      "name": "APYOutOfRange",
      "type": "error"
    },
    {
      "inputs": [
        {
          "internalType": "address",
          "name": "authority",
          "type": "address"
        }
      ],
      "name": "AccessManagedInvalidAuthority",
      "type": "error"
    },
    {
      "inputs": [
        {
          "internalType": "address",
          "name": "caller",
          "type": "address"
        },
        {
          "internalType": "uint32",
          "name": "delay",
          "type": "uint32"
        }
      ],
      "name": "AccessManagedRequiredDelay",
      "type": "error"
    },
    {
      "inputs": [
        {
          "internalType": "address",
          "name": "caller",
          "type": "address"
        }
      ],
      "name": "AccessManagedUnauthorized",
      "type": "error"
    },
    {
      "inputs": [
        {
          "internalType": "address",
          "name": "target",
          "type": "address"
        }
      ],
      "name": "AddressEmptyCode",
      "type": "error"
    },
    {
      "inputs": [],
      "name": "ECDSAInvalidSignature",
      "type": "error"
    },
    {
      "inputs": [
        {
          "internalType": "uint256",
          "name": "length",
          "type": "uint256"
        }
      ],
      "name": "ECDSAInvalidSignatureLength",
      "type": "error"
    },
    {
      "inputs": [
        {
          "internalType": "bytes32",
          "name": "s",
          "type": "bytes32"
        }
      ],
      "name": "ECDSAInvalidSignatureS",
      "type": "error"
    },
    {
      "inputs": [
        {
          "internalType": "address",
          "name": "implementation",
          "type": "address"
        }
      ],
      "name": "ERC1967InvalidImplementation",
      "type": "error"
    },
    {
      "inputs": [],
      "name": "ERC1967NonPayable",
      "type": "error"
    },
    {
      "inputs": [],
      "name": "FailedInnerCall",
      "type": "error"
    },
    {
      "inputs": [],
      "name": "InsufficientBalance",
      "type": "error"
    },
    {
      "inputs": [
        {
          "internalType": "address",
          "name": "account",
          "type": "address"
        },
        {
          "internalType": "uint256",
          "name": "currentNonce",
          "type": "uint256"
        }
      ],
      "name": "InvalidAccountNonce",
      "type": "error"
    },
    {
      "inputs": [],
      "name": "InvalidInitialization",
      "type": "error"
    },
    {
      "inputs": [],
      "name": "InvalidTicketHash",
      "type": "error"
    },
    {
      "inputs": [],
      "name": "InvalidTicketSigner",
      "type": "error"
    },
    {
      "inputs": [],
      "name": "MathOverflowedMulDiv",
      "type": "error"
    },
    {
      "inputs": [],
      "name": "NotInitializing",
      "type": "error"
    },
    {
      "inputs": [],
      "name": "TicketExpired",
      "type": "error"
    },
    {
      "inputs": [],
      "name": "TicketIssuedTooSoon",
      "type": "error"
    },
    {
      "inputs": [],
      "name": "UUPSUnauthorizedCallContext",
      "type": "error"
    },
    {
      "inputs": [
        {
          "internalType": "bytes32",
          "name": "slot",
          "type": "bytes32"
        }
      ],
      "name": "UUPSUnsupportedProxiableUUID",
      "type": "error"
    },
    {
      "inputs": [],
      "name": "Uncancelable",
      "type": "error"
    },
    {
      "inputs": [],
      "name": "WithdrawalAlreadyInProgress",
      "type": "error"
    },
    {
      "inputs": [],
      "name": "WrongTicketOwner",
      "type": "error"
    },
    {
      "inputs": [],
      "name": "ZeroAddressNotAllowed",
      "type": "error"
    },
    {
      "inputs": [],
      "name": "ZeroAmountNotAllowed",
      "type": "error"
    },
    {
      "anonymous": false,
      "inputs": [
        {
          "indexed": false,
          "internalType": "uint256",
          "name": "apy",
          "type": "uint256"
        }
      ],
      "name": "APYChanged",
      "type": "event"
    },
    {
      "anonymous": false,
      "inputs": [
        {
          "indexed": false,
          "internalType": "address",
          "name": "authority",
          "type": "address"
        }
      ],
      "name": "AuthorityUpdated",
      "type": "event"
    },
    {
      "anonymous": false,
      "inputs": [
        {
          "indexed": false,
          "internalType": "address",
          "name": "user",
          "type": "address"
        },
        {
          "indexed": false,
          "internalType": "bool",
          "name": "value",
          "type": "bool"
        }
      ],
      "name": "AutoStakeChanged",
      "type": "event"
    },
    {
      "anonymous": false,
      "inputs": [
        {
          "indexed": false,
          "internalType": "contract IOsmiConfig",
          "name": "configContract",
          "type": "address"
        }
      ],
      "name": "ConfigContractChanged",
      "type": "event"
    },
    {
      "anonymous": false,
      "inputs": [],
      "name": "EIP712DomainChanged",
      "type": "event"
    },
    {
      "anonymous": false,
      "inputs": [
        {
          "indexed": false,
          "internalType": "uint64",
          "name": "version",
          "type": "uint64"
        }
      ],
      "name": "Initialized",
      "type": "event"
    },
    {
      "anonymous": false,
      "inputs": [
        {
          "indexed": false,
          "internalType": "address",
          "name": "user",
          "type": "address"
        },
        {
          "indexed": false,
          "internalType": "uint256",
          "name": "amount",
          "type": "uint256"
        },
        {
          "indexed": false,
          "internalType": "uint256",
          "name": "timestamp",
          "type": "uint256"
        }
      ],
      "name": "TicketRedeemed",
      "type": "event"
    },
    {
      "anonymous": false,
      "inputs": [
        {
          "indexed": false,
          "internalType": "address",
          "name": "ticketSigner",
          "type": "address"
        }
      ],
      "name": "TicketSignerChanged",
      "type": "event"
    },
    {
      "anonymous": false,
      "inputs": [
        {
          "indexed": false,
          "internalType": "address",
          "name": "from",
          "type": "address"
        },
        {
          "indexed": false,
          "internalType": "address",
          "name": "to",
          "type": "address"
        },
        {
          "indexed": false,
          "internalType": "uint256",
          "name": "amount",
          "type": "uint256"
        }
      ],
      "name": "TokensDeposited",
      "type": "event"
    },
    {
      "anonymous": false,
      "inputs": [
        {
          "indexed": true,
          "internalType": "address",
          "name": "implementation",
          "type": "address"
        }
      ],
      "name": "Upgraded",
      "type": "event"
    },
    {
      "anonymous": false,
      "inputs": [
        {
          "indexed": false,
          "internalType": "address",
          "name": "user",
          "type": "address"
        },
        {
          "indexed": false,
          "internalType": "uint256",
          "name": "availableAt",
          "type": "uint256"
        },
        {
          "indexed": false,
          "internalType": "uint256",
          "name": "amount",
          "type": "uint256"
        }
      ],
      "name": "WithdrawalCanceled",
      "type": "event"
    },
    {
      "anonymous": false,
      "inputs": [
        {
          "indexed": false,
          "internalType": "address",
          "name": "user",
          "type": "address"
        },
        {
          "indexed": false,
          "internalType": "uint256",
          "name": "availableAt",
          "type": "uint256"
        },
        {
          "indexed": false,
          "internalType": "uint256",
          "name": "amount",
          "type": "uint256"
        },
        {
          "indexed": false,
          "internalType": "bool",
          "name": "fast",
          "type": "bool"
        }
      ],
      "name": "WithdrawalStarted",
      "type": "event"
    },
    {
      "inputs": [],
      "name": "UPGRADE_INTERFACE_VERSION",
      "outputs": [
        {
          "internalType": "string",
          "name": "",
          "type": "string"
        }
      ],
      "stateMutability": "view",
      "type": "function"
    },
    {
      "inputs": [
        {
          "internalType": "address",
          "name": "user",
          "type": "address"
        },
        {
          "internalType": "uint256",
          "name": "amount",
          "type": "uint256"
        }
      ],
      "name": "adjustBalance",
      "outputs": [],
      "stateMutability": "nonpayable",
      "type": "function"
    },
    {
      "inputs": [],
      "name": "authority",
      "outputs": [
        {
          "internalType": "address",
          "name": "",
          "type": "address"
        }
      ],
      "stateMutability": "view",
      "type": "function"
    },
    {
      "inputs": [],
      "name": "cancelWithdrawal",
      "outputs": [],
      "stateMutability": "nonpayable",
      "type": "function"
    },
    {
      "inputs": [],
      "name": "eip712Domain",
      "outputs": [
        {
          "internalType": "bytes1",
          "name": "fields",
          "type": "bytes1"
        },
        {
          "internalType": "string",
          "name": "name",
          "type": "string"
        },
        {
          "internalType": "string",
          "name": "version",
          "type": "string"
        },
        {
          "internalType": "uint256",
          "name": "chainId",
          "type": "uint256"
        },
        {
          "internalType": "address",
          "name": "verifyingContract",
          "type": "address"
        },
        {
          "internalType": "bytes32",
          "name": "salt",
          "type": "bytes32"
        },
        {
          "internalType": "uint256[]",
          "name": "extensions",
          "type": "uint256[]"
        }
      ],
      "stateMutability": "view",
      "type": "function"
    },
    {
      "inputs": [],
      "name": "getAPY",
      "outputs": [
        {
          "internalType": "uint256",
          "name": "",
          "type": "uint256"
        }
      ],
      "stateMutability": "view",
      "type": "function"
    },
    {
      "inputs": [],
      "name": "getAutoStake",
      "outputs": [
        {
          "internalType": "bool",
          "name": "",
          "type": "bool"
        }
      ],
      "stateMutability": "view",
      "type": "function"
    },
    {
      "inputs": [
        {
          "internalType": "address",
          "name": "user",
          "type": "address"
        }
      ],
      "name": "getAutoStakeFor",
      "outputs": [
        {
          "internalType": "bool",
          "name": "",
          "type": "bool"
        }
      ],
      "stateMutability": "view",
      "type": "function"
    },
    {
      "inputs": [
        {
          "internalType": "address",
          "name": "user",
          "type": "address"
        }
      ],
      "name": "getBalance",
      "outputs": [
        {
          "internalType": "uint256",
          "name": "balance",
          "type": "uint256"
        },
        {
          "internalType": "uint256",
          "name": "lastTicketTimestamp",
          "type": "uint256"
        }
      ],
      "stateMutability": "view",
      "type": "function"
    },
    {
      "inputs": [],
      "name": "getConfigContract",
      "outputs": [
        {
          "internalType": "contract IOsmiConfig",
          "name": "",
          "type": "address"
        }
      ],
      "stateMutability": "view",
      "type": "function"
    },
    {
      "inputs": [],
      "name": "getTicketSigners",
      "outputs": [
        {
          "internalType": "address",
          "name": "",
          "type": "address"
        },
        {
          "internalType": "address",
          "name": "",
          "type": "address"
        }
      ],
      "stateMutability": "view",
      "type": "function"
    },
    {
      "inputs": [
        {
          "internalType": "address",
          "name": "initialAuthority",
          "type": "address"
        },
        {
          "internalType": "contract IOsmiConfig",
          "name": "configContract",
          "type": "address"
        },
        {
          "internalType": "address",
          "name": "ticketSigner",
          "type": "address"
        }
      ],
      "name": "initialize",
      "outputs": [],
      "stateMutability": "nonpayable",
      "type": "function"
    },
    {
      "inputs": [],
      "name": "isConsumingScheduledOp",
      "outputs": [
        {
          "internalType": "bytes4",
          "name": "",
          "type": "bytes4"
        }
      ],
      "stateMutability": "view",
      "type": "function"
    },
    {
      "inputs": [
        {
          "internalType": "address",
          "name": "owner",
          "type": "address"
        }
      ],
      "name": "nonces",
      "outputs": [
        {
          "internalType": "uint256",
          "name": "",
          "type": "uint256"
        }
      ],
      "stateMutability": "view",
      "type": "function"
    },
    {
      "inputs": [],
      "name": "proxiableUUID",
      "outputs": [
        {
          "internalType": "bytes32",
          "name": "",
          "type": "bytes32"
        }
      ],
      "stateMutability": "view",
      "type": "function"
    },
    {
      "inputs": [
        {
          "components": [
            {
              "internalType": "address",
              "name": "user",
              "type": "address"
            },
            {
              "internalType": "uint256",
              "name": "timestamp",
              "type": "uint256"
            },
            {
              "internalType": "bytes32",
              "name": "expectedHash",
              "type": "bytes32"
            },
            {
              "internalType": "uint256",
              "name": "amount",
              "type": "uint256"
            },
            {
              "internalType": "uint8",
              "name": "v",
              "type": "uint8"
            },
            {
              "internalType": "bytes32",
              "name": "r",
              "type": "bytes32"
            },
            {
              "internalType": "bytes32",
              "name": "s",
              "type": "bytes32"
            }
          ],
          "internalType": "struct OsmiStaking.Ticket",
          "name": "ticket",
          "type": "tuple"
        },
        {
          "internalType": "uint256",
          "name": "amount",
          "type": "uint256"
        },
        {
          "internalType": "bool",
          "name": "fast",
          "type": "bool"
        }
      ],
      "name": "redeemAndWithdraw",
      "outputs": [],
      "stateMutability": "nonpayable",
      "type": "function"
    },
    {
      "inputs": [
        {
          "components": [
            {
              "internalType": "address",
              "name": "user",
              "type": "address"
            },
            {
              "internalType": "uint256",
              "name": "timestamp",
              "type": "uint256"
            },
            {
              "internalType": "bytes32",
              "name": "expectedHash",
              "type": "bytes32"
            },
            {
              "internalType": "uint256",
              "name": "amount",
              "type": "uint256"
            },
            {
              "internalType": "uint8",
              "name": "v",
              "type": "uint8"
            },
            {
              "internalType": "bytes32",
              "name": "r",
              "type": "bytes32"
            },
            {
              "internalType": "bytes32",
              "name": "s",
              "type": "bytes32"
            }
          ],
          "internalType": "struct OsmiStaking.Ticket",
          "name": "ticket",
          "type": "tuple"
        }
      ],
      "name": "redeemTicket",
      "outputs": [
        {
          "internalType": "uint256",
          "name": "balance",
          "type": "uint256"
        }
      ],
      "stateMutability": "nonpayable",
      "type": "function"
    },
    {
      "inputs": [
        {
          "internalType": "uint256",
          "name": "v",
          "type": "uint256"
        }
      ],
      "name": "setAPY",
      "outputs": [],
      "stateMutability": "nonpayable",
      "type": "function"
    },
    {
      "inputs": [
        {
          "internalType": "address",
          "name": "newAuthority",
          "type": "address"
        }
      ],
      "name": "setAuthority",
      "outputs": [],
      "stateMutability": "nonpayable",
      "type": "function"
    },
    {
      "inputs": [
        {
          "internalType": "bool",
          "name": "v",
          "type": "bool"
        }
      ],
      "name": "setAutoStake",
      "outputs": [],
      "stateMutability": "nonpayable",
      "type": "function"
    },
    {
      "inputs": [
        {
          "internalType": "address",
          "name": "user",
          "type": "address"
        },
        {
          "internalType": "bool",
          "name": "v",
          "type": "bool"
        }
      ],
      "name": "setAutoStakeFor",
      "outputs": [],
      "stateMutability": "nonpayable",
      "type": "function"
    },
    {
      "inputs": [
        {
          "internalType": "contract IOsmiConfig",
          "name": "v",
          "type": "address"
        }
      ],
      "name": "setConfigContract",
      "outputs": [],
      "stateMutability": "nonpayable",
      "type": "function"
    },
    {
      "inputs": [
        {
          "internalType": "address",
          "name": "signer",
          "type": "address"
        }
      ],
      "name": "setTicketSigner",
      "outputs": [],
      "stateMutability": "nonpayable",
      "type": "function"
    },
    {
      "inputs": [
        {
          "internalType": "address",
          "name": "user",
          "type": "address"
        },
        {
          "internalType": "uint256",
          "name": "amount",
          "type": "uint256"
        }
      ],
      "name": "stakeFor",
      "outputs": [],
      "stateMutability": "nonpayable",
      "type": "function"
    },
    {
      "inputs": [
        {
          "internalType": "address",
          "name": "newImplementation",
          "type": "address"
        },
        {
          "internalType": "bytes",
          "name": "data",
          "type": "bytes"
        }
      ],
      "name": "upgradeToAndCall",
      "outputs": [],
      "stateMutability": "payable",
      "type": "function"
    },
    {
      "inputs": [
        {
          "internalType": "uint256",
          "name": "amount",
          "type": "uint256"
        },
        {
          "internalType": "bool",
          "name": "fast",
          "type": "bool"
        }
      ],
      "name": "withdraw",
      "outputs": [],
      "stateMutability": "nonpayable",
      "type": "function"
    }
  ],
  "bytecode": "0x60a06040523060805234801561001457600080fd5b5061001d610022565b6100d4565b7ff0c57e16840df040f15088dc2f81fe391c3923bec73e23a9662efc9c229c6a00805468010000000000000000900460ff16156100725760405163f92ee8a960e01b815260040160405180910390fd5b80546001600160401b03908116146100d15780546001600160401b0319166001600160401b0390811782556040519081527fc7f505b2f371ae2175ee4913f4499e1f2633a7b5936321eed1cdaeb6115181d29060200160405180910390a15b50565b608051612c206100fd6000396000818161130b0152818161133401526114760152612c206000f3fe6080604052600436106101815760003560e01c80637a9e5e4b116100d1578063a35ff3bf1161008a578063c0c53b8b11610064578063c0c53b8b146104bd578063d2cbf7ad146104dd578063de7b8ffe146104f2578063f8b2cb4f1461051257600080fd5b8063a35ff3bf1461044a578063ad3cb1cc1461046a578063bf7e214f146104a857600080fd5b80637a9e5e4b1461032a5780637d0c6d521461034a5780637ecebe001461036a57806384b0196e146103bf5780638fb36037146103e75780639c8821761461041557600080fd5b80632ee409081161013e57806352d1902d1161011857806352d1902d146102a757806358500e45146102ca57806361edd6cf146102ea57806366138e481461030a57600080fd5b80632ee409081461025457806338d07436146102745780634f1ef2861461029457600080fd5b80630bc6b21d146101865780630e1c3a4a146101a857806311a5ac48146101da5780631d212c96146101ff578063226112801461021f57806324f45e6714610234575b600080fd5b34801561019257600080fd5b506101a66101a13660046124e7565b610547565b005b3480156101b457600080fd5b506101bd610562565b6040516001600160a01b0390911681526020015b60405180910390f35b3480156101e657600080fd5b506101ef610571565b60405190151581526020016101d1565b34801561020b57600080fd5b506101a661021a366004612520565b61057c565b34801561022b57600080fd5b506101a6610592565b34801561024057600080fd5b506101a661024f36600461253d565b6105a6565b34801561026057600080fd5b506101a661026f366004612556565b6105b8565b34801561028057600080fd5b506101a661028f366004612582565b6105cc565b6101a66102a23660046125bd565b6105e1565b3480156102b357600080fd5b506102bc6105fc565b6040519081526020016101d1565b3480156102d657600080fd5b506102bc6102e53660046126a1565b610619565b3480156102f657600080fd5b506101ef6103053660046126bd565b610633565b34801561031657600080fd5b506101a66103253660046126da565b61063e565b34801561033657600080fd5b506101a66103453660046126bd565b61065f565b34801561035657600080fd5b506101a6610365366004612556565b6106e7565b34801561037657600080fd5b506102bc6103853660046126bd565b6001600160a01b031660009081527f5ab42ced628888259c08ac98db1eb0cf702fc1501344311d8b100cd1bfe4bb00602052604090205490565b3480156103cb57600080fd5b506103d4610738565b6040516101d1979695949392919061276d565b3480156103f357600080fd5b506103fc6107e4565b6040516001600160e01b031990911681526020016101d1565b34801561042157600080fd5b5061042a61081d565b604080516001600160a01b039384168152929091166020830152016101d1565b34801561045657600080fd5b506101a66104653660046126bd565b610830565b34801561047657600080fd5b5061049b604051806040016040528060058152602001640352e302e360dc1b81525081565b6040516101d19190612805565b3480156104b457600080fd5b506101bd610842565b3480156104c957600080fd5b506101a66104d8366004612818565b610865565b3480156104e957600080fd5b506102bc6109ec565b3480156104fe57600080fd5b506101a661050d3660046126bd565b6109f6565b34801561051e57600080fd5b5061053261052d3660046126bd565b610a08565b604080519283526020830191909152016101d1565b610554335b600036610a43565b61055e8282610b49565b5050565b600061056c610be7565b905090565b600061056c33610bf2565b6105853361054c565b61058f3382610b49565b50565b61059b3361054c565b6105a433610c25565b565b6105af3361054c565b61058f81610df8565b6105c13361054c565b61055e338383610e80565b6105d53361054c565b61055e335b8383610fee565b6105e9611300565b6105f2826113a5565b61055e82826113ae565b600061060661146b565b50600080516020612bcb83398151915290565b60006106243361054c565b61062d826114b4565b92915050565b600061062d82610bf2565b6106473361054c565b610650836114b4565b5061065a336105da565b505050565b33610668610842565b6001600160a01b0316816001600160a01b0316146106a85760405162d1953b60e31b81526001600160a01b03821660048201526024015b60405180910390fd5b816001600160a01b03163b6000036106de576040516361798f2f60e11b81526001600160a01b038316600482015260240161069f565b61055e82611713565b6106f03361054c565b60006106fa61176d565b6001600160a01b03841660009081526004808301602052604082209081018054939450909285929061072d90849061286e565b909155505050505050565b60006060808280808381600080516020612bab833981519152805490915015801561076557506001810154155b6107a95760405162461bcd60e51b81526020600482015260156024820152741152540dcc4c8e88155b9a5b9a5d1a585b1a5e9959605a1b604482015260640161069f565b6107b1611791565b6107b9611854565b60408051600080825260208201909252600f60f81b9c939b5091995046985030975095509350915050565b600080516020612b8b833981519152805460009190600160a01b900460ff1661080e576000610817565b638fb3603760e01b5b91505090565b600080610828611893565b915091509091565b6108393361054c565b61058f816118c0565b600080600080516020612b8b8339815191525b546001600160a01b031692915050565b7ff0c57e16840df040f15088dc2f81fe391c3923bec73e23a9662efc9c229c6a008054600160401b810460ff16159067ffffffffffffffff166000811580156108ab5750825b905060008267ffffffffffffffff1660011480156108c85750303b155b9050811580156108d6575080155b156108f45760405163f92ee8a960e01b815260040160405180910390fd5b845467ffffffffffffffff19166001178555831561091e57845460ff60401b1916600160401b1785555b610927886119a9565b61092f6119ba565b6109756040518060400160405280600b81526020016a4f736d695374616b696e6760a81b815250604051806040016040528060018152602001603160f81b8152506119c2565b61097d6119ba565b610986876119d4565b61098f866118c0565b61099c6309896800610df8565b83156109e257845460ff60401b19168555604051600181527fc7f505b2f371ae2175ee4913f4499e1f2633a7b5936321eed1cdaeb6115181d29060200160405180910390a15b5050505050505050565b600061056c611a44565b6109ff3361054c565b61058f816119d4565b6000806000610a1561176d565b6001600160a01b03909416600090815260049485016020526040902093840154600690940154939492505050565b600080516020612b8b833981519152600080610a7e610a60610842565b8730610a70600460008a8c612881565b610a79916128ab565b611a59565b9150915081610b415763ffffffff811615610b1e57825460ff60a01b1916600160a01b178355610aac610842565b6001600160a01b03166394c7d7ee8787876040518463ffffffff1660e01b8152600401610adb939291906128e3565b600060405180830381600087803b158015610af557600080fd5b505af1158015610b09573d6000803e3d6000fd5b5050845460ff60a01b1916855550610b419050565b60405162d1953b60e31b81526001600160a01b038716600482015260240161069f565b505050505050565b6000610b5361176d565b6001600160a01b038416600090815260048201602052604090208054919250906001908116148315158114610be057604080516001600160a01b038716815285151560208201527fc2c5b51760cdcc9fa9f62294acb39de5174a60208e7f212db33057244dbd4286910160405180910390a18315610bd75781546001178255610be0565b81546001191682555b5050505050565b60008061085561176d565b600080610bfd61176d565b6001600160a01b03909316600090815260049093016020525050604090205460019081161490565b6000610c2f61176d565b6001600160a01b038316600090815260048201602052604081206002810154929350919003610c5d57505050565b8060030154600003610c82576040516307a1cab560e11b815260040160405180910390fd5b80600201544210610ca65760405163446f38c360e11b815260040160405180910390fd5b60028082600001541603610ccd5760405163446f38c360e11b815260040160405180910390fd5b8060030154816004016000828254610ce5919061286e565b9091555060009050610cf5611b65565b90506000610d01611be0565b90506000610d0d611c37565b60028501546003860154604080516001600160a01b038b16815260208101939093528201529091507faa2fb342f317d8a167b825426470e8d601acab426e76f95ab6b89570157124df9060600160405180910390a160038401546040516323b872dd60e01b81526001600160a01b038516916323b872dd91610d96918591879190600401612923565b6020604051808303816000875af1158015610db5573d6000803e3d6000fd5b505050506040513d601f19601f82011682018060405250810190610dd99190612947565b5050825460021916835550506000600282018190556003909101555050565b801580610e085750633b9aca0081115b15610e26576040516302fa196b60e61b815260040160405180910390fd5b6000610e3061176d565b905081816003015403610e41575050565b600381018290556040518281527ffe0dc6926c703f5cea6a6a7bee3d6bede2f43f0df28a572f2e5cdd1d7ba9e560906020015b60405180910390a15050565b6001600160a01b0383161580610e9d57506001600160a01b038216155b15610ebb576040516342bcdf7f60e11b815260040160405180910390fd5b80600003610edc576040516307a1cab560e11b815260040160405180910390fd5b6000610ee661176d565b90506000610ef2611b65565b90506000610efe611be0565b6040516323b872dd60e01b81529091506001600160a01b038316906323b872dd90610f3190899085908990600401612923565b6020604051808303816000875af1158015610f50573d6000803e3d6000fd5b505050506040513d601f19601f82011682018060405250810190610f749190612947565b506001600160a01b0385166000908152600480850160205260408220908101805491928792610fa490849061286e565b90915550506040517fcbc4a4091b012bb1329c38bbbb15455f5cac5aa3673da0a7f38cd61a4f49551790610fdd90899089908990612923565b60405180910390a150505050505050565b6001600160a01b038316611015576040516342bcdf7f60e11b815260040160405180910390fd5b81600003611036576040516307a1cab560e11b815260040160405180910390fd5b600061104061176d565b6001600160a01b0385166000908152600482016020526040902060028101549192509042101561108357604051632a290aa960e01b815260040160405180910390fd5b80600401548411156110a857604051631e9acf1760e31b815260040160405180910390fd5b838160040160008282546110bc9190612964565b90915550600090506110cc611b65565b905060006110d8611c8e565b905060006110e4611be0565b905060006110f0611c37565b90506000836001600160a01b0316634dc3a3906040518163ffffffff1660e01b8152600401602060405180830381865afa158015611132573d6000803e3d6000fd5b505050506040513d601f19601f820116820180604052508101906111569190612977565b90508088156112075760006111748b6305f5e100633b9aca00611ce5565b9050611180818c612964565b9a5080156111eb5760405163079cc67960e41b81526001600160a01b038681166004830152602482018390528816906379cc679090604401600060405180830381600087803b1580156111d257600080fd5b505af11580156111e6573d6000803e3d6000fd5b505050505b875460021788556111ff620151808361286e565b91505061121f565b865460021916875561121c621275008261286e565b90505b600387018a905560028701819055604080516001600160a01b038d168152602081018390529081018b905289151560608201527fd71f8e686f6b1e03699cb0f47ce9ccd97097e71396d165c718c68d3f9e9f528f9060800160405180910390a16040516323b872dd60e01b81526001600160a01b038716906323b872dd906112af90879087908f90600401612923565b6020604051808303816000875af11580156112ce573d6000803e3d6000fd5b505050506040513d601f19601f820116820180604052508101906112f29190612947565b505050505050505050505050565b306001600160a01b037f000000000000000000000000000000000000000000000000000000000000000016148061138757507f00000000000000000000000000000000000000000000000000000000000000006001600160a01b031661137b600080516020612bcb833981519152546001600160a01b031690565b6001600160a01b031614155b156105a45760405163703e46dd60e11b815260040160405180910390fd5b61058f3361054c565b816001600160a01b03166352d1902d6040518163ffffffff1660e01b8152600401602060405180830381865afa925050508015611408575060408051601f3d908101601f1916820190925261140591810190612977565b60015b61143057604051634c9c8ce360e01b81526001600160a01b038316600482015260240161069f565b600080516020612bcb833981519152811461146157604051632a87526960e21b81526004810182905260240161069f565b61065a8383611daa565b306001600160a01b037f000000000000000000000000000000000000000000000000000000000000000016146105a45760405163703e46dd60e11b815260040160405180910390fd5b6000806114c083611e00565b905060006114cc61176d565b9050600060048201816114e260208801886126bd565b6001600160a01b03168152602080820192909252604001600090812092509061150d908701876126bd565b6001600160a01b031603611534576040516342bcdf7f60e11b815260040160405180910390fd5b8460600135600003611559576040516307a1cab560e11b815260040160405180910390fd5b6006810154602086013590620143706115728342612964565b1115611591576040516340d3544760e01b815260040160405180910390fd5b6201437061159f8284612964565b10156115be576040516317e8a5cb60e01b815260040160405180910390fd5b82600501548760400135146115e657604051631b5b230b60e21b815260040160405180910390fd5b86606001358360040160008282546115fe919061286e565b9091555050602087018035600685015560058401546000917f4e9b0e2afb2e56a47cc5c5693615261ff938bb48f9baf05077e20c8fd8d5f71a9190611643908b6126bd565b60408051602081810195909552908101929092526001600160a01b0316606082810191909152918a013560808201529089013560a082015260c0810187905260e0016040516020818303038152906040528051906020012090506116a681611f1e565b60058501557fc486cbcc73b5497f564228f5833a8766da2c87c2b5669ce5838d50bdf396f0746116d960208a018a6126bd565b604080516001600160a01b0390921682526060808c013560208401529082018690520160405180910390a150505060040154949350505050565b600080516020612b8b83398151915280546001600160a01b0319166001600160a01b03831690811782556040519081527f2f658b440c35314f52658ea8a740e05b284cdc84dc9ae01e891f21b8933e7cad90602001610e74565b7fa3c4f2f291c8b2e507af98f0821c9deaec9b9fc659bd5466e3124818ea08360090565b7fa16a46d94261c7517cc8ff89f61c0ce93598e3c849801011dee649a6a557d1028054606091600080516020612bab833981519152916117d090612990565b80601f01602080910402602001604051908101604052809291908181526020018280546117fc90612990565b80156118495780601f1061181e57610100808354040283529160200191611849565b820191906000526020600020905b81548152906001019060200180831161182c57829003601f168201915b505050505091505090565b7fa16a46d94261c7517cc8ff89f61c0ce93598e3c849801011dee649a6a557d1038054606091600080516020612bab833981519152916117d090612990565b60008060006118a061176d565b60018101546002909101546001600160a01b039182169591169350915050565b6001600160a01b0381166119165760405162461bcd60e51b815260206004820152601c60248201527f7369676e657220616464726573732063616e2774206265207a65726f00000000604482015260640161069f565b600061192061176d565b90506001600160a01b03821660018201600001546001600160a01b031603611946575050565b6001810180546002830180546001600160a01b038084166001600160a01b0319928316179092559091169084169081179091556040519081527ff25410f30b55c5bf754bde6af67a578fc1fb2e1e7fa70f582112f3c430b8e23690602001610e74565b6119b1611f4b565b61058f81611f94565b6105a4611f4b565b6119ca611f4b565b61055e8282611fa5565b60006119de61176d565b80549091506001600160a01b038084169116036119f9575050565b80546001600160a01b0319166001600160a01b03831690811782556040519081527fea68eebc69e6cf7ca402dbd8bbf63e2a5d6fcc0ab964fb9cbe0b2660c364875d90602001610e74565b600080611a4f61176d565b6003015492915050565b6040516001600160a01b03848116602483015283811660448301526001600160e01b03198316606483015260009182918291829189169060840160408051601f198184030181529181526020820180516001600160e01b031663b700961360e01b17905251611ac891906129c4565b600060405180830381855afa9150503d8060008114611b03576040519150601f19603f3d011682016040523d82523d6000602084013e611b08565b606091505b50915091508115611b5a576040815110611b3a5780806020019051810190611b3091906129e0565b9094509250611b5a565b6020815110611b5a5780806020019051810190611b579190612947565b93505b505094509492505050565b600080611b7061176d565b80546040805163145bdf6f60e11b815290519293506001600160a01b03909116916328b7bede916004808201926020929091908290030181865afa158015611bbc573d6000803e3d6000fd5b505050506040513d601f19601f820116820180604052508101906108179190612a18565b600080611beb61176d565b80546040805163116518cd60e21b815290519293506001600160a01b03909116916345946334916004808201926020929091908290030181865afa158015611bbc573d6000803e3d6000fd5b600080611c4261176d565b805460408051635af1954560e11b815290519293506001600160a01b039091169163b5e32a8a916004808201926020929091908290030181865afa158015611bbc573d6000803e3d6000fd5b600080611c9961176d565b8054604080516358d6b7d760e01b815290519293506001600160a01b03909116916358d6b7d7916004808201926020929091908290030181865afa158015611bbc573d6000803e3d6000fd5b6000838302816000198587098281108382030391505080600003611d1c57838281611d1257611d12612a35565b0492505050611da3565b808411611d3c5760405163227bc15360e01b815260040160405180910390fd5b6000848688096000868103871696879004966002600389028118808a02820302808a02820302808a02820302808a02820302808a02820302808a02909103029181900381900460010186841190950394909402919094039290920491909117919091029150505b9392505050565b611db382612006565b6040516001600160a01b038316907fbc7cd75a20ee27fd9adebab32041f755214dbc6bffa90cc0225b39da2e5c2d3b90600090a2805115611df85761065a828261206b565b61055e6120e1565b6000611e54611e1260208401846126bd565b6001600160a01b031660009081527f5ab42ced628888259c08ac98db1eb0cf702fc1501344311d8b100cd1bfe4bb006020526040902080546001810190915590565b905060007f4e588c81a3f4076283a4034bdbedf505b373c9174562025a741f0c28625014f1611e8660208501856126bd565b604080516020818101949094526001600160a01b039092169082015290840135606082810191909152840135608082015260a0810183905260c0016040516020818303038152906040528051906020012090506000611ee482611f1e565b90506000611f0b82611efc60a0880160808901612a4b565b8760a001358860c00135612100565b9050611f168161212e565b505050919050565b600061062d611f2b61218b565b8360405161190160f01b8152600281019290925260228201526042902090565b7ff0c57e16840df040f15088dc2f81fe391c3923bec73e23a9662efc9c229c6a0054600160401b900460ff166105a457604051631afcd79f60e31b815260040160405180910390fd5b611f9c611f4b565b61058f81611713565b611fad611f4b565b600080516020612bab8339815191527fa16a46d94261c7517cc8ff89f61c0ce93598e3c849801011dee649a6a557d102611fe78482612ab5565b5060038101611ff68382612ab5565b5060008082556001909101555050565b806001600160a01b03163b60000361203c57604051634c9c8ce360e01b81526001600160a01b038216600482015260240161069f565b600080516020612bcb83398151915280546001600160a01b0319166001600160a01b0392909216919091179055565b6060600080846001600160a01b03168460405161208891906129c4565b600060405180830381855af49150503d80600081146120c3576040519150601f19603f3d011682016040523d82523d6000602084013e6120c8565b606091505b50915091506120d8858383612195565b95945050505050565b34156105a45760405163b398979f60e01b815260040160405180910390fd5b600080600080612112888888886121f1565b92509250925061212282826122c0565b50909695505050505050565b600061213861176d565b905060018101600001546001600160a01b0383811691161480159061216d575060028101546001600160a01b03838116911614155b1561055e57604051631773e24d60e01b815260040160405180910390fd5b600061056c612379565b6060826121aa576121a5826123ed565b611da3565b81511580156121c157506001600160a01b0384163b155b156121ea57604051639996b31560e01b81526001600160a01b038516600482015260240161069f565b5080611da3565b600080807f7fffffffffffffffffffffffffffffff5d576e7357a4501ddfe92f46681b20a084111561222c57506000915060039050826122b6565b604080516000808252602082018084528a905260ff891692820192909252606081018790526080810186905260019060a0016020604051602081039080840390855afa158015612280573d6000803e3d6000fd5b5050604051601f1901519150506001600160a01b0381166122ac575060009250600191508290506122b6565b9250600091508190505b9450945094915050565b60008260038111156122d4576122d4612b74565b036122dd575050565b60018260038111156122f1576122f1612b74565b0361230f5760405163f645eedf60e01b815260040160405180910390fd5b600282600381111561232357612323612b74565b036123445760405163fce698f760e01b81526004810182905260240161069f565b600382600381111561235857612358612b74565b0361055e576040516335e2f38360e21b81526004810182905260240161069f565b60007f8b73c3c69bb8fe3d512ecc4cf759cc79239f7b179b0ffacaa9a75d522b39400f6123a4612416565b6123ac612480565b60408051602081019490945283019190915260608201524660808201523060a082015260c00160405160208183030381529060405280519060200120905090565b8051156123fd5780518082602001fd5b604051630a12f52160e11b815260040160405180910390fd5b6000600080516020612bab83398151915281612430611791565b80519091501561244857805160209091012092915050565b81548015612457579392505050565b7fc5d2460186f7233c927e7db2dcc703c0e500b653ca82273b7bfad8045d85a470935050505090565b6000600080516020612bab8339815191528161249a611854565b8051909150156124b257805160209091012092915050565b60018201548015612457579392505050565b6001600160a01b038116811461058f57600080fd5b801515811461058f57600080fd5b600080604083850312156124fa57600080fd5b8235612505816124c4565b91506020830135612515816124d9565b809150509250929050565b60006020828403121561253257600080fd5b8135611da3816124d9565b60006020828403121561254f57600080fd5b5035919050565b6000806040838503121561256957600080fd5b8235612574816124c4565b946020939093013593505050565b6000806040838503121561259557600080fd5b823591506020830135612515816124d9565b634e487b7160e01b600052604160045260246000fd5b600080604083850312156125d057600080fd5b82356125db816124c4565b9150602083013567ffffffffffffffff8111156125f757600080fd5b8301601f8101851361260857600080fd5b803567ffffffffffffffff811115612622576126226125a7565b604051601f8201601f19908116603f0116810167ffffffffffffffff81118282101715612651576126516125a7565b60405281815282820160200187101561266957600080fd5b816020840160208301376000602083830101528093505050509250929050565b600060e0828403121561269b57600080fd5b50919050565b600060e082840312156126b357600080fd5b611da38383612689565b6000602082840312156126cf57600080fd5b8135611da3816124c4565b600080600061012084860312156126f057600080fd5b6126fa8585612689565b925060e08401359150610100840135612712816124d9565b809150509250925092565b60005b83811015612738578181015183820152602001612720565b50506000910152565b6000815180845261275981602086016020860161271d565b601f01601f19169290920160200192915050565b60ff60f81b8816815260e06020820152600061278c60e0830189612741565b828103604084015261279e8189612741565b606084018890526001600160a01b038716608085015260a0840186905283810360c08501528451808252602080870193509091019060005b818110156127f45783518352602093840193909201916001016127d6565b50909b9a5050505050505050505050565b602081526000611da36020830184612741565b60008060006060848603121561282d57600080fd5b8335612838816124c4565b92506020840135612848816124c4565b91506040840135612712816124c4565b634e487b7160e01b600052601160045260246000fd5b8082018082111561062d5761062d612858565b6000808585111561289157600080fd5b8386111561289e57600080fd5b5050820193919092039150565b80356001600160e01b031981169060048410156128dc576001600160e01b0319600485900360031b81901b82161691505b5092915050565b6001600160a01b03841681526040602082018190528101829052818360608301376000818301606090810191909152601f909201601f1916010192915050565b6001600160a01b039384168152919092166020820152604081019190915260600190565b60006020828403121561295957600080fd5b8151611da3816124d9565b8181038181111561062d5761062d612858565b60006020828403121561298957600080fd5b5051919050565b600181811c908216806129a457607f821691505b60208210810361269b57634e487b7160e01b600052602260045260246000fd5b600082516129d681846020870161271d565b9190910192915050565b600080604083850312156129f357600080fd5b82516129fe816124d9565b602084015190925063ffffffff8116811461251557600080fd5b600060208284031215612a2a57600080fd5b8151611da3816124c4565b634e487b7160e01b600052601260045260246000fd5b600060208284031215612a5d57600080fd5b813560ff81168114611da357600080fd5b601f82111561065a57806000526020600020601f840160051c81016020851015612a955750805b601f840160051c820191505b81811015610be05760008155600101612aa1565b815167ffffffffffffffff811115612acf57612acf6125a7565b612ae381612add8454612990565b84612a6e565b6020601f821160018114612b175760008315612aff5750848201515b600019600385901b1c1916600184901b178455610be0565b600084815260208120601f198516915b82811015612b475787850151825560209485019460019092019101612b27565b5084821015612b655786840151600019600387901b60f8161c191681555b50505050600190811b01905550565b634e487b7160e01b600052602160045260246000fdfef3177357ab46d8af007ab3fdb9af81da189e1068fefdc0073dca88a2cab40a00a16a46d94261c7517cc8ff89f61c0ce93598e3c849801011dee649a6a557d100360894a13ba1a3210667c828492db98dca3e2076cc3735a920a3ca505d382bbca2646970667358221220c0ab7a02aa034e4714f1ad1514783e44fb541cfe1144c29dc547b1c45aa3ea0b64736f6c634300081c0033",
  "linkReferences": {},
  "deployedLinkReferences": {}
}