{
  "_format": "hh-sol-artifact-1",
  "contractName": "OsmiStaking",
  "sourceName": "contracts/OsmiStaking.sol",
  "abi": [
    {
      "inputs": [],
      "stateMutability": "nonpayable",
      "type": "constructor"
    },
    {
      "inputs": [],
      "name": "APYOutOfRange",
      "type": "error"
    },
    {
      "inputs": [
        {
          "internalType": "address",
          "name": "authority",
          "type": "address"
        }
      ],
      "name": "AccessManagedInvalidAuthority",
      "type": "error"
    },
    {
      "inputs": [
        {
          "internalType": "address",
          "name": "caller",
          "type": "address"
        },
        {
          "internalType": "uint32",
          "name": "delay",
          "type": "uint32"
        }
      ],
      "name": "AccessManagedRequiredDelay",
      "type": "error"
    },
    {
      "inputs": [
        {
          "internalType": "address",
          "name": "caller",
          "type": "address"
        }
      ],
      "name": "AccessManagedUnauthorized",
      "type": "error"
    },
    {
      "inputs": [
        {
          "internalType": "address",
          "name": "target",
          "type": "address"
        }
      ],
      "name": "AddressEmptyCode",
      "type": "error"
    },
    {
      "inputs": [],
      "name": "ECDSAInvalidSignature",
      "type": "error"
    },
    {
      "inputs": [
        {
          "internalType": "uint256",
          "name": "length",
          "type": "uint256"
        }
      ],
      "name": "ECDSAInvalidSignatureLength",
      "type": "error"
    },
    {
      "inputs": [
        {
          "internalType": "bytes32",
          "name": "s",
          "type": "bytes32"
        }
      ],
      "name": "ECDSAInvalidSignatureS",
      "type": "error"
    },
    {
      "inputs": [
        {
          "internalType": "address",
          "name": "implementation",
          "type": "address"
        }
      ],
      "name": "ERC1967InvalidImplementation",
      "type": "error"
    },
    {
      "inputs": [],
      "name": "ERC1967NonPayable",
      "type": "error"
    },
    {
      "inputs": [],
      "name": "FailedInnerCall",
      "type": "error"
    },
    {
      "inputs": [],
      "name": "InsufficientBalance",
      "type": "error"
    },
    {
      "inputs": [
        {
          "internalType": "address",
          "name": "account",
          "type": "address"
        },
        {
          "internalType": "uint256",
          "name": "currentNonce",
          "type": "uint256"
        }
      ],
      "name": "InvalidAccountNonce",
      "type": "error"
    },
    {
      "inputs": [],
      "name": "InvalidInitialization",
      "type": "error"
    },
    {
      "inputs": [],
      "name": "InvalidTicketHash",
      "type": "error"
    },
    {
      "inputs": [],
      "name": "InvalidTicketSigner",
      "type": "error"
    },
    {
      "inputs": [],
      "name": "MathOverflowedMulDiv",
      "type": "error"
    },
    {
      "inputs": [],
      "name": "NotInitializing",
      "type": "error"
    },
    {
      "inputs": [],
      "name": "TicketExpired",
      "type": "error"
    },
    {
      "inputs": [],
      "name": "TicketIssuedTooSoon",
      "type": "error"
    },
    {
      "inputs": [],
      "name": "UUPSUnauthorizedCallContext",
      "type": "error"
    },
    {
      "inputs": [
        {
          "internalType": "bytes32",
          "name": "slot",
          "type": "bytes32"
        }
      ],
      "name": "UUPSUnsupportedProxiableUUID",
      "type": "error"
    },
    {
      "inputs": [],
      "name": "Uncancelable",
      "type": "error"
    },
    {
      "inputs": [],
      "name": "WithdrawalAlreadyInProgress",
      "type": "error"
    },
    {
      "inputs": [],
      "name": "WrongTicketOwner",
      "type": "error"
    },
    {
      "inputs": [],
      "name": "ZeroAddressNotAllowed",
      "type": "error"
    },
    {
      "inputs": [],
      "name": "ZeroAmountNotAllowed",
      "type": "error"
    },
    {
      "anonymous": false,
      "inputs": [
        {
          "indexed": false,
          "internalType": "uint256",
          "name": "apy",
          "type": "uint256"
        }
      ],
      "name": "APYChanged",
      "type": "event"
    },
    {
      "anonymous": false,
      "inputs": [
        {
          "indexed": false,
          "internalType": "address",
          "name": "authority",
          "type": "address"
        }
      ],
      "name": "AuthorityUpdated",
      "type": "event"
    },
    {
      "anonymous": false,
      "inputs": [
        {
          "indexed": false,
          "internalType": "address",
          "name": "user",
          "type": "address"
        },
        {
          "indexed": false,
          "internalType": "bool",
          "name": "value",
          "type": "bool"
        }
      ],
      "name": "AutoStakeChanged",
      "type": "event"
    },
    {
      "anonymous": false,
      "inputs": [
        {
          "indexed": false,
          "internalType": "contract IOsmiConfig",
          "name": "configContract",
          "type": "address"
        }
      ],
      "name": "ConfigContractChanged",
      "type": "event"
    },
    {
      "anonymous": false,
      "inputs": [],
      "name": "EIP712DomainChanged",
      "type": "event"
    },
    {
      "anonymous": false,
      "inputs": [
        {
          "indexed": false,
          "internalType": "uint64",
          "name": "version",
          "type": "uint64"
        }
      ],
      "name": "Initialized",
      "type": "event"
    },
    {
      "anonymous": false,
      "inputs": [
        {
          "indexed": false,
          "internalType": "address",
          "name": "user",
          "type": "address"
        },
        {
          "indexed": false,
          "internalType": "int256",
          "name": "delta",
          "type": "int256"
        },
        {
          "indexed": false,
          "internalType": "uint256",
          "name": "timestamp",
          "type": "uint256"
        }
      ],
      "name": "TicketRedeemed",
      "type": "event"
    },
    {
      "anonymous": false,
      "inputs": [
        {
          "indexed": false,
          "internalType": "address",
          "name": "ticketSigner",
          "type": "address"
        }
      ],
      "name": "TicketSignerChanged",
      "type": "event"
    },
    {
      "anonymous": false,
      "inputs": [
        {
          "indexed": false,
          "internalType": "address",
          "name": "from",
          "type": "address"
        },
        {
          "indexed": false,
          "internalType": "address",
          "name": "to",
          "type": "address"
        },
        {
          "indexed": false,
          "internalType": "uint256",
          "name": "amount",
          "type": "uint256"
        }
      ],
      "name": "TokensDeposited",
      "type": "event"
    },
    {
      "anonymous": false,
      "inputs": [
        {
          "indexed": true,
          "internalType": "address",
          "name": "implementation",
          "type": "address"
        }
      ],
      "name": "Upgraded",
      "type": "event"
    },
    {
      "anonymous": false,
      "inputs": [
        {
          "indexed": false,
          "internalType": "address",
          "name": "user",
          "type": "address"
        },
        {
          "indexed": false,
          "internalType": "uint256",
          "name": "availableAt",
          "type": "uint256"
        },
        {
          "indexed": false,
          "internalType": "uint256",
          "name": "amount",
          "type": "uint256"
        }
      ],
      "name": "WithdrawalCanceled",
      "type": "event"
    },
    {
      "anonymous": false,
      "inputs": [
        {
          "indexed": false,
          "internalType": "address",
          "name": "user",
          "type": "address"
        },
        {
          "indexed": false,
          "internalType": "uint256",
          "name": "availableAt",
          "type": "uint256"
        },
        {
          "indexed": false,
          "internalType": "uint256",
          "name": "amount",
          "type": "uint256"
        },
        {
          "indexed": false,
          "internalType": "bool",
          "name": "fast",
          "type": "bool"
        }
      ],
      "name": "WithdrawalStarted",
      "type": "event"
    },
    {
      "inputs": [],
      "name": "UPGRADE_INTERFACE_VERSION",
      "outputs": [
        {
          "internalType": "string",
          "name": "",
          "type": "string"
        }
      ],
      "stateMutability": "view",
      "type": "function"
    },
    {
      "inputs": [
        {
          "internalType": "address",
          "name": "user",
          "type": "address"
        },
        {
          "internalType": "uint256",
          "name": "amount",
          "type": "uint256"
        }
      ],
      "name": "adjustBalance",
      "outputs": [],
      "stateMutability": "nonpayable",
      "type": "function"
    },
    {
      "inputs": [],
      "name": "authority",
      "outputs": [
        {
          "internalType": "address",
          "name": "",
          "type": "address"
        }
      ],
      "stateMutability": "view",
      "type": "function"
    },
    {
      "inputs": [],
      "name": "cancelWithdrawal",
      "outputs": [],
      "stateMutability": "nonpayable",
      "type": "function"
    },
    {
      "inputs": [],
      "name": "eip712Domain",
      "outputs": [
        {
          "internalType": "bytes1",
          "name": "fields",
          "type": "bytes1"
        },
        {
          "internalType": "string",
          "name": "name",
          "type": "string"
        },
        {
          "internalType": "string",
          "name": "version",
          "type": "string"
        },
        {
          "internalType": "uint256",
          "name": "chainId",
          "type": "uint256"
        },
        {
          "internalType": "address",
          "name": "verifyingContract",
          "type": "address"
        },
        {
          "internalType": "bytes32",
          "name": "salt",
          "type": "bytes32"
        },
        {
          "internalType": "uint256[]",
          "name": "extensions",
          "type": "uint256[]"
        }
      ],
      "stateMutability": "view",
      "type": "function"
    },
    {
      "inputs": [],
      "name": "getAPY",
      "outputs": [
        {
          "internalType": "uint256",
          "name": "",
          "type": "uint256"
        }
      ],
      "stateMutability": "view",
      "type": "function"
    },
    {
      "inputs": [],
      "name": "getAutoStake",
      "outputs": [
        {
          "internalType": "bool",
          "name": "",
          "type": "bool"
        }
      ],
      "stateMutability": "view",
      "type": "function"
    },
    {
      "inputs": [
        {
          "internalType": "address",
          "name": "user",
          "type": "address"
        }
      ],
      "name": "getAutoStakeFor",
      "outputs": [
        {
          "internalType": "bool",
          "name": "",
          "type": "bool"
        }
      ],
      "stateMutability": "view",
      "type": "function"
    },
    {
      "inputs": [
        {
          "internalType": "address",
          "name": "user",
          "type": "address"
        }
      ],
      "name": "getBalance",
      "outputs": [
        {
          "internalType": "uint256",
          "name": "balance",
          "type": "uint256"
        },
        {
          "internalType": "uint256",
          "name": "lastTicketTimestamp",
          "type": "uint256"
        }
      ],
      "stateMutability": "view",
      "type": "function"
    },
    {
      "inputs": [],
      "name": "getConfigContract",
      "outputs": [
        {
          "internalType": "contract IOsmiConfig",
          "name": "",
          "type": "address"
        }
      ],
      "stateMutability": "view",
      "type": "function"
    },
    {
      "inputs": [],
      "name": "getTicketSigners",
      "outputs": [
        {
          "internalType": "address",
          "name": "",
          "type": "address"
        },
        {
          "internalType": "address",
          "name": "",
          "type": "address"
        }
      ],
      "stateMutability": "view",
      "type": "function"
    },
    {
      "inputs": [
        {
          "internalType": "address",
          "name": "initialAuthority",
          "type": "address"
        },
        {
          "internalType": "contract IOsmiConfig",
          "name": "configContract",
          "type": "address"
        },
        {
          "internalType": "address",
          "name": "ticketSigner",
          "type": "address"
        }
      ],
      "name": "initialize",
      "outputs": [],
      "stateMutability": "nonpayable",
      "type": "function"
    },
    {
      "inputs": [],
      "name": "isConsumingScheduledOp",
      "outputs": [
        {
          "internalType": "bytes4",
          "name": "",
          "type": "bytes4"
        }
      ],
      "stateMutability": "view",
      "type": "function"
    },
    {
      "inputs": [
        {
          "internalType": "address",
          "name": "owner",
          "type": "address"
        }
      ],
      "name": "nonces",
      "outputs": [
        {
          "internalType": "uint256",
          "name": "",
          "type": "uint256"
        }
      ],
      "stateMutability": "view",
      "type": "function"
    },
    {
      "inputs": [],
      "name": "proxiableUUID",
      "outputs": [
        {
          "internalType": "bytes32",
          "name": "",
          "type": "bytes32"
        }
      ],
      "stateMutability": "view",
      "type": "function"
    },
    {
      "inputs": [
        {
          "components": [
            {
              "internalType": "address",
              "name": "user",
              "type": "address"
            },
            {
              "internalType": "uint256",
              "name": "timestamp",
              "type": "uint256"
            },
            {
              "internalType": "bytes32",
              "name": "expectedHash",
              "type": "bytes32"
            },
            {
              "internalType": "int256",
              "name": "delta",
              "type": "int256"
            },
            {
              "internalType": "uint8",
              "name": "v",
              "type": "uint8"
            },
            {
              "internalType": "bytes32",
              "name": "r",
              "type": "bytes32"
            },
            {
              "internalType": "bytes32",
              "name": "s",
              "type": "bytes32"
            }
          ],
          "internalType": "struct OsmiStaking.Ticket",
          "name": "ticket",
          "type": "tuple"
        },
        {
          "internalType": "uint256",
          "name": "amount",
          "type": "uint256"
        },
        {
          "internalType": "bool",
          "name": "fast",
          "type": "bool"
        }
      ],
      "name": "redeemAndWithdraw",
      "outputs": [],
      "stateMutability": "nonpayable",
      "type": "function"
    },
    {
      "inputs": [
        {
          "components": [
            {
              "internalType": "address",
              "name": "user",
              "type": "address"
            },
            {
              "internalType": "uint256",
              "name": "timestamp",
              "type": "uint256"
            },
            {
              "internalType": "bytes32",
              "name": "expectedHash",
              "type": "bytes32"
            },
            {
              "internalType": "int256",
              "name": "delta",
              "type": "int256"
            },
            {
              "internalType": "uint8",
              "name": "v",
              "type": "uint8"
            },
            {
              "internalType": "bytes32",
              "name": "r",
              "type": "bytes32"
            },
            {
              "internalType": "bytes32",
              "name": "s",
              "type": "bytes32"
            }
          ],
          "internalType": "struct OsmiStaking.Ticket",
          "name": "ticket",
          "type": "tuple"
        }
      ],
      "name": "redeemTicket",
      "outputs": [
        {
          "internalType": "uint256",
          "name": "balance",
          "type": "uint256"
        }
      ],
      "stateMutability": "nonpayable",
      "type": "function"
    },
    {
      "inputs": [
        {
          "internalType": "uint256",
          "name": "v",
          "type": "uint256"
        }
      ],
      "name": "setAPY",
      "outputs": [],
      "stateMutability": "nonpayable",
      "type": "function"
    },
    {
      "inputs": [
        {
          "internalType": "address",
          "name": "newAuthority",
          "type": "address"
        }
      ],
      "name": "setAuthority",
      "outputs": [],
      "stateMutability": "nonpayable",
      "type": "function"
    },
    {
      "inputs": [
        {
          "internalType": "bool",
          "name": "v",
          "type": "bool"
        }
      ],
      "name": "setAutoStake",
      "outputs": [],
      "stateMutability": "nonpayable",
      "type": "function"
    },
    {
      "inputs": [
        {
          "internalType": "address",
          "name": "user",
          "type": "address"
        },
        {
          "internalType": "bool",
          "name": "v",
          "type": "bool"
        }
      ],
      "name": "setAutoStakeFor",
      "outputs": [],
      "stateMutability": "nonpayable",
      "type": "function"
    },
    {
      "inputs": [
        {
          "internalType": "contract IOsmiConfig",
          "name": "v",
          "type": "address"
        }
      ],
      "name": "setConfigContract",
      "outputs": [],
      "stateMutability": "nonpayable",
      "type": "function"
    },
    {
      "inputs": [
        {
          "internalType": "address",
          "name": "signer",
          "type": "address"
        }
      ],
      "name": "setTicketSigner",
      "outputs": [],
      "stateMutability": "nonpayable",
      "type": "function"
    },
    {
      "inputs": [
        {
          "internalType": "address",
          "name": "user",
          "type": "address"
        },
        {
          "internalType": "uint256",
          "name": "amount",
          "type": "uint256"
        }
      ],
      "name": "stakeFor",
      "outputs": [],
      "stateMutability": "nonpayable",
      "type": "function"
    },
    {
      "inputs": [
        {
          "internalType": "address",
          "name": "newImplementation",
          "type": "address"
        },
        {
          "internalType": "bytes",
          "name": "data",
          "type": "bytes"
        }
      ],
      "name": "upgradeToAndCall",
      "outputs": [],
      "stateMutability": "payable",
      "type": "function"
    },
    {
      "inputs": [
        {
          "internalType": "uint256",
          "name": "amount",
          "type": "uint256"
        },
        {
          "internalType": "bool",
          "name": "fast",
          "type": "bool"
        }
      ],
      "name": "withdraw",
      "outputs": [],
      "stateMutability": "nonpayable",
      "type": "function"
    }
  ],
  "bytecode": "0x60a06040523060805234801561001457600080fd5b5061001d610022565b6100d4565b7ff0c57e16840df040f15088dc2f81fe391c3923bec73e23a9662efc9c229c6a00805468010000000000000000900460ff16156100725760405163f92ee8a960e01b815260040160405180910390fd5b80546001600160401b03908116146100d15780546001600160401b0319166001600160401b0390811782556040519081527fc7f505b2f371ae2175ee4913f4499e1f2633a7b5936321eed1cdaeb6115181d29060200160405180910390a15b50565b608051612c9f6100fd600039600081816115cd015281816115f601526117380152612c9f6000f3fe6080604052600436106101815760003560e01c80637a9e5e4b116100d1578063a35ff3bf1161008a578063c0c53b8b11610064578063c0c53b8b146104bd578063d2cbf7ad146104dd578063de7b8ffe146104f2578063f8b2cb4f1461051257600080fd5b8063a35ff3bf1461044a578063ad3cb1cc1461046a578063bf7e214f146104a857600080fd5b80637a9e5e4b1461032a5780637d0c6d521461034a5780637ecebe001461036a57806384b0196e146103bf5780638fb36037146103e75780639c8821761461041557600080fd5b80632ee409081161013e5780634f1ef286116101185780634f1ef286146102b457806352d1902d146102c7578063567c2484146102ea57806361edd6cf1461030a57600080fd5b80632ee409081461025457806338d0743614610274578063407d10011461029457600080fd5b80630bc6b21d146101865780630e1c3a4a146101a857806311a5ac48146101da5780631d212c96146101ff578063226112801461021f57806324f45e6714610234575b600080fd5b34801561019257600080fd5b506101a66101a136600461254a565b610547565b005b3480156101b457600080fd5b506101bd610562565b6040516001600160a01b0390911681526020015b60405180910390f35b3480156101e657600080fd5b506101ef610571565b60405190151581526020016101d1565b34801561020b57600080fd5b506101a661021a366004612583565b61057c565b34801561022b57600080fd5b506101a6610592565b34801561024057600080fd5b506101a661024f3660046125a0565b6105a6565b34801561026057600080fd5b506101a661026f3660046125b9565b6105b8565b34801561028057600080fd5b506101a661028f3660046125e5565b6105cc565b3480156102a057600080fd5b506101a66102af366004612622565b6105e1565b6101a66102c236600461267b565b610602565b3480156102d357600080fd5b506102dc61061d565b6040519081526020016101d1565b3480156102f657600080fd5b506102dc610305366004612747565b61063a565b34801561031657600080fd5b506101ef610325366004612763565b610654565b34801561033657600080fd5b506101a6610345366004612763565b61065f565b34801561035657600080fd5b506101a66103653660046125b9565b6106e7565b34801561037657600080fd5b506102dc610385366004612763565b6001600160a01b031660009081527f5ab42ced628888259c08ac98db1eb0cf702fc1501344311d8b100cd1bfe4bb00602052604090205490565b3480156103cb57600080fd5b506103d4610738565b6040516101d197969594939291906127d0565b3480156103f357600080fd5b506103fc6107e4565b6040516001600160e01b031990911681526020016101d1565b34801561042157600080fd5b5061042a61081d565b604080516001600160a01b039384168152929091166020830152016101d1565b34801561045657600080fd5b506101a6610465366004612763565b610830565b34801561047657600080fd5b5061049b604051806040016040528060058152602001640352e302e360dc1b81525081565b6040516101d19190612868565b3480156104b457600080fd5b506101bd610842565b3480156104c957600080fd5b506101a66104d836600461287b565b610865565b3480156104e957600080fd5b506102dc6109ec565b3480156104fe57600080fd5b506101a661050d366004612763565b6109f6565b34801561051e57600080fd5b5061053261052d366004612763565b610a08565b604080519283526020830191909152016101d1565b610554335b600036610a43565b61055e8282610b49565b5050565b600061056c610be7565b905090565b600061056c33610bf2565b6105853361054c565b61058f3382610b49565b50565b61059b3361054c565b6105a433610c25565b565b6105af3361054c565b61058f81610df8565b6105c13361054c565b61055e338383610e80565b6105d53361054c565b61055e335b8383610fee565b6105ea3361054c565b6105f383611300565b506105fd336105da565b505050565b61060a6115c2565b61061382611667565b61055e8282611670565b600061062761172d565b50600080516020612c4a83398151915290565b60006106453361054c565b61064e82611300565b92915050565b600061064e82610bf2565b33610668610842565b6001600160a01b0316816001600160a01b0316146106a85760405162d1953b60e31b81526001600160a01b03821660048201526024015b60405180910390fd5b816001600160a01b03163b6000036106de576040516361798f2f60e11b81526001600160a01b038316600482015260240161069f565b61055e82611776565b6106f03361054c565b60006106fa6117d0565b6001600160a01b03841660009081526004808301602052604082209081018054939450909285929061072d9084906128d1565b909155505050505050565b60006060808280808381600080516020612c2a833981519152805490915015801561076557506001810154155b6107a95760405162461bcd60e51b81526020600482015260156024820152741152540dcc4c8e88155b9a5b9a5d1a585b1a5e9959605a1b604482015260640161069f565b6107b16117f4565b6107b96118b7565b60408051600080825260208201909252600f60f81b9c939b5091995046985030975095509350915050565b600080516020612c0a833981519152805460009190600160a01b900460ff1661080e576000610817565b638fb3603760e01b5b91505090565b6000806108286118f6565b915091509091565b6108393361054c565b61058f81611923565b600080600080516020612c0a8339815191525b546001600160a01b031692915050565b7ff0c57e16840df040f15088dc2f81fe391c3923bec73e23a9662efc9c229c6a008054600160401b810460ff16159067ffffffffffffffff166000811580156108ab5750825b905060008267ffffffffffffffff1660011480156108c85750303b155b9050811580156108d6575080155b156108f45760405163f92ee8a960e01b815260040160405180910390fd5b845467ffffffffffffffff19166001178555831561091e57845460ff60401b1916600160401b1785555b61092788611a0c565b61092f611a1d565b6109756040518060400160405280600b81526020016a4f736d695374616b696e6760a81b815250604051806040016040528060018152602001603160f81b815250611a25565b61097d611a1d565b61098687611a37565b61098f86611923565b61099c6309896800610df8565b83156109e257845460ff60401b19168555604051600181527fc7f505b2f371ae2175ee4913f4499e1f2633a7b5936321eed1cdaeb6115181d29060200160405180910390a15b5050505050505050565b600061056c611aa7565b6109ff3361054c565b61058f81611a37565b6000806000610a156117d0565b6001600160a01b03909416600090815260049485016020526040902093840154600690940154939492505050565b600080516020612c0a833981519152600080610a7e610a60610842565b8730610a70600460008a8c6128e4565b610a799161290e565b611abc565b9150915081610b415763ffffffff811615610b1e57825460ff60a01b1916600160a01b178355610aac610842565b6001600160a01b03166394c7d7ee8787876040518463ffffffff1660e01b8152600401610adb93929190612946565b600060405180830381600087803b158015610af557600080fd5b505af1158015610b09573d6000803e3d6000fd5b5050845460ff60a01b1916855550610b419050565b60405162d1953b60e31b81526001600160a01b038716600482015260240161069f565b505050505050565b6000610b536117d0565b6001600160a01b038416600090815260048201602052604090208054919250906001908116148315158114610be057604080516001600160a01b038716815285151560208201527fc2c5b51760cdcc9fa9f62294acb39de5174a60208e7f212db33057244dbd4286910160405180910390a18315610bd75781546001178255610be0565b81546001191682555b5050505050565b6000806108556117d0565b600080610bfd6117d0565b6001600160a01b03909316600090815260049093016020525050604090205460019081161490565b6000610c2f6117d0565b6001600160a01b038316600090815260048201602052604081206002810154929350919003610c5d57505050565b8060030154600003610c82576040516307a1cab560e11b815260040160405180910390fd5b80600201544210610ca65760405163446f38c360e11b815260040160405180910390fd5b60028082600001541603610ccd5760405163446f38c360e11b815260040160405180910390fd5b8060030154816004016000828254610ce591906128d1565b9091555060009050610cf5611bc8565b90506000610d01611c43565b90506000610d0d611c9a565b60028501546003860154604080516001600160a01b038b16815260208101939093528201529091507faa2fb342f317d8a167b825426470e8d601acab426e76f95ab6b89570157124df9060600160405180910390a160038401546040516323b872dd60e01b81526001600160a01b038516916323b872dd91610d96918591879190600401612986565b6020604051808303816000875af1158015610db5573d6000803e3d6000fd5b505050506040513d601f19601f82011682018060405250810190610dd991906129aa565b5050825460021916835550506000600282018190556003909101555050565b801580610e085750633b9aca0081115b15610e26576040516302fa196b60e61b815260040160405180910390fd5b6000610e306117d0565b905081816003015403610e41575050565b600381018290556040518281527ffe0dc6926c703f5cea6a6a7bee3d6bede2f43f0df28a572f2e5cdd1d7ba9e560906020015b60405180910390a15050565b6001600160a01b0383161580610e9d57506001600160a01b038216155b15610ebb576040516342bcdf7f60e11b815260040160405180910390fd5b80600003610edc576040516307a1cab560e11b815260040160405180910390fd5b6000610ee66117d0565b90506000610ef2611bc8565b90506000610efe611c43565b6040516323b872dd60e01b81529091506001600160a01b038316906323b872dd90610f3190899085908990600401612986565b6020604051808303816000875af1158015610f50573d6000803e3d6000fd5b505050506040513d601f19601f82011682018060405250810190610f7491906129aa565b506001600160a01b0385166000908152600480850160205260408220908101805491928792610fa49084906128d1565b90915550506040517fcbc4a4091b012bb1329c38bbbb15455f5cac5aa3673da0a7f38cd61a4f49551790610fdd90899089908990612986565b60405180910390a150505050505050565b6001600160a01b038316611015576040516342bcdf7f60e11b815260040160405180910390fd5b81600003611036576040516307a1cab560e11b815260040160405180910390fd5b60006110406117d0565b6001600160a01b0385166000908152600482016020526040902060028101549192509042101561108357604051632a290aa960e01b815260040160405180910390fd5b80600401548411156110a857604051631e9acf1760e31b815260040160405180910390fd5b838160040160008282546110bc91906129c7565b90915550600090506110cc611bc8565b905060006110d8611cf1565b905060006110e4611c43565b905060006110f0611c9a565b90506000836001600160a01b0316634dc3a3906040518163ffffffff1660e01b8152600401602060405180830381865afa158015611132573d6000803e3d6000fd5b505050506040513d601f19601f8201168201806040525081019061115691906129da565b90508088156112075760006111748b6305f5e100633b9aca00611d48565b9050611180818c6129c7565b9a5080156111eb5760405163079cc67960e41b81526001600160a01b038681166004830152602482018390528816906379cc679090604401600060405180830381600087803b1580156111d257600080fd5b505af11580156111e6573d6000803e3d6000fd5b505050505b875460021788556111ff62015180836128d1565b91505061121f565b865460021916875561121c62127500826128d1565b90505b600387018a905560028701819055604080516001600160a01b038d168152602081018390529081018b905289151560608201527fd71f8e686f6b1e03699cb0f47ce9ccd97097e71396d165c718c68d3f9e9f528f9060800160405180910390a16040516323b872dd60e01b81526001600160a01b038716906323b872dd906112af90879087908f90600401612986565b6020604051808303816000875af11580156112ce573d6000803e3d6000fd5b505050506040513d601f19601f820116820180604052508101906112f291906129aa565b505050505050505050505050565b60008061130c83611e0d565b905060006113186117d0565b90506000600482018161132e6020880188612763565b6001600160a01b03168152602080820192909252604001600090812092509061135990870187612763565b6001600160a01b031603611380576040516342bcdf7f60e11b815260040160405180910390fd5b84606001356000036113a5576040516307a1cab560e11b815260040160405180910390fd5b6006810154602086013590620143706113be83426129c7565b11156113dd576040516340d3544760e01b815260040160405180910390fd5b620143706113eb82846129c7565b101561140a576040516317e8a5cb60e01b815260040160405180910390fd5b826005015487604001351461143257604051631b5b230b60e21b815260040160405180910390fd5b60008760600135131561146257866060013583600401600082825461145791906128d1565b909155506114b39050565b600061147160608901356129f3565b9050836004015481111561149857604051631e9acf1760e31b815260040160405180910390fd5b808460040160008282546114ac91906129c7565b9091555050505b602087018035600685015560058401546000917ffee92a4b2bf970fe4999469b709f7761acf314a75b9b47332098193244f678f791906114f3908b612763565b60408051602081810195909552908101929092526001600160a01b0316606082810191909152918a013560808201529089013560a082015260c0810187905260e00160405160208183030381529060405280519060200120905061155681611f2b565b60058501557e4301fd65664192b2acc5f9aaff49e62f9bd8297f2abe710a122d758203945961158860208a018a612763565b604080516001600160a01b0390921682526060808c013560208401529082018690520160405180910390a150505060040154949350505050565b306001600160a01b037f000000000000000000000000000000000000000000000000000000000000000016148061164957507f00000000000000000000000000000000000000000000000000000000000000006001600160a01b031661163d600080516020612c4a833981519152546001600160a01b031690565b6001600160a01b031614155b156105a45760405163703e46dd60e11b815260040160405180910390fd5b61058f3361054c565b816001600160a01b03166352d1902d6040518163ffffffff1660e01b8152600401602060405180830381865afa9250505080156116ca575060408051601f3d908101601f191682019092526116c7918101906129da565b60015b6116f257604051634c9c8ce360e01b81526001600160a01b038316600482015260240161069f565b600080516020612c4a833981519152811461172357604051632a87526960e21b81526004810182905260240161069f565b6105fd8383611f58565b306001600160a01b037f000000000000000000000000000000000000000000000000000000000000000016146105a45760405163703e46dd60e11b815260040160405180910390fd5b600080516020612c0a83398151915280546001600160a01b0319166001600160a01b03831690811782556040519081527f2f658b440c35314f52658ea8a740e05b284cdc84dc9ae01e891f21b8933e7cad90602001610e74565b7fa3c4f2f291c8b2e507af98f0821c9deaec9b9fc659bd5466e3124818ea08360090565b7fa16a46d94261c7517cc8ff89f61c0ce93598e3c849801011dee649a6a557d1028054606091600080516020612c2a8339815191529161183390612a0f565b80601f016020809104026020016040519081016040528092919081815260200182805461185f90612a0f565b80156118ac5780601f10611881576101008083540402835291602001916118ac565b820191906000526020600020905b81548152906001019060200180831161188f57829003601f168201915b505050505091505090565b7fa16a46d94261c7517cc8ff89f61c0ce93598e3c849801011dee649a6a557d1038054606091600080516020612c2a8339815191529161183390612a0f565b60008060006119036117d0565b60018101546002909101546001600160a01b039182169591169350915050565b6001600160a01b0381166119795760405162461bcd60e51b815260206004820152601c60248201527f7369676e657220616464726573732063616e2774206265207a65726f00000000604482015260640161069f565b60006119836117d0565b90506001600160a01b03821660018201600001546001600160a01b0316036119a9575050565b6001810180546002830180546001600160a01b038084166001600160a01b0319928316179092559091169084169081179091556040519081527ff25410f30b55c5bf754bde6af67a578fc1fb2e1e7fa70f582112f3c430b8e23690602001610e74565b611a14611fae565b61058f81611ff7565b6105a4611fae565b611a2d611fae565b61055e8282612008565b6000611a416117d0565b80549091506001600160a01b03808416911603611a5c575050565b80546001600160a01b0319166001600160a01b03831690811782556040519081527fea68eebc69e6cf7ca402dbd8bbf63e2a5d6fcc0ab964fb9cbe0b2660c364875d90602001610e74565b600080611ab26117d0565b6003015492915050565b6040516001600160a01b03848116602483015283811660448301526001600160e01b03198316606483015260009182918291829189169060840160408051601f198184030181529181526020820180516001600160e01b031663b700961360e01b17905251611b2b9190612a43565b600060405180830381855afa9150503d8060008114611b66576040519150601f19603f3d011682016040523d82523d6000602084013e611b6b565b606091505b50915091508115611bbd576040815110611b9d5780806020019051810190611b939190612a5f565b9094509250611bbd565b6020815110611bbd5780806020019051810190611bba91906129aa565b93505b505094509492505050565b600080611bd36117d0565b80546040805163145bdf6f60e11b815290519293506001600160a01b03909116916328b7bede916004808201926020929091908290030181865afa158015611c1f573d6000803e3d6000fd5b505050506040513d601f19601f820116820180604052508101906108179190612a97565b600080611c4e6117d0565b80546040805163116518cd60e21b815290519293506001600160a01b03909116916345946334916004808201926020929091908290030181865afa158015611c1f573d6000803e3d6000fd5b600080611ca56117d0565b805460408051635af1954560e11b815290519293506001600160a01b039091169163b5e32a8a916004808201926020929091908290030181865afa158015611c1f573d6000803e3d6000fd5b600080611cfc6117d0565b8054604080516358d6b7d760e01b815290519293506001600160a01b03909116916358d6b7d7916004808201926020929091908290030181865afa158015611c1f573d6000803e3d6000fd5b6000838302816000198587098281108382030391505080600003611d7f57838281611d7557611d75612ab4565b0492505050611e06565b808411611d9f5760405163227bc15360e01b815260040160405180910390fd5b6000848688096000868103871696879004966002600389028118808a02820302808a02820302808a02820302808a02820302808a02820302808a02909103029181900381900460010186841190950394909402919094039290920491909117919091029150505b9392505050565b6000611e61611e1f6020840184612763565b6001600160a01b031660009081527f5ab42ced628888259c08ac98db1eb0cf702fc1501344311d8b100cd1bfe4bb006020526040902080546001810190915590565b905060007f955caf2b58ca53950cf5a93b776dc26810cbb07c882717ec4299f67ed5e5a6fc611e936020850185612763565b604080516020818101949094526001600160a01b039092169082015290840135606082810191909152840135608082015260a0810183905260c0016040516020818303038152906040528051906020012090506000611ef182611f2b565b90506000611f1882611f0960a0880160808901612aca565b8760a001358860c00135612069565b9050611f2381612097565b505050919050565b600061064e611f386120f4565b8360405161190160f01b8152600281019290925260228201526042902090565b611f61826120fe565b6040516001600160a01b038316907fbc7cd75a20ee27fd9adebab32041f755214dbc6bffa90cc0225b39da2e5c2d3b90600090a2805115611fa6576105fd8282612163565b61055e6121d9565b7ff0c57e16840df040f15088dc2f81fe391c3923bec73e23a9662efc9c229c6a0054600160401b900460ff166105a457604051631afcd79f60e31b815260040160405180910390fd5b611fff611fae565b61058f81611776565b612010611fae565b600080516020612c2a8339815191527fa16a46d94261c7517cc8ff89f61c0ce93598e3c849801011dee649a6a557d10261204a8482612b34565b50600381016120598382612b34565b5060008082556001909101555050565b60008060008061207b888888886121f8565b92509250925061208b82826122c7565b50909695505050505050565b60006120a16117d0565b905060018101600001546001600160a01b038381169116148015906120d6575060028101546001600160a01b03838116911614155b1561055e57604051631773e24d60e01b815260040160405180910390fd5b600061056c612380565b806001600160a01b03163b60000361213457604051634c9c8ce360e01b81526001600160a01b038216600482015260240161069f565b600080516020612c4a83398151915280546001600160a01b0319166001600160a01b0392909216919091179055565b6060600080846001600160a01b0316846040516121809190612a43565b600060405180830381855af49150503d80600081146121bb576040519150601f19603f3d011682016040523d82523d6000602084013e6121c0565b606091505b50915091506121d08583836123f4565b95945050505050565b34156105a45760405163b398979f60e01b815260040160405180910390fd5b600080807f7fffffffffffffffffffffffffffffff5d576e7357a4501ddfe92f46681b20a084111561223357506000915060039050826122bd565b604080516000808252602082018084528a905260ff891692820192909252606081018790526080810186905260019060a0016020604051602081039080840390855afa158015612287573d6000803e3d6000fd5b5050604051601f1901519150506001600160a01b0381166122b3575060009250600191508290506122bd565b9250600091508190505b9450945094915050565b60008260038111156122db576122db612bf3565b036122e4575050565b60018260038111156122f8576122f8612bf3565b036123165760405163f645eedf60e01b815260040160405180910390fd5b600282600381111561232a5761232a612bf3565b0361234b5760405163fce698f760e01b81526004810182905260240161069f565b600382600381111561235f5761235f612bf3565b0361055e576040516335e2f38360e21b81526004810182905260240161069f565b60007f8b73c3c69bb8fe3d512ecc4cf759cc79239f7b179b0ffacaa9a75d522b39400f6123ab612450565b6123b36124ba565b60408051602081019490945283019190915260608201524660808201523060a082015260c00160405160208183030381529060405280519060200120905090565b60608261240957612404826124fe565b611e06565b815115801561242057506001600160a01b0384163b155b1561244957604051639996b31560e01b81526001600160a01b038516600482015260240161069f565b5080611e06565b6000600080516020612c2a8339815191528161246a6117f4565b80519091501561248257805160209091012092915050565b81548015612491579392505050565b7fc5d2460186f7233c927e7db2dcc703c0e500b653ca82273b7bfad8045d85a470935050505090565b6000600080516020612c2a833981519152816124d46118b7565b8051909150156124ec57805160209091012092915050565b60018201548015612491579392505050565b80511561250e5780518082602001fd5b604051630a12f52160e11b815260040160405180910390fd5b6001600160a01b038116811461058f57600080fd5b801515811461058f57600080fd5b6000806040838503121561255d57600080fd5b823561256881612527565b915060208301356125788161253c565b809150509250929050565b60006020828403121561259557600080fd5b8135611e068161253c565b6000602082840312156125b257600080fd5b5035919050565b600080604083850312156125cc57600080fd5b82356125d781612527565b946020939093013593505050565b600080604083850312156125f857600080fd5b8235915060208301356125788161253c565b600060e0828403121561261c57600080fd5b50919050565b6000806000610120848603121561263857600080fd5b612642858561260a565b925060e0840135915061010084013561265a8161253c565b809150509250925092565b634e487b7160e01b600052604160045260246000fd5b6000806040838503121561268e57600080fd5b823561269981612527565b9150602083013567ffffffffffffffff8111156126b557600080fd5b8301601f810185136126c657600080fd5b803567ffffffffffffffff8111156126e0576126e0612665565b604051601f8201601f19908116603f0116810167ffffffffffffffff8111828210171561270f5761270f612665565b60405281815282820160200187101561272757600080fd5b816020840160208301376000602083830101528093505050509250929050565b600060e0828403121561275957600080fd5b611e06838361260a565b60006020828403121561277557600080fd5b8135611e0681612527565b60005b8381101561279b578181015183820152602001612783565b50506000910152565b600081518084526127bc816020860160208601612780565b601f01601f19169290920160200192915050565b60ff60f81b8816815260e0602082015260006127ef60e08301896127a4565b828103604084015261280181896127a4565b606084018890526001600160a01b038716608085015260a0840186905283810360c08501528451808252602080870193509091019060005b81811015612857578351835260209384019390920191600101612839565b50909b9a5050505050505050505050565b602081526000611e0660208301846127a4565b60008060006060848603121561289057600080fd5b833561289b81612527565b925060208401356128ab81612527565b9150604084013561265a81612527565b634e487b7160e01b600052601160045260246000fd5b8082018082111561064e5761064e6128bb565b600080858511156128f457600080fd5b8386111561290157600080fd5b5050820193919092039150565b80356001600160e01b0319811690600484101561293f576001600160e01b0319600485900360031b81901b82161691505b5092915050565b6001600160a01b03841681526040602082018190528101829052818360608301376000818301606090810191909152601f909201601f1916010192915050565b6001600160a01b039384168152919092166020820152604081019190915260600190565b6000602082840312156129bc57600080fd5b8151611e068161253c565b8181038181111561064e5761064e6128bb565b6000602082840312156129ec57600080fd5b5051919050565b6000600160ff1b8201612a0857612a086128bb565b5060000390565b600181811c90821680612a2357607f821691505b60208210810361261c57634e487b7160e01b600052602260045260246000fd5b60008251612a55818460208701612780565b9190910192915050565b60008060408385031215612a7257600080fd5b8251612a7d8161253c565b602084015190925063ffffffff8116811461257857600080fd5b600060208284031215612aa957600080fd5b8151611e0681612527565b634e487b7160e01b600052601260045260246000fd5b600060208284031215612adc57600080fd5b813560ff81168114611e0657600080fd5b601f8211156105fd57806000526020600020601f840160051c81016020851015612b145750805b601f840160051c820191505b81811015610be05760008155600101612b20565b815167ffffffffffffffff811115612b4e57612b4e612665565b612b6281612b5c8454612a0f565b84612aed565b6020601f821160018114612b965760008315612b7e5750848201515b600019600385901b1c1916600184901b178455610be0565b600084815260208120601f198516915b82811015612bc65787850151825560209485019460019092019101612ba6565b5084821015612be45786840151600019600387901b60f8161c191681555b50505050600190811b01905550565b634e487b7160e01b600052602160045260246000fdfef3177357ab46d8af007ab3fdb9af81da189e1068fefdc0073dca88a2cab40a00a16a46d94261c7517cc8ff89f61c0ce93598e3c849801011dee649a6a557d100360894a13ba1a3210667c828492db98dca3e2076cc3735a920a3ca505d382bbca2646970667358221220f71df93abd6443ca63d91f644c6e8190cbf67a165a908fb092b27603420e94d464736f6c634300081c0033",
  "linkReferences": {},
  "deployedLinkReferences": {}
}