{
  "_format": "hh-sol-artifact-1",
  "contractName": "OsmiNodeFactory",
  "sourceName": "contracts/OsmiNodeFactory.sol",
  "abi": [
    {
      "inputs": [],
      "stateMutability": "nonpayable",
      "type": "constructor"
    },
    {
      "inputs": [
        {
          "internalType": "address",
          "name": "authority",
          "type": "address"
        }
      ],
      "name": "AccessManagedInvalidAuthority",
      "type": "error"
    },
    {
      "inputs": [
        {
          "internalType": "address",
          "name": "caller",
          "type": "address"
        },
        {
          "internalType": "uint32",
          "name": "delay",
          "type": "uint32"
        }
      ],
      "name": "AccessManagedRequiredDelay",
      "type": "error"
    },
    {
      "inputs": [
        {
          "internalType": "address",
          "name": "caller",
          "type": "address"
        }
      ],
      "name": "AccessManagedUnauthorized",
      "type": "error"
    },
    {
      "inputs": [
        {
          "internalType": "address",
          "name": "target",
          "type": "address"
        }
      ],
      "name": "AddressEmptyCode",
      "type": "error"
    },
    {
      "inputs": [],
      "name": "ECDSAInvalidSignature",
      "type": "error"
    },
    {
      "inputs": [
        {
          "internalType": "uint256",
          "name": "length",
          "type": "uint256"
        }
      ],
      "name": "ECDSAInvalidSignatureLength",
      "type": "error"
    },
    {
      "inputs": [
        {
          "internalType": "bytes32",
          "name": "s",
          "type": "bytes32"
        }
      ],
      "name": "ECDSAInvalidSignatureS",
      "type": "error"
    },
    {
      "inputs": [
        {
          "internalType": "address",
          "name": "implementation",
          "type": "address"
        }
      ],
      "name": "ERC1967InvalidImplementation",
      "type": "error"
    },
    {
      "inputs": [],
      "name": "ERC1967NonPayable",
      "type": "error"
    },
    {
      "inputs": [],
      "name": "FailedInnerCall",
      "type": "error"
    },
    {
      "inputs": [
        {
          "internalType": "address",
          "name": "account",
          "type": "address"
        },
        {
          "internalType": "uint256",
          "name": "currentNonce",
          "type": "uint256"
        }
      ],
      "name": "InvalidAccountNonce",
      "type": "error"
    },
    {
      "inputs": [],
      "name": "InvalidInitialization",
      "type": "error"
    },
    {
      "inputs": [],
      "name": "NotInitializing",
      "type": "error"
    },
    {
      "inputs": [
        {
          "internalType": "uint256",
          "name": "deadline",
          "type": "uint256"
        }
      ],
      "name": "OsmiExpiredSignature",
      "type": "error"
    },
    {
      "inputs": [
        {
          "internalType": "address",
          "name": "signer",
          "type": "address"
        },
        {
          "internalType": "address",
          "name": "one",
          "type": "address"
        },
        {
          "internalType": "address",
          "name": "two",
          "type": "address"
        }
      ],
      "name": "OsmiInvalidPurchaseTicketSigner",
      "type": "error"
    },
    {
      "inputs": [
        {
          "internalType": "address",
          "name": "signer",
          "type": "address"
        },
        {
          "internalType": "address",
          "name": "owner",
          "type": "address"
        }
      ],
      "name": "OsmiInvalidSigner",
      "type": "error"
    },
    {
      "inputs": [],
      "name": "UUPSUnauthorizedCallContext",
      "type": "error"
    },
    {
      "inputs": [
        {
          "internalType": "bytes32",
          "name": "slot",
          "type": "bytes32"
        }
      ],
      "name": "UUPSUnsupportedProxiableUUID",
      "type": "error"
    },
    {
      "anonymous": false,
      "inputs": [
        {
          "indexed": false,
          "internalType": "address",
          "name": "authority",
          "type": "address"
        }
      ],
      "name": "AuthorityUpdated",
      "type": "event"
    },
    {
      "anonymous": false,
      "inputs": [],
      "name": "EIP712DomainChanged",
      "type": "event"
    },
    {
      "anonymous": false,
      "inputs": [
        {
          "indexed": false,
          "internalType": "uint64",
          "name": "version",
          "type": "uint64"
        }
      ],
      "name": "Initialized",
      "type": "event"
    },
    {
      "anonymous": false,
      "inputs": [
        {
          "indexed": false,
          "internalType": "address",
          "name": "purchaseTicketSigner",
          "type": "address"
        }
      ],
      "name": "PurchaseTicketSignerChanged",
      "type": "event"
    },
    {
      "anonymous": false,
      "inputs": [
        {
          "indexed": false,
          "internalType": "contract IOsmiToken",
          "name": "tokenContract",
          "type": "address"
        }
      ],
      "name": "TokenContractChanged",
      "type": "event"
    },
    {
      "anonymous": false,
      "inputs": [
        {
          "indexed": true,
          "internalType": "address",
          "name": "implementation",
          "type": "address"
        }
      ],
      "name": "Upgraded",
      "type": "event"
    },
    {
      "inputs": [],
      "name": "UPGRADE_INTERFACE_VERSION",
      "outputs": [
        {
          "internalType": "string",
          "name": "",
          "type": "string"
        }
      ],
      "stateMutability": "view",
      "type": "function"
    },
    {
      "inputs": [],
      "name": "authority",
      "outputs": [
        {
          "internalType": "address",
          "name": "",
          "type": "address"
        }
      ],
      "stateMutability": "view",
      "type": "function"
    },
    {
      "inputs": [
        {
          "components": [
            {
              "internalType": "address",
              "name": "signer",
              "type": "address"
            },
            {
              "internalType": "address",
              "name": "customer",
              "type": "address"
            },
            {
              "internalType": "uint256",
              "name": "price",
              "type": "uint256"
            },
            {
              "internalType": "uint256",
              "name": "deadline",
              "type": "uint256"
            },
            {
              "internalType": "uint8",
              "name": "v",
              "type": "uint8"
            },
            {
              "internalType": "bytes32",
              "name": "r",
              "type": "bytes32"
            },
            {
              "internalType": "bytes32",
              "name": "s",
              "type": "bytes32"
            }
          ],
          "internalType": "struct OsmiNodeFactory.OsmiNodePurchaseTicket",
          "name": "ticket",
          "type": "tuple"
        },
        {
          "components": [
            {
              "internalType": "address",
              "name": "owner",
              "type": "address"
            },
            {
              "internalType": "address",
              "name": "spender",
              "type": "address"
            },
            {
              "internalType": "uint256",
              "name": "value",
              "type": "uint256"
            },
            {
              "internalType": "uint256",
              "name": "deadline",
              "type": "uint256"
            },
            {
              "internalType": "uint8",
              "name": "v",
              "type": "uint8"
            },
            {
              "internalType": "bytes32",
              "name": "r",
              "type": "bytes32"
            },
            {
              "internalType": "bytes32",
              "name": "s",
              "type": "bytes32"
            }
          ],
          "internalType": "struct OsmiNodeFactory.ERC20PermitAllowance",
          "name": "allowance",
          "type": "tuple"
        }
      ],
      "name": "buyOsmiNode",
      "outputs": [
        {
          "internalType": "uint256",
          "name": "",
          "type": "uint256"
        }
      ],
      "stateMutability": "nonpayable",
      "type": "function"
    },
    {
      "inputs": [],
      "name": "eip712Domain",
      "outputs": [
        {
          "internalType": "bytes1",
          "name": "fields",
          "type": "bytes1"
        },
        {
          "internalType": "string",
          "name": "name",
          "type": "string"
        },
        {
          "internalType": "string",
          "name": "version",
          "type": "string"
        },
        {
          "internalType": "uint256",
          "name": "chainId",
          "type": "uint256"
        },
        {
          "internalType": "address",
          "name": "verifyingContract",
          "type": "address"
        },
        {
          "internalType": "bytes32",
          "name": "salt",
          "type": "bytes32"
        },
        {
          "internalType": "uint256[]",
          "name": "extensions",
          "type": "uint256[]"
        }
      ],
      "stateMutability": "view",
      "type": "function"
    },
    {
      "inputs": [],
      "name": "getPurchaseTicketSigners",
      "outputs": [
        {
          "internalType": "address",
          "name": "",
          "type": "address"
        },
        {
          "internalType": "address",
          "name": "",
          "type": "address"
        }
      ],
      "stateMutability": "view",
      "type": "function"
    },
    {
      "inputs": [
        {
          "internalType": "address",
          "name": "initialAuthority",
          "type": "address"
        },
        {
          "internalType": "address",
          "name": "tokenContract",
          "type": "address"
        },
        {
          "internalType": "address",
          "name": "purchaseTicketSigner",
          "type": "address"
        }
      ],
      "name": "initialize",
      "outputs": [],
      "stateMutability": "nonpayable",
      "type": "function"
    },
    {
      "inputs": [],
      "name": "isConsumingScheduledOp",
      "outputs": [
        {
          "internalType": "bytes4",
          "name": "",
          "type": "bytes4"
        }
      ],
      "stateMutability": "view",
      "type": "function"
    },
    {
      "inputs": [
        {
          "internalType": "address",
          "name": "owner",
          "type": "address"
        }
      ],
      "name": "nonces",
      "outputs": [
        {
          "internalType": "uint256",
          "name": "",
          "type": "uint256"
        }
      ],
      "stateMutability": "view",
      "type": "function"
    },
    {
      "inputs": [],
      "name": "proxiableUUID",
      "outputs": [
        {
          "internalType": "bytes32",
          "name": "",
          "type": "bytes32"
        }
      ],
      "stateMutability": "view",
      "type": "function"
    },
    {
      "inputs": [
        {
          "internalType": "address",
          "name": "newAuthority",
          "type": "address"
        }
      ],
      "name": "setAuthority",
      "outputs": [],
      "stateMutability": "nonpayable",
      "type": "function"
    },
    {
      "inputs": [
        {
          "internalType": "address",
          "name": "purchaseTicketSigner",
          "type": "address"
        }
      ],
      "name": "setPurchaseTicketSigner",
      "outputs": [],
      "stateMutability": "nonpayable",
      "type": "function"
    },
    {
      "inputs": [
        {
          "internalType": "address",
          "name": "tokenContract",
          "type": "address"
        }
      ],
      "name": "setTokenContract",
      "outputs": [],
      "stateMutability": "nonpayable",
      "type": "function"
    },
    {
      "inputs": [
        {
          "internalType": "address",
          "name": "newImplementation",
          "type": "address"
        },
        {
          "internalType": "bytes",
          "name": "data",
          "type": "bytes"
        }
      ],
      "name": "upgradeToAndCall",
      "outputs": [],
      "stateMutability": "payable",
      "type": "function"
    }
  ],
  "bytecode": "0x60a06040523060805234801561001457600080fd5b5061001d610022565b6100d4565b7ff0c57e16840df040f15088dc2f81fe391c3923bec73e23a9662efc9c229c6a00805468010000000000000000900460ff16156100725760405163f92ee8a960e01b815260040160405180910390fd5b80546001600160401b03908116146100d15780546001600160401b0319166001600160401b0390811782556040519081527fc7f505b2f371ae2175ee4913f4499e1f2633a7b5936321eed1cdaeb6115181d29060200160405180910390a15b50565b608051611ed76100fd600039600081816106c2015281816106eb01526108340152611ed76000f3fe6080604052600436106100c25760003560e01c806384b0196e1161007f578063ad3cb1cc11610059578063ad3cb1cc14610280578063bbcd5bbe146102be578063bf7e214f146102de578063c0c53b8b1461030b57600080fd5b806384b0196e1461020a5780638fb36037146102325780639756093b1461026057600080fd5b80634f1ef286146100c757806352d1902d146100dc57806355e75862146101045780637a9e5e4b146101755780637c3ec460146101955780637ecebe00146101b5575b600080fd5b6100da6100d53660046118d3565b61032b565b005b3480156100e857600080fd5b506100f161034a565b6040519081526020015b60405180910390f35b34801561011057600080fd5b507f0fcd9c378940f300c1be3c1a4577c232db834454ea38358b32a770dd9ba76902547f0fcd9c378940f300c1be3c1a4577c232db834454ea38358b32a770dd9ba7690354604080516001600160a01b039384168152929091166020830152016100fb565b34801561018157600080fd5b506100da61019036600461199d565b610367565b3480156101a157600080fd5b506100f16101b03660046119d0565b6103ef565b3480156101c157600080fd5b506100f16101d036600461199d565b6001600160a01b031660009081527f5ab42ced628888259c08ac98db1eb0cf702fc1501344311d8b100cd1bfe4bb00602052604090205490565b34801561021657600080fd5b5061021f610411565b6040516100fb9796959493929190611a56565b34801561023e57600080fd5b506102476104bd565b6040516001600160e01b031990911681526020016100fb565b34801561026c57600080fd5b506100da61027b36600461199d565b6104f6565b34801561028c57600080fd5b506102b1604051806040016040528060058152602001640352e302e360dc1b81525081565b6040516100fb9190611aee565b3480156102ca57600080fd5b506100da6102d936600461199d565b61050b565b3480156102ea57600080fd5b506102f361051d565b6040516001600160a01b0390911681526020016100fb565b34801561031757600080fd5b506100da610326366004611b01565b610539565b6103336106b7565b61033c8261075e565b6103468282610767565b5050565b6000610354610829565b50600080516020611e6283398151915290565b3361037061051d565b6001600160a01b0316816001600160a01b0316146103b05760405162d1953b60e31b81526001600160a01b03821660048201526024015b60405180910390fd5b816001600160a01b03163b6000036103e6576040516361798f2f60e11b81526001600160a01b03831660048201526024016103a7565b61034682610872565b60006103fe335b6000366108d4565b61040883836109da565b90505b92915050565b60006060808280808381600080516020611e42833981519152805490915015801561043e57506001810154155b6104825760405162461bcd60e51b81526020600482015260156024820152741152540dcc4c8e88155b9a5b9a5d1a585b1a5e9959605a1b60448201526064016103a7565b61048a610d01565b610492610dc4565b60408051600080825260208201909252600f60f81b9c939b5091995046985030975095509350915050565b600080516020611e22833981519152805460009190600160a01b900460ff166104e75760006104f0565b638fb3603760e01b5b91505090565b6104ff336103f6565b61050881610e03565b50565b610514336103f6565b61050881610f04565b600080516020611e22833981519152546001600160a01b031690565b7ff0c57e16840df040f15088dc2f81fe391c3923bec73e23a9662efc9c229c6a008054600160401b810460ff16159067ffffffffffffffff1660008115801561057f5750825b905060008267ffffffffffffffff16600114801561059c5750303b155b9050811580156105aa575080155b156105c85760405163f92ee8a960e01b815260040160405180910390fd5b845467ffffffffffffffff1916600117855583156105f257845460ff60401b1916600160401b1785555b6105fb88610fcc565b610603610fdd565b61060b610fdd565b6106556040518060400160405280600f81526020016e4f736d694e6f6465466163746f727960881b815250604051806040016040528060018152602001603160f81b815250610fe5565b61065e87610f04565b61066786610e03565b83156106ad57845460ff60401b19168555604051600181527fc7f505b2f371ae2175ee4913f4499e1f2633a7b5936321eed1cdaeb6115181d29060200160405180910390a15b5050505050505050565b306001600160a01b037f000000000000000000000000000000000000000000000000000000000000000016148061073e57507f00000000000000000000000000000000000000000000000000000000000000006001600160a01b0316610732600080516020611e62833981519152546001600160a01b031690565b6001600160a01b031614155b1561075c5760405163703e46dd60e11b815260040160405180910390fd5b565b610508336103f6565b816001600160a01b03166352d1902d6040518163ffffffff1660e01b8152600401602060405180830381865afa9250505080156107c1575060408051601f3d908101601f191682019092526107be91810190611b44565b60015b6107e957604051634c9c8ce360e01b81526001600160a01b03831660048201526024016103a7565b600080516020611e62833981519152811461081a57604051632a87526960e21b8152600481018290526024016103a7565b6108248383610ff7565b505050565b306001600160a01b037f0000000000000000000000000000000000000000000000000000000000000000161461075c5760405163703e46dd60e11b815260040160405180910390fd5b600080516020611e2283398151915280546001600160a01b0319166001600160a01b03831690811782556040519081527f2f658b440c35314f52658ea8a740e05b284cdc84dc9ae01e891f21b8933e7cad906020015b60405180910390a15050565b600080516020611e2283398151915260008061090f6108f161051d565b8730610901600460008a8c611b5d565b61090a91611b87565b61104d565b91509150816109d25763ffffffff8116156109af57825460ff60a01b1916600160a01b17835561093d61051d565b6001600160a01b03166394c7d7ee8787876040518463ffffffff1660e01b815260040161096c93929190611bbf565b600060405180830381600087803b15801561098657600080fd5b505af115801561099a573d6000803e3d6000fd5b5050845460ff60a01b19168555506109d29050565b60405162d1953b60e31b81526001600160a01b03871660048201526024016103a7565b505050505050565b6000306109ed604084016020850161199d565b6001600160a01b031614610a4d5760405162461bcd60e51b815260206004820152602160248201527f74686973206973206e6f742074686520616c6c6f77616e6365207370656e64656044820152603960f91b60648201526084016103a7565b600080516020611e82833981519152610aa5610a6c602086018661199d565b610a7c604087016020880161199d565b60408701356060880135610a9660a08a0160808b01611bff565b8960a001358a60c00135611159565b80546001600160a01b031663d505accf610ac2602086018661199d565b610ad2604087016020880161199d565b60408701356060880135610aec60a08a0160808b01611bff565b6040516001600160e01b031960e088901b1681526001600160a01b0395861660048201529490931660248501526044840191909152606483015260ff16608482015260a086013560a482015260c086013560c482015260e401600060405180830381600087803b158015610b5f57600080fd5b505af1158015610b73573d6000803e3d6000fd5b505082546001600160a01b031691506379cc67909050610b96602086018661199d565b604080516001600160e01b031960e085901b1681526001600160a01b0390921660048301528601356024820152604401600060405180830381600087803b158015610be057600080fd5b505af1158015610bf4573d6000803e3d6000fd5b5050505060018101546001600160a01b03166340d097c3610c1b604087016020880161199d565b6040516001600160e01b031960e084901b1681526001600160a01b039091166004820152602401600060405180830381600087803b158015610c5c57600080fd5b505af1158015610c70573d6000803e3d6000fd5b5050505060018160010160009054906101000a90046001600160a01b03166001600160a01b031663c4e41b226040518163ffffffff1660e01b8152600401602060405180830381865afa158015610ccb573d6000803e3d6000fd5b505050506040513d601f19601f82011682018060405250810190610cef9190611b44565b610cf99190611c22565b949350505050565b7fa16a46d94261c7517cc8ff89f61c0ce93598e3c849801011dee649a6a557d1028054606091600080516020611e4283398151915291610d4090611c43565b80601f0160208091040260200160405190810160405280929190818152602001828054610d6c90611c43565b8015610db95780601f10610d8e57610100808354040283529160200191610db9565b820191906000526020600020905b815481529060010190602001808311610d9c57829003601f168201915b505050505091505090565b7fa16a46d94261c7517cc8ff89f61c0ce93598e3c849801011dee649a6a557d1038054606091600080516020611e4283398151915291610d4090611c43565b6001600160a01b038116610e595760405162461bcd60e51b815260206004820152601c60248201527f7369676e657220616464726573732063616e2774206265207a65726f0000000060448201526064016103a7565b7f0fcd9c378940f300c1be3c1a4577c232db834454ea38358b32a770dd9ba7690254600080516020611e82833981519152906001600160a01b03838116911603610ea1575050565b6002810180546003830180546001600160a01b038084166001600160a01b0319928316179092559091169084169081179091556040519081527f414f73849b7d25ff8a60e2974ac66a3b58dceb2d1182008999f211b587e98443906020016108c8565b6001600160a01b038116610f5a5760405162461bcd60e51b815260206004820152601c60248201527f746f6b656e20636f6e74726163742063616e2774206265207a65726f0000000060448201526064016103a7565b600080516020611e8283398151915280546001600160a01b03838116911603610f81575050565b80546001600160a01b0319166001600160a01b03831690811782556040519081527fe89f98a27789c8313baa22de83cdb921b7026d66af0ee02973c97d45f952b6be906020016108c8565b610fd46112b0565b610508816112f9565b61075c6112b0565b610fed6112b0565b610346828261130a565b6110008261136b565b6040516001600160a01b038316907fbc7cd75a20ee27fd9adebab32041f755214dbc6bffa90cc0225b39da2e5c2d3b90600090a28051156110455761082482826113d0565b610346611446565b6040516001600160a01b03848116602483015283811660448301526001600160e01b03198316606483015260009182918291829189169060840160408051601f198184030181529181526020820180516001600160e01b031663b700961360e01b179052516110bc9190611c77565b600060405180830381855afa9150503d80600081146110f7576040519150601f19603f3d011682016040523d82523d6000602084013e6110fc565b606091505b5091509150811561114e57604081511061112e57808060200190518101906111249190611ca3565b909450925061114e565b602081511061114e578080602001905181019061114b9190611ce3565b93505b505094509492505050565b8342111561117d576040516385adb5bf60e01b8152600481018590526024016103a7565b61118687611465565b60007f22b243b9e892e4ec10765520a4aebdca1d6d1a2400618d8821204f32e2883e658888886111f28b6001600160a01b031660009081527f5ab42ced628888259c08ac98db1eb0cf702fc1501344311d8b100cd1bfe4bb006020526040902080546001810190915590565b6040805160208101969096526001600160a01b0394851690860152929091166060840152608083015260a082015260c0810186905260e001604051602081830303815290604052805190602001209050600061124d82611505565b9050600061125d82878787611532565b9050896001600160a01b0316816001600160a01b0316146112a45760405163702bc30560e11b81526001600160a01b0380831660048301528b1660248201526044016103a7565b50505050505050505050565b7ff0c57e16840df040f15088dc2f81fe391c3923bec73e23a9662efc9c229c6a0054600160401b900460ff1661075c57604051631afcd79f60e31b815260040160405180910390fd5b6113016112b0565b61050881610872565b6113126112b0565b600080516020611e428339815191527fa16a46d94261c7517cc8ff89f61c0ce93598e3c849801011dee649a6a557d10261134c8482611d4c565b506003810161135b8382611d4c565b5060008082556001909101555050565b806001600160a01b03163b6000036113a157604051634c9c8ce360e01b81526001600160a01b03821660048201526024016103a7565b600080516020611e6283398151915280546001600160a01b0319166001600160a01b0392909216919091179055565b6060600080846001600160a01b0316846040516113ed9190611c77565b600060405180830381855af49150503d8060008114611428576040519150601f19603f3d011682016040523d82523d6000602084013e61142d565b606091505b509150915061143d858383611560565b95945050505050565b341561075c5760405163b398979f60e01b815260040160405180910390fd5b7f0fcd9c378940f300c1be3c1a4577c232db834454ea38358b32a770dd9ba7690254600080516020611e82833981519152906001600160a01b038381169116148015906114c2575060038101546001600160a01b03838116911614155b156103465760028101546003820154604051634780ba1160e11b81526001600160a01b0380861660048301529283166024820152911660448201526064016103a7565b600061040b6115126115bf565b8360405161190160f01b8152600281019290925260228201526042902090565b600080600080611544888888886115ce565b925092509250611554828261169d565b50909695505050505050565b6060826115755761157082611756565b6115b8565b815115801561158c57506001600160a01b0384163b155b156115b557604051639996b31560e01b81526001600160a01b03851660048201526024016103a7565b50805b9392505050565b60006115c961177f565b905090565b600080807f7fffffffffffffffffffffffffffffff5d576e7357a4501ddfe92f46681b20a08411156116095750600091506003905082611693565b604080516000808252602082018084528a905260ff891692820192909252606081018790526080810186905260019060a0016020604051602081039080840390855afa15801561165d573d6000803e3d6000fd5b5050604051601f1901519150506001600160a01b03811661168957506000925060019150829050611693565b9250600091508190505b9450945094915050565b60008260038111156116b1576116b1611e0b565b036116ba575050565b60018260038111156116ce576116ce611e0b565b036116ec5760405163f645eedf60e01b815260040160405180910390fd5b600282600381111561170057611700611e0b565b036117215760405163fce698f760e01b8152600481018290526024016103a7565b600382600381111561173557611735611e0b565b03610346576040516335e2f38360e21b8152600481018290526024016103a7565b8051156117665780518082602001fd5b604051630a12f52160e11b815260040160405180910390fd5b60007f8b73c3c69bb8fe3d512ecc4cf759cc79239f7b179b0ffacaa9a75d522b39400f6117aa6117f3565b6117b261185d565b60408051602081019490945283019190915260608201524660808201523060a082015260c00160405160208183030381529060405280519060200120905090565b6000600080516020611e428339815191528161180d610d01565b80519091501561182557805160209091012092915050565b81548015611834579392505050565b7fc5d2460186f7233c927e7db2dcc703c0e500b653ca82273b7bfad8045d85a470935050505090565b6000600080516020611e4283398151915281611877610dc4565b80519091501561188f57805160209091012092915050565b60018201548015611834579392505050565b80356001600160a01b03811681146118b857600080fd5b919050565b634e487b7160e01b600052604160045260246000fd5b600080604083850312156118e657600080fd5b6118ef836118a1565b9150602083013567ffffffffffffffff81111561190b57600080fd5b8301601f8101851361191c57600080fd5b803567ffffffffffffffff811115611936576119366118bd565b604051601f8201601f19908116603f0116810167ffffffffffffffff81118282101715611965576119656118bd565b60405281815282820160200187101561197d57600080fd5b816020840160208301376000602083830101528093505050509250929050565b6000602082840312156119af57600080fd5b610408826118a1565b600060e082840312156119ca57600080fd5b50919050565b6000806101c083850312156119e457600080fd5b6119ee84846119b8565b91506119fd8460e085016119b8565b90509250929050565b60005b83811015611a21578181015183820152602001611a09565b50506000910152565b60008151808452611a42816020860160208601611a06565b601f01601f19169290920160200192915050565b60ff60f81b8816815260e060208201526000611a7560e0830189611a2a565b8281036040840152611a878189611a2a565b606084018890526001600160a01b038716608085015260a0840186905283810360c08501528451808252602080870193509091019060005b81811015611add578351835260209384019390920191600101611abf565b50909b9a5050505050505050505050565b6020815260006104086020830184611a2a565b600080600060608486031215611b1657600080fd5b611b1f846118a1565b9250611b2d602085016118a1565b9150611b3b604085016118a1565b90509250925092565b600060208284031215611b5657600080fd5b5051919050565b60008085851115611b6d57600080fd5b83861115611b7a57600080fd5b5050820193919092039150565b80356001600160e01b03198116906004841015611bb8576001600160e01b0319600485900360031b81901b82161691505b5092915050565b6001600160a01b03841681526040602082018190528101829052818360608301376000818301606090810191909152601f909201601f1916010192915050565b600060208284031215611c1157600080fd5b813560ff811681146115b857600080fd5b8181038181111561040b57634e487b7160e01b600052601160045260246000fd5b600181811c90821680611c5757607f821691505b6020821081036119ca57634e487b7160e01b600052602260045260246000fd5b60008251611c89818460208701611a06565b9190910192915050565b805180151581146118b857600080fd5b60008060408385031215611cb657600080fd5b611cbf83611c93565b9150602083015163ffffffff81168114611cd857600080fd5b809150509250929050565b600060208284031215611cf557600080fd5b61040882611c93565b601f82111561082457806000526020600020601f840160051c81016020851015611d255750805b601f840160051c820191505b81811015611d455760008155600101611d31565b5050505050565b815167ffffffffffffffff811115611d6657611d666118bd565b611d7a81611d748454611c43565b84611cfe565b6020601f821160018114611dae5760008315611d965750848201515b600019600385901b1c1916600184901b178455611d45565b600084815260208120601f198516915b82811015611dde5787850151825560209485019460019092019101611dbe565b5084821015611dfc5786840151600019600387901b60f8161c191681555b50505050600190811b01905550565b634e487b7160e01b600052602160045260246000fdfef3177357ab46d8af007ab3fdb9af81da189e1068fefdc0073dca88a2cab40a00a16a46d94261c7517cc8ff89f61c0ce93598e3c849801011dee649a6a557d100360894a13ba1a3210667c828492db98dca3e2076cc3735a920a3ca505d382bbc0fcd9c378940f300c1be3c1a4577c232db834454ea38358b32a770dd9ba76900a2646970667358221220300d235b834c9c1793fc99c93f0f365631499958f2389e7dea2c7a053f472b7a64736f6c634300081c0033",
  "linkReferences": {},
  "deployedLinkReferences": {}
}