{
  "_format": "hh-sol-artifact-1",
  "contractName": "OsmiNode",
  "sourceName": "contracts/OsmiNode.sol",
  "abi": [
    {
      "inputs": [],
      "stateMutability": "nonpayable",
      "type": "constructor"
    },
    {
      "inputs": [
        {
          "internalType": "address",
          "name": "authority",
          "type": "address"
        }
      ],
      "name": "AccessManagedInvalidAuthority",
      "type": "error"
    },
    {
      "inputs": [
        {
          "internalType": "address",
          "name": "caller",
          "type": "address"
        },
        {
          "internalType": "uint32",
          "name": "delay",
          "type": "uint32"
        }
      ],
      "name": "AccessManagedRequiredDelay",
      "type": "error"
    },
    {
      "inputs": [
        {
          "internalType": "address",
          "name": "caller",
          "type": "address"
        }
      ],
      "name": "AccessManagedUnauthorized",
      "type": "error"
    },
    {
      "inputs": [
        {
          "internalType": "address",
          "name": "target",
          "type": "address"
        }
      ],
      "name": "AddressEmptyCode",
      "type": "error"
    },
    {
      "inputs": [
        {
          "internalType": "address",
          "name": "implementation",
          "type": "address"
        }
      ],
      "name": "ERC1967InvalidImplementation",
      "type": "error"
    },
    {
      "inputs": [],
      "name": "ERC1967NonPayable",
      "type": "error"
    },
    {
      "inputs": [
        {
          "internalType": "address",
          "name": "sender",
          "type": "address"
        },
        {
          "internalType": "uint256",
          "name": "tokenId",
          "type": "uint256"
        },
        {
          "internalType": "address",
          "name": "owner",
          "type": "address"
        }
      ],
      "name": "ERC721IncorrectOwner",
      "type": "error"
    },
    {
      "inputs": [
        {
          "internalType": "address",
          "name": "operator",
          "type": "address"
        },
        {
          "internalType": "uint256",
          "name": "tokenId",
          "type": "uint256"
        }
      ],
      "name": "ERC721InsufficientApproval",
      "type": "error"
    },
    {
      "inputs": [
        {
          "internalType": "address",
          "name": "approver",
          "type": "address"
        }
      ],
      "name": "ERC721InvalidApprover",
      "type": "error"
    },
    {
      "inputs": [
        {
          "internalType": "address",
          "name": "operator",
          "type": "address"
        }
      ],
      "name": "ERC721InvalidOperator",
      "type": "error"
    },
    {
      "inputs": [
        {
          "internalType": "address",
          "name": "owner",
          "type": "address"
        }
      ],
      "name": "ERC721InvalidOwner",
      "type": "error"
    },
    {
      "inputs": [
        {
          "internalType": "address",
          "name": "receiver",
          "type": "address"
        }
      ],
      "name": "ERC721InvalidReceiver",
      "type": "error"
    },
    {
      "inputs": [
        {
          "internalType": "address",
          "name": "sender",
          "type": "address"
        }
      ],
      "name": "ERC721InvalidSender",
      "type": "error"
    },
    {
      "inputs": [
        {
          "internalType": "uint256",
          "name": "tokenId",
          "type": "uint256"
        }
      ],
      "name": "ERC721NonexistentToken",
      "type": "error"
    },
    {
      "inputs": [],
      "name": "FailedInnerCall",
      "type": "error"
    },
    {
      "inputs": [],
      "name": "InvalidInitialization",
      "type": "error"
    },
    {
      "inputs": [],
      "name": "NotInitializing",
      "type": "error"
    },
    {
      "inputs": [
        {
          "internalType": "uint256",
          "name": "tokenId",
          "type": "uint256"
        },
        {
          "internalType": "uint256",
          "name": "lockedUntil",
          "type": "uint256"
        }
      ],
      "name": "OsmiNodeTransferLocked",
      "type": "error"
    },
    {
      "inputs": [],
      "name": "UUPSUnauthorizedCallContext",
      "type": "error"
    },
    {
      "inputs": [
        {
          "internalType": "bytes32",
          "name": "slot",
          "type": "bytes32"
        }
      ],
      "name": "UUPSUnsupportedProxiableUUID",
      "type": "error"
    },
    {
      "anonymous": false,
      "inputs": [
        {
          "indexed": true,
          "internalType": "address",
          "name": "owner",
          "type": "address"
        },
        {
          "indexed": true,
          "internalType": "address",
          "name": "approved",
          "type": "address"
        },
        {
          "indexed": true,
          "internalType": "uint256",
          "name": "tokenId",
          "type": "uint256"
        }
      ],
      "name": "Approval",
      "type": "event"
    },
    {
      "anonymous": false,
      "inputs": [
        {
          "indexed": true,
          "internalType": "address",
          "name": "owner",
          "type": "address"
        },
        {
          "indexed": true,
          "internalType": "address",
          "name": "operator",
          "type": "address"
        },
        {
          "indexed": false,
          "internalType": "bool",
          "name": "approved",
          "type": "bool"
        }
      ],
      "name": "ApprovalForAll",
      "type": "event"
    },
    {
      "anonymous": false,
      "inputs": [
        {
          "indexed": false,
          "internalType": "address",
          "name": "authority",
          "type": "address"
        }
      ],
      "name": "AuthorityUpdated",
      "type": "event"
    },
    {
      "anonymous": false,
      "inputs": [
        {
          "indexed": false,
          "internalType": "uint64",
          "name": "version",
          "type": "uint64"
        }
      ],
      "name": "Initialized",
      "type": "event"
    },
    {
      "anonymous": false,
      "inputs": [
        {
          "indexed": false,
          "internalType": "uint256",
          "name": "tokenId",
          "type": "uint256"
        },
        {
          "indexed": false,
          "internalType": "uint256",
          "name": "lockedUntil",
          "type": "uint256"
        }
      ],
      "name": "OsmiNodeTransferLockUpdated",
      "type": "event"
    },
    {
      "anonymous": false,
      "inputs": [
        {
          "indexed": true,
          "internalType": "address",
          "name": "from",
          "type": "address"
        },
        {
          "indexed": true,
          "internalType": "address",
          "name": "to",
          "type": "address"
        },
        {
          "indexed": true,
          "internalType": "uint256",
          "name": "tokenId",
          "type": "uint256"
        }
      ],
      "name": "Transfer",
      "type": "event"
    },
    {
      "anonymous": false,
      "inputs": [
        {
          "indexed": true,
          "internalType": "address",
          "name": "implementation",
          "type": "address"
        }
      ],
      "name": "Upgraded",
      "type": "event"
    },
    {
      "inputs": [],
      "name": "InitialTransferLockDurationOnMint",
      "outputs": [
        {
          "internalType": "uint256",
          "name": "",
          "type": "uint256"
        }
      ],
      "stateMutability": "view",
      "type": "function"
    },
    {
      "inputs": [],
      "name": "UPGRADE_INTERFACE_VERSION",
      "outputs": [
        {
          "internalType": "string",
          "name": "",
          "type": "string"
        }
      ],
      "stateMutability": "view",
      "type": "function"
    },
    {
      "inputs": [
        {
          "internalType": "address",
          "name": "to",
          "type": "address"
        },
        {
          "internalType": "uint256",
          "name": "tokenId",
          "type": "uint256"
        }
      ],
      "name": "approve",
      "outputs": [],
      "stateMutability": "nonpayable",
      "type": "function"
    },
    {
      "inputs": [],
      "name": "authority",
      "outputs": [
        {
          "internalType": "address",
          "name": "",
          "type": "address"
        }
      ],
      "stateMutability": "view",
      "type": "function"
    },
    {
      "inputs": [
        {
          "internalType": "address",
          "name": "owner",
          "type": "address"
        }
      ],
      "name": "balanceOf",
      "outputs": [
        {
          "internalType": "uint256",
          "name": "",
          "type": "uint256"
        }
      ],
      "stateMutability": "view",
      "type": "function"
    },
    {
      "inputs": [
        {
          "internalType": "uint256",
          "name": "tokenId",
          "type": "uint256"
        }
      ],
      "name": "getApproved",
      "outputs": [
        {
          "internalType": "address",
          "name": "",
          "type": "address"
        }
      ],
      "stateMutability": "view",
      "type": "function"
    },
    {
      "inputs": [],
      "name": "getTotalSupply",
      "outputs": [
        {
          "internalType": "uint256",
          "name": "",
          "type": "uint256"
        }
      ],
      "stateMutability": "view",
      "type": "function"
    },
    {
      "inputs": [
        {
          "internalType": "uint256",
          "name": "tokenId",
          "type": "uint256"
        }
      ],
      "name": "getTransferLockedUntil",
      "outputs": [
        {
          "internalType": "uint256",
          "name": "",
          "type": "uint256"
        }
      ],
      "stateMutability": "view",
      "type": "function"
    },
    {
      "inputs": [
        {
          "internalType": "address",
          "name": "initialAuthority",
          "type": "address"
        }
      ],
      "name": "initialize",
      "outputs": [],
      "stateMutability": "nonpayable",
      "type": "function"
    },
    {
      "inputs": [
        {
          "internalType": "address",
          "name": "owner",
          "type": "address"
        },
        {
          "internalType": "address",
          "name": "operator",
          "type": "address"
        }
      ],
      "name": "isApprovedForAll",
      "outputs": [
        {
          "internalType": "bool",
          "name": "",
          "type": "bool"
        }
      ],
      "stateMutability": "view",
      "type": "function"
    },
    {
      "inputs": [],
      "name": "isConsumingScheduledOp",
      "outputs": [
        {
          "internalType": "bytes4",
          "name": "",
          "type": "bytes4"
        }
      ],
      "stateMutability": "view",
      "type": "function"
    },
    {
      "inputs": [
        {
          "internalType": "uint256",
          "name": "tokenId",
          "type": "uint256"
        }
      ],
      "name": "isTransferLocked",
      "outputs": [
        {
          "internalType": "bool",
          "name": "",
          "type": "bool"
        },
        {
          "internalType": "uint256",
          "name": "",
          "type": "uint256"
        }
      ],
      "stateMutability": "view",
      "type": "function"
    },
    {
      "inputs": [],
      "name": "name",
      "outputs": [
        {
          "internalType": "string",
          "name": "",
          "type": "string"
        }
      ],
      "stateMutability": "view",
      "type": "function"
    },
    {
      "inputs": [
        {
          "internalType": "uint256",
          "name": "tokenId",
          "type": "uint256"
        }
      ],
      "name": "ownerOf",
      "outputs": [
        {
          "internalType": "address",
          "name": "",
          "type": "address"
        }
      ],
      "stateMutability": "view",
      "type": "function"
    },
    {
      "inputs": [],
      "name": "proxiableUUID",
      "outputs": [
        {
          "internalType": "bytes32",
          "name": "",
          "type": "bytes32"
        }
      ],
      "stateMutability": "view",
      "type": "function"
    },
    {
      "inputs": [
        {
          "internalType": "address",
          "name": "to",
          "type": "address"
        }
      ],
      "name": "safeMint",
      "outputs": [],
      "stateMutability": "nonpayable",
      "type": "function"
    },
    {
      "inputs": [
        {
          "internalType": "address",
          "name": "from",
          "type": "address"
        },
        {
          "internalType": "address",
          "name": "to",
          "type": "address"
        },
        {
          "internalType": "uint256",
          "name": "tokenId",
          "type": "uint256"
        }
      ],
      "name": "safeTransferFrom",
      "outputs": [],
      "stateMutability": "nonpayable",
      "type": "function"
    },
    {
      "inputs": [
        {
          "internalType": "address",
          "name": "from",
          "type": "address"
        },
        {
          "internalType": "address",
          "name": "to",
          "type": "address"
        },
        {
          "internalType": "uint256",
          "name": "tokenId",
          "type": "uint256"
        },
        {
          "internalType": "bytes",
          "name": "data",
          "type": "bytes"
        }
      ],
      "name": "safeTransferFrom",
      "outputs": [],
      "stateMutability": "nonpayable",
      "type": "function"
    },
    {
      "inputs": [
        {
          "internalType": "address",
          "name": "operator",
          "type": "address"
        },
        {
          "internalType": "bool",
          "name": "approved",
          "type": "bool"
        }
      ],
      "name": "setApprovalForAll",
      "outputs": [],
      "stateMutability": "nonpayable",
      "type": "function"
    },
    {
      "inputs": [
        {
          "internalType": "address",
          "name": "newAuthority",
          "type": "address"
        }
      ],
      "name": "setAuthority",
      "outputs": [],
      "stateMutability": "nonpayable",
      "type": "function"
    },
    {
      "inputs": [
        {
          "internalType": "uint256",
          "name": "duration",
          "type": "uint256"
        }
      ],
      "name": "setTransferLockDurationOnMint",
      "outputs": [],
      "stateMutability": "nonpayable",
      "type": "function"
    },
    {
      "inputs": [
        {
          "internalType": "uint256",
          "name": "tokenId",
          "type": "uint256"
        },
        {
          "internalType": "uint256",
          "name": "lockedUntil",
          "type": "uint256"
        }
      ],
      "name": "setTransferLockedUntil",
      "outputs": [],
      "stateMutability": "nonpayable",
      "type": "function"
    },
    {
      "inputs": [
        {
          "internalType": "bytes4",
          "name": "interfaceId",
          "type": "bytes4"
        }
      ],
      "name": "supportsInterface",
      "outputs": [
        {
          "internalType": "bool",
          "name": "",
          "type": "bool"
        }
      ],
      "stateMutability": "view",
      "type": "function"
    },
    {
      "inputs": [],
      "name": "symbol",
      "outputs": [
        {
          "internalType": "string",
          "name": "",
          "type": "string"
        }
      ],
      "stateMutability": "view",
      "type": "function"
    },
    {
      "inputs": [
        {
          "internalType": "uint256",
          "name": "tokenId",
          "type": "uint256"
        }
      ],
      "name": "tokenURI",
      "outputs": [
        {
          "internalType": "string",
          "name": "",
          "type": "string"
        }
      ],
      "stateMutability": "view",
      "type": "function"
    },
    {
      "inputs": [
        {
          "internalType": "address",
          "name": "from",
          "type": "address"
        },
        {
          "internalType": "address",
          "name": "to",
          "type": "address"
        },
        {
          "internalType": "uint256",
          "name": "tokenId",
          "type": "uint256"
        }
      ],
      "name": "transferFrom",
      "outputs": [],
      "stateMutability": "nonpayable",
      "type": "function"
    },
    {
      "inputs": [
        {
          "internalType": "address",
          "name": "newImplementation",
          "type": "address"
        },
        {
          "internalType": "bytes",
          "name": "data",
          "type": "bytes"
        }
      ],
      "name": "upgradeToAndCall",
      "outputs": [],
      "stateMutability": "payable",
      "type": "function"
    }
  ],
  "bytecode": "0x60a06040523060805234801561001457600080fd5b5061001d610022565b6100d4565b7ff0c57e16840df040f15088dc2f81fe391c3923bec73e23a9662efc9c229c6a00805468010000000000000000900460ff16156100725760405163f92ee8a960e01b815260040160405180910390fd5b80546001600160401b03908116146100d15780546001600160401b0319166001600160401b0390811782556040519081527fc7f505b2f371ae2175ee4913f4499e1f2633a7b5936321eed1cdaeb6115181d29060200160405180910390a15b50565b6080516123466100fd60003960008181610e9601528181610ebf015261100301526123466000f3fe60806040526004361061019c5760003560e01c80638fb36037116100ec578063c4d66de81161008a578063c87b56dd11610064578063c87b56dd146104f9578063d8f0c00214610519578063e272a56114610531578063e985e9c51461055157600080fd5b8063c4d66de814610485578063c4e41b22146104a5578063c4fd6877146104d957600080fd5b8063a22cb465116100c6578063a22cb465146103ff578063ad3cb1cc1461041f578063b88d4fde14610450578063bf7e214f1461047057600080fd5b80638fb360371461036857806395d89b41146103965780639913627f146103ab57600080fd5b806342842e0e1161015957806352d1902d1161013357806352d1902d146102f35780636352211e1461030857806370a08231146103285780637a9e5e4b1461034857600080fd5b806342842e0e146102925780634c119a46146102b25780634f1ef286146102e057600080fd5b806301ffc9a7146101a157806306fdde03146101d6578063081812fc146101f8578063095ea7b31461023057806323b872dd1461025257806340d097c314610272575b600080fd5b3480156101ad57600080fd5b506101c16101bc366004611ba8565b610571565b60405190151581526020015b60405180910390f35b3480156101e257600080fd5b506101eb6105c3565b6040516101cd9190611c15565b34801561020457600080fd5b50610218610213366004611c28565b610667565b6040516001600160a01b0390911681526020016101cd565b34801561023c57600080fd5b5061025061024b366004611c5d565b61067c565b005b34801561025e57600080fd5b5061025061026d366004611c87565b61068b565b34801561027e57600080fd5b5061025061028d366004611cc4565b61071b565b34801561029e57600080fd5b506102506102ad366004611c87565b610787565b3480156102be57600080fd5b506102d26102cd366004611c28565b6107a2565b6040519081526020016101cd565b6102506102ee366004611d84565b6107cf565b3480156102ff57600080fd5b506102d26107ea565b34801561031457600080fd5b50610218610323366004611c28565b610807565b34801561033457600080fd5b506102d2610343366004611cc4565b610812565b34801561035457600080fd5b50610250610363366004611cc4565b61086e565b34801561037457600080fd5b5061037d6108f1565b6040516001600160e01b031990911681526020016101cd565b3480156103a257600080fd5b506101eb61092a565b3480156103b757600080fd5b506103e86103c6366004611c28565b60009081526000805160206122d1833981519152602052604090205442811191565b6040805192151583526020830191909152016101cd565b34801561040b57600080fd5b5061025061041a366004611de0565b610969565b34801561042b57600080fd5b506101eb604051806040016040528060058152602001640352e302e360dc1b81525081565b34801561045c57600080fd5b5061025061046b366004611e17565b610974565b34801561047c57600080fd5b5061021861098b565b34801561049157600080fd5b506102506104a0366004611cc4565b6109a7565b3480156104b157600080fd5b507f9f791d4738865ba7c779eecd51509000f816d1d2e37f69177c0f7c39eff80000546102d2565b3480156104e557600080fd5b506102506104f4366004611e7f565b610b15565b34801561050557600080fd5b506101eb610514366004611c28565b610b32565b34801561052557600080fd5b506102d26301e1338081565b34801561053d57600080fd5b5061025061054c366004611c28565b610b9a565b34801561055d57600080fd5b506101c161056c366004611ea1565b610bce565b60006001600160e01b031982166380ac58cd60e01b14806105a257506001600160e01b03198216635b5e139f60e01b145b806105bd57506301ffc9a760e01b6001600160e01b03198316145b92915050565b6000805160206122b183398151915280546060919081906105e390611ed4565b80601f016020809104026020016040519081016040528092919081815260200182805461060f90611ed4565b801561065c5780601f106106315761010080835404028352916020019161065c565b820191906000526020600020905b81548152906001019060200180831161063f57829003601f168201915b505050505091505090565b600061067282610c1b565b506105bd82610c53565b610687828233610c8d565b5050565b6001600160a01b0382166106ba57604051633250574960e11b8152600060048201526024015b60405180910390fd5b60006106c7838333610c9a565b9050836001600160a01b0316816001600160a01b031614610715576040516364283d7b60e01b81526001600160a01b03808616600483015260248201849052821660448201526064016106b1565b50505050565b610728335b600036610cf5565b7f9f791d4738865ba7c779eecd51509000f816d1d2e37f69177c0f7c39eff800008054600090828261075983611f24565b9190505590506107698382610df3565b6107828183600101544261077d9190611f3d565b610e0d565b505050565b61078283838360405180602001604052806000815250610974565b60006107ad82610c1b565b5060008281526000805160206122d183398151915260205260409020546105bd565b6107d7610e8b565b6107e082610f32565b6106878282610f3b565b60006107f4610ff8565b506000805160206122f183398151915290565b60006105bd82610c1b565b60006000805160206122b18339815191526001600160a01b03831661084d576040516322718ad960e21b8152600060048201526024016106b1565b6001600160a01b039092166000908152600390920160205250604090205490565b3361087761098b565b6001600160a01b0316816001600160a01b0316146108b25760405162d1953b60e31b81526001600160a01b03821660048201526024016106b1565b816001600160a01b03163b6000036108e8576040516361798f2f60e11b81526001600160a01b03831660048201526024016106b1565b61068782611041565b600080516020612291833981519152805460009190600160a01b900460ff1661091b576000610924565b638fb3603760e01b5b91505090565b7f80bb2b638cc20bc4d0a60d66940f3ab4a00c1d7b313497ca82fb0b4ab007930180546060916000805160206122b1833981519152916105e390611ed4565b6106873383836110a2565b61097f84848461068b565b61071584848484611153565b600080516020612291833981519152546001600160a01b031690565b7ff0c57e16840df040f15088dc2f81fe391c3923bec73e23a9662efc9c229c6a008054600160401b810460ff16159067ffffffffffffffff166000811580156109ed5750825b905060008267ffffffffffffffff166001148015610a0a5750303b155b905081158015610a18575080155b15610a365760405163f92ee8a960e01b815260040160405180910390fd5b845467ffffffffffffffff191660011785558315610a6057845460ff60401b1916600160401b1785555b610aae6040518060400160405280600c81526020016b4f736d69204149204e6f646560a01b815250604051806040016040528060088152602001674f736d694e6f646560c01b81525061127c565b610ab78661128e565b610abf61129f565b610ac76112a7565b8315610b0d57845460ff60401b19168555604051600181527fc7f505b2f371ae2175ee4913f4499e1f2633a7b5936321eed1cdaeb6115181d29060200160405180910390a15b505050505050565b610b1e33610720565b610b2782610c1b565b506106878282610e0d565b6060610b3d82610c1b565b506000610b486112d8565b90506000815111610b685760405180602001604052806000815250610b93565b80610b7284611324565b604051602001610b83929190611f50565b6040516020818303038152906040525b9392505050565b610ba333610720565b610bcb817f9f791d4738865ba7c779eecd51509000f816d1d2e37f69177c0f7c39eff8000155565b50565b6001600160a01b0391821660009081527f80bb2b638cc20bc4d0a60d66940f3ab4a00c1d7b313497ca82fb0b4ab00793056020908152604080832093909416825291909152205460ff1690565b600080610c27836113b7565b90506001600160a01b0381166105bd57604051637e27328960e01b8152600481018490526024016106b1565b60009081527f80bb2b638cc20bc4d0a60d66940f3ab4a00c1d7b313497ca82fb0b4ab007930460205260409020546001600160a01b031690565b61078283838360016113f1565b60008281526000805160206122d1833981519152602052604081205442811115610ce15760405163045e912960e31b815260048101859052602481018290526044016106b1565b610cec858585611507565b95945050505050565b600080516020612291833981519152600080610d30610d1261098b565b8730610d22600460008a8c611f7f565b610d2b91611fa9565b611611565b9150915081610b0d5763ffffffff811615610dd057825460ff60a01b1916600160a01b178355610d5e61098b565b6001600160a01b03166394c7d7ee8787876040518463ffffffff1660e01b8152600401610d8d93929190611fe1565b600060405180830381600087803b158015610da757600080fd5b505af1158015610dbb573d6000803e3d6000fd5b5050845460ff60a01b1916855550610b0d9050565b60405162d1953b60e31b81526001600160a01b03871660048201526024016106b1565b61068782826040518060200160405280600081525061171d565b60008281526000805160206122d18339815191526020908152604091829020839055815184815290810183905281517f9f791d4738865ba7c779eecd51509000f816d1d2e37f69177c0f7c39eff80000927fbb83344d2ed829c24bb3ebbb518d53a2ab011c0c6b97b964ea5da15b6a83d792928290030190a1505050565b306001600160a01b037f0000000000000000000000000000000000000000000000000000000000000000161480610f1257507f00000000000000000000000000000000000000000000000000000000000000006001600160a01b0316610f066000805160206122f1833981519152546001600160a01b031690565b6001600160a01b031614155b15610f305760405163703e46dd60e11b815260040160405180910390fd5b565b610bcb33610720565b816001600160a01b03166352d1902d6040518163ffffffff1660e01b8152600401602060405180830381865afa925050508015610f95575060408051601f3d908101601f19168201909252610f9291810190612021565b60015b610fbd57604051634c9c8ce360e01b81526001600160a01b03831660048201526024016106b1565b6000805160206122f18339815191528114610fee57604051632a87526960e21b8152600481018290526024016106b1565b6107828383611734565b306001600160a01b037f00000000000000000000000000000000000000000000000000000000000000001614610f305760405163703e46dd60e11b815260040160405180910390fd5b60008051602061229183398151915280546001600160a01b0383166001600160a01b03199091168117825560408051918252517f2f658b440c35314f52658ea8a740e05b284cdc84dc9ae01e891f21b8933e7cad9181900360200190a15050565b6000805160206122b18339815191526001600160a01b0383166110e357604051630b61174360e31b81526001600160a01b03841660048201526024016106b1565b6001600160a01b038481166000818152600584016020908152604080832094881680845294825291829020805460ff191687151590811790915591519182527f17307eab39ab6107e8899845ad3d59bd9653f200f220920489ca2b5937696c31910160405180910390a350505050565b6001600160a01b0383163b1561071557604051630a85bd0160e11b81526001600160a01b0384169063150b7a029061119590339088908790879060040161203a565b6020604051808303816000875af19250505080156111d0575060408051601f3d908101601f191682019092526111cd91810190612077565b60015b611239573d8080156111fe576040519150601f19603f3d011682016040523d82523d6000602084013e611203565b606091505b50805160000361123157604051633250574960e11b81526001600160a01b03851660048201526024016106b1565b805181602001fd5b6001600160e01b03198116630a85bd0160e11b1461127557604051633250574960e11b81526001600160a01b03851660048201526024016106b1565b5050505050565b61128461178a565b61068782826117d3565b61129661178a565b610bcb81611804565b610f3061178a565b6112af61178a565b6301e133807f9f791d4738865ba7c779eecd51509000f816d1d2e37f69177c0f7c39eff8000155565b60606112e346611324565b6040516020016112f39190612094565b60408051601f1981840301815290829052611310916020016120eb565b604051602081830303815290604052905090565b6060600061133183611815565b600101905060008167ffffffffffffffff81111561135157611351611cdf565b6040519080825280601f01601f19166020018201604052801561137b576020820181803683370190505b5090508181016020015b600019016f181899199a1a9b1b9c1cb0b131b232b360811b600a86061a8153600a850494508461138557509392505050565b60009081527f80bb2b638cc20bc4d0a60d66940f3ab4a00c1d7b313497ca82fb0b4ab007930260205260409020546001600160a01b031690565b6000805160206122b1833981519152818061141457506001600160a01b03831615155b156114d657600061142485610c1b565b90506001600160a01b038416158015906114505750836001600160a01b0316816001600160a01b031614155b801561146357506114618185610bce565b155b1561148c5760405163a9fbf51f60e01b81526001600160a01b03851660048201526024016106b1565b82156114d45784866001600160a01b0316826001600160a01b03167f8c5be1e5ebec7d5bd14f71427d1e84f3dd0314c0f7b2291e5b200ac8c7c3b92560405160405180910390a45b505b600093845260040160205250506040902080546001600160a01b0319166001600160a01b0392909216919091179055565b60006000805160206122b183398151915281611522856113b7565b90506001600160a01b0384161561153e5761153e8185876118ed565b6001600160a01b0381161561157e5761155b6000866000806113f1565b6001600160a01b0381166000908152600383016020526040902080546000190190555b6001600160a01b038616156115af576001600160a01b03861660009081526003830160205260409020805460010190555b600085815260028301602052604080822080546001600160a01b0319166001600160a01b038a811691821790925591518893918516917fddf252ad1be2c89b69c2b068fc378daa952ba7f163c4a11628f55a4df523b3ef91a495945050505050565b6040516001600160a01b03848116602483015283811660448301526001600160e01b03198316606483015260009182918291829189169060840160408051601f198184030181529181526020820180516001600160e01b031663b700961360e01b179052516116809190612119565b600060405180830381855afa9150503d80600081146116bb576040519150601f19603f3d011682016040523d82523d6000602084013e6116c0565b606091505b509150915081156117125760408151106116f257808060200190518101906116e89190612135565b9094509250611712565b6020815110611712578080602001905181019061170f919061216d565b93505b505094509492505050565b6117278383611951565b6107826000848484611153565b61173d826119b6565b6040516001600160a01b038316907fbc7cd75a20ee27fd9adebab32041f755214dbc6bffa90cc0225b39da2e5c2d3b90600090a2805115611782576107828282611a1b565b610687611a88565b7ff0c57e16840df040f15088dc2f81fe391c3923bec73e23a9662efc9c229c6a0054600160401b900460ff16610f3057604051631afcd79f60e31b815260040160405180910390fd5b6117db61178a565b6000805160206122b1833981519152806117f584826121d1565b506001810161071583826121d1565b61180c61178a565b610bcb81611041565b60008072184f03e93ff9f4daa797ed6e38ed64bf6a1f0160401b83106118545772184f03e93ff9f4daa797ed6e38ed64bf6a1f0160401b830492506040015b6d04ee2d6d415b85acef81000000008310611880576d04ee2d6d415b85acef8100000000830492506020015b662386f26fc10000831061189e57662386f26fc10000830492506010015b6305f5e10083106118b6576305f5e100830492506008015b61271083106118ca57612710830492506004015b606483106118dc576064830492506002015b600a83106105bd5760010192915050565b6118f8838383611aa7565b610782576001600160a01b03831661192657604051637e27328960e01b8152600481018290526024016106b1565b60405163177e802f60e01b81526001600160a01b0383166004820152602481018290526044016106b1565b6001600160a01b03821661197b57604051633250574960e11b8152600060048201526024016106b1565b600061198983836000610c9a565b90506001600160a01b03811615610782576040516339e3563760e11b8152600060048201526024016106b1565b806001600160a01b03163b6000036119ec57604051634c9c8ce360e01b81526001600160a01b03821660048201526024016106b1565b6000805160206122f183398151915280546001600160a01b0319166001600160a01b0392909216919091179055565b6060600080846001600160a01b031684604051611a389190612119565b600060405180830381855af49150503d8060008114611a73576040519150601f19603f3d011682016040523d82523d6000602084013e611a78565b606091505b5091509150610cec858383611b0d565b3415610f305760405163b398979f60e01b815260040160405180910390fd5b60006001600160a01b03831615801590611b055750826001600160a01b0316846001600160a01b03161480611ae15750611ae18484610bce565b80611b055750826001600160a01b0316611afa83610c53565b6001600160a01b0316145b949350505050565b606082611b2257611b1d82611b69565b610b93565b8151158015611b3957506001600160a01b0384163b155b15611b6257604051639996b31560e01b81526001600160a01b03851660048201526024016106b1565b5080610b93565b805115611b795780518082602001fd5b604051630a12f52160e11b815260040160405180910390fd5b6001600160e01b031981168114610bcb57600080fd5b600060208284031215611bba57600080fd5b8135610b9381611b92565b60005b83811015611be0578181015183820152602001611bc8565b50506000910152565b60008151808452611c01816020860160208601611bc5565b601f01601f19169290920160200192915050565b602081526000610b936020830184611be9565b600060208284031215611c3a57600080fd5b5035919050565b80356001600160a01b0381168114611c5857600080fd5b919050565b60008060408385031215611c7057600080fd5b611c7983611c41565b946020939093013593505050565b600080600060608486031215611c9c57600080fd5b611ca584611c41565b9250611cb360208501611c41565b929592945050506040919091013590565b600060208284031215611cd657600080fd5b610b9382611c41565b634e487b7160e01b600052604160045260246000fd5b600082601f830112611d0657600080fd5b813567ffffffffffffffff811115611d2057611d20611cdf565b604051601f8201601f19908116603f0116810167ffffffffffffffff81118282101715611d4f57611d4f611cdf565b604052818152838201602001851015611d6757600080fd5b816020850160208301376000918101602001919091529392505050565b60008060408385031215611d9757600080fd5b611da083611c41565b9150602083013567ffffffffffffffff811115611dbc57600080fd5b611dc885828601611cf5565b9150509250929050565b8015158114610bcb57600080fd5b60008060408385031215611df357600080fd5b611dfc83611c41565b91506020830135611e0c81611dd2565b809150509250929050565b60008060008060808587031215611e2d57600080fd5b611e3685611c41565b9350611e4460208601611c41565b925060408501359150606085013567ffffffffffffffff811115611e6757600080fd5b611e7387828801611cf5565b91505092959194509250565b60008060408385031215611e9257600080fd5b50508035926020909101359150565b60008060408385031215611eb457600080fd5b611ebd83611c41565b9150611ecb60208401611c41565b90509250929050565b600181811c90821680611ee857607f821691505b602082108103611f0857634e487b7160e01b600052602260045260246000fd5b50919050565b634e487b7160e01b600052601160045260246000fd5b600060018201611f3657611f36611f0e565b5060010190565b808201808211156105bd576105bd611f0e565b60008351611f62818460208801611bc5565b835190830190611f76818360208801611bc5565b01949350505050565b60008085851115611f8f57600080fd5b83861115611f9c57600080fd5b5050820193919092039150565b80356001600160e01b03198116906004841015611fda576001600160e01b0319600485900360031b81901b82161691505b5092915050565b6001600160a01b03841681526040602082018190528101829052818360608301376000818301606090810191909152601f909201601f1916010192915050565b60006020828403121561203357600080fd5b5051919050565b6001600160a01b038581168252841660208201526040810183905260806060820181905260009061206d90830184611be9565b9695505050505050565b60006020828403121561208957600080fd5b8151610b9381611b92565b7f68747470733a2f2f6e6f6465732e6f736d692e61692f6170692f746f6b656e2d8152686d657461646174612f60b81b6020820152600082516120de816029850160208701611bc5565b9190910160290192915050565b600082516120fd818460208701611bc5565b692f4f736d694e6f64652f60b01b920191825250600a01919050565b6000825161212b818460208701611bc5565b9190910192915050565b6000806040838503121561214857600080fd5b825161215381611dd2565b602084015190925063ffffffff81168114611e0c57600080fd5b60006020828403121561217f57600080fd5b8151610b9381611dd2565b601f82111561078257806000526020600020601f840160051c810160208510156121b15750805b601f840160051c820191505b8181101561127557600081556001016121bd565b815167ffffffffffffffff8111156121eb576121eb611cdf565b6121ff816121f98454611ed4565b8461218a565b6020601f821160018114612233576000831561221b5750848201515b600019600385901b1c1916600184901b178455611275565b600084815260208120601f198516915b828110156122635787850151825560209485019460019092019101612243565b50848210156122815786840151600019600387901b60f8161c191681555b50505050600190811b0190555056fef3177357ab46d8af007ab3fdb9af81da189e1068fefdc0073dca88a2cab40a0080bb2b638cc20bc4d0a60d66940f3ab4a00c1d7b313497ca82fb0b4ab00793009f791d4738865ba7c779eecd51509000f816d1d2e37f69177c0f7c39eff80002360894a13ba1a3210667c828492db98dca3e2076cc3735a920a3ca505d382bbca2646970667358221220c439b15f46095d74713341093c95ea21a239ede1fb58aabe286deafaba651ff664736f6c634300081c0033",
  "linkReferences": {},
  "deployedLinkReferences": {}
}