{
  "_format": "hh-sol-artifact-1",
  "contractName": "OsmiDailyDistribution",
  "sourceName": "contracts/OsmiDailyDistribution.sol",
  "abi": [
    {
      "inputs": [],
      "stateMutability": "nonpayable",
      "type": "constructor"
    },
    {
      "inputs": [
        {
          "internalType": "address",
          "name": "authority",
          "type": "address"
        }
      ],
      "name": "AccessManagedInvalidAuthority",
      "type": "error"
    },
    {
      "inputs": [
        {
          "internalType": "address",
          "name": "caller",
          "type": "address"
        },
        {
          "internalType": "uint32",
          "name": "delay",
          "type": "uint32"
        }
      ],
      "name": "AccessManagedRequiredDelay",
      "type": "error"
    },
    {
      "inputs": [
        {
          "internalType": "address",
          "name": "caller",
          "type": "address"
        }
      ],
      "name": "AccessManagedUnauthorized",
      "type": "error"
    },
    {
      "inputs": [
        {
          "internalType": "address",
          "name": "target",
          "type": "address"
        }
      ],
      "name": "AddressEmptyCode",
      "type": "error"
    },
    {
      "inputs": [
        {
          "internalType": "uint256",
          "name": "until",
          "type": "uint256"
        }
      ],
      "name": "DistributionOnCooldown",
      "type": "error"
    },
    {
      "inputs": [
        {
          "internalType": "address",
          "name": "implementation",
          "type": "address"
        }
      ],
      "name": "ERC1967InvalidImplementation",
      "type": "error"
    },
    {
      "inputs": [],
      "name": "ERC1967NonPayable",
      "type": "error"
    },
    {
      "inputs": [],
      "name": "FailedInnerCall",
      "type": "error"
    },
    {
      "inputs": [],
      "name": "InvalidEmissionNumerator",
      "type": "error"
    },
    {
      "inputs": [],
      "name": "InvalidInitialization",
      "type": "error"
    },
    {
      "inputs": [],
      "name": "MathOverflowedMulDiv",
      "type": "error"
    },
    {
      "inputs": [
        {
          "internalType": "uint256",
          "name": "expected",
          "type": "uint256"
        },
        {
          "internalType": "uint256",
          "name": "actual",
          "type": "uint256"
        }
      ],
      "name": "MintDiscrepancy",
      "type": "error"
    },
    {
      "inputs": [],
      "name": "NotInitializing",
      "type": "error"
    },
    {
      "inputs": [],
      "name": "UUPSUnauthorizedCallContext",
      "type": "error"
    },
    {
      "inputs": [
        {
          "internalType": "bytes32",
          "name": "slot",
          "type": "bytes32"
        }
      ],
      "name": "UUPSUnsupportedProxiableUUID",
      "type": "error"
    },
    {
      "anonymous": false,
      "inputs": [
        {
          "indexed": false,
          "internalType": "address",
          "name": "authority",
          "type": "address"
        }
      ],
      "name": "AuthorityUpdated",
      "type": "event"
    },
    {
      "anonymous": false,
      "inputs": [
        {
          "indexed": false,
          "internalType": "uint256",
          "name": "timestamp",
          "type": "uint256"
        },
        {
          "indexed": false,
          "internalType": "uint256",
          "name": "minted",
          "type": "uint256"
        },
        {
          "indexed": false,
          "internalType": "uint256",
          "name": "totalSupply",
          "type": "uint256"
        },
        {
          "indexed": false,
          "internalType": "uint256",
          "name": "cap",
          "type": "uint256"
        }
      ],
      "name": "DailyDistribution",
      "type": "event"
    },
    {
      "anonymous": false,
      "inputs": [
        {
          "indexed": false,
          "internalType": "uint256",
          "name": "value",
          "type": "uint256"
        }
      ],
      "name": "DailyEmissionNumeratorChanged",
      "type": "event"
    },
    {
      "anonymous": false,
      "inputs": [
        {
          "indexed": false,
          "internalType": "uint64",
          "name": "version",
          "type": "uint64"
        }
      ],
      "name": "Initialized",
      "type": "event"
    },
    {
      "anonymous": false,
      "inputs": [
        {
          "indexed": false,
          "internalType": "address",
          "name": "to",
          "type": "address"
        },
        {
          "indexed": false,
          "internalType": "uint256",
          "name": "numerator",
          "type": "uint256"
        }
      ],
      "name": "NodeRewardsChanged",
      "type": "event"
    },
    {
      "anonymous": false,
      "inputs": [
        {
          "indexed": false,
          "internalType": "address",
          "name": "to",
          "type": "address"
        },
        {
          "indexed": false,
          "internalType": "uint256",
          "name": "numerator",
          "type": "uint256"
        }
      ],
      "name": "ProjectDevelopmentFundChanged",
      "type": "event"
    },
    {
      "anonymous": false,
      "inputs": [
        {
          "indexed": false,
          "internalType": "address",
          "name": "to",
          "type": "address"
        },
        {
          "indexed": false,
          "internalType": "uint256",
          "name": "numerator",
          "type": "uint256"
        }
      ],
      "name": "ReferralProgramChanged",
      "type": "event"
    },
    {
      "anonymous": false,
      "inputs": [
        {
          "indexed": false,
          "internalType": "address",
          "name": "to",
          "type": "address"
        },
        {
          "indexed": false,
          "internalType": "uint256",
          "name": "numerator",
          "type": "uint256"
        }
      ],
      "name": "StakingAndCommunityInitiativesChanged",
      "type": "event"
    },
    {
      "anonymous": false,
      "inputs": [
        {
          "indexed": false,
          "internalType": "contract IOsmiToken",
          "name": "tokenContract",
          "type": "address"
        }
      ],
      "name": "TokenContractChanged",
      "type": "event"
    },
    {
      "anonymous": false,
      "inputs": [
        {
          "indexed": true,
          "internalType": "address",
          "name": "implementation",
          "type": "address"
        }
      ],
      "name": "Upgraded",
      "type": "event"
    },
    {
      "inputs": [],
      "name": "UPGRADE_INTERFACE_VERSION",
      "outputs": [
        {
          "internalType": "string",
          "name": "",
          "type": "string"
        }
      ],
      "stateMutability": "view",
      "type": "function"
    },
    {
      "inputs": [],
      "name": "authority",
      "outputs": [
        {
          "internalType": "address",
          "name": "",
          "type": "address"
        }
      ],
      "stateMutability": "view",
      "type": "function"
    },
    {
      "inputs": [
        {
          "internalType": "uint256",
          "name": "dailyEmissionNumerator",
          "type": "uint256"
        },
        {
          "components": [
            {
              "components": [
                {
                  "internalType": "address",
                  "name": "to",
                  "type": "address"
                },
                {
                  "internalType": "uint256",
                  "name": "numerator",
                  "type": "uint256"
                }
              ],
              "internalType": "struct OsmiDailyDistribution.Pool",
              "name": "nodeRewards",
              "type": "tuple"
            },
            {
              "components": [
                {
                  "internalType": "address",
                  "name": "to",
                  "type": "address"
                },
                {
                  "internalType": "uint256",
                  "name": "numerator",
                  "type": "uint256"
                }
              ],
              "internalType": "struct OsmiDailyDistribution.Pool",
              "name": "projectDevelopmentFund",
              "type": "tuple"
            },
            {
              "components": [
                {
                  "internalType": "address",
                  "name": "to",
                  "type": "address"
                },
                {
                  "internalType": "uint256",
                  "name": "numerator",
                  "type": "uint256"
                }
              ],
              "internalType": "struct OsmiDailyDistribution.Pool",
              "name": "stakingAndCommunityInitiatives",
              "type": "tuple"
            },
            {
              "components": [
                {
                  "internalType": "address",
                  "name": "to",
                  "type": "address"
                },
                {
                  "internalType": "uint256",
                  "name": "numerator",
                  "type": "uint256"
                }
              ],
              "internalType": "struct OsmiDailyDistribution.Pool",
              "name": "referralProgram",
              "type": "tuple"
            }
          ],
          "internalType": "struct OsmiDailyDistribution.Pools",
          "name": "pools",
          "type": "tuple"
        }
      ],
      "name": "configureDistribution",
      "outputs": [],
      "stateMutability": "nonpayable",
      "type": "function"
    },
    {
      "inputs": [],
      "name": "doDailyDistribution",
      "outputs": [],
      "stateMutability": "nonpayable",
      "type": "function"
    },
    {
      "inputs": [],
      "name": "getLastDistributionTime",
      "outputs": [
        {
          "internalType": "uint256",
          "name": "",
          "type": "uint256"
        }
      ],
      "stateMutability": "view",
      "type": "function"
    },
    {
      "inputs": [],
      "name": "getPools",
      "outputs": [
        {
          "components": [
            {
              "components": [
                {
                  "internalType": "address",
                  "name": "to",
                  "type": "address"
                },
                {
                  "internalType": "uint256",
                  "name": "numerator",
                  "type": "uint256"
                }
              ],
              "internalType": "struct OsmiDailyDistribution.Pool",
              "name": "nodeRewards",
              "type": "tuple"
            },
            {
              "components": [
                {
                  "internalType": "address",
                  "name": "to",
                  "type": "address"
                },
                {
                  "internalType": "uint256",
                  "name": "numerator",
                  "type": "uint256"
                }
              ],
              "internalType": "struct OsmiDailyDistribution.Pool",
              "name": "projectDevelopmentFund",
              "type": "tuple"
            },
            {
              "components": [
                {
                  "internalType": "address",
                  "name": "to",
                  "type": "address"
                },
                {
                  "internalType": "uint256",
                  "name": "numerator",
                  "type": "uint256"
                }
              ],
              "internalType": "struct OsmiDailyDistribution.Pool",
              "name": "stakingAndCommunityInitiatives",
              "type": "tuple"
            },
            {
              "components": [
                {
                  "internalType": "address",
                  "name": "to",
                  "type": "address"
                },
                {
                  "internalType": "uint256",
                  "name": "numerator",
                  "type": "uint256"
                }
              ],
              "internalType": "struct OsmiDailyDistribution.Pool",
              "name": "referralProgram",
              "type": "tuple"
            }
          ],
          "internalType": "struct OsmiDailyDistribution.Pools",
          "name": "",
          "type": "tuple"
        }
      ],
      "stateMutability": "view",
      "type": "function"
    },
    {
      "inputs": [
        {
          "internalType": "address",
          "name": "initialAuthority",
          "type": "address"
        },
        {
          "internalType": "address",
          "name": "tokenContract",
          "type": "address"
        },
        {
          "internalType": "uint256",
          "name": "dailyEmissionNumerator",
          "type": "uint256"
        },
        {
          "components": [
            {
              "components": [
                {
                  "internalType": "address",
                  "name": "to",
                  "type": "address"
                },
                {
                  "internalType": "uint256",
                  "name": "numerator",
                  "type": "uint256"
                }
              ],
              "internalType": "struct OsmiDailyDistribution.Pool",
              "name": "nodeRewards",
              "type": "tuple"
            },
            {
              "components": [
                {
                  "internalType": "address",
                  "name": "to",
                  "type": "address"
                },
                {
                  "internalType": "uint256",
                  "name": "numerator",
                  "type": "uint256"
                }
              ],
              "internalType": "struct OsmiDailyDistribution.Pool",
              "name": "projectDevelopmentFund",
              "type": "tuple"
            },
            {
              "components": [
                {
                  "internalType": "address",
                  "name": "to",
                  "type": "address"
                },
                {
                  "internalType": "uint256",
                  "name": "numerator",
                  "type": "uint256"
                }
              ],
              "internalType": "struct OsmiDailyDistribution.Pool",
              "name": "stakingAndCommunityInitiatives",
              "type": "tuple"
            },
            {
              "components": [
                {
                  "internalType": "address",
                  "name": "to",
                  "type": "address"
                },
                {
                  "internalType": "uint256",
                  "name": "numerator",
                  "type": "uint256"
                }
              ],
              "internalType": "struct OsmiDailyDistribution.Pool",
              "name": "referralProgram",
              "type": "tuple"
            }
          ],
          "internalType": "struct OsmiDailyDistribution.Pools",
          "name": "pools",
          "type": "tuple"
        }
      ],
      "name": "initialize",
      "outputs": [],
      "stateMutability": "nonpayable",
      "type": "function"
    },
    {
      "inputs": [],
      "name": "isConsumingScheduledOp",
      "outputs": [
        {
          "internalType": "bytes4",
          "name": "",
          "type": "bytes4"
        }
      ],
      "stateMutability": "view",
      "type": "function"
    },
    {
      "inputs": [],
      "name": "proxiableUUID",
      "outputs": [
        {
          "internalType": "bytes32",
          "name": "",
          "type": "bytes32"
        }
      ],
      "stateMutability": "view",
      "type": "function"
    },
    {
      "inputs": [
        {
          "internalType": "address",
          "name": "newAuthority",
          "type": "address"
        }
      ],
      "name": "setAuthority",
      "outputs": [],
      "stateMutability": "nonpayable",
      "type": "function"
    },
    {
      "inputs": [
        {
          "internalType": "address",
          "name": "tokenContract",
          "type": "address"
        }
      ],
      "name": "setTokenContract",
      "outputs": [],
      "stateMutability": "nonpayable",
      "type": "function"
    },
    {
      "inputs": [
        {
          "internalType": "address",
          "name": "newImplementation",
          "type": "address"
        },
        {
          "internalType": "bytes",
          "name": "data",
          "type": "bytes"
        }
      ],
      "name": "upgradeToAndCall",
      "outputs": [],
      "stateMutability": "payable",
      "type": "function"
    }
  ],
  "bytecode": "0x60a06040523060805234801561001457600080fd5b5061001d610022565b6100d4565b7ff0c57e16840df040f15088dc2f81fe391c3923bec73e23a9662efc9c229c6a00805468010000000000000000900460ff16156100725760405163f92ee8a960e01b815260040160405180910390fd5b80546001600160401b03908116146100d15780546001600160401b0319166001600160401b0390811782556040519081527fc7f505b2f371ae2175ee4913f4499e1f2633a7b5936321eed1cdaeb6115181d29060200160405180910390a15b50565b608051611c0a6100fd60003960008181610ee201528181610f0b01526110520152611c0a6000f3fe6080604052600436106100a75760003560e01c80637a9e5e4b116100645780637a9e5e4b146101705780638bd7f1f1146101905780638fb36037146101b0578063ad3cb1cc146101de578063bbcd5bbe1461021c578063bf7e214f1461023c57600080fd5b806339e9f6ce146100ac5780634dc3a390146100ce5780634f1ef2861461011157806352d1902d14610124578063673a2a1f146101395780637766fb1c1461015b575b600080fd5b3480156100b857600080fd5b506100cc6100c736600461178c565b610269565b005b3480156100da57600080fd5b507f11e36f22dc3e60b61fc7ee072e0af835828cfda265c4a879bb366f002f523f01545b6040519081526020015b60405180910390f35b6100cc61011f3660046117f1565b610397565b34801561013057600080fd5b506100fe6103b6565b34801561014557600080fd5b5061014e6103d3565b60405161010891906118bb565b34801561016757600080fd5b506100cc610559565b34801561017c57600080fd5b506100cc61018b366004611940565b6109c6565b34801561019c57600080fd5b506100cc6101ab36600461195b565b610a49565b3480156101bc57600080fd5b506101c5610a5c565b6040516001600160e01b03199091168152602001610108565b3480156101ea57600080fd5b5061020f604051806040016040528060058152602001640352e302e360dc1b81525081565b60405161010891906119ad565b34801561022857600080fd5b506100cc610237366004611940565b610a95565b34801561024857600080fd5b50610251610aaa565b6040516001600160a01b039091168152602001610108565b7ff0c57e16840df040f15088dc2f81fe391c3923bec73e23a9662efc9c229c6a008054600160401b810460ff16159067ffffffffffffffff166000811580156102af5750825b905060008267ffffffffffffffff1660011480156102cc5750303b155b9050811580156102da575080155b156102f85760405163f92ee8a960e01b815260040160405180910390fd5b845467ffffffffffffffff19166001178555831561032257845460ff60401b1916600160401b1785555b61032b89610ac6565b610333610ad7565b61033c88610ae1565b6103468787610bc3565b831561038c57845460ff60401b19168555604051600181527fc7f505b2f371ae2175ee4913f4499e1f2633a7b5936321eed1cdaeb6115181d29060200160405180910390a15b505050505050505050565b61039f610ed7565b6103a882610f7c565b6103b28282610f85565b5050565b60006103c0611047565b50600080516020611bb583398151915290565b6103db6116d7565b506040805160c0810182527f11e36f22dc3e60b61fc7ee072e0af835828cfda265c4a879bb366f002f523f03546001600160a01b03908116608083019081527f11e36f22dc3e60b61fc7ee072e0af835828cfda265c4a879bb366f002f523f045460a08401528252825180840184527f11e36f22dc3e60b61fc7ee072e0af835828cfda265c4a879bb366f002f523f0554821681527f11e36f22dc3e60b61fc7ee072e0af835828cfda265c4a879bb366f002f523f065460208083019190915280840191909152835180850185527f11e36f22dc3e60b61fc7ee072e0af835828cfda265c4a879bb366f002f523f0754831681527f11e36f22dc3e60b61fc7ee072e0af835828cfda265c4a879bb366f002f523f0854818301528385015283518085019094527f11e36f22dc3e60b61fc7ee072e0af835828cfda265c4a879bb366f002f523f095490911683527f11e36f22dc3e60b61fc7ee072e0af835828cfda265c4a879bb366f002f523f0a5490830152606081019190915290565b610566335b600036611090565b7f11e36f22dc3e60b61fc7ee072e0af835828cfda265c4a879bb366f002f523f01547f11e36f22dc3e60b61fc7ee072e0af835828cfda265c4a879bb366f002f523f0090600090610e10906105be90620151806119f6565b6105c89190611a09565b9050428111156105f3576040516384729a7360e01b8152600481018290526024015b60405180910390fd5b426001830155815460408051631aa93a7560e11b815290516000926001600160a01b03169163355274ea9160048083019260209291908290030181865afa158015610642573d6000803e3d6000fd5b505050506040513d601f19601f820116820180604052508101906106669190611a1c565b905060008360000160009054906101000a90046001600160a01b03166001600160a01b03166318160ddd6040518163ffffffff1660e01b8152600401602060405180830381865afa1580156106bf573d6000803e3d6000fd5b505050506040513d601f19601f820116820180604052508101906106e39190611a1c565b600285015490915060006107056106fa8486611a09565b83633b9aca00611196565b9050600080610723838960030160000160010154633b9aca00611196565b885460038a01546040516340c10f1960e01b81526001600160a01b0391821660048201526024810184905292935016906340c10f1990604401600060405180830381600087803b15801561077657600080fd5b505af115801561078a573d6000803e3d6000fd5b50505050808261079a91906119f6565b60068901549092506107b2908490633b9aca00611196565b885460058a01546040516340c10f1960e01b81526001600160a01b0391821660048201526024810184905292935016906340c10f1990604401600060405180830381600087803b15801561080557600080fd5b505af1158015610819573d6000803e3d6000fd5b50505050808261082991906119f6565b6008890154909250610841908490633b9aca00611196565b885460078a01546040516340c10f1960e01b81526001600160a01b0391821660048201526024810184905292935016906340c10f1990604401600060405180830381600087803b15801561089457600080fd5b505af11580156108a8573d6000803e3d6000fd5b5050505080826108b891906119f6565b600a8901549092506108d0908490633b9aca00611196565b885460098a01546040516340c10f1960e01b81526001600160a01b0391821660048201526024810184905292935016906340c10f1990604401600060405180830381600087803b15801561092357600080fd5b505af1158015610937573d6000803e3d6000fd5b50505050808261094791906119f6565b91508282111561097457604051630c724ac560e01b815260048101849052602481018390526044016105ea565b6040805142815260208101849052908101869052606081018790527ffe1d440ca97cd36eb0b3a437ab57ca803562c6a56e85d4b7cf06b36a7dff8f809060800160405180910390a15050505050505050565b336109cf610aaa565b6001600160a01b0316816001600160a01b031614610a0a5760405162d1953b60e31b81526001600160a01b03821660048201526024016105ea565b816001600160a01b03163b600003610a40576040516361798f2f60e11b81526001600160a01b03831660048201526024016105ea565b6103b28261125b565b610a523361055e565b6103b28282610bc3565b600080516020611b95833981519152805460009190600160a01b900460ff16610a86576000610a8f565b638fb3603760e01b5b91505090565b610a9e3361055e565b610aa781610ae1565b50565b600080516020611b95833981519152546001600160a01b031690565b610ace6112b5565b610aa7816112fe565b610adf6112b5565b565b6001600160a01b038116610b375760405162461bcd60e51b815260206004820152601c60248201527f746f6b656e20636f6e74726163742063616e2774206265207a65726f0000000060448201526064016105ea565b7f11e36f22dc3e60b61fc7ee072e0af835828cfda265c4a879bb366f002f523f0080546001600160a01b03838116911603610b70575050565b80546001600160a01b0319166001600160a01b03831690811782556040519081527fe89f98a27789c8313baa22de83cdb921b7026d66af0ee02973c97d45f952b6be906020015b60405180910390a15050565b7f11e36f22dc3e60b61fc7ee072e0af835828cfda265c4a879bb366f002f523f02547f11e36f22dc3e60b61fc7ee072e0af835828cfda265c4a879bb366f002f523f00908314610c8057821580610c275750610c24600a633b9aca00611a4b565b83115b15610c455760405163c5f55b9360e01b815260040160405180910390fd5b600281018390556040518381527f2c3e2e28fbf9e7fc7c7948796c05496767f92c4d8f7a28115b9b69f21c12e8069060200160405180910390a15b610c8d600382018361130f565b15610ce5577f8db84d792225d3c3f70c0349451eb84d6231c0d751fd15cd0bc0cf78770e6aec610cc06020840184611940565b604080516001600160a01b039092168252602085810135908301520160405180910390a15b610cf5600582016040840161130f565b15610d50577fe16a9be4c42e95b33eac5c37e6ed8fc13974508ae82a6bd622d39a63d9f86920610d2b6060840160408501611940565b604080516001600160a01b039092168252606085013560208301520160405180910390a15b610d60600782016080840161130f565b15610dbb577ffe9b90f9df8b1a8bb9bc56589fa0f112658bb8eff69b15538668d9baa4992f10610d9660a0840160808501611940565b604080516001600160a01b03909216825260a085013560208301520160405180910390a15b610dcb6009820160c0840161130f565b15610e26577f7d169ad428713fdab972242fe8f27d8772d1a374412a9d3068a4419d2ec8eacf610e0160e0840160c08501611940565b604080516001600160a01b03909216825260e085013560208301520160405180910390a15b6000610e366020840135826119f6565b9050610e466060840135826119f6565b9050610e5660a0840135826119f6565b9050610e6660e0840135826119f6565b9050633b9aca008114610ed15760405162461bcd60e51b815260206004820152602d60248201527f73756d206f6620706f6f6c206e756d657261746f7273206d757374206571756160448201526c36103232b737b6b4b730ba37b960991b60648201526084016105ea565b50505050565b306001600160a01b037f0000000000000000000000000000000000000000000000000000000000000000161480610f5e57507f00000000000000000000000000000000000000000000000000000000000000006001600160a01b0316610f52600080516020611bb5833981519152546001600160a01b031690565b6001600160a01b031614155b15610adf5760405163703e46dd60e11b815260040160405180910390fd5b610aa73361055e565b816001600160a01b03166352d1902d6040518163ffffffff1660e01b8152600401602060405180830381865afa925050508015610fdf575060408051601f3d908101601f19168201909252610fdc91810190611a1c565b60015b61100757604051634c9c8ce360e01b81526001600160a01b03831660048201526024016105ea565b600080516020611bb5833981519152811461103857604051632a87526960e21b8152600481018290526024016105ea565b61104283836113f6565b505050565b306001600160a01b037f00000000000000000000000000000000000000000000000000000000000000001614610adf5760405163703e46dd60e11b815260040160405180910390fd5b600080516020611b958339815191526000806110cb6110ad610aaa565b87306110bd600460008a8c611a6d565b6110c691611a97565b61144c565b915091508161118e5763ffffffff81161561116b57825460ff60a01b1916600160a01b1783556110f9610aaa565b6001600160a01b03166394c7d7ee8787876040518463ffffffff1660e01b815260040161112893929190611acd565b600060405180830381600087803b15801561114257600080fd5b505af1158015611156573d6000803e3d6000fd5b5050845460ff60a01b191685555061118e9050565b60405162d1953b60e31b81526001600160a01b03871660048201526024016105ea565b505050505050565b60008383028160001985870982811083820303915050806000036111cd578382816111c3576111c3611a35565b0492505050611254565b8084116111ed5760405163227bc15360e01b815260040160405180910390fd5b6000848688096000868103871696879004966002600389028118808a02820302808a02820302808a02820302808a02820302808a02820302808a02909103029181900381900460010186841190950394909402919094039290920491909117919091029150505b9392505050565b600080516020611b9583398151915280546001600160a01b0319166001600160a01b03831690811782556040519081527f2f658b440c35314f52658ea8a740e05b284cdc84dc9ae01e891f21b8933e7cad90602001610bb7565b7ff0c57e16840df040f15088dc2f81fe391c3923bec73e23a9662efc9c229c6a0054600160401b900460ff16610adf57604051631afcd79f60e31b815260040160405180910390fd5b6113066112b5565b610aa78161125b565b60008061131f6020840184611940565b84546001600160a01b039081169116146113ce5760006113426020850185611940565b6001600160a01b0316036113a25760405162461bcd60e51b815260206004820152602160248201527f74617267657420706f6f6c2063616e2774206265207a65726f206164647265736044820152607360f81b60648201526084016105ea565b6113af6020840184611940565b84546001600160a01b0319166001600160a01b03919091161784555060015b82602001358460010154146113ed575060208201356001808501919091555b90505b92915050565b6113ff82611558565b6040516001600160a01b038316907fbc7cd75a20ee27fd9adebab32041f755214dbc6bffa90cc0225b39da2e5c2d3b90600090a28051156114445761104282826115bd565b6103b2611633565b6040516001600160a01b03848116602483015283811660448301526001600160e01b03198316606483015260009182918291829189169060840160408051601f198184030181529181526020820180516001600160e01b031663b700961360e01b179052516114bb9190611b0d565b600060405180830381855afa9150503d80600081146114f6576040519150601f19603f3d011682016040523d82523d6000602084013e6114fb565b606091505b5091509150811561154d57604081511061152d57808060200190518101906115239190611b39565b909450925061154d565b602081511061154d578080602001905181019061154a9190611b79565b93505b505094509492505050565b806001600160a01b03163b60000361158e57604051634c9c8ce360e01b81526001600160a01b03821660048201526024016105ea565b600080516020611bb583398151915280546001600160a01b0319166001600160a01b0392909216919091179055565b6060600080846001600160a01b0316846040516115da9190611b0d565b600060405180830381855af49150503d8060008114611615576040519150601f19603f3d011682016040523d82523d6000602084013e61161a565b606091505b509150915061162a858383611652565b95945050505050565b3415610adf5760405163b398979f60e01b815260040160405180910390fd5b60608261166757611662826116ae565b611254565b815115801561167e57506001600160a01b0384163b155b156116a757604051639996b31560e01b81526001600160a01b03851660048201526024016105ea565b5080611254565b8051156116be5780518082602001fd5b604051630a12f52160e11b815260040160405180910390fd5b6040805160c0810190915260006080820181815260a083019190915281908152602001611714604080518082019091526000808252602082015290565b8152602001611733604080518082019091526000808252602082015290565b8152602001611752604080518082019091526000808252602082015290565b905290565b80356001600160a01b038116811461176e57600080fd5b919050565b6000610100828403121561178657600080fd5b50919050565b60008060008061016085870312156117a357600080fd5b6117ac85611757565b93506117ba60208601611757565b9250604085013591506117d08660608701611773565b905092959194509250565b634e487b7160e01b600052604160045260246000fd5b6000806040838503121561180457600080fd5b61180d83611757565b9150602083013567ffffffffffffffff81111561182957600080fd5b8301601f8101851361183a57600080fd5b803567ffffffffffffffff811115611854576118546117db565b604051601f8201601f19908116603f0116810167ffffffffffffffff81118282101715611883576118836117db565b60405281815282820160200187101561189b57600080fd5b816020840160208301376000602083830101528093505050509250929050565b815180516001600160a01b0316825260209081015190820152610100810160208381015180516001600160a01b0316604085015290810151606084015250604083015180516001600160a01b03166080840152602081015160a084015250606083015180516001600160a01b031660c0840152602081015160e08401525b5092915050565b60006020828403121561195257600080fd5b61125482611757565b600080610120838503121561196f57600080fd5b823591506119808460208501611773565b90509250929050565b60005b838110156119a457818101518382015260200161198c565b50506000910152565b60208152600082518060208401526119cc816040850160208701611989565b601f01601f19169190910160400192915050565b634e487b7160e01b600052601160045260246000fd5b808201808211156113f0576113f06119e0565b818103818111156113f0576113f06119e0565b600060208284031215611a2e57600080fd5b5051919050565b634e487b7160e01b600052601260045260246000fd5b600082611a6857634e487b7160e01b600052601260045260246000fd5b500490565b60008085851115611a7d57600080fd5b83861115611a8a57600080fd5b5050820193919092039150565b80356001600160e01b03198116906004841015611939576001600160e01b031960049490940360031b84901b1690921692915050565b6001600160a01b03841681526040602082018190528101829052818360608301376000818301606090810191909152601f909201601f1916010192915050565b60008251611b1f818460208701611989565b9190910192915050565b8051801515811461176e57600080fd5b60008060408385031215611b4c57600080fd5b611b5583611b29565b9150602083015163ffffffff81168114611b6e57600080fd5b809150509250929050565b600060208284031215611b8b57600080fd5b61125482611b2956fef3177357ab46d8af007ab3fdb9af81da189e1068fefdc0073dca88a2cab40a00360894a13ba1a3210667c828492db98dca3e2076cc3735a920a3ca505d382bbca2646970667358221220d705cbaad0ad0ec29ab2199bc2de3e2d5ff88374d28860235cb8c2699876775c64736f6c634300081c0033",
  "linkReferences": {},
  "deployedLinkReferences": {}
}