{
  "_format": "hh-sol-artifact-1",
  "contractName": "OsmiStaking",
  "sourceName": "contracts/OsmiStaking.sol",
  "abi": [
    {
      "inputs": [],
      "stateMutability": "nonpayable",
      "type": "constructor"
    },
    {
      "inputs": [],
      "name": "APYOutOfRange",
      "type": "error"
    },
    {
      "inputs": [
        {
          "internalType": "address",
          "name": "authority",
          "type": "address"
        }
      ],
      "name": "AccessManagedInvalidAuthority",
      "type": "error"
    },
    {
      "inputs": [
        {
          "internalType": "address",
          "name": "caller",
          "type": "address"
        },
        {
          "internalType": "uint32",
          "name": "delay",
          "type": "uint32"
        }
      ],
      "name": "AccessManagedRequiredDelay",
      "type": "error"
    },
    {
      "inputs": [
        {
          "internalType": "address",
          "name": "caller",
          "type": "address"
        }
      ],
      "name": "AccessManagedUnauthorized",
      "type": "error"
    },
    {
      "inputs": [
        {
          "internalType": "address",
          "name": "target",
          "type": "address"
        }
      ],
      "name": "AddressEmptyCode",
      "type": "error"
    },
    {
      "inputs": [],
      "name": "ECDSAInvalidSignature",
      "type": "error"
    },
    {
      "inputs": [
        {
          "internalType": "uint256",
          "name": "length",
          "type": "uint256"
        }
      ],
      "name": "ECDSAInvalidSignatureLength",
      "type": "error"
    },
    {
      "inputs": [
        {
          "internalType": "bytes32",
          "name": "s",
          "type": "bytes32"
        }
      ],
      "name": "ECDSAInvalidSignatureS",
      "type": "error"
    },
    {
      "inputs": [
        {
          "internalType": "address",
          "name": "implementation",
          "type": "address"
        }
      ],
      "name": "ERC1967InvalidImplementation",
      "type": "error"
    },
    {
      "inputs": [],
      "name": "ERC1967NonPayable",
      "type": "error"
    },
    {
      "inputs": [],
      "name": "FailedInnerCall",
      "type": "error"
    },
    {
      "inputs": [],
      "name": "InsufficientBalance",
      "type": "error"
    },
    {
      "inputs": [
        {
          "internalType": "address",
          "name": "account",
          "type": "address"
        },
        {
          "internalType": "uint256",
          "name": "currentNonce",
          "type": "uint256"
        }
      ],
      "name": "InvalidAccountNonce",
      "type": "error"
    },
    {
      "inputs": [],
      "name": "InvalidInitialization",
      "type": "error"
    },
    {
      "inputs": [],
      "name": "InvalidTicketSigner",
      "type": "error"
    },
    {
      "inputs": [],
      "name": "MathOverflowedMulDiv",
      "type": "error"
    },
    {
      "inputs": [],
      "name": "NotInitializing",
      "type": "error"
    },
    {
      "inputs": [],
      "name": "UUPSUnauthorizedCallContext",
      "type": "error"
    },
    {
      "inputs": [
        {
          "internalType": "bytes32",
          "name": "slot",
          "type": "bytes32"
        }
      ],
      "name": "UUPSUnsupportedProxiableUUID",
      "type": "error"
    },
    {
      "inputs": [],
      "name": "Uncancelable",
      "type": "error"
    },
    {
      "inputs": [],
      "name": "WithdrawalAlreadyInProgress",
      "type": "error"
    },
    {
      "inputs": [],
      "name": "WrongTicketOwner",
      "type": "error"
    },
    {
      "inputs": [],
      "name": "ZeroAddressNotAllowed",
      "type": "error"
    },
    {
      "inputs": [],
      "name": "ZeroAmountNotAllowed",
      "type": "error"
    },
    {
      "anonymous": false,
      "inputs": [
        {
          "indexed": false,
          "internalType": "uint256",
          "name": "apy",
          "type": "uint256"
        }
      ],
      "name": "APYChanged",
      "type": "event"
    },
    {
      "anonymous": false,
      "inputs": [
        {
          "indexed": false,
          "internalType": "address",
          "name": "authority",
          "type": "address"
        }
      ],
      "name": "AuthorityUpdated",
      "type": "event"
    },
    {
      "anonymous": false,
      "inputs": [
        {
          "indexed": false,
          "internalType": "address",
          "name": "user",
          "type": "address"
        },
        {
          "indexed": false,
          "internalType": "bool",
          "name": "value",
          "type": "bool"
        }
      ],
      "name": "AutoStakeChanged",
      "type": "event"
    },
    {
      "anonymous": false,
      "inputs": [
        {
          "indexed": false,
          "internalType": "contract IOsmiConfig",
          "name": "configContract",
          "type": "address"
        }
      ],
      "name": "ConfigContractChanged",
      "type": "event"
    },
    {
      "anonymous": false,
      "inputs": [],
      "name": "EIP712DomainChanged",
      "type": "event"
    },
    {
      "anonymous": false,
      "inputs": [
        {
          "indexed": false,
          "internalType": "uint64",
          "name": "version",
          "type": "uint64"
        }
      ],
      "name": "Initialized",
      "type": "event"
    },
    {
      "anonymous": false,
      "inputs": [
        {
          "indexed": false,
          "internalType": "address",
          "name": "user",
          "type": "address"
        },
        {
          "indexed": false,
          "internalType": "uint256",
          "name": "value",
          "type": "uint256"
        }
      ],
      "name": "StreakStartTimeChanged",
      "type": "event"
    },
    {
      "anonymous": false,
      "inputs": [
        {
          "indexed": false,
          "internalType": "address",
          "name": "ticketSigner",
          "type": "address"
        }
      ],
      "name": "TicketSignerChanged",
      "type": "event"
    },
    {
      "anonymous": false,
      "inputs": [
        {
          "indexed": false,
          "internalType": "address",
          "name": "from",
          "type": "address"
        },
        {
          "indexed": false,
          "internalType": "address",
          "name": "to",
          "type": "address"
        },
        {
          "indexed": false,
          "internalType": "uint256",
          "name": "amount",
          "type": "uint256"
        }
      ],
      "name": "TokensDeposited",
      "type": "event"
    },
    {
      "anonymous": false,
      "inputs": [
        {
          "indexed": true,
          "internalType": "address",
          "name": "implementation",
          "type": "address"
        }
      ],
      "name": "Upgraded",
      "type": "event"
    },
    {
      "anonymous": false,
      "inputs": [
        {
          "indexed": false,
          "internalType": "address",
          "name": "user",
          "type": "address"
        },
        {
          "indexed": false,
          "internalType": "uint256",
          "name": "timestamp",
          "type": "uint256"
        },
        {
          "indexed": false,
          "internalType": "uint256",
          "name": "amount",
          "type": "uint256"
        }
      ],
      "name": "WithdrawalCanceled",
      "type": "event"
    },
    {
      "anonymous": false,
      "inputs": [
        {
          "indexed": false,
          "internalType": "address",
          "name": "user",
          "type": "address"
        },
        {
          "indexed": false,
          "internalType": "uint256",
          "name": "timestamp",
          "type": "uint256"
        },
        {
          "indexed": false,
          "internalType": "uint256",
          "name": "amount",
          "type": "uint256"
        }
      ],
      "name": "WithdrawalStarted",
      "type": "event"
    },
    {
      "inputs": [],
      "name": "UPGRADE_INTERFACE_VERSION",
      "outputs": [
        {
          "internalType": "string",
          "name": "",
          "type": "string"
        }
      ],
      "stateMutability": "view",
      "type": "function"
    },
    {
      "inputs": [],
      "name": "authority",
      "outputs": [
        {
          "internalType": "address",
          "name": "",
          "type": "address"
        }
      ],
      "stateMutability": "view",
      "type": "function"
    },
    {
      "inputs": [],
      "name": "cancelWithdrawal",
      "outputs": [],
      "stateMutability": "nonpayable",
      "type": "function"
    },
    {
      "inputs": [],
      "name": "eip712Domain",
      "outputs": [
        {
          "internalType": "bytes1",
          "name": "fields",
          "type": "bytes1"
        },
        {
          "internalType": "string",
          "name": "name",
          "type": "string"
        },
        {
          "internalType": "string",
          "name": "version",
          "type": "string"
        },
        {
          "internalType": "uint256",
          "name": "chainId",
          "type": "uint256"
        },
        {
          "internalType": "address",
          "name": "verifyingContract",
          "type": "address"
        },
        {
          "internalType": "bytes32",
          "name": "salt",
          "type": "bytes32"
        },
        {
          "internalType": "uint256[]",
          "name": "extensions",
          "type": "uint256[]"
        }
      ],
      "stateMutability": "view",
      "type": "function"
    },
    {
      "inputs": [],
      "name": "getAPY",
      "outputs": [
        {
          "internalType": "uint256",
          "name": "",
          "type": "uint256"
        }
      ],
      "stateMutability": "view",
      "type": "function"
    },
    {
      "inputs": [],
      "name": "getAutoStake",
      "outputs": [
        {
          "internalType": "bool",
          "name": "",
          "type": "bool"
        }
      ],
      "stateMutability": "view",
      "type": "function"
    },
    {
      "inputs": [
        {
          "internalType": "address",
          "name": "user",
          "type": "address"
        }
      ],
      "name": "getAutoStakeFor",
      "outputs": [
        {
          "internalType": "bool",
          "name": "",
          "type": "bool"
        }
      ],
      "stateMutability": "view",
      "type": "function"
    },
    {
      "inputs": [],
      "name": "getConfigContract",
      "outputs": [
        {
          "internalType": "contract IOsmiConfig",
          "name": "",
          "type": "address"
        }
      ],
      "stateMutability": "view",
      "type": "function"
    },
    {
      "inputs": [],
      "name": "getTicketSigners",
      "outputs": [
        {
          "internalType": "address",
          "name": "",
          "type": "address"
        },
        {
          "internalType": "address",
          "name": "",
          "type": "address"
        }
      ],
      "stateMutability": "view",
      "type": "function"
    },
    {
      "inputs": [
        {
          "internalType": "address",
          "name": "initialAuthority",
          "type": "address"
        },
        {
          "internalType": "contract IOsmiConfig",
          "name": "configContract",
          "type": "address"
        },
        {
          "internalType": "address",
          "name": "ticketSigner",
          "type": "address"
        }
      ],
      "name": "initialize",
      "outputs": [],
      "stateMutability": "nonpayable",
      "type": "function"
    },
    {
      "inputs": [],
      "name": "isConsumingScheduledOp",
      "outputs": [
        {
          "internalType": "bytes4",
          "name": "",
          "type": "bytes4"
        }
      ],
      "stateMutability": "view",
      "type": "function"
    },
    {
      "inputs": [
        {
          "internalType": "address",
          "name": "owner",
          "type": "address"
        }
      ],
      "name": "nonces",
      "outputs": [
        {
          "internalType": "uint256",
          "name": "",
          "type": "uint256"
        }
      ],
      "stateMutability": "view",
      "type": "function"
    },
    {
      "inputs": [],
      "name": "proxiableUUID",
      "outputs": [
        {
          "internalType": "bytes32",
          "name": "",
          "type": "bytes32"
        }
      ],
      "stateMutability": "view",
      "type": "function"
    },
    {
      "inputs": [
        {
          "internalType": "uint256",
          "name": "v",
          "type": "uint256"
        }
      ],
      "name": "setAPY",
      "outputs": [],
      "stateMutability": "nonpayable",
      "type": "function"
    },
    {
      "inputs": [
        {
          "internalType": "address",
          "name": "newAuthority",
          "type": "address"
        }
      ],
      "name": "setAuthority",
      "outputs": [],
      "stateMutability": "nonpayable",
      "type": "function"
    },
    {
      "inputs": [
        {
          "internalType": "bool",
          "name": "v",
          "type": "bool"
        }
      ],
      "name": "setAutoStake",
      "outputs": [],
      "stateMutability": "nonpayable",
      "type": "function"
    },
    {
      "inputs": [
        {
          "internalType": "address",
          "name": "user",
          "type": "address"
        },
        {
          "internalType": "bool",
          "name": "v",
          "type": "bool"
        }
      ],
      "name": "setAutoStakeFor",
      "outputs": [],
      "stateMutability": "nonpayable",
      "type": "function"
    },
    {
      "inputs": [
        {
          "internalType": "contract IOsmiConfig",
          "name": "v",
          "type": "address"
        }
      ],
      "name": "setConfigContract",
      "outputs": [],
      "stateMutability": "nonpayable",
      "type": "function"
    },
    {
      "inputs": [
        {
          "internalType": "address",
          "name": "signer",
          "type": "address"
        }
      ],
      "name": "setTicketSigner",
      "outputs": [],
      "stateMutability": "nonpayable",
      "type": "function"
    },
    {
      "inputs": [
        {
          "internalType": "address",
          "name": "user",
          "type": "address"
        },
        {
          "internalType": "uint256",
          "name": "amount",
          "type": "uint256"
        }
      ],
      "name": "stakeFor",
      "outputs": [],
      "stateMutability": "nonpayable",
      "type": "function"
    },
    {
      "inputs": [
        {
          "internalType": "address",
          "name": "newImplementation",
          "type": "address"
        },
        {
          "internalType": "bytes",
          "name": "data",
          "type": "bytes"
        }
      ],
      "name": "upgradeToAndCall",
      "outputs": [],
      "stateMutability": "payable",
      "type": "function"
    },
    {
      "inputs": [
        {
          "components": [
            {
              "internalType": "address",
              "name": "user",
              "type": "address"
            },
            {
              "internalType": "uint256",
              "name": "timestamp",
              "type": "uint256"
            },
            {
              "internalType": "uint256",
              "name": "balance",
              "type": "uint256"
            },
            {
              "internalType": "uint8",
              "name": "v",
              "type": "uint8"
            },
            {
              "internalType": "bytes32",
              "name": "r",
              "type": "bytes32"
            },
            {
              "internalType": "bytes32",
              "name": "s",
              "type": "bytes32"
            }
          ],
          "internalType": "struct OsmiStaking.Ticket",
          "name": "ticket",
          "type": "tuple"
        },
        {
          "internalType": "uint256",
          "name": "amount",
          "type": "uint256"
        },
        {
          "internalType": "bool",
          "name": "fast",
          "type": "bool"
        }
      ],
      "name": "withdraw",
      "outputs": [],
      "stateMutability": "nonpayable",
      "type": "function"
    }
  ],
  "bytecode": "0x60a06040523060805234801561001457600080fd5b5061001d610022565b6100d4565b7ff0c57e16840df040f15088dc2f81fe391c3923bec73e23a9662efc9c229c6a00805468010000000000000000900460ff16156100725760405163f92ee8a960e01b815260040160405180910390fd5b80546001600160401b03908116146100d15780546001600160401b0319166001600160401b0390811782556040519081527fc7f505b2f371ae2175ee4913f4499e1f2633a7b5936321eed1cdaeb6115181d29060200160405180910390a15b50565b6080516129f36100fd6000396000818161107e015281816110a701526111e901526129f36000f3fe6080604052600436106101355760003560e01c80637ecebe00116100ab578063ad3cb1cc1161006f578063ad3cb1cc1461039e578063bf7e214f146103dc578063c06ede4f146103f1578063c0c53b8b14610411578063d2cbf7ad14610431578063de7b8ffe1461044657600080fd5b80637ecebe001461029e57806384b0196e146102f35780638fb360371461031b5780639c88217614610349578063a35ff3bf1461037e57600080fd5b806324f45e67116100fd57806324f45e67146101e85780632ee40908146102085780634f1ef2861461022857806352d1902d1461023b57806361edd6cf1461025e5780637a9e5e4b1461027e57600080fd5b80630bc6b21d1461013a5780630e1c3a4a1461015c57806311a5ac481461018e5780631d212c96146101b357806322611280146101d3575b600080fd5b34801561014657600080fd5b5061015a6101553660046122c7565b610466565b005b34801561016857600080fd5b50610171610481565b6040516001600160a01b0390911681526020015b60405180910390f35b34801561019a57600080fd5b506101a3610490565b6040519015158152602001610185565b3480156101bf57600080fd5b5061015a6101ce366004612300565b61049b565b3480156101df57600080fd5b5061015a6104b1565b3480156101f457600080fd5b5061015a61020336600461231d565b6104c5565b34801561021457600080fd5b5061015a610223366004612336565b6104d7565b61015a610236366004612378565b6104eb565b34801561024757600080fd5b50610250610506565b604051908152602001610185565b34801561026a57600080fd5b506101a3610279366004612444565b610523565b34801561028a57600080fd5b5061015a610299366004612444565b610534565b3480156102aa57600080fd5b506102506102b9366004612444565b6001600160a01b031660009081527f5ab42ced628888259c08ac98db1eb0cf702fc1501344311d8b100cd1bfe4bb00602052604090205490565b3480156102ff57600080fd5b506103086105bc565b60405161018597969594939291906124b1565b34801561032757600080fd5b50610330610668565b6040516001600160e01b03199091168152602001610185565b34801561035557600080fd5b5061035e6106a1565b604080516001600160a01b03938416815292909116602083015201610185565b34801561038a57600080fd5b5061015a610399366004612444565b610704565b3480156103aa57600080fd5b506103cf604051806040016040528060058152602001640352e302e360dc1b81525081565b6040516101859190612549565b3480156103e857600080fd5b50610171610716565b3480156103fd57600080fd5b5061015a61040c36600461255c565b610739565b34801561041d57600080fd5b5061015a61042c3660046125a5565b610753565b34801561043d57600080fd5b506102506108db565b34801561045257600080fd5b5061015a610461366004612444565b610905565b610473335b600036610917565b61047d8282610a1d565b5050565b600061048b610ac9565b905090565b600061048b33610ae0565b6104a43361046b565b6104ae3382610a1d565b50565b6104ba3361046b565b6104c333610b0e565b565b6104ce3361046b565b6104ae81610dc0565b6104e03361046b565b61047d338383610e6a565b6104f3611073565b6104fc82611118565b61047d8282611121565b60006105106111de565b5060008051602061299e83398151915290565b600061052e82610ae0565b92915050565b3361053d610716565b6001600160a01b0316816001600160a01b03161461057d5760405162d1953b60e31b81526001600160a01b03821660048201526024015b60405180910390fd5b816001600160a01b03163b6000036105b3576040516361798f2f60e11b81526001600160a01b0383166004820152602401610574565b61047d82611227565b6000606080828080838160008051602061295e83398151915280549091501580156105e957506001810154155b61062d5760405162461bcd60e51b81526020600482015260156024820152741152540dcc4c8e88155b9a5b9a5d1a585b1a5e9959605a1b6044820152606401610574565b610635611281565b61063d611344565b60408051600080825260208201909252600f60f81b9c939b5091995046985030975095509350915050565b60008051602061291e833981519152805460009190600160a01b900460ff1661069257600061069b565b638fb3603760e01b5b91505090565b6000806106fc7fa3c4f2f291c8b2e507af98f0821c9deaec9b9fc659bd5466e3124818ea083601547fa3c4f2f291c8b2e507af98f0821c9deaec9b9fc659bd5466e3124818ea083602546001600160a01b0391821692911690565b915091509091565b61070d3361046b565b6104ae81611383565b60008060008051602061291e8339815191525b546001600160a01b031692915050565b6107423361046b565b61074e83338484611484565b505050565b7ff0c57e16840df040f15088dc2f81fe391c3923bec73e23a9662efc9c229c6a008054600160401b810460ff16159067ffffffffffffffff166000811580156107995750825b905060008267ffffffffffffffff1660011480156107b65750303b155b9050811580156107c4575080155b156107e25760405163f92ee8a960e01b815260040160405180910390fd5b845467ffffffffffffffff19166001178555831561080c57845460ff60401b1916600160401b1785555b61081588611901565b61081d611912565b6108636040518060400160405280600b81526020016a4f736d695374616b696e6760a81b815250604051806040016040528060018152602001603160f81b81525061191a565b61086b611912565b6108748761192c565b61087d86611383565b61088a6309896800610dc0565b83156108d157845460ff60401b19168555604051600181527fc7f505b2f371ae2175ee4913f4499e1f2633a7b5936321eed1cdaeb6115181d2906020015b60405180910390a15b5050505050505050565b600061048b7fa3c4f2f291c8b2e507af98f0821c9deaec9b9fc659bd5466e3124818ea0836035490565b61090e3361046b565b6104ae8161192c565b60008051602061291e833981519152600080610952610934610716565b8730610944600460008a8c6125e5565b61094d9161260f565b61199e565b9150915081610a155763ffffffff8116156109f257825460ff60a01b1916600160a01b178355610980610716565b6001600160a01b03166394c7d7ee8787876040518463ffffffff1660e01b81526004016109af93929190612647565b600060405180830381600087803b1580156109c957600080fd5b505af11580156109dd573d6000803e3d6000fd5b5050845460ff60a01b1916855550610a159050565b60405162d1953b60e31b81526001600160a01b0387166004820152602401610574565b505050505050565b6001600160a01b038216600090815260008051602061297e83398151915260205260409020805460008051602061293e83398151915291906001908116148315158114610ac257604080516001600160a01b038716815285151560208201527fc2c5b51760cdcc9fa9f62294acb39de5174a60208e7f212db33057244dbd4286910160405180910390a18315610ab95781546001178255610ac2565b81546001191682555b5050505050565b60008060008051602061293e833981519152610729565b6001600160a01b0316600090815260008051602061297e833981519152602052604090205460019081161490565b6001600160a01b038116600090815260008051602061297e83398151915260205260408120600281015460008051602061293e8339815191529203610b5257505050565b8060030154600003610b77576040516307a1cab560e11b815260040160405180910390fd5b80600201544210610b9b5760405163446f38c360e11b815260040160405180910390fd5b81546040805163145bdf6f60e11b815290516001600160a01b039092169160009183916328b7bede916004808201926020929091908290030181865afa158015610be9573d6000803e3d6000fd5b505050506040513d601f19601f82011682018060405250810190610c0d9190612687565b90506000826001600160a01b031663459463346040518163ffffffff1660e01b8152600401602060405180830381865afa158015610c4f573d6000803e3d6000fd5b505050506040513d601f19601f82011682018060405250810190610c739190612687565b90506000836001600160a01b031663b5e32a8a6040518163ffffffff1660e01b8152600401602060405180830381865afa158015610cb5573d6000803e3d6000fd5b505050506040513d601f19601f82011682018060405250810190610cd99190612687565b60028601546003870154604080516001600160a01b038c16815260208101939093528201529091507faa2fb342f317d8a167b825426470e8d601acab426e76f95ab6b89570157124df9060600160405180910390a160038501546040516323b872dd60e01b81526001600160a01b038516916323b872dd91610d629185918791906004016126a4565b6020604051808303816000875af1158015610d81573d6000803e3d6000fd5b505050506040513d601f19601f82011682018060405250810190610da591906126c8565b50506000600285018190556003909401939093555050505050565b801580610dd05750633b9aca0081115b15610dee576040516302fa196b60e61b815260040160405180910390fd5b7fa3c4f2f291c8b2e507af98f0821c9deaec9b9fc659bd5466e3124818ea0836035460008051602061293e83398151915290829003610e2b575050565b600381018290556040518281527ffe0dc6926c703f5cea6a6a7bee3d6bede2f43f0df28a572f2e5cdd1d7ba9e560906020015b60405180910390a15050565b60008051602061293e83398151915280546040805163145bdf6f60e11b815290516001600160a01b039092169160009183916328b7bede916004808201926020929091908290030181865afa158015610ec7573d6000803e3d6000fd5b505050506040513d601f19601f82011682018060405250810190610eeb9190612687565b90506000826001600160a01b031663459463346040518163ffffffff1660e01b8152600401602060405180830381865afa158015610f2d573d6000803e3d6000fd5b505050506040513d601f19601f82011682018060405250810190610f519190612687565b6040516323b872dd60e01b81529091506001600160a01b038316906323b872dd90610f84908a9085908a906004016126a4565b6020604051808303816000875af1158015610fa3573d6000803e3d6000fd5b505050506040513d601f19601f82011682018060405250810190610fc791906126c8565b506001600160a01b03861660009081526004850160205260409081902090517fcbc4a4091b012bb1329c38bbbb15455f5cac5aa3673da0a7f38cd61a4f49551790611017908a908a908a906126a4565b60405180910390a180600101546000036108d1574260018201819055604080516001600160a01b038a16815260208101929092527f93c13f86dacebb85b9b0460be5d4b2fea6153d4c79dec9d419fce2ca6cc3499891016108c8565b306001600160a01b037f00000000000000000000000000000000000000000000000000000000000000001614806110fa57507f00000000000000000000000000000000000000000000000000000000000000006001600160a01b03166110ee60008051602061299e833981519152546001600160a01b031690565b6001600160a01b031614155b156104c35760405163703e46dd60e11b815260040160405180910390fd5b6104ae3361046b565b816001600160a01b03166352d1902d6040518163ffffffff1660e01b8152600401602060405180830381865afa92505050801561117b575060408051601f3d908101601f19168201909252611178918101906126e5565b60015b6111a357604051634c9c8ce360e01b81526001600160a01b0383166004820152602401610574565b60008051602061299e83398151915281146111d457604051632a87526960e21b815260048101829052602401610574565b61074e8383611aaa565b306001600160a01b037f000000000000000000000000000000000000000000000000000000000000000016146104c35760405163703e46dd60e11b815260040160405180910390fd5b60008051602061291e83398151915280546001600160a01b0319166001600160a01b03831690811782556040519081527f2f658b440c35314f52658ea8a740e05b284cdc84dc9ae01e891f21b8933e7cad90602001610e5e565b7fa16a46d94261c7517cc8ff89f61c0ce93598e3c849801011dee649a6a557d102805460609160008051602061295e833981519152916112c0906126fe565b80601f01602080910402602001604051908101604052809291908181526020018280546112ec906126fe565b80156113395780601f1061130e57610100808354040283529160200191611339565b820191906000526020600020905b81548152906001019060200180831161131c57829003601f168201915b505050505091505090565b7fa16a46d94261c7517cc8ff89f61c0ce93598e3c849801011dee649a6a557d103805460609160008051602061295e833981519152916112c0906126fe565b6001600160a01b0381166113d95760405162461bcd60e51b815260206004820152601c60248201527f7369676e657220616464726573732063616e2774206265207a65726f000000006044820152606401610574565b7fa3c4f2f291c8b2e507af98f0821c9deaec9b9fc659bd5466e3124818ea0836015460008051602061293e833981519152906001600160a01b03838116911603611421575050565b6001810180546002830180546001600160a01b038084166001600160a01b0319928316179092559091169084169081179091556040519081527ff25410f30b55c5bf754bde6af67a578fc1fb2e1e7fa70f582112f3c430b8e23690602001610e5e565b6001600160a01b0383166114ab576040516342bcdf7f60e11b815260040160405180910390fd5b816000036114cc576040516307a1cab560e11b815260040160405180910390fd5b6001600160a01b0383166114e36020860186612444565b6001600160a01b03161461150a57604051632442148960e21b815260040160405180910390fd5b836040013582111561152f57604051631e9acf1760e31b815260040160405180910390fd5b61153884611b00565b506001600160a01b038316600090815260008051602061297e83398151915260205260409020600281015460008051602061293e833981519152919042101561159457604051632a290aa960e01b815260040160405180910390fd5b856040013584036115ab57600060018201556115b2565b4260018201555b6001810154604080516001600160a01b038816815260208101929092527f93c13f86dacebb85b9b0460be5d4b2fea6153d4c79dec9d419fce2ca6cc34998910160405180910390a181546040805163145bdf6f60e11b815290516001600160a01b039092169160009183916328b7bede916004808201926020929091908290030181865afa158015611648573d6000803e3d6000fd5b505050506040513d601f19601f8201168201806040525081019061166c9190612687565b90506000826001600160a01b031663459463346040518163ffffffff1660e01b8152600401602060405180830381865afa1580156116ae573d6000803e3d6000fd5b505050506040513d601f19601f820116820180604052508101906116d29190612687565b90506000836001600160a01b031663b5e32a8a6040518163ffffffff1660e01b8152600401602060405180830381865afa158015611714573d6000803e3d6000fd5b505050506040513d601f19601f820116820180604052508101906117389190612687565b9050861561181b576000611755896305f5e100633b9aca00611c1b565b9050611761818a61274e565b985080156117cc5760405163079cc67960e41b81526001600160a01b038481166004830152602482018390528516906379cc679090604401600060405180830381600087803b1580156117b357600080fd5b505af11580156117c7573d6000803e3d6000fd5b505050505b604080516001600160a01b038c1681524260208201529081018a90527f1347900f97f1cae6eb5bf8a8ec61b5526c8dd7d669468640ed5731e9e9b6338a9060600160405180910390a150611881565b6003850188905561182f6212750042612761565b60028601819055604080516001600160a01b038c168152602081019290925281018990527f1347900f97f1cae6eb5bf8a8ec61b5526c8dd7d669468640ed5731e9e9b6338a9060600160405180910390a15b6040516323b872dd60e01b81526001600160a01b038416906323b872dd906118b190859085908d906004016126a4565b6020604051808303816000875af11580156118d0573d6000803e3d6000fd5b505050506040513d601f19601f820116820180604052508101906118f491906126c8565b5050505050505050505050565b611909611ce0565b6104ae81611d29565b6104c3611ce0565b611922611ce0565b61047d8282611d3a565b60008051602061293e83398151915280546001600160a01b03838116911603611953575050565b80546001600160a01b0319166001600160a01b03831690811782556040519081527fea68eebc69e6cf7ca402dbd8bbf63e2a5d6fcc0ab964fb9cbe0b2660c364875d90602001610e5e565b6040516001600160a01b03848116602483015283811660448301526001600160e01b03198316606483015260009182918291829189169060840160408051601f198184030181529181526020820180516001600160e01b031663b700961360e01b17905251611a0d9190612774565b600060405180830381855afa9150503d8060008114611a48576040519150601f19603f3d011682016040523d82523d6000602084013e611a4d565b606091505b50915091508115611a9f576040815110611a7f5780806020019051810190611a759190612790565b9094509250611a9f565b6020815110611a9f5780806020019051810190611a9c91906126c8565b93505b505094509492505050565b611ab382611d9b565b6040516001600160a01b038316907fbc7cd75a20ee27fd9adebab32041f755214dbc6bffa90cc0225b39da2e5c2d3b90600090a2805115611af85761074e8282611e00565b61047d611e76565b6000611b54611b126020840184612444565b6001600160a01b031660009081527f5ab42ced628888259c08ac98db1eb0cf702fc1501344311d8b100cd1bfe4bb006020526040902080546001810190915590565b905060007f99c25295d1bb3e46817480e46cfc7a25c83390d727f9229b492f9e53189ff9ef611b866020850185612444565b604080516020818101949094526001600160a01b039092168282015291850135606082015290840135608082015260a0810183905260c0016040516020818303038152906040528051906020012090506000611be182611e95565b90506000611c0882611bf960808801606089016127c8565b87608001358860a00135611ec2565b9050611c1381611ef0565b505050919050565b6000838302816000198587098281108382030391505080600003611c5257838281611c4857611c486127eb565b0492505050611cd9565b808411611c725760405163227bc15360e01b815260040160405180910390fd5b6000848688096000868103871696879004966002600389028118808a02820302808a02820302808a02820302808a02820302808a02820302808a02909103029181900381900460010186841190950394909402919094039290920491909117919091029150505b9392505050565b7ff0c57e16840df040f15088dc2f81fe391c3923bec73e23a9662efc9c229c6a0054600160401b900460ff166104c357604051631afcd79f60e31b815260040160405180910390fd5b611d31611ce0565b6104ae81611227565b611d42611ce0565b60008051602061295e8339815191527fa16a46d94261c7517cc8ff89f61c0ce93598e3c849801011dee649a6a557d102611d7c8482612848565b5060038101611d8b8382612848565b5060008082556001909101555050565b806001600160a01b03163b600003611dd157604051634c9c8ce360e01b81526001600160a01b0382166004820152602401610574565b60008051602061299e83398151915280546001600160a01b0319166001600160a01b0392909216919091179055565b6060600080846001600160a01b031684604051611e1d9190612774565b600060405180830381855af49150503d8060008114611e58576040519150601f19603f3d011682016040523d82523d6000602084013e611e5d565b606091505b5091509150611e6d858383611f6b565b95945050505050565b34156104c35760405163b398979f60e01b815260040160405180910390fd5b600061052e611ea2611fc7565b8360405161190160f01b8152600281019290925260228201526042902090565b600080600080611ed488888888611fd1565b925092509250611ee482826120a0565b50909695505050505050565b7fa3c4f2f291c8b2e507af98f0821c9deaec9b9fc659bd5466e3124818ea0836015460008051602061293e833981519152906001600160a01b03838116911614801590611f4d575060028101546001600160a01b03838116911614155b1561047d57604051631773e24d60e01b815260040160405180910390fd5b606082611f8057611f7b82612159565b611cd9565b8151158015611f9757506001600160a01b0384163b155b15611fc057604051639996b31560e01b81526001600160a01b0385166004820152602401610574565b5080611cd9565b600061048b612182565b600080807f7fffffffffffffffffffffffffffffff5d576e7357a4501ddfe92f46681b20a084111561200c5750600091506003905082612096565b604080516000808252602082018084528a905260ff891692820192909252606081018790526080810186905260019060a0016020604051602081039080840390855afa158015612060573d6000803e3d6000fd5b5050604051601f1901519150506001600160a01b03811661208c57506000925060019150829050612096565b9250600091508190505b9450945094915050565b60008260038111156120b4576120b4612907565b036120bd575050565b60018260038111156120d1576120d1612907565b036120ef5760405163f645eedf60e01b815260040160405180910390fd5b600282600381111561210357612103612907565b036121245760405163fce698f760e01b815260048101829052602401610574565b600382600381111561213857612138612907565b0361047d576040516335e2f38360e21b815260048101829052602401610574565b8051156121695780518082602001fd5b604051630a12f52160e11b815260040160405180910390fd5b60007f8b73c3c69bb8fe3d512ecc4cf759cc79239f7b179b0ffacaa9a75d522b39400f6121ad6121f6565b6121b5612260565b60408051602081019490945283019190915260608201524660808201523060a082015260c00160405160208183030381529060405280519060200120905090565b600060008051602061295e83398151915281612210611281565b80519091501561222857805160209091012092915050565b81548015612237579392505050565b7fc5d2460186f7233c927e7db2dcc703c0e500b653ca82273b7bfad8045d85a470935050505090565b600060008051602061295e8339815191528161227a611344565b80519091501561229257805160209091012092915050565b60018201548015612237579392505050565b6001600160a01b03811681146104ae57600080fd5b80151581146104ae57600080fd5b600080604083850312156122da57600080fd5b82356122e5816122a4565b915060208301356122f5816122b9565b809150509250929050565b60006020828403121561231257600080fd5b8135611cd9816122b9565b60006020828403121561232f57600080fd5b5035919050565b6000806040838503121561234957600080fd5b8235612354816122a4565b946020939093013593505050565b634e487b7160e01b600052604160045260246000fd5b6000806040838503121561238b57600080fd5b8235612396816122a4565b9150602083013567ffffffffffffffff8111156123b257600080fd5b8301601f810185136123c357600080fd5b803567ffffffffffffffff8111156123dd576123dd612362565b604051601f8201601f19908116603f0116810167ffffffffffffffff8111828210171561240c5761240c612362565b60405281815282820160200187101561242457600080fd5b816020840160208301376000602083830101528093505050509250929050565b60006020828403121561245657600080fd5b8135611cd9816122a4565b60005b8381101561247c578181015183820152602001612464565b50506000910152565b6000815180845261249d816020860160208601612461565b601f01601f19169290920160200192915050565b60ff60f81b8816815260e0602082015260006124d060e0830189612485565b82810360408401526124e28189612485565b606084018890526001600160a01b038716608085015260a0840186905283810360c08501528451808252602080870193509091019060005b8181101561253857835183526020938401939092019160010161251a565b50909b9a5050505050505050505050565b602081526000611cd96020830184612485565b600080600083850361010081121561257357600080fd5b60c081121561258157600080fd5b5083925060c0830135915060e083013561259a816122b9565b809150509250925092565b6000806000606084860312156125ba57600080fd5b83356125c5816122a4565b925060208401356125d5816122a4565b9150604084013561259a816122a4565b600080858511156125f557600080fd5b8386111561260257600080fd5b5050820193919092039150565b80356001600160e01b03198116906004841015612640576001600160e01b0319600485900360031b81901b82161691505b5092915050565b6001600160a01b03841681526040602082018190528101829052818360608301376000818301606090810191909152601f909201601f1916010192915050565b60006020828403121561269957600080fd5b8151611cd9816122a4565b6001600160a01b039384168152919092166020820152604081019190915260600190565b6000602082840312156126da57600080fd5b8151611cd9816122b9565b6000602082840312156126f757600080fd5b5051919050565b600181811c9082168061271257607f821691505b60208210810361273257634e487b7160e01b600052602260045260246000fd5b50919050565b634e487b7160e01b600052601160045260246000fd5b8181038181111561052e5761052e612738565b8082018082111561052e5761052e612738565b60008251612786818460208701612461565b9190910192915050565b600080604083850312156127a357600080fd5b82516127ae816122b9565b602084015190925063ffffffff811681146122f557600080fd5b6000602082840312156127da57600080fd5b813560ff81168114611cd957600080fd5b634e487b7160e01b600052601260045260246000fd5b601f82111561074e57806000526020600020601f840160051c810160208510156128285750805b601f840160051c820191505b81811015610ac25760008155600101612834565b815167ffffffffffffffff81111561286257612862612362565b6128768161287084546126fe565b84612801565b6020601f8211600181146128aa57600083156128925750848201515b600019600385901b1c1916600184901b178455610ac2565b600084815260208120601f198516915b828110156128da57878501518255602094850194600190920191016128ba565b50848210156128f85786840151600019600387901b60f8161c191681555b50505050600190811b01905550565b634e487b7160e01b600052602160045260246000fdfef3177357ab46d8af007ab3fdb9af81da189e1068fefdc0073dca88a2cab40a00a3c4f2f291c8b2e507af98f0821c9deaec9b9fc659bd5466e3124818ea083600a16a46d94261c7517cc8ff89f61c0ce93598e3c849801011dee649a6a557d100a3c4f2f291c8b2e507af98f0821c9deaec9b9fc659bd5466e3124818ea083604360894a13ba1a3210667c828492db98dca3e2076cc3735a920a3ca505d382bbca2646970667358221220a836194502838d409db0ba6aa6f587ed824ff08842e6001ae14b906100a507ed64736f6c634300081c0033",
  "linkReferences": {},
  "deployedLinkReferences": {}
}