{
  "_format": "hh-sol-artifact-1",
  "contractName": "OsmiToken",
  "sourceName": "contracts/OsmiToken.sol",
  "abi": [
    {
      "inputs": [],
      "stateMutability": "nonpayable",
      "type": "constructor"
    },
    {
      "inputs": [
        {
          "internalType": "address",
          "name": "authority",
          "type": "address"
        }
      ],
      "name": "AccessManagedInvalidAuthority",
      "type": "error"
    },
    {
      "inputs": [
        {
          "internalType": "address",
          "name": "caller",
          "type": "address"
        },
        {
          "internalType": "uint32",
          "name": "delay",
          "type": "uint32"
        }
      ],
      "name": "AccessManagedRequiredDelay",
      "type": "error"
    },
    {
      "inputs": [
        {
          "internalType": "address",
          "name": "caller",
          "type": "address"
        }
      ],
      "name": "AccessManagedUnauthorized",
      "type": "error"
    },
    {
      "inputs": [
        {
          "internalType": "address",
          "name": "target",
          "type": "address"
        }
      ],
      "name": "AddressEmptyCode",
      "type": "error"
    },
    {
      "inputs": [],
      "name": "ECDSAInvalidSignature",
      "type": "error"
    },
    {
      "inputs": [
        {
          "internalType": "uint256",
          "name": "length",
          "type": "uint256"
        }
      ],
      "name": "ECDSAInvalidSignatureLength",
      "type": "error"
    },
    {
      "inputs": [
        {
          "internalType": "bytes32",
          "name": "s",
          "type": "bytes32"
        }
      ],
      "name": "ECDSAInvalidSignatureS",
      "type": "error"
    },
    {
      "inputs": [
        {
          "internalType": "address",
          "name": "implementation",
          "type": "address"
        }
      ],
      "name": "ERC1967InvalidImplementation",
      "type": "error"
    },
    {
      "inputs": [],
      "name": "ERC1967NonPayable",
      "type": "error"
    },
    {
      "inputs": [
        {
          "internalType": "uint256",
          "name": "increasedSupply",
          "type": "uint256"
        },
        {
          "internalType": "uint256",
          "name": "cap",
          "type": "uint256"
        }
      ],
      "name": "ERC20ExceededCap",
      "type": "error"
    },
    {
      "inputs": [
        {
          "internalType": "address",
          "name": "spender",
          "type": "address"
        },
        {
          "internalType": "uint256",
          "name": "allowance",
          "type": "uint256"
        },
        {
          "internalType": "uint256",
          "name": "needed",
          "type": "uint256"
        }
      ],
      "name": "ERC20InsufficientAllowance",
      "type": "error"
    },
    {
      "inputs": [
        {
          "internalType": "address",
          "name": "sender",
          "type": "address"
        },
        {
          "internalType": "uint256",
          "name": "balance",
          "type": "uint256"
        },
        {
          "internalType": "uint256",
          "name": "needed",
          "type": "uint256"
        }
      ],
      "name": "ERC20InsufficientBalance",
      "type": "error"
    },
    {
      "inputs": [
        {
          "internalType": "address",
          "name": "approver",
          "type": "address"
        }
      ],
      "name": "ERC20InvalidApprover",
      "type": "error"
    },
    {
      "inputs": [
        {
          "internalType": "uint256",
          "name": "cap",
          "type": "uint256"
        }
      ],
      "name": "ERC20InvalidCap",
      "type": "error"
    },
    {
      "inputs": [
        {
          "internalType": "address",
          "name": "receiver",
          "type": "address"
        }
      ],
      "name": "ERC20InvalidReceiver",
      "type": "error"
    },
    {
      "inputs": [
        {
          "internalType": "address",
          "name": "sender",
          "type": "address"
        }
      ],
      "name": "ERC20InvalidSender",
      "type": "error"
    },
    {
      "inputs": [
        {
          "internalType": "address",
          "name": "spender",
          "type": "address"
        }
      ],
      "name": "ERC20InvalidSpender",
      "type": "error"
    },
    {
      "inputs": [
        {
          "internalType": "uint256",
          "name": "deadline",
          "type": "uint256"
        }
      ],
      "name": "ERC2612ExpiredSignature",
      "type": "error"
    },
    {
      "inputs": [
        {
          "internalType": "address",
          "name": "signer",
          "type": "address"
        },
        {
          "internalType": "address",
          "name": "owner",
          "type": "address"
        }
      ],
      "name": "ERC2612InvalidSigner",
      "type": "error"
    },
    {
      "inputs": [],
      "name": "FailedInnerCall",
      "type": "error"
    },
    {
      "inputs": [
        {
          "internalType": "address",
          "name": "account",
          "type": "address"
        },
        {
          "internalType": "uint256",
          "name": "currentNonce",
          "type": "uint256"
        }
      ],
      "name": "InvalidAccountNonce",
      "type": "error"
    },
    {
      "inputs": [],
      "name": "InvalidInitialization",
      "type": "error"
    },
    {
      "inputs": [],
      "name": "NotInitializing",
      "type": "error"
    },
    {
      "inputs": [],
      "name": "UUPSUnauthorizedCallContext",
      "type": "error"
    },
    {
      "inputs": [
        {
          "internalType": "bytes32",
          "name": "slot",
          "type": "bytes32"
        }
      ],
      "name": "UUPSUnsupportedProxiableUUID",
      "type": "error"
    },
    {
      "anonymous": false,
      "inputs": [
        {
          "indexed": true,
          "internalType": "address",
          "name": "owner",
          "type": "address"
        },
        {
          "indexed": true,
          "internalType": "address",
          "name": "spender",
          "type": "address"
        },
        {
          "indexed": false,
          "internalType": "uint256",
          "name": "value",
          "type": "uint256"
        }
      ],
      "name": "Approval",
      "type": "event"
    },
    {
      "anonymous": false,
      "inputs": [
        {
          "indexed": false,
          "internalType": "address",
          "name": "authority",
          "type": "address"
        }
      ],
      "name": "AuthorityUpdated",
      "type": "event"
    },
    {
      "anonymous": false,
      "inputs": [],
      "name": "EIP712DomainChanged",
      "type": "event"
    },
    {
      "anonymous": false,
      "inputs": [
        {
          "indexed": false,
          "internalType": "uint64",
          "name": "version",
          "type": "uint64"
        }
      ],
      "name": "Initialized",
      "type": "event"
    },
    {
      "anonymous": false,
      "inputs": [
        {
          "indexed": true,
          "internalType": "address",
          "name": "from",
          "type": "address"
        },
        {
          "indexed": true,
          "internalType": "address",
          "name": "to",
          "type": "address"
        },
        {
          "indexed": false,
          "internalType": "uint256",
          "name": "value",
          "type": "uint256"
        }
      ],
      "name": "Transfer",
      "type": "event"
    },
    {
      "anonymous": false,
      "inputs": [
        {
          "indexed": true,
          "internalType": "address",
          "name": "implementation",
          "type": "address"
        }
      ],
      "name": "Upgraded",
      "type": "event"
    },
    {
      "inputs": [],
      "name": "DOMAIN_SEPARATOR",
      "outputs": [
        {
          "internalType": "bytes32",
          "name": "",
          "type": "bytes32"
        }
      ],
      "stateMutability": "view",
      "type": "function"
    },
    {
      "inputs": [],
      "name": "UPGRADE_INTERFACE_VERSION",
      "outputs": [
        {
          "internalType": "string",
          "name": "",
          "type": "string"
        }
      ],
      "stateMutability": "view",
      "type": "function"
    },
    {
      "inputs": [
        {
          "internalType": "address",
          "name": "owner",
          "type": "address"
        },
        {
          "internalType": "address",
          "name": "spender",
          "type": "address"
        }
      ],
      "name": "allowance",
      "outputs": [
        {
          "internalType": "uint256",
          "name": "",
          "type": "uint256"
        }
      ],
      "stateMutability": "view",
      "type": "function"
    },
    {
      "inputs": [
        {
          "internalType": "address",
          "name": "spender",
          "type": "address"
        },
        {
          "internalType": "uint256",
          "name": "value",
          "type": "uint256"
        }
      ],
      "name": "approve",
      "outputs": [
        {
          "internalType": "bool",
          "name": "",
          "type": "bool"
        }
      ],
      "stateMutability": "nonpayable",
      "type": "function"
    },
    {
      "inputs": [],
      "name": "authority",
      "outputs": [
        {
          "internalType": "address",
          "name": "",
          "type": "address"
        }
      ],
      "stateMutability": "view",
      "type": "function"
    },
    {
      "inputs": [
        {
          "internalType": "address",
          "name": "account",
          "type": "address"
        }
      ],
      "name": "balanceOf",
      "outputs": [
        {
          "internalType": "uint256",
          "name": "",
          "type": "uint256"
        }
      ],
      "stateMutability": "view",
      "type": "function"
    },
    {
      "inputs": [
        {
          "internalType": "uint256",
          "name": "value",
          "type": "uint256"
        }
      ],
      "name": "burn",
      "outputs": [],
      "stateMutability": "nonpayable",
      "type": "function"
    },
    {
      "inputs": [
        {
          "internalType": "address",
          "name": "account",
          "type": "address"
        },
        {
          "internalType": "uint256",
          "name": "value",
          "type": "uint256"
        }
      ],
      "name": "burnFrom",
      "outputs": [],
      "stateMutability": "nonpayable",
      "type": "function"
    },
    {
      "inputs": [],
      "name": "cap",
      "outputs": [
        {
          "internalType": "uint256",
          "name": "",
          "type": "uint256"
        }
      ],
      "stateMutability": "view",
      "type": "function"
    },
    {
      "inputs": [],
      "name": "decimals",
      "outputs": [
        {
          "internalType": "uint8",
          "name": "",
          "type": "uint8"
        }
      ],
      "stateMutability": "view",
      "type": "function"
    },
    {
      "inputs": [],
      "name": "eip712Domain",
      "outputs": [
        {
          "internalType": "bytes1",
          "name": "fields",
          "type": "bytes1"
        },
        {
          "internalType": "string",
          "name": "name",
          "type": "string"
        },
        {
          "internalType": "string",
          "name": "version",
          "type": "string"
        },
        {
          "internalType": "uint256",
          "name": "chainId",
          "type": "uint256"
        },
        {
          "internalType": "address",
          "name": "verifyingContract",
          "type": "address"
        },
        {
          "internalType": "bytes32",
          "name": "salt",
          "type": "bytes32"
        },
        {
          "internalType": "uint256[]",
          "name": "extensions",
          "type": "uint256[]"
        }
      ],
      "stateMutability": "view",
      "type": "function"
    },
    {
      "inputs": [
        {
          "internalType": "address",
          "name": "initialAuthority",
          "type": "address"
        }
      ],
      "name": "initialize",
      "outputs": [],
      "stateMutability": "nonpayable",
      "type": "function"
    },
    {
      "inputs": [],
      "name": "isConsumingScheduledOp",
      "outputs": [
        {
          "internalType": "bytes4",
          "name": "",
          "type": "bytes4"
        }
      ],
      "stateMutability": "view",
      "type": "function"
    },
    {
      "inputs": [
        {
          "internalType": "address",
          "name": "to",
          "type": "address"
        },
        {
          "internalType": "uint256",
          "name": "amount",
          "type": "uint256"
        }
      ],
      "name": "mint",
      "outputs": [],
      "stateMutability": "nonpayable",
      "type": "function"
    },
    {
      "inputs": [],
      "name": "name",
      "outputs": [
        {
          "internalType": "string",
          "name": "",
          "type": "string"
        }
      ],
      "stateMutability": "view",
      "type": "function"
    },
    {
      "inputs": [
        {
          "internalType": "address",
          "name": "owner",
          "type": "address"
        }
      ],
      "name": "nonces",
      "outputs": [
        {
          "internalType": "uint256",
          "name": "",
          "type": "uint256"
        }
      ],
      "stateMutability": "view",
      "type": "function"
    },
    {
      "inputs": [
        {
          "internalType": "address",
          "name": "owner",
          "type": "address"
        },
        {
          "internalType": "address",
          "name": "spender",
          "type": "address"
        },
        {
          "internalType": "uint256",
          "name": "value",
          "type": "uint256"
        },
        {
          "internalType": "uint256",
          "name": "deadline",
          "type": "uint256"
        },
        {
          "internalType": "uint8",
          "name": "v",
          "type": "uint8"
        },
        {
          "internalType": "bytes32",
          "name": "r",
          "type": "bytes32"
        },
        {
          "internalType": "bytes32",
          "name": "s",
          "type": "bytes32"
        }
      ],
      "name": "permit",
      "outputs": [],
      "stateMutability": "nonpayable",
      "type": "function"
    },
    {
      "inputs": [],
      "name": "proxiableUUID",
      "outputs": [
        {
          "internalType": "bytes32",
          "name": "",
          "type": "bytes32"
        }
      ],
      "stateMutability": "view",
      "type": "function"
    },
    {
      "inputs": [
        {
          "internalType": "address",
          "name": "newAuthority",
          "type": "address"
        }
      ],
      "name": "setAuthority",
      "outputs": [],
      "stateMutability": "nonpayable",
      "type": "function"
    },
    {
      "inputs": [],
      "name": "symbol",
      "outputs": [
        {
          "internalType": "string",
          "name": "",
          "type": "string"
        }
      ],
      "stateMutability": "view",
      "type": "function"
    },
    {
      "inputs": [],
      "name": "totalSupply",
      "outputs": [
        {
          "internalType": "uint256",
          "name": "",
          "type": "uint256"
        }
      ],
      "stateMutability": "view",
      "type": "function"
    },
    {
      "inputs": [
        {
          "internalType": "address",
          "name": "to",
          "type": "address"
        },
        {
          "internalType": "uint256",
          "name": "value",
          "type": "uint256"
        }
      ],
      "name": "transfer",
      "outputs": [
        {
          "internalType": "bool",
          "name": "",
          "type": "bool"
        }
      ],
      "stateMutability": "nonpayable",
      "type": "function"
    },
    {
      "inputs": [
        {
          "internalType": "address",
          "name": "from",
          "type": "address"
        },
        {
          "internalType": "address",
          "name": "to",
          "type": "address"
        },
        {
          "internalType": "uint256",
          "name": "value",
          "type": "uint256"
        }
      ],
      "name": "transferFrom",
      "outputs": [
        {
          "internalType": "bool",
          "name": "",
          "type": "bool"
        }
      ],
      "stateMutability": "nonpayable",
      "type": "function"
    },
    {
      "inputs": [
        {
          "internalType": "address",
          "name": "newImplementation",
          "type": "address"
        },
        {
          "internalType": "bytes",
          "name": "data",
          "type": "bytes"
        }
      ],
      "name": "upgradeToAndCall",
      "outputs": [],
      "stateMutability": "payable",
      "type": "function"
    }
  ],
  "bytecode": "0x60a06040523060805234801561001457600080fd5b5061001d610022565b6100d4565b7ff0c57e16840df040f15088dc2f81fe391c3923bec73e23a9662efc9c229c6a00805468010000000000000000900460ff16156100725760405163f92ee8a960e01b815260040160405180910390fd5b80546001600160401b03908116146100d15780546001600160401b0319166001600160401b0390811782556040519081527fc7f505b2f371ae2175ee4913f4499e1f2633a7b5936321eed1cdaeb6115181d29060200160405180910390a15b50565b60805161231e6100fd60003960008181610bd601528181610bff0152610d48015261231e6000f3fe60806040526004361061014b5760003560e01c806379cc6790116100b6578063a9059cbb1161006f578063a9059cbb146103c3578063ad3cb1cc146103e3578063bf7e214f14610414578063c4d66de814610441578063d505accf14610461578063dd62ed3e1461048157600080fd5b806379cc6790146102f85780637a9e5e4b146103185780637ecebe001461033857806384b0196e146103585780638fb360371461038057806395d89b41146103ae57600080fd5b80633644e515116101085780633644e5151461025957806340c10f191461026e57806342966c68146102905780634f1ef286146102b057806352d1902d146102c357806370a08231146102d857600080fd5b806306fdde0314610150578063095ea7b31461017b57806318160ddd146101ab57806323b872dd146101e9578063313ce56714610209578063355274ea14610225575b600080fd5b34801561015c57600080fd5b506101656104a1565b6040516101729190611bb2565b60405180910390f35b34801561018757600080fd5b5061019b610196366004611be1565b61054a565b6040519015158152602001610172565b3480156101b757600080fd5b507f52c63247e1f47db19d5ce0460030c497f067ca4cebf71ba98eeadabe20bace02545b604051908152602001610172565b3480156101f557600080fd5b5061019b610204366004611c0b565b61056c565b34801561021557600080fd5b5060405160128152602001610172565b34801561023157600080fd5b507f0f070392f17d5f958cc1ac31867dabecfc5c9758b4a419a200803226d7155d00546101db565b34801561026557600080fd5b506101db61058c565b34801561027a57600080fd5b5061028e610289366004611be1565b61059b565b005b34801561029c57600080fd5b5061028e6102ab366004611c48565b6105b2565b61028e6102be366004611c77565b6105c7565b3480156102cf57600080fd5b506101db6105e2565b3480156102e457600080fd5b506101db6102f3366004611d41565b6105ff565b34801561030457600080fd5b5061028e610313366004611be1565b610632565b34801561032457600080fd5b5061028e610333366004611d41565b610645565b34801561034457600080fd5b506101db610353366004611d41565b6106cd565b34801561036457600080fd5b5061036d6106d8565b6040516101729796959493929190611d5c565b34801561038c57600080fd5b50610395610784565b6040516001600160e01b03199091168152602001610172565b3480156103ba57600080fd5b506101656107bd565b3480156103cf57600080fd5b5061019b6103de366004611be1565b6107fc565b3480156103ef57600080fd5b50610165604051806040016040528060058152602001640352e302e360dc1b81525081565b34801561042057600080fd5b50610429610811565b6040516001600160a01b039091168152602001610172565b34801561044d57600080fd5b5061028e61045c366004611d41565b61082d565b34801561046d57600080fd5b5061028e61047c366004611df4565b6109dc565b34801561048d57600080fd5b506101db61049c366004611e67565b6109fd565b606060006000805160206122898339815191525b90508060030180546104c690611e9a565b80601f01602080910402602001604051908101604052809291908181526020018280546104f290611e9a565b801561053f5780601f106105145761010080835404028352916020019161053f565b820191906000526020600020905b81548152906001019060200180831161052257829003601f168201915b505050505091505090565b6000610559335b600036610a47565b6105638383610b45565b90505b92915050565b600061057733610551565b610582848484610b5d565b90505b9392505050565b6000610596610b81565b905090565b6105a433610551565b6105ae8282610b8b565b5050565b6105bb33610551565b6105c481610bc1565b50565b6105cf610bcb565b6105d882610c72565b6105ae8282610c7b565b60006105ec610d3d565b506000805160206122c983398151915290565b6000806000805160206122898339815191525b6001600160a01b0390931660009081526020939093525050604090205490565b61063b33610551565b6105ae8282610d86565b3361064e610811565b6001600160a01b0316816001600160a01b03161461068e5760405162d1953b60e31b81526001600160a01b03821660048201526024015b60405180910390fd5b816001600160a01b03163b6000036106c4576040516361798f2f60e11b81526001600160a01b0383166004820152602401610685565b6105ae82610d9b565b600061056682610dfc565b600060608082808083816000805160206122a9833981519152805490915015801561070557506001810154155b6107495760405162461bcd60e51b81526020600482015260156024820152741152540dcc4c8e88155b9a5b9a5d1a585b1a5e9959605a1b6044820152606401610685565b610751610e25565b610759610e64565b60408051600080825260208201909252600f60f81b9c939b5091995046985030975095509350915050565b600080516020612269833981519152805460009190600160a01b900460ff166107ae5760006107b7565b638fb3603760e01b5b91505090565b7f52c63247e1f47db19d5ce0460030c497f067ca4cebf71ba98eeadabe20bace048054606091600080516020612289833981519152916104c690611e9a565b600061080733610551565b6105638383610e7c565b600080516020612269833981519152546001600160a01b031690565b7ff0c57e16840df040f15088dc2f81fe391c3923bec73e23a9662efc9c229c6a008054600160401b810460ff16159067ffffffffffffffff166000811580156108735750825b905060008267ffffffffffffffff1660011480156108905750303b155b90508115801561089e575080155b156108bc5760405163f92ee8a960e01b815260040160405180910390fd5b845467ffffffffffffffff1916600117855583156108e657845460ff60401b1916600160401b1785555b61092b604051806040016040528060078152602001664f736d6920414960c81b815250604051806040016040528060048152602001634f534d4960e01b815250610e8a565b610933610e9c565b6109556109426012600a611fd1565b61095090633b9aca00611fe0565b610ea4565b61095e86610eb5565b610986604051806040016040528060078152602001664f736d6920414960c81b815250610ec6565b61098e610e9c565b83156109d457845460ff60401b19168555604051600181527fc7f505b2f371ae2175ee4913f4499e1f2633a7b5936321eed1cdaeb6115181d29060200160405180910390a15b505050505050565b6109e533610551565b6109f487878787878787610ef1565b50505050505050565b6001600160a01b0391821660009081527f52c63247e1f47db19d5ce0460030c497f067ca4cebf71ba98eeadabe20bace016020908152604080832093909416825291909152205490565b600080516020612269833981519152600080610a82610a64610811565b8730610a74600460008a8c611ff7565b610a7d91612021565b61104a565b91509150816109d45763ffffffff811615610b2257825460ff60a01b1916600160a01b178355610ab0610811565b6001600160a01b03166394c7d7ee8787876040518463ffffffff1660e01b8152600401610adf93929190612059565b600060405180830381600087803b158015610af957600080fd5b505af1158015610b0d573d6000803e3d6000fd5b5050845460ff60a01b19168555506109d49050565b60405162d1953b60e31b81526001600160a01b0387166004820152602401610685565b600033610b53818585611156565b5060019392505050565b600033610b6b858285611163565b610b768585856111c9565b506001949350505050565b6000610596611228565b6001600160a01b038216610bb55760405163ec442f0560e01b815260006004820152602401610685565b6105ae6000838361129c565b6105c433826112a7565b306001600160a01b037f0000000000000000000000000000000000000000000000000000000000000000161480610c5257507f00000000000000000000000000000000000000000000000000000000000000006001600160a01b0316610c466000805160206122c9833981519152546001600160a01b031690565b6001600160a01b031614155b15610c705760405163703e46dd60e11b815260040160405180910390fd5b565b6105c433610551565b816001600160a01b03166352d1902d6040518163ffffffff1660e01b8152600401602060405180830381865afa925050508015610cd5575060408051601f3d908101601f19168201909252610cd291810190612099565b60015b610cfd57604051634c9c8ce360e01b81526001600160a01b0383166004820152602401610685565b6000805160206122c98339815191528114610d2e57604051632a87526960e21b815260048101829052602401610685565b610d3883836112dd565b505050565b306001600160a01b037f00000000000000000000000000000000000000000000000000000000000000001614610c705760405163703e46dd60e11b815260040160405180910390fd5b610d91823383611163565b6105ae82826112a7565b60008051602061226983398151915280546001600160a01b0383166001600160a01b03199091168117825560408051918252517f2f658b440c35314f52658ea8a740e05b284cdc84dc9ae01e891f21b8933e7cad9181900360200190a15050565b6000807f5ab42ced628888259c08ac98db1eb0cf702fc1501344311d8b100cd1bfe4bb00610612565b7fa16a46d94261c7517cc8ff89f61c0ce93598e3c849801011dee649a6a557d10280546060916000805160206122a9833981519152916104c690611e9a565b606060006000805160206122a98339815191526104b5565b600033610b538185856111c9565b610e92611333565b6105ae828261137c565b610c70611333565b610eac611333565b6105c4816113cd565b610ebd611333565b6105c48161141e565b610ece611333565b6105c481604051806040016040528060018152602001603160f81b81525061142f565b83421115610f155760405163313c898160e11b815260048101859052602401610685565b60007f6e71edae12b1b97f4d1f60370fef10105fa2faae0126114a169c64845d6126c9888888610f818c6001600160a01b031660009081527f5ab42ced628888259c08ac98db1eb0cf702fc1501344311d8b100cd1bfe4bb006020526040902080546001810190915590565b6040805160208101969096526001600160a01b0394851690860152929091166060840152608083015260a082015260c0810186905260e0016040516020818303038152906040528051906020012090506000610fdc82611490565b90506000610fec828787876114bd565b9050896001600160a01b0316816001600160a01b031614611033576040516325c0072360e11b81526001600160a01b0380831660048301528b166024820152604401610685565b61103e8a8a8a611156565b50505050505050505050565b6040516001600160a01b03848116602483015283811660448301526001600160e01b03198316606483015260009182918291829189169060840160408051601f198184030181529181526020820180516001600160e01b031663b700961360e01b179052516110b991906120b2565b600060405180830381855afa9150503d80600081146110f4576040519150601f19603f3d011682016040523d82523d6000602084013e6110f9565b606091505b5091509150811561114b57604081511061112b578080602001905181019061112191906120de565b909450925061114b565b602081511061114b5780806020019051810190611148919061211e565b93505b505094509492505050565b610d3883838360016114eb565b600061116f84846109fd565b905060001981146111c357818110156111b457604051637dc7a0d960e11b81526001600160a01b03841660048201526024810182905260448101839052606401610685565b6111c3848484840360006114eb565b50505050565b6001600160a01b0383166111f357604051634b637e8f60e11b815260006004820152602401610685565b6001600160a01b03821661121d5760405163ec442f0560e01b815260006004820152602401610685565b610d3883838361129c565b60007f8b73c3c69bb8fe3d512ecc4cf759cc79239f7b179b0ffacaa9a75d522b39400f6112536115d3565b61125b61163d565b60408051602081019490945283019190915260608201524660808201523060a082015260c00160405160208183030381529060405280519060200120905090565b610d38838383611681565b6001600160a01b0382166112d157604051634b637e8f60e11b815260006004820152602401610685565b6105ae8260008361129c565b6112e68261171d565b6040516001600160a01b038316907fbc7cd75a20ee27fd9adebab32041f755214dbc6bffa90cc0225b39da2e5c2d3b90600090a280511561132b57610d388282611782565b6105ae6117f8565b7ff0c57e16840df040f15088dc2f81fe391c3923bec73e23a9662efc9c229c6a0054600160401b900460ff16610c7057604051631afcd79f60e31b815260040160405180910390fd5b611384611333565b6000805160206122898339815191527f52c63247e1f47db19d5ce0460030c497f067ca4cebf71ba98eeadabe20bace036113be8482612180565b50600481016111c38382612180565b6113d5611333565b7f0f070392f17d5f958cc1ac31867dabecfc5c9758b4a419a200803226d7155d00600082900361141b5760405163392e1e2760e01b815260006004820152602401610685565b55565b611426611333565b6105c481610d9b565b611437611333565b6000805160206122a98339815191527fa16a46d94261c7517cc8ff89f61c0ce93598e3c849801011dee649a6a557d1026114718482612180565b50600381016114808382612180565b5060008082556001909101555050565b600061056661149d610b81565b8360405161190160f01b8152600281019290925260228201526042902090565b6000806000806114cf88888888611817565b9250925092506114df82826118e6565b50909695505050505050565b6000805160206122898339815191526001600160a01b0385166115245760405163e602df0560e01b815260006004820152602401610685565b6001600160a01b03841661154e57604051634a1406b160e11b815260006004820152602401610685565b6001600160a01b038086166000908152600183016020908152604080832093881683529290522083905581156115cc57836001600160a01b0316856001600160a01b03167f8c5be1e5ebec7d5bd14f71427d1e84f3dd0314c0f7b2291e5b200ac8c7c3b925856040516115c391815260200190565b60405180910390a35b5050505050565b60006000805160206122a9833981519152816115ed610e25565b80519091501561160557805160209091012092915050565b81548015611614579392505050565b7fc5d2460186f7233c927e7db2dcc703c0e500b653ca82273b7bfad8045d85a470935050505090565b60006000805160206122a983398151915281611657610e64565b80519091501561166f57805160209091012092915050565b60018201548015611614579392505050565b61168c83838361199f565b6001600160a01b038316610d385760006116c47f0f070392f17d5f958cc1ac31867dabecfc5c9758b4a419a200803226d7155d005490565b905060006116f07f52c63247e1f47db19d5ce0460030c497f067ca4cebf71ba98eeadabe20bace025490565b9050818111156115cc5760405163279e7e1560e21b81526004810182905260248101839052604401610685565b806001600160a01b03163b60000361175357604051634c9c8ce360e01b81526001600160a01b0382166004820152602401610685565b6000805160206122c983398151915280546001600160a01b0319166001600160a01b0392909216919091179055565b6060600080846001600160a01b03168460405161179f91906120b2565b600060405180830381855af49150503d80600081146117da576040519150601f19603f3d011682016040523d82523d6000602084013e6117df565b606091505b50915091506117ef858383611add565b95945050505050565b3415610c705760405163b398979f60e01b815260040160405180910390fd5b600080807f7fffffffffffffffffffffffffffffff5d576e7357a4501ddfe92f46681b20a084111561185257506000915060039050826118dc565b604080516000808252602082018084528a905260ff891692820192909252606081018790526080810186905260019060a0016020604051602081039080840390855afa1580156118a6573d6000803e3d6000fd5b5050604051601f1901519150506001600160a01b0381166118d2575060009250600191508290506118dc565b9250600091508190505b9450945094915050565b60008260038111156118fa576118fa61223f565b03611903575050565b60018260038111156119175761191761223f565b036119355760405163f645eedf60e01b815260040160405180910390fd5b60028260038111156119495761194961223f565b0361196a5760405163fce698f760e01b815260048101829052602401610685565b600382600381111561197e5761197e61223f565b036105ae576040516335e2f38360e21b815260048101829052602401610685565b6000805160206122898339815191526001600160a01b0384166119db57818160020160008282546119d09190612255565b90915550611a4d9050565b6001600160a01b03841660009081526020829052604090205482811015611a2e5760405163391434e360e21b81526001600160a01b03861660048201526024810182905260448101849052606401610685565b6001600160a01b03851660009081526020839052604090209083900390555b6001600160a01b038316611a6b576002810180548390039055611a8a565b6001600160a01b03831660009081526020829052604090208054830190555b826001600160a01b0316846001600160a01b03167fddf252ad1be2c89b69c2b068fc378daa952ba7f163c4a11628f55a4df523b3ef84604051611acf91815260200190565b60405180910390a350505050565b606082611af257611aed82611b39565b610585565b8151158015611b0957506001600160a01b0384163b155b15611b3257604051639996b31560e01b81526001600160a01b0385166004820152602401610685565b5080610585565b805115611b495780518082602001fd5b604051630a12f52160e11b815260040160405180910390fd5b60005b83811015611b7d578181015183820152602001611b65565b50506000910152565b60008151808452611b9e816020860160208601611b62565b601f01601f19169290920160200192915050565b6020815260006105636020830184611b86565b80356001600160a01b0381168114611bdc57600080fd5b919050565b60008060408385031215611bf457600080fd5b611bfd83611bc5565b946020939093013593505050565b600080600060608486031215611c2057600080fd5b611c2984611bc5565b9250611c3760208501611bc5565b929592945050506040919091013590565b600060208284031215611c5a57600080fd5b5035919050565b634e487b7160e01b600052604160045260246000fd5b60008060408385031215611c8a57600080fd5b611c9383611bc5565b9150602083013567ffffffffffffffff811115611caf57600080fd5b8301601f81018513611cc057600080fd5b803567ffffffffffffffff811115611cda57611cda611c61565b604051601f8201601f19908116603f0116810167ffffffffffffffff81118282101715611d0957611d09611c61565b604052818152828201602001871015611d2157600080fd5b816020840160208301376000602083830101528093505050509250929050565b600060208284031215611d5357600080fd5b61056382611bc5565b60ff60f81b8816815260e060208201526000611d7b60e0830189611b86565b8281036040840152611d8d8189611b86565b606084018890526001600160a01b038716608085015260a0840186905283810360c08501528451808252602080870193509091019060005b81811015611de3578351835260209384019390920191600101611dc5565b50909b9a5050505050505050505050565b600080600080600080600060e0888a031215611e0f57600080fd5b611e1888611bc5565b9650611e2660208901611bc5565b95506040880135945060608801359350608088013560ff81168114611e4a57600080fd5b9699959850939692959460a0840135945060c09093013592915050565b60008060408385031215611e7a57600080fd5b611e8383611bc5565b9150611e9160208401611bc5565b90509250929050565b600181811c90821680611eae57607f821691505b602082108103611ece57634e487b7160e01b600052602260045260246000fd5b50919050565b634e487b7160e01b600052601160045260246000fd5b6001815b6001841115611f2557808504811115611f0957611f09611ed4565b6001841615611f1757908102905b60019390931c928002611eee565b935093915050565b600082611f3c57506001610566565b81611f4957506000610566565b8160018114611f5f5760028114611f6957611f85565b6001915050610566565b60ff841115611f7a57611f7a611ed4565b50506001821b610566565b5060208310610133831016604e8410600b8410161715611fa8575081810a610566565b611fb56000198484611eea565b8060001904821115611fc957611fc9611ed4565b029392505050565b600061056360ff841683611f2d565b808202811582820484141761056657610566611ed4565b6000808585111561200757600080fd5b8386111561201457600080fd5b5050820193919092039150565b80356001600160e01b03198116906004841015612052576001600160e01b0319600485900360031b81901b82161691505b5092915050565b6001600160a01b03841681526040602082018190528101829052818360608301376000818301606090810191909152601f909201601f1916010192915050565b6000602082840312156120ab57600080fd5b5051919050565b600082516120c4818460208701611b62565b9190910192915050565b80518015158114611bdc57600080fd5b600080604083850312156120f157600080fd5b6120fa836120ce565b9150602083015163ffffffff8116811461211357600080fd5b809150509250929050565b60006020828403121561213057600080fd5b610563826120ce565b601f821115610d3857806000526020600020601f840160051c810160208510156121605750805b601f840160051c820191505b818110156115cc576000815560010161216c565b815167ffffffffffffffff81111561219a5761219a611c61565b6121ae816121a88454611e9a565b84612139565b6020601f8211600181146121e257600083156121ca5750848201515b600019600385901b1c1916600184901b1784556115cc565b600084815260208120601f198516915b8281101561221257878501518255602094850194600190920191016121f2565b50848210156122305786840151600019600387901b60f8161c191681555b50505050600190811b01905550565b634e487b7160e01b600052602160045260246000fd5b8082018082111561056657610566611ed456fef3177357ab46d8af007ab3fdb9af81da189e1068fefdc0073dca88a2cab40a0052c63247e1f47db19d5ce0460030c497f067ca4cebf71ba98eeadabe20bace00a16a46d94261c7517cc8ff89f61c0ce93598e3c849801011dee649a6a557d100360894a13ba1a3210667c828492db98dca3e2076cc3735a920a3ca505d382bbca264697066735822122005b8aec2bab2fc5716987bd569d4840895b6abd0e312c50a53dffba61a4557db64736f6c634300081c0033",
  "linkReferences": {},
  "deployedLinkReferences": {}
}