{
  "_format": "hh-sol-artifact-1",
  "contractName": "OsmiConfig",
  "sourceName": "contracts/OsmiConfig.sol",
  "abi": [
    {
      "inputs": [],
      "stateMutability": "nonpayable",
      "type": "constructor"
    },
    {
      "inputs": [
        {
          "internalType": "address",
          "name": "authority",
          "type": "address"
        }
      ],
      "name": "AccessManagedInvalidAuthority",
      "type": "error"
    },
    {
      "inputs": [
        {
          "internalType": "address",
          "name": "caller",
          "type": "address"
        },
        {
          "internalType": "uint32",
          "name": "delay",
          "type": "uint32"
        }
      ],
      "name": "AccessManagedRequiredDelay",
      "type": "error"
    },
    {
      "inputs": [
        {
          "internalType": "address",
          "name": "caller",
          "type": "address"
        }
      ],
      "name": "AccessManagedUnauthorized",
      "type": "error"
    },
    {
      "inputs": [
        {
          "internalType": "address",
          "name": "target",
          "type": "address"
        }
      ],
      "name": "AddressEmptyCode",
      "type": "error"
    },
    {
      "inputs": [
        {
          "internalType": "address",
          "name": "implementation",
          "type": "address"
        }
      ],
      "name": "ERC1967InvalidImplementation",
      "type": "error"
    },
    {
      "inputs": [],
      "name": "ERC1967NonPayable",
      "type": "error"
    },
    {
      "inputs": [],
      "name": "FailedInnerCall",
      "type": "error"
    },
    {
      "inputs": [],
      "name": "InvalidInitialization",
      "type": "error"
    },
    {
      "inputs": [],
      "name": "NoDailyDistributionContract",
      "type": "error"
    },
    {
      "inputs": [],
      "name": "NoDistributionManagerContract",
      "type": "error"
    },
    {
      "inputs": [],
      "name": "NoNodeContract",
      "type": "error"
    },
    {
      "inputs": [],
      "name": "NoNodeFactoryContract",
      "type": "error"
    },
    {
      "inputs": [],
      "name": "NoNodeRewardPool",
      "type": "error"
    },
    {
      "inputs": [],
      "name": "NoStakingContract",
      "type": "error"
    },
    {
      "inputs": [],
      "name": "NoStakingPool",
      "type": "error"
    },
    {
      "inputs": [],
      "name": "NoTokenContract",
      "type": "error"
    },
    {
      "inputs": [],
      "name": "NotInitializing",
      "type": "error"
    },
    {
      "inputs": [],
      "name": "UUPSUnauthorizedCallContext",
      "type": "error"
    },
    {
      "inputs": [
        {
          "internalType": "bytes32",
          "name": "slot",
          "type": "bytes32"
        }
      ],
      "name": "UUPSUnsupportedProxiableUUID",
      "type": "error"
    },
    {
      "anonymous": false,
      "inputs": [
        {
          "indexed": false,
          "internalType": "address",
          "name": "authority",
          "type": "address"
        }
      ],
      "name": "AuthorityUpdated",
      "type": "event"
    },
    {
      "anonymous": false,
      "inputs": [
        {
          "indexed": false,
          "internalType": "contract IOsmiDailyDistribution",
          "name": "v",
          "type": "address"
        }
      ],
      "name": "DailyDistributionContractChanged",
      "type": "event"
    },
    {
      "anonymous": false,
      "inputs": [
        {
          "indexed": false,
          "internalType": "contract IOsmiDistributionManager",
          "name": "v",
          "type": "address"
        }
      ],
      "name": "DistributionManagerContractChanged",
      "type": "event"
    },
    {
      "anonymous": false,
      "inputs": [
        {
          "indexed": false,
          "internalType": "uint64",
          "name": "version",
          "type": "uint64"
        }
      ],
      "name": "Initialized",
      "type": "event"
    },
    {
      "anonymous": false,
      "inputs": [
        {
          "indexed": false,
          "internalType": "contract IOsmiNode",
          "name": "v",
          "type": "address"
        }
      ],
      "name": "NodeContractChanged",
      "type": "event"
    },
    {
      "anonymous": false,
      "inputs": [
        {
          "indexed": false,
          "internalType": "contract IOsmiNodeFactory",
          "name": "v",
          "type": "address"
        }
      ],
      "name": "NodeFactoryContractChanged",
      "type": "event"
    },
    {
      "anonymous": false,
      "inputs": [
        {
          "indexed": false,
          "internalType": "address",
          "name": "v",
          "type": "address"
        }
      ],
      "name": "NodeRewardPoolChanged",
      "type": "event"
    },
    {
      "anonymous": false,
      "inputs": [
        {
          "indexed": false,
          "internalType": "contract IOsmiStaking",
          "name": "v",
          "type": "address"
        }
      ],
      "name": "StakingContractChanged",
      "type": "event"
    },
    {
      "anonymous": false,
      "inputs": [
        {
          "indexed": false,
          "internalType": "address",
          "name": "v",
          "type": "address"
        }
      ],
      "name": "StakingPoolChanged",
      "type": "event"
    },
    {
      "anonymous": false,
      "inputs": [
        {
          "indexed": false,
          "internalType": "contract IOsmiToken",
          "name": "v",
          "type": "address"
        }
      ],
      "name": "TokenContractChanged",
      "type": "event"
    },
    {
      "anonymous": false,
      "inputs": [
        {
          "indexed": true,
          "internalType": "address",
          "name": "implementation",
          "type": "address"
        }
      ],
      "name": "Upgraded",
      "type": "event"
    },
    {
      "inputs": [],
      "name": "UPGRADE_INTERFACE_VERSION",
      "outputs": [
        {
          "internalType": "string",
          "name": "",
          "type": "string"
        }
      ],
      "stateMutability": "view",
      "type": "function"
    },
    {
      "inputs": [],
      "name": "authority",
      "outputs": [
        {
          "internalType": "address",
          "name": "",
          "type": "address"
        }
      ],
      "stateMutability": "view",
      "type": "function"
    },
    {
      "inputs": [],
      "name": "getDailyDistributionContract",
      "outputs": [
        {
          "internalType": "contract IOsmiDailyDistribution",
          "name": "",
          "type": "address"
        }
      ],
      "stateMutability": "view",
      "type": "function"
    },
    {
      "inputs": [],
      "name": "getDistributionManagerContract",
      "outputs": [
        {
          "internalType": "contract IOsmiDistributionManager",
          "name": "",
          "type": "address"
        }
      ],
      "stateMutability": "view",
      "type": "function"
    },
    {
      "inputs": [],
      "name": "getNodeContract",
      "outputs": [
        {
          "internalType": "contract IOsmiNode",
          "name": "",
          "type": "address"
        }
      ],
      "stateMutability": "view",
      "type": "function"
    },
    {
      "inputs": [],
      "name": "getNodeFactoryContract",
      "outputs": [
        {
          "internalType": "contract IOsmiNodeFactory",
          "name": "",
          "type": "address"
        }
      ],
      "stateMutability": "view",
      "type": "function"
    },
    {
      "inputs": [],
      "name": "getNodeRewardPool",
      "outputs": [
        {
          "internalType": "address",
          "name": "",
          "type": "address"
        }
      ],
      "stateMutability": "view",
      "type": "function"
    },
    {
      "inputs": [],
      "name": "getStakingContract",
      "outputs": [
        {
          "internalType": "contract IOsmiStaking",
          "name": "",
          "type": "address"
        }
      ],
      "stateMutability": "view",
      "type": "function"
    },
    {
      "inputs": [],
      "name": "getStakingPool",
      "outputs": [
        {
          "internalType": "address",
          "name": "",
          "type": "address"
        }
      ],
      "stateMutability": "view",
      "type": "function"
    },
    {
      "inputs": [],
      "name": "getTokenContract",
      "outputs": [
        {
          "internalType": "contract IOsmiToken",
          "name": "",
          "type": "address"
        }
      ],
      "stateMutability": "view",
      "type": "function"
    },
    {
      "inputs": [
        {
          "internalType": "address",
          "name": "initialAuthority",
          "type": "address"
        }
      ],
      "name": "initialize",
      "outputs": [],
      "stateMutability": "nonpayable",
      "type": "function"
    },
    {
      "inputs": [],
      "name": "isConsumingScheduledOp",
      "outputs": [
        {
          "internalType": "bytes4",
          "name": "",
          "type": "bytes4"
        }
      ],
      "stateMutability": "view",
      "type": "function"
    },
    {
      "inputs": [],
      "name": "proxiableUUID",
      "outputs": [
        {
          "internalType": "bytes32",
          "name": "",
          "type": "bytes32"
        }
      ],
      "stateMutability": "view",
      "type": "function"
    },
    {
      "inputs": [
        {
          "internalType": "address",
          "name": "newAuthority",
          "type": "address"
        }
      ],
      "name": "setAuthority",
      "outputs": [],
      "stateMutability": "nonpayable",
      "type": "function"
    },
    {
      "inputs": [
        {
          "internalType": "contract IOsmiDailyDistribution",
          "name": "v",
          "type": "address"
        }
      ],
      "name": "setDailyDistributionContract",
      "outputs": [],
      "stateMutability": "nonpayable",
      "type": "function"
    },
    {
      "inputs": [
        {
          "internalType": "contract IOsmiDistributionManager",
          "name": "v",
          "type": "address"
        }
      ],
      "name": "setDistributionManagerContract",
      "outputs": [],
      "stateMutability": "nonpayable",
      "type": "function"
    },
    {
      "inputs": [
        {
          "internalType": "contract IOsmiNode",
          "name": "v",
          "type": "address"
        }
      ],
      "name": "setNodeContract",
      "outputs": [],
      "stateMutability": "nonpayable",
      "type": "function"
    },
    {
      "inputs": [
        {
          "internalType": "contract IOsmiNodeFactory",
          "name": "v",
          "type": "address"
        }
      ],
      "name": "setNodeFactoryContract",
      "outputs": [],
      "stateMutability": "nonpayable",
      "type": "function"
    },
    {
      "inputs": [
        {
          "internalType": "address",
          "name": "v",
          "type": "address"
        }
      ],
      "name": "setNodeRewardPool",
      "outputs": [],
      "stateMutability": "nonpayable",
      "type": "function"
    },
    {
      "inputs": [
        {
          "internalType": "contract IOsmiStaking",
          "name": "v",
          "type": "address"
        }
      ],
      "name": "setStakingContract",
      "outputs": [],
      "stateMutability": "nonpayable",
      "type": "function"
    },
    {
      "inputs": [
        {
          "internalType": "address",
          "name": "v",
          "type": "address"
        }
      ],
      "name": "setStakingPool",
      "outputs": [],
      "stateMutability": "nonpayable",
      "type": "function"
    },
    {
      "inputs": [
        {
          "internalType": "contract IOsmiToken",
          "name": "v",
          "type": "address"
        }
      ],
      "name": "setTokenContract",
      "outputs": [],
      "stateMutability": "nonpayable",
      "type": "function"
    },
    {
      "inputs": [
        {
          "internalType": "address",
          "name": "newImplementation",
          "type": "address"
        },
        {
          "internalType": "bytes",
          "name": "data",
          "type": "bytes"
        }
      ],
      "name": "upgradeToAndCall",
      "outputs": [],
      "stateMutability": "payable",
      "type": "function"
    }
  ],
  "bytecode": "0x60a06040523060805234801561001457600080fd5b5061001d610022565b6100d4565b7ff0c57e16840df040f15088dc2f81fe391c3923bec73e23a9662efc9c229c6a00805468010000000000000000900460ff16156100725760405163f92ee8a960e01b815260040160405180910390fd5b80546001600160401b03908116146100d15780546001600160401b0319166001600160401b0390811782556040519081527fc7f505b2f371ae2175ee4913f4499e1f2633a7b5936321eed1cdaeb6115181d29060200160405180910390a15b50565b6080516118806100fd60003960008181610fd101528181610ffa015261112c01526118806000f3fe6080604052600436106101405760003560e01c80638e68dce4116100b6578063b5e32a8a1161006f578063b5e32a8a14610359578063bbcd5bbe1461036e578063be8fdd0a1461038e578063bf7e214f146103ae578063c4d66de8146103c3578063f50fd926146103e357600080fd5b80638e68dce4146102835780638fb36037146102985780639dd373b9146102c65780639fd2e0be146102e6578063a2755d29146102fb578063ad3cb1cc1461031b57600080fd5b80634f1ef286116101085780634f1ef286146101e357806352d1902d146101f657806358d6b7d71461021957806367c1b2731461022e5780636e58f306146102435780637a9e5e4b1461026357600080fd5b80631881101a1461014557806328b7bede146101675780633028f63a146101995780633bceda11146101b957806345946334146101ce575b600080fd5b34801561015157600080fd5b5061016561016036600461154d565b610403565b005b34801561017357600080fd5b5061017c6104b4565b6040516001600160a01b0390911681526020015b60405180910390f35b3480156101a557600080fd5b506101656101b436600461154d565b6104fe565b3480156101c557600080fd5b5061017c6105ac565b3480156101da57600080fd5b5061017c610619565b6101656101f1366004611580565b610686565b34801561020257600080fd5b5061020b6106a5565b604051908152602001610190565b34801561022557600080fd5b5061017c6106c2565b34801561023a57600080fd5b5061017c61072f565b34801561024f57600080fd5b5061016561025e36600461154d565b61079c565b34801561026f57600080fd5b5061016561027e36600461154d565b61084a565b34801561028f57600080fd5b5061017c6108d2565b3480156102a457600080fd5b506102ad61093f565b6040516001600160e01b03199091168152602001610190565b3480156102d257600080fd5b506101656102e136600461154d565b610978565b3480156102f257600080fd5b5061017c610a26565b34801561030757600080fd5b5061016561031636600461154d565b610a93565b34801561032757600080fd5b5061034c604051806040016040528060058152602001640352e302e360dc1b81525081565b6040516101909190611670565b34801561036557600080fd5b5061017c610b41565b34801561037a57600080fd5b5061016561038936600461154d565b610bae565b34801561039a57600080fd5b506101656103a936600461154d565b610c38565b3480156103ba57600080fd5b5061017c610ce6565b3480156103cf57600080fd5b506101656103de36600461154d565b610d02565b3480156103ef57600080fd5b506101656103fe36600461154d565b610e1a565b610410335b600036610ec8565b7f1e00a1c1aedac593f06609f85365527388796fedfa78627bb4369402d4d99c065460008051602061182b833981519152906001600160a01b03838116911603610458575050565b6040516001600160a01b03831681527f79fc751477ee373835bb29121a41c9c1fbbf9e0c589fc04264f1a36a115b37cd9060200160405180910390a160060180546001600160a01b0319166001600160a01b0383161790555b50565b60008051602061182b8339815191528054600091906001600160a01b03166104ef576040516343a6681f60e01b815260040160405180910390fd5b546001600160a01b0316919050565b61050733610408565b7f1e00a1c1aedac593f06609f85365527388796fedfa78627bb4369402d4d99c075460008051602061182b833981519152906001600160a01b0383811691160361054f575050565b6040516001600160a01b03831681527fe77accf00f90e5a014ae56dcf736ddb51d185d642a530ee5f0f63e6ffe836c459060200160405180910390a160070180546001600160a01b0383166001600160a01b031990911617905550565b7f1e00a1c1aedac593f06609f85365527388796fedfa78627bb4369402d4d99c035460009060008051602061182b833981519152906001600160a01b03166106075760405163ac94db2f60e01b815260040160405180910390fd5b600301546001600160a01b0316919050565b7f1e00a1c1aedac593f06609f85365527388796fedfa78627bb4369402d4d99c075460009060008051602061182b833981519152906001600160a01b03166106745760405163532cf57760e11b815260040160405180910390fd5b600701546001600160a01b0316919050565b61068e610fc6565b61069782611056565b6106a1828261105f565b5050565b60006106af611121565b5060008051602061180b83398151915290565b7f1e00a1c1aedac593f06609f85365527388796fedfa78627bb4369402d4d99c025460009060008051602061182b833981519152906001600160a01b031661071d57604051634232cd7d60e01b815260040160405180910390fd5b600201546001600160a01b0316919050565b7f1e00a1c1aedac593f06609f85365527388796fedfa78627bb4369402d4d99c045460009060008051602061182b833981519152906001600160a01b031661078a5760405163ad84fef560e01b815260040160405180910390fd5b600401546001600160a01b0316919050565b6107a533610408565b7f1e00a1c1aedac593f06609f85365527388796fedfa78627bb4369402d4d99c045460008051602061182b833981519152906001600160a01b038381169116036107ed575050565b6040516001600160a01b03831681527fdbf304e8ca98225181195cee1d0b5ce3a99ba7f2684433b2a8c686c9701836589060200160405180910390a160040180546001600160a01b0383166001600160a01b031990911617905550565b33610853610ce6565b6001600160a01b0316816001600160a01b0316146108935760405162d1953b60e31b81526001600160a01b03821660048201526024015b60405180910390fd5b816001600160a01b03163b6000036108c9576040516361798f2f60e11b81526001600160a01b038316600482015260240161088a565b6106a18261116a565b7f1e00a1c1aedac593f06609f85365527388796fedfa78627bb4369402d4d99c055460009060008051602061182b833981519152906001600160a01b031661092d57604051633e089cdb60e01b815260040160405180910390fd5b600501546001600160a01b0316919050565b6000805160206117eb833981519152805460009190600160a01b900460ff16610969576000610972565b638fb3603760e01b5b91505090565b61098133610408565b7f1e00a1c1aedac593f06609f85365527388796fedfa78627bb4369402d4d99c055460008051602061182b833981519152906001600160a01b038381169116036109c9575050565b6040516001600160a01b03831681527f37f339b442273d59b9ccb58c1ed2c06e695bd9b0a68db21495afb7fc86de692c9060200160405180910390a160050180546001600160a01b0383166001600160a01b031990911617905550565b7f1e00a1c1aedac593f06609f85365527388796fedfa78627bb4369402d4d99c015460009060008051602061182b833981519152906001600160a01b0316610a8157604051631be3e1df60e11b815260040160405180910390fd5b600101546001600160a01b0316919050565b610a9c33610408565b7f1e00a1c1aedac593f06609f85365527388796fedfa78627bb4369402d4d99c025460008051602061182b833981519152906001600160a01b03838116911603610ae4575050565b6040516001600160a01b03831681527f4020b05ce3f216be110d1650adf97a6fe1616a076ffeb4cd1e0b06444b54c7329060200160405180910390a160020180546001600160a01b0383166001600160a01b031990911617905550565b7f1e00a1c1aedac593f06609f85365527388796fedfa78627bb4369402d4d99c065460009060008051602061182b833981519152906001600160a01b0316610b9c57604051636e5695d960e11b815260040160405180910390fd5b600601546001600160a01b0316919050565b610bb733610408565b60008051602061182b83398151915280546001600160a01b03838116911603610bde575050565b6040516001600160a01b03831681527fe89f98a27789c8313baa22de83cdb921b7026d66af0ee02973c97d45f952b6be9060200160405180910390a180546001600160a01b0383166001600160a01b031990911617905550565b610c4133610408565b7f1e00a1c1aedac593f06609f85365527388796fedfa78627bb4369402d4d99c035460008051602061182b833981519152906001600160a01b03838116911603610c89575050565b6040516001600160a01b03831681527fc9cb880363b75b91cc1f01b9cfece6dd0b4d28e5bd9a2de17a373ded193baa0c9060200160405180910390a160030180546001600160a01b0383166001600160a01b031990911617905550565b6000805160206117eb833981519152546001600160a01b031690565b7ff0c57e16840df040f15088dc2f81fe391c3923bec73e23a9662efc9c229c6a008054600160401b810460ff16159067ffffffffffffffff16600081158015610d485750825b905060008267ffffffffffffffff166001148015610d655750303b155b905081158015610d73575080155b15610d915760405163f92ee8a960e01b815260040160405180910390fd5b845467ffffffffffffffff191660011785558315610dbb57845460ff60401b1916600160401b1785555b610dc4866111cb565b610dcc6111dc565b8315610e1257845460ff60401b19168555604051600181527fc7f505b2f371ae2175ee4913f4499e1f2633a7b5936321eed1cdaeb6115181d29060200160405180910390a15b505050505050565b610e2333610408565b7f1e00a1c1aedac593f06609f85365527388796fedfa78627bb4369402d4d99c015460008051602061182b833981519152906001600160a01b03838116911603610e6b575050565b6040516001600160a01b03831681527f6b19ab5e9a182b8029617eb6794c068195e987268885bd5e022dd45cf424d2b49060200160405180910390a160010180546001600160a01b0383166001600160a01b031990911617905550565b6000805160206117eb833981519152600080610f03610ee5610ce6565b8730610ef5600460008a8c6116a3565b610efe916116cd565b6111e4565b9150915081610e125763ffffffff811615610fa357825460ff60a01b1916600160a01b178355610f31610ce6565b6001600160a01b03166394c7d7ee8787876040518463ffffffff1660e01b8152600401610f6093929190611705565b600060405180830381600087803b158015610f7a57600080fd5b505af1158015610f8e573d6000803e3d6000fd5b5050845460ff60a01b1916855550610e129050565b60405162d1953b60e31b81526001600160a01b038716600482015260240161088a565b306001600160a01b037f000000000000000000000000000000000000000000000000000000000000000016148061103657507f00000000000000000000000000000000000000000000000000000000000000006001600160a01b031661102a6112f0565b6001600160a01b031614155b156110545760405163703e46dd60e11b815260040160405180910390fd5b565b6104b133610408565b816001600160a01b03166352d1902d6040518163ffffffff1660e01b8152600401602060405180830381865afa9250505080156110b9575060408051601f3d908101601f191682019092526110b691810190611745565b60015b6110e157604051634c9c8ce360e01b81526001600160a01b038316600482015260240161088a565b60008051602061180b833981519152811461111257604051632a87526960e21b81526004810182905260240161088a565b61111c8383611306565b505050565b306001600160a01b037f000000000000000000000000000000000000000000000000000000000000000016146110545760405163703e46dd60e11b815260040160405180910390fd5b6000805160206117eb83398151915280546001600160a01b0383166001600160a01b03199091168117825560408051918252517f2f658b440c35314f52658ea8a740e05b284cdc84dc9ae01e891f21b8933e7cad9181900360200190a15050565b6111d361135c565b6104b1816113a5565b61105461135c565b6040516001600160a01b03848116602483015283811660448301526001600160e01b03198316606483015260009182918291829189169060840160408051601f198184030181529181526020820180516001600160e01b031663b700961360e01b17905251611253919061175e565b600060405180830381855afa9150503d806000811461128e576040519150601f19603f3d011682016040523d82523d6000602084013e611293565b606091505b509150915081156112e55760408151106112c557808060200190518101906112bb919061178f565b90945092506112e5565b60208151106112e557808060200190518101906112e291906117cf565b93505b505094509492505050565b600060008051602061180b8339815191526104ef565b61130f826113b6565b6040516001600160a01b038316907fbc7cd75a20ee27fd9adebab32041f755214dbc6bffa90cc0225b39da2e5c2d3b90600090a28051156113545761111c828261141b565b6106a1611491565b7ff0c57e16840df040f15088dc2f81fe391c3923bec73e23a9662efc9c229c6a0054600160401b900460ff1661105457604051631afcd79f60e31b815260040160405180910390fd5b6113ad61135c565b6104b18161116a565b806001600160a01b03163b6000036113ec57604051634c9c8ce360e01b81526001600160a01b038216600482015260240161088a565b60008051602061180b83398151915280546001600160a01b0319166001600160a01b0392909216919091179055565b6060600080846001600160a01b031684604051611438919061175e565b600060405180830381855af49150503d8060008114611473576040519150601f19603f3d011682016040523d82523d6000602084013e611478565b606091505b50915091506114888583836114b0565b95945050505050565b34156110545760405163b398979f60e01b815260040160405180910390fd5b6060826114c5576114c08261150f565b611508565b81511580156114dc57506001600160a01b0384163b155b1561150557604051639996b31560e01b81526001600160a01b038516600482015260240161088a565b50805b9392505050565b80511561151f5780518082602001fd5b604051630a12f52160e11b815260040160405180910390fd5b6001600160a01b03811681146104b157600080fd5b60006020828403121561155f57600080fd5b813561150881611538565b634e487b7160e01b600052604160045260246000fd5b6000806040838503121561159357600080fd5b823561159e81611538565b9150602083013567ffffffffffffffff8111156115ba57600080fd5b8301601f810185136115cb57600080fd5b803567ffffffffffffffff8111156115e5576115e561156a565b604051601f8201601f19908116603f0116810167ffffffffffffffff811182821017156116145761161461156a565b60405281815282820160200187101561162c57600080fd5b816020840160208301376000602083830101528093505050509250929050565b60005b8381101561166757818101518382015260200161164f565b50506000910152565b602081526000825180602084015261168f81604085016020870161164c565b601f01601f19169190910160400192915050565b600080858511156116b357600080fd5b838611156116c057600080fd5b5050820193919092039150565b80356001600160e01b031981169060048410156116fe576001600160e01b0319600485900360031b81901b82161691505b5092915050565b6001600160a01b03841681526040602082018190528101829052818360608301376000818301606090810191909152601f909201601f1916010192915050565b60006020828403121561175757600080fd5b5051919050565b6000825161177081846020870161164c565b9190910192915050565b8051801515811461178a57600080fd5b919050565b600080604083850312156117a257600080fd5b6117ab8361177a565b9150602083015163ffffffff811681146117c457600080fd5b809150509250929050565b6000602082840312156117e157600080fd5b6115088261177a56fef3177357ab46d8af007ab3fdb9af81da189e1068fefdc0073dca88a2cab40a00360894a13ba1a3210667c828492db98dca3e2076cc3735a920a3ca505d382bbc1e00a1c1aedac593f06609f85365527388796fedfa78627bb4369402d4d99c00a26469706673582212201539fc7bc2fbebab4153f56bc469ab2f032afed0ea1546e92cec8817419cd30a64736f6c634300081c0033",
  "linkReferences": {},
  "deployedLinkReferences": {}
}