{
  "_format": "hh-sol-artifact-1",
  "contractName": "OsmiNodeFactory",
  "sourceName": "contracts/OsmiNodeFactory.sol",
  "abi": [
    {
      "inputs": [],
      "stateMutability": "nonpayable",
      "type": "constructor"
    },
    {
      "inputs": [
        {
          "internalType": "address",
          "name": "authority",
          "type": "address"
        }
      ],
      "name": "AccessManagedInvalidAuthority",
      "type": "error"
    },
    {
      "inputs": [
        {
          "internalType": "address",
          "name": "caller",
          "type": "address"
        },
        {
          "internalType": "uint32",
          "name": "delay",
          "type": "uint32"
        }
      ],
      "name": "AccessManagedRequiredDelay",
      "type": "error"
    },
    {
      "inputs": [
        {
          "internalType": "address",
          "name": "caller",
          "type": "address"
        }
      ],
      "name": "AccessManagedUnauthorized",
      "type": "error"
    },
    {
      "inputs": [
        {
          "internalType": "address",
          "name": "target",
          "type": "address"
        }
      ],
      "name": "AddressEmptyCode",
      "type": "error"
    },
    {
      "inputs": [],
      "name": "ECDSAInvalidSignature",
      "type": "error"
    },
    {
      "inputs": [
        {
          "internalType": "uint256",
          "name": "length",
          "type": "uint256"
        }
      ],
      "name": "ECDSAInvalidSignatureLength",
      "type": "error"
    },
    {
      "inputs": [
        {
          "internalType": "bytes32",
          "name": "s",
          "type": "bytes32"
        }
      ],
      "name": "ECDSAInvalidSignatureS",
      "type": "error"
    },
    {
      "inputs": [
        {
          "internalType": "address",
          "name": "implementation",
          "type": "address"
        }
      ],
      "name": "ERC1967InvalidImplementation",
      "type": "error"
    },
    {
      "inputs": [],
      "name": "ERC1967NonPayable",
      "type": "error"
    },
    {
      "inputs": [],
      "name": "FailedInnerCall",
      "type": "error"
    },
    {
      "inputs": [
        {
          "internalType": "address",
          "name": "account",
          "type": "address"
        },
        {
          "internalType": "uint256",
          "name": "currentNonce",
          "type": "uint256"
        }
      ],
      "name": "InvalidAccountNonce",
      "type": "error"
    },
    {
      "inputs": [],
      "name": "InvalidInitialization",
      "type": "error"
    },
    {
      "inputs": [],
      "name": "NotInitializing",
      "type": "error"
    },
    {
      "inputs": [
        {
          "internalType": "uint256",
          "name": "deadline",
          "type": "uint256"
        }
      ],
      "name": "OsmiExpiredSignature",
      "type": "error"
    },
    {
      "inputs": [
        {
          "internalType": "address",
          "name": "signer",
          "type": "address"
        },
        {
          "internalType": "address",
          "name": "one",
          "type": "address"
        },
        {
          "internalType": "address",
          "name": "two",
          "type": "address"
        }
      ],
      "name": "OsmiInvalidPurchaseTicketSigner",
      "type": "error"
    },
    {
      "inputs": [
        {
          "internalType": "address",
          "name": "signer",
          "type": "address"
        },
        {
          "internalType": "address",
          "name": "owner",
          "type": "address"
        }
      ],
      "name": "OsmiInvalidSigner",
      "type": "error"
    },
    {
      "inputs": [],
      "name": "UUPSUnauthorizedCallContext",
      "type": "error"
    },
    {
      "inputs": [
        {
          "internalType": "bytes32",
          "name": "slot",
          "type": "bytes32"
        }
      ],
      "name": "UUPSUnsupportedProxiableUUID",
      "type": "error"
    },
    {
      "anonymous": false,
      "inputs": [
        {
          "indexed": false,
          "internalType": "address",
          "name": "authority",
          "type": "address"
        }
      ],
      "name": "AuthorityUpdated",
      "type": "event"
    },
    {
      "anonymous": false,
      "inputs": [],
      "name": "EIP712DomainChanged",
      "type": "event"
    },
    {
      "anonymous": false,
      "inputs": [
        {
          "indexed": false,
          "internalType": "uint64",
          "name": "version",
          "type": "uint64"
        }
      ],
      "name": "Initialized",
      "type": "event"
    },
    {
      "anonymous": false,
      "inputs": [
        {
          "indexed": false,
          "internalType": "contract IOsmiNode",
          "name": "nodeContract",
          "type": "address"
        }
      ],
      "name": "NodeContractChanged",
      "type": "event"
    },
    {
      "anonymous": false,
      "inputs": [
        {
          "indexed": false,
          "internalType": "address",
          "name": "purchaseTicketSigner",
          "type": "address"
        }
      ],
      "name": "PurchaseTicketSignerChanged",
      "type": "event"
    },
    {
      "anonymous": false,
      "inputs": [
        {
          "indexed": false,
          "internalType": "contract IOsmiToken",
          "name": "tokenContract",
          "type": "address"
        }
      ],
      "name": "TokenContractChanged",
      "type": "event"
    },
    {
      "anonymous": false,
      "inputs": [
        {
          "indexed": true,
          "internalType": "address",
          "name": "implementation",
          "type": "address"
        }
      ],
      "name": "Upgraded",
      "type": "event"
    },
    {
      "inputs": [],
      "name": "UPGRADE_INTERFACE_VERSION",
      "outputs": [
        {
          "internalType": "string",
          "name": "",
          "type": "string"
        }
      ],
      "stateMutability": "view",
      "type": "function"
    },
    {
      "inputs": [],
      "name": "authority",
      "outputs": [
        {
          "internalType": "address",
          "name": "",
          "type": "address"
        }
      ],
      "stateMutability": "view",
      "type": "function"
    },
    {
      "inputs": [
        {
          "components": [
            {
              "internalType": "address",
              "name": "signer",
              "type": "address"
            },
            {
              "internalType": "address",
              "name": "customer",
              "type": "address"
            },
            {
              "internalType": "uint256",
              "name": "price",
              "type": "uint256"
            },
            {
              "internalType": "uint256",
              "name": "deadline",
              "type": "uint256"
            },
            {
              "internalType": "uint8",
              "name": "v",
              "type": "uint8"
            },
            {
              "internalType": "bytes32",
              "name": "r",
              "type": "bytes32"
            },
            {
              "internalType": "bytes32",
              "name": "s",
              "type": "bytes32"
            }
          ],
          "internalType": "struct OsmiNodeFactory.OsmiNodePurchaseTicket",
          "name": "ticket",
          "type": "tuple"
        },
        {
          "components": [
            {
              "internalType": "address",
              "name": "owner",
              "type": "address"
            },
            {
              "internalType": "address",
              "name": "spender",
              "type": "address"
            },
            {
              "internalType": "uint256",
              "name": "value",
              "type": "uint256"
            },
            {
              "internalType": "uint256",
              "name": "deadline",
              "type": "uint256"
            },
            {
              "internalType": "uint8",
              "name": "v",
              "type": "uint8"
            },
            {
              "internalType": "bytes32",
              "name": "r",
              "type": "bytes32"
            },
            {
              "internalType": "bytes32",
              "name": "s",
              "type": "bytes32"
            }
          ],
          "internalType": "struct OsmiNodeFactory.ERC20PermitAllowance",
          "name": "allowance",
          "type": "tuple"
        }
      ],
      "name": "buyOsmiNode",
      "outputs": [
        {
          "internalType": "uint256",
          "name": "",
          "type": "uint256"
        }
      ],
      "stateMutability": "nonpayable",
      "type": "function"
    },
    {
      "inputs": [],
      "name": "eip712Domain",
      "outputs": [
        {
          "internalType": "bytes1",
          "name": "fields",
          "type": "bytes1"
        },
        {
          "internalType": "string",
          "name": "name",
          "type": "string"
        },
        {
          "internalType": "string",
          "name": "version",
          "type": "string"
        },
        {
          "internalType": "uint256",
          "name": "chainId",
          "type": "uint256"
        },
        {
          "internalType": "address",
          "name": "verifyingContract",
          "type": "address"
        },
        {
          "internalType": "bytes32",
          "name": "salt",
          "type": "bytes32"
        },
        {
          "internalType": "uint256[]",
          "name": "extensions",
          "type": "uint256[]"
        }
      ],
      "stateMutability": "view",
      "type": "function"
    },
    {
      "inputs": [],
      "name": "getPurchaseTicketSigners",
      "outputs": [
        {
          "internalType": "address",
          "name": "",
          "type": "address"
        },
        {
          "internalType": "address",
          "name": "",
          "type": "address"
        }
      ],
      "stateMutability": "view",
      "type": "function"
    },
    {
      "inputs": [
        {
          "internalType": "address",
          "name": "initialAuthority",
          "type": "address"
        },
        {
          "internalType": "address",
          "name": "tokenContract",
          "type": "address"
        },
        {
          "internalType": "address",
          "name": "nodeContract",
          "type": "address"
        },
        {
          "internalType": "address",
          "name": "purchaseTicketSigner",
          "type": "address"
        }
      ],
      "name": "initialize",
      "outputs": [],
      "stateMutability": "nonpayable",
      "type": "function"
    },
    {
      "inputs": [],
      "name": "isConsumingScheduledOp",
      "outputs": [
        {
          "internalType": "bytes4",
          "name": "",
          "type": "bytes4"
        }
      ],
      "stateMutability": "view",
      "type": "function"
    },
    {
      "inputs": [
        {
          "internalType": "address",
          "name": "owner",
          "type": "address"
        }
      ],
      "name": "nonces",
      "outputs": [
        {
          "internalType": "uint256",
          "name": "",
          "type": "uint256"
        }
      ],
      "stateMutability": "view",
      "type": "function"
    },
    {
      "inputs": [],
      "name": "proxiableUUID",
      "outputs": [
        {
          "internalType": "bytes32",
          "name": "",
          "type": "bytes32"
        }
      ],
      "stateMutability": "view",
      "type": "function"
    },
    {
      "inputs": [
        {
          "internalType": "address",
          "name": "newAuthority",
          "type": "address"
        }
      ],
      "name": "setAuthority",
      "outputs": [],
      "stateMutability": "nonpayable",
      "type": "function"
    },
    {
      "inputs": [
        {
          "internalType": "address",
          "name": "nodeContract",
          "type": "address"
        }
      ],
      "name": "setNodeContract",
      "outputs": [],
      "stateMutability": "nonpayable",
      "type": "function"
    },
    {
      "inputs": [
        {
          "internalType": "address",
          "name": "purchaseTicketSigner",
          "type": "address"
        }
      ],
      "name": "setPurchaseTicketSigner",
      "outputs": [],
      "stateMutability": "nonpayable",
      "type": "function"
    },
    {
      "inputs": [
        {
          "internalType": "address",
          "name": "tokenContract",
          "type": "address"
        }
      ],
      "name": "setTokenContract",
      "outputs": [],
      "stateMutability": "nonpayable",
      "type": "function"
    },
    {
      "inputs": [
        {
          "internalType": "address",
          "name": "newImplementation",
          "type": "address"
        },
        {
          "internalType": "bytes",
          "name": "data",
          "type": "bytes"
        }
      ],
      "name": "upgradeToAndCall",
      "outputs": [],
      "stateMutability": "payable",
      "type": "function"
    }
  ],
  "bytecode": "0x60a06040523060805234801561001457600080fd5b5061001d610022565b6100d4565b7ff0c57e16840df040f15088dc2f81fe391c3923bec73e23a9662efc9c229c6a00805468010000000000000000900460ff16156100725760405163f92ee8a960e01b815260040160405180910390fd5b80546001600160401b03908116146100d15780546001600160401b0319166001600160401b0390811782556040519081527fc7f505b2f371ae2175ee4913f4499e1f2633a7b5936321eed1cdaeb6115181d29060200160405180910390a15b50565b60805161216f6100fd6000396000818161071901528181610742015261088b015261216f6000f3fe6080604052600436106100dd5760003560e01c80638fb360371161007f578063bbcd5bbe11610059578063bbcd5bbe146102d9578063bf7e214f146102f9578063f50fd92614610326578063f8c8765e1461034657600080fd5b80638fb360371461024d5780639756093b1461027b578063ad3cb1cc1461029b57600080fd5b80637a9e5e4b116100bb5780637a9e5e4b146101905780637c3ec460146101b05780637ecebe00146101d057806384b0196e1461022557600080fd5b80634f1ef286146100e257806352d1902d146100f757806355e758621461011f575b600080fd5b6100f56100f0366004611b5a565b610366565b005b34801561010357600080fd5b5061010c610385565b6040519081526020015b60405180910390f35b34801561012b57600080fd5b507f0fcd9c378940f300c1be3c1a4577c232db834454ea38358b32a770dd9ba76902547f0fcd9c378940f300c1be3c1a4577c232db834454ea38358b32a770dd9ba7690354604080516001600160a01b03938416815292909116602083015201610116565b34801561019c57600080fd5b506100f56101ab366004611c24565b6103a2565b3480156101bc57600080fd5b5061010c6101cb366004611c57565b61042a565b3480156101dc57600080fd5b5061010c6101eb366004611c24565b6001600160a01b031660009081527f5ab42ced628888259c08ac98db1eb0cf702fc1501344311d8b100cd1bfe4bb00602052604090205490565b34801561023157600080fd5b5061023a61044c565b6040516101169796959493929190611cdd565b34801561025957600080fd5b506102626104f8565b6040516001600160e01b03199091168152602001610116565b34801561028757600080fd5b506100f5610296366004611c24565b610531565b3480156102a757600080fd5b506102cc604051806040016040528060058152602001640352e302e360dc1b81525081565b6040516101169190611d75565b3480156102e557600080fd5b506100f56102f4366004611c24565b610546565b34801561030557600080fd5b5061030e610558565b6040516001600160a01b039091168152602001610116565b34801561033257600080fd5b506100f5610341366004611c24565b610574565b34801561035257600080fd5b506100f5610361366004611d88565b610586565b61036e61070e565b610377826107b5565b61038182826107be565b5050565b600061038f610880565b506000805160206120fa83398151915290565b336103ab610558565b6001600160a01b0316816001600160a01b0316146103eb5760405162d1953b60e31b81526001600160a01b03821660048201526024015b60405180910390fd5b816001600160a01b03163b600003610421576040516361798f2f60e11b81526001600160a01b03831660048201526024016103e2565b610381826108c9565b6000610439335b60003661092b565b6104438383610a31565b90505b92915050565b600060608082808083816000805160206120da833981519152805490915015801561047957506001810154155b6104bd5760405162461bcd60e51b81526020600482015260156024820152741152540dcc4c8e88155b9a5b9a5d1a585b1a5e9959605a1b60448201526064016103e2565b6104c5610e9a565b6104cd610f5d565b60408051600080825260208201909252600f60f81b9c939b5091995046985030975095509350915050565b6000805160206120ba833981519152805460009190600160a01b900460ff1661052257600061052b565b638fb3603760e01b5b91505090565b61053a33610431565b61054381610f9c565b50565b61054f33610431565b6105438161109d565b6000805160206120ba833981519152546001600160a01b031690565b61057d33610431565b61054381611165565b7ff0c57e16840df040f15088dc2f81fe391c3923bec73e23a9662efc9c229c6a008054600160401b810460ff16159067ffffffffffffffff166000811580156105cc5750825b905060008267ffffffffffffffff1660011480156105e95750303b155b9050811580156105f7575080155b156106155760405163f92ee8a960e01b815260040160405180910390fd5b845467ffffffffffffffff19166001178555831561063f57845460ff60401b1916600160401b1785555b61064889611253565b610650611264565b610658611264565b6106a26040518060400160405280600f81526020016e4f736d694e6f6465466163746f727960881b815250604051806040016040528060018152602001603160f81b81525061126c565b6106ab8861109d565b6106b487611165565b6106bd86610f9c565b831561070357845460ff60401b19168555604051600181527fc7f505b2f371ae2175ee4913f4499e1f2633a7b5936321eed1cdaeb6115181d29060200160405180910390a15b505050505050505050565b306001600160a01b037f000000000000000000000000000000000000000000000000000000000000000016148061079557507f00000000000000000000000000000000000000000000000000000000000000006001600160a01b03166107896000805160206120fa833981519152546001600160a01b031690565b6001600160a01b031614155b156107b35760405163703e46dd60e11b815260040160405180910390fd5b565b61054333610431565b816001600160a01b03166352d1902d6040518163ffffffff1660e01b8152600401602060405180830381865afa925050508015610818575060408051601f3d908101601f1916820190925261081591810190611ddc565b60015b61084057604051634c9c8ce360e01b81526001600160a01b03831660048201526024016103e2565b6000805160206120fa833981519152811461087157604051632a87526960e21b8152600481018290526024016103e2565b61087b838361127e565b505050565b306001600160a01b037f000000000000000000000000000000000000000000000000000000000000000016146107b35760405163703e46dd60e11b815260040160405180910390fd5b6000805160206120ba83398151915280546001600160a01b0319166001600160a01b03831690811782556040519081527f2f658b440c35314f52658ea8a740e05b284cdc84dc9ae01e891f21b8933e7cad906020015b60405180910390a15050565b6000805160206120ba833981519152600080610966610948610558565b8730610958600460008a8c611df5565b61096191611e1f565b6112d4565b9150915081610a295763ffffffff811615610a0657825460ff60a01b1916600160a01b178355610994610558565b6001600160a01b03166394c7d7ee8787876040518463ffffffff1660e01b81526004016109c393929190611e57565b600060405180830381600087803b1580156109dd57600080fd5b505af11580156109f1573d6000803e3d6000fd5b5050845460ff60a01b1916855550610a299050565b60405162d1953b60e31b81526001600160a01b03871660048201526024016103e2565b505050505050565b600030610a446040840160208501611c24565b6001600160a01b031614610aa45760405162461bcd60e51b815260206004820152602160248201527f74686973206973206e6f742074686520616c6c6f77616e6365207370656e64656044820152603960f91b60648201526084016103e2565b8260400135826040013514610afb5760405162461bcd60e51b815260206004820152601d60248201527f707269636520646f65736e2774206d6174636820616c6c6f77616e636500000060448201526064016103e2565b7f0fcd9c378940f300c1be3c1a4577c232db834454ea38358b32a770dd9ba7690154604080516362720d9160e11b8152905160008051602061211a833981519152926106da926001600160a01b039091169163c4e41b22916004808201926020929091908290030181865afa158015610b78573d6000803e3d6000fd5b505050506040513d601f19601f82011682018060405250810190610b9c9190611ddc565b10610bf55760405162461bcd60e51b8152602060048201526024808201527f6e6f206d6f7265206e6f64657320617661696c61626c652061742074686973206044820152633a34b2b960e11b60648201526084016103e2565b610c3e610c056020860186611c24565b610c156040870160208801611c24565b60408701356060880135610c2f60a08a0160808b01611e97565b8960a001358a60c001356113e0565b80546001600160a01b031663d505accf610c5b6020860186611c24565b610c6b6040870160208801611c24565b60408701356060880135610c8560a08a0160808b01611e97565b6040516001600160e01b031960e088901b1681526001600160a01b0395861660048201529490931660248501526044840191909152606483015260ff16608482015260a086013560a482015260c086013560c482015260e401600060405180830381600087803b158015610cf857600080fd5b505af1158015610d0c573d6000803e3d6000fd5b505082546001600160a01b031691506379cc67909050610d2f6020860186611c24565b604080516001600160e01b031960e085901b1681526001600160a01b0390921660048301528601356024820152604401600060405180830381600087803b158015610d7957600080fd5b505af1158015610d8d573d6000803e3d6000fd5b5050505060018101546001600160a01b03166340d097c3610db46040870160208801611c24565b6040516001600160e01b031960e084901b1681526001600160a01b039091166004820152602401600060405180830381600087803b158015610df557600080fd5b505af1158015610e09573d6000803e3d6000fd5b5050505060018160010160009054906101000a90046001600160a01b03166001600160a01b031663c4e41b226040518163ffffffff1660e01b8152600401602060405180830381865afa158015610e64573d6000803e3d6000fd5b505050506040513d601f19601f82011682018060405250810190610e889190611ddc565b610e929190611eba565b949350505050565b7fa16a46d94261c7517cc8ff89f61c0ce93598e3c849801011dee649a6a557d10280546060916000805160206120da83398151915291610ed990611edb565b80601f0160208091040260200160405190810160405280929190818152602001828054610f0590611edb565b8015610f525780601f10610f2757610100808354040283529160200191610f52565b820191906000526020600020905b815481529060010190602001808311610f3557829003601f168201915b505050505091505090565b7fa16a46d94261c7517cc8ff89f61c0ce93598e3c849801011dee649a6a557d10380546060916000805160206120da83398151915291610ed990611edb565b6001600160a01b038116610ff25760405162461bcd60e51b815260206004820152601c60248201527f7369676e657220616464726573732063616e2774206265207a65726f0000000060448201526064016103e2565b7f0fcd9c378940f300c1be3c1a4577c232db834454ea38358b32a770dd9ba769025460008051602061211a833981519152906001600160a01b0383811691160361103a575050565b6002810180546003830180546001600160a01b038084166001600160a01b0319928316179092559091169084169081179091556040519081527f414f73849b7d25ff8a60e2974ac66a3b58dceb2d1182008999f211b587e984439060200161091f565b6001600160a01b0381166110f35760405162461bcd60e51b815260206004820152601c60248201527f746f6b656e20636f6e74726163742063616e2774206265207a65726f0000000060448201526064016103e2565b60008051602061211a83398151915280546001600160a01b0383811691160361111a575050565b80546001600160a01b0319166001600160a01b03831690811782556040519081527fe89f98a27789c8313baa22de83cdb921b7026d66af0ee02973c97d45f952b6be9060200161091f565b6001600160a01b0381166111bb5760405162461bcd60e51b815260206004820152601b60248201527f6e6f646520636f6e74726163742063616e2774206265207a65726f000000000060448201526064016103e2565b7f0fcd9c378940f300c1be3c1a4577c232db834454ea38358b32a770dd9ba769015460008051602061211a833981519152906001600160a01b03838116911603611203575050565b6001810180546001600160a01b0319166001600160a01b0384169081179091556040519081527f6b19ab5e9a182b8029617eb6794c068195e987268885bd5e022dd45cf424d2b49060200161091f565b61125b611537565b61054381611580565b6107b3611537565b611274611537565b6103818282611591565b611287826115f2565b6040516001600160a01b038316907fbc7cd75a20ee27fd9adebab32041f755214dbc6bffa90cc0225b39da2e5c2d3b90600090a28051156112cc5761087b8282611657565b6103816116cd565b6040516001600160a01b03848116602483015283811660448301526001600160e01b03198316606483015260009182918291829189169060840160408051601f198184030181529181526020820180516001600160e01b031663b700961360e01b179052516113439190611f0f565b600060405180830381855afa9150503d806000811461137e576040519150601f19603f3d011682016040523d82523d6000602084013e611383565b606091505b509150915081156113d55760408151106113b557808060200190518101906113ab9190611f3b565b90945092506113d5565b60208151106113d557808060200190518101906113d29190611f7b565b93505b505094509492505050565b83421115611404576040516385adb5bf60e01b8152600481018590526024016103e2565b61140d876116ec565b60007f22b243b9e892e4ec10765520a4aebdca1d6d1a2400618d8821204f32e2883e658888886114798b6001600160a01b031660009081527f5ab42ced628888259c08ac98db1eb0cf702fc1501344311d8b100cd1bfe4bb006020526040902080546001810190915590565b6040805160208101969096526001600160a01b0394851690860152929091166060840152608083015260a082015260c0810186905260e00160405160208183030381529060405280519060200120905060006114d48261178c565b905060006114e4828787876117b9565b9050896001600160a01b0316816001600160a01b03161461152b5760405163702bc30560e11b81526001600160a01b0380831660048301528b1660248201526044016103e2565b50505050505050505050565b7ff0c57e16840df040f15088dc2f81fe391c3923bec73e23a9662efc9c229c6a0054600160401b900460ff166107b357604051631afcd79f60e31b815260040160405180910390fd5b611588611537565b610543816108c9565b611599611537565b6000805160206120da8339815191527fa16a46d94261c7517cc8ff89f61c0ce93598e3c849801011dee649a6a557d1026115d38482611fe4565b50600381016115e28382611fe4565b5060008082556001909101555050565b806001600160a01b03163b60000361162857604051634c9c8ce360e01b81526001600160a01b03821660048201526024016103e2565b6000805160206120fa83398151915280546001600160a01b0319166001600160a01b0392909216919091179055565b6060600080846001600160a01b0316846040516116749190611f0f565b600060405180830381855af49150503d80600081146116af576040519150601f19603f3d011682016040523d82523d6000602084013e6116b4565b606091505b50915091506116c48583836117e7565b95945050505050565b34156107b35760405163b398979f60e01b815260040160405180910390fd5b7f0fcd9c378940f300c1be3c1a4577c232db834454ea38358b32a770dd9ba769025460008051602061211a833981519152906001600160a01b03838116911614801590611749575060038101546001600160a01b03838116911614155b156103815760028101546003820154604051634780ba1160e11b81526001600160a01b0380861660048301529283166024820152911660448201526064016103e2565b6000610446611799611846565b8360405161190160f01b8152600281019290925260228201526042902090565b6000806000806117cb88888888611855565b9250925092506117db8282611924565b50909695505050505050565b6060826117fc576117f7826119dd565b61183f565b815115801561181357506001600160a01b0384163b155b1561183c57604051639996b31560e01b81526001600160a01b03851660048201526024016103e2565b50805b9392505050565b6000611850611a06565b905090565b600080807f7fffffffffffffffffffffffffffffff5d576e7357a4501ddfe92f46681b20a0841115611890575060009150600390508261191a565b604080516000808252602082018084528a905260ff891692820192909252606081018790526080810186905260019060a0016020604051602081039080840390855afa1580156118e4573d6000803e3d6000fd5b5050604051601f1901519150506001600160a01b0381166119105750600092506001915082905061191a565b9250600091508190505b9450945094915050565b6000826003811115611938576119386120a3565b03611941575050565b6001826003811115611955576119556120a3565b036119735760405163f645eedf60e01b815260040160405180910390fd5b6002826003811115611987576119876120a3565b036119a85760405163fce698f760e01b8152600481018290526024016103e2565b60038260038111156119bc576119bc6120a3565b03610381576040516335e2f38360e21b8152600481018290526024016103e2565b8051156119ed5780518082602001fd5b604051630a12f52160e11b815260040160405180910390fd5b60007f8b73c3c69bb8fe3d512ecc4cf759cc79239f7b179b0ffacaa9a75d522b39400f611a31611a7a565b611a39611ae4565b60408051602081019490945283019190915260608201524660808201523060a082015260c00160405160208183030381529060405280519060200120905090565b60006000805160206120da83398151915281611a94610e9a565b805190915015611aac57805160209091012092915050565b81548015611abb579392505050565b7fc5d2460186f7233c927e7db2dcc703c0e500b653ca82273b7bfad8045d85a470935050505090565b60006000805160206120da83398151915281611afe610f5d565b805190915015611b1657805160209091012092915050565b60018201548015611abb579392505050565b80356001600160a01b0381168114611b3f57600080fd5b919050565b634e487b7160e01b600052604160045260246000fd5b60008060408385031215611b6d57600080fd5b611b7683611b28565b9150602083013567ffffffffffffffff811115611b9257600080fd5b8301601f81018513611ba357600080fd5b803567ffffffffffffffff811115611bbd57611bbd611b44565b604051601f8201601f19908116603f0116810167ffffffffffffffff81118282101715611bec57611bec611b44565b604052818152828201602001871015611c0457600080fd5b816020840160208301376000602083830101528093505050509250929050565b600060208284031215611c3657600080fd5b61044382611b28565b600060e08284031215611c5157600080fd5b50919050565b6000806101c08385031215611c6b57600080fd5b611c758484611c3f565b9150611c848460e08501611c3f565b90509250929050565b60005b83811015611ca8578181015183820152602001611c90565b50506000910152565b60008151808452611cc9816020860160208601611c8d565b601f01601f19169290920160200192915050565b60ff60f81b8816815260e060208201526000611cfc60e0830189611cb1565b8281036040840152611d0e8189611cb1565b606084018890526001600160a01b038716608085015260a0840186905283810360c08501528451808252602080870193509091019060005b81811015611d64578351835260209384019390920191600101611d46565b50909b9a5050505050505050505050565b6020815260006104436020830184611cb1565b60008060008060808587031215611d9e57600080fd5b611da785611b28565b9350611db560208601611b28565b9250611dc360408601611b28565b9150611dd160608601611b28565b905092959194509250565b600060208284031215611dee57600080fd5b5051919050565b60008085851115611e0557600080fd5b83861115611e1257600080fd5b5050820193919092039150565b80356001600160e01b03198116906004841015611e50576001600160e01b0319600485900360031b81901b82161691505b5092915050565b6001600160a01b03841681526040602082018190528101829052818360608301376000818301606090810191909152601f909201601f1916010192915050565b600060208284031215611ea957600080fd5b813560ff8116811461183f57600080fd5b8181038181111561044657634e487b7160e01b600052601160045260246000fd5b600181811c90821680611eef57607f821691505b602082108103611c5157634e487b7160e01b600052602260045260246000fd5b60008251611f21818460208701611c8d565b9190910192915050565b80518015158114611b3f57600080fd5b60008060408385031215611f4e57600080fd5b611f5783611f2b565b9150602083015163ffffffff81168114611f7057600080fd5b809150509250929050565b600060208284031215611f8d57600080fd5b61044382611f2b565b601f82111561087b57806000526020600020601f840160051c81016020851015611fbd5750805b601f840160051c820191505b81811015611fdd5760008155600101611fc9565b5050505050565b815167ffffffffffffffff811115611ffe57611ffe611b44565b6120128161200c8454611edb565b84611f96565b6020601f821160018114612046576000831561202e5750848201515b600019600385901b1c1916600184901b178455611fdd565b600084815260208120601f198516915b828110156120765787850151825560209485019460019092019101612056565b50848210156120945786840151600019600387901b60f8161c191681555b50505050600190811b01905550565b634e487b7160e01b600052602160045260246000fdfef3177357ab46d8af007ab3fdb9af81da189e1068fefdc0073dca88a2cab40a00a16a46d94261c7517cc8ff89f61c0ce93598e3c849801011dee649a6a557d100360894a13ba1a3210667c828492db98dca3e2076cc3735a920a3ca505d382bbc0fcd9c378940f300c1be3c1a4577c232db834454ea38358b32a770dd9ba76900a2646970667358221220fc463ba4a1eb6eb689b71202a6681203fd9807b22d6938b23e16491810e6d6a764736f6c634300081c0033",
  "linkReferences": {},
  "deployedLinkReferences": {}
}