{
  "_format": "hh-sol-artifact-1",
  "contractName": "OsmiDistributionManager",
  "sourceName": "contracts/OsmiDistributionManager.sol",
  "abi": [
    {
      "inputs": [],
      "stateMutability": "nonpayable",
      "type": "constructor"
    },
    {
      "inputs": [
        {
          "internalType": "address",
          "name": "authority",
          "type": "address"
        }
      ],
      "name": "AccessManagedInvalidAuthority",
      "type": "error"
    },
    {
      "inputs": [
        {
          "internalType": "address",
          "name": "caller",
          "type": "address"
        },
        {
          "internalType": "uint32",
          "name": "delay",
          "type": "uint32"
        }
      ],
      "name": "AccessManagedRequiredDelay",
      "type": "error"
    },
    {
      "inputs": [
        {
          "internalType": "address",
          "name": "caller",
          "type": "address"
        }
      ],
      "name": "AccessManagedUnauthorized",
      "type": "error"
    },
    {
      "inputs": [
        {
          "internalType": "address",
          "name": "target",
          "type": "address"
        }
      ],
      "name": "AddressEmptyCode",
      "type": "error"
    },
    {
      "inputs": [],
      "name": "ECDSAInvalidSignature",
      "type": "error"
    },
    {
      "inputs": [
        {
          "internalType": "uint256",
          "name": "length",
          "type": "uint256"
        }
      ],
      "name": "ECDSAInvalidSignatureLength",
      "type": "error"
    },
    {
      "inputs": [
        {
          "internalType": "bytes32",
          "name": "s",
          "type": "bytes32"
        }
      ],
      "name": "ECDSAInvalidSignatureS",
      "type": "error"
    },
    {
      "inputs": [
        {
          "internalType": "address",
          "name": "implementation",
          "type": "address"
        }
      ],
      "name": "ERC1967InvalidImplementation",
      "type": "error"
    },
    {
      "inputs": [],
      "name": "ERC1967NonPayable",
      "type": "error"
    },
    {
      "inputs": [],
      "name": "FailedInnerCall",
      "type": "error"
    },
    {
      "inputs": [
        {
          "internalType": "address",
          "name": "user",
          "type": "address"
        },
        {
          "internalType": "uint256",
          "name": "allowance",
          "type": "uint256"
        },
        {
          "internalType": "uint256",
          "name": "needed",
          "type": "uint256"
        }
      ],
      "name": "InsufficientAllowance",
      "type": "error"
    },
    {
      "inputs": [
        {
          "internalType": "address",
          "name": "account",
          "type": "address"
        },
        {
          "internalType": "uint256",
          "name": "currentNonce",
          "type": "uint256"
        }
      ],
      "name": "InvalidAccountNonce",
      "type": "error"
    },
    {
      "inputs": [],
      "name": "InvalidInitialization",
      "type": "error"
    },
    {
      "inputs": [
        {
          "internalType": "address",
          "name": "signer",
          "type": "address"
        },
        {
          "internalType": "address",
          "name": "owner",
          "type": "address"
        }
      ],
      "name": "InvalidSigner",
      "type": "error"
    },
    {
      "inputs": [
        {
          "internalType": "bytes32",
          "name": "expected",
          "type": "bytes32"
        },
        {
          "internalType": "bytes32",
          "name": "actual",
          "type": "bytes32"
        }
      ],
      "name": "InvalidTicketHash",
      "type": "error"
    },
    {
      "inputs": [
        {
          "internalType": "address",
          "name": "signer",
          "type": "address"
        },
        {
          "internalType": "address",
          "name": "one",
          "type": "address"
        },
        {
          "internalType": "address",
          "name": "two",
          "type": "address"
        }
      ],
      "name": "InvalidTicketSigner",
      "type": "error"
    },
    {
      "inputs": [],
      "name": "MathOverflowedMulDiv",
      "type": "error"
    },
    {
      "inputs": [],
      "name": "NotInitializing",
      "type": "error"
    },
    {
      "inputs": [],
      "name": "TicketExpired",
      "type": "error"
    },
    {
      "inputs": [],
      "name": "TicketIssuedTooSoon",
      "type": "error"
    },
    {
      "inputs": [],
      "name": "UUPSUnauthorizedCallContext",
      "type": "error"
    },
    {
      "inputs": [
        {
          "internalType": "bytes32",
          "name": "slot",
          "type": "bytes32"
        }
      ],
      "name": "UUPSUnsupportedProxiableUUID",
      "type": "error"
    },
    {
      "inputs": [],
      "name": "UnsupportedBridge",
      "type": "error"
    },
    {
      "inputs": [],
      "name": "ZeroAddressNotAllowed",
      "type": "error"
    },
    {
      "inputs": [],
      "name": "ZeroAmountNotAllowed",
      "type": "error"
    },
    {
      "anonymous": false,
      "inputs": [
        {
          "indexed": false,
          "internalType": "address",
          "name": "authority",
          "type": "address"
        }
      ],
      "name": "AuthorityUpdated",
      "type": "event"
    },
    {
      "anonymous": false,
      "inputs": [
        {
          "indexed": false,
          "internalType": "enum OsmiDistributionManager.Bridge",
          "name": "bridge",
          "type": "uint8"
        },
        {
          "indexed": false,
          "internalType": "address",
          "name": "bridgeContract",
          "type": "address"
        }
      ],
      "name": "BridgeContractChanged",
      "type": "event"
    },
    {
      "anonymous": false,
      "inputs": [
        {
          "indexed": false,
          "internalType": "contract IOsmiConfig",
          "name": "configContract",
          "type": "address"
        }
      ],
      "name": "ConfigContractChanged",
      "type": "event"
    },
    {
      "anonymous": false,
      "inputs": [],
      "name": "EIP712DomainChanged",
      "type": "event"
    },
    {
      "anonymous": false,
      "inputs": [
        {
          "indexed": false,
          "internalType": "uint64",
          "name": "version",
          "type": "uint64"
        }
      ],
      "name": "Initialized",
      "type": "event"
    },
    {
      "anonymous": false,
      "inputs": [
        {
          "indexed": false,
          "internalType": "address",
          "name": "user",
          "type": "address"
        },
        {
          "indexed": false,
          "internalType": "uint256",
          "name": "amount",
          "type": "uint256"
        },
        {
          "indexed": false,
          "internalType": "uint256",
          "name": "timestamp",
          "type": "uint256"
        }
      ],
      "name": "TicketRedeemed",
      "type": "event"
    },
    {
      "anonymous": false,
      "inputs": [
        {
          "indexed": false,
          "internalType": "address",
          "name": "ticketSigner",
          "type": "address"
        }
      ],
      "name": "TicketSignerChanged",
      "type": "event"
    },
    {
      "anonymous": false,
      "inputs": [
        {
          "indexed": false,
          "internalType": "contract IOsmiToken",
          "name": "tokenContract",
          "type": "address"
        }
      ],
      "name": "TokenContractChanged",
      "type": "event"
    },
    {
      "anonymous": false,
      "inputs": [
        {
          "indexed": false,
          "internalType": "address",
          "name": "tokenPool",
          "type": "address"
        }
      ],
      "name": "TokenPoolChanged",
      "type": "event"
    },
    {
      "anonymous": false,
      "inputs": [
        {
          "indexed": false,
          "internalType": "address",
          "name": "user",
          "type": "address"
        },
        {
          "indexed": false,
          "internalType": "uint256",
          "name": "amount",
          "type": "uint256"
        },
        {
          "indexed": false,
          "internalType": "enum OsmiDistributionManager.Bridge",
          "name": "bridge",
          "type": "uint8"
        },
        {
          "indexed": false,
          "internalType": "string",
          "name": "target",
          "type": "string"
        }
      ],
      "name": "TokensBridgedTo",
      "type": "event"
    },
    {
      "anonymous": false,
      "inputs": [
        {
          "indexed": false,
          "internalType": "address",
          "name": "user",
          "type": "address"
        },
        {
          "indexed": false,
          "internalType": "uint256",
          "name": "amount",
          "type": "uint256"
        },
        {
          "indexed": false,
          "internalType": "enum OsmiDistributionManager.Bridge",
          "name": "bridge",
          "type": "uint8"
        }
      ],
      "name": "TokensClaimed",
      "type": "event"
    },
    {
      "anonymous": false,
      "inputs": [
        {
          "indexed": false,
          "internalType": "address",
          "name": "user",
          "type": "address"
        },
        {
          "indexed": false,
          "internalType": "uint256",
          "name": "amount",
          "type": "uint256"
        }
      ],
      "name": "TokensStaked",
      "type": "event"
    },
    {
      "anonymous": false,
      "inputs": [
        {
          "indexed": false,
          "internalType": "address",
          "name": "user",
          "type": "address"
        },
        {
          "indexed": false,
          "internalType": "uint256",
          "name": "amount",
          "type": "uint256"
        }
      ],
      "name": "TokensUnstaked",
      "type": "event"
    },
    {
      "anonymous": false,
      "inputs": [
        {
          "indexed": false,
          "internalType": "uint256",
          "name": "version",
          "type": "uint256"
        }
      ],
      "name": "UpgradeMigration",
      "type": "event"
    },
    {
      "anonymous": false,
      "inputs": [
        {
          "indexed": true,
          "internalType": "address",
          "name": "implementation",
          "type": "address"
        }
      ],
      "name": "Upgraded",
      "type": "event"
    },
    {
      "inputs": [],
      "name": "UPGRADE_INTERFACE_VERSION",
      "outputs": [
        {
          "internalType": "string",
          "name": "",
          "type": "string"
        }
      ],
      "stateMutability": "view",
      "type": "function"
    },
    {
      "inputs": [],
      "name": "authority",
      "outputs": [
        {
          "internalType": "address",
          "name": "",
          "type": "address"
        }
      ],
      "stateMutability": "view",
      "type": "function"
    },
    {
      "inputs": [
        {
          "internalType": "uint256",
          "name": "amount",
          "type": "uint256"
        },
        {
          "internalType": "enum OsmiDistributionManager.Bridge",
          "name": "bridge",
          "type": "uint8"
        }
      ],
      "name": "bridgeTokens",
      "outputs": [
        {
          "internalType": "uint256",
          "name": "allowance",
          "type": "uint256"
        }
      ],
      "stateMutability": "nonpayable",
      "type": "function"
    },
    {
      "inputs": [
        {
          "internalType": "uint256",
          "name": "amount",
          "type": "uint256"
        },
        {
          "internalType": "string",
          "name": "targetAlias",
          "type": "string"
        }
      ],
      "name": "bridgeTokensToGalaChainAlias",
      "outputs": [
        {
          "internalType": "uint256",
          "name": "allowance",
          "type": "uint256"
        }
      ],
      "stateMutability": "nonpayable",
      "type": "function"
    },
    {
      "inputs": [
        {
          "internalType": "uint256",
          "name": "amount",
          "type": "uint256"
        }
      ],
      "name": "claimTokens",
      "outputs": [
        {
          "internalType": "uint256",
          "name": "allowance",
          "type": "uint256"
        }
      ],
      "stateMutability": "nonpayable",
      "type": "function"
    },
    {
      "inputs": [],
      "name": "eip712Domain",
      "outputs": [
        {
          "internalType": "bytes1",
          "name": "fields",
          "type": "bytes1"
        },
        {
          "internalType": "string",
          "name": "name",
          "type": "string"
        },
        {
          "internalType": "string",
          "name": "version",
          "type": "string"
        },
        {
          "internalType": "uint256",
          "name": "chainId",
          "type": "uint256"
        },
        {
          "internalType": "address",
          "name": "verifyingContract",
          "type": "address"
        },
        {
          "internalType": "bytes32",
          "name": "salt",
          "type": "bytes32"
        },
        {
          "internalType": "uint256[]",
          "name": "extensions",
          "type": "uint256[]"
        }
      ],
      "stateMutability": "view",
      "type": "function"
    },
    {
      "inputs": [
        {
          "internalType": "enum OsmiDistributionManager.Bridge",
          "name": "bridge",
          "type": "uint8"
        }
      ],
      "name": "getBridgeContract",
      "outputs": [
        {
          "internalType": "address",
          "name": "",
          "type": "address"
        }
      ],
      "stateMutability": "view",
      "type": "function"
    },
    {
      "inputs": [],
      "name": "getConfigContract",
      "outputs": [
        {
          "internalType": "contract IOsmiConfig",
          "name": "",
          "type": "address"
        }
      ],
      "stateMutability": "view",
      "type": "function"
    },
    {
      "inputs": [],
      "name": "getTicketSigners",
      "outputs": [
        {
          "internalType": "address",
          "name": "",
          "type": "address"
        },
        {
          "internalType": "address",
          "name": "",
          "type": "address"
        }
      ],
      "stateMutability": "view",
      "type": "function"
    },
    {
      "inputs": [
        {
          "internalType": "address",
          "name": "initialAuthority",
          "type": "address"
        },
        {
          "internalType": "address",
          "name": "configContract",
          "type": "address"
        },
        {
          "internalType": "address",
          "name": "ticketSigner",
          "type": "address"
        }
      ],
      "name": "initialize",
      "outputs": [],
      "stateMutability": "nonpayable",
      "type": "function"
    },
    {
      "inputs": [],
      "name": "isConsumingScheduledOp",
      "outputs": [
        {
          "internalType": "bytes4",
          "name": "",
          "type": "bytes4"
        }
      ],
      "stateMutability": "view",
      "type": "function"
    },
    {
      "inputs": [
        {
          "internalType": "address",
          "name": "owner",
          "type": "address"
        }
      ],
      "name": "nonces",
      "outputs": [
        {
          "internalType": "uint256",
          "name": "",
          "type": "uint256"
        }
      ],
      "stateMutability": "view",
      "type": "function"
    },
    {
      "inputs": [],
      "name": "proxiableUUID",
      "outputs": [
        {
          "internalType": "bytes32",
          "name": "",
          "type": "bytes32"
        }
      ],
      "stateMutability": "view",
      "type": "function"
    },
    {
      "inputs": [
        {
          "components": [
            {
              "internalType": "address",
              "name": "signer",
              "type": "address"
            },
            {
              "internalType": "address",
              "name": "user",
              "type": "address"
            },
            {
              "internalType": "uint256",
              "name": "timestamp",
              "type": "uint256"
            },
            {
              "internalType": "bytes32",
              "name": "expectedHash",
              "type": "bytes32"
            },
            {
              "internalType": "uint256",
              "name": "amount",
              "type": "uint256"
            },
            {
              "internalType": "uint8",
              "name": "v",
              "type": "uint8"
            },
            {
              "internalType": "bytes32",
              "name": "r",
              "type": "bytes32"
            },
            {
              "internalType": "bytes32",
              "name": "s",
              "type": "bytes32"
            }
          ],
          "internalType": "struct OsmiDistributionManager.Ticket",
          "name": "ticket",
          "type": "tuple"
        }
      ],
      "name": "redeem",
      "outputs": [
        {
          "internalType": "uint256",
          "name": "allowance",
          "type": "uint256"
        }
      ],
      "stateMutability": "nonpayable",
      "type": "function"
    },
    {
      "inputs": [
        {
          "components": [
            {
              "internalType": "address",
              "name": "signer",
              "type": "address"
            },
            {
              "internalType": "address",
              "name": "user",
              "type": "address"
            },
            {
              "internalType": "uint256",
              "name": "timestamp",
              "type": "uint256"
            },
            {
              "internalType": "bytes32",
              "name": "expectedHash",
              "type": "bytes32"
            },
            {
              "internalType": "uint256",
              "name": "amount",
              "type": "uint256"
            },
            {
              "internalType": "uint8",
              "name": "v",
              "type": "uint8"
            },
            {
              "internalType": "bytes32",
              "name": "r",
              "type": "bytes32"
            },
            {
              "internalType": "bytes32",
              "name": "s",
              "type": "bytes32"
            }
          ],
          "internalType": "struct OsmiDistributionManager.Ticket",
          "name": "ticket",
          "type": "tuple"
        },
        {
          "internalType": "uint256",
          "name": "amount",
          "type": "uint256"
        },
        {
          "internalType": "enum OsmiDistributionManager.Bridge",
          "name": "bridge",
          "type": "uint8"
        }
      ],
      "name": "redeemAndBridge",
      "outputs": [
        {
          "internalType": "uint256",
          "name": "allowance",
          "type": "uint256"
        }
      ],
      "stateMutability": "nonpayable",
      "type": "function"
    },
    {
      "inputs": [
        {
          "components": [
            {
              "internalType": "address",
              "name": "signer",
              "type": "address"
            },
            {
              "internalType": "address",
              "name": "user",
              "type": "address"
            },
            {
              "internalType": "uint256",
              "name": "timestamp",
              "type": "uint256"
            },
            {
              "internalType": "bytes32",
              "name": "expectedHash",
              "type": "bytes32"
            },
            {
              "internalType": "uint256",
              "name": "amount",
              "type": "uint256"
            },
            {
              "internalType": "uint8",
              "name": "v",
              "type": "uint8"
            },
            {
              "internalType": "bytes32",
              "name": "r",
              "type": "bytes32"
            },
            {
              "internalType": "bytes32",
              "name": "s",
              "type": "bytes32"
            }
          ],
          "internalType": "struct OsmiDistributionManager.Ticket",
          "name": "ticket",
          "type": "tuple"
        },
        {
          "internalType": "uint256",
          "name": "amount",
          "type": "uint256"
        },
        {
          "internalType": "string",
          "name": "targetAlias",
          "type": "string"
        }
      ],
      "name": "redeemAndBridgeToGalaChainAlias",
      "outputs": [
        {
          "internalType": "uint256",
          "name": "allowance",
          "type": "uint256"
        }
      ],
      "stateMutability": "nonpayable",
      "type": "function"
    },
    {
      "inputs": [
        {
          "components": [
            {
              "internalType": "address",
              "name": "signer",
              "type": "address"
            },
            {
              "internalType": "address",
              "name": "user",
              "type": "address"
            },
            {
              "internalType": "uint256",
              "name": "timestamp",
              "type": "uint256"
            },
            {
              "internalType": "bytes32",
              "name": "expectedHash",
              "type": "bytes32"
            },
            {
              "internalType": "uint256",
              "name": "amount",
              "type": "uint256"
            },
            {
              "internalType": "uint8",
              "name": "v",
              "type": "uint8"
            },
            {
              "internalType": "bytes32",
              "name": "r",
              "type": "bytes32"
            },
            {
              "internalType": "bytes32",
              "name": "s",
              "type": "bytes32"
            }
          ],
          "internalType": "struct OsmiDistributionManager.Ticket",
          "name": "ticket",
          "type": "tuple"
        },
        {
          "internalType": "uint256",
          "name": "amount",
          "type": "uint256"
        }
      ],
      "name": "redeemAndClaim",
      "outputs": [
        {
          "internalType": "uint256",
          "name": "allowance",
          "type": "uint256"
        }
      ],
      "stateMutability": "nonpayable",
      "type": "function"
    },
    {
      "inputs": [
        {
          "components": [
            {
              "internalType": "address",
              "name": "signer",
              "type": "address"
            },
            {
              "internalType": "address",
              "name": "user",
              "type": "address"
            },
            {
              "internalType": "uint256",
              "name": "timestamp",
              "type": "uint256"
            },
            {
              "internalType": "bytes32",
              "name": "expectedHash",
              "type": "bytes32"
            },
            {
              "internalType": "uint256",
              "name": "amount",
              "type": "uint256"
            },
            {
              "internalType": "uint8",
              "name": "v",
              "type": "uint8"
            },
            {
              "internalType": "bytes32",
              "name": "r",
              "type": "bytes32"
            },
            {
              "internalType": "bytes32",
              "name": "s",
              "type": "bytes32"
            }
          ],
          "internalType": "struct OsmiDistributionManager.Ticket",
          "name": "ticket",
          "type": "tuple"
        },
        {
          "internalType": "uint256",
          "name": "amount",
          "type": "uint256"
        }
      ],
      "name": "redeemAndStake",
      "outputs": [
        {
          "internalType": "uint256",
          "name": "allowance",
          "type": "uint256"
        }
      ],
      "stateMutability": "nonpayable",
      "type": "function"
    },
    {
      "inputs": [
        {
          "internalType": "address",
          "name": "newAuthority",
          "type": "address"
        }
      ],
      "name": "setAuthority",
      "outputs": [],
      "stateMutability": "nonpayable",
      "type": "function"
    },
    {
      "inputs": [
        {
          "internalType": "enum OsmiDistributionManager.Bridge",
          "name": "bridge",
          "type": "uint8"
        },
        {
          "internalType": "address",
          "name": "bridgeContract",
          "type": "address"
        }
      ],
      "name": "setBridgeContract",
      "outputs": [],
      "stateMutability": "nonpayable",
      "type": "function"
    },
    {
      "inputs": [
        {
          "internalType": "address",
          "name": "configContract",
          "type": "address"
        }
      ],
      "name": "setConfigContract",
      "outputs": [],
      "stateMutability": "nonpayable",
      "type": "function"
    },
    {
      "inputs": [
        {
          "internalType": "address",
          "name": "signer",
          "type": "address"
        }
      ],
      "name": "setTicketSigner",
      "outputs": [],
      "stateMutability": "nonpayable",
      "type": "function"
    },
    {
      "inputs": [
        {
          "internalType": "uint256",
          "name": "amount",
          "type": "uint256"
        }
      ],
      "name": "stakeTokens",
      "outputs": [
        {
          "internalType": "uint256",
          "name": "allowance",
          "type": "uint256"
        }
      ],
      "stateMutability": "nonpayable",
      "type": "function"
    },
    {
      "inputs": [
        {
          "internalType": "address",
          "name": "newImplementation",
          "type": "address"
        },
        {
          "internalType": "bytes",
          "name": "data",
          "type": "bytes"
        }
      ],
      "name": "upgradeToAndCall",
      "outputs": [],
      "stateMutability": "payable",
      "type": "function"
    }
  ],
  "bytecode": "0x60a06040523060805234801561001457600080fd5b5061001d610022565b6100d4565b7ff0c57e16840df040f15088dc2f81fe391c3923bec73e23a9662efc9c229c6a00805468010000000000000000900460ff16156100725760405163f92ee8a960e01b815260040160405180910390fd5b80546001600160401b03908116146100d15780546001600160401b0319166001600160401b0390811782556040519081527fc7f505b2f371ae2175ee4913f4499e1f2633a7b5936321eed1cdaeb6115181d29060200160405180910390a15b50565b6080516132276100fd600039600081816115ce015281816115f7015261174001526132276000f3fe60806040526004361061014b5760003560e01c806384b0196e116100b6578063a35ff3bf1161006f578063a35ff3bf146103fa578063ad3cb1cc1461041a578063b2f35e4914610458578063bf7e214f14610478578063c0c53b8b1461048d578063de7b8ffe146104ad57600080fd5b806384b0196e1461030f57806389255bbb146103375780638fb3603714610357578063989e9b2f1461038557806399c4aaae146103a55780639c882176146103c557600080fd5b80634f1ef286116101085780634f1ef2861461023057806352d1902d1461024557806365ec1ed61461025a5780637547c7a31461027a5780637a9e5e4b1461029a5780637ecebe00146102ba57600080fd5b80630ce6f6a9146101505780630e1c3a4a1461018357806310d50ea4146101b057806316b6f8bb146101d057806346e04a2f146101f05780634d56346214610210575b600080fd5b34801561015c57600080fd5b5061017061016b3660046128c6565b6104cd565b6040519081526020015b60405180910390f35b34801561018f57600080fd5b506101986104ed565b6040516001600160a01b03909116815260200161017a565b3480156101bc57600080fd5b506101706101cb36600461292c565b6104fc565b3480156101dc57600080fd5b506101706101eb36600461298a565b610560565b3480156101fc57600080fd5b5061017061020b3660046129d6565b61057e565b34801561021c57600080fd5b5061019861022b3660046129fe565b610594565b61024361023e366004612a44565b61059f565b005b34801561025157600080fd5b506101706105be565b34801561026657600080fd5b50610170610275366004612b10565b6105db565b34801561028657600080fd5b506101706102953660046129d6565b61060b565b3480156102a657600080fd5b506102436102b5366004612b3c565b610621565b3480156102c657600080fd5b506101706102d5366004612b3c565b6001600160a01b031660009081527f5ab42ced628888259c08ac98db1eb0cf702fc1501344311d8b100cd1bfe4bb00602052604090205490565b34801561031b57600080fd5b506103246106a9565b60405161017a9796959493929190612ba9565b34801561034357600080fd5b50610243610352366004612c41565b610755565b34801561036357600080fd5b5061036c6108cc565b6040516001600160e01b0319909116815260200161017a565b34801561039157600080fd5b506101706103a0366004612c78565b610905565b3480156103b157600080fd5b506101706103c0366004612cb8565b610923565b3480156103d157600080fd5b506103da610941565b604080516001600160a01b0393841681529290911660208301520161017a565b34801561040657600080fd5b50610243610415366004612b3c565b6109a4565b34801561042657600080fd5b5061044b604051806040016040528060058152602001640352e302e360dc1b81525081565b60405161017a9190612ce5565b34801561046457600080fd5b50610170610473366004612cb8565b6109b9565b34801561048457600080fd5b506101986109d7565b34801561049957600080fd5b506102436104a8366004612cf8565b6109fa565b3480156104b957600080fd5b506102436104c8366004612b3c565b610b8e565b60006104dc335b600036610ba0565b6104e582610ca6565b90505b919050565b60006104f7610f3f565b905090565b6000610507336104d4565b61051085610ca6565b50610555335b85600186868080601f016020809104026020016040519081016040528093929190818152602001838380828437600092019190915250610f5692505050565b90505b949350505050565b600061056b336104d4565b61057433610516565b90505b9392505050565b6000610589336104d4565b6104e5335b83611304565b60006104e582611519565b6105a76115c3565b6105b08261166a565b6105ba8282611673565b5050565b60006105c8611735565b506000805160206131b283398151915290565b60006105e6336104d4565b610602335b848460405180602001604052806000815250610f56565b90505b92915050565b6000610616336104d4565b6104e5335b8361177e565b3361062a6109d7565b6001600160a01b0316816001600160a01b03161461066a5760405162d1953b60e31b81526001600160a01b03821660048201526024015b60405180910390fd5b816001600160a01b03163b6000036106a0576040516361798f2f60e11b81526001600160a01b0383166004820152602401610661565b6105ba826119f3565b6000606080828080838160008051602061319283398151915280549091501580156106d657506001810154155b61071a5760405162461bcd60e51b81526020600482015260156024820152741152540dcc4c8e88155b9a5b9a5d1a585b1a5e9959605a1b6044820152606401610661565b610722611a55565b61072a611b18565b60408051600080825260208201909252600f60f81b9c939b5091995046985030975095509350915050565b61075e336104d4565b600082600281111561077257610772612d43565b1115806107915750600282600281111561078e5761078e612d43565b10155b156107af57604051631da5310560e01b815260040160405180910390fd5b6000805160206131d28339815191526001600160a01b0382167f55830a805815e4d506db4501e6719bc7b974e594ecdefb09d1856bf6a5d7950560008560028111156107fd576107fd612d43565b600281111561080e5761080e612d43565b81526020810191909152604001600020546001600160a01b03160361083257505050565b8181600501600085600281111561084b5761084b612d43565b600281111561085c5761085c612d43565b815260200190815260200160002060006101000a8154816001600160a01b0302191690836001600160a01b031602179055507ff8a8a21419a446fca7e68faabc9cc446414eff015f0cb697bc94c9ec453efe4783836040516108bf929190612d7b565b60405180910390a1505050565b600080516020613172833981519152805460009190600160a01b900460ff166108f65760006108ff565b638fb3603760e01b5b91505090565b6000610910336104d4565b61091984610ca6565b50610574336105eb565b600061092e336104d4565b61093783610ca6565b506106023361061b565b60008061099c7f55830a805815e4d506db4501e6719bc7b974e594ecdefb09d1856bf6a5d79502547f55830a805815e4d506db4501e6719bc7b974e594ecdefb09d1856bf6a5d79503546001600160a01b0391821692911690565b915091509091565b6109ad336104d4565b6109b681611b57565b50565b60006109c4336104d4565b6109cd83610ca6565b506106023361058e565b6000806000805160206131728339815191525b546001600160a01b031692915050565b7ff0c57e16840df040f15088dc2f81fe391c3923bec73e23a9662efc9c229c6a008054600160401b810460ff16159067ffffffffffffffff16600081158015610a405750825b905060008267ffffffffffffffff166001148015610a5d5750303b155b905081158015610a6b575080155b15610a895760405163f92ee8a960e01b815260040160405180910390fd5b845467ffffffffffffffff191660011785558315610ab357845460ff60401b1916600160401b1785555b610abc88611c29565b610ac4611c3a565b610acc611c3a565b610b246040518060400160405280601781526020017f4f736d69446973747269627574696f6e4d616e61676572000000000000000000815250604051806040016040528060018152602001603160f81b815250611c42565b610b2c611c3a565b610b3587611c54565b610b3e86611b57565b8315610b8457845460ff60401b19168555604051600181527fc7f505b2f371ae2175ee4913f4499e1f2633a7b5936321eed1cdaeb6115181d29060200160405180910390a15b5050505050505050565b610b97336104d4565b6109b681611c54565b600080516020613172833981519152600080610bdb610bbd6109d7565b8730610bcd600460008a8c612da1565b610bd691612dcb565b611ced565b9150915081610c9e5763ffffffff811615610c7b57825460ff60a01b1916600160a01b178355610c096109d7565b6001600160a01b03166394c7d7ee8787876040518463ffffffff1660e01b8152600401610c3893929190612e03565b600060405180830381600087803b158015610c5257600080fd5b505af1158015610c66573d6000803e3d6000fd5b5050845460ff60a01b1916855550610c9e9050565b60405162d1953b60e31b81526001600160a01b0387166004820152602401610661565b505050505050565b600080610cb283611df9565b90506000805160206131d2833981519152600060008051602061315283398151915281610ce56040880160208901612b3c565b6001600160a01b03166001600160a01b03168152602001908152602001600020905060006001600160a01b0316856020016020810190610d259190612b3c565b6001600160a01b031603610d4c576040516342bcdf7f60e11b815260040160405180910390fd5b8460800135600003610d71576040516307a1cab560e11b815260040160405180910390fd5b600181015460408601359062014370610d8a8342612e59565b1115610da9576040516340d3544760e01b815260040160405180910390fd5b62014370610db78284612e59565b1015610dd6576040516317e8a5cb60e01b815260040160405180910390fd5b8260020154876060013514610e1157600283015460405163131bf61b60e01b8152606089013560048201526024810191909152604401610661565b8660800135836000016000828254610e299190612e6c565b9091555050604087018035600185015560028401546000917f4e9b0e2afb2e56a47cc5c5693615261ff938bb48f9baf05077e20c8fd8d5f71a9190610e719060208c01612b3c565b604080516020810194909452838101929092526001600160a01b0316606083015289013560808281019190915289013560a082015260c0810187905260e001604051602081830303815290604052805190602001209050610ed181611fa9565b60028501557fc486cbcc73b5497f564228f5833a8766da2c87c2b5669ce5838d50bdf396f074610f0760408a0160208b01612b3c565b604080516001600160a01b03909216825260808b01356020830152810185905260600160405180910390a15050905495945050505050565b6000806000805160206131d28339815191526109ea565b60006001600160a01b038516610f7f576040516342bcdf7f60e11b815260040160405180910390fd5b83600003610fa0576040516307a1cab560e11b815260040160405180910390fd5b6001600160a01b03851660009081526000805160206131528339815191526020526040902080546000805160206131d2833981519152919086111561101f5780548790610fed8189612e59565b604051630c95cf2760e11b81526001600160a01b03909316600484015260248301919091526044820152606401610661565b858160000160008282546110339190612e59565b90915550506040517f53784b3fa987ce4f3566245eefd7537f99a526db5a6213c14e1bbe9c99d37b239061106c90899089908990612e7f565b60405180910390a160006110898763017d7840633b9aca00611fd6565b90506110958188612e59565b965060006110a161209a565b905060006110ad612117565b60405163079cc67960e41b81526001600160a01b03808316600483015260248201869052919250908316906379cc679090604401600060405180830381600087803b1580156110fb57600080fd5b505af115801561110f573d6000803e3d6000fd5b50506040516323b872dd60e01b81526001600160a01b038481166004830152306024830152604482018d9052851692506323b872dd91506064016020604051808303816000875af1158015611168573d6000803e3d6000fd5b505050506040513d601f19601f8201168201806040525081019061118c9190612eb3565b50600061119889611519565b90506001600160a01b0381166111c157604051631da5310560e01b815260040160405180910390fd5b60405163095ea7b360e01b81526001600160a01b038281166004830152602482018c905284169063095ea7b3906044016020604051808303816000875af1158015611210573d6000803e3d6000fd5b505050506040513d601f19601f820116820180604052508101906112349190612eb3565b50875160000361124e576112478b612170565b975061128c565b7f10edc0cc0608da2f99201b0db024d7220b089c82c6e0e41793d96a9096f29f728b8b8b8b6040516112839493929190612ece565b60405180910390a15b60405163d7907a6160e01b81526001600160a01b0382169063d7907a61906112c29086908e906000906001908f90600401612f0e565b600060405180830381600087803b1580156112dc57600080fd5b505af11580156112f0573d6000803e3d6000fd5b505095549c9b505050505050505050505050565b60006001600160a01b03831661132d576040516342bcdf7f60e11b815260040160405180910390fd5b8160000361134e576040516307a1cab560e11b815260040160405180910390fd5b6001600160a01b03831660009081526000805160206131528339815191526020526040902080546000805160206131d2833981519152919084111561139b5780548590610fed8187612e59565b838160000160008282546113af9190612e59565b90915550506040517f53784b3fa987ce4f3566245eefd7537f99a526db5a6213c14e1bbe9c99d37b23906113e99087908790600090612e7f565b60405180910390a160006114068563017d7840633b9aca00611fd6565b90506114128186612e59565b9450600061141e61209a565b9050600061142a612117565b60405163079cc67960e41b81526001600160a01b03808316600483015260248201869052919250908316906379cc679090604401600060405180830381600087803b15801561147857600080fd5b505af115801561148c573d6000803e3d6000fd5b50506040516323b872dd60e01b81526001600160a01b0384811660048301528b81166024830152604482018b9052851692506323b872dd91506064016020604051808303816000875af11580156114e7573d6000803e3d6000fd5b505050506040513d601f19601f8201168201806040525081019061150b9190612eb3565b505091549695505050505050565b6000600182600281111561152f5761152f612d43565b1461154d57604051631da5310560e01b815260040160405180910390fd5b6000805160206131d28339815191527f55830a805815e4d506db4501e6719bc7b974e594ecdefb09d1856bf6a5d79505600084600281111561159157611591612d43565b60028111156115a2576115a2612d43565b81526020810191909152604001600020546001600160a01b03169392505050565b306001600160a01b037f000000000000000000000000000000000000000000000000000000000000000016148061164a57507f00000000000000000000000000000000000000000000000000000000000000006001600160a01b031661163e6000805160206131b2833981519152546001600160a01b031690565b6001600160a01b031614155b156116685760405163703e46dd60e11b815260040160405180910390fd5b565b6109b6336104d4565b816001600160a01b03166352d1902d6040518163ffffffff1660e01b8152600401602060405180830381865afa9250505080156116cd575060408051601f3d908101601f191682019092526116ca91810190612f50565b60015b6116f557604051634c9c8ce360e01b81526001600160a01b0383166004820152602401610661565b6000805160206131b2833981519152811461172657604051632a87526960e21b815260048101829052602401610661565b6117308383612242565b505050565b306001600160a01b037f000000000000000000000000000000000000000000000000000000000000000016146116685760405163703e46dd60e11b815260040160405180910390fd5b60006001600160a01b0383166117a7576040516342bcdf7f60e11b815260040160405180910390fd5b816000036117c8576040516307a1cab560e11b815260040160405180910390fd5b6001600160a01b03831660009081526000805160206131528339815191526020526040902080546000805160206131d283398151915291908411156118155780548590610fed8187612e59565b838160000160008282546118299190612e59565b9091555050604080516001600160a01b0387168152602081018690527fb539ca1e5c8d398ddf1c41c30166f33404941683be4683319b57669a93dad4ef910160405180910390a1600061187a61209a565b90506000611886612298565b90506000611892612117565b6040516323b872dd60e01b81526001600160a01b038083166004830152306024830152604482018a9052919250908416906323b872dd906064016020604051808303816000875af11580156118eb573d6000803e3d6000fd5b505050506040513d601f19601f8201168201806040525081019061190f9190612eb3565b5060405163095ea7b360e01b81526001600160a01b0383811660048301526024820189905284169063095ea7b3906044016020604051808303816000875af115801561195f573d6000803e3d6000fd5b505050506040513d601f19601f820116820180604052508101906119839190612eb3565b506040516305dc812160e31b81526001600160a01b03898116600483015260248201899052831690632ee4090890604401600060405180830381600087803b1580156119ce57600080fd5b505af11580156119e2573d6000803e3d6000fd5b505094549998505050505050505050565b60008051602061317283398151915280546001600160a01b0319166001600160a01b03831690811782556040519081527f2f658b440c35314f52658ea8a740e05b284cdc84dc9ae01e891f21b8933e7cad906020015b60405180910390a15050565b7fa16a46d94261c7517cc8ff89f61c0ce93598e3c849801011dee649a6a557d102805460609160008051602061319283398151915291611a9490612f69565b80601f0160208091040260200160405190810160405280929190818152602001828054611ac090612f69565b8015611b0d5780601f10611ae257610100808354040283529160200191611b0d565b820191906000526020600020905b815481529060010190602001808311611af057829003601f168201915b505050505091505090565b7fa16a46d94261c7517cc8ff89f61c0ce93598e3c849801011dee649a6a557d103805460609160008051602061319283398151915291611a9490612f69565b6001600160a01b038116611b7e576040516342bcdf7f60e11b815260040160405180910390fd5b7f55830a805815e4d506db4501e6719bc7b974e594ecdefb09d1856bf6a5d79502546000805160206131d2833981519152906001600160a01b03838116911603611bc6575050565b6002810180546003830180546001600160a01b038084166001600160a01b0319928316179092559091169084169081179091556040519081527ff25410f30b55c5bf754bde6af67a578fc1fb2e1e7fa70f582112f3c430b8e23690602001611a49565b611c316122f1565b6109b68161233a565b6116686122f1565b611c4a6122f1565b6105ba828261234b565b6001600160a01b038116611c7b576040516342bcdf7f60e11b815260040160405180910390fd5b6000805160206131d283398151915280546001600160a01b03838116911603611ca2575050565b80546001600160a01b0319166001600160a01b03831690811782556040519081527fea68eebc69e6cf7ca402dbd8bbf63e2a5d6fcc0ab964fb9cbe0b2660c364875d90602001611a49565b6040516001600160a01b03848116602483015283811660448301526001600160e01b03198316606483015260009182918291829189169060840160408051601f198184030181529181526020820180516001600160e01b031663b700961360e01b17905251611d5c9190612f9d565b600060405180830381855afa9150503d8060008114611d97576040519150601f19603f3d011682016040523d82523d6000602084013e611d9c565b606091505b50915091508115611dee576040815110611dce5780806020019051810190611dc49190612fb9565b9094509250611dee565b6020815110611dee5780806020019051810190611deb9190612eb3565b93505b505094509492505050565b6000611e10611e0b6020840184612b3c565b6123ac565b611e65611e236040840160208501612b3c565b6001600160a01b031660009081527f5ab42ced628888259c08ac98db1eb0cf702fc1501344311d8b100cd1bfe4bb006020526040902080546001810190915590565b905060007ffd6d0e4ca6764633a51edb6c597a246a9c07dc7643b9aeb52a9864f747827cc6611e976020850185612b3c565b611ea76040860160208701612b3c565b6040805160208101949094526001600160a01b03928316848201529116606083810191909152908501356080838101919091529085013560a083015284013560c082015260e08101839052610100016040516020818303038152906040528051906020012090506000611f1982611fa9565b90506000611f4082611f3160c0880160a08901612fee565b8760c001358860e0013561244c565b9050611f4f6020860186612b3c565b6001600160a01b0316816001600160a01b031614611fa15780611f756020870187612b3c565b604051637ba5ffb560e01b81526001600160a01b03928316600482015291166024820152604401610661565b505050919050565b60006104e5611fb661247a565b8360405161190160f01b8152600281019290925260228201526042902090565b600083830281600019858709828110838203039150508060000361200d5783828161200357612003613011565b0492505050610577565b80841161202d5760405163227bc15360e01b815260040160405180910390fd5b6000848688096000868103871696879004966002600389028118808a02820302808a02820302808a02820302808a02820302808a02820302808a02909103029181900381900460010186841190950394909402919094039290920491909117919091029150509392505050565b6000805160206131d283398151915280546040805163145bdf6f60e11b81529051600093926001600160a01b0316916328b7bede9160048083019260209291908290030181865afa1580156120f3573d6000803e3d6000fd5b505050506040513d601f19601f820116820180604052508101906108ff9190613027565b6000805160206131d2833981519152805460408051635af1954560e11b81529051600093926001600160a01b03169163b5e32a8a9160048083019260209291908290030181865afa1580156120f3573d6000803e3d6000fd5b60408051602c808252606082810190935263195d1a1f60e21b916f181899199a1a9b1b9c1cb0b131b232b360811b916f181899199a1a9b1b9c1ca0a121a222a360811b9160009160208201818036833750505060208101859052905060248101604c8201875b828211156121f45760018203915085600f82161a825360041c6121d6565b6028832060601c8991506028840192505b83831115612234576001830392506007600f821611156122285785600f83161a83535b600491821c911c612205565b509298975050505050505050565b61224b82612484565b6040516001600160a01b038316907fbc7cd75a20ee27fd9adebab32041f755214dbc6bffa90cc0225b39da2e5c2d3b90600090a28051156122905761173082826124e9565b6105ba61255f565b6000805160206131d283398151915280546040805163239a373960e21b81529051600093926001600160a01b031691638e68dce49160048083019260209291908290030181865afa1580156120f3573d6000803e3d6000fd5b7ff0c57e16840df040f15088dc2f81fe391c3923bec73e23a9662efc9c229c6a0054600160401b900460ff1661166857604051631afcd79f60e31b815260040160405180910390fd5b6123426122f1565b6109b6816119f3565b6123536122f1565b6000805160206131928339815191527fa16a46d94261c7517cc8ff89f61c0ce93598e3c849801011dee649a6a557d10261238d8482613092565b506003810161239c8382613092565b5060008082556001909101555050565b7f55830a805815e4d506db4501e6719bc7b974e594ecdefb09d1856bf6a5d79502546000805160206131d2833981519152906001600160a01b03838116911614801590612409575060038101546001600160a01b03838116911614155b156105ba57600281015460038201546040516316c7b6e560e11b81526001600160a01b038086166004830152928316602482015291166044820152606401610661565b60008060008061245e8888888861257e565b92509250925061246e828261264d565b50909695505050505050565b60006104f7612706565b806001600160a01b03163b6000036124ba57604051634c9c8ce360e01b81526001600160a01b0382166004820152602401610661565b6000805160206131b283398151915280546001600160a01b0319166001600160a01b0392909216919091179055565b6060600080846001600160a01b0316846040516125069190612f9d565b600060405180830381855af49150503d8060008114612541576040519150601f19603f3d011682016040523d82523d6000602084013e612546565b606091505b509150915061255685838361277a565b95945050505050565b34156116685760405163b398979f60e01b815260040160405180910390fd5b600080807f7fffffffffffffffffffffffffffffff5d576e7357a4501ddfe92f46681b20a08411156125b95750600091506003905082612643565b604080516000808252602082018084528a905260ff891692820192909252606081018790526080810186905260019060a0016020604051602081039080840390855afa15801561260d573d6000803e3d6000fd5b5050604051601f1901519150506001600160a01b03811661263957506000925060019150829050612643565b9250600091508190505b9450945094915050565b600082600381111561266157612661612d43565b0361266a575050565b600182600381111561267e5761267e612d43565b0361269c5760405163f645eedf60e01b815260040160405180910390fd5b60028260038111156126b0576126b0612d43565b036126d15760405163fce698f760e01b815260048101829052602401610661565b60038260038111156126e5576126e5612d43565b036105ba576040516335e2f38360e21b815260048101829052602401610661565b60007f8b73c3c69bb8fe3d512ecc4cf759cc79239f7b179b0ffacaa9a75d522b39400f6127316127d6565b612739612840565b60408051602081019490945283019190915260608201524660808201523060a082015260c00160405160208183030381529060405280519060200120905090565b60608261278f5761278a82612884565b610577565b81511580156127a657506001600160a01b0384163b155b156127cf57604051639996b31560e01b81526001600160a01b0385166004820152602401610661565b5080610577565b6000600080516020613192833981519152816127f0611a55565b80519091501561280857805160209091012092915050565b81548015612817579392505050565b7fc5d2460186f7233c927e7db2dcc703c0e500b653ca82273b7bfad8045d85a470935050505090565b60006000805160206131928339815191528161285a611b18565b80519091501561287257805160209091012092915050565b60018201548015612817579392505050565b8051156128945780518082602001fd5b604051630a12f52160e11b815260040160405180910390fd5b600061010082840312156128c057600080fd5b50919050565b600061010082840312156128d957600080fd5b61060283836128ad565b60008083601f8401126128f557600080fd5b50813567ffffffffffffffff81111561290d57600080fd5b60208301915083602082850101111561292557600080fd5b9250929050565b600080600080610140858703121561294357600080fd5b61294d86866128ad565b9350610100850135925061012085013567ffffffffffffffff81111561297257600080fd5b61297e878288016128e3565b95989497509550505050565b60008060006040848603121561299f57600080fd5b83359250602084013567ffffffffffffffff8111156129bd57600080fd5b6129c9868287016128e3565b9497909650939450505050565b6000602082840312156129e857600080fd5b5035919050565b8035600381106104e857600080fd5b600060208284031215612a1057600080fd5b610602826129ef565b6001600160a01b03811681146109b657600080fd5b634e487b7160e01b600052604160045260246000fd5b60008060408385031215612a5757600080fd5b8235612a6281612a19565b9150602083013567ffffffffffffffff811115612a7e57600080fd5b8301601f81018513612a8f57600080fd5b803567ffffffffffffffff811115612aa957612aa9612a2e565b604051601f8201601f19908116603f0116810167ffffffffffffffff81118282101715612ad857612ad8612a2e565b604052818152828201602001871015612af057600080fd5b816020840160208301376000602083830101528093505050509250929050565b60008060408385031215612b2357600080fd5b82359150612b33602084016129ef565b90509250929050565b600060208284031215612b4e57600080fd5b813561057781612a19565b60005b83811015612b74578181015183820152602001612b5c565b50506000910152565b60008151808452612b95816020860160208601612b59565b601f01601f19169290920160200192915050565b60ff60f81b8816815260e060208201526000612bc860e0830189612b7d565b8281036040840152612bda8189612b7d565b606084018890526001600160a01b038716608085015260a0840186905283810360c08501528451808252602080870193509091019060005b81811015612c30578351835260209384019390920191600101612c12565b50909b9a5050505050505050505050565b60008060408385031215612c5457600080fd5b612c5d836129ef565b91506020830135612c6d81612a19565b809150509250929050565b60008060006101408486031215612c8e57600080fd5b612c9885856128ad565b92506101008401359150612caf61012085016129ef565b90509250925092565b6000806101208385031215612ccc57600080fd5b612cd684846128ad565b94610100939093013593505050565b6020815260006106026020830184612b7d565b600080600060608486031215612d0d57600080fd5b8335612d1881612a19565b92506020840135612d2881612a19565b91506040840135612d3881612a19565b809150509250925092565b634e487b7160e01b600052602160045260246000fd5b60038110612d7757634e487b7160e01b600052602160045260246000fd5b9052565b60408101612d898285612d59565b6001600160a01b039290921660209190910152919050565b60008085851115612db157600080fd5b83861115612dbe57600080fd5b5050820193919092039150565b80356001600160e01b03198116906004841015612dfc576001600160e01b0319600485900360031b81901b82161691505b5092915050565b6001600160a01b03841681526040602082018190528101829052818360608301376000818301606090810191909152601f909201601f1916010192915050565b634e487b7160e01b600052601160045260246000fd5b8181038181111561060557610605612e43565b8082018082111561060557610605612e43565b6001600160a01b038416815260208101839052606081016105586040830184612d59565b805180151581146104e857600080fd5b600060208284031215612ec557600080fd5b61060282612ea3565b6001600160a01b038516815260208101849052612eee6040820184612d59565b608060608201526000612f046080830184612b7d565b9695505050505050565b60018060a01b038616815284602082015283604082015261ffff8316606082015260a060808201526000612f4560a0830184612b7d565b979650505050505050565b600060208284031215612f6257600080fd5b5051919050565b600181811c90821680612f7d57607f821691505b6020821081036128c057634e487b7160e01b600052602260045260246000fd5b60008251612faf818460208701612b59565b9190910192915050565b60008060408385031215612fcc57600080fd5b612fd583612ea3565b9150602083015163ffffffff81168114612c6d57600080fd5b60006020828403121561300057600080fd5b813560ff8116811461057757600080fd5b634e487b7160e01b600052601260045260246000fd5b60006020828403121561303957600080fd5b815161057781612a19565b601f82111561173057806000526020600020601f840160051c8101602085101561306b5750805b601f840160051c820191505b8181101561308b5760008155600101613077565b5050505050565b815167ffffffffffffffff8111156130ac576130ac612a2e565b6130c0816130ba8454612f69565b84613044565b6020601f8211600181146130f457600083156130dc5750848201515b600019600385901b1c1916600184901b17845561308b565b600084815260208120601f198516915b828110156131245787850151825560209485019460019092019101613104565b50848210156131425786840151600019600387901b60f8161c191681555b50505050600190811b0190555056fe55830a805815e4d506db4501e6719bc7b974e594ecdefb09d1856bf6a5d79504f3177357ab46d8af007ab3fdb9af81da189e1068fefdc0073dca88a2cab40a00a16a46d94261c7517cc8ff89f61c0ce93598e3c849801011dee649a6a557d100360894a13ba1a3210667c828492db98dca3e2076cc3735a920a3ca505d382bbc55830a805815e4d506db4501e6719bc7b974e594ecdefb09d1856bf6a5d79500a2646970667358221220da9103e5afc82c12747c7a43a92050c8d41c0ac7f5a3364749931df4aae3047164736f6c634300081c0033",
  "linkReferences": {},
  "deployedLinkReferences": {}
}