{
  "_format": "hh-sol-artifact-1",
  "contractName": "OsmiStaking",
  "sourceName": "contracts/OsmiStaking.sol",
  "abi": [
    {
      "inputs": [],
      "stateMutability": "nonpayable",
      "type": "constructor"
    },
    {
      "inputs": [],
      "name": "APYOutOfRange",
      "type": "error"
    },
    {
      "inputs": [
        {
          "internalType": "address",
          "name": "authority",
          "type": "address"
        }
      ],
      "name": "AccessManagedInvalidAuthority",
      "type": "error"
    },
    {
      "inputs": [
        {
          "internalType": "address",
          "name": "caller",
          "type": "address"
        },
        {
          "internalType": "uint32",
          "name": "delay",
          "type": "uint32"
        }
      ],
      "name": "AccessManagedRequiredDelay",
      "type": "error"
    },
    {
      "inputs": [
        {
          "internalType": "address",
          "name": "caller",
          "type": "address"
        }
      ],
      "name": "AccessManagedUnauthorized",
      "type": "error"
    },
    {
      "inputs": [
        {
          "internalType": "address",
          "name": "target",
          "type": "address"
        }
      ],
      "name": "AddressEmptyCode",
      "type": "error"
    },
    {
      "inputs": [],
      "name": "ECDSAInvalidSignature",
      "type": "error"
    },
    {
      "inputs": [
        {
          "internalType": "uint256",
          "name": "length",
          "type": "uint256"
        }
      ],
      "name": "ECDSAInvalidSignatureLength",
      "type": "error"
    },
    {
      "inputs": [
        {
          "internalType": "bytes32",
          "name": "s",
          "type": "bytes32"
        }
      ],
      "name": "ECDSAInvalidSignatureS",
      "type": "error"
    },
    {
      "inputs": [
        {
          "internalType": "address",
          "name": "implementation",
          "type": "address"
        }
      ],
      "name": "ERC1967InvalidImplementation",
      "type": "error"
    },
    {
      "inputs": [],
      "name": "ERC1967NonPayable",
      "type": "error"
    },
    {
      "inputs": [],
      "name": "FailedInnerCall",
      "type": "error"
    },
    {
      "inputs": [],
      "name": "InsufficientBalance",
      "type": "error"
    },
    {
      "inputs": [
        {
          "internalType": "address",
          "name": "account",
          "type": "address"
        },
        {
          "internalType": "uint256",
          "name": "currentNonce",
          "type": "uint256"
        }
      ],
      "name": "InvalidAccountNonce",
      "type": "error"
    },
    {
      "inputs": [],
      "name": "InvalidInitialization",
      "type": "error"
    },
    {
      "inputs": [],
      "name": "InvalidTicketHash",
      "type": "error"
    },
    {
      "inputs": [],
      "name": "InvalidTicketSigner",
      "type": "error"
    },
    {
      "inputs": [],
      "name": "MathOverflowedMulDiv",
      "type": "error"
    },
    {
      "inputs": [],
      "name": "NotInitializing",
      "type": "error"
    },
    {
      "inputs": [],
      "name": "TicketExpired",
      "type": "error"
    },
    {
      "inputs": [],
      "name": "TicketIssuedTooSoon",
      "type": "error"
    },
    {
      "inputs": [],
      "name": "UUPSUnauthorizedCallContext",
      "type": "error"
    },
    {
      "inputs": [
        {
          "internalType": "bytes32",
          "name": "slot",
          "type": "bytes32"
        }
      ],
      "name": "UUPSUnsupportedProxiableUUID",
      "type": "error"
    },
    {
      "inputs": [],
      "name": "Uncancelable",
      "type": "error"
    },
    {
      "inputs": [],
      "name": "WithdrawalAlreadyInProgress",
      "type": "error"
    },
    {
      "inputs": [],
      "name": "WrongTicketOwner",
      "type": "error"
    },
    {
      "inputs": [],
      "name": "ZeroAddressNotAllowed",
      "type": "error"
    },
    {
      "inputs": [],
      "name": "ZeroAmountNotAllowed",
      "type": "error"
    },
    {
      "anonymous": false,
      "inputs": [
        {
          "indexed": false,
          "internalType": "uint256",
          "name": "apy",
          "type": "uint256"
        }
      ],
      "name": "APYChanged",
      "type": "event"
    },
    {
      "anonymous": false,
      "inputs": [
        {
          "indexed": false,
          "internalType": "address",
          "name": "authority",
          "type": "address"
        }
      ],
      "name": "AuthorityUpdated",
      "type": "event"
    },
    {
      "anonymous": false,
      "inputs": [
        {
          "indexed": false,
          "internalType": "address",
          "name": "user",
          "type": "address"
        },
        {
          "indexed": false,
          "internalType": "bool",
          "name": "value",
          "type": "bool"
        }
      ],
      "name": "AutoStakeChanged",
      "type": "event"
    },
    {
      "anonymous": false,
      "inputs": [
        {
          "indexed": false,
          "internalType": "contract IOsmiConfig",
          "name": "configContract",
          "type": "address"
        }
      ],
      "name": "ConfigContractChanged",
      "type": "event"
    },
    {
      "anonymous": false,
      "inputs": [],
      "name": "EIP712DomainChanged",
      "type": "event"
    },
    {
      "anonymous": false,
      "inputs": [
        {
          "indexed": false,
          "internalType": "uint64",
          "name": "version",
          "type": "uint64"
        }
      ],
      "name": "Initialized",
      "type": "event"
    },
    {
      "anonymous": false,
      "inputs": [
        {
          "indexed": false,
          "internalType": "address",
          "name": "user",
          "type": "address"
        },
        {
          "indexed": false,
          "internalType": "uint256",
          "name": "amount",
          "type": "uint256"
        },
        {
          "indexed": false,
          "internalType": "uint256",
          "name": "timestamp",
          "type": "uint256"
        }
      ],
      "name": "TicketRedeemed",
      "type": "event"
    },
    {
      "anonymous": false,
      "inputs": [
        {
          "indexed": false,
          "internalType": "address",
          "name": "ticketSigner",
          "type": "address"
        }
      ],
      "name": "TicketSignerChanged",
      "type": "event"
    },
    {
      "anonymous": false,
      "inputs": [
        {
          "indexed": false,
          "internalType": "address",
          "name": "from",
          "type": "address"
        },
        {
          "indexed": false,
          "internalType": "address",
          "name": "to",
          "type": "address"
        },
        {
          "indexed": false,
          "internalType": "uint256",
          "name": "amount",
          "type": "uint256"
        }
      ],
      "name": "TokensDeposited",
      "type": "event"
    },
    {
      "anonymous": false,
      "inputs": [
        {
          "indexed": true,
          "internalType": "address",
          "name": "implementation",
          "type": "address"
        }
      ],
      "name": "Upgraded",
      "type": "event"
    },
    {
      "anonymous": false,
      "inputs": [
        {
          "indexed": false,
          "internalType": "address",
          "name": "user",
          "type": "address"
        },
        {
          "indexed": false,
          "internalType": "uint256",
          "name": "availableAt",
          "type": "uint256"
        },
        {
          "indexed": false,
          "internalType": "uint256",
          "name": "amount",
          "type": "uint256"
        }
      ],
      "name": "WithdrawalCanceled",
      "type": "event"
    },
    {
      "anonymous": false,
      "inputs": [
        {
          "indexed": false,
          "internalType": "address",
          "name": "user",
          "type": "address"
        },
        {
          "indexed": false,
          "internalType": "uint256",
          "name": "availableAt",
          "type": "uint256"
        },
        {
          "indexed": false,
          "internalType": "uint256",
          "name": "amount",
          "type": "uint256"
        },
        {
          "indexed": false,
          "internalType": "bool",
          "name": "fast",
          "type": "bool"
        }
      ],
      "name": "WithdrawalStarted",
      "type": "event"
    },
    {
      "inputs": [],
      "name": "UPGRADE_INTERFACE_VERSION",
      "outputs": [
        {
          "internalType": "string",
          "name": "",
          "type": "string"
        }
      ],
      "stateMutability": "view",
      "type": "function"
    },
    {
      "inputs": [],
      "name": "authority",
      "outputs": [
        {
          "internalType": "address",
          "name": "",
          "type": "address"
        }
      ],
      "stateMutability": "view",
      "type": "function"
    },
    {
      "inputs": [],
      "name": "cancelWithdrawal",
      "outputs": [],
      "stateMutability": "nonpayable",
      "type": "function"
    },
    {
      "inputs": [],
      "name": "eip712Domain",
      "outputs": [
        {
          "internalType": "bytes1",
          "name": "fields",
          "type": "bytes1"
        },
        {
          "internalType": "string",
          "name": "name",
          "type": "string"
        },
        {
          "internalType": "string",
          "name": "version",
          "type": "string"
        },
        {
          "internalType": "uint256",
          "name": "chainId",
          "type": "uint256"
        },
        {
          "internalType": "address",
          "name": "verifyingContract",
          "type": "address"
        },
        {
          "internalType": "bytes32",
          "name": "salt",
          "type": "bytes32"
        },
        {
          "internalType": "uint256[]",
          "name": "extensions",
          "type": "uint256[]"
        }
      ],
      "stateMutability": "view",
      "type": "function"
    },
    {
      "inputs": [],
      "name": "getAPY",
      "outputs": [
        {
          "internalType": "uint256",
          "name": "",
          "type": "uint256"
        }
      ],
      "stateMutability": "view",
      "type": "function"
    },
    {
      "inputs": [],
      "name": "getAutoStake",
      "outputs": [
        {
          "internalType": "bool",
          "name": "",
          "type": "bool"
        }
      ],
      "stateMutability": "view",
      "type": "function"
    },
    {
      "inputs": [
        {
          "internalType": "address",
          "name": "user",
          "type": "address"
        }
      ],
      "name": "getAutoStakeFor",
      "outputs": [
        {
          "internalType": "bool",
          "name": "",
          "type": "bool"
        }
      ],
      "stateMutability": "view",
      "type": "function"
    },
    {
      "inputs": [
        {
          "internalType": "address",
          "name": "user",
          "type": "address"
        }
      ],
      "name": "getBalance",
      "outputs": [
        {
          "internalType": "uint256",
          "name": "balance",
          "type": "uint256"
        },
        {
          "internalType": "uint256",
          "name": "lastTicketTimestamp",
          "type": "uint256"
        }
      ],
      "stateMutability": "view",
      "type": "function"
    },
    {
      "inputs": [],
      "name": "getConfigContract",
      "outputs": [
        {
          "internalType": "contract IOsmiConfig",
          "name": "",
          "type": "address"
        }
      ],
      "stateMutability": "view",
      "type": "function"
    },
    {
      "inputs": [],
      "name": "getTicketSigners",
      "outputs": [
        {
          "internalType": "address",
          "name": "",
          "type": "address"
        },
        {
          "internalType": "address",
          "name": "",
          "type": "address"
        }
      ],
      "stateMutability": "view",
      "type": "function"
    },
    {
      "inputs": [
        {
          "internalType": "address",
          "name": "initialAuthority",
          "type": "address"
        },
        {
          "internalType": "contract IOsmiConfig",
          "name": "configContract",
          "type": "address"
        },
        {
          "internalType": "address",
          "name": "ticketSigner",
          "type": "address"
        }
      ],
      "name": "initialize",
      "outputs": [],
      "stateMutability": "nonpayable",
      "type": "function"
    },
    {
      "inputs": [],
      "name": "isConsumingScheduledOp",
      "outputs": [
        {
          "internalType": "bytes4",
          "name": "",
          "type": "bytes4"
        }
      ],
      "stateMutability": "view",
      "type": "function"
    },
    {
      "inputs": [
        {
          "internalType": "address",
          "name": "owner",
          "type": "address"
        }
      ],
      "name": "nonces",
      "outputs": [
        {
          "internalType": "uint256",
          "name": "",
          "type": "uint256"
        }
      ],
      "stateMutability": "view",
      "type": "function"
    },
    {
      "inputs": [],
      "name": "proxiableUUID",
      "outputs": [
        {
          "internalType": "bytes32",
          "name": "",
          "type": "bytes32"
        }
      ],
      "stateMutability": "view",
      "type": "function"
    },
    {
      "inputs": [
        {
          "components": [
            {
              "internalType": "address",
              "name": "user",
              "type": "address"
            },
            {
              "internalType": "uint256",
              "name": "timestamp",
              "type": "uint256"
            },
            {
              "internalType": "bytes32",
              "name": "expectedHash",
              "type": "bytes32"
            },
            {
              "internalType": "uint256",
              "name": "amount",
              "type": "uint256"
            },
            {
              "internalType": "uint8",
              "name": "v",
              "type": "uint8"
            },
            {
              "internalType": "bytes32",
              "name": "r",
              "type": "bytes32"
            },
            {
              "internalType": "bytes32",
              "name": "s",
              "type": "bytes32"
            }
          ],
          "internalType": "struct OsmiStaking.Ticket",
          "name": "ticket",
          "type": "tuple"
        },
        {
          "internalType": "uint256",
          "name": "amount",
          "type": "uint256"
        },
        {
          "internalType": "bool",
          "name": "fast",
          "type": "bool"
        }
      ],
      "name": "redeemAndWithdraw",
      "outputs": [],
      "stateMutability": "nonpayable",
      "type": "function"
    },
    {
      "inputs": [
        {
          "components": [
            {
              "internalType": "address",
              "name": "user",
              "type": "address"
            },
            {
              "internalType": "uint256",
              "name": "timestamp",
              "type": "uint256"
            },
            {
              "internalType": "bytes32",
              "name": "expectedHash",
              "type": "bytes32"
            },
            {
              "internalType": "uint256",
              "name": "amount",
              "type": "uint256"
            },
            {
              "internalType": "uint8",
              "name": "v",
              "type": "uint8"
            },
            {
              "internalType": "bytes32",
              "name": "r",
              "type": "bytes32"
            },
            {
              "internalType": "bytes32",
              "name": "s",
              "type": "bytes32"
            }
          ],
          "internalType": "struct OsmiStaking.Ticket",
          "name": "ticket",
          "type": "tuple"
        }
      ],
      "name": "redeemTicket",
      "outputs": [
        {
          "internalType": "uint256",
          "name": "balance",
          "type": "uint256"
        }
      ],
      "stateMutability": "nonpayable",
      "type": "function"
    },
    {
      "inputs": [
        {
          "internalType": "uint256",
          "name": "v",
          "type": "uint256"
        }
      ],
      "name": "setAPY",
      "outputs": [],
      "stateMutability": "nonpayable",
      "type": "function"
    },
    {
      "inputs": [
        {
          "internalType": "address",
          "name": "newAuthority",
          "type": "address"
        }
      ],
      "name": "setAuthority",
      "outputs": [],
      "stateMutability": "nonpayable",
      "type": "function"
    },
    {
      "inputs": [
        {
          "internalType": "bool",
          "name": "v",
          "type": "bool"
        }
      ],
      "name": "setAutoStake",
      "outputs": [],
      "stateMutability": "nonpayable",
      "type": "function"
    },
    {
      "inputs": [
        {
          "internalType": "address",
          "name": "user",
          "type": "address"
        },
        {
          "internalType": "bool",
          "name": "v",
          "type": "bool"
        }
      ],
      "name": "setAutoStakeFor",
      "outputs": [],
      "stateMutability": "nonpayable",
      "type": "function"
    },
    {
      "inputs": [
        {
          "internalType": "contract IOsmiConfig",
          "name": "v",
          "type": "address"
        }
      ],
      "name": "setConfigContract",
      "outputs": [],
      "stateMutability": "nonpayable",
      "type": "function"
    },
    {
      "inputs": [
        {
          "internalType": "address",
          "name": "signer",
          "type": "address"
        }
      ],
      "name": "setTicketSigner",
      "outputs": [],
      "stateMutability": "nonpayable",
      "type": "function"
    },
    {
      "inputs": [
        {
          "internalType": "address",
          "name": "user",
          "type": "address"
        },
        {
          "internalType": "uint256",
          "name": "amount",
          "type": "uint256"
        }
      ],
      "name": "stakeFor",
      "outputs": [],
      "stateMutability": "nonpayable",
      "type": "function"
    },
    {
      "inputs": [
        {
          "internalType": "address",
          "name": "newImplementation",
          "type": "address"
        },
        {
          "internalType": "bytes",
          "name": "data",
          "type": "bytes"
        }
      ],
      "name": "upgradeToAndCall",
      "outputs": [],
      "stateMutability": "payable",
      "type": "function"
    },
    {
      "inputs": [
        {
          "internalType": "uint256",
          "name": "amount",
          "type": "uint256"
        },
        {
          "internalType": "bool",
          "name": "fast",
          "type": "bool"
        }
      ],
      "name": "withdraw",
      "outputs": [],
      "stateMutability": "nonpayable",
      "type": "function"
    }
  ],
  "bytecode": "0x60a06040523060805234801561001457600080fd5b5061001d610022565b6100d4565b7ff0c57e16840df040f15088dc2f81fe391c3923bec73e23a9662efc9c229c6a00805468010000000000000000900460ff16156100725760405163f92ee8a960e01b815260040160405180910390fd5b80546001600160401b03908116146100d15780546001600160401b0319166001600160401b0390811782556040519081527fc7f505b2f371ae2175ee4913f4499e1f2633a7b5936321eed1cdaeb6115181d29060200160405180910390a15b50565b608051612b946100fd6000396000818161127f015281816112a801526113ea0152612b946000f3fe6080604052600436106101665760003560e01c806366138e48116100d1578063a35ff3bf1161008a578063c0c53b8b11610064578063c0c53b8b14610482578063d2cbf7ad146104a2578063de7b8ffe146104b7578063f8b2cb4f146104d757600080fd5b8063a35ff3bf1461040f578063ad3cb1cc1461042f578063bf7e214f1461046d57600080fd5b806366138e48146102ef5780637a9e5e4b1461030f5780637ecebe001461032f57806384b0196e146103845780638fb36037146103ac5780639c882176146103da57600080fd5b80632ee40908116101235780632ee409081461023957806338d07436146102595780634f1ef2861461027957806352d1902d1461028c57806358500e45146102af57806361edd6cf146102cf57600080fd5b80630bc6b21d1461016b5780630e1c3a4a1461018d57806311a5ac48146101bf5780631d212c96146101e4578063226112801461020457806324f45e6714610219575b600080fd5b34801561017757600080fd5b5061018b61018636600461245b565b61050c565b005b34801561019957600080fd5b506101a2610527565b6040516001600160a01b0390911681526020015b60405180910390f35b3480156101cb57600080fd5b506101d4610536565b60405190151581526020016101b6565b3480156101f057600080fd5b5061018b6101ff366004612494565b610541565b34801561021057600080fd5b5061018b610557565b34801561022557600080fd5b5061018b6102343660046124b1565b61056b565b34801561024557600080fd5b5061018b6102543660046124ca565b61057d565b34801561026557600080fd5b5061018b6102743660046124f6565b610591565b61018b610287366004612531565b6105a6565b34801561029857600080fd5b506102a16105c1565b6040519081526020016101b6565b3480156102bb57600080fd5b506102a16102ca366004612615565b6105de565b3480156102db57600080fd5b506101d46102ea366004612631565b6105f8565b3480156102fb57600080fd5b5061018b61030a36600461264e565b610603565b34801561031b57600080fd5b5061018b61032a366004612631565b610624565b34801561033b57600080fd5b506102a161034a366004612631565b6001600160a01b031660009081527f5ab42ced628888259c08ac98db1eb0cf702fc1501344311d8b100cd1bfe4bb00602052604090205490565b34801561039057600080fd5b506103996106ac565b6040516101b697969594939291906126e1565b3480156103b857600080fd5b506103c1610758565b6040516001600160e01b031990911681526020016101b6565b3480156103e657600080fd5b506103ef610791565b604080516001600160a01b039384168152929091166020830152016101b6565b34801561041b57600080fd5b5061018b61042a366004612631565b6107a4565b34801561043b57600080fd5b50610460604051806040016040528060058152602001640352e302e360dc1b81525081565b6040516101b69190612779565b34801561047957600080fd5b506101a26107b6565b34801561048e57600080fd5b5061018b61049d36600461278c565b6107d9565b3480156104ae57600080fd5b506102a1610960565b3480156104c357600080fd5b5061018b6104d2366004612631565b61096a565b3480156104e357600080fd5b506104f76104f2366004612631565b61097c565b604080519283526020830191909152016101b6565b610519335b6000366109b7565b6105238282610abd565b5050565b6000610531610b5b565b905090565b600061053133610b66565b61054a33610511565b6105543382610abd565b50565b61056033610511565b61056933610b99565b565b61057433610511565b61055481610d6c565b61058633610511565b610523338383610df4565b61059a33610511565b610523335b8383610f62565b6105ae611274565b6105b782611319565b6105238282611322565b60006105cb6113df565b50600080516020612b3f83398151915290565b60006105e933610511565b6105f282611428565b92915050565b60006105f282610b66565b61060c33610511565b61061583611428565b5061061f3361059f565b505050565b3361062d6107b6565b6001600160a01b0316816001600160a01b03161461066d5760405162d1953b60e31b81526001600160a01b03821660048201526024015b60405180910390fd5b816001600160a01b03163b6000036106a3576040516361798f2f60e11b81526001600160a01b0383166004820152602401610664565b61052382611687565b60006060808280808381600080516020612b1f83398151915280549091501580156106d957506001810154155b61071d5760405162461bcd60e51b81526020600482015260156024820152741152540dcc4c8e88155b9a5b9a5d1a585b1a5e9959605a1b6044820152606401610664565b6107256116e1565b61072d6117a4565b60408051600080825260208201909252600f60f81b9c939b5091995046985030975095509350915050565b600080516020612aff833981519152805460009190600160a01b900460ff1661078257600061078b565b638fb3603760e01b5b91505090565b60008061079c6117e3565b915091509091565b6107ad33610511565b61055481611810565b600080600080516020612aff8339815191525b546001600160a01b031692915050565b7ff0c57e16840df040f15088dc2f81fe391c3923bec73e23a9662efc9c229c6a008054600160401b810460ff16159067ffffffffffffffff1660008115801561081f5750825b905060008267ffffffffffffffff16600114801561083c5750303b155b90508115801561084a575080155b156108685760405163f92ee8a960e01b815260040160405180910390fd5b845467ffffffffffffffff19166001178555831561089257845460ff60401b1916600160401b1785555b61089b886118f9565b6108a361190a565b6108e96040518060400160405280600b81526020016a4f736d695374616b696e6760a81b815250604051806040016040528060018152602001603160f81b815250611912565b6108f161190a565b6108fa87611924565b61090386611810565b6109106309896800610d6c565b831561095657845460ff60401b19168555604051600181527fc7f505b2f371ae2175ee4913f4499e1f2633a7b5936321eed1cdaeb6115181d29060200160405180910390a15b5050505050505050565b6000610531611994565b61097333610511565b61055481611924565b60008060006109896119a9565b6001600160a01b03909416600090815260049485016020526040902093840154600690940154939492505050565b600080516020612aff8339815191526000806109f26109d46107b6565b87306109e4600460008a8c6127cc565b6109ed916127f6565b6119cd565b9150915081610ab55763ffffffff811615610a9257825460ff60a01b1916600160a01b178355610a206107b6565b6001600160a01b03166394c7d7ee8787876040518463ffffffff1660e01b8152600401610a4f9392919061282e565b600060405180830381600087803b158015610a6957600080fd5b505af1158015610a7d573d6000803e3d6000fd5b5050845460ff60a01b1916855550610ab59050565b60405162d1953b60e31b81526001600160a01b0387166004820152602401610664565b505050505050565b6000610ac76119a9565b6001600160a01b038416600090815260048201602052604090208054919250906001908116148315158114610b5457604080516001600160a01b038716815285151560208201527fc2c5b51760cdcc9fa9f62294acb39de5174a60208e7f212db33057244dbd4286910160405180910390a18315610b4b5781546001178255610b54565b81546001191682555b5050505050565b6000806107c96119a9565b600080610b716119a9565b6001600160a01b03909316600090815260049093016020525050604090205460019081161490565b6000610ba36119a9565b6001600160a01b038316600090815260048201602052604081206002810154929350919003610bd157505050565b8060030154600003610bf6576040516307a1cab560e11b815260040160405180910390fd5b80600201544210610c1a5760405163446f38c360e11b815260040160405180910390fd5b60028082600001541603610c415760405163446f38c360e11b815260040160405180910390fd5b8060030154816004016000828254610c599190612884565b9091555060009050610c69611ad9565b90506000610c75611b54565b90506000610c81611bab565b60028501546003860154604080516001600160a01b038b16815260208101939093528201529091507faa2fb342f317d8a167b825426470e8d601acab426e76f95ab6b89570157124df9060600160405180910390a160038401546040516323b872dd60e01b81526001600160a01b038516916323b872dd91610d0a918591879190600401612897565b6020604051808303816000875af1158015610d29573d6000803e3d6000fd5b505050506040513d601f19601f82011682018060405250810190610d4d91906128bb565b5050825460021916835550506000600282018190556003909101555050565b801580610d7c5750633b9aca0081115b15610d9a576040516302fa196b60e61b815260040160405180910390fd5b6000610da46119a9565b905081816003015403610db5575050565b600381018290556040518281527ffe0dc6926c703f5cea6a6a7bee3d6bede2f43f0df28a572f2e5cdd1d7ba9e560906020015b60405180910390a15050565b6001600160a01b0383161580610e1157506001600160a01b038216155b15610e2f576040516342bcdf7f60e11b815260040160405180910390fd5b80600003610e50576040516307a1cab560e11b815260040160405180910390fd5b6000610e5a6119a9565b90506000610e66611ad9565b90506000610e72611b54565b6040516323b872dd60e01b81529091506001600160a01b038316906323b872dd90610ea590899085908990600401612897565b6020604051808303816000875af1158015610ec4573d6000803e3d6000fd5b505050506040513d601f19601f82011682018060405250810190610ee891906128bb565b506001600160a01b0385166000908152600480850160205260408220908101805491928792610f18908490612884565b90915550506040517fcbc4a4091b012bb1329c38bbbb15455f5cac5aa3673da0a7f38cd61a4f49551790610f5190899089908990612897565b60405180910390a150505050505050565b6001600160a01b038316610f89576040516342bcdf7f60e11b815260040160405180910390fd5b81600003610faa576040516307a1cab560e11b815260040160405180910390fd5b6000610fb46119a9565b6001600160a01b03851660009081526004820160205260409020600281015491925090421015610ff757604051632a290aa960e01b815260040160405180910390fd5b806004015484111561101c57604051631e9acf1760e31b815260040160405180910390fd5b8381600401600082825461103091906128d8565b9091555060009050611040611ad9565b9050600061104c611c02565b90506000611058611b54565b90506000611064611bab565b90506000836001600160a01b0316634dc3a3906040518163ffffffff1660e01b8152600401602060405180830381865afa1580156110a6573d6000803e3d6000fd5b505050506040513d601f19601f820116820180604052508101906110ca91906128eb565b905080881561117b5760006110e88b6305f5e100633b9aca00611c59565b90506110f4818c6128d8565b9a50801561115f5760405163079cc67960e41b81526001600160a01b038681166004830152602482018390528816906379cc679090604401600060405180830381600087803b15801561114657600080fd5b505af115801561115a573d6000803e3d6000fd5b505050505b875460021788556111736201518083612884565b915050611193565b86546002191687556111906212750082612884565b90505b600387018a905560028701819055604080516001600160a01b038d168152602081018390529081018b905289151560608201527fd71f8e686f6b1e03699cb0f47ce9ccd97097e71396d165c718c68d3f9e9f528f9060800160405180910390a16040516323b872dd60e01b81526001600160a01b038716906323b872dd9061122390879087908f90600401612897565b6020604051808303816000875af1158015611242573d6000803e3d6000fd5b505050506040513d601f19601f8201168201806040525081019061126691906128bb565b505050505050505050505050565b306001600160a01b037f00000000000000000000000000000000000000000000000000000000000000001614806112fb57507f00000000000000000000000000000000000000000000000000000000000000006001600160a01b03166112ef600080516020612b3f833981519152546001600160a01b031690565b6001600160a01b031614155b156105695760405163703e46dd60e11b815260040160405180910390fd5b61055433610511565b816001600160a01b03166352d1902d6040518163ffffffff1660e01b8152600401602060405180830381865afa92505050801561137c575060408051601f3d908101601f19168201909252611379918101906128eb565b60015b6113a457604051634c9c8ce360e01b81526001600160a01b0383166004820152602401610664565b600080516020612b3f83398151915281146113d557604051632a87526960e21b815260048101829052602401610664565b61061f8383611d1e565b306001600160a01b037f000000000000000000000000000000000000000000000000000000000000000016146105695760405163703e46dd60e11b815260040160405180910390fd5b60008061143483611d74565b905060006114406119a9565b9050600060048201816114566020880188612631565b6001600160a01b03168152602080820192909252604001600090812092509061148190870187612631565b6001600160a01b0316036114a8576040516342bcdf7f60e11b815260040160405180910390fd5b84606001356000036114cd576040516307a1cab560e11b815260040160405180910390fd5b6006810154602086013590620143706114e683426128d8565b1115611505576040516340d3544760e01b815260040160405180910390fd5b6201437061151382846128d8565b1015611532576040516317e8a5cb60e01b815260040160405180910390fd5b826005015487604001351461155a57604051631b5b230b60e21b815260040160405180910390fd5b86606001358360040160008282546115729190612884565b9091555050602087018035600685015560058401546000917f4e9b0e2afb2e56a47cc5c5693615261ff938bb48f9baf05077e20c8fd8d5f71a91906115b7908b612631565b60408051602081810195909552908101929092526001600160a01b0316606082810191909152918a013560808201529089013560a082015260c0810187905260e00160405160208183030381529060405280519060200120905061161a81611e92565b60058501557fc486cbcc73b5497f564228f5833a8766da2c87c2b5669ce5838d50bdf396f07461164d60208a018a612631565b604080516001600160a01b0390921682526060808c013560208401529082018690520160405180910390a150505060040154949350505050565b600080516020612aff83398151915280546001600160a01b0319166001600160a01b03831690811782556040519081527f2f658b440c35314f52658ea8a740e05b284cdc84dc9ae01e891f21b8933e7cad90602001610de8565b7fa16a46d94261c7517cc8ff89f61c0ce93598e3c849801011dee649a6a557d1028054606091600080516020612b1f8339815191529161172090612904565b80601f016020809104026020016040519081016040528092919081815260200182805461174c90612904565b80156117995780601f1061176e57610100808354040283529160200191611799565b820191906000526020600020905b81548152906001019060200180831161177c57829003601f168201915b505050505091505090565b7fa16a46d94261c7517cc8ff89f61c0ce93598e3c849801011dee649a6a557d1038054606091600080516020612b1f8339815191529161172090612904565b60008060006117f06119a9565b60018101546002909101546001600160a01b039182169591169350915050565b6001600160a01b0381166118665760405162461bcd60e51b815260206004820152601c60248201527f7369676e657220616464726573732063616e2774206265207a65726f000000006044820152606401610664565b60006118706119a9565b90506001600160a01b03821660018201600001546001600160a01b031603611896575050565b6001810180546002830180546001600160a01b038084166001600160a01b0319928316179092559091169084169081179091556040519081527ff25410f30b55c5bf754bde6af67a578fc1fb2e1e7fa70f582112f3c430b8e23690602001610de8565b611901611ebf565b61055481611f08565b610569611ebf565b61191a611ebf565b6105238282611f19565b600061192e6119a9565b80549091506001600160a01b03808416911603611949575050565b80546001600160a01b0319166001600160a01b03831690811782556040519081527fea68eebc69e6cf7ca402dbd8bbf63e2a5d6fcc0ab964fb9cbe0b2660c364875d90602001610de8565b60008061199f6119a9565b6003015492915050565b7fa3c4f2f291c8b2e507af98f0821c9deaec9b9fc659bd5466e3124818ea08360090565b6040516001600160a01b03848116602483015283811660448301526001600160e01b03198316606483015260009182918291829189169060840160408051601f198184030181529181526020820180516001600160e01b031663b700961360e01b17905251611a3c9190612938565b600060405180830381855afa9150503d8060008114611a77576040519150601f19603f3d011682016040523d82523d6000602084013e611a7c565b606091505b50915091508115611ace576040815110611aae5780806020019051810190611aa49190612954565b9094509250611ace565b6020815110611ace5780806020019051810190611acb91906128bb565b93505b505094509492505050565b600080611ae46119a9565b80546040805163145bdf6f60e11b815290519293506001600160a01b03909116916328b7bede916004808201926020929091908290030181865afa158015611b30573d6000803e3d6000fd5b505050506040513d601f19601f8201168201806040525081019061078b919061298c565b600080611b5f6119a9565b80546040805163116518cd60e21b815290519293506001600160a01b03909116916345946334916004808201926020929091908290030181865afa158015611b30573d6000803e3d6000fd5b600080611bb66119a9565b805460408051635af1954560e11b815290519293506001600160a01b039091169163b5e32a8a916004808201926020929091908290030181865afa158015611b30573d6000803e3d6000fd5b600080611c0d6119a9565b8054604080516358d6b7d760e01b815290519293506001600160a01b03909116916358d6b7d7916004808201926020929091908290030181865afa158015611b30573d6000803e3d6000fd5b6000838302816000198587098281108382030391505080600003611c9057838281611c8657611c866129a9565b0492505050611d17565b808411611cb05760405163227bc15360e01b815260040160405180910390fd5b6000848688096000868103871696879004966002600389028118808a02820302808a02820302808a02820302808a02820302808a02820302808a02909103029181900381900460010186841190950394909402919094039290920491909117919091029150505b9392505050565b611d2782611f7a565b6040516001600160a01b038316907fbc7cd75a20ee27fd9adebab32041f755214dbc6bffa90cc0225b39da2e5c2d3b90600090a2805115611d6c5761061f8282611fdf565b610523612055565b6000611dc8611d866020840184612631565b6001600160a01b031660009081527f5ab42ced628888259c08ac98db1eb0cf702fc1501344311d8b100cd1bfe4bb006020526040902080546001810190915590565b905060007f4e588c81a3f4076283a4034bdbedf505b373c9174562025a741f0c28625014f1611dfa6020850185612631565b604080516020818101949094526001600160a01b039092169082015290840135606082810191909152840135608082015260a0810183905260c0016040516020818303038152906040528051906020012090506000611e5882611e92565b90506000611e7f82611e7060a08801608089016129bf565b8760a001358860c00135612074565b9050611e8a816120a2565b505050919050565b60006105f2611e9f6120ff565b8360405161190160f01b8152600281019290925260228201526042902090565b7ff0c57e16840df040f15088dc2f81fe391c3923bec73e23a9662efc9c229c6a0054600160401b900460ff1661056957604051631afcd79f60e31b815260040160405180910390fd5b611f10611ebf565b61055481611687565b611f21611ebf565b600080516020612b1f8339815191527fa16a46d94261c7517cc8ff89f61c0ce93598e3c849801011dee649a6a557d102611f5b8482612a29565b5060038101611f6a8382612a29565b5060008082556001909101555050565b806001600160a01b03163b600003611fb057604051634c9c8ce360e01b81526001600160a01b0382166004820152602401610664565b600080516020612b3f83398151915280546001600160a01b0319166001600160a01b0392909216919091179055565b6060600080846001600160a01b031684604051611ffc9190612938565b600060405180830381855af49150503d8060008114612037576040519150601f19603f3d011682016040523d82523d6000602084013e61203c565b606091505b509150915061204c858383612109565b95945050505050565b34156105695760405163b398979f60e01b815260040160405180910390fd5b60008060008061208688888888612165565b9250925092506120968282612234565b50909695505050505050565b60006120ac6119a9565b905060018101600001546001600160a01b038381169116148015906120e1575060028101546001600160a01b03838116911614155b1561052357604051631773e24d60e01b815260040160405180910390fd5b60006105316122ed565b60608261211e5761211982612361565b611d17565b815115801561213557506001600160a01b0384163b155b1561215e57604051639996b31560e01b81526001600160a01b0385166004820152602401610664565b5080611d17565b600080807f7fffffffffffffffffffffffffffffff5d576e7357a4501ddfe92f46681b20a08411156121a0575060009150600390508261222a565b604080516000808252602082018084528a905260ff891692820192909252606081018790526080810186905260019060a0016020604051602081039080840390855afa1580156121f4573d6000803e3d6000fd5b5050604051601f1901519150506001600160a01b0381166122205750600092506001915082905061222a565b9250600091508190505b9450945094915050565b600082600381111561224857612248612ae8565b03612251575050565b600182600381111561226557612265612ae8565b036122835760405163f645eedf60e01b815260040160405180910390fd5b600282600381111561229757612297612ae8565b036122b85760405163fce698f760e01b815260048101829052602401610664565b60038260038111156122cc576122cc612ae8565b03610523576040516335e2f38360e21b815260048101829052602401610664565b60007f8b73c3c69bb8fe3d512ecc4cf759cc79239f7b179b0ffacaa9a75d522b39400f61231861238a565b6123206123f4565b60408051602081019490945283019190915260608201524660808201523060a082015260c00160405160208183030381529060405280519060200120905090565b8051156123715780518082602001fd5b604051630a12f52160e11b815260040160405180910390fd5b6000600080516020612b1f833981519152816123a46116e1565b8051909150156123bc57805160209091012092915050565b815480156123cb579392505050565b7fc5d2460186f7233c927e7db2dcc703c0e500b653ca82273b7bfad8045d85a470935050505090565b6000600080516020612b1f8339815191528161240e6117a4565b80519091501561242657805160209091012092915050565b600182015480156123cb579392505050565b6001600160a01b038116811461055457600080fd5b801515811461055457600080fd5b6000806040838503121561246e57600080fd5b823561247981612438565b915060208301356124898161244d565b809150509250929050565b6000602082840312156124a657600080fd5b8135611d178161244d565b6000602082840312156124c357600080fd5b5035919050565b600080604083850312156124dd57600080fd5b82356124e881612438565b946020939093013593505050565b6000806040838503121561250957600080fd5b8235915060208301356124898161244d565b634e487b7160e01b600052604160045260246000fd5b6000806040838503121561254457600080fd5b823561254f81612438565b9150602083013567ffffffffffffffff81111561256b57600080fd5b8301601f8101851361257c57600080fd5b803567ffffffffffffffff8111156125965761259661251b565b604051601f8201601f19908116603f0116810167ffffffffffffffff811182821017156125c5576125c561251b565b6040528181528282016020018710156125dd57600080fd5b816020840160208301376000602083830101528093505050509250929050565b600060e0828403121561260f57600080fd5b50919050565b600060e0828403121561262757600080fd5b611d1783836125fd565b60006020828403121561264357600080fd5b8135611d1781612438565b6000806000610120848603121561266457600080fd5b61266e85856125fd565b925060e084013591506101008401356126868161244d565b809150509250925092565b60005b838110156126ac578181015183820152602001612694565b50506000910152565b600081518084526126cd816020860160208601612691565b601f01601f19169290920160200192915050565b60ff60f81b8816815260e06020820152600061270060e08301896126b5565b828103604084015261271281896126b5565b606084018890526001600160a01b038716608085015260a0840186905283810360c08501528451808252602080870193509091019060005b8181101561276857835183526020938401939092019160010161274a565b50909b9a5050505050505050505050565b602081526000611d1760208301846126b5565b6000806000606084860312156127a157600080fd5b83356127ac81612438565b925060208401356127bc81612438565b9150604084013561268681612438565b600080858511156127dc57600080fd5b838611156127e957600080fd5b5050820193919092039150565b80356001600160e01b03198116906004841015612827576001600160e01b0319600485900360031b81901b82161691505b5092915050565b6001600160a01b03841681526040602082018190528101829052818360608301376000818301606090810191909152601f909201601f1916010192915050565b634e487b7160e01b600052601160045260246000fd5b808201808211156105f2576105f261286e565b6001600160a01b039384168152919092166020820152604081019190915260600190565b6000602082840312156128cd57600080fd5b8151611d178161244d565b818103818111156105f2576105f261286e565b6000602082840312156128fd57600080fd5b5051919050565b600181811c9082168061291857607f821691505b60208210810361260f57634e487b7160e01b600052602260045260246000fd5b6000825161294a818460208701612691565b9190910192915050565b6000806040838503121561296757600080fd5b82516129728161244d565b602084015190925063ffffffff8116811461248957600080fd5b60006020828403121561299e57600080fd5b8151611d1781612438565b634e487b7160e01b600052601260045260246000fd5b6000602082840312156129d157600080fd5b813560ff81168114611d1757600080fd5b601f82111561061f57806000526020600020601f840160051c81016020851015612a095750805b601f840160051c820191505b81811015610b545760008155600101612a15565b815167ffffffffffffffff811115612a4357612a4361251b565b612a5781612a518454612904565b846129e2565b6020601f821160018114612a8b5760008315612a735750848201515b600019600385901b1c1916600184901b178455610b54565b600084815260208120601f198516915b82811015612abb5787850151825560209485019460019092019101612a9b565b5084821015612ad95786840151600019600387901b60f8161c191681555b50505050600190811b01905550565b634e487b7160e01b600052602160045260246000fdfef3177357ab46d8af007ab3fdb9af81da189e1068fefdc0073dca88a2cab40a00a16a46d94261c7517cc8ff89f61c0ce93598e3c849801011dee649a6a557d100360894a13ba1a3210667c828492db98dca3e2076cc3735a920a3ca505d382bbca2646970667358221220e5d60ec1af92a56b22bc9dff4485bffd1f68c80be0f6d4af76a01a25a91530d264736f6c634300081c0033",
  "linkReferences": {},
  "deployedLinkReferences": {}
}