{
  "_format": "hh-sol-artifact-1",
  "contractName": "OsmiAccessManager",
  "sourceName": "contracts/OsmiAccessManager.sol",
  "abi": [
    {
      "inputs": [],
      "stateMutability": "nonpayable",
      "type": "constructor"
    },
    {
      "inputs": [
        {
          "internalType": "bytes32",
          "name": "operationId",
          "type": "bytes32"
        }
      ],
      "name": "AccessManagerAlreadyScheduled",
      "type": "error"
    },
    {
      "inputs": [],
      "name": "AccessManagerBadConfirmation",
      "type": "error"
    },
    {
      "inputs": [
        {
          "internalType": "bytes32",
          "name": "operationId",
          "type": "bytes32"
        }
      ],
      "name": "AccessManagerExpired",
      "type": "error"
    },
    {
      "inputs": [
        {
          "internalType": "address",
          "name": "initialAdmin",
          "type": "address"
        }
      ],
      "name": "AccessManagerInvalidInitialAdmin",
      "type": "error"
    },
    {
      "inputs": [
        {
          "internalType": "address",
          "name": "account",
          "type": "address"
        }
      ],
      "name": "AccessManagerLockedAccount",
      "type": "error"
    },
    {
      "inputs": [
        {
          "internalType": "uint64",
          "name": "roleId",
          "type": "uint64"
        }
      ],
      "name": "AccessManagerLockedRole",
      "type": "error"
    },
    {
      "inputs": [
        {
          "internalType": "bytes32",
          "name": "operationId",
          "type": "bytes32"
        }
      ],
      "name": "AccessManagerNotReady",
      "type": "error"
    },
    {
      "inputs": [
        {
          "internalType": "bytes32",
          "name": "operationId",
          "type": "bytes32"
        }
      ],
      "name": "AccessManagerNotScheduled",
      "type": "error"
    },
    {
      "inputs": [
        {
          "internalType": "address",
          "name": "msgsender",
          "type": "address"
        },
        {
          "internalType": "uint64",
          "name": "roleId",
          "type": "uint64"
        }
      ],
      "name": "AccessManagerUnauthorizedAccount",
      "type": "error"
    },
    {
      "inputs": [
        {
          "internalType": "address",
          "name": "caller",
          "type": "address"
        },
        {
          "internalType": "address",
          "name": "target",
          "type": "address"
        },
        {
          "internalType": "bytes4",
          "name": "selector",
          "type": "bytes4"
        }
      ],
      "name": "AccessManagerUnauthorizedCall",
      "type": "error"
    },
    {
      "inputs": [
        {
          "internalType": "address",
          "name": "msgsender",
          "type": "address"
        },
        {
          "internalType": "address",
          "name": "caller",
          "type": "address"
        },
        {
          "internalType": "address",
          "name": "target",
          "type": "address"
        },
        {
          "internalType": "bytes4",
          "name": "selector",
          "type": "bytes4"
        }
      ],
      "name": "AccessManagerUnauthorizedCancel",
      "type": "error"
    },
    {
      "inputs": [
        {
          "internalType": "address",
          "name": "target",
          "type": "address"
        }
      ],
      "name": "AccessManagerUnauthorizedConsume",
      "type": "error"
    },
    {
      "inputs": [
        {
          "internalType": "address",
          "name": "target",
          "type": "address"
        }
      ],
      "name": "AddressEmptyCode",
      "type": "error"
    },
    {
      "inputs": [
        {
          "internalType": "address",
          "name": "account",
          "type": "address"
        }
      ],
      "name": "AddressInsufficientBalance",
      "type": "error"
    },
    {
      "inputs": [
        {
          "internalType": "address",
          "name": "implementation",
          "type": "address"
        }
      ],
      "name": "ERC1967InvalidImplementation",
      "type": "error"
    },
    {
      "inputs": [],
      "name": "ERC1967NonPayable",
      "type": "error"
    },
    {
      "inputs": [],
      "name": "FailedInnerCall",
      "type": "error"
    },
    {
      "inputs": [],
      "name": "InvalidInitialization",
      "type": "error"
    },
    {
      "inputs": [],
      "name": "NotInitializing",
      "type": "error"
    },
    {
      "inputs": [
        {
          "internalType": "address",
          "name": "owner",
          "type": "address"
        }
      ],
      "name": "OwnableInvalidOwner",
      "type": "error"
    },
    {
      "inputs": [
        {
          "internalType": "address",
          "name": "account",
          "type": "address"
        }
      ],
      "name": "OwnableUnauthorizedAccount",
      "type": "error"
    },
    {
      "inputs": [
        {
          "internalType": "uint8",
          "name": "bits",
          "type": "uint8"
        },
        {
          "internalType": "uint256",
          "name": "value",
          "type": "uint256"
        }
      ],
      "name": "SafeCastOverflowedUintDowncast",
      "type": "error"
    },
    {
      "inputs": [],
      "name": "UUPSUnauthorizedCallContext",
      "type": "error"
    },
    {
      "inputs": [
        {
          "internalType": "bytes32",
          "name": "slot",
          "type": "bytes32"
        }
      ],
      "name": "UUPSUnsupportedProxiableUUID",
      "type": "error"
    },
    {
      "anonymous": false,
      "inputs": [
        {
          "indexed": false,
          "internalType": "uint64",
          "name": "version",
          "type": "uint64"
        }
      ],
      "name": "Initialized",
      "type": "event"
    },
    {
      "anonymous": false,
      "inputs": [
        {
          "indexed": true,
          "internalType": "bytes32",
          "name": "operationId",
          "type": "bytes32"
        },
        {
          "indexed": true,
          "internalType": "uint32",
          "name": "nonce",
          "type": "uint32"
        }
      ],
      "name": "OperationCanceled",
      "type": "event"
    },
    {
      "anonymous": false,
      "inputs": [
        {
          "indexed": true,
          "internalType": "bytes32",
          "name": "operationId",
          "type": "bytes32"
        },
        {
          "indexed": true,
          "internalType": "uint32",
          "name": "nonce",
          "type": "uint32"
        }
      ],
      "name": "OperationExecuted",
      "type": "event"
    },
    {
      "anonymous": false,
      "inputs": [
        {
          "indexed": true,
          "internalType": "bytes32",
          "name": "operationId",
          "type": "bytes32"
        },
        {
          "indexed": true,
          "internalType": "uint32",
          "name": "nonce",
          "type": "uint32"
        },
        {
          "indexed": false,
          "internalType": "uint48",
          "name": "schedule",
          "type": "uint48"
        },
        {
          "indexed": false,
          "internalType": "address",
          "name": "caller",
          "type": "address"
        },
        {
          "indexed": false,
          "internalType": "address",
          "name": "target",
          "type": "address"
        },
        {
          "indexed": false,
          "internalType": "bytes",
          "name": "data",
          "type": "bytes"
        }
      ],
      "name": "OperationScheduled",
      "type": "event"
    },
    {
      "anonymous": false,
      "inputs": [
        {
          "indexed": true,
          "internalType": "address",
          "name": "previousOwner",
          "type": "address"
        },
        {
          "indexed": true,
          "internalType": "address",
          "name": "newOwner",
          "type": "address"
        }
      ],
      "name": "OwnershipTransferStarted",
      "type": "event"
    },
    {
      "anonymous": false,
      "inputs": [
        {
          "indexed": true,
          "internalType": "address",
          "name": "previousOwner",
          "type": "address"
        },
        {
          "indexed": true,
          "internalType": "address",
          "name": "newOwner",
          "type": "address"
        }
      ],
      "name": "OwnershipTransferred",
      "type": "event"
    },
    {
      "anonymous": false,
      "inputs": [
        {
          "indexed": true,
          "internalType": "uint64",
          "name": "roleId",
          "type": "uint64"
        },
        {
          "indexed": true,
          "internalType": "uint64",
          "name": "admin",
          "type": "uint64"
        }
      ],
      "name": "RoleAdminChanged",
      "type": "event"
    },
    {
      "anonymous": false,
      "inputs": [
        {
          "indexed": true,
          "internalType": "uint64",
          "name": "roleId",
          "type": "uint64"
        },
        {
          "indexed": false,
          "internalType": "uint32",
          "name": "delay",
          "type": "uint32"
        },
        {
          "indexed": false,
          "internalType": "uint48",
          "name": "since",
          "type": "uint48"
        }
      ],
      "name": "RoleGrantDelayChanged",
      "type": "event"
    },
    {
      "anonymous": false,
      "inputs": [
        {
          "indexed": true,
          "internalType": "uint64",
          "name": "roleId",
          "type": "uint64"
        },
        {
          "indexed": true,
          "internalType": "address",
          "name": "account",
          "type": "address"
        },
        {
          "indexed": false,
          "internalType": "uint32",
          "name": "delay",
          "type": "uint32"
        },
        {
          "indexed": false,
          "internalType": "uint48",
          "name": "since",
          "type": "uint48"
        },
        {
          "indexed": false,
          "internalType": "bool",
          "name": "newMember",
          "type": "bool"
        }
      ],
      "name": "RoleGranted",
      "type": "event"
    },
    {
      "anonymous": false,
      "inputs": [
        {
          "indexed": true,
          "internalType": "uint64",
          "name": "roleId",
          "type": "uint64"
        },
        {
          "indexed": true,
          "internalType": "uint64",
          "name": "guardian",
          "type": "uint64"
        }
      ],
      "name": "RoleGuardianChanged",
      "type": "event"
    },
    {
      "anonymous": false,
      "inputs": [
        {
          "indexed": true,
          "internalType": "uint64",
          "name": "roleId",
          "type": "uint64"
        },
        {
          "indexed": false,
          "internalType": "string",
          "name": "label",
          "type": "string"
        }
      ],
      "name": "RoleLabel",
      "type": "event"
    },
    {
      "anonymous": false,
      "inputs": [
        {
          "indexed": true,
          "internalType": "uint64",
          "name": "roleId",
          "type": "uint64"
        },
        {
          "indexed": true,
          "internalType": "address",
          "name": "account",
          "type": "address"
        }
      ],
      "name": "RoleRevoked",
      "type": "event"
    },
    {
      "anonymous": false,
      "inputs": [
        {
          "indexed": true,
          "internalType": "address",
          "name": "target",
          "type": "address"
        },
        {
          "indexed": false,
          "internalType": "uint32",
          "name": "delay",
          "type": "uint32"
        },
        {
          "indexed": false,
          "internalType": "uint48",
          "name": "since",
          "type": "uint48"
        }
      ],
      "name": "TargetAdminDelayUpdated",
      "type": "event"
    },
    {
      "anonymous": false,
      "inputs": [
        {
          "indexed": true,
          "internalType": "address",
          "name": "target",
          "type": "address"
        },
        {
          "indexed": false,
          "internalType": "bool",
          "name": "closed",
          "type": "bool"
        }
      ],
      "name": "TargetClosed",
      "type": "event"
    },
    {
      "anonymous": false,
      "inputs": [
        {
          "indexed": true,
          "internalType": "address",
          "name": "target",
          "type": "address"
        },
        {
          "indexed": false,
          "internalType": "bytes4",
          "name": "selector",
          "type": "bytes4"
        },
        {
          "indexed": true,
          "internalType": "uint64",
          "name": "roleId",
          "type": "uint64"
        }
      ],
      "name": "TargetFunctionRoleUpdated",
      "type": "event"
    },
    {
      "anonymous": false,
      "inputs": [
        {
          "indexed": true,
          "internalType": "address",
          "name": "implementation",
          "type": "address"
        }
      ],
      "name": "Upgraded",
      "type": "event"
    },
    {
      "inputs": [],
      "name": "ADMIN_ROLE",
      "outputs": [
        {
          "internalType": "uint64",
          "name": "",
          "type": "uint64"
        }
      ],
      "stateMutability": "view",
      "type": "function"
    },
    {
      "inputs": [],
      "name": "PUBLIC_ROLE",
      "outputs": [
        {
          "internalType": "uint64",
          "name": "",
          "type": "uint64"
        }
      ],
      "stateMutability": "view",
      "type": "function"
    },
    {
      "inputs": [],
      "name": "UPGRADE_INTERFACE_VERSION",
      "outputs": [
        {
          "internalType": "string",
          "name": "",
          "type": "string"
        }
      ],
      "stateMutability": "view",
      "type": "function"
    },
    {
      "inputs": [],
      "name": "acceptOwnership",
      "outputs": [],
      "stateMutability": "nonpayable",
      "type": "function"
    },
    {
      "inputs": [
        {
          "internalType": "address",
          "name": "caller",
          "type": "address"
        },
        {
          "internalType": "address",
          "name": "target",
          "type": "address"
        },
        {
          "internalType": "bytes4",
          "name": "selector",
          "type": "bytes4"
        }
      ],
      "name": "canCall",
      "outputs": [
        {
          "internalType": "bool",
          "name": "immediate",
          "type": "bool"
        },
        {
          "internalType": "uint32",
          "name": "delay",
          "type": "uint32"
        }
      ],
      "stateMutability": "view",
      "type": "function"
    },
    {
      "inputs": [
        {
          "internalType": "address",
          "name": "caller",
          "type": "address"
        },
        {
          "internalType": "address",
          "name": "target",
          "type": "address"
        },
        {
          "internalType": "bytes",
          "name": "data",
          "type": "bytes"
        }
      ],
      "name": "cancel",
      "outputs": [
        {
          "internalType": "uint32",
          "name": "",
          "type": "uint32"
        }
      ],
      "stateMutability": "nonpayable",
      "type": "function"
    },
    {
      "inputs": [
        {
          "internalType": "address",
          "name": "caller",
          "type": "address"
        },
        {
          "internalType": "bytes",
          "name": "data",
          "type": "bytes"
        }
      ],
      "name": "consumeScheduledOp",
      "outputs": [],
      "stateMutability": "nonpayable",
      "type": "function"
    },
    {
      "inputs": [
        {
          "internalType": "address",
          "name": "target",
          "type": "address"
        },
        {
          "internalType": "bytes",
          "name": "data",
          "type": "bytes"
        }
      ],
      "name": "execute",
      "outputs": [
        {
          "internalType": "uint32",
          "name": "",
          "type": "uint32"
        }
      ],
      "stateMutability": "payable",
      "type": "function"
    },
    {
      "inputs": [],
      "name": "expiration",
      "outputs": [
        {
          "internalType": "uint32",
          "name": "",
          "type": "uint32"
        }
      ],
      "stateMutability": "view",
      "type": "function"
    },
    {
      "inputs": [
        {
          "internalType": "uint64",
          "name": "roleId",
          "type": "uint64"
        },
        {
          "internalType": "address",
          "name": "account",
          "type": "address"
        }
      ],
      "name": "getAccess",
      "outputs": [
        {
          "internalType": "uint48",
          "name": "since",
          "type": "uint48"
        },
        {
          "internalType": "uint32",
          "name": "currentDelay",
          "type": "uint32"
        },
        {
          "internalType": "uint32",
          "name": "pendingDelay",
          "type": "uint32"
        },
        {
          "internalType": "uint48",
          "name": "effect",
          "type": "uint48"
        }
      ],
      "stateMutability": "view",
      "type": "function"
    },
    {
      "inputs": [
        {
          "internalType": "bytes32",
          "name": "id",
          "type": "bytes32"
        }
      ],
      "name": "getNonce",
      "outputs": [
        {
          "internalType": "uint32",
          "name": "",
          "type": "uint32"
        }
      ],
      "stateMutability": "view",
      "type": "function"
    },
    {
      "inputs": [
        {
          "internalType": "uint64",
          "name": "roleId",
          "type": "uint64"
        }
      ],
      "name": "getRoleAdmin",
      "outputs": [
        {
          "internalType": "uint64",
          "name": "",
          "type": "uint64"
        }
      ],
      "stateMutability": "view",
      "type": "function"
    },
    {
      "inputs": [
        {
          "internalType": "uint64",
          "name": "roleId",
          "type": "uint64"
        }
      ],
      "name": "getRoleGrantDelay",
      "outputs": [
        {
          "internalType": "uint32",
          "name": "",
          "type": "uint32"
        }
      ],
      "stateMutability": "view",
      "type": "function"
    },
    {
      "inputs": [
        {
          "internalType": "uint64",
          "name": "roleId",
          "type": "uint64"
        }
      ],
      "name": "getRoleGuardian",
      "outputs": [
        {
          "internalType": "uint64",
          "name": "",
          "type": "uint64"
        }
      ],
      "stateMutability": "view",
      "type": "function"
    },
    {
      "inputs": [
        {
          "internalType": "bytes32",
          "name": "id",
          "type": "bytes32"
        }
      ],
      "name": "getSchedule",
      "outputs": [
        {
          "internalType": "uint48",
          "name": "",
          "type": "uint48"
        }
      ],
      "stateMutability": "view",
      "type": "function"
    },
    {
      "inputs": [
        {
          "internalType": "address",
          "name": "target",
          "type": "address"
        }
      ],
      "name": "getTargetAdminDelay",
      "outputs": [
        {
          "internalType": "uint32",
          "name": "",
          "type": "uint32"
        }
      ],
      "stateMutability": "view",
      "type": "function"
    },
    {
      "inputs": [
        {
          "internalType": "address",
          "name": "target",
          "type": "address"
        },
        {
          "internalType": "bytes4",
          "name": "selector",
          "type": "bytes4"
        }
      ],
      "name": "getTargetFunctionRole",
      "outputs": [
        {
          "internalType": "uint64",
          "name": "",
          "type": "uint64"
        }
      ],
      "stateMutability": "view",
      "type": "function"
    },
    {
      "inputs": [
        {
          "internalType": "uint64",
          "name": "roleId",
          "type": "uint64"
        },
        {
          "internalType": "address",
          "name": "account",
          "type": "address"
        },
        {
          "internalType": "uint32",
          "name": "executionDelay",
          "type": "uint32"
        }
      ],
      "name": "grantRole",
      "outputs": [],
      "stateMutability": "nonpayable",
      "type": "function"
    },
    {
      "inputs": [
        {
          "internalType": "uint64",
          "name": "roleId",
          "type": "uint64"
        },
        {
          "internalType": "address",
          "name": "account",
          "type": "address"
        }
      ],
      "name": "hasRole",
      "outputs": [
        {
          "internalType": "bool",
          "name": "isMember",
          "type": "bool"
        },
        {
          "internalType": "uint32",
          "name": "executionDelay",
          "type": "uint32"
        }
      ],
      "stateMutability": "view",
      "type": "function"
    },
    {
      "inputs": [
        {
          "internalType": "address",
          "name": "caller",
          "type": "address"
        },
        {
          "internalType": "address",
          "name": "target",
          "type": "address"
        },
        {
          "internalType": "bytes",
          "name": "data",
          "type": "bytes"
        }
      ],
      "name": "hashOperation",
      "outputs": [
        {
          "internalType": "bytes32",
          "name": "",
          "type": "bytes32"
        }
      ],
      "stateMutability": "view",
      "type": "function"
    },
    {
      "inputs": [
        {
          "internalType": "address",
          "name": "initialAdmin",
          "type": "address"
        }
      ],
      "name": "initialize",
      "outputs": [],
      "stateMutability": "nonpayable",
      "type": "function"
    },
    {
      "inputs": [
        {
          "internalType": "address",
          "name": "target",
          "type": "address"
        }
      ],
      "name": "isTargetClosed",
      "outputs": [
        {
          "internalType": "bool",
          "name": "",
          "type": "bool"
        }
      ],
      "stateMutability": "view",
      "type": "function"
    },
    {
      "inputs": [
        {
          "internalType": "uint64",
          "name": "roleId",
          "type": "uint64"
        },
        {
          "internalType": "string",
          "name": "label",
          "type": "string"
        }
      ],
      "name": "labelRole",
      "outputs": [],
      "stateMutability": "nonpayable",
      "type": "function"
    },
    {
      "inputs": [],
      "name": "minSetback",
      "outputs": [
        {
          "internalType": "uint32",
          "name": "",
          "type": "uint32"
        }
      ],
      "stateMutability": "view",
      "type": "function"
    },
    {
      "inputs": [
        {
          "internalType": "bytes[]",
          "name": "data",
          "type": "bytes[]"
        }
      ],
      "name": "multicall",
      "outputs": [
        {
          "internalType": "bytes[]",
          "name": "results",
          "type": "bytes[]"
        }
      ],
      "stateMutability": "nonpayable",
      "type": "function"
    },
    {
      "inputs": [],
      "name": "owner",
      "outputs": [
        {
          "internalType": "address",
          "name": "",
          "type": "address"
        }
      ],
      "stateMutability": "view",
      "type": "function"
    },
    {
      "inputs": [],
      "name": "pendingOwner",
      "outputs": [
        {
          "internalType": "address",
          "name": "",
          "type": "address"
        }
      ],
      "stateMutability": "view",
      "type": "function"
    },
    {
      "inputs": [],
      "name": "proxiableUUID",
      "outputs": [
        {
          "internalType": "bytes32",
          "name": "",
          "type": "bytes32"
        }
      ],
      "stateMutability": "view",
      "type": "function"
    },
    {
      "inputs": [],
      "name": "renounceOwnership",
      "outputs": [],
      "stateMutability": "nonpayable",
      "type": "function"
    },
    {
      "inputs": [
        {
          "internalType": "uint64",
          "name": "roleId",
          "type": "uint64"
        },
        {
          "internalType": "address",
          "name": "callerConfirmation",
          "type": "address"
        }
      ],
      "name": "renounceRole",
      "outputs": [],
      "stateMutability": "nonpayable",
      "type": "function"
    },
    {
      "inputs": [
        {
          "internalType": "uint64",
          "name": "roleId",
          "type": "uint64"
        },
        {
          "internalType": "address",
          "name": "account",
          "type": "address"
        }
      ],
      "name": "revokeRole",
      "outputs": [],
      "stateMutability": "nonpayable",
      "type": "function"
    },
    {
      "inputs": [
        {
          "internalType": "address",
          "name": "target",
          "type": "address"
        },
        {
          "internalType": "bytes",
          "name": "data",
          "type": "bytes"
        },
        {
          "internalType": "uint48",
          "name": "when",
          "type": "uint48"
        }
      ],
      "name": "schedule",
      "outputs": [
        {
          "internalType": "bytes32",
          "name": "operationId",
          "type": "bytes32"
        },
        {
          "internalType": "uint32",
          "name": "nonce",
          "type": "uint32"
        }
      ],
      "stateMutability": "nonpayable",
      "type": "function"
    },
    {
      "inputs": [
        {
          "internalType": "uint64",
          "name": "roleId",
          "type": "uint64"
        },
        {
          "internalType": "uint32",
          "name": "newDelay",
          "type": "uint32"
        }
      ],
      "name": "setGrantDelay",
      "outputs": [],
      "stateMutability": "nonpayable",
      "type": "function"
    },
    {
      "inputs": [
        {
          "internalType": "uint64",
          "name": "roleId",
          "type": "uint64"
        },
        {
          "internalType": "uint64",
          "name": "admin",
          "type": "uint64"
        }
      ],
      "name": "setRoleAdmin",
      "outputs": [],
      "stateMutability": "nonpayable",
      "type": "function"
    },
    {
      "inputs": [
        {
          "internalType": "uint64",
          "name": "roleId",
          "type": "uint64"
        },
        {
          "internalType": "uint64",
          "name": "guardian",
          "type": "uint64"
        }
      ],
      "name": "setRoleGuardian",
      "outputs": [],
      "stateMutability": "nonpayable",
      "type": "function"
    },
    {
      "inputs": [
        {
          "internalType": "address",
          "name": "target",
          "type": "address"
        },
        {
          "internalType": "uint32",
          "name": "newDelay",
          "type": "uint32"
        }
      ],
      "name": "setTargetAdminDelay",
      "outputs": [],
      "stateMutability": "nonpayable",
      "type": "function"
    },
    {
      "inputs": [
        {
          "internalType": "address",
          "name": "target",
          "type": "address"
        },
        {
          "internalType": "bool",
          "name": "closed",
          "type": "bool"
        }
      ],
      "name": "setTargetClosed",
      "outputs": [],
      "stateMutability": "nonpayable",
      "type": "function"
    },
    {
      "inputs": [
        {
          "internalType": "address",
          "name": "target",
          "type": "address"
        },
        {
          "internalType": "bytes4[]",
          "name": "selectors",
          "type": "bytes4[]"
        },
        {
          "internalType": "uint64",
          "name": "roleId",
          "type": "uint64"
        }
      ],
      "name": "setTargetFunctionRole",
      "outputs": [],
      "stateMutability": "nonpayable",
      "type": "function"
    },
    {
      "inputs": [
        {
          "internalType": "address",
          "name": "newOwner",
          "type": "address"
        }
      ],
      "name": "transferOwnership",
      "outputs": [],
      "stateMutability": "nonpayable",
      "type": "function"
    },
    {
      "inputs": [
        {
          "internalType": "address",
          "name": "target",
          "type": "address"
        },
        {
          "internalType": "address",
          "name": "newAuthority",
          "type": "address"
        }
      ],
      "name": "updateAuthority",
      "outputs": [],
      "stateMutability": "nonpayable",
      "type": "function"
    },
    {
      "inputs": [
        {
          "internalType": "address",
          "name": "newImplementation",
          "type": "address"
        },
        {
          "internalType": "bytes",
          "name": "data",
          "type": "bytes"
        }
      ],
      "name": "upgradeToAndCall",
      "outputs": [],
      "stateMutability": "payable",
      "type": "function"
    }
  ],
  "bytecode": "0x60a06040523060805234801561001457600080fd5b5061001d610022565b6100d4565b7ff0c57e16840df040f15088dc2f81fe391c3923bec73e23a9662efc9c229c6a00805468010000000000000000900460ff16156100725760405163f92ee8a960e01b815260040160405180910390fd5b80546001600160401b03908116146100d15780546001600160401b0319166001600160401b0390811782556040519081527fc7f505b2f371ae2175ee4913f4499e1f2633a7b5936321eed1cdaeb6115181d29060200160405180910390a15b50565b6080516134fe6100fd60003960008181611e7701528181611ea001526120a101526134fe6000f3fe6080604052600436106102465760003560e01c806375b238fc11610139578063b7009613116100b6578063d22b59891161007a578063d22b598914610743578063d6bb62c614610763578063e30c397814610783578063f2fde38b14610798578063f801a698146107b8578063fe0776f5146107f257600080fd5b8063b700961314610691578063b7d2b162146106cd578063c4d66de8146106ed578063cc1b6c811461070d578063d1f856ee1461072357600080fd5b8063a166aa89116100fd578063a166aa89146105b6578063a64d95ce146105e6578063abd9bd2a14610606578063ac9650d814610626578063ad3cb1cc1461065357600080fd5b806375b238fc1461051f57806379ba509714610534578063853551b8146105495780638da5cb5b1461056957806394c7d7ee1461059657600080fd5b80633ca7c02a116101c7578063529629521161018b578063529629521461048757806352d1902d146104a7578063530dd456146104ca5780636d5115bd146104ea578063715018a61461050a57600080fd5b80633ca7c02a146104035780634136a33c1461041e5780634665096d1461043e5780634c1da1e2146104545780634f1ef2861461047457600080fd5b80631cff79cd1161020e5780631cff79cd1461031f57806325c471a0146103325780633078f1141461035257806330cae187146103ac5780633adc277a146103cc57600080fd5b806308d6122d1461024b5780630b0a93ba1461026d57806312be8727146102aa578063167bd395146102df57806318ff183c146102ff575b600080fd5b34801561025757600080fd5b5061026b610266366004612c41565b610812565b005b34801561027957600080fd5b5061028d610288366004612ca7565b610865565b6040516001600160401b0390911681526020015b60405180910390f35b3480156102b657600080fd5b506102ca6102c5366004612ca7565b61089e565b60405163ffffffff90911681526020016102a1565b3480156102eb57600080fd5b5061026b6102fa366004612cc2565b6108ea565b34801561030b57600080fd5b5061026b61031a366004612d00565b610900565b6102ca61032d366004612d6f565b610967565b34801561033e57600080fd5b5061026b61034d366004612dd7565b610aad565b34801561035e57600080fd5b5061037261036d366004612e1c565b610acf565b6040516102a1949392919065ffffffffffff948516815263ffffffff93841660208201529190921660408201529116606082015260800190565b3480156103b857600080fd5b5061026b6103c7366004612e38565b610b46565b3480156103d857600080fd5b506103ec6103e7366004612e6b565b610b58565b60405165ffffffffffff90911681526020016102a1565b34801561040f57600080fd5b5061028d6001600160401b0381565b34801561042a57600080fd5b506102ca610439366004612e6b565b610b9d565b34801561044a57600080fd5b5062093a806102ca565b34801561046057600080fd5b506102ca61046f366004612e84565b610bca565b61026b610482366004612eb7565b610c06565b34801561049357600080fd5b5061026b6104a2366004612e38565b610c21565b3480156104b357600080fd5b506104bc610c33565b6040519081526020016102a1565b3480156104d657600080fd5b5061028d6104e5366004612ca7565b610c50565b3480156104f657600080fd5b5061028d610505366004612f96565b610c82565b34801561051657600080fd5b5061026b610ccb565b34801561052b57600080fd5b5061028d600081565b34801561054057600080fd5b5061026b610cdf565b34801561055557600080fd5b5061026b610564366004612fc4565b610d27565b34801561057557600080fd5b5061057e610dbe565b6040516001600160a01b0390911681526020016102a1565b3480156105a257600080fd5b5061026b6105b1366004612d6f565b610df3565b3480156105c257600080fd5b506105d66105d1366004612e84565b610e9f565b60405190151581526020016102a1565b3480156105f257600080fd5b5061026b610601366004612fe2565b610ed8565b34801561061257600080fd5b506104bc61062136600461300c565b610eea565b34801561063257600080fd5b50610646610641366004613070565b610f23565b6040516102a19190613101565b34801561065f57600080fd5b50610684604051806040016040528060058152602001640352e302e360dc1b81525081565b6040516102a19190613166565b34801561069d57600080fd5b506106b16106ac366004613179565b61100a565b60408051921515835263ffffffff9091166020830152016102a1565b3480156106d957600080fd5b5061026b6106e8366004612e1c565b611091565b3480156106f957600080fd5b5061026b610708366004612e84565b6110a8565b34801561071957600080fd5b50620697806102ca565b34801561072f57600080fd5b506106b161073e366004612e1c565b61123d565b34801561074f57600080fd5b5061026b61075e3660046131c4565b6112ba565b34801561076f57600080fd5b506102ca61077e36600461300c565b6112cc565b34801561078f57600080fd5b5061057e611437565b3480156107a457600080fd5b5061026b6107b3366004612e84565b611460565b3480156107c457600080fd5b506107d86107d33660046131e2565b6114e5565b6040805192835263ffffffff9091166020830152016102a1565b3480156107fe57600080fd5b5061026b61080d366004612e1c565b611690565b61081a6116b9565b60005b8281101561085e576108568585858481811061083b5761083b613254565b9050602002016020810190610850919061326a565b84611734565b60010161081d565b5050505050565b6000806108706117c2565b6001600160401b0393841660009081526001918201602052604090200154600160401b900490921692915050565b6000806108a96117c2565b6001600160401b03841660009081526001828101602052604090912001549091506108e390600160801b90046001600160701b03166117e6565b9392505050565b6108f26116b9565b6108fc8282611805565b5050565b6109086116b9565b604051637a9e5e4b60e01b81526001600160a01b038281166004830152831690637a9e5e4b90602401600060405180830381600087803b15801561094b57600080fd5b505af115801561095f573d6000803e3d6000fd5b505050505050565b6000806109726117c2565b905033600080610984838989896118ab565b915091508115801561099a575063ffffffff8116155b156109ed5782886109ab89896118fe565b6040516381c6f24b60e01b81526001600160a01b0393841660048201529290911660248301526001600160e01b03191660448201526064015b60405180910390fd5b60006109fb848a8a8a610eea565b9050600063ffffffff8316151580610a225750610a1782610b58565b65ffffffffffff1615155b15610a3357610a3082611916565b90505b6003860154610a4b8b610a468c8c6118fe565b611a2a565b8760030181905550610a958b8b8b8080601f016020809104026020016040519081016040528093929190818152602001838380828437600092019190915250349250611a6c915050565b50600390960195909555509293505050509392505050565b610ab56116b9565b610ac98383610ac38661089e565b84611b09565b50505050565b6000806000806000610adf6117c2565b6001600160401b038816600090815260018201602090815260408083206001600160a01b038b1684529091529020805465ffffffffffff8116975091925090610b3790600160301b90046001600160701b0316611d68565b979a9199509750945050505050565b610b4e6116b9565b6108fc8282611d8b565b600080610b636117c2565b600084815260028201602052604090205490915065ffffffffffff16610b8881611e3d565b610b925780610b95565b60005b949350505050565b600080610ba86117c2565b600093845260020160205250506040902054600160301b900463ffffffff1690565b600080610bd56117c2565b6001600160a01b0384166000908152602082905260409020600101549091506108e3906001600160701b03166117e6565b610c0e611e6c565b610c1782611f11565b6108fc8282611f19565b610c296116b9565b6108fc8282611fd6565b6000610c3d612096565b506000805160206134a983398151915290565b600080610c5b6117c2565b6001600160401b039384166000908152600191820160205260409020015490921692915050565b600080610c8d6117c2565b6001600160a01b0385166000908152602091825260408082206001600160e01b03198716835290925220546001600160401b03169150505b92915050565b610cd36120df565b610cdd6000612111565b565b3380610ce9611437565b6001600160a01b031614610d1b5760405163118cdaa760e01b81526001600160a01b03821660048201526024016109e4565b610d2481612111565b50565b610d2f6116b9565b6001600160401b0383161580610d4d57506001600160401b03838116145b15610d765760405163061c6a4360e21b81526001600160401b03841660048201526024016109e4565b826001600160401b03167f1256f5b5ecb89caec12db449738f2fbcd1ba5806cf38f35413f4e5c15bf6a4508383604051610db19291906132b0565b60405180910390a2505050565b6000807f9016d09d72d40fdae2fd8ceac6b6234c7706214fd39c1cd1e609a0528c1993005b546001600160a01b031692915050565b60408051638fb3603760e01b80825291513392918391638fb36037916004808201926020929091908290030181865afa158015610e34573d6000803e3d6000fd5b505050506040513d601f19601f82011682018060405250810190610e5891906132c4565b6001600160e01b03191614610e8b57604051630641fee960e31b81526001600160a01b03821660048201526024016109e4565b61085e610e9a85838686610eea565b611916565b600080610eaa6117c2565b6001600160a01b0390931660009081526020939093525050604090206001015460ff600160701b9091041690565b610ee06116b9565b6108fc8282612149565b600084848484604051602001610f0394939291906132e1565b604051602081830303815290604052805190602001209050949350505050565b604080516000815260208101909152606090826001600160401b03811115610f4d57610f4d612ea1565b604051908082528060200260200182016040528015610f8057816020015b6060815260200190600190039081610f6b5790505b50915060005b8381101561100257610fdd30868684818110610fa457610fa4613254565b9050602002810190610fb6919061334e565b85604051602001610fc993929190613394565b604051602081830303815290604052612276565b838281518110610fef57610fef613254565b6020908102919091010152600101610f86565b505092915050565b60008061101684610e9f565b1561102657506000905080611089565b306001600160a01b0386160361104b5761104084846122ec565b600091509150611089565b60006110578585610c82565b9050600080611066838961123d565b915091508161107757600080611081565b63ffffffff811615815b945094505050505b935093915050565b6110996116b9565b6110a38282612311565b505050565b7ff0c57e16840df040f15088dc2f81fe391c3923bec73e23a9662efc9c229c6a008054600160401b810460ff1615906001600160401b03166000811580156110ed5750825b90506000826001600160401b031660011480156111095750303b155b905081158015611117575080155b156111355760405163f92ee8a960e01b815260040160405180910390fd5b845467ffffffffffffffff19166001178555831561115f57845460ff60401b1916600160401b1785555b6001600160a01b0386166111ce5760405162461bcd60e51b815260206004820152603060248201527f496e697469616c2061646d696e20616464726573732063616e6e6f742062652060448201526f746865207a65726f206164647265737360801b60648201526084016109e4565b6111d786612410565b6111df612421565b6111e886612429565b6111f0612421565b831561095f57845460ff60401b19168555604051600181527fc7f505b2f371ae2175ee4913f4499e1f2633a7b5936321eed1cdaeb6115181d29060200160405180910390a1505050505050565b60008067fffffffffffffffe196001600160401b0385160161126557506001905060006112b3565b6000806112728686610acf565b5050915091508165ffffffffffff166000141580156112a8575061129461243a565b65ffffffffffff168265ffffffffffff1611155b935091506112b39050565b9250929050565b6112c26116b9565b6108fc828261244a565b6000806112d76117c2565b90503360006112e686866118fe565b905060006112f689898989610eea565b600081815260028601602052604081205491925065ffffffffffff90911690036113365760405163060a299b60e41b8152600481018290526024016109e4565b826001600160a01b0316896001600160a01b0316146113d257600061135c60008561123d565b50905060006113776113716102888c87610c82565b8661123d565b50905081158015611386575080155b156113cf57604051630ff89d4760e21b81526001600160a01b038087166004830152808d1660248301528b1660448201526001600160e01b0319851660648201526084016109e4565b50505b6000818152600285016020526040808220805465ffffffffffff1916908190559051600160301b90910463ffffffff1691829184917fbd9ac67a6e2f6463b80927326310338bcbb4bdb7936ce1365ea3e01067e7b9f791a39998505050505050505050565b6000807f237e158222e3e6968b72b9db0d8043aacf074ad9f650f0d1606b4d82ee432c00610de3565b6114686120df565b7f237e158222e3e6968b72b9db0d8043aacf074ad9f650f0d1606b4d82ee432c0080546001600160a01b0319166001600160a01b03831690811782556114ac610dbe565b6001600160a01b03167f38d16b8cac22d99fc7c124b9cd0de2d3fa1faef420bfe791d8c362d765e2270060405160405180910390a35050565b60008060006114f26117c2565b9050336000611503828a8a8a6118ab565b91505060008163ffffffff1661151761243a565b61152191906133bb565b905063ffffffff82161580611558575060008765ffffffffffff1611801561155857508065ffffffffffff168765ffffffffffff16105b1561156957828a6109ab8b8b6118fe565b6115838765ffffffffffff168265ffffffffffff16612516565b9650611591838b8b8b610eea565b955061159c8661252c565b83600201600087815260200190815260200160002060000160069054906101000a900463ffffffff1660010194508684600201600088815260200190815260200160002060000160006101000a81548165ffffffffffff021916908365ffffffffffff1602179055508484600201600088815260200190815260200160002060000160066101000a81548163ffffffff021916908363ffffffff1602179055508463ffffffff16867f82a2da5dee54ea8021c6545b4444620291e07ee83be6dd57edb175062715f3b489868e8e8e60405161167b9594939291906133d9565b60405180910390a35050505094509492505050565b6001600160a01b038116331461109957604051635f159e6360e01b815260040160405180910390fd5b336000806116c8838236612588565b91509150816110a3578063ffffffff166000036117245760006116eb8136612640565b5060405163f07e038f60e01b81526001600160a01b03871660048201526001600160401b038216602482015290925060440190506109e4565b610ac9610e9a8430600036610eea565b600061173e6117c2565b6001600160a01b0385166000818152602083815260408083206001600160e01b0319891680855290835292819020805467ffffffffffffffff19166001600160401b03891690811790915590519283529394507f9ea6790c7dadfd01c9f8b9762b3682607af2c7e79e05a9f9fdf5580dde949151910160405180910390a350505050565b7f40c6c8c28789853c7efd823ab20824bbd71718a8a5915e855f6f288c9a26ad0090565b6000806117fb836001600160701b0316611d68565b5090949350505050565b600061180f6117c2565b9050306001600160a01b0384160361184557604051630b40d17960e31b81526001600160a01b03841660048201526024016109e4565b6001600160a01b038316600081815260208390526040908190206001018054851515600160701b0260ff60701b19909116179055517f90d4e7bb7e5d933792b3562e1741306f8be94837e1348dacef9b6f1df56eb13890610db190851515815260200190565b600080306001600160a01b038616036118d2576118c9868585612588565b915091506118f5565b600483106118ee576118e986866106ac87876118fe565b6118c9565b5060009050805b94509492505050565b600061190d6004828486613324565b6108e39161341f565b6000806119216117c2565b600084815260028201602052604081205491925065ffffffffffff821691600160301b900463ffffffff16908290036119705760405163060a299b60e41b8152600481018690526024016109e4565b61197861243a565b65ffffffffffff168265ffffffffffff1611156119ab57604051630c65b5bd60e11b8152600481018690526024016109e4565b6119b482611e3d565b156119d557604051631e2975b960e21b8152600481018690526024016109e4565b6000858152600284016020526040808220805465ffffffffffff191690555163ffffffff83169187917f76a2a46953689d4861a5d3f6ed883ad7e6af674a21f8e162707159fc9dde614d9190a3949350505050565b604080516001600160a01b03939093166020808501919091526001600160e01b0319929092168382015280518084038201815260609093019052815191012090565b606081471015611a915760405163cd78605960e01b81523060048201526024016109e4565b600080856001600160a01b03168486604051611aad9190613457565b60006040518083038185875af1925050503d8060008114611aea576040519150601f19603f3d011682016040523d82523d6000602084013e611aef565b606091505b5091509150611aff86838361280c565b9695505050505050565b600080611b146117c2565b905067fffffffffffffffe196001600160401b03871601611b535760405163061c6a4360e21b81526001600160401b03871660048201526024016109e4565b6001600160401b038616600090815260018201602090815260408083206001600160a01b038916845290915281205465ffffffffffff1615908115611c49578563ffffffff16611ba161243a565b611bab91906133bb565b905060405180604001604052808265ffffffffffff168152602001611bd98763ffffffff1663ffffffff1690565b6001600160701b039081169091526001600160401b038a16600090815260018601602090815260408083206001600160a01b038d1684528252909120835181549490920151909216600160301b026001600160a01b031990931665ffffffffffff90911617919091179055611cf9565b6001600160401b038816600090815260018401602090815260408083206001600160a01b038b168452909152812054611c9591600160301b9091046001600160701b0316908790612868565b6001600160401b038a16600090815260018601602090815260408083206001600160a01b038d168452909152902080546001600160701b03909316600160301b0273ffffffffffffffffffffffffffff000000000000199093169290921790915590505b6040805163ffffffff8716815265ffffffffffff831660208201528315158183015290516001600160a01b038916916001600160401b038b16917ff98448b987f1428e0e230e1f3c6e2ce15b5693eaf31827fbd0b1ec4b424ae7cf9181900360600190a3509695505050505050565b6000806000611d7e84611d7961243a565b612912565b9250925092509193909250565b6000611d956117c2565b90506001600160401b0383161580611db557506001600160401b03838116145b15611dde5760405163061c6a4360e21b81526001600160401b03841660048201526024016109e4565b6001600160401b03838116600081815260018481016020526040808320909101805467ffffffffffffffff19169487169485179055517f1fd6dd7631312dfac2205b52913f99de03b4d7e381d5d27d3dbfe0713e6e63409190a3505050565b6000611e4761243a565b65ffffffffffff16611e5c62093a80846133bb565b65ffffffffffff16111592915050565b306001600160a01b037f0000000000000000000000000000000000000000000000000000000000000000161480611ef357507f00000000000000000000000000000000000000000000000000000000000000006001600160a01b0316611ee76000805160206134a9833981519152546001600160a01b031690565b6001600160a01b031614155b15610cdd5760405163703e46dd60e11b815260040160405180910390fd5b610d246120df565b816001600160a01b03166352d1902d6040518163ffffffff1660e01b8152600401602060405180830381865afa925050508015611f73575060408051601f3d908101601f19168201909252611f7091810190613473565b60015b611f9b57604051634c9c8ce360e01b81526001600160a01b03831660048201526024016109e4565b6000805160206134a98339815191528114611fcc57604051632a87526960e21b8152600481018290526024016109e4565b6110a38383612966565b6000611fe06117c2565b90506001600160401b038316158061200057506001600160401b03838116145b156120295760405163061c6a4360e21b81526001600160401b03841660048201526024016109e4565b6001600160401b0383811660008181526001848101602052604080832090910180546fffffffffffffffff00000000000000001916600160401b958816958602179055517f7a8059630b897b5de4c08ade69f8b90c3ead1f8596d62d10b6c4d14a0afb4ae29190a3505050565b306001600160a01b037f00000000000000000000000000000000000000000000000000000000000000001614610cdd5760405163703e46dd60e11b815260040160405180910390fd5b336120e8610dbe565b6001600160a01b031614610cdd5760405163118cdaa760e01b81523360048201526024016109e4565b7f237e158222e3e6968b72b9db0d8043aacf074ad9f650f0d1606b4d82ee432c0080546001600160a01b03191681556108fc826129bc565b60006121536117c2565b905067fffffffffffffffe196001600160401b038416016121925760405163061c6a4360e21b81526001600160401b03841660048201526024016109e4565b6001600160401b038316600090815260018281016020526040822001546121cd90600160801b90046001600160701b03168462069780612868565b6001600160401b038616600081815260018087016020526040918290200180546001600160701b03909516600160801b026dffffffffffffffffffffffffffff60801b199095169490941790935591519092507ffeb69018ee8b8fd50ea86348f1267d07673379f72cffdeccec63853ee8ce8b4890612268908690859063ffffffff92909216825265ffffffffffff16602082015260400190565b60405180910390a250505050565b6060600080846001600160a01b0316846040516122939190613457565b600060405180830381855af49150503d80600081146122ce576040519150601f19603f3d011682016040523d82523d6000602084013e6122d3565b606091505b50915091506122e385838361280c565b95945050505050565b6000806122f76117c2565b90506123038484611a2a565b600390910154149392505050565b60008061231c6117c2565b905067fffffffffffffffe196001600160401b0385160161235b5760405163061c6a4360e21b81526001600160401b03851660048201526024016109e4565b6001600160401b038416600090815260018201602090815260408083206001600160a01b038716845290915281205465ffffffffffff1690036123a2576000915050610cc5565b6001600160401b038416600081815260018301602090815260408083206001600160a01b038816808552925280832080546001600160a01b0319169055519092917ff229baa593af28c41b1d16b748cd7688f0c83aaf92d4be41c44005defe84c16691a35060019392505050565b612418612a2d565b610d2481612a76565b610cdd612a2d565b612431612a2d565b610d2481612ab6565b600061244542612ae8565b905090565b60006124546117c2565b9050600061248c83620697806001600160a01b0387166000908152602086905260409020600101546001600160701b03169190612868565b6001600160a01b0386166000818152602086815260409182902060010180546dffffffffffffffffffffffffffff19166001600160701b039690961695909517909455805163ffffffff8816815265ffffffffffff841694810194909452919350917fa56b76017453f399ec2327ba00375dbfb1fd070ff854341ad6191e6a2e2de19c9101612268565b600081831161252557816108e3565b5090919050565b60006125366117c2565b600083815260028201602052604090205490915065ffffffffffff168015801590612567575061256581611e3d565b155b156110a35760405163813e945960e01b8152600481018490526024016109e4565b600080600483101561259f57506000905080611089565b306001600160a01b038616036125c257611040306125bd86866118fe565b6122ec565b60008060006125d18787612640565b925092509250826125eb5760008094509450505050611089565b6000806125f8848b61123d565b915091508161261257600080965096505050505050611089565b6126288363ffffffff168263ffffffff16612516565b63ffffffff8116159b909a5098505050505050505050565b60008080600484101561265b57506000915081905080612805565b600061266786866118fe565b90506001600160e01b031981166310a6aa3760e31b148061269857506001600160e01b031981166330cae18760e01b145b806126b357506001600160e01b0319811663294b14a960e11b145b806126ce57506001600160e01b03198116635326cae760e11b145b806126e957506001600160e01b0319811663d22b598960e01b145b156126ff57600160008093509350935050612805565b6001600160e01b0319811663063fc60f60e21b148061272e57506001600160e01b0319811663167bd39560e01b145b8061274957506001600160e01b031981166308d6122d60e01b145b1561278b57600061275e60246004888a613324565b81019061276b9190612e84565b9050600061277882610bca565b6001965060009550935061280592505050565b6001600160e01b0319811663012e238d60e51b14806127ba57506001600160e01b03198116635be958b160e11b145b156127f85760006127cf60246004888a613324565b8101906127dc9190612ca7565b905060016127e982610c50565b60009450945094505050612805565b6000806000935093509350505b9250925092565b6060826128215761281c82612b1f565b6108e3565b815115801561283857506001600160a01b0384163b155b1561286157604051639996b31560e01b81526001600160a01b03851660048201526024016109e4565b50806108e3565b600080600061287f866001600160701b03166117e6565b905060006128bc8563ffffffff168763ffffffff168463ffffffff16116128a75760006128b1565b6128b1888561348c565b63ffffffff16612516565b90508063ffffffff166128cd61243a565b6128d791906133bb565b925063ffffffff8616602083901b67ffffffff0000000016604085901b6dffffffffffff000000000000000016171793505050935093915050565b6000808069ffffffffffffffffffff602086901c166001600160701b03861665ffffffffffff604088901c811690871681111561295157828282612956565b816000805b9550955095505050509250925092565b61296f82612b48565b6040516001600160a01b038316907fbc7cd75a20ee27fd9adebab32041f755214dbc6bffa90cc0225b39da2e5c2d3b90600090a28051156129b4576110a38282612276565b6108fc612bad565b7f9016d09d72d40fdae2fd8ceac6b6234c7706214fd39c1cd1e609a0528c19930080546001600160a01b031981166001600160a01b03848116918217845560405192169182907f8be0079c531659141344cd1fd0a4f28419497f9722a3daafe3b4186f6b6457e090600090a3505050565b7ff0c57e16840df040f15088dc2f81fe391c3923bec73e23a9662efc9c229c6a0054600160401b900460ff16610cdd57604051631afcd79f60e31b815260040160405180910390fd5b612a7e612a2d565b6001600160a01b038116612aa857604051630409d6d160e11b8152600060048201526024016109e4565b6108fc600082600080611b09565b612abe612a2d565b6001600160a01b038116610d1b57604051631e4fbdf760e01b8152600060048201526024016109e4565b600065ffffffffffff821115612b1b576040516306dfcc6560e41b815260306004820152602481018390526044016109e4565b5090565b805115612b2f5780518082602001fd5b604051630a12f52160e11b815260040160405180910390fd5b806001600160a01b03163b600003612b7e57604051634c9c8ce360e01b81526001600160a01b03821660048201526024016109e4565b6000805160206134a983398151915280546001600160a01b0319166001600160a01b0392909216919091179055565b3415610cdd5760405163b398979f60e01b815260040160405180910390fd5b6001600160a01b0381168114610d2457600080fd5b60008083601f840112612bf357600080fd5b5081356001600160401b03811115612c0a57600080fd5b6020830191508360208260051b85010111156112b357600080fd5b80356001600160401b0381168114612c3c57600080fd5b919050565b60008060008060608587031215612c5757600080fd5b8435612c6281612bcc565b935060208501356001600160401b03811115612c7d57600080fd5b612c8987828801612be1565b9094509250612c9c905060408601612c25565b905092959194509250565b600060208284031215612cb957600080fd5b6108e382612c25565b60008060408385031215612cd557600080fd5b8235612ce081612bcc565b915060208301358015158114612cf557600080fd5b809150509250929050565b60008060408385031215612d1357600080fd5b8235612d1e81612bcc565b91506020830135612cf581612bcc565b60008083601f840112612d4057600080fd5b5081356001600160401b03811115612d5757600080fd5b6020830191508360208285010111156112b357600080fd5b600080600060408486031215612d8457600080fd5b8335612d8f81612bcc565b925060208401356001600160401b03811115612daa57600080fd5b612db686828701612d2e565b9497909650939450505050565b803563ffffffff81168114612c3c57600080fd5b600080600060608486031215612dec57600080fd5b612df584612c25565b92506020840135612e0581612bcc565b9150612e1360408501612dc3565b90509250925092565b60008060408385031215612e2f57600080fd5b612d1e83612c25565b60008060408385031215612e4b57600080fd5b612e5483612c25565b9150612e6260208401612c25565b90509250929050565b600060208284031215612e7d57600080fd5b5035919050565b600060208284031215612e9657600080fd5b81356108e381612bcc565b634e487b7160e01b600052604160045260246000fd5b60008060408385031215612eca57600080fd5b8235612ed581612bcc565b915060208301356001600160401b03811115612ef057600080fd5b8301601f81018513612f0157600080fd5b80356001600160401b03811115612f1a57612f1a612ea1565b604051601f8201601f19908116603f011681016001600160401b0381118282101715612f4857612f48612ea1565b604052818152828201602001871015612f6057600080fd5b816020840160208301376000602083830101528093505050509250929050565b6001600160e01b031981168114610d2457600080fd5b60008060408385031215612fa957600080fd5b8235612fb481612bcc565b91506020830135612cf581612f80565b600080600060408486031215612fd957600080fd5b612d8f84612c25565b60008060408385031215612ff557600080fd5b612ffe83612c25565b9150612e6260208401612dc3565b6000806000806060858703121561302257600080fd5b843561302d81612bcc565b9350602085013561303d81612bcc565b925060408501356001600160401b0381111561305857600080fd5b61306487828801612d2e565b95989497509550505050565b6000806020838503121561308357600080fd5b82356001600160401b0381111561309957600080fd5b6130a585828601612be1565b90969095509350505050565b60005b838110156130cc5781810151838201526020016130b4565b50506000910152565b600081518084526130ed8160208601602086016130b1565b601f01601f19169290920160200192915050565b6000602082016020835280845180835260408501915060408160051b86010192506020860160005b8281101561315a57603f198786030184526131458583516130d5565b94506020938401939190910190600101613129565b50929695505050505050565b6020815260006108e360208301846130d5565b60008060006060848603121561318e57600080fd5b833561319981612bcc565b925060208401356131a981612bcc565b915060408401356131b981612f80565b809150509250925092565b600080604083850312156131d757600080fd5b8235612ffe81612bcc565b600080600080606085870312156131f857600080fd5b843561320381612bcc565b935060208501356001600160401b0381111561321e57600080fd5b61322a87828801612d2e565b909450925050604085013565ffffffffffff8116811461324957600080fd5b939692955090935050565b634e487b7160e01b600052603260045260246000fd5b60006020828403121561327c57600080fd5b81356108e381612f80565b81835281816020850137506000828201602090810191909152601f909101601f19169091010190565b602081526000610b95602083018486613287565b6000602082840312156132d657600080fd5b81516108e381612f80565b6001600160a01b03858116825284166020820152606060408201819052600090611aff9083018486613287565b634e487b7160e01b600052601160045260246000fd5b6000808585111561333457600080fd5b8386111561334157600080fd5b5050820193919092039150565b6000808335601e1984360301811261336557600080fd5b8301803591506001600160401b0382111561337f57600080fd5b6020019150368190038213156112b357600080fd5b8284823760008382016000815283516133b18183602088016130b1565b0195945050505050565b65ffffffffffff8181168382160190811115610cc557610cc561330e565b65ffffffffffff861681526001600160a01b038581166020830152841660408201526080606082018190526000906134149083018486613287565b979650505050505050565b80356001600160e01b03198116906004841015613450576001600160e01b0319600485900360031b81901b82161691505b5092915050565b600082516134698184602087016130b1565b9190910192915050565b60006020828403121561348557600080fd5b5051919050565b63ffffffff8281168282160390811115610cc557610cc561330e56fe360894a13ba1a3210667c828492db98dca3e2076cc3735a920a3ca505d382bbca2646970667358221220a12a605efd8f97847832762b1e37dcaf4f8ad9a70daa6d2631c84577912e7e0164736f6c634300081c0033",
  "linkReferences": {},
  "deployedLinkReferences": {}
}