{
  "_format": "hh-sol-artifact-1",
  "contractName": "OsmiDailyDistribution",
  "sourceName": "contracts/OsmiDailyDistribution.sol",
  "abi": [
    {
      "inputs": [],
      "stateMutability": "nonpayable",
      "type": "constructor"
    },
    {
      "inputs": [
        {
          "internalType": "address",
          "name": "authority",
          "type": "address"
        }
      ],
      "name": "AccessManagedInvalidAuthority",
      "type": "error"
    },
    {
      "inputs": [
        {
          "internalType": "address",
          "name": "caller",
          "type": "address"
        },
        {
          "internalType": "uint32",
          "name": "delay",
          "type": "uint32"
        }
      ],
      "name": "AccessManagedRequiredDelay",
      "type": "error"
    },
    {
      "inputs": [
        {
          "internalType": "address",
          "name": "caller",
          "type": "address"
        }
      ],
      "name": "AccessManagedUnauthorized",
      "type": "error"
    },
    {
      "inputs": [
        {
          "internalType": "address",
          "name": "target",
          "type": "address"
        }
      ],
      "name": "AddressEmptyCode",
      "type": "error"
    },
    {
      "inputs": [
        {
          "internalType": "uint256",
          "name": "until",
          "type": "uint256"
        }
      ],
      "name": "DistributionOnCooldown",
      "type": "error"
    },
    {
      "inputs": [
        {
          "internalType": "address",
          "name": "implementation",
          "type": "address"
        }
      ],
      "name": "ERC1967InvalidImplementation",
      "type": "error"
    },
    {
      "inputs": [],
      "name": "ERC1967NonPayable",
      "type": "error"
    },
    {
      "inputs": [],
      "name": "FailedInnerCall",
      "type": "error"
    },
    {
      "inputs": [],
      "name": "InvalidEmissionNumerator",
      "type": "error"
    },
    {
      "inputs": [],
      "name": "InvalidInitialization",
      "type": "error"
    },
    {
      "inputs": [],
      "name": "MathOverflowedMulDiv",
      "type": "error"
    },
    {
      "inputs": [
        {
          "internalType": "uint256",
          "name": "expected",
          "type": "uint256"
        },
        {
          "internalType": "uint256",
          "name": "actual",
          "type": "uint256"
        }
      ],
      "name": "MintDiscrepancy",
      "type": "error"
    },
    {
      "inputs": [],
      "name": "NotInitializing",
      "type": "error"
    },
    {
      "inputs": [],
      "name": "UUPSUnauthorizedCallContext",
      "type": "error"
    },
    {
      "inputs": [
        {
          "internalType": "bytes32",
          "name": "slot",
          "type": "bytes32"
        }
      ],
      "name": "UUPSUnsupportedProxiableUUID",
      "type": "error"
    },
    {
      "anonymous": false,
      "inputs": [
        {
          "indexed": false,
          "internalType": "address",
          "name": "authority",
          "type": "address"
        }
      ],
      "name": "AuthorityUpdated",
      "type": "event"
    },
    {
      "anonymous": false,
      "inputs": [
        {
          "indexed": false,
          "internalType": "uint256",
          "name": "timestamp",
          "type": "uint256"
        },
        {
          "indexed": false,
          "internalType": "uint256",
          "name": "minted",
          "type": "uint256"
        },
        {
          "indexed": false,
          "internalType": "uint256",
          "name": "totalSupply",
          "type": "uint256"
        },
        {
          "indexed": false,
          "internalType": "uint256",
          "name": "cap",
          "type": "uint256"
        }
      ],
      "name": "DailyDistribution",
      "type": "event"
    },
    {
      "anonymous": false,
      "inputs": [
        {
          "indexed": false,
          "internalType": "uint256",
          "name": "value",
          "type": "uint256"
        }
      ],
      "name": "DailyEmissionNumeratorChanged",
      "type": "event"
    },
    {
      "anonymous": false,
      "inputs": [
        {
          "indexed": false,
          "internalType": "uint64",
          "name": "version",
          "type": "uint64"
        }
      ],
      "name": "Initialized",
      "type": "event"
    },
    {
      "anonymous": false,
      "inputs": [
        {
          "indexed": false,
          "internalType": "address",
          "name": "to",
          "type": "address"
        },
        {
          "indexed": false,
          "internalType": "uint256",
          "name": "numerator",
          "type": "uint256"
        }
      ],
      "name": "NodeRewardsChanged",
      "type": "event"
    },
    {
      "anonymous": false,
      "inputs": [
        {
          "indexed": false,
          "internalType": "address",
          "name": "to",
          "type": "address"
        },
        {
          "indexed": false,
          "internalType": "uint256",
          "name": "numerator",
          "type": "uint256"
        }
      ],
      "name": "ProjectDevelopmentFundChanged",
      "type": "event"
    },
    {
      "anonymous": false,
      "inputs": [
        {
          "indexed": false,
          "internalType": "address",
          "name": "to",
          "type": "address"
        },
        {
          "indexed": false,
          "internalType": "uint256",
          "name": "numerator",
          "type": "uint256"
        }
      ],
      "name": "ReferralProgramChanged",
      "type": "event"
    },
    {
      "anonymous": false,
      "inputs": [
        {
          "indexed": false,
          "internalType": "address",
          "name": "to",
          "type": "address"
        },
        {
          "indexed": false,
          "internalType": "uint256",
          "name": "numerator",
          "type": "uint256"
        }
      ],
      "name": "StakingAndCommunityInitiativesChanged",
      "type": "event"
    },
    {
      "anonymous": false,
      "inputs": [
        {
          "indexed": false,
          "internalType": "contract IOsmiToken",
          "name": "tokenContract",
          "type": "address"
        }
      ],
      "name": "TokenContractChanged",
      "type": "event"
    },
    {
      "anonymous": false,
      "inputs": [
        {
          "indexed": true,
          "internalType": "address",
          "name": "implementation",
          "type": "address"
        }
      ],
      "name": "Upgraded",
      "type": "event"
    },
    {
      "inputs": [],
      "name": "UPGRADE_INTERFACE_VERSION",
      "outputs": [
        {
          "internalType": "string",
          "name": "",
          "type": "string"
        }
      ],
      "stateMutability": "view",
      "type": "function"
    },
    {
      "inputs": [],
      "name": "authority",
      "outputs": [
        {
          "internalType": "address",
          "name": "",
          "type": "address"
        }
      ],
      "stateMutability": "view",
      "type": "function"
    },
    {
      "inputs": [
        {
          "internalType": "uint256",
          "name": "dailyEmissionNumerator",
          "type": "uint256"
        },
        {
          "components": [
            {
              "components": [
                {
                  "internalType": "address",
                  "name": "to",
                  "type": "address"
                },
                {
                  "internalType": "uint256",
                  "name": "numerator",
                  "type": "uint256"
                }
              ],
              "internalType": "struct OsmiDailyDistribution.Pool",
              "name": "nodeRewards",
              "type": "tuple"
            },
            {
              "components": [
                {
                  "internalType": "address",
                  "name": "to",
                  "type": "address"
                },
                {
                  "internalType": "uint256",
                  "name": "numerator",
                  "type": "uint256"
                }
              ],
              "internalType": "struct OsmiDailyDistribution.Pool",
              "name": "projectDevelopmentFund",
              "type": "tuple"
            },
            {
              "components": [
                {
                  "internalType": "address",
                  "name": "to",
                  "type": "address"
                },
                {
                  "internalType": "uint256",
                  "name": "numerator",
                  "type": "uint256"
                }
              ],
              "internalType": "struct OsmiDailyDistribution.Pool",
              "name": "stakingAndCommunityInitiatives",
              "type": "tuple"
            },
            {
              "components": [
                {
                  "internalType": "address",
                  "name": "to",
                  "type": "address"
                },
                {
                  "internalType": "uint256",
                  "name": "numerator",
                  "type": "uint256"
                }
              ],
              "internalType": "struct OsmiDailyDistribution.Pool",
              "name": "referralProgram",
              "type": "tuple"
            }
          ],
          "internalType": "struct OsmiDailyDistribution.Pools",
          "name": "pools",
          "type": "tuple"
        }
      ],
      "name": "configureDistribution",
      "outputs": [],
      "stateMutability": "nonpayable",
      "type": "function"
    },
    {
      "inputs": [],
      "name": "doDailyDistribution",
      "outputs": [],
      "stateMutability": "nonpayable",
      "type": "function"
    },
    {
      "inputs": [],
      "name": "getPools",
      "outputs": [
        {
          "components": [
            {
              "components": [
                {
                  "internalType": "address",
                  "name": "to",
                  "type": "address"
                },
                {
                  "internalType": "uint256",
                  "name": "numerator",
                  "type": "uint256"
                }
              ],
              "internalType": "struct OsmiDailyDistribution.Pool",
              "name": "nodeRewards",
              "type": "tuple"
            },
            {
              "components": [
                {
                  "internalType": "address",
                  "name": "to",
                  "type": "address"
                },
                {
                  "internalType": "uint256",
                  "name": "numerator",
                  "type": "uint256"
                }
              ],
              "internalType": "struct OsmiDailyDistribution.Pool",
              "name": "projectDevelopmentFund",
              "type": "tuple"
            },
            {
              "components": [
                {
                  "internalType": "address",
                  "name": "to",
                  "type": "address"
                },
                {
                  "internalType": "uint256",
                  "name": "numerator",
                  "type": "uint256"
                }
              ],
              "internalType": "struct OsmiDailyDistribution.Pool",
              "name": "stakingAndCommunityInitiatives",
              "type": "tuple"
            },
            {
              "components": [
                {
                  "internalType": "address",
                  "name": "to",
                  "type": "address"
                },
                {
                  "internalType": "uint256",
                  "name": "numerator",
                  "type": "uint256"
                }
              ],
              "internalType": "struct OsmiDailyDistribution.Pool",
              "name": "referralProgram",
              "type": "tuple"
            }
          ],
          "internalType": "struct OsmiDailyDistribution.Pools",
          "name": "",
          "type": "tuple"
        }
      ],
      "stateMutability": "view",
      "type": "function"
    },
    {
      "inputs": [
        {
          "internalType": "address",
          "name": "initialAuthority",
          "type": "address"
        },
        {
          "internalType": "address",
          "name": "tokenContract",
          "type": "address"
        },
        {
          "internalType": "uint256",
          "name": "dailyEmissionNumerator",
          "type": "uint256"
        },
        {
          "components": [
            {
              "components": [
                {
                  "internalType": "address",
                  "name": "to",
                  "type": "address"
                },
                {
                  "internalType": "uint256",
                  "name": "numerator",
                  "type": "uint256"
                }
              ],
              "internalType": "struct OsmiDailyDistribution.Pool",
              "name": "nodeRewards",
              "type": "tuple"
            },
            {
              "components": [
                {
                  "internalType": "address",
                  "name": "to",
                  "type": "address"
                },
                {
                  "internalType": "uint256",
                  "name": "numerator",
                  "type": "uint256"
                }
              ],
              "internalType": "struct OsmiDailyDistribution.Pool",
              "name": "projectDevelopmentFund",
              "type": "tuple"
            },
            {
              "components": [
                {
                  "internalType": "address",
                  "name": "to",
                  "type": "address"
                },
                {
                  "internalType": "uint256",
                  "name": "numerator",
                  "type": "uint256"
                }
              ],
              "internalType": "struct OsmiDailyDistribution.Pool",
              "name": "stakingAndCommunityInitiatives",
              "type": "tuple"
            },
            {
              "components": [
                {
                  "internalType": "address",
                  "name": "to",
                  "type": "address"
                },
                {
                  "internalType": "uint256",
                  "name": "numerator",
                  "type": "uint256"
                }
              ],
              "internalType": "struct OsmiDailyDistribution.Pool",
              "name": "referralProgram",
              "type": "tuple"
            }
          ],
          "internalType": "struct OsmiDailyDistribution.Pools",
          "name": "pools",
          "type": "tuple"
        }
      ],
      "name": "initialize",
      "outputs": [],
      "stateMutability": "nonpayable",
      "type": "function"
    },
    {
      "inputs": [],
      "name": "isConsumingScheduledOp",
      "outputs": [
        {
          "internalType": "bytes4",
          "name": "",
          "type": "bytes4"
        }
      ],
      "stateMutability": "view",
      "type": "function"
    },
    {
      "inputs": [],
      "name": "proxiableUUID",
      "outputs": [
        {
          "internalType": "bytes32",
          "name": "",
          "type": "bytes32"
        }
      ],
      "stateMutability": "view",
      "type": "function"
    },
    {
      "inputs": [
        {
          "internalType": "address",
          "name": "newAuthority",
          "type": "address"
        }
      ],
      "name": "setAuthority",
      "outputs": [],
      "stateMutability": "nonpayable",
      "type": "function"
    },
    {
      "inputs": [
        {
          "internalType": "address",
          "name": "tokenContract",
          "type": "address"
        }
      ],
      "name": "setTokenContract",
      "outputs": [],
      "stateMutability": "nonpayable",
      "type": "function"
    },
    {
      "inputs": [
        {
          "internalType": "address",
          "name": "newImplementation",
          "type": "address"
        },
        {
          "internalType": "bytes",
          "name": "data",
          "type": "bytes"
        }
      ],
      "name": "upgradeToAndCall",
      "outputs": [],
      "stateMutability": "payable",
      "type": "function"
    }
  ],
  "bytecode": "0x60a06040523060805234801561001457600080fd5b5061001d610022565b6100d4565b7ff0c57e16840df040f15088dc2f81fe391c3923bec73e23a9662efc9c229c6a00805468010000000000000000900460ff16156100725760405163f92ee8a960e01b815260040160405180910390fd5b80546001600160401b03908116146100d15780546001600160401b0319166001600160401b0390811782556040519081527fc7f505b2f371ae2175ee4913f4499e1f2633a7b5936321eed1cdaeb6115181d29060200160405180910390a15b50565b608051611bcf6100fd60003960008181610ea701528181610ed001526110170152611bcf6000f3fe60806040526004361061009c5760003560e01c80637a9e5e4b116100645780637a9e5e4b146101355780638bd7f1f1146101555780638fb3603714610175578063ad3cb1cc146101a3578063bbcd5bbe146101e1578063bf7e214f1461020157600080fd5b806339e9f6ce146100a15780634f1ef286146100c357806352d1902d146100d6578063673a2a1f146100fe5780637766fb1c14610120575b600080fd5b3480156100ad57600080fd5b506100c16100bc366004611751565b61022e565b005b6100c16100d13660046117b6565b61035c565b3480156100e257600080fd5b506100eb61037b565b6040519081526020015b60405180910390f35b34801561010a57600080fd5b50610113610398565b6040516100f59190611880565b34801561012c57600080fd5b506100c161051e565b34801561014157600080fd5b506100c1610150366004611905565b61098b565b34801561016157600080fd5b506100c1610170366004611920565b610a0e565b34801561018157600080fd5b5061018a610a21565b6040516001600160e01b031990911681526020016100f5565b3480156101af57600080fd5b506101d4604051806040016040528060058152602001640352e302e360dc1b81525081565b6040516100f59190611972565b3480156101ed57600080fd5b506100c16101fc366004611905565b610a5a565b34801561020d57600080fd5b50610216610a6f565b6040516001600160a01b0390911681526020016100f5565b7ff0c57e16840df040f15088dc2f81fe391c3923bec73e23a9662efc9c229c6a008054600160401b810460ff16159067ffffffffffffffff166000811580156102745750825b905060008267ffffffffffffffff1660011480156102915750303b155b90508115801561029f575080155b156102bd5760405163f92ee8a960e01b815260040160405180910390fd5b845467ffffffffffffffff1916600117855583156102e757845460ff60401b1916600160401b1785555b6102f089610a8b565b6102f8610a9c565b61030188610aa6565b61030b8787610b88565b831561035157845460ff60401b19168555604051600181527fc7f505b2f371ae2175ee4913f4499e1f2633a7b5936321eed1cdaeb6115181d29060200160405180910390a15b505050505050505050565b610364610e9c565b61036d82610f41565b6103778282610f4a565b5050565b600061038561100c565b50600080516020611b7a83398151915290565b6103a061169c565b506040805160c0810182527f11e36f22dc3e60b61fc7ee072e0af835828cfda265c4a879bb366f002f523f03546001600160a01b03908116608083019081527f11e36f22dc3e60b61fc7ee072e0af835828cfda265c4a879bb366f002f523f045460a08401528252825180840184527f11e36f22dc3e60b61fc7ee072e0af835828cfda265c4a879bb366f002f523f0554821681527f11e36f22dc3e60b61fc7ee072e0af835828cfda265c4a879bb366f002f523f065460208083019190915280840191909152835180850185527f11e36f22dc3e60b61fc7ee072e0af835828cfda265c4a879bb366f002f523f0754831681527f11e36f22dc3e60b61fc7ee072e0af835828cfda265c4a879bb366f002f523f0854818301528385015283518085019094527f11e36f22dc3e60b61fc7ee072e0af835828cfda265c4a879bb366f002f523f095490911683527f11e36f22dc3e60b61fc7ee072e0af835828cfda265c4a879bb366f002f523f0a5490830152606081019190915290565b61052b335b600036611055565b7f11e36f22dc3e60b61fc7ee072e0af835828cfda265c4a879bb366f002f523f01547f11e36f22dc3e60b61fc7ee072e0af835828cfda265c4a879bb366f002f523f0090600090610e109061058390620151806119bb565b61058d91906119ce565b9050428111156105b8576040516384729a7360e01b8152600481018290526024015b60405180910390fd5b426001830155815460408051631aa93a7560e11b815290516000926001600160a01b03169163355274ea9160048083019260209291908290030181865afa158015610607573d6000803e3d6000fd5b505050506040513d601f19601f8201168201806040525081019061062b91906119e1565b905060008360000160009054906101000a90046001600160a01b03166001600160a01b03166318160ddd6040518163ffffffff1660e01b8152600401602060405180830381865afa158015610684573d6000803e3d6000fd5b505050506040513d601f19601f820116820180604052508101906106a891906119e1565b600285015490915060006106ca6106bf84866119ce565b83633b9aca0061115b565b90506000806106e8838960030160000160010154633b9aca0061115b565b885460038a01546040516340c10f1960e01b81526001600160a01b0391821660048201526024810184905292935016906340c10f1990604401600060405180830381600087803b15801561073b57600080fd5b505af115801561074f573d6000803e3d6000fd5b50505050808261075f91906119bb565b6006890154909250610777908490633b9aca0061115b565b885460058a01546040516340c10f1960e01b81526001600160a01b0391821660048201526024810184905292935016906340c10f1990604401600060405180830381600087803b1580156107ca57600080fd5b505af11580156107de573d6000803e3d6000fd5b5050505080826107ee91906119bb565b6008890154909250610806908490633b9aca0061115b565b885460078a01546040516340c10f1960e01b81526001600160a01b0391821660048201526024810184905292935016906340c10f1990604401600060405180830381600087803b15801561085957600080fd5b505af115801561086d573d6000803e3d6000fd5b50505050808261087d91906119bb565b600a890154909250610895908490633b9aca0061115b565b885460098a01546040516340c10f1960e01b81526001600160a01b0391821660048201526024810184905292935016906340c10f1990604401600060405180830381600087803b1580156108e857600080fd5b505af11580156108fc573d6000803e3d6000fd5b50505050808261090c91906119bb565b91508282111561093957604051630c724ac560e01b815260048101849052602481018390526044016105af565b6040805142815260208101849052908101869052606081018790527ffe1d440ca97cd36eb0b3a437ab57ca803562c6a56e85d4b7cf06b36a7dff8f809060800160405180910390a15050505050505050565b33610994610a6f565b6001600160a01b0316816001600160a01b0316146109cf5760405162d1953b60e31b81526001600160a01b03821660048201526024016105af565b816001600160a01b03163b600003610a05576040516361798f2f60e11b81526001600160a01b03831660048201526024016105af565b61037782611220565b610a1733610523565b6103778282610b88565b600080516020611b5a833981519152805460009190600160a01b900460ff16610a4b576000610a54565b638fb3603760e01b5b91505090565b610a6333610523565b610a6c81610aa6565b50565b600080516020611b5a833981519152546001600160a01b031690565b610a9361127a565b610a6c816112c3565b610aa461127a565b565b6001600160a01b038116610afc5760405162461bcd60e51b815260206004820152601c60248201527f746f6b656e20636f6e74726163742063616e2774206265207a65726f0000000060448201526064016105af565b7f11e36f22dc3e60b61fc7ee072e0af835828cfda265c4a879bb366f002f523f0080546001600160a01b03838116911603610b35575050565b80546001600160a01b0319166001600160a01b03831690811782556040519081527fe89f98a27789c8313baa22de83cdb921b7026d66af0ee02973c97d45f952b6be906020015b60405180910390a15050565b7f11e36f22dc3e60b61fc7ee072e0af835828cfda265c4a879bb366f002f523f02547f11e36f22dc3e60b61fc7ee072e0af835828cfda265c4a879bb366f002f523f00908314610c4557821580610bec5750610be9600a633b9aca00611a10565b83115b15610c0a5760405163c5f55b9360e01b815260040160405180910390fd5b600281018390556040518381527f2c3e2e28fbf9e7fc7c7948796c05496767f92c4d8f7a28115b9b69f21c12e8069060200160405180910390a15b610c5260038201836112d4565b15610caa577f8db84d792225d3c3f70c0349451eb84d6231c0d751fd15cd0bc0cf78770e6aec610c856020840184611905565b604080516001600160a01b039092168252602085810135908301520160405180910390a15b610cba60058201604084016112d4565b15610d15577fe16a9be4c42e95b33eac5c37e6ed8fc13974508ae82a6bd622d39a63d9f86920610cf06060840160408501611905565b604080516001600160a01b039092168252606085013560208301520160405180910390a15b610d2560078201608084016112d4565b15610d80577ffe9b90f9df8b1a8bb9bc56589fa0f112658bb8eff69b15538668d9baa4992f10610d5b60a0840160808501611905565b604080516001600160a01b03909216825260a085013560208301520160405180910390a15b610d906009820160c084016112d4565b15610deb577f7d169ad428713fdab972242fe8f27d8772d1a374412a9d3068a4419d2ec8eacf610dc660e0840160c08501611905565b604080516001600160a01b03909216825260e085013560208301520160405180910390a15b6000610dfb6020840135826119bb565b9050610e0b6060840135826119bb565b9050610e1b60a0840135826119bb565b9050610e2b60e0840135826119bb565b9050633b9aca008114610e965760405162461bcd60e51b815260206004820152602d60248201527f73756d206f6620706f6f6c206e756d657261746f7273206d757374206571756160448201526c36103232b737b6b4b730ba37b960991b60648201526084016105af565b50505050565b306001600160a01b037f0000000000000000000000000000000000000000000000000000000000000000161480610f2357507f00000000000000000000000000000000000000000000000000000000000000006001600160a01b0316610f17600080516020611b7a833981519152546001600160a01b031690565b6001600160a01b031614155b15610aa45760405163703e46dd60e11b815260040160405180910390fd5b610a6c33610523565b816001600160a01b03166352d1902d6040518163ffffffff1660e01b8152600401602060405180830381865afa925050508015610fa4575060408051601f3d908101601f19168201909252610fa1918101906119e1565b60015b610fcc57604051634c9c8ce360e01b81526001600160a01b03831660048201526024016105af565b600080516020611b7a8339815191528114610ffd57604051632a87526960e21b8152600481018290526024016105af565b61100783836113bb565b505050565b306001600160a01b037f00000000000000000000000000000000000000000000000000000000000000001614610aa45760405163703e46dd60e11b815260040160405180910390fd5b600080516020611b5a833981519152600080611090611072610a6f565b8730611082600460008a8c611a32565b61108b91611a5c565b611411565b91509150816111535763ffffffff81161561113057825460ff60a01b1916600160a01b1783556110be610a6f565b6001600160a01b03166394c7d7ee8787876040518463ffffffff1660e01b81526004016110ed93929190611a92565b600060405180830381600087803b15801561110757600080fd5b505af115801561111b573d6000803e3d6000fd5b5050845460ff60a01b19168555506111539050565b60405162d1953b60e31b81526001600160a01b03871660048201526024016105af565b505050505050565b600083830281600019858709828110838203039150508060000361119257838281611188576111886119fa565b0492505050611219565b8084116111b25760405163227bc15360e01b815260040160405180910390fd5b6000848688096000868103871696879004966002600389028118808a02820302808a02820302808a02820302808a02820302808a02820302808a02909103029181900381900460010186841190950394909402919094039290920491909117919091029150505b9392505050565b600080516020611b5a83398151915280546001600160a01b0319166001600160a01b03831690811782556040519081527f2f658b440c35314f52658ea8a740e05b284cdc84dc9ae01e891f21b8933e7cad90602001610b7c565b7ff0c57e16840df040f15088dc2f81fe391c3923bec73e23a9662efc9c229c6a0054600160401b900460ff16610aa457604051631afcd79f60e31b815260040160405180910390fd5b6112cb61127a565b610a6c81611220565b6000806112e46020840184611905565b84546001600160a01b039081169116146113935760006113076020850185611905565b6001600160a01b0316036113675760405162461bcd60e51b815260206004820152602160248201527f74617267657420706f6f6c2063616e2774206265207a65726f206164647265736044820152607360f81b60648201526084016105af565b6113746020840184611905565b84546001600160a01b0319166001600160a01b03919091161784555060015b82602001358460010154146113b2575060208201356001808501919091555b90505b92915050565b6113c48261151d565b6040516001600160a01b038316907fbc7cd75a20ee27fd9adebab32041f755214dbc6bffa90cc0225b39da2e5c2d3b90600090a2805115611409576110078282611582565b6103776115f8565b6040516001600160a01b03848116602483015283811660448301526001600160e01b03198316606483015260009182918291829189169060840160408051601f198184030181529181526020820180516001600160e01b031663b700961360e01b179052516114809190611ad2565b600060405180830381855afa9150503d80600081146114bb576040519150601f19603f3d011682016040523d82523d6000602084013e6114c0565b606091505b509150915081156115125760408151106114f257808060200190518101906114e89190611afe565b9094509250611512565b6020815110611512578080602001905181019061150f9190611b3e565b93505b505094509492505050565b806001600160a01b03163b60000361155357604051634c9c8ce360e01b81526001600160a01b03821660048201526024016105af565b600080516020611b7a83398151915280546001600160a01b0319166001600160a01b0392909216919091179055565b6060600080846001600160a01b03168460405161159f9190611ad2565b600060405180830381855af49150503d80600081146115da576040519150601f19603f3d011682016040523d82523d6000602084013e6115df565b606091505b50915091506115ef858383611617565b95945050505050565b3415610aa45760405163b398979f60e01b815260040160405180910390fd5b60608261162c5761162782611673565b611219565b815115801561164357506001600160a01b0384163b155b1561166c57604051639996b31560e01b81526001600160a01b03851660048201526024016105af565b5080611219565b8051156116835780518082602001fd5b604051630a12f52160e11b815260040160405180910390fd5b6040805160c0810190915260006080820181815260a0830191909152819081526020016116d9604080518082019091526000808252602082015290565b81526020016116f8604080518082019091526000808252602082015290565b8152602001611717604080518082019091526000808252602082015290565b905290565b80356001600160a01b038116811461173357600080fd5b919050565b6000610100828403121561174b57600080fd5b50919050565b600080600080610160858703121561176857600080fd5b6117718561171c565b935061177f6020860161171c565b9250604085013591506117958660608701611738565b905092959194509250565b634e487b7160e01b600052604160045260246000fd5b600080604083850312156117c957600080fd5b6117d28361171c565b9150602083013567ffffffffffffffff8111156117ee57600080fd5b8301601f810185136117ff57600080fd5b803567ffffffffffffffff811115611819576118196117a0565b604051601f8201601f19908116603f0116810167ffffffffffffffff81118282101715611848576118486117a0565b60405281815282820160200187101561186057600080fd5b816020840160208301376000602083830101528093505050509250929050565b815180516001600160a01b0316825260209081015190820152610100810160208381015180516001600160a01b0316604085015290810151606084015250604083015180516001600160a01b03166080840152602081015160a084015250606083015180516001600160a01b031660c0840152602081015160e08401525b5092915050565b60006020828403121561191757600080fd5b6112198261171c565b600080610120838503121561193457600080fd5b823591506119458460208501611738565b90509250929050565b60005b83811015611969578181015183820152602001611951565b50506000910152565b602081526000825180602084015261199181604085016020870161194e565b601f01601f19169190910160400192915050565b634e487b7160e01b600052601160045260246000fd5b808201808211156113b5576113b56119a5565b818103818111156113b5576113b56119a5565b6000602082840312156119f357600080fd5b5051919050565b634e487b7160e01b600052601260045260246000fd5b600082611a2d57634e487b7160e01b600052601260045260246000fd5b500490565b60008085851115611a4257600080fd5b83861115611a4f57600080fd5b5050820193919092039150565b80356001600160e01b031981169060048410156118fe576001600160e01b031960049490940360031b84901b1690921692915050565b6001600160a01b03841681526040602082018190528101829052818360608301376000818301606090810191909152601f909201601f1916010192915050565b60008251611ae481846020870161194e565b9190910192915050565b8051801515811461173357600080fd5b60008060408385031215611b1157600080fd5b611b1a83611aee565b9150602083015163ffffffff81168114611b3357600080fd5b809150509250929050565b600060208284031215611b5057600080fd5b61121982611aee56fef3177357ab46d8af007ab3fdb9af81da189e1068fefdc0073dca88a2cab40a00360894a13ba1a3210667c828492db98dca3e2076cc3735a920a3ca505d382bbca2646970667358221220006d9677f8dd197daf22de6305a5274a0918eff54f7420ff4a1df24dd5712b2264736f6c634300081c0033",
  "linkReferences": {},
  "deployedLinkReferences": {}
}